{
	"data": {
		"bytecode": {
			"linkReferences": {},
			"object": "6080604052600080556ec097ce7bc90715b34b9f1000000000603455678ac7230489e80000603c5534801561003357600080fd5b506114bb806100436000396000f3fe608060405234801561001057600080fd5b506004361061010b5760003560e01c80636722b4fa116100a2578063ad0f5fa911610071578063ad0f5fa91461031d578063d00eeacd14610343578063e2bd79a31461034b578063ea505a2614610353578063f06e5e60146103855761010b565b80636722b4fa146102df5780637af635a6146102e7578063915541f5146102ef57806395de56a8146102f75761010b565b80632eaae3c7116100de5780632eaae3c714610267578063408cfe241461028d5780634c6fc8e9146102b157806361c773cf146102d75761010b565b80631459457a146101105780631470b90b1461015a57806327ec16ed1461018c578063285c23a51461022f575b600080fd5b610158600480360360a081101561012657600080fd5b506001600160a01b038135811691602081013582169160408201358116916060810135821691608090910135166103ab565b005b6101586004803603606081101561017057600080fd5b506001600160a01b038135169060208101359060400135610546565b610158600480360360208110156101a257600080fd5b8101906020810181356401000000008111156101bd57600080fd5b8201836020820111156101cf57600080fd5b803590602001918460208302840111640100000000831117156101f157600080fd5b9190808060200260200160405190810160405280939291908181526020018383602002808284376000920191909152509295506105f4945050505050565b6102556004803603602081101561024557600080fd5b50356001600160a01b031661069b565b60408051918252519081900360200190f35b6102556004803603602081101561027d57600080fd5b50356001600160a01b03166106b6565b6102956106d1565b604080516001600160a01b039092168252519081900360200190f35b610255600480360360208110156102c757600080fd5b50356001600160a01b03166106e0565b6102956106fb565b61029561070a565b610255610719565b61029561071e565b6101586004803603602081101561030d57600080fd5b50356001600160a01b031661072d565b6101586004803603602081101561033357600080fd5b50356001600160a01b0316610782565b6102956107fe565b61025561080d565b6101586004803603606081101561036957600080fd5b506001600160a01b038135169060208101359060400135610813565b6101586004803603602081101561039b57600080fd5b50356001600160a01b03166108bb565b60006103b5610922565b60015490915060ff16806103cc57506103cc610927565b806103d8575060005481115b6104135760405162461bcd60e51b815260040180806020018281038252602e815260200180611386602e913960400191505060405180910390fd5b60015460ff16158015610432576001805460ff19168117905560008290555b603980546001600160a01b0319166001600160a01b03898116919091179182905560408051636b97140160e11b81529051929091169163d72e280291600480820192602092909190829003018186803b15801561048e57600080fd5b505afa1580156104a2573d6000803e3d6000fd5b505050506040513d60208110156104b857600080fd5b5051603a80546001600160a01b0319166001600160a01b039283161790819055166104e257600080fd5b603580546001600160a01b038089166001600160a01b03199283161790925560368054888416908316179055603780548784169083161790556038805492861692909116919091179055801561053d576001805460ff191690555b50505050505050565b6037546001600160a01b031633148061056957506038546001600160a01b031633145b6105a45760405162461bcd60e51b81526004018080602001828103825260428152602001806112fa6042913960600191505060405180910390fd5b6001600160a01b0383166000908152603e60205260409020546105d39082906105cd908561092d565b90610990565b6001600160a01b039093166000908152603e60205260409020929092555050565b6036546001600160a01b031633148061061757506037546001600160a01b031633145b8061062c57506038546001600160a01b031633145b6106675760405162461bcd60e51b81526004018080602001828103825260448152602001806112b66044913960600191505060405180910390fd5b60005b81518110156106975761068f82828151811061068257fe5b60200260200101516109d2565b60010161066a565b5050565b6001600160a01b03166000908152603e602052604090205490565b6001600160a01b03166000908152603d602052604090205490565b6036546001600160a01b031681565b6001600160a01b03166000908152603f602052604090205490565b6037546001600160a01b031681565b6035546001600160a01b031681565b600181565b6038546001600160a01b031681565b6036546001600160a01b031633146107765760405162461bcd60e51b81526004018080602001828103825260428152602001806112746042913960600191505060405180910390fd5b61077f81610abc565b50565b6036546001600160a01b03163314806107a557506037546001600160a01b031633145b806107ba57506038546001600160a01b031633145b6107f55760405162461bcd60e51b81526004018080602001828103825260448152602001806112b66044913960600191505060405180910390fd5b61077f816109d2565b603a546001600160a01b031681565b603c5481565b6037546001600160a01b031633148061083657506038546001600160a01b031633145b6108715760405162461bcd60e51b81526004018080602001828103825260428152602001806112fa6042913960600191505060405180910390fd5b6001600160a01b0383166000908152603f602052604090205461089a9082906105cd908561092d565b6001600160a01b039093166000908152603f60205260409020929092555050565b6037546001600160a01b03163314806108de57506038546001600160a01b031633145b6109195760405162461bcd60e51b81526004018080602001828103825260428152602001806112fa6042913960600191505060405180910390fd5b61077f81610cbd565b600190565b303b1590565b600082820183811015610987576040805162461bcd60e51b815260206004820152601b60248201527f536166654d6174683a206164646974696f6e206f766572666c6f770000000000604482015290519081900360640190fd5b90505b92915050565b600061098783836040518060400160405280601e81526020017f536166654d6174683a207375627472616374696f6e206f766572666c6f770000815250610f3b565b6109db81610abc565b6109e481610cbd565b6001600160a01b0381166000908152603d60205260409020541561077f57603a546035546001600160a01b038381166000818152603d6020908152604080832054815163b482e0d160e01b81529686166004880152602487019490945260448601939093529151929094169363b482e0d19360648082019492918390030190829087803b158015610a7457600080fd5b505af1158015610a88573d6000803e3d6000fd5b505050506040513d6020811015610a9e57600080fd5b50516001600160a01b0382166000908152603d602052604090205550565b603a546035546040805163269c5ec960e21b81526001600160a01b03928316600482015290516000939290921691639a717b2491602480820192602092909190829003018186803b158015610b1057600080fd5b505afa158015610b24573d6000803e3d6000fd5b505050506040513d6020811015610b3a57600080fd5b5051905080610b7a5760405162461bcd60e51b815260040180806020018281038252604a8152602001806113b4604a913960600191505060405180910390fd5b603654604080516304f1e97160e31b81526001600160a01b0385811660048301529151600093929092169163278f4b8891602480820192602092909190829003018186803b158015610bcb57600080fd5b505afa158015610bdf573d6000803e3d6000fd5b505050506040513d6020811015610bf557600080fd5b50519050610c01611225565b5060408051602080820183526001600160a01b03861660009081529083905291909120548152610c2f611225565b5060408051602080820183528582526001600160a01b038716600090815290839052919091208490558151158015610c675750805115155b15610c7157805182525b610c79611225565b610c838284610fd2565b805190915015801590610c965750600084115b15610cb5576000610ca78583611032565b905061053d878260016110b2565b505050505050565b603a546035546040805163087d30f360e11b81526001600160a01b039283166004820152905160009392909216916310fa61e691602480820192602092909190829003018186803b158015610d1157600080fd5b505afa158015610d25573d6000803e3d6000fd5b505050506040513d6020811015610d3b57600080fd5b5051905080610d7b5760405162461bcd60e51b815260040180806020018281038252604a81526020018061133c604a913960600191505060405180910390fd5b603854604080516304f1e97160e31b81526001600160a01b0385811660048301529151600093610e7793169163278f4b88916024808301926020929190829003018186803b158015610dcc57600080fd5b505afa158015610de0573d6000803e3d6000fd5b505050506040513d6020811015610df657600080fd5b5051603754604080516304f1e97160e31b81526001600160a01b0388811660048301529151919092169163278f4b88916024808301926020929190829003018186803b158015610e4557600080fd5b505afa158015610e59573d6000803e3d6000fd5b505050506040513d6020811015610e6f57600080fd5b50519061092d565b9050610e81611225565b5060408051602080820183526001600160a01b03861660009081529083905291909120600101548152610eb2611225565b5060408051602080820183528582526001600160a01b038716600090815290839052919091206001018490558151158015610eed5750805115155b15610ef757805182525b610eff611225565b610f098284610fd2565b805190915015801590610f1c5750600084115b15610cb5576000610f2d8583611032565b905061053d878260006110b2565b60008184841115610fca5760405162461bcd60e51b81526004018080602001828103825283818151815260200191508051906020019080838360005b83811015610f8f578181015183820152602001610f77565b50505050905090810190601f168015610fbc5780820380516001836020036101000a031916815260200191505b509250505060405180910390fd5b505050900390565b610fda611225565b82518251111561101b5760405162461bcd60e51b81526004018080602001828103825260888152602001806113fe6088913960a00191505060405180910390fd5b505190516040805160208101909152919003815290565b600082158061104057508151155b1561104d5750600061098a565b81518381029084828161105c57fe5b04146110995760405162461bcd60e51b815260040180806020018281038252603b815260200180611239603b913960400191505060405180910390fd5b6ec097ce7bc90715b34b9f100000000090049392505050565b6001600160a01b0383166000908152603d60205260409020546110d5908361092d565b6001600160a01b038085166000818152603d60209081526040918290208590556035548251941684528301919091528315158282015260608201859052608082019290925290517fa6c7ba999929d128350b8d7b476c0d3decb90386500154e6e906d910d950e95e9181900360a00190a1603c546001600160a01b0384166000908152603d6020526040902054111561122057603a546035546001600160a01b038581166000818152603d6020908152604080832054815163b482e0d160e01b81529686166004880152602487019490945260448601939093529151929094169363b482e0d19360648082019492918390030190829087803b1580156111da57600080fd5b505af11580156111ee573d6000803e3d6000fd5b505050506040513d602081101561120457600080fd5b50516001600160a01b0384166000908152603d60205260409020555b505050565b604051806020016040528060008152509056fe534947482053747265616d3a204d756c7469706c69636174696f6e202875696e74202a20446f75626c6529206c657420746f206f766572666c6f775468652063616c6c6572206f6620746869732066756e6374696f6e206d75737420626520746865206173736f6369617465642049546f6b656e20436f6e74726163745468652063616c6c6572206f6620746869732066756e6374696f6e2063616e206f6e6c79206265206f6e65206f6620746865206173736f63696174656420746f6b656e735468652063616c6c6572206f6620746869732066756e6374696f6e2063616e206f6e6c7920626520746865206173736f636961746564204465627420746f6b656e735349474820566f6c6174696c697479204861727665737465722072657475726e656420696e76616c696420626f72726f7720496e64657820666f722074686520696e737472756d656e74436f6e747261637420696e7374616e63652068617320616c7265616479206265656e20696e697469616c697a65645349474820566f6c6174696c697479204861727665737465722072657475726e656420696e76616c696420737570706c7920496e64657820666f722074686520696e737472756d656e74534947482053747265616d3a20446f75626c65204d616e7469737361205375627472616374696f6e20756e646572666c6f772c20616d6f756e7420746f20626520737562747261637465642067726561746572207468616e2074686520616d6f756e742066726f6d207768696368206974206e6565647320746f2062652073756274726163746564a26469706673582212200c3897ea5c97a39faae78ac17e4421e8a215608eac574a87277322b610cacc2464736f6c63430007000033",
			"opcodes": "PUSH1 0x80 PUSH1 0x40 MSTORE PUSH1 0x0 DUP1 SSTORE PUSH15 0xC097CE7BC90715B34B9F1000000000 PUSH1 0x34 SSTORE PUSH8 0x8AC7230489E80000 PUSH1 0x3C SSTORE CALLVALUE DUP1 ISZERO PUSH2 0x33 JUMPI PUSH1 0x0 DUP1 REVERT JUMPDEST POP PUSH2 0x14BB DUP1 PUSH2 0x43 PUSH1 0x0 CODECOPY PUSH1 0x0 RETURN INVALID PUSH1 0x80 PUSH1 0x40 MSTORE CALLVALUE DUP1 ISZERO PUSH2 0x10 JUMPI PUSH1 0x0 DUP1 REVERT JUMPDEST POP PUSH1 0x4 CALLDATASIZE LT PUSH2 0x10B JUMPI PUSH1 0x0 CALLDATALOAD PUSH1 0xE0 SHR DUP1 PUSH4 0x6722B4FA GT PUSH2 0xA2 JUMPI DUP1 PUSH4 0xAD0F5FA9 GT PUSH2 0x71 JUMPI DUP1 PUSH4 0xAD0F5FA9 EQ PUSH2 0x31D JUMPI DUP1 PUSH4 0xD00EEACD EQ PUSH2 0x343 JUMPI DUP1 PUSH4 0xE2BD79A3 EQ PUSH2 0x34B JUMPI DUP1 PUSH4 0xEA505A26 EQ PUSH2 0x353 JUMPI DUP1 PUSH4 0xF06E5E60 EQ PUSH2 0x385 JUMPI PUSH2 0x10B JUMP JUMPDEST DUP1 PUSH4 0x6722B4FA EQ PUSH2 0x2DF JUMPI DUP1 PUSH4 0x7AF635A6 EQ PUSH2 0x2E7 JUMPI DUP1 PUSH4 0x915541F5 EQ PUSH2 0x2EF JUMPI DUP1 PUSH4 0x95DE56A8 EQ PUSH2 0x2F7 JUMPI PUSH2 0x10B JUMP JUMPDEST DUP1 PUSH4 0x2EAAE3C7 GT PUSH2 0xDE JUMPI DUP1 PUSH4 0x2EAAE3C7 EQ PUSH2 0x267 JUMPI DUP1 PUSH4 0x408CFE24 EQ PUSH2 0x28D JUMPI DUP1 PUSH4 0x4C6FC8E9 EQ PUSH2 0x2B1 JUMPI DUP1 PUSH4 0x61C773CF EQ PUSH2 0x2D7 JUMPI PUSH2 0x10B JUMP JUMPDEST DUP1 PUSH4 0x1459457A EQ PUSH2 0x110 JUMPI DUP1 PUSH4 0x1470B90B EQ PUSH2 0x15A JUMPI DUP1 PUSH4 0x27EC16ED EQ PUSH2 0x18C JUMPI DUP1 PUSH4 0x285C23A5 EQ PUSH2 0x22F JUMPI JUMPDEST PUSH1 0x0 DUP1 REVERT JUMPDEST PUSH2 0x158 PUSH1 0x4 DUP1 CALLDATASIZE SUB PUSH1 0xA0 DUP2 LT ISZERO PUSH2 0x126 JUMPI PUSH1 0x0 DUP1 REVERT JUMPDEST POP PUSH1 0x1 PUSH1 0x1 PUSH1 0xA0 SHL SUB DUP2 CALLDATALOAD DUP2 AND SWAP2 PUSH1 0x20 DUP2 ADD CALLDATALOAD DUP3 AND SWAP2 PUSH1 0x40 DUP3 ADD CALLDATALOAD DUP2 AND SWAP2 PUSH1 0x60 DUP2 ADD CALLDATALOAD DUP3 AND SWAP2 PUSH1 0x80 SWAP1 SWAP2 ADD CALLDATALOAD AND PUSH2 0x3AB JUMP JUMPDEST STOP JUMPDEST PUSH2 0x158 PUSH1 0x4 DUP1 CALLDATASIZE SUB PUSH1 0x60 DUP2 LT ISZERO PUSH2 0x170 JUMPI PUSH1 0x0 DUP1 REVERT JUMPDEST POP PUSH1 0x1 PUSH1 0x1 PUSH1 0xA0 SHL SUB DUP2 CALLDATALOAD AND SWAP1 PUSH1 0x20 DUP2 ADD CALLDATALOAD SWAP1 PUSH1 0x40 ADD CALLDATALOAD PUSH2 0x546 JUMP JUMPDEST PUSH2 0x158 PUSH1 0x4 DUP1 CALLDATASIZE SUB PUSH1 0x20 DUP2 LT ISZERO PUSH2 0x1A2 JUMPI PUSH1 0x0 DUP1 REVERT JUMPDEST DUP2 ADD SWAP1 PUSH1 0x20 DUP2 ADD DUP2 CALLDATALOAD PUSH5 0x100000000 DUP2 GT ISZERO PUSH2 0x1BD JUMPI PUSH1 0x0 DUP1 REVERT JUMPDEST DUP3 ADD DUP4 PUSH1 0x20 DUP3 ADD GT ISZERO PUSH2 0x1CF JUMPI PUSH1 0x0 DUP1 REVERT JUMPDEST DUP1 CALLDATALOAD SWAP1 PUSH1 0x20 ADD SWAP2 DUP5 PUSH1 0x20 DUP4 MUL DUP5 ADD GT PUSH5 0x100000000 DUP4 GT OR ISZERO PUSH2 0x1F1 JUMPI PUSH1 0x0 DUP1 REVERT JUMPDEST SWAP2 SWAP1 DUP1 DUP1 PUSH1 0x20 MUL PUSH1 0x20 ADD PUSH1 0x40 MLOAD SWAP1 DUP2 ADD PUSH1 0x40 MSTORE DUP1 SWAP4 SWAP3 SWAP2 SWAP1 DUP2 DUP2 MSTORE PUSH1 0x20 ADD DUP4 DUP4 PUSH1 0x20 MUL DUP1 DUP3 DUP5 CALLDATACOPY PUSH1 0x0 SWAP3 ADD SWAP2 SWAP1 SWAP2 MSTORE POP SWAP3 SWAP6 POP PUSH2 0x5F4 SWAP5 POP POP POP POP POP JUMP JUMPDEST PUSH2 0x255 PUSH1 0x4 DUP1 CALLDATASIZE SUB PUSH1 0x20 DUP2 LT ISZERO PUSH2 0x245 JUMPI PUSH1 0x0 DUP1 REVERT JUMPDEST POP CALLDATALOAD PUSH1 0x1 PUSH1 0x1 PUSH1 0xA0 SHL SUB AND PUSH2 0x69B JUMP JUMPDEST PUSH1 0x40 DUP1 MLOAD SWAP2 DUP3 MSTORE MLOAD SWAP1 DUP2 SWAP1 SUB PUSH1 0x20 ADD SWAP1 RETURN JUMPDEST PUSH2 0x255 PUSH1 0x4 DUP1 CALLDATASIZE SUB PUSH1 0x20 DUP2 LT ISZERO PUSH2 0x27D JUMPI PUSH1 0x0 DUP1 REVERT JUMPDEST POP CALLDATALOAD PUSH1 0x1 PUSH1 0x1 PUSH1 0xA0 SHL SUB AND PUSH2 0x6B6 JUMP JUMPDEST PUSH2 0x295 PUSH2 0x6D1 JUMP JUMPDEST PUSH1 0x40 DUP1 MLOAD PUSH1 0x1 PUSH1 0x1 PUSH1 0xA0 SHL SUB SWAP1 SWAP3 AND DUP3 MSTORE MLOAD SWAP1 DUP2 SWAP1 SUB PUSH1 0x20 ADD SWAP1 RETURN JUMPDEST PUSH2 0x255 PUSH1 0x4 DUP1 CALLDATASIZE SUB PUSH1 0x20 DUP2 LT ISZERO PUSH2 0x2C7 JUMPI PUSH1 0x0 DUP1 REVERT JUMPDEST POP CALLDATALOAD PUSH1 0x1 PUSH1 0x1 PUSH1 0xA0 SHL SUB AND PUSH2 0x6E0 JUMP JUMPDEST PUSH2 0x295 PUSH2 0x6FB JUMP JUMPDEST PUSH2 0x295 PUSH2 0x70A JUMP JUMPDEST PUSH2 0x255 PUSH2 0x719 JUMP JUMPDEST PUSH2 0x295 PUSH2 0x71E JUMP JUMPDEST PUSH2 0x158 PUSH1 0x4 DUP1 CALLDATASIZE SUB PUSH1 0x20 DUP2 LT ISZERO PUSH2 0x30D JUMPI PUSH1 0x0 DUP1 REVERT JUMPDEST POP CALLDATALOAD PUSH1 0x1 PUSH1 0x1 PUSH1 0xA0 SHL SUB AND PUSH2 0x72D JUMP JUMPDEST PUSH2 0x158 PUSH1 0x4 DUP1 CALLDATASIZE SUB PUSH1 0x20 DUP2 LT ISZERO PUSH2 0x333 JUMPI PUSH1 0x0 DUP1 REVERT JUMPDEST POP CALLDATALOAD PUSH1 0x1 PUSH1 0x1 PUSH1 0xA0 SHL SUB AND PUSH2 0x782 JUMP JUMPDEST PUSH2 0x295 PUSH2 0x7FE JUMP JUMPDEST PUSH2 0x255 PUSH2 0x80D JUMP JUMPDEST PUSH2 0x158 PUSH1 0x4 DUP1 CALLDATASIZE SUB PUSH1 0x60 DUP2 LT ISZERO PUSH2 0x369 JUMPI PUSH1 0x0 DUP1 REVERT JUMPDEST POP PUSH1 0x1 PUSH1 0x1 PUSH1 0xA0 SHL SUB DUP2 CALLDATALOAD AND SWAP1 PUSH1 0x20 DUP2 ADD CALLDATALOAD SWAP1 PUSH1 0x40 ADD CALLDATALOAD PUSH2 0x813 JUMP JUMPDEST PUSH2 0x158 PUSH1 0x4 DUP1 CALLDATASIZE SUB PUSH1 0x20 DUP2 LT ISZERO PUSH2 0x39B JUMPI PUSH1 0x0 DUP1 REVERT JUMPDEST POP CALLDATALOAD PUSH1 0x1 PUSH1 0x1 PUSH1 0xA0 SHL SUB AND PUSH2 0x8BB JUMP JUMPDEST PUSH1 0x0 PUSH2 0x3B5 PUSH2 0x922 JUMP JUMPDEST PUSH1 0x1 SLOAD SWAP1 SWAP2 POP PUSH1 0xFF AND DUP1 PUSH2 0x3CC JUMPI POP PUSH2 0x3CC PUSH2 0x927 JUMP JUMPDEST DUP1 PUSH2 0x3D8 JUMPI POP PUSH1 0x0 SLOAD DUP2 GT JUMPDEST PUSH2 0x413 JUMPI PUSH1 0x40 MLOAD PUSH3 0x461BCD PUSH1 0xE5 SHL DUP2 MSTORE PUSH1 0x4 ADD DUP1 DUP1 PUSH1 0x20 ADD DUP3 DUP2 SUB DUP3 MSTORE PUSH1 0x2E DUP2 MSTORE PUSH1 0x20 ADD DUP1 PUSH2 0x1386 PUSH1 0x2E SWAP2 CODECOPY PUSH1 0x40 ADD SWAP2 POP POP PUSH1 0x40 MLOAD DUP1 SWAP2 SUB SWAP1 REVERT JUMPDEST PUSH1 0x1 SLOAD PUSH1 0xFF AND ISZERO DUP1 ISZERO PUSH2 0x432 JUMPI PUSH1 0x1 DUP1 SLOAD PUSH1 0xFF NOT AND DUP2 OR SWAP1 SSTORE PUSH1 0x0 DUP3 SWAP1 SSTORE JUMPDEST PUSH1 0x39 DUP1 SLOAD PUSH1 0x1 PUSH1 0x1 PUSH1 0xA0 SHL SUB NOT AND PUSH1 0x1 PUSH1 0x1 PUSH1 0xA0 SHL SUB DUP10 DUP2 AND SWAP2 SWAP1 SWAP2 OR SWAP2 DUP3 SWAP1 SSTORE PUSH1 0x40 DUP1 MLOAD PUSH4 0x6B971401 PUSH1 0xE1 SHL DUP2 MSTORE SWAP1 MLOAD SWAP3 SWAP1 SWAP2 AND SWAP2 PUSH4 0xD72E2802 SWAP2 PUSH1 0x4 DUP1 DUP3 ADD SWAP3 PUSH1 0x20 SWAP3 SWAP1 SWAP2 SWAP1 DUP3 SWAP1 SUB ADD DUP2 DUP7 DUP1 EXTCODESIZE ISZERO DUP1 ISZERO PUSH2 0x48E JUMPI PUSH1 0x0 DUP1 REVERT JUMPDEST POP GAS STATICCALL ISZERO DUP1 ISZERO PUSH2 0x4A2 JUMPI RETURNDATASIZE PUSH1 0x0 DUP1 RETURNDATACOPY RETURNDATASIZE PUSH1 0x0 REVERT JUMPDEST POP POP POP POP PUSH1 0x40 MLOAD RETURNDATASIZE PUSH1 0x20 DUP2 LT ISZERO PUSH2 0x4B8 JUMPI PUSH1 0x0 DUP1 REVERT JUMPDEST POP MLOAD PUSH1 0x3A DUP1 SLOAD PUSH1 0x1 PUSH1 0x1 PUSH1 0xA0 SHL SUB NOT AND PUSH1 0x1 PUSH1 0x1 PUSH1 0xA0 SHL SUB SWAP3 DUP4 AND OR SWAP1 DUP2 SWAP1 SSTORE AND PUSH2 0x4E2 JUMPI PUSH1 0x0 DUP1 REVERT JUMPDEST PUSH1 0x35 DUP1 SLOAD PUSH1 0x1 PUSH1 0x1 PUSH1 0xA0 SHL SUB DUP1 DUP10 AND PUSH1 0x1 PUSH1 0x1 PUSH1 0xA0 SHL SUB NOT SWAP3 DUP4 AND OR SWAP1 SWAP3 SSTORE PUSH1 0x36 DUP1 SLOAD DUP9 DUP5 AND SWAP1 DUP4 AND OR SWAP1 SSTORE PUSH1 0x37 DUP1 SLOAD DUP8 DUP5 AND SWAP1 DUP4 AND OR SWAP1 SSTORE PUSH1 0x38 DUP1 SLOAD SWAP3 DUP7 AND SWAP3 SWAP1 SWAP2 AND SWAP2 SWAP1 SWAP2 OR SWAP1 SSTORE DUP1 ISZERO PUSH2 0x53D JUMPI PUSH1 0x1 DUP1 SLOAD PUSH1 0xFF NOT AND SWAP1 SSTORE JUMPDEST POP POP POP POP POP POP POP JUMP JUMPDEST PUSH1 0x37 SLOAD PUSH1 0x1 PUSH1 0x1 PUSH1 0xA0 SHL SUB AND CALLER EQ DUP1 PUSH2 0x569 JUMPI POP PUSH1 0x38 SLOAD PUSH1 0x1 PUSH1 0x1 PUSH1 0xA0 SHL SUB AND CALLER EQ JUMPDEST PUSH2 0x5A4 JUMPI PUSH1 0x40 MLOAD PUSH3 0x461BCD PUSH1 0xE5 SHL DUP2 MSTORE PUSH1 0x4 ADD DUP1 DUP1 PUSH1 0x20 ADD DUP3 DUP2 SUB DUP3 MSTORE PUSH1 0x42 DUP2 MSTORE PUSH1 0x20 ADD DUP1 PUSH2 0x12FA PUSH1 0x42 SWAP2 CODECOPY PUSH1 0x60 ADD SWAP2 POP POP PUSH1 0x40 MLOAD DUP1 SWAP2 SUB SWAP1 REVERT JUMPDEST PUSH1 0x1 PUSH1 0x1 PUSH1 0xA0 SHL SUB DUP4 AND PUSH1 0x0 SWAP1 DUP2 MSTORE PUSH1 0x3E PUSH1 0x20 MSTORE PUSH1 0x40 SWAP1 KECCAK256 SLOAD PUSH2 0x5D3 SWAP1 DUP3 SWAP1 PUSH2 0x5CD SWAP1 DUP6 PUSH2 0x92D JUMP JUMPDEST SWAP1 PUSH2 0x990 JUMP JUMPDEST PUSH1 0x1 PUSH1 0x1 PUSH1 0xA0 SHL SUB SWAP1 SWAP4 AND PUSH1 0x0 SWAP1 DUP2 MSTORE PUSH1 0x3E PUSH1 0x20 MSTORE PUSH1 0x40 SWAP1 KECCAK256 SWAP3 SWAP1 SWAP3 SSTORE POP POP JUMP JUMPDEST PUSH1 0x36 SLOAD PUSH1 0x1 PUSH1 0x1 PUSH1 0xA0 SHL SUB AND CALLER EQ DUP1 PUSH2 0x617 JUMPI POP PUSH1 0x37 SLOAD PUSH1 0x1 PUSH1 0x1 PUSH1 0xA0 SHL SUB AND CALLER EQ JUMPDEST DUP1 PUSH2 0x62C JUMPI POP PUSH1 0x38 SLOAD PUSH1 0x1 PUSH1 0x1 PUSH1 0xA0 SHL SUB AND CALLER EQ JUMPDEST PUSH2 0x667 JUMPI PUSH1 0x40 MLOAD PUSH3 0x461BCD PUSH1 0xE5 SHL DUP2 MSTORE PUSH1 0x4 ADD DUP1 DUP1 PUSH1 0x20 ADD DUP3 DUP2 SUB DUP3 MSTORE PUSH1 0x44 DUP2 MSTORE PUSH1 0x20 ADD DUP1 PUSH2 0x12B6 PUSH1 0x44 SWAP2 CODECOPY PUSH1 0x60 ADD SWAP2 POP POP PUSH1 0x40 MLOAD DUP1 SWAP2 SUB SWAP1 REVERT JUMPDEST PUSH1 0x0 JUMPDEST DUP2 MLOAD DUP2 LT ISZERO PUSH2 0x697 JUMPI PUSH2 0x68F DUP3 DUP3 DUP2 MLOAD DUP2 LT PUSH2 0x682 JUMPI INVALID JUMPDEST PUSH1 0x20 MUL PUSH1 0x20 ADD ADD MLOAD PUSH2 0x9D2 JUMP JUMPDEST PUSH1 0x1 ADD PUSH2 0x66A JUMP JUMPDEST POP POP JUMP JUMPDEST PUSH1 0x1 PUSH1 0x1 PUSH1 0xA0 SHL SUB AND PUSH1 0x0 SWAP1 DUP2 MSTORE PUSH1 0x3E PUSH1 0x20 MSTORE PUSH1 0x40 SWAP1 KECCAK256 SLOAD SWAP1 JUMP JUMPDEST PUSH1 0x1 PUSH1 0x1 PUSH1 0xA0 SHL SUB AND PUSH1 0x0 SWAP1 DUP2 MSTORE PUSH1 0x3D PUSH1 0x20 MSTORE PUSH1 0x40 SWAP1 KECCAK256 SLOAD SWAP1 JUMP JUMPDEST PUSH1 0x36 SLOAD PUSH1 0x1 PUSH1 0x1 PUSH1 0xA0 SHL SUB AND DUP2 JUMP JUMPDEST PUSH1 0x1 PUSH1 0x1 PUSH1 0xA0 SHL SUB AND PUSH1 0x0 SWAP1 DUP2 MSTORE PUSH1 0x3F PUSH1 0x20 MSTORE PUSH1 0x40 SWAP1 KECCAK256 SLOAD SWAP1 JUMP JUMPDEST PUSH1 0x37 SLOAD PUSH1 0x1 PUSH1 0x1 PUSH1 0xA0 SHL SUB AND DUP2 JUMP JUMPDEST PUSH1 0x35 SLOAD PUSH1 0x1 PUSH1 0x1 PUSH1 0xA0 SHL SUB AND DUP2 JUMP JUMPDEST PUSH1 0x1 DUP2 JUMP JUMPDEST PUSH1 0x38 SLOAD PUSH1 0x1 PUSH1 0x1 PUSH1 0xA0 SHL SUB AND DUP2 JUMP JUMPDEST PUSH1 0x36 SLOAD PUSH1 0x1 PUSH1 0x1 PUSH1 0xA0 SHL SUB AND CALLER EQ PUSH2 0x776 JUMPI PUSH1 0x40 MLOAD PUSH3 0x461BCD PUSH1 0xE5 SHL DUP2 MSTORE PUSH1 0x4 ADD DUP1 DUP1 PUSH1 0x20 ADD DUP3 DUP2 SUB DUP3 MSTORE PUSH1 0x42 DUP2 MSTORE PUSH1 0x20 ADD DUP1 PUSH2 0x1274 PUSH1 0x42 SWAP2 CODECOPY PUSH1 0x60 ADD SWAP2 POP POP PUSH1 0x40 MLOAD DUP1 SWAP2 SUB SWAP1 REVERT JUMPDEST PUSH2 0x77F DUP2 PUSH2 0xABC JUMP JUMPDEST POP JUMP JUMPDEST PUSH1 0x36 SLOAD PUSH1 0x1 PUSH1 0x1 PUSH1 0xA0 SHL SUB AND CALLER EQ DUP1 PUSH2 0x7A5 JUMPI POP PUSH1 0x37 SLOAD PUSH1 0x1 PUSH1 0x1 PUSH1 0xA0 SHL SUB AND CALLER EQ JUMPDEST DUP1 PUSH2 0x7BA JUMPI POP PUSH1 0x38 SLOAD PUSH1 0x1 PUSH1 0x1 PUSH1 0xA0 SHL SUB AND CALLER EQ JUMPDEST PUSH2 0x7F5 JUMPI PUSH1 0x40 MLOAD PUSH3 0x461BCD PUSH1 0xE5 SHL DUP2 MSTORE PUSH1 0x4 ADD DUP1 DUP1 PUSH1 0x20 ADD DUP3 DUP2 SUB DUP3 MSTORE PUSH1 0x44 DUP2 MSTORE PUSH1 0x20 ADD DUP1 PUSH2 0x12B6 PUSH1 0x44 SWAP2 CODECOPY PUSH1 0x60 ADD SWAP2 POP POP PUSH1 0x40 MLOAD DUP1 SWAP2 SUB SWAP1 REVERT JUMPDEST PUSH2 0x77F DUP2 PUSH2 0x9D2 JUMP JUMPDEST PUSH1 0x3A SLOAD PUSH1 0x1 PUSH1 0x1 PUSH1 0xA0 SHL SUB AND DUP2 JUMP JUMPDEST PUSH1 0x3C SLOAD DUP2 JUMP JUMPDEST PUSH1 0x37 SLOAD PUSH1 0x1 PUSH1 0x1 PUSH1 0xA0 SHL SUB AND CALLER EQ DUP1 PUSH2 0x836 JUMPI POP PUSH1 0x38 SLOAD PUSH1 0x1 PUSH1 0x1 PUSH1 0xA0 SHL SUB AND CALLER EQ JUMPDEST PUSH2 0x871 JUMPI PUSH1 0x40 MLOAD PUSH3 0x461BCD PUSH1 0xE5 SHL DUP2 MSTORE PUSH1 0x4 ADD DUP1 DUP1 PUSH1 0x20 ADD DUP3 DUP2 SUB DUP3 MSTORE PUSH1 0x42 DUP2 MSTORE PUSH1 0x20 ADD DUP1 PUSH2 0x12FA PUSH1 0x42 SWAP2 CODECOPY PUSH1 0x60 ADD SWAP2 POP POP PUSH1 0x40 MLOAD DUP1 SWAP2 SUB SWAP1 REVERT JUMPDEST PUSH1 0x1 PUSH1 0x1 PUSH1 0xA0 SHL SUB DUP4 AND PUSH1 0x0 SWAP1 DUP2 MSTORE PUSH1 0x3F PUSH1 0x20 MSTORE PUSH1 0x40 SWAP1 KECCAK256 SLOAD PUSH2 0x89A SWAP1 DUP3 SWAP1 PUSH2 0x5CD SWAP1 DUP6 PUSH2 0x92D JUMP JUMPDEST PUSH1 0x1 PUSH1 0x1 PUSH1 0xA0 SHL SUB SWAP1 SWAP4 AND PUSH1 0x0 SWAP1 DUP2 MSTORE PUSH1 0x3F PUSH1 0x20 MSTORE PUSH1 0x40 SWAP1 KECCAK256 SWAP3 SWAP1 SWAP3 SSTORE POP POP JUMP JUMPDEST PUSH1 0x37 SLOAD PUSH1 0x1 PUSH1 0x1 PUSH1 0xA0 SHL SUB AND CALLER EQ DUP1 PUSH2 0x8DE JUMPI POP PUSH1 0x38 SLOAD PUSH1 0x1 PUSH1 0x1 PUSH1 0xA0 SHL SUB AND CALLER EQ JUMPDEST PUSH2 0x919 JUMPI PUSH1 0x40 MLOAD PUSH3 0x461BCD PUSH1 0xE5 SHL DUP2 MSTORE PUSH1 0x4 ADD DUP1 DUP1 PUSH1 0x20 ADD DUP3 DUP2 SUB DUP3 MSTORE PUSH1 0x42 DUP2 MSTORE PUSH1 0x20 ADD DUP1 PUSH2 0x12FA PUSH1 0x42 SWAP2 CODECOPY PUSH1 0x60 ADD SWAP2 POP POP PUSH1 0x40 MLOAD DUP1 SWAP2 SUB SWAP1 REVERT JUMPDEST PUSH2 0x77F DUP2 PUSH2 0xCBD JUMP JUMPDEST PUSH1 0x1 SWAP1 JUMP JUMPDEST ADDRESS EXTCODESIZE ISZERO SWAP1 JUMP JUMPDEST PUSH1 0x0 DUP3 DUP3 ADD DUP4 DUP2 LT ISZERO PUSH2 0x987 JUMPI PUSH1 0x40 DUP1 MLOAD PUSH3 0x461BCD PUSH1 0xE5 SHL DUP2 MSTORE PUSH1 0x20 PUSH1 0x4 DUP3 ADD MSTORE PUSH1 0x1B PUSH1 0x24 DUP3 ADD MSTORE PUSH32 0x536166654D6174683A206164646974696F6E206F766572666C6F770000000000 PUSH1 0x44 DUP3 ADD MSTORE SWAP1 MLOAD SWAP1 DUP2 SWAP1 SUB PUSH1 0x64 ADD SWAP1 REVERT JUMPDEST SWAP1 POP JUMPDEST SWAP3 SWAP2 POP POP JUMP JUMPDEST PUSH1 0x0 PUSH2 0x987 DUP4 DUP4 PUSH1 0x40 MLOAD DUP1 PUSH1 0x40 ADD PUSH1 0x40 MSTORE DUP1 PUSH1 0x1E DUP2 MSTORE PUSH1 0x20 ADD PUSH32 0x536166654D6174683A207375627472616374696F6E206F766572666C6F770000 DUP2 MSTORE POP PUSH2 0xF3B JUMP JUMPDEST PUSH2 0x9DB DUP2 PUSH2 0xABC JUMP JUMPDEST PUSH2 0x9E4 DUP2 PUSH2 0xCBD JUMP JUMPDEST PUSH1 0x1 PUSH1 0x1 PUSH1 0xA0 SHL SUB DUP2 AND PUSH1 0x0 SWAP1 DUP2 MSTORE PUSH1 0x3D PUSH1 0x20 MSTORE PUSH1 0x40 SWAP1 KECCAK256 SLOAD ISZERO PUSH2 0x77F JUMPI PUSH1 0x3A SLOAD PUSH1 0x35 SLOAD PUSH1 0x1 PUSH1 0x1 PUSH1 0xA0 SHL SUB DUP4 DUP2 AND PUSH1 0x0 DUP2 DUP2 MSTORE PUSH1 0x3D PUSH1 0x20 SWAP1 DUP2 MSTORE PUSH1 0x40 DUP1 DUP4 KECCAK256 SLOAD DUP2 MLOAD PUSH4 0xB482E0D1 PUSH1 0xE0 SHL DUP2 MSTORE SWAP7 DUP7 AND PUSH1 0x4 DUP9 ADD MSTORE PUSH1 0x24 DUP8 ADD SWAP5 SWAP1 SWAP5 MSTORE PUSH1 0x44 DUP7 ADD SWAP4 SWAP1 SWAP4 MSTORE SWAP2 MLOAD SWAP3 SWAP1 SWAP5 AND SWAP4 PUSH4 0xB482E0D1 SWAP4 PUSH1 0x64 DUP1 DUP3 ADD SWAP5 SWAP3 SWAP2 DUP4 SWAP1 SUB ADD SWAP1 DUP3 SWAP1 DUP8 DUP1 EXTCODESIZE ISZERO DUP1 ISZERO PUSH2 0xA74 JUMPI PUSH1 0x0 DUP1 REVERT JUMPDEST POP GAS CALL ISZERO DUP1 ISZERO PUSH2 0xA88 JUMPI RETURNDATASIZE PUSH1 0x0 DUP1 RETURNDATACOPY RETURNDATASIZE PUSH1 0x0 REVERT JUMPDEST POP POP POP POP PUSH1 0x40 MLOAD RETURNDATASIZE PUSH1 0x20 DUP2 LT ISZERO PUSH2 0xA9E JUMPI PUSH1 0x0 DUP1 REVERT JUMPDEST POP MLOAD PUSH1 0x1 PUSH1 0x1 PUSH1 0xA0 SHL SUB DUP3 AND PUSH1 0x0 SWAP1 DUP2 MSTORE PUSH1 0x3D PUSH1 0x20 MSTORE PUSH1 0x40 SWAP1 KECCAK256 SSTORE POP JUMP JUMPDEST PUSH1 0x3A SLOAD PUSH1 0x35 SLOAD PUSH1 0x40 DUP1 MLOAD PUSH4 0x269C5EC9 PUSH1 0xE2 SHL DUP2 MSTORE PUSH1 0x1 PUSH1 0x1 PUSH1 0xA0 SHL SUB SWAP3 DUP4 AND PUSH1 0x4 DUP3 ADD MSTORE SWAP1 MLOAD PUSH1 0x0 SWAP4 SWAP3 SWAP1 SWAP3 AND SWAP2 PUSH4 0x9A717B24 SWAP2 PUSH1 0x24 DUP1 DUP3 ADD SWAP3 PUSH1 0x20 SWAP3 SWAP1 SWAP2 SWAP1 DUP3 SWAP1 SUB ADD DUP2 DUP7 DUP1 EXTCODESIZE ISZERO DUP1 ISZERO PUSH2 0xB10 JUMPI PUSH1 0x0 DUP1 REVERT JUMPDEST POP GAS STATICCALL ISZERO DUP1 ISZERO PUSH2 0xB24 JUMPI RETURNDATASIZE PUSH1 0x0 DUP1 RETURNDATACOPY RETURNDATASIZE PUSH1 0x0 REVERT JUMPDEST POP POP POP POP PUSH1 0x40 MLOAD RETURNDATASIZE PUSH1 0x20 DUP2 LT ISZERO PUSH2 0xB3A JUMPI PUSH1 0x0 DUP1 REVERT JUMPDEST POP MLOAD SWAP1 POP DUP1 PUSH2 0xB7A JUMPI PUSH1 0x40 MLOAD PUSH3 0x461BCD PUSH1 0xE5 SHL DUP2 MSTORE PUSH1 0x4 ADD DUP1 DUP1 PUSH1 0x20 ADD DUP3 DUP2 SUB DUP3 MSTORE PUSH1 0x4A DUP2 MSTORE PUSH1 0x20 ADD DUP1 PUSH2 0x13B4 PUSH1 0x4A SWAP2 CODECOPY PUSH1 0x60 ADD SWAP2 POP POP PUSH1 0x40 MLOAD DUP1 SWAP2 SUB SWAP1 REVERT JUMPDEST PUSH1 0x36 SLOAD PUSH1 0x40 DUP1 MLOAD PUSH4 0x4F1E971 PUSH1 0xE3 SHL DUP2 MSTORE PUSH1 0x1 PUSH1 0x1 PUSH1 0xA0 SHL SUB DUP6 DUP2 AND PUSH1 0x4 DUP4 ADD MSTORE SWAP2 MLOAD PUSH1 0x0 SWAP4 SWAP3 SWAP1 SWAP3 AND SWAP2 PUSH4 0x278F4B88 SWAP2 PUSH1 0x24 DUP1 DUP3 ADD SWAP3 PUSH1 0x20 SWAP3 SWAP1 SWAP2 SWAP1 DUP3 SWAP1 SUB ADD DUP2 DUP7 DUP1 EXTCODESIZE ISZERO DUP1 ISZERO PUSH2 0xBCB JUMPI PUSH1 0x0 DUP1 REVERT JUMPDEST POP GAS STATICCALL ISZERO DUP1 ISZERO PUSH2 0xBDF JUMPI RETURNDATASIZE PUSH1 0x0 DUP1 RETURNDATACOPY RETURNDATASIZE PUSH1 0x0 REVERT JUMPDEST POP POP POP POP PUSH1 0x40 MLOAD RETURNDATASIZE PUSH1 0x20 DUP2 LT ISZERO PUSH2 0xBF5 JUMPI PUSH1 0x0 DUP1 REVERT JUMPDEST POP MLOAD SWAP1 POP PUSH2 0xC01 PUSH2 0x1225 JUMP JUMPDEST POP PUSH1 0x40 DUP1 MLOAD PUSH1 0x20 DUP1 DUP3 ADD DUP4 MSTORE PUSH1 0x1 PUSH1 0x1 PUSH1 0xA0 SHL SUB DUP7 AND PUSH1 0x0 SWAP1 DUP2 MSTORE SWAP1 DUP4 SWAP1 MSTORE SWAP2 SWAP1 SWAP2 KECCAK256 SLOAD DUP2 MSTORE PUSH2 0xC2F PUSH2 0x1225 JUMP JUMPDEST POP PUSH1 0x40 DUP1 MLOAD PUSH1 0x20 DUP1 DUP3 ADD DUP4 MSTORE DUP6 DUP3 MSTORE PUSH1 0x1 PUSH1 0x1 PUSH1 0xA0 SHL SUB DUP8 AND PUSH1 0x0 SWAP1 DUP2 MSTORE SWAP1 DUP4 SWAP1 MSTORE SWAP2 SWAP1 SWAP2 KECCAK256 DUP5 SWAP1 SSTORE DUP2 MLOAD ISZERO DUP1 ISZERO PUSH2 0xC67 JUMPI POP DUP1 MLOAD ISZERO ISZERO JUMPDEST ISZERO PUSH2 0xC71 JUMPI DUP1 MLOAD DUP3 MSTORE JUMPDEST PUSH2 0xC79 PUSH2 0x1225 JUMP JUMPDEST PUSH2 0xC83 DUP3 DUP5 PUSH2 0xFD2 JUMP JUMPDEST DUP1 MLOAD SWAP1 SWAP2 POP ISZERO DUP1 ISZERO SWAP1 PUSH2 0xC96 JUMPI POP PUSH1 0x0 DUP5 GT JUMPDEST ISZERO PUSH2 0xCB5 JUMPI PUSH1 0x0 PUSH2 0xCA7 DUP6 DUP4 PUSH2 0x1032 JUMP JUMPDEST SWAP1 POP PUSH2 0x53D DUP8 DUP3 PUSH1 0x1 PUSH2 0x10B2 JUMP JUMPDEST POP POP POP POP POP POP JUMP JUMPDEST PUSH1 0x3A SLOAD PUSH1 0x35 SLOAD PUSH1 0x40 DUP1 MLOAD PUSH4 0x87D30F3 PUSH1 0xE1 SHL DUP2 MSTORE PUSH1 0x1 PUSH1 0x1 PUSH1 0xA0 SHL SUB SWAP3 DUP4 AND PUSH1 0x4 DUP3 ADD MSTORE SWAP1 MLOAD PUSH1 0x0 SWAP4 SWAP3 SWAP1 SWAP3 AND SWAP2 PUSH4 0x10FA61E6 SWAP2 PUSH1 0x24 DUP1 DUP3 ADD SWAP3 PUSH1 0x20 SWAP3 SWAP1 SWAP2 SWAP1 DUP3 SWAP1 SUB ADD DUP2 DUP7 DUP1 EXTCODESIZE ISZERO DUP1 ISZERO PUSH2 0xD11 JUMPI PUSH1 0x0 DUP1 REVERT JUMPDEST POP GAS STATICCALL ISZERO DUP1 ISZERO PUSH2 0xD25 JUMPI RETURNDATASIZE PUSH1 0x0 DUP1 RETURNDATACOPY RETURNDATASIZE PUSH1 0x0 REVERT JUMPDEST POP POP POP POP PUSH1 0x40 MLOAD RETURNDATASIZE PUSH1 0x20 DUP2 LT ISZERO PUSH2 0xD3B JUMPI PUSH1 0x0 DUP1 REVERT JUMPDEST POP MLOAD SWAP1 POP DUP1 PUSH2 0xD7B JUMPI PUSH1 0x40 MLOAD PUSH3 0x461BCD PUSH1 0xE5 SHL DUP2 MSTORE PUSH1 0x4 ADD DUP1 DUP1 PUSH1 0x20 ADD DUP3 DUP2 SUB DUP3 MSTORE PUSH1 0x4A DUP2 MSTORE PUSH1 0x20 ADD DUP1 PUSH2 0x133C PUSH1 0x4A SWAP2 CODECOPY PUSH1 0x60 ADD SWAP2 POP POP PUSH1 0x40 MLOAD DUP1 SWAP2 SUB SWAP1 REVERT JUMPDEST PUSH1 0x38 SLOAD PUSH1 0x40 DUP1 MLOAD PUSH4 0x4F1E971 PUSH1 0xE3 SHL DUP2 MSTORE PUSH1 0x1 PUSH1 0x1 PUSH1 0xA0 SHL SUB DUP6 DUP2 AND PUSH1 0x4 DUP4 ADD MSTORE SWAP2 MLOAD PUSH1 0x0 SWAP4 PUSH2 0xE77 SWAP4 AND SWAP2 PUSH4 0x278F4B88 SWAP2 PUSH1 0x24 DUP1 DUP4 ADD SWAP3 PUSH1 0x20 SWAP3 SWAP2 SWAP1 DUP3 SWAP1 SUB ADD DUP2 DUP7 DUP1 EXTCODESIZE ISZERO DUP1 ISZERO PUSH2 0xDCC JUMPI PUSH1 0x0 DUP1 REVERT JUMPDEST POP GAS STATICCALL ISZERO DUP1 ISZERO PUSH2 0xDE0 JUMPI RETURNDATASIZE PUSH1 0x0 DUP1 RETURNDATACOPY RETURNDATASIZE PUSH1 0x0 REVERT JUMPDEST POP POP POP POP PUSH1 0x40 MLOAD RETURNDATASIZE PUSH1 0x20 DUP2 LT ISZERO PUSH2 0xDF6 JUMPI PUSH1 0x0 DUP1 REVERT JUMPDEST POP MLOAD PUSH1 0x37 SLOAD PUSH1 0x40 DUP1 MLOAD PUSH4 0x4F1E971 PUSH1 0xE3 SHL DUP2 MSTORE PUSH1 0x1 PUSH1 0x1 PUSH1 0xA0 SHL SUB DUP9 DUP2 AND PUSH1 0x4 DUP4 ADD MSTORE SWAP2 MLOAD SWAP2 SWAP1 SWAP3 AND SWAP2 PUSH4 0x278F4B88 SWAP2 PUSH1 0x24 DUP1 DUP4 ADD SWAP3 PUSH1 0x20 SWAP3 SWAP2 SWAP1 DUP3 SWAP1 SUB ADD DUP2 DUP7 DUP1 EXTCODESIZE ISZERO DUP1 ISZERO PUSH2 0xE45 JUMPI PUSH1 0x0 DUP1 REVERT JUMPDEST POP GAS STATICCALL ISZERO DUP1 ISZERO PUSH2 0xE59 JUMPI RETURNDATASIZE PUSH1 0x0 DUP1 RETURNDATACOPY RETURNDATASIZE PUSH1 0x0 REVERT JUMPDEST POP POP POP POP PUSH1 0x40 MLOAD RETURNDATASIZE PUSH1 0x20 DUP2 LT ISZERO PUSH2 0xE6F JUMPI PUSH1 0x0 DUP1 REVERT JUMPDEST POP MLOAD SWAP1 PUSH2 0x92D JUMP JUMPDEST SWAP1 POP PUSH2 0xE81 PUSH2 0x1225 JUMP JUMPDEST POP PUSH1 0x40 DUP1 MLOAD PUSH1 0x20 DUP1 DUP3 ADD DUP4 MSTORE PUSH1 0x1 PUSH1 0x1 PUSH1 0xA0 SHL SUB DUP7 AND PUSH1 0x0 SWAP1 DUP2 MSTORE SWAP1 DUP4 SWAP1 MSTORE SWAP2 SWAP1 SWAP2 KECCAK256 PUSH1 0x1 ADD SLOAD DUP2 MSTORE PUSH2 0xEB2 PUSH2 0x1225 JUMP JUMPDEST POP PUSH1 0x40 DUP1 MLOAD PUSH1 0x20 DUP1 DUP3 ADD DUP4 MSTORE DUP6 DUP3 MSTORE PUSH1 0x1 PUSH1 0x1 PUSH1 0xA0 SHL SUB DUP8 AND PUSH1 0x0 SWAP1 DUP2 MSTORE SWAP1 DUP4 SWAP1 MSTORE SWAP2 SWAP1 SWAP2 KECCAK256 PUSH1 0x1 ADD DUP5 SWAP1 SSTORE DUP2 MLOAD ISZERO DUP1 ISZERO PUSH2 0xEED JUMPI POP DUP1 MLOAD ISZERO ISZERO JUMPDEST ISZERO PUSH2 0xEF7 JUMPI DUP1 MLOAD DUP3 MSTORE JUMPDEST PUSH2 0xEFF PUSH2 0x1225 JUMP JUMPDEST PUSH2 0xF09 DUP3 DUP5 PUSH2 0xFD2 JUMP JUMPDEST DUP1 MLOAD SWAP1 SWAP2 POP ISZERO DUP1 ISZERO SWAP1 PUSH2 0xF1C JUMPI POP PUSH1 0x0 DUP5 GT JUMPDEST ISZERO PUSH2 0xCB5 JUMPI PUSH1 0x0 PUSH2 0xF2D DUP6 DUP4 PUSH2 0x1032 JUMP JUMPDEST SWAP1 POP PUSH2 0x53D DUP8 DUP3 PUSH1 0x0 PUSH2 0x10B2 JUMP JUMPDEST PUSH1 0x0 DUP2 DUP5 DUP5 GT ISZERO PUSH2 0xFCA JUMPI PUSH1 0x40 MLOAD PUSH3 0x461BCD PUSH1 0xE5 SHL DUP2 MSTORE PUSH1 0x4 ADD DUP1 DUP1 PUSH1 0x20 ADD DUP3 DUP2 SUB DUP3 MSTORE DUP4 DUP2 DUP2 MLOAD DUP2 MSTORE PUSH1 0x20 ADD SWAP2 POP DUP1 MLOAD SWAP1 PUSH1 0x20 ADD SWAP1 DUP1 DUP4 DUP4 PUSH1 0x0 JUMPDEST DUP4 DUP2 LT ISZERO PUSH2 0xF8F JUMPI DUP2 DUP2 ADD MLOAD DUP4 DUP3 ADD MSTORE PUSH1 0x20 ADD PUSH2 0xF77 JUMP JUMPDEST POP POP POP POP SWAP1 POP SWAP1 DUP2 ADD SWAP1 PUSH1 0x1F AND DUP1 ISZERO PUSH2 0xFBC JUMPI DUP1 DUP3 SUB DUP1 MLOAD PUSH1 0x1 DUP4 PUSH1 0x20 SUB PUSH2 0x100 EXP SUB NOT AND DUP2 MSTORE PUSH1 0x20 ADD SWAP2 POP JUMPDEST POP SWAP3 POP POP POP PUSH1 0x40 MLOAD DUP1 SWAP2 SUB SWAP1 REVERT JUMPDEST POP POP POP SWAP1 SUB SWAP1 JUMP JUMPDEST PUSH2 0xFDA PUSH2 0x1225 JUMP JUMPDEST DUP3 MLOAD DUP3 MLOAD GT ISZERO PUSH2 0x101B JUMPI PUSH1 0x40 MLOAD PUSH3 0x461BCD PUSH1 0xE5 SHL DUP2 MSTORE PUSH1 0x4 ADD DUP1 DUP1 PUSH1 0x20 ADD DUP3 DUP2 SUB DUP3 MSTORE PUSH1 0x88 DUP2 MSTORE PUSH1 0x20 ADD DUP1 PUSH2 0x13FE PUSH1 0x88 SWAP2 CODECOPY PUSH1 0xA0 ADD SWAP2 POP POP PUSH1 0x40 MLOAD DUP1 SWAP2 SUB SWAP1 REVERT JUMPDEST POP MLOAD SWAP1 MLOAD PUSH1 0x40 DUP1 MLOAD PUSH1 0x20 DUP2 ADD SWAP1 SWAP2 MSTORE SWAP2 SWAP1 SUB DUP2 MSTORE SWAP1 JUMP JUMPDEST PUSH1 0x0 DUP3 ISZERO DUP1 PUSH2 0x1040 JUMPI POP DUP2 MLOAD ISZERO JUMPDEST ISZERO PUSH2 0x104D JUMPI POP PUSH1 0x0 PUSH2 0x98A JUMP JUMPDEST DUP2 MLOAD DUP4 DUP2 MUL SWAP1 DUP5 DUP3 DUP2 PUSH2 0x105C JUMPI INVALID JUMPDEST DIV EQ PUSH2 0x1099 JUMPI PUSH1 0x40 MLOAD PUSH3 0x461BCD PUSH1 0xE5 SHL DUP2 MSTORE PUSH1 0x4 ADD DUP1 DUP1 PUSH1 0x20 ADD DUP3 DUP2 SUB DUP3 MSTORE PUSH1 0x3B DUP2 MSTORE PUSH1 0x20 ADD DUP1 PUSH2 0x1239 PUSH1 0x3B SWAP2 CODECOPY PUSH1 0x40 ADD SWAP2 POP POP PUSH1 0x40 MLOAD DUP1 SWAP2 SUB SWAP1 REVERT JUMPDEST PUSH15 0xC097CE7BC90715B34B9F1000000000 SWAP1 DIV SWAP4 SWAP3 POP POP POP JUMP JUMPDEST PUSH1 0x1 PUSH1 0x1 PUSH1 0xA0 SHL SUB DUP4 AND PUSH1 0x0 SWAP1 DUP2 MSTORE PUSH1 0x3D PUSH1 0x20 MSTORE PUSH1 0x40 SWAP1 KECCAK256 SLOAD PUSH2 0x10D5 SWAP1 DUP4 PUSH2 0x92D JUMP JUMPDEST PUSH1 0x1 PUSH1 0x1 PUSH1 0xA0 SHL SUB DUP1 DUP6 AND PUSH1 0x0 DUP2 DUP2 MSTORE PUSH1 0x3D PUSH1 0x20 SWAP1 DUP2 MSTORE PUSH1 0x40 SWAP2 DUP3 SWAP1 KECCAK256 DUP6 SWAP1 SSTORE PUSH1 0x35 SLOAD DUP3 MLOAD SWAP5 AND DUP5 MSTORE DUP4 ADD SWAP2 SWAP1 SWAP2 MSTORE DUP4 ISZERO ISZERO DUP3 DUP3 ADD MSTORE PUSH1 0x60 DUP3 ADD DUP6 SWAP1 MSTORE PUSH1 0x80 DUP3 ADD SWAP3 SWAP1 SWAP3 MSTORE SWAP1 MLOAD PUSH32 0xA6C7BA999929D128350B8D7B476C0D3DECB90386500154E6E906D910D950E95E SWAP2 DUP2 SWAP1 SUB PUSH1 0xA0 ADD SWAP1 LOG1 PUSH1 0x3C SLOAD PUSH1 0x1 PUSH1 0x1 PUSH1 0xA0 SHL SUB DUP5 AND PUSH1 0x0 SWAP1 DUP2 MSTORE PUSH1 0x3D PUSH1 0x20 MSTORE PUSH1 0x40 SWAP1 KECCAK256 SLOAD GT ISZERO PUSH2 0x1220 JUMPI PUSH1 0x3A SLOAD PUSH1 0x35 SLOAD PUSH1 0x1 PUSH1 0x1 PUSH1 0xA0 SHL SUB DUP6 DUP2 AND PUSH1 0x0 DUP2 DUP2 MSTORE PUSH1 0x3D PUSH1 0x20 SWAP1 DUP2 MSTORE PUSH1 0x40 DUP1 DUP4 KECCAK256 SLOAD DUP2 MLOAD PUSH4 0xB482E0D1 PUSH1 0xE0 SHL DUP2 MSTORE SWAP7 DUP7 AND PUSH1 0x4 DUP9 ADD MSTORE PUSH1 0x24 DUP8 ADD SWAP5 SWAP1 SWAP5 MSTORE PUSH1 0x44 DUP7 ADD SWAP4 SWAP1 SWAP4 MSTORE SWAP2 MLOAD SWAP3 SWAP1 SWAP5 AND SWAP4 PUSH4 0xB482E0D1 SWAP4 PUSH1 0x64 DUP1 DUP3 ADD SWAP5 SWAP3 SWAP2 DUP4 SWAP1 SUB ADD SWAP1 DUP3 SWAP1 DUP8 DUP1 EXTCODESIZE ISZERO DUP1 ISZERO PUSH2 0x11DA JUMPI PUSH1 0x0 DUP1 REVERT JUMPDEST POP GAS CALL ISZERO DUP1 ISZERO PUSH2 0x11EE JUMPI RETURNDATASIZE PUSH1 0x0 DUP1 RETURNDATACOPY RETURNDATASIZE PUSH1 0x0 REVERT JUMPDEST POP POP POP POP PUSH1 0x40 MLOAD RETURNDATASIZE PUSH1 0x20 DUP2 LT ISZERO PUSH2 0x1204 JUMPI PUSH1 0x0 DUP1 REVERT JUMPDEST POP MLOAD PUSH1 0x1 PUSH1 0x1 PUSH1 0xA0 SHL SUB DUP5 AND PUSH1 0x0 SWAP1 DUP2 MSTORE PUSH1 0x3D PUSH1 0x20 MSTORE PUSH1 0x40 SWAP1 KECCAK256 SSTORE JUMPDEST POP POP POP JUMP JUMPDEST PUSH1 0x40 MLOAD DUP1 PUSH1 0x20 ADD PUSH1 0x40 MSTORE DUP1 PUSH1 0x0 DUP2 MSTORE POP SWAP1 JUMP INVALID MSTORE8 0x49 SELFBALANCE 0x48 KECCAK256 MSTORE8 PUSH21 0x7265616D3A204D756C7469706C69636174696F6E20 0x28 PUSH22 0x696E74202A20446F75626C6529206C657420746F206F PUSH23 0x6572666C6F775468652063616C6C6572206F6620746869 PUSH20 0x2066756E6374696F6E206D757374206265207468 PUSH6 0x206173736F63 PUSH10 0x617465642049546F6B65 PUSH15 0x20436F6E7472616374546865206361 PUSH13 0x6C6572206F6620746869732066 PUSH22 0x6E6374696F6E2063616E206F6E6C79206265206F6E65 KECCAK256 PUSH16 0x6620746865206173736F636961746564 KECCAK256 PUSH21 0x6F6B656E735468652063616C6C6572206F66207468 PUSH10 0x732066756E6374696F6E KECCAK256 PUSH4 0x616E206F PUSH15 0x6C7920626520746865206173736F63 PUSH10 0x61746564204465627420 PUSH21 0x6F6B656E735349474820566F6C6174696C69747920 0x48 PUSH2 0x7276 PUSH6 0x737465722072 PUSH6 0x7475726E6564 KECCAK256 PUSH10 0x6E76616C696420626F72 PUSH19 0x6F7720496E64657820666F722074686520696E PUSH20 0x7472756D656E74436F6E747261637420696E7374 PUSH2 0x6E63 PUSH6 0x206861732061 PUSH13 0x7265616479206265656E20696E PUSH10 0x7469616C697A65645349 SELFBALANCE 0x48 KECCAK256 JUMP PUSH16 0x6C6174696C6974792048617276657374 PUSH6 0x722072657475 PUSH19 0x6E656420696E76616C696420737570706C7920 0x49 PUSH15 0x64657820666F722074686520696E73 PUSH21 0x72756D656E74534947482053747265616D3A20446F PUSH22 0x626C65204D616E746973736120537562747261637469 PUSH16 0x6E20756E646572666C6F772C20616D6F PUSH22 0x6E7420746F2062652073756274726163746564206772 PUSH6 0x617465722074 PUSH9 0x616E2074686520616D PUSH16 0x756E742066726F6D2077686963682069 PUSH21 0x206E6565647320746F206265207375627472616374 PUSH6 0x64A264697066 PUSH20 0x582212200C3897EA5C97A39FAAE78AC17E4421E8 LOG2 ISZERO PUSH1 0x8E 0xAC JUMPI 0x4A DUP8 0x27 PUSH20 0x22B610CACC2464736F6C63430007000033000000 "
		},
		"gasEstimates": {
			"creation": {
				"codeDepositCost": "1061400",
				"executionCost": "46118",
				"totalCost": "1107518"
			},
			"external": {
				"CONFIGURATOR_REVISION()": "243",
				"accureSIGHForBorrowingStream(address)": "infinite",
				"accureSIGHForLiquidityStream(address)": "infinite",
				"claimMySIGH(address)": "infinite",
				"claimSIGH(address[])": "infinite",
				"getPlatformFee(address)": "1232",
				"getReserveFee(address)": "1209",
				"getSighAccured(address)": "1165",
				"iToken()": "1082",
				"initialize(address,address,address,address,address)": "infinite",
				"sighVolatilityHarvesterContract()": "1081",
				"sigh_Transfer_Threshold()": "1064",
				"stableDebtToken()": "1126",
				"underlyingInstrumentAddress()": "1060",
				"updatePlatformFee(address,uint256,uint256)": "infinite",
				"updateReserveFee(address,uint256,uint256)": "infinite",
				"variableDebtToken()": "1104"
			},
			"internal": {
				"accureSIGHForBorrowingStreamInternal(address)": "infinite",
				"accureSIGHForLiquidityStreamInternal(address)": "infinite",
				"accureSigh(address,uint256,bool)": "infinite",
				"claimSighInternal(address)": "infinite",
				"getRevision()": "15",
				"mul_(uint256,struct SIGHHarvester.Double memory)": "infinite",
				"sub_(struct SIGHHarvester.Double memory,struct SIGHHarvester.Double memory)": "infinite"
			}
		},
		"methodIdentifiers": {
			"CONFIGURATOR_REVISION()": "7af635a6",
			"accureSIGHForBorrowingStream(address)": "f06e5e60",
			"accureSIGHForLiquidityStream(address)": "95de56a8",
			"claimMySIGH(address)": "ad0f5fa9",
			"claimSIGH(address[])": "27ec16ed",
			"getPlatformFee(address)": "285c23a5",
			"getReserveFee(address)": "4c6fc8e9",
			"getSighAccured(address)": "2eaae3c7",
			"iToken()": "408cfe24",
			"initialize(address,address,address,address,address)": "1459457a",
			"sighVolatilityHarvesterContract()": "d00eeacd",
			"sigh_Transfer_Threshold()": "e2bd79a3",
			"stableDebtToken()": "61c773cf",
			"underlyingInstrumentAddress()": "6722b4fa",
			"updatePlatformFee(address,uint256,uint256)": "1470b90b",
			"updateReserveFee(address,uint256,uint256)": "ea505a26",
			"variableDebtToken()": "915541f5"
		}
	},
	"abi": [
		{
			"anonymous": false,
			"inputs": [
				{
					"indexed": false,
					"internalType": "address",
					"name": "instrument",
					"type": "address"
				},
				{
					"indexed": false,
					"internalType": "address",
					"name": "user",
					"type": "address"
				},
				{
					"indexed": false,
					"internalType": "bool",
					"name": "isLiquidityStream",
					"type": "bool"
				},
				{
					"indexed": false,
					"internalType": "uint256",
					"name": "recentSIGHAccured",
					"type": "uint256"
				},
				{
					"indexed": false,
					"internalType": "uint256",
					"name": "AccuredSighBalance",
					"type": "uint256"
				}
			],
			"name": "SighAccured",
			"type": "event"
		},
		{
			"inputs": [],
			"name": "CONFIGURATOR_REVISION",
			"outputs": [
				{
					"internalType": "uint256",
					"name": "",
					"type": "uint256"
				}
			],
			"stateMutability": "view",
			"type": "function"
		},
		{
			"inputs": [
				{
					"internalType": "address",
					"name": "user",
					"type": "address"
				}
			],
			"name": "accureSIGHForBorrowingStream",
			"outputs": [],
			"stateMutability": "nonpayable",
			"type": "function"
		},
		{
			"inputs": [
				{
					"internalType": "address",
					"name": "user",
					"type": "address"
				}
			],
			"name": "accureSIGHForLiquidityStream",
			"outputs": [],
			"stateMutability": "nonpayable",
			"type": "function"
		},
		{
			"inputs": [
				{
					"internalType": "address",
					"name": "user",
					"type": "address"
				}
			],
			"name": "claimMySIGH",
			"outputs": [],
			"stateMutability": "nonpayable",
			"type": "function"
		},
		{
			"inputs": [
				{
					"internalType": "address[]",
					"name": "users",
					"type": "address[]"
				}
			],
			"name": "claimSIGH",
			"outputs": [],
			"stateMutability": "nonpayable",
			"type": "function"
		},
		{
			"inputs": [
				{
					"internalType": "address",
					"name": "user",
					"type": "address"
				}
			],
			"name": "getPlatformFee",
			"outputs": [
				{
					"internalType": "uint256",
					"name": "",
					"type": "uint256"
				}
			],
			"stateMutability": "view",
			"type": "function"
		},
		{
			"inputs": [
				{
					"internalType": "address",
					"name": "user",
					"type": "address"
				}
			],
			"name": "getReserveFee",
			"outputs": [
				{
					"internalType": "uint256",
					"name": "",
					"type": "uint256"
				}
			],
			"stateMutability": "view",
			"type": "function"
		},
		{
			"inputs": [
				{
					"internalType": "address",
					"name": "account",
					"type": "address"
				}
			],
			"name": "getSighAccured",
			"outputs": [
				{
					"internalType": "uint256",
					"name": "",
					"type": "uint256"
				}
			],
			"stateMutability": "view",
			"type": "function"
		},
		{
			"inputs": [],
			"name": "iToken",
			"outputs": [
				{
					"internalType": "contract IIToken",
					"name": "",
					"type": "address"
				}
			],
			"stateMutability": "view",
			"type": "function"
		},
		{
			"inputs": [
				{
					"internalType": "address",
					"name": "_globalAddressesProvider",
					"type": "address"
				},
				{
					"internalType": "address",
					"name": "_underlyingAsset",
					"type": "address"
				},
				{
					"internalType": "address",
					"name": "_iTokenAddress",
					"type": "address"
				},
				{
					"internalType": "address",
					"name": "_stableDebtTokenAddress",
					"type": "address"
				},
				{
					"internalType": "address",
					"name": "_variableDebtTokenTokenAddress",
					"type": "address"
				}
			],
			"name": "initialize",
			"outputs": [],
			"stateMutability": "nonpayable",
			"type": "function"
		},
		{
			"inputs": [],
			"name": "sighVolatilityHarvesterContract",
			"outputs": [
				{
					"internalType": "contract ISIGHVolatilityHarvester",
					"name": "",
					"type": "address"
				}
			],
			"stateMutability": "view",
			"type": "function"
		},
		{
			"inputs": [],
			"name": "sigh_Transfer_Threshold",
			"outputs": [
				{
					"internalType": "uint256",
					"name": "",
					"type": "uint256"
				}
			],
			"stateMutability": "view",
			"type": "function"
		},
		{
			"inputs": [],
			"name": "stableDebtToken",
			"outputs": [
				{
					"internalType": "contract IStableDebtToken",
					"name": "",
					"type": "address"
				}
			],
			"stateMutability": "view",
			"type": "function"
		},
		{
			"inputs": [],
			"name": "underlyingInstrumentAddress",
			"outputs": [
				{
					"internalType": "address",
					"name": "",
					"type": "address"
				}
			],
			"stateMutability": "view",
			"type": "function"
		},
		{
			"inputs": [
				{
					"internalType": "address",
					"name": "user",
					"type": "address"
				},
				{
					"internalType": "uint256",
					"name": "platformFeeIncrease",
					"type": "uint256"
				},
				{
					"internalType": "uint256",
					"name": "platformFeeDecrease",
					"type": "uint256"
				}
			],
			"name": "updatePlatformFee",
			"outputs": [],
			"stateMutability": "nonpayable",
			"type": "function"
		},
		{
			"inputs": [
				{
					"internalType": "address",
					"name": "user",
					"type": "address"
				},
				{
					"internalType": "uint256",
					"name": "reserveFeeIncrease",
					"type": "uint256"
				},
				{
					"internalType": "uint256",
					"name": "reserveFeeDecrease",
					"type": "uint256"
				}
			],
			"name": "updateReserveFee",
			"outputs": [],
			"stateMutability": "nonpayable",
			"type": "function"
		},
		{
			"inputs": [],
			"name": "variableDebtToken",
			"outputs": [
				{
					"internalType": "contract IVariableDebtToken",
					"name": "",
					"type": "address"
				}
			],
			"stateMutability": "view",
			"type": "function"
		}
	]
}