{
	"data": {
		"bytecode": {
			"linkReferences": {},
			"object": "60806040523480156200001157600080fd5b506040516200264e3803806200264e833981810160405260408110156200003757600080fd5b5080516020909101516200006c7f534947485f46494e414e43455f4d414e41474552000000000000000000000000836200016e565b620000987f4c454e44494e475f504f4f4c5f4d414e41474552000000000000000000000000826200016e565b7f54a473ca1eac369f8e9bcfbedd5e7b6a025a683d5e1255f28b804658dfecfa5c620000e47f534947485f46494e414e43455f4d414e414745520000000000000000000000006200019c565b604080516001600160a01b039092168252519081900360200190a17fd5280c51185a38d36f7a0f5e56cac6248312bb70d0974782fa5a595127e0e08e6200014b7f4c454e44494e475f504f4f4c5f4d414e414745520000000000000000000000006200019c565b604080516001600160a01b039092168252519081900360200190a15050620001b7565b60009182526020829052604090912080546001600160a01b0319166001600160a01b03909216919091179055565b6000908152602081905260409020546001600160a01b031690565b61248780620001c76000396000f3fe608060405234801561001057600080fd5b506004361061023d5760003560e01c806359e6130c1161013b578063bc9e42ae116100b8578063d72e28021161007c578063d72e280214610565578063db49224b1461056d578063f8644cc214610575578063fbeefc3c1461059b578063fca513a8146105a35761023d565b8063bc9e42ae146104c5578063c12542df146104eb578063c145d05814610511578063c5b3f33714610519578063d557d56d1461053f5761023d565b8063832b705a116100ff578063832b705a1461047f578063841aa40c146104a557806385c858b1146104ad57806387854354146104b5578063ab3802cb146104bd5761023d565b806359e6130c146103fd5780635aef021f14610405578063723130ac1461042b5780637725c7bf14610451578063820d1274146104595761023d565b80632e7bac46116101c957806339c06e281161018d57806339c06e281461035d57806342d419bf1461038357806344ce375b146103a9578063530e784f146103cf5780635834eb9a146103f55761023d565b80632e7bac46146102f957806333128d5914610301578063343c1596146103095780633618abba1461032f57806339ac577e146103375761023d565b8063145d02f011610210578063145d02f01461029e5780631db4f569146102a657806321f8a721146102ae5780632a62c636146102cb5780632e07f25d146102f15761023d565b80630261bf8b146102425780630904ac73146102665780630a807e4f1461028e57806310ea16eb14610296575b600080fd5b61024a6105ab565b604080516001600160a01b039092168252519081900360200190f35b61028c6004803603602081101561027c57600080fd5b50356001600160a01b03166105ca565b005b61024a610684565b61024a6106ab565b61024a6106d6565b61024a610701565b61024a600480360360208110156102c457600080fd5b5035610717565b61028c600480360360208110156102e157600080fd5b50356001600160a01b0316610732565b61028c6107e5565b61024a610921565b61024a61093a565b61028c6004803603602081101561031f57600080fd5b50356001600160a01b0316610953565b61024a610a06565b61028c6004803603602081101561034d57600080fd5b50356001600160a01b0316610a27565b61028c6004803603602081101561037357600080fd5b50356001600160a01b0316610ae7565b61028c6004803603602081101561039957600080fd5b50356001600160a01b0316610bab565b61028c600480360360208110156103bf57600080fd5b50356001600160a01b0316610c65565b61028c600480360360208110156103e557600080fd5b50356001600160a01b0316610d1f565b61024a610dd2565b61024a610df3565b61028c6004803603602081101561041b57600080fd5b50356001600160a01b0316610e0e565b61028c6004803603602081101561044157600080fd5b50356001600160a01b0316610ec1565b61028c610f78565b61028c6004803603602081101561046f57600080fd5b50356001600160a01b0316611096565b61028c6004803603602081101561049557600080fd5b50356001600160a01b0316611150565b61024a611210565b61024a611222565b61024a611249565b61024a611262565b61028c600480360360208110156104db57600080fd5b50356001600160a01b0316611285565b61028c6004803603602081101561050157600080fd5b50356001600160a01b0316611345565b61024a611405565b61028c6004803603602081101561052f57600080fd5b50356001600160a01b031661141e565b61028c6004803603602081101561055557600080fd5b50356001600160a01b03166114d2565b61024a61158e565b61024a6115b5565b61028c6004803603602081101561058b57600080fd5b50356001600160a01b03166115dc565b61024a6116a0565b61024a6116ba565b60006105c56b13115391125391d7d413d3d360a21b610717565b905090565b60006105e3600080516020612432833981519152610717565b90506001600160a01b038116331461062c5760405162461bcd60e51b815260040180806020018281038252602f815260200180612403602f913960400191505060405180910390fd5b6106446000805160206122c7833981519152836116d4565b604080516001600160a01b038416815290517fee02fbe602fd541026969f988b76e795cc611d62f5b0c23e7d4882c7ded4231e9181900360200190a15050565b60006105c578534947485f46696e616e63655f4e46545f424f4f535445525360381b610717565b60006105c57f534947485f46696e616e63655f534947485041595f41474752454741544f5200610717565b60006105c57f534947485f46696e616e63655f4665655f436f6c6c6563746f72000000000000610717565b60006105c56b534947485f5354414b494e4760a01b5b6000908152602081905260409020546001600160a01b031690565b600061074b600080516020612432833981519152610717565b90506001600160a01b03811633146107945760405162461bcd60e51b815260040180806020018281038252602f815260200180612403602f913960400191505060405180910390fd5b6107ad6b2322a2afa82927ab24a222a960a11b83611702565b6040516001600160a01b038316907f18e1a55b8eff9c93921eecfa1462d6a8cbb80b3988db3eb14c039e43fdb2266190600090a25050565b60006107fe6000805160206123e3833981519152610717565b9050336001600160a01b038216146108475760405162461bcd60e51b815260040180806020018281038252606e8152602001806122e7606e913960800191505060405180910390fd5b61085f6000805160206123c3833981519152826116d4565b6108786000805160206123e383398151915260006116d4565b7f0a91fa516fe78c8763b8c5dc4a2b5b9a14f1ec037effb782eb387995a8140c4c6108b06000805160206123e3833981519152610717565b604080516001600160a01b039092168252519081900360200190a17f54a473ca1eac369f8e9bcfbedd5e7b6a025a683d5e1255f28b804658dfecfa5c6109036000805160206123c3833981519152610717565b604080516001600160a01b039092168252519081900360200190a150565b60006105c56000805160206122c7833981519152610717565b60006105c5600080516020612432833981519152610717565b600061096c6000805160206123c3833981519152610717565b90506001600160a01b03811633146109b55760405162461bcd60e51b815260040180806020018281038252602b81526020018061229c602b913960400191505060405180910390fd5b6109ce6b534947485f5354414b494e4760a01b83611702565b6040516001600160a01b038316907f5f8861bb6e28928a4078090240da9377fe5dedaa4ac6fbdc29ab3a6a057f28d990600090a25050565b60006105c5724c454e44494e475f524154455f4f5241434c4560681b610717565b6000610a406000805160206123c3833981519152610717565b90506001600160a01b0381163314610a895760405162461bcd60e51b815260040180806020018281038252602b81526020018061229c602b913960400191505060405180910390fd5b610aaf7829a4a3a42fab27a620aa24a624aa2cafa420a92b22a9aa22a960391b83611702565b6040516001600160a01b038316907f91cef99c1fa0ac832709f2282ac310f01778ab480ec164ccf068eb4c3111686690600090a25050565b6000610b006000805160206123c3833981519152610717565b90506001600160a01b0381163314610b495760405162461bcd60e51b815260040180806020018281038252602b81526020018061229c602b913960400191505060405180910390fd5b610b737f534947485f46696e616e63655f4665655f436f6c6c6563746f72000000000000836116d4565b6040516001600160a01b038316907f39722a85365e94d1c12cb806b2d9e930373a8aee79c6691a20abebeb6554c5d790600090a25050565b6000610bc46000805160206123c3833981519152610717565b90506001600160a01b0381163314610c0d5760405162461bcd60e51b815260040180806020018281038252602b81526020018061229c602b913960400191505060405180910390fd5b610c256000805160206123e3833981519152836116d4565b604080516001600160a01b038416815290517f0a91fa516fe78c8763b8c5dc4a2b5b9a14f1ec037effb782eb387995a8140c4c9181900360200190a15050565b6000610c7e600080516020612432833981519152610717565b90506001600160a01b0381163314610cc75760405162461bcd60e51b815260040180806020018281038252602f815260200180612403602f913960400191505060405180910390fd5b610ce7722624a8aaa4a220aa24a7a72fa6a0a720a3a2a960691b836116d4565b6040516001600160a01b038316907f1a76cb769b814bc038223da86932b099b20aae03473683e6d98f5c3554e2606490600090a25050565b6000610d38600080516020612432833981519152610717565b90506001600160a01b0381163314610d815760405162461bcd60e51b815260040180806020018281038252602f815260200180612403602f913960400191505060405180910390fd5b610d9a6b50524943455f4f5241434c4560a01b836116d4565b6040516001600160a01b038316907fefe8ab924ca486283a79dc604baa67add51afb82af1db8ac386ebbba643cdffd90600090a25050565b60006105c5722624a8aaa4a220aa24a7a72fa6a0a720a3a2a960691b610717565b60006105c56c534947485f545245415355525960981b610717565b6000610e27600080516020612432833981519152610717565b90506001600160a01b0381163314610e705760405162461bcd60e51b815260040180806020018281038252602f815260200180612403602f913960400191505060405180910390fd5b610e896b13115391125391d7d413d3d360a21b83611702565b6040516001600160a01b038316907fc4e6c6cdf28d0edbd8bcf071d724d33cc2e7a30be7d06443925656e9cb492aa490600090a25050565b6000610eda6000805160206123c3833981519152610717565b90506001600160a01b0381163314610f235760405162461bcd60e51b815260040180806020018281038252602b81526020018061229c602b913960400191505060405180910390fd5b6001805460ff191681179055610f40630a6928e960e31b836116d4565b6040516001600160a01b038316907f381506510c1e0c6490721a2b661b0150f544e59c97ff556d7668d894b414ec7d90600090a25050565b6000610f916000805160206122c7833981519152610717565b9050336001600160a01b03821614610fda5760405162461bcd60e51b815260040180806020018281038252606e815260200180612355606e913960800191505060405180910390fd5b610ff2600080516020612432833981519152826116d4565b61100b6000805160206122c783398151915260006116d4565b7fee02fbe602fd541026969f988b76e795cc611d62f5b0c23e7d4882c7ded4231e6110436000805160206122c7833981519152610717565b604080516001600160a01b039092168252519081900360200190a17fd5280c51185a38d36f7a0f5e56cac6248312bb70d0974782fa5a595127e0e08e610903600080516020612432833981519152610717565b60006110af600080516020612432833981519152610717565b90506001600160a01b03811633146110f85760405162461bcd60e51b815260040180806020018281038252602f815260200180612403602f913960400191505060405180910390fd5b611118724c454e44494e475f524154455f4f5241434c4560681b836116d4565b6040516001600160a01b038316907f5c29179aba6942020a8a2d38f65de02fb6b7f784e7f049ed3a3cab97621859b590600090a25050565b60006111696000805160206123c3833981519152610717565b90506001600160a01b03811633146111b25760405162461bcd60e51b815260040180806020018281038252602b81526020018061229c602b913960400191505060405180910390fd5b6111d87829a4a3a42fa324a720a721a2afa1a7a72324a3aaa920aa27a960391b83611702565b6040516001600160a01b038316907f51bda0bdf35cfc37e30f312b0624afc7806d46f71e133364bd9d09507724d83190600090a25050565b60006105c5630a6928e960e31b610717565b60006105c5782622a72224a723afa827a7a62fa1a7a72324a3aaa920aa27a960391b610717565b60006105c56000805160206123c3833981519152610717565b60006105c57429a4a3a42fa9a822a2a22fa1a7a72a2927a62622a960591b610717565b600061129e6000805160206123c3833981519152610717565b90506001600160a01b03811633146112e75760405162461bcd60e51b815260040180806020018281038252602b81526020018061229c602b913960400191505060405180910390fd5b61130d78534947485f46696e616e63655f4e46545f424f4f535445525360381b836116d4565b6040516001600160a01b038316907f3055a37193dadad5686f65ca2a960f68ebf2799991d1a8434cebecb3d7faf95890600090a25050565b600061135e600080516020612432833981519152610717565b90506001600160a01b03811633146113a75760405162461bcd60e51b815260040180806020018281038252602f815260200180612403602f913960400191505060405180910390fd5b6113cd782622a72224a723afa827a7a62fa1a7a72324a3aaa920aa27a960391b83611702565b6040516001600160a01b038316907fdfabe479bad36782fb1e77fbfddd4e382671713527e4786cfc93a022ae76372990600090a25050565b60006105c56000805160206123e3833981519152610717565b60006114376000805160206123c3833981519152610717565b90506001600160a01b03811633146114805760405162461bcd60e51b815260040180806020018281038252602b81526020018061229c602b913960400191505060405180910390fd5b61149a6c534947485f545245415355525960981b83611702565b6040516001600160a01b038316907f4e594f07049c48e5e02719973ed5064139451dc41d5348d3d52b362ac628a69590600090a25050565b60006114eb6000805160206123c3833981519152610717565b90506001600160a01b03811633146115345760405162461bcd60e51b815260040180806020018281038252602b81526020018061229c602b913960400191505060405180910390fd5b6115567429a4a3a42fa9a822a2a22fa1a7a72a2927a62622a960591b83611702565b6040516001600160a01b038316907f0579f9ffaa1ecb9bf9c8a40161500243b875b8a597c78ec222812e5336ef979390600090a25050565b60006105c57829a4a3a42fab27a620aa24a624aa2cafa420a92b22a9aa22a960391b610717565b60006105c57829a4a3a42fa324a720a721a2afa1a7a72324a3aaa920aa27a960391b610717565b60006115f56000805160206123c3833981519152610717565b90506001600160a01b038116331461163e5760405162461bcd60e51b815260040180806020018281038252602b81526020018061229c602b913960400191505060405180910390fd5b6116687f534947485f46696e616e63655f534947485041595f41474752454741544f520083611702565b6040516001600160a01b038316907f7b85740503d5e7932b8875cf0c5e013d7f24a57e37c0fef940f93b841366610e90600090a25050565b60006105c56b2322a2afa82927ab24a222a960a11b610717565b60006105c56b50524943455f4f5241434c4560a01b610717565b60009182526020829052604090912080546001600160a01b0319166001600160a01b03909216919091179055565b600061170d83610717565b60408051306024808301919091528251808303909101815260449091019091526020810180516001600160e01b031663189acdbd60e31b17905290915081906001600160a01b0382166118b5576040516117669061198e565b604051809103906000f080158015611782573d6000803e3d6000fd5b509150816001600160a01b031663cf7a1d778530846040518463ffffffff1660e01b815260040180846001600160a01b03168152602001836001600160a01b0316815260200180602001828103825283818151815260200191508051906020019080838360005b838110156118015781810151838201526020016117e9565b50505050905090810190601f16801561182e5780820380516001836020036101000a031916815260200191505b50945050505050600060405180830381600087803b15801561184f57600080fd5b505af1158015611863573d6000803e3d6000fd5b5050505061187185836116d4565b6040805186815290516001600160a01b038416917f1eb35cb4b5bbb23d152f3b4016a5a46c37a07ae930ed0956aba951e231142438919081900360200190a2611987565b816001600160a01b0316634f1ef28685836040518363ffffffff1660e01b815260040180836001600160a01b0316815260200180602001828103825283818151815260200191508051906020019080838360005b83811015611921578181015183820152602001611909565b50505050905090810190601f16801561194e5780820380516001836020036101000a031916815260200191505b509350505050600060405180830381600087803b15801561196e57600080fd5b505af1158015611982573d6000803e3d6000fd5b505050505b5050505050565b6109008061199c8339019056fe608060405234801561001057600080fd5b506108e0806100206000396000f3fe6080604052600436106100745760003560e01c80638f2839701161004e5780638f2839701461016f578063cf7a1d77146101a2578063d1f5789414610261578063f851a4401461031757610083565b80633659cfe61461008b5780634f1ef286146100be5780635c60da1b1461013e57610083565b366100835761008161032c565b005b61008161032c565b34801561009757600080fd5b50610081600480360360208110156100ae57600080fd5b50356001600160a01b0316610346565b610081600480360360408110156100d457600080fd5b6001600160a01b0382351691908101906040810160208201356401000000008111156100ff57600080fd5b82018360208201111561011157600080fd5b8035906020019184600183028401116401000000008311171561013357600080fd5b509092509050610380565b34801561014a57600080fd5b5061015361042d565b604080516001600160a01b039092168252519081900360200190f35b34801561017b57600080fd5b506100816004803603602081101561019257600080fd5b50356001600160a01b031661046a565b610081600480360360608110156101b857600080fd5b6001600160a01b0382358116926020810135909116918101906060810160408201356401000000008111156101ec57600080fd5b8201836020820111156101fe57600080fd5b8035906020019184600183028401116401000000008311171561022057600080fd5b91908080601f016020809104026020016040519081016040528093929190818152602001838380828437600092019190915250929550610524945050505050565b6100816004803603604081101561027757600080fd5b6001600160a01b0382351691908101906040810160208201356401000000008111156102a257600080fd5b8201836020820111156102b457600080fd5b803590602001918460018302840111640100000000831117156102d657600080fd5b91908080601f016020809104026020016040519081016040528093929190818152602001838380828437600092019190915250929550610554945050505050565b34801561032357600080fd5b50610153610634565b61033461065f565b61034461033f610667565b61068c565b565b61034e6106b0565b6001600160a01b0316336001600160a01b0316141561037557610370816106d5565b61037d565b61037d61032c565b50565b6103886106b0565b6001600160a01b0316336001600160a01b03161415610420576103aa836106d5565b6000836001600160a01b031683836040518083838082843760405192019450600093509091505080830381855af49150503d8060008114610407576040519150601f19603f3d011682016040523d82523d6000602084013e61040c565b606091505b505090508061041a57600080fd5b50610428565b61042861032c565b505050565b60006104376106b0565b6001600160a01b0316336001600160a01b0316141561045f57610458610667565b9050610467565b61046761032c565b90565b6104726106b0565b6001600160a01b0316336001600160a01b03161415610375576001600160a01b0381166104d05760405162461bcd60e51b815260040180806020018281038252603681526020018061083a6036913960400191505060405180910390fd5b7f7e644d79422f17c01e4894b5f4f588d331ebfa28653d42ae832dc59e38c9798f6104f96106b0565b604080516001600160a01b03928316815291841660208301528051918290030190a161037081610715565b600061052e610667565b6001600160a01b03161461054157600080fd5b61054b8382610554565b61042882610715565b600061055e610667565b6001600160a01b03161461057157600080fd5b61057a82610739565b805115610630576000826001600160a01b0316826040518082805190602001908083835b602083106105bd5780518252601f19909201916020918201910161059e565b6001836020036101000a038019825116818451168082178552505050505050905001915050600060405180830381855af49150503d806000811461061d576040519150601f19603f3d011682016040523d82523d6000602084013e610622565b606091505b505090508061042857600080fd5b5050565b600061063e6106b0565b6001600160a01b0316336001600160a01b0316141561045f576104586106b0565b6103446107a1565b7f360894a13ba1a3210667c828492db98dca3e2076cc3735a920a3ca505d382bbc5490565b3660008037600080366000845af43d6000803e8080156106ab573d6000f35b3d6000fd5b7fb53127684a568b3173ae13b9f8a6016e243e63b6e8ee1178d6a717850b5d61035490565b6106de81610739565b6040516001600160a01b038216907fbc7cd75a20ee27fd9adebab32041f755214dbc6bffa90cc0225b39da2e5c2d3b90600090a250565b7fb53127684a568b3173ae13b9f8a6016e243e63b6e8ee1178d6a717850b5d610355565b61074281610801565b61077d5760405162461bcd60e51b815260040180806020018281038252603b815260200180610870603b913960400191505060405180910390fd5b7f360894a13ba1a3210667c828492db98dca3e2076cc3735a920a3ca505d382bbc55565b6107a96106b0565b6001600160a01b0316336001600160a01b031614156107f95760405162461bcd60e51b81526004018080602001828103825260328152602001806108086032913960400191505060405180910390fd5b610344610344565b3b15159056fe43616e6e6f742063616c6c2066616c6c6261636b2066756e6374696f6e2066726f6d207468652070726f78792061646d696e43616e6e6f74206368616e6765207468652061646d696e206f6620612070726f787920746f20746865207a65726f206164647265737343616e6e6f742073657420612070726f787920696d706c656d656e746174696f6e20746f2061206e6f6e2d636f6e74726163742061646472657373a2646970667358221220dad46c9a146f0ca212d83b7e6968ae3f14bff3e304df280695768285b004659164736f6c634300070000335468652063616c6c6572206d7573742062652074686520534947482046494e414e4345204d616e6167657250454e44494e475f4c454e44494e475f504f4f4c5f4d414e41474552000000004f6e6c79207468652050656e64696e6720534947482046696e616e6365204d616e616765722063616e2063616c6c20746869732066756e6374696f6e20746f20626520616363657074656420746f206265636f6d652074686520534947482046696e616e6365204d616e616765724f6e6c79207468652050656e64696e67204c656e64696e6720506f6f6c204d616e616765722063616e2063616c6c20746869732066756e6374696f6e20746f20626520616363657074656420746f206265636f6d6520746865204c656e64696e6720506f6f6c204d616e61676572534947485f46494e414e43455f4d414e4147455200000000000000000000000050454e44494e475f534947485f46494e414e43455f4d414e41474552000000005468652063616c6c6572206d75737420626520746865204c656e64696e672050726f746f636f6c204d616e616765724c454e44494e475f504f4f4c5f4d414e41474552000000000000000000000000a2646970667358221220a911d68c7e587c5ff89746f209012f9a1fb9a0bc5badb8e4ed0936fbd8d1a0ea64736f6c63430007000033",
			"opcodes": "PUSH1 0x80 PUSH1 0x40 MSTORE CALLVALUE DUP1 ISZERO PUSH3 0x11 JUMPI PUSH1 0x0 DUP1 REVERT JUMPDEST POP PUSH1 0x40 MLOAD PUSH3 0x264E CODESIZE SUB DUP1 PUSH3 0x264E DUP4 CODECOPY DUP2 DUP2 ADD PUSH1 0x40 MSTORE PUSH1 0x40 DUP2 LT ISZERO PUSH3 0x37 JUMPI PUSH1 0x0 DUP1 REVERT JUMPDEST POP DUP1 MLOAD PUSH1 0x20 SWAP1 SWAP2 ADD MLOAD PUSH3 0x6C PUSH32 0x534947485F46494E414E43455F4D414E41474552000000000000000000000000 DUP4 PUSH3 0x16E JUMP JUMPDEST PUSH3 0x98 PUSH32 0x4C454E44494E475F504F4F4C5F4D414E41474552000000000000000000000000 DUP3 PUSH3 0x16E JUMP JUMPDEST PUSH32 0x54A473CA1EAC369F8E9BCFBEDD5E7B6A025A683D5E1255F28B804658DFECFA5C PUSH3 0xE4 PUSH32 0x534947485F46494E414E43455F4D414E41474552000000000000000000000000 PUSH3 0x19C JUMP JUMPDEST PUSH1 0x40 DUP1 MLOAD PUSH1 0x1 PUSH1 0x1 PUSH1 0xA0 SHL SUB SWAP1 SWAP3 AND DUP3 MSTORE MLOAD SWAP1 DUP2 SWAP1 SUB PUSH1 0x20 ADD SWAP1 LOG1 PUSH32 0xD5280C51185A38D36F7A0F5E56CAC6248312BB70D0974782FA5A595127E0E08E PUSH3 0x14B PUSH32 0x4C454E44494E475F504F4F4C5F4D414E41474552000000000000000000000000 PUSH3 0x19C JUMP JUMPDEST PUSH1 0x40 DUP1 MLOAD PUSH1 0x1 PUSH1 0x1 PUSH1 0xA0 SHL SUB SWAP1 SWAP3 AND DUP3 MSTORE MLOAD SWAP1 DUP2 SWAP1 SUB PUSH1 0x20 ADD SWAP1 LOG1 POP POP PUSH3 0x1B7 JUMP JUMPDEST PUSH1 0x0 SWAP2 DUP3 MSTORE PUSH1 0x20 DUP3 SWAP1 MSTORE PUSH1 0x40 SWAP1 SWAP2 KECCAK256 DUP1 SLOAD PUSH1 0x1 PUSH1 0x1 PUSH1 0xA0 SHL SUB NOT AND PUSH1 0x1 PUSH1 0x1 PUSH1 0xA0 SHL SUB SWAP1 SWAP3 AND SWAP2 SWAP1 SWAP2 OR SWAP1 SSTORE JUMP JUMPDEST PUSH1 0x0 SWAP1 DUP2 MSTORE PUSH1 0x20 DUP2 SWAP1 MSTORE PUSH1 0x40 SWAP1 KECCAK256 SLOAD PUSH1 0x1 PUSH1 0x1 PUSH1 0xA0 SHL SUB AND SWAP1 JUMP JUMPDEST PUSH2 0x2487 DUP1 PUSH3 0x1C7 PUSH1 0x0 CODECOPY PUSH1 0x0 RETURN INVALID PUSH1 0x80 PUSH1 0x40 MSTORE CALLVALUE DUP1 ISZERO PUSH2 0x10 JUMPI PUSH1 0x0 DUP1 REVERT JUMPDEST POP PUSH1 0x4 CALLDATASIZE LT PUSH2 0x23D JUMPI PUSH1 0x0 CALLDATALOAD PUSH1 0xE0 SHR DUP1 PUSH4 0x59E6130C GT PUSH2 0x13B JUMPI DUP1 PUSH4 0xBC9E42AE GT PUSH2 0xB8 JUMPI DUP1 PUSH4 0xD72E2802 GT PUSH2 0x7C JUMPI DUP1 PUSH4 0xD72E2802 EQ PUSH2 0x565 JUMPI DUP1 PUSH4 0xDB49224B EQ PUSH2 0x56D JUMPI DUP1 PUSH4 0xF8644CC2 EQ PUSH2 0x575 JUMPI DUP1 PUSH4 0xFBEEFC3C EQ PUSH2 0x59B JUMPI DUP1 PUSH4 0xFCA513A8 EQ PUSH2 0x5A3 JUMPI PUSH2 0x23D JUMP JUMPDEST DUP1 PUSH4 0xBC9E42AE EQ PUSH2 0x4C5 JUMPI DUP1 PUSH4 0xC12542DF EQ PUSH2 0x4EB JUMPI DUP1 PUSH4 0xC145D058 EQ PUSH2 0x511 JUMPI DUP1 PUSH4 0xC5B3F337 EQ PUSH2 0x519 JUMPI DUP1 PUSH4 0xD557D56D EQ PUSH2 0x53F JUMPI PUSH2 0x23D JUMP JUMPDEST DUP1 PUSH4 0x832B705A GT PUSH2 0xFF JUMPI DUP1 PUSH4 0x832B705A EQ PUSH2 0x47F JUMPI DUP1 PUSH4 0x841AA40C EQ PUSH2 0x4A5 JUMPI DUP1 PUSH4 0x85C858B1 EQ PUSH2 0x4AD JUMPI DUP1 PUSH4 0x87854354 EQ PUSH2 0x4B5 JUMPI DUP1 PUSH4 0xAB3802CB EQ PUSH2 0x4BD JUMPI PUSH2 0x23D JUMP JUMPDEST DUP1 PUSH4 0x59E6130C EQ PUSH2 0x3FD JUMPI DUP1 PUSH4 0x5AEF021F EQ PUSH2 0x405 JUMPI DUP1 PUSH4 0x723130AC EQ PUSH2 0x42B JUMPI DUP1 PUSH4 0x7725C7BF EQ PUSH2 0x451 JUMPI DUP1 PUSH4 0x820D1274 EQ PUSH2 0x459 JUMPI PUSH2 0x23D JUMP JUMPDEST DUP1 PUSH4 0x2E7BAC46 GT PUSH2 0x1C9 JUMPI DUP1 PUSH4 0x39C06E28 GT PUSH2 0x18D JUMPI DUP1 PUSH4 0x39C06E28 EQ PUSH2 0x35D JUMPI DUP1 PUSH4 0x42D419BF EQ PUSH2 0x383 JUMPI DUP1 PUSH4 0x44CE375B EQ PUSH2 0x3A9 JUMPI DUP1 PUSH4 0x530E784F EQ PUSH2 0x3CF JUMPI DUP1 PUSH4 0x5834EB9A EQ PUSH2 0x3F5 JUMPI PUSH2 0x23D JUMP JUMPDEST DUP1 PUSH4 0x2E7BAC46 EQ PUSH2 0x2F9 JUMPI DUP1 PUSH4 0x33128D59 EQ PUSH2 0x301 JUMPI DUP1 PUSH4 0x343C1596 EQ PUSH2 0x309 JUMPI DUP1 PUSH4 0x3618ABBA EQ PUSH2 0x32F JUMPI DUP1 PUSH4 0x39AC577E EQ PUSH2 0x337 JUMPI PUSH2 0x23D JUMP JUMPDEST DUP1 PUSH4 0x145D02F0 GT PUSH2 0x210 JUMPI DUP1 PUSH4 0x145D02F0 EQ PUSH2 0x29E JUMPI DUP1 PUSH4 0x1DB4F569 EQ PUSH2 0x2A6 JUMPI DUP1 PUSH4 0x21F8A721 EQ PUSH2 0x2AE JUMPI DUP1 PUSH4 0x2A62C636 EQ PUSH2 0x2CB JUMPI DUP1 PUSH4 0x2E07F25D EQ PUSH2 0x2F1 JUMPI PUSH2 0x23D JUMP JUMPDEST DUP1 PUSH4 0x261BF8B EQ PUSH2 0x242 JUMPI DUP1 PUSH4 0x904AC73 EQ PUSH2 0x266 JUMPI DUP1 PUSH4 0xA807E4F EQ PUSH2 0x28E JUMPI DUP1 PUSH4 0x10EA16EB EQ PUSH2 0x296 JUMPI JUMPDEST PUSH1 0x0 DUP1 REVERT JUMPDEST PUSH2 0x24A PUSH2 0x5AB JUMP JUMPDEST PUSH1 0x40 DUP1 MLOAD PUSH1 0x1 PUSH1 0x1 PUSH1 0xA0 SHL SUB SWAP1 SWAP3 AND DUP3 MSTORE MLOAD SWAP1 DUP2 SWAP1 SUB PUSH1 0x20 ADD SWAP1 RETURN JUMPDEST PUSH2 0x28C PUSH1 0x4 DUP1 CALLDATASIZE SUB PUSH1 0x20 DUP2 LT ISZERO PUSH2 0x27C JUMPI PUSH1 0x0 DUP1 REVERT JUMPDEST POP CALLDATALOAD PUSH1 0x1 PUSH1 0x1 PUSH1 0xA0 SHL SUB AND PUSH2 0x5CA JUMP JUMPDEST STOP JUMPDEST PUSH2 0x24A PUSH2 0x684 JUMP JUMPDEST PUSH2 0x24A PUSH2 0x6AB JUMP JUMPDEST PUSH2 0x24A PUSH2 0x6D6 JUMP JUMPDEST PUSH2 0x24A PUSH2 0x701 JUMP JUMPDEST PUSH2 0x24A PUSH1 0x4 DUP1 CALLDATASIZE SUB PUSH1 0x20 DUP2 LT ISZERO PUSH2 0x2C4 JUMPI PUSH1 0x0 DUP1 REVERT JUMPDEST POP CALLDATALOAD PUSH2 0x717 JUMP JUMPDEST PUSH2 0x28C PUSH1 0x4 DUP1 CALLDATASIZE SUB PUSH1 0x20 DUP2 LT ISZERO PUSH2 0x2E1 JUMPI PUSH1 0x0 DUP1 REVERT JUMPDEST POP CALLDATALOAD PUSH1 0x1 PUSH1 0x1 PUSH1 0xA0 SHL SUB AND PUSH2 0x732 JUMP JUMPDEST PUSH2 0x28C PUSH2 0x7E5 JUMP JUMPDEST PUSH2 0x24A PUSH2 0x921 JUMP JUMPDEST PUSH2 0x24A PUSH2 0x93A JUMP JUMPDEST PUSH2 0x28C PUSH1 0x4 DUP1 CALLDATASIZE SUB PUSH1 0x20 DUP2 LT ISZERO PUSH2 0x31F JUMPI PUSH1 0x0 DUP1 REVERT JUMPDEST POP CALLDATALOAD PUSH1 0x1 PUSH1 0x1 PUSH1 0xA0 SHL SUB AND PUSH2 0x953 JUMP JUMPDEST PUSH2 0x24A PUSH2 0xA06 JUMP JUMPDEST PUSH2 0x28C PUSH1 0x4 DUP1 CALLDATASIZE SUB PUSH1 0x20 DUP2 LT ISZERO PUSH2 0x34D JUMPI PUSH1 0x0 DUP1 REVERT JUMPDEST POP CALLDATALOAD PUSH1 0x1 PUSH1 0x1 PUSH1 0xA0 SHL SUB AND PUSH2 0xA27 JUMP JUMPDEST PUSH2 0x28C PUSH1 0x4 DUP1 CALLDATASIZE SUB PUSH1 0x20 DUP2 LT ISZERO PUSH2 0x373 JUMPI PUSH1 0x0 DUP1 REVERT JUMPDEST POP CALLDATALOAD PUSH1 0x1 PUSH1 0x1 PUSH1 0xA0 SHL SUB AND PUSH2 0xAE7 JUMP JUMPDEST PUSH2 0x28C PUSH1 0x4 DUP1 CALLDATASIZE SUB PUSH1 0x20 DUP2 LT ISZERO PUSH2 0x399 JUMPI PUSH1 0x0 DUP1 REVERT JUMPDEST POP CALLDATALOAD PUSH1 0x1 PUSH1 0x1 PUSH1 0xA0 SHL SUB AND PUSH2 0xBAB JUMP JUMPDEST PUSH2 0x28C PUSH1 0x4 DUP1 CALLDATASIZE SUB PUSH1 0x20 DUP2 LT ISZERO PUSH2 0x3BF JUMPI PUSH1 0x0 DUP1 REVERT JUMPDEST POP CALLDATALOAD PUSH1 0x1 PUSH1 0x1 PUSH1 0xA0 SHL SUB AND PUSH2 0xC65 JUMP JUMPDEST PUSH2 0x28C PUSH1 0x4 DUP1 CALLDATASIZE SUB PUSH1 0x20 DUP2 LT ISZERO PUSH2 0x3E5 JUMPI PUSH1 0x0 DUP1 REVERT JUMPDEST POP CALLDATALOAD PUSH1 0x1 PUSH1 0x1 PUSH1 0xA0 SHL SUB AND PUSH2 0xD1F JUMP JUMPDEST PUSH2 0x24A PUSH2 0xDD2 JUMP JUMPDEST PUSH2 0x24A PUSH2 0xDF3 JUMP JUMPDEST PUSH2 0x28C PUSH1 0x4 DUP1 CALLDATASIZE SUB PUSH1 0x20 DUP2 LT ISZERO PUSH2 0x41B JUMPI PUSH1 0x0 DUP1 REVERT JUMPDEST POP CALLDATALOAD PUSH1 0x1 PUSH1 0x1 PUSH1 0xA0 SHL SUB AND PUSH2 0xE0E JUMP JUMPDEST PUSH2 0x28C PUSH1 0x4 DUP1 CALLDATASIZE SUB PUSH1 0x20 DUP2 LT ISZERO PUSH2 0x441 JUMPI PUSH1 0x0 DUP1 REVERT JUMPDEST POP CALLDATALOAD PUSH1 0x1 PUSH1 0x1 PUSH1 0xA0 SHL SUB AND PUSH2 0xEC1 JUMP JUMPDEST PUSH2 0x28C PUSH2 0xF78 JUMP JUMPDEST PUSH2 0x28C PUSH1 0x4 DUP1 CALLDATASIZE SUB PUSH1 0x20 DUP2 LT ISZERO PUSH2 0x46F JUMPI PUSH1 0x0 DUP1 REVERT JUMPDEST POP CALLDATALOAD PUSH1 0x1 PUSH1 0x1 PUSH1 0xA0 SHL SUB AND PUSH2 0x1096 JUMP JUMPDEST PUSH2 0x28C PUSH1 0x4 DUP1 CALLDATASIZE SUB PUSH1 0x20 DUP2 LT ISZERO PUSH2 0x495 JUMPI PUSH1 0x0 DUP1 REVERT JUMPDEST POP CALLDATALOAD PUSH1 0x1 PUSH1 0x1 PUSH1 0xA0 SHL SUB AND PUSH2 0x1150 JUMP JUMPDEST PUSH2 0x24A PUSH2 0x1210 JUMP JUMPDEST PUSH2 0x24A PUSH2 0x1222 JUMP JUMPDEST PUSH2 0x24A PUSH2 0x1249 JUMP JUMPDEST PUSH2 0x24A PUSH2 0x1262 JUMP JUMPDEST PUSH2 0x28C PUSH1 0x4 DUP1 CALLDATASIZE SUB PUSH1 0x20 DUP2 LT ISZERO PUSH2 0x4DB JUMPI PUSH1 0x0 DUP1 REVERT JUMPDEST POP CALLDATALOAD PUSH1 0x1 PUSH1 0x1 PUSH1 0xA0 SHL SUB AND PUSH2 0x1285 JUMP JUMPDEST PUSH2 0x28C PUSH1 0x4 DUP1 CALLDATASIZE SUB PUSH1 0x20 DUP2 LT ISZERO PUSH2 0x501 JUMPI PUSH1 0x0 DUP1 REVERT JUMPDEST POP CALLDATALOAD PUSH1 0x1 PUSH1 0x1 PUSH1 0xA0 SHL SUB AND PUSH2 0x1345 JUMP JUMPDEST PUSH2 0x24A PUSH2 0x1405 JUMP JUMPDEST PUSH2 0x28C PUSH1 0x4 DUP1 CALLDATASIZE SUB PUSH1 0x20 DUP2 LT ISZERO PUSH2 0x52F JUMPI PUSH1 0x0 DUP1 REVERT JUMPDEST POP CALLDATALOAD PUSH1 0x1 PUSH1 0x1 PUSH1 0xA0 SHL SUB AND PUSH2 0x141E JUMP JUMPDEST PUSH2 0x28C PUSH1 0x4 DUP1 CALLDATASIZE SUB PUSH1 0x20 DUP2 LT ISZERO PUSH2 0x555 JUMPI PUSH1 0x0 DUP1 REVERT JUMPDEST POP CALLDATALOAD PUSH1 0x1 PUSH1 0x1 PUSH1 0xA0 SHL SUB AND PUSH2 0x14D2 JUMP JUMPDEST PUSH2 0x24A PUSH2 0x158E JUMP JUMPDEST PUSH2 0x24A PUSH2 0x15B5 JUMP JUMPDEST PUSH2 0x28C PUSH1 0x4 DUP1 CALLDATASIZE SUB PUSH1 0x20 DUP2 LT ISZERO PUSH2 0x58B JUMPI PUSH1 0x0 DUP1 REVERT JUMPDEST POP CALLDATALOAD PUSH1 0x1 PUSH1 0x1 PUSH1 0xA0 SHL SUB AND PUSH2 0x15DC JUMP JUMPDEST PUSH2 0x24A PUSH2 0x16A0 JUMP JUMPDEST PUSH2 0x24A PUSH2 0x16BA JUMP JUMPDEST PUSH1 0x0 PUSH2 0x5C5 PUSH12 0x13115391125391D7D413D3D3 PUSH1 0xA2 SHL PUSH2 0x717 JUMP JUMPDEST SWAP1 POP SWAP1 JUMP JUMPDEST PUSH1 0x0 PUSH2 0x5E3 PUSH1 0x0 DUP1 MLOAD PUSH1 0x20 PUSH2 0x2432 DUP4 CODECOPY DUP2 MLOAD SWAP2 MSTORE PUSH2 0x717 JUMP JUMPDEST SWAP1 POP PUSH1 0x1 PUSH1 0x1 PUSH1 0xA0 SHL SUB DUP2 AND CALLER EQ PUSH2 0x62C JUMPI PUSH1 0x40 MLOAD PUSH3 0x461BCD PUSH1 0xE5 SHL DUP2 MSTORE PUSH1 0x4 ADD DUP1 DUP1 PUSH1 0x20 ADD DUP3 DUP2 SUB DUP3 MSTORE PUSH1 0x2F DUP2 MSTORE PUSH1 0x20 ADD DUP1 PUSH2 0x2403 PUSH1 0x2F SWAP2 CODECOPY PUSH1 0x40 ADD SWAP2 POP POP PUSH1 0x40 MLOAD DUP1 SWAP2 SUB SWAP1 REVERT JUMPDEST PUSH2 0x644 PUSH1 0x0 DUP1 MLOAD PUSH1 0x20 PUSH2 0x22C7 DUP4 CODECOPY DUP2 MLOAD SWAP2 MSTORE DUP4 PUSH2 0x16D4 JUMP JUMPDEST PUSH1 0x40 DUP1 MLOAD PUSH1 0x1 PUSH1 0x1 PUSH1 0xA0 SHL SUB DUP5 AND DUP2 MSTORE SWAP1 MLOAD PUSH32 0xEE02FBE602FD541026969F988B76E795CC611D62F5B0C23E7D4882C7DED4231E SWAP2 DUP2 SWAP1 SUB PUSH1 0x20 ADD SWAP1 LOG1 POP POP JUMP JUMPDEST PUSH1 0x0 PUSH2 0x5C5 PUSH25 0x534947485F46696E616E63655F4E46545F424F4F5354455253 PUSH1 0x38 SHL PUSH2 0x717 JUMP JUMPDEST PUSH1 0x0 PUSH2 0x5C5 PUSH32 0x534947485F46696E616E63655F534947485041595F41474752454741544F5200 PUSH2 0x717 JUMP JUMPDEST PUSH1 0x0 PUSH2 0x5C5 PUSH32 0x534947485F46696E616E63655F4665655F436F6C6C6563746F72000000000000 PUSH2 0x717 JUMP JUMPDEST PUSH1 0x0 PUSH2 0x5C5 PUSH12 0x534947485F5354414B494E47 PUSH1 0xA0 SHL JUMPDEST PUSH1 0x0 SWAP1 DUP2 MSTORE PUSH1 0x20 DUP2 SWAP1 MSTORE PUSH1 0x40 SWAP1 KECCAK256 SLOAD PUSH1 0x1 PUSH1 0x1 PUSH1 0xA0 SHL SUB AND SWAP1 JUMP JUMPDEST PUSH1 0x0 PUSH2 0x74B PUSH1 0x0 DUP1 MLOAD PUSH1 0x20 PUSH2 0x2432 DUP4 CODECOPY DUP2 MLOAD SWAP2 MSTORE PUSH2 0x717 JUMP JUMPDEST SWAP1 POP PUSH1 0x1 PUSH1 0x1 PUSH1 0xA0 SHL SUB DUP2 AND CALLER EQ PUSH2 0x794 JUMPI PUSH1 0x40 MLOAD PUSH3 0x461BCD PUSH1 0xE5 SHL DUP2 MSTORE PUSH1 0x4 ADD DUP1 DUP1 PUSH1 0x20 ADD DUP3 DUP2 SUB DUP3 MSTORE PUSH1 0x2F DUP2 MSTORE PUSH1 0x20 ADD DUP1 PUSH2 0x2403 PUSH1 0x2F SWAP2 CODECOPY PUSH1 0x40 ADD SWAP2 POP POP PUSH1 0x40 MLOAD DUP1 SWAP2 SUB SWAP1 REVERT JUMPDEST PUSH2 0x7AD PUSH12 0x2322A2AFA82927AB24A222A9 PUSH1 0xA1 SHL DUP4 PUSH2 0x1702 JUMP JUMPDEST PUSH1 0x40 MLOAD PUSH1 0x1 PUSH1 0x1 PUSH1 0xA0 SHL SUB DUP4 AND SWAP1 PUSH32 0x18E1A55B8EFF9C93921EECFA1462D6A8CBB80B3988DB3EB14C039E43FDB22661 SWAP1 PUSH1 0x0 SWAP1 LOG2 POP POP JUMP JUMPDEST PUSH1 0x0 PUSH2 0x7FE PUSH1 0x0 DUP1 MLOAD PUSH1 0x20 PUSH2 0x23E3 DUP4 CODECOPY DUP2 MLOAD SWAP2 MSTORE PUSH2 0x717 JUMP JUMPDEST SWAP1 POP CALLER PUSH1 0x1 PUSH1 0x1 PUSH1 0xA0 SHL SUB DUP3 AND EQ PUSH2 0x847 JUMPI PUSH1 0x40 MLOAD PUSH3 0x461BCD PUSH1 0xE5 SHL DUP2 MSTORE PUSH1 0x4 ADD DUP1 DUP1 PUSH1 0x20 ADD DUP3 DUP2 SUB DUP3 MSTORE PUSH1 0x6E DUP2 MSTORE PUSH1 0x20 ADD DUP1 PUSH2 0x22E7 PUSH1 0x6E SWAP2 CODECOPY PUSH1 0x80 ADD SWAP2 POP POP PUSH1 0x40 MLOAD DUP1 SWAP2 SUB SWAP1 REVERT JUMPDEST PUSH2 0x85F PUSH1 0x0 DUP1 MLOAD PUSH1 0x20 PUSH2 0x23C3 DUP4 CODECOPY DUP2 MLOAD SWAP2 MSTORE DUP3 PUSH2 0x16D4 JUMP JUMPDEST PUSH2 0x878 PUSH1 0x0 DUP1 MLOAD PUSH1 0x20 PUSH2 0x23E3 DUP4 CODECOPY DUP2 MLOAD SWAP2 MSTORE PUSH1 0x0 PUSH2 0x16D4 JUMP JUMPDEST PUSH32 0xA91FA516FE78C8763B8C5DC4A2B5B9A14F1EC037EFFB782EB387995A8140C4C PUSH2 0x8B0 PUSH1 0x0 DUP1 MLOAD PUSH1 0x20 PUSH2 0x23E3 DUP4 CODECOPY DUP2 MLOAD SWAP2 MSTORE PUSH2 0x717 JUMP JUMPDEST PUSH1 0x40 DUP1 MLOAD PUSH1 0x1 PUSH1 0x1 PUSH1 0xA0 SHL SUB SWAP1 SWAP3 AND DUP3 MSTORE MLOAD SWAP1 DUP2 SWAP1 SUB PUSH1 0x20 ADD SWAP1 LOG1 PUSH32 0x54A473CA1EAC369F8E9BCFBEDD5E7B6A025A683D5E1255F28B804658DFECFA5C PUSH2 0x903 PUSH1 0x0 DUP1 MLOAD PUSH1 0x20 PUSH2 0x23C3 DUP4 CODECOPY DUP2 MLOAD SWAP2 MSTORE PUSH2 0x717 JUMP JUMPDEST PUSH1 0x40 DUP1 MLOAD PUSH1 0x1 PUSH1 0x1 PUSH1 0xA0 SHL SUB SWAP1 SWAP3 AND DUP3 MSTORE MLOAD SWAP1 DUP2 SWAP1 SUB PUSH1 0x20 ADD SWAP1 LOG1 POP JUMP JUMPDEST PUSH1 0x0 PUSH2 0x5C5 PUSH1 0x0 DUP1 MLOAD PUSH1 0x20 PUSH2 0x22C7 DUP4 CODECOPY DUP2 MLOAD SWAP2 MSTORE PUSH2 0x717 JUMP JUMPDEST PUSH1 0x0 PUSH2 0x5C5 PUSH1 0x0 DUP1 MLOAD PUSH1 0x20 PUSH2 0x2432 DUP4 CODECOPY DUP2 MLOAD SWAP2 MSTORE PUSH2 0x717 JUMP JUMPDEST PUSH1 0x0 PUSH2 0x96C PUSH1 0x0 DUP1 MLOAD PUSH1 0x20 PUSH2 0x23C3 DUP4 CODECOPY DUP2 MLOAD SWAP2 MSTORE PUSH2 0x717 JUMP JUMPDEST SWAP1 POP PUSH1 0x1 PUSH1 0x1 PUSH1 0xA0 SHL SUB DUP2 AND CALLER EQ PUSH2 0x9B5 JUMPI PUSH1 0x40 MLOAD PUSH3 0x461BCD PUSH1 0xE5 SHL DUP2 MSTORE PUSH1 0x4 ADD DUP1 DUP1 PUSH1 0x20 ADD DUP3 DUP2 SUB DUP3 MSTORE PUSH1 0x2B DUP2 MSTORE PUSH1 0x20 ADD DUP1 PUSH2 0x229C PUSH1 0x2B SWAP2 CODECOPY PUSH1 0x40 ADD SWAP2 POP POP PUSH1 0x40 MLOAD DUP1 SWAP2 SUB SWAP1 REVERT JUMPDEST PUSH2 0x9CE PUSH12 0x534947485F5354414B494E47 PUSH1 0xA0 SHL DUP4 PUSH2 0x1702 JUMP JUMPDEST PUSH1 0x40 MLOAD PUSH1 0x1 PUSH1 0x1 PUSH1 0xA0 SHL SUB DUP4 AND SWAP1 PUSH32 0x5F8861BB6E28928A4078090240DA9377FE5DEDAA4AC6FBDC29AB3A6A057F28D9 SWAP1 PUSH1 0x0 SWAP1 LOG2 POP POP JUMP JUMPDEST PUSH1 0x0 PUSH2 0x5C5 PUSH19 0x4C454E44494E475F524154455F4F5241434C45 PUSH1 0x68 SHL PUSH2 0x717 JUMP JUMPDEST PUSH1 0x0 PUSH2 0xA40 PUSH1 0x0 DUP1 MLOAD PUSH1 0x20 PUSH2 0x23C3 DUP4 CODECOPY DUP2 MLOAD SWAP2 MSTORE PUSH2 0x717 JUMP JUMPDEST SWAP1 POP PUSH1 0x1 PUSH1 0x1 PUSH1 0xA0 SHL SUB DUP2 AND CALLER EQ PUSH2 0xA89 JUMPI PUSH1 0x40 MLOAD PUSH3 0x461BCD PUSH1 0xE5 SHL DUP2 MSTORE PUSH1 0x4 ADD DUP1 DUP1 PUSH1 0x20 ADD DUP3 DUP2 SUB DUP3 MSTORE PUSH1 0x2B DUP2 MSTORE PUSH1 0x20 ADD DUP1 PUSH2 0x229C PUSH1 0x2B SWAP2 CODECOPY PUSH1 0x40 ADD SWAP2 POP POP PUSH1 0x40 MLOAD DUP1 SWAP2 SUB SWAP1 REVERT JUMPDEST PUSH2 0xAAF PUSH25 0x29A4A3A42FAB27A620AA24A624AA2CAFA420A92B22A9AA22A9 PUSH1 0x39 SHL DUP4 PUSH2 0x1702 JUMP JUMPDEST PUSH1 0x40 MLOAD PUSH1 0x1 PUSH1 0x1 PUSH1 0xA0 SHL SUB DUP4 AND SWAP1 PUSH32 0x91CEF99C1FA0AC832709F2282AC310F01778AB480EC164CCF068EB4C31116866 SWAP1 PUSH1 0x0 SWAP1 LOG2 POP POP JUMP JUMPDEST PUSH1 0x0 PUSH2 0xB00 PUSH1 0x0 DUP1 MLOAD PUSH1 0x20 PUSH2 0x23C3 DUP4 CODECOPY DUP2 MLOAD SWAP2 MSTORE PUSH2 0x717 JUMP JUMPDEST SWAP1 POP PUSH1 0x1 PUSH1 0x1 PUSH1 0xA0 SHL SUB DUP2 AND CALLER EQ PUSH2 0xB49 JUMPI PUSH1 0x40 MLOAD PUSH3 0x461BCD PUSH1 0xE5 SHL DUP2 MSTORE PUSH1 0x4 ADD DUP1 DUP1 PUSH1 0x20 ADD DUP3 DUP2 SUB DUP3 MSTORE PUSH1 0x2B DUP2 MSTORE PUSH1 0x20 ADD DUP1 PUSH2 0x229C PUSH1 0x2B SWAP2 CODECOPY PUSH1 0x40 ADD SWAP2 POP POP PUSH1 0x40 MLOAD DUP1 SWAP2 SUB SWAP1 REVERT JUMPDEST PUSH2 0xB73 PUSH32 0x534947485F46696E616E63655F4665655F436F6C6C6563746F72000000000000 DUP4 PUSH2 0x16D4 JUMP JUMPDEST PUSH1 0x40 MLOAD PUSH1 0x1 PUSH1 0x1 PUSH1 0xA0 SHL SUB DUP4 AND SWAP1 PUSH32 0x39722A85365E94D1C12CB806B2D9E930373A8AEE79C6691A20ABEBEB6554C5D7 SWAP1 PUSH1 0x0 SWAP1 LOG2 POP POP JUMP JUMPDEST PUSH1 0x0 PUSH2 0xBC4 PUSH1 0x0 DUP1 MLOAD PUSH1 0x20 PUSH2 0x23C3 DUP4 CODECOPY DUP2 MLOAD SWAP2 MSTORE PUSH2 0x717 JUMP JUMPDEST SWAP1 POP PUSH1 0x1 PUSH1 0x1 PUSH1 0xA0 SHL SUB DUP2 AND CALLER EQ PUSH2 0xC0D JUMPI PUSH1 0x40 MLOAD PUSH3 0x461BCD PUSH1 0xE5 SHL DUP2 MSTORE PUSH1 0x4 ADD DUP1 DUP1 PUSH1 0x20 ADD DUP3 DUP2 SUB DUP3 MSTORE PUSH1 0x2B DUP2 MSTORE PUSH1 0x20 ADD DUP1 PUSH2 0x229C PUSH1 0x2B SWAP2 CODECOPY PUSH1 0x40 ADD SWAP2 POP POP PUSH1 0x40 MLOAD DUP1 SWAP2 SUB SWAP1 REVERT JUMPDEST PUSH2 0xC25 PUSH1 0x0 DUP1 MLOAD PUSH1 0x20 PUSH2 0x23E3 DUP4 CODECOPY DUP2 MLOAD SWAP2 MSTORE DUP4 PUSH2 0x16D4 JUMP JUMPDEST PUSH1 0x40 DUP1 MLOAD PUSH1 0x1 PUSH1 0x1 PUSH1 0xA0 SHL SUB DUP5 AND DUP2 MSTORE SWAP1 MLOAD PUSH32 0xA91FA516FE78C8763B8C5DC4A2B5B9A14F1EC037EFFB782EB387995A8140C4C SWAP2 DUP2 SWAP1 SUB PUSH1 0x20 ADD SWAP1 LOG1 POP POP JUMP JUMPDEST PUSH1 0x0 PUSH2 0xC7E PUSH1 0x0 DUP1 MLOAD PUSH1 0x20 PUSH2 0x2432 DUP4 CODECOPY DUP2 MLOAD SWAP2 MSTORE PUSH2 0x717 JUMP JUMPDEST SWAP1 POP PUSH1 0x1 PUSH1 0x1 PUSH1 0xA0 SHL SUB DUP2 AND CALLER EQ PUSH2 0xCC7 JUMPI PUSH1 0x40 MLOAD PUSH3 0x461BCD PUSH1 0xE5 SHL DUP2 MSTORE PUSH1 0x4 ADD DUP1 DUP1 PUSH1 0x20 ADD DUP3 DUP2 SUB DUP3 MSTORE PUSH1 0x2F DUP2 MSTORE PUSH1 0x20 ADD DUP1 PUSH2 0x2403 PUSH1 0x2F SWAP2 CODECOPY PUSH1 0x40 ADD SWAP2 POP POP PUSH1 0x40 MLOAD DUP1 SWAP2 SUB SWAP1 REVERT JUMPDEST PUSH2 0xCE7 PUSH19 0x2624A8AAA4A220AA24A7A72FA6A0A720A3A2A9 PUSH1 0x69 SHL DUP4 PUSH2 0x16D4 JUMP JUMPDEST PUSH1 0x40 MLOAD PUSH1 0x1 PUSH1 0x1 PUSH1 0xA0 SHL SUB DUP4 AND SWAP1 PUSH32 0x1A76CB769B814BC038223DA86932B099B20AAE03473683E6D98F5C3554E26064 SWAP1 PUSH1 0x0 SWAP1 LOG2 POP POP JUMP JUMPDEST PUSH1 0x0 PUSH2 0xD38 PUSH1 0x0 DUP1 MLOAD PUSH1 0x20 PUSH2 0x2432 DUP4 CODECOPY DUP2 MLOAD SWAP2 MSTORE PUSH2 0x717 JUMP JUMPDEST SWAP1 POP PUSH1 0x1 PUSH1 0x1 PUSH1 0xA0 SHL SUB DUP2 AND CALLER EQ PUSH2 0xD81 JUMPI PUSH1 0x40 MLOAD PUSH3 0x461BCD PUSH1 0xE5 SHL DUP2 MSTORE PUSH1 0x4 ADD DUP1 DUP1 PUSH1 0x20 ADD DUP3 DUP2 SUB DUP3 MSTORE PUSH1 0x2F DUP2 MSTORE PUSH1 0x20 ADD DUP1 PUSH2 0x2403 PUSH1 0x2F SWAP2 CODECOPY PUSH1 0x40 ADD SWAP2 POP POP PUSH1 0x40 MLOAD DUP1 SWAP2 SUB SWAP1 REVERT JUMPDEST PUSH2 0xD9A PUSH12 0x50524943455F4F5241434C45 PUSH1 0xA0 SHL DUP4 PUSH2 0x16D4 JUMP JUMPDEST PUSH1 0x40 MLOAD PUSH1 0x1 PUSH1 0x1 PUSH1 0xA0 SHL SUB DUP4 AND SWAP1 PUSH32 0xEFE8AB924CA486283A79DC604BAA67ADD51AFB82AF1DB8AC386EBBBA643CDFFD SWAP1 PUSH1 0x0 SWAP1 LOG2 POP POP JUMP JUMPDEST PUSH1 0x0 PUSH2 0x5C5 PUSH19 0x2624A8AAA4A220AA24A7A72FA6A0A720A3A2A9 PUSH1 0x69 SHL PUSH2 0x717 JUMP JUMPDEST PUSH1 0x0 PUSH2 0x5C5 PUSH13 0x534947485F5452454153555259 PUSH1 0x98 SHL PUSH2 0x717 JUMP JUMPDEST PUSH1 0x0 PUSH2 0xE27 PUSH1 0x0 DUP1 MLOAD PUSH1 0x20 PUSH2 0x2432 DUP4 CODECOPY DUP2 MLOAD SWAP2 MSTORE PUSH2 0x717 JUMP JUMPDEST SWAP1 POP PUSH1 0x1 PUSH1 0x1 PUSH1 0xA0 SHL SUB DUP2 AND CALLER EQ PUSH2 0xE70 JUMPI PUSH1 0x40 MLOAD PUSH3 0x461BCD PUSH1 0xE5 SHL DUP2 MSTORE PUSH1 0x4 ADD DUP1 DUP1 PUSH1 0x20 ADD DUP3 DUP2 SUB DUP3 MSTORE PUSH1 0x2F DUP2 MSTORE PUSH1 0x20 ADD DUP1 PUSH2 0x2403 PUSH1 0x2F SWAP2 CODECOPY PUSH1 0x40 ADD SWAP2 POP POP PUSH1 0x40 MLOAD DUP1 SWAP2 SUB SWAP1 REVERT JUMPDEST PUSH2 0xE89 PUSH12 0x13115391125391D7D413D3D3 PUSH1 0xA2 SHL DUP4 PUSH2 0x1702 JUMP JUMPDEST PUSH1 0x40 MLOAD PUSH1 0x1 PUSH1 0x1 PUSH1 0xA0 SHL SUB DUP4 AND SWAP1 PUSH32 0xC4E6C6CDF28D0EDBD8BCF071D724D33CC2E7A30BE7D06443925656E9CB492AA4 SWAP1 PUSH1 0x0 SWAP1 LOG2 POP POP JUMP JUMPDEST PUSH1 0x0 PUSH2 0xEDA PUSH1 0x0 DUP1 MLOAD PUSH1 0x20 PUSH2 0x23C3 DUP4 CODECOPY DUP2 MLOAD SWAP2 MSTORE PUSH2 0x717 JUMP JUMPDEST SWAP1 POP PUSH1 0x1 PUSH1 0x1 PUSH1 0xA0 SHL SUB DUP2 AND CALLER EQ PUSH2 0xF23 JUMPI PUSH1 0x40 MLOAD PUSH3 0x461BCD PUSH1 0xE5 SHL DUP2 MSTORE PUSH1 0x4 ADD DUP1 DUP1 PUSH1 0x20 ADD DUP3 DUP2 SUB DUP3 MSTORE PUSH1 0x2B DUP2 MSTORE PUSH1 0x20 ADD DUP1 PUSH2 0x229C PUSH1 0x2B SWAP2 CODECOPY PUSH1 0x40 ADD SWAP2 POP POP PUSH1 0x40 MLOAD DUP1 SWAP2 SUB SWAP1 REVERT JUMPDEST PUSH1 0x1 DUP1 SLOAD PUSH1 0xFF NOT AND DUP2 OR SWAP1 SSTORE PUSH2 0xF40 PUSH4 0xA6928E9 PUSH1 0xE3 SHL DUP4 PUSH2 0x16D4 JUMP JUMPDEST PUSH1 0x40 MLOAD PUSH1 0x1 PUSH1 0x1 PUSH1 0xA0 SHL SUB DUP4 AND SWAP1 PUSH32 0x381506510C1E0C6490721A2B661B0150F544E59C97FF556D7668D894B414EC7D SWAP1 PUSH1 0x0 SWAP1 LOG2 POP POP JUMP JUMPDEST PUSH1 0x0 PUSH2 0xF91 PUSH1 0x0 DUP1 MLOAD PUSH1 0x20 PUSH2 0x22C7 DUP4 CODECOPY DUP2 MLOAD SWAP2 MSTORE PUSH2 0x717 JUMP JUMPDEST SWAP1 POP CALLER PUSH1 0x1 PUSH1 0x1 PUSH1 0xA0 SHL SUB DUP3 AND EQ PUSH2 0xFDA JUMPI PUSH1 0x40 MLOAD PUSH3 0x461BCD PUSH1 0xE5 SHL DUP2 MSTORE PUSH1 0x4 ADD DUP1 DUP1 PUSH1 0x20 ADD DUP3 DUP2 SUB DUP3 MSTORE PUSH1 0x6E DUP2 MSTORE PUSH1 0x20 ADD DUP1 PUSH2 0x2355 PUSH1 0x6E SWAP2 CODECOPY PUSH1 0x80 ADD SWAP2 POP POP PUSH1 0x40 MLOAD DUP1 SWAP2 SUB SWAP1 REVERT JUMPDEST PUSH2 0xFF2 PUSH1 0x0 DUP1 MLOAD PUSH1 0x20 PUSH2 0x2432 DUP4 CODECOPY DUP2 MLOAD SWAP2 MSTORE DUP3 PUSH2 0x16D4 JUMP JUMPDEST PUSH2 0x100B PUSH1 0x0 DUP1 MLOAD PUSH1 0x20 PUSH2 0x22C7 DUP4 CODECOPY DUP2 MLOAD SWAP2 MSTORE PUSH1 0x0 PUSH2 0x16D4 JUMP JUMPDEST PUSH32 0xEE02FBE602FD541026969F988B76E795CC611D62F5B0C23E7D4882C7DED4231E PUSH2 0x1043 PUSH1 0x0 DUP1 MLOAD PUSH1 0x20 PUSH2 0x22C7 DUP4 CODECOPY DUP2 MLOAD SWAP2 MSTORE PUSH2 0x717 JUMP JUMPDEST PUSH1 0x40 DUP1 MLOAD PUSH1 0x1 PUSH1 0x1 PUSH1 0xA0 SHL SUB SWAP1 SWAP3 AND DUP3 MSTORE MLOAD SWAP1 DUP2 SWAP1 SUB PUSH1 0x20 ADD SWAP1 LOG1 PUSH32 0xD5280C51185A38D36F7A0F5E56CAC6248312BB70D0974782FA5A595127E0E08E PUSH2 0x903 PUSH1 0x0 DUP1 MLOAD PUSH1 0x20 PUSH2 0x2432 DUP4 CODECOPY DUP2 MLOAD SWAP2 MSTORE PUSH2 0x717 JUMP JUMPDEST PUSH1 0x0 PUSH2 0x10AF PUSH1 0x0 DUP1 MLOAD PUSH1 0x20 PUSH2 0x2432 DUP4 CODECOPY DUP2 MLOAD SWAP2 MSTORE PUSH2 0x717 JUMP JUMPDEST SWAP1 POP PUSH1 0x1 PUSH1 0x1 PUSH1 0xA0 SHL SUB DUP2 AND CALLER EQ PUSH2 0x10F8 JUMPI PUSH1 0x40 MLOAD PUSH3 0x461BCD PUSH1 0xE5 SHL DUP2 MSTORE PUSH1 0x4 ADD DUP1 DUP1 PUSH1 0x20 ADD DUP3 DUP2 SUB DUP3 MSTORE PUSH1 0x2F DUP2 MSTORE PUSH1 0x20 ADD DUP1 PUSH2 0x2403 PUSH1 0x2F SWAP2 CODECOPY PUSH1 0x40 ADD SWAP2 POP POP PUSH1 0x40 MLOAD DUP1 SWAP2 SUB SWAP1 REVERT JUMPDEST PUSH2 0x1118 PUSH19 0x4C454E44494E475F524154455F4F5241434C45 PUSH1 0x68 SHL DUP4 PUSH2 0x16D4 JUMP JUMPDEST PUSH1 0x40 MLOAD PUSH1 0x1 PUSH1 0x1 PUSH1 0xA0 SHL SUB DUP4 AND SWAP1 PUSH32 0x5C29179ABA6942020A8A2D38F65DE02FB6B7F784E7F049ED3A3CAB97621859B5 SWAP1 PUSH1 0x0 SWAP1 LOG2 POP POP JUMP JUMPDEST PUSH1 0x0 PUSH2 0x1169 PUSH1 0x0 DUP1 MLOAD PUSH1 0x20 PUSH2 0x23C3 DUP4 CODECOPY DUP2 MLOAD SWAP2 MSTORE PUSH2 0x717 JUMP JUMPDEST SWAP1 POP PUSH1 0x1 PUSH1 0x1 PUSH1 0xA0 SHL SUB DUP2 AND CALLER EQ PUSH2 0x11B2 JUMPI PUSH1 0x40 MLOAD PUSH3 0x461BCD PUSH1 0xE5 SHL DUP2 MSTORE PUSH1 0x4 ADD DUP1 DUP1 PUSH1 0x20 ADD DUP3 DUP2 SUB DUP3 MSTORE PUSH1 0x2B DUP2 MSTORE PUSH1 0x20 ADD DUP1 PUSH2 0x229C PUSH1 0x2B SWAP2 CODECOPY PUSH1 0x40 ADD SWAP2 POP POP PUSH1 0x40 MLOAD DUP1 SWAP2 SUB SWAP1 REVERT JUMPDEST PUSH2 0x11D8 PUSH25 0x29A4A3A42FA324A720A721A2AFA1A7A72324A3AAA920AA27A9 PUSH1 0x39 SHL DUP4 PUSH2 0x1702 JUMP JUMPDEST PUSH1 0x40 MLOAD PUSH1 0x1 PUSH1 0x1 PUSH1 0xA0 SHL SUB DUP4 AND SWAP1 PUSH32 0x51BDA0BDF35CFC37E30F312B0624AFC7806D46F71E133364BD9D09507724D831 SWAP1 PUSH1 0x0 SWAP1 LOG2 POP POP JUMP JUMPDEST PUSH1 0x0 PUSH2 0x5C5 PUSH4 0xA6928E9 PUSH1 0xE3 SHL PUSH2 0x717 JUMP JUMPDEST PUSH1 0x0 PUSH2 0x5C5 PUSH25 0x2622A72224A723AFA827A7A62FA1A7A72324A3AAA920AA27A9 PUSH1 0x39 SHL PUSH2 0x717 JUMP JUMPDEST PUSH1 0x0 PUSH2 0x5C5 PUSH1 0x0 DUP1 MLOAD PUSH1 0x20 PUSH2 0x23C3 DUP4 CODECOPY DUP2 MLOAD SWAP2 MSTORE PUSH2 0x717 JUMP JUMPDEST PUSH1 0x0 PUSH2 0x5C5 PUSH21 0x29A4A3A42FA9A822A2A22FA1A7A72A2927A62622A9 PUSH1 0x59 SHL PUSH2 0x717 JUMP JUMPDEST PUSH1 0x0 PUSH2 0x129E PUSH1 0x0 DUP1 MLOAD PUSH1 0x20 PUSH2 0x23C3 DUP4 CODECOPY DUP2 MLOAD SWAP2 MSTORE PUSH2 0x717 JUMP JUMPDEST SWAP1 POP PUSH1 0x1 PUSH1 0x1 PUSH1 0xA0 SHL SUB DUP2 AND CALLER EQ PUSH2 0x12E7 JUMPI PUSH1 0x40 MLOAD PUSH3 0x461BCD PUSH1 0xE5 SHL DUP2 MSTORE PUSH1 0x4 ADD DUP1 DUP1 PUSH1 0x20 ADD DUP3 DUP2 SUB DUP3 MSTORE PUSH1 0x2B DUP2 MSTORE PUSH1 0x20 ADD DUP1 PUSH2 0x229C PUSH1 0x2B SWAP2 CODECOPY PUSH1 0x40 ADD SWAP2 POP POP PUSH1 0x40 MLOAD DUP1 SWAP2 SUB SWAP1 REVERT JUMPDEST PUSH2 0x130D PUSH25 0x534947485F46696E616E63655F4E46545F424F4F5354455253 PUSH1 0x38 SHL DUP4 PUSH2 0x16D4 JUMP JUMPDEST PUSH1 0x40 MLOAD PUSH1 0x1 PUSH1 0x1 PUSH1 0xA0 SHL SUB DUP4 AND SWAP1 PUSH32 0x3055A37193DADAD5686F65CA2A960F68EBF2799991D1A8434CEBECB3D7FAF958 SWAP1 PUSH1 0x0 SWAP1 LOG2 POP POP JUMP JUMPDEST PUSH1 0x0 PUSH2 0x135E PUSH1 0x0 DUP1 MLOAD PUSH1 0x20 PUSH2 0x2432 DUP4 CODECOPY DUP2 MLOAD SWAP2 MSTORE PUSH2 0x717 JUMP JUMPDEST SWAP1 POP PUSH1 0x1 PUSH1 0x1 PUSH1 0xA0 SHL SUB DUP2 AND CALLER EQ PUSH2 0x13A7 JUMPI PUSH1 0x40 MLOAD PUSH3 0x461BCD PUSH1 0xE5 SHL DUP2 MSTORE PUSH1 0x4 ADD DUP1 DUP1 PUSH1 0x20 ADD DUP3 DUP2 SUB DUP3 MSTORE PUSH1 0x2F DUP2 MSTORE PUSH1 0x20 ADD DUP1 PUSH2 0x2403 PUSH1 0x2F SWAP2 CODECOPY PUSH1 0x40 ADD SWAP2 POP POP PUSH1 0x40 MLOAD DUP1 SWAP2 SUB SWAP1 REVERT JUMPDEST PUSH2 0x13CD PUSH25 0x2622A72224A723AFA827A7A62FA1A7A72324A3AAA920AA27A9 PUSH1 0x39 SHL DUP4 PUSH2 0x1702 JUMP JUMPDEST PUSH1 0x40 MLOAD PUSH1 0x1 PUSH1 0x1 PUSH1 0xA0 SHL SUB DUP4 AND SWAP1 PUSH32 0xDFABE479BAD36782FB1E77FBFDDD4E382671713527E4786CFC93A022AE763729 SWAP1 PUSH1 0x0 SWAP1 LOG2 POP POP JUMP JUMPDEST PUSH1 0x0 PUSH2 0x5C5 PUSH1 0x0 DUP1 MLOAD PUSH1 0x20 PUSH2 0x23E3 DUP4 CODECOPY DUP2 MLOAD SWAP2 MSTORE PUSH2 0x717 JUMP JUMPDEST PUSH1 0x0 PUSH2 0x1437 PUSH1 0x0 DUP1 MLOAD PUSH1 0x20 PUSH2 0x23C3 DUP4 CODECOPY DUP2 MLOAD SWAP2 MSTORE PUSH2 0x717 JUMP JUMPDEST SWAP1 POP PUSH1 0x1 PUSH1 0x1 PUSH1 0xA0 SHL SUB DUP2 AND CALLER EQ PUSH2 0x1480 JUMPI PUSH1 0x40 MLOAD PUSH3 0x461BCD PUSH1 0xE5 SHL DUP2 MSTORE PUSH1 0x4 ADD DUP1 DUP1 PUSH1 0x20 ADD DUP3 DUP2 SUB DUP3 MSTORE PUSH1 0x2B DUP2 MSTORE PUSH1 0x20 ADD DUP1 PUSH2 0x229C PUSH1 0x2B SWAP2 CODECOPY PUSH1 0x40 ADD SWAP2 POP POP PUSH1 0x40 MLOAD DUP1 SWAP2 SUB SWAP1 REVERT JUMPDEST PUSH2 0x149A PUSH13 0x534947485F5452454153555259 PUSH1 0x98 SHL DUP4 PUSH2 0x1702 JUMP JUMPDEST PUSH1 0x40 MLOAD PUSH1 0x1 PUSH1 0x1 PUSH1 0xA0 SHL SUB DUP4 AND SWAP1 PUSH32 0x4E594F07049C48E5E02719973ED5064139451DC41D5348D3D52B362AC628A695 SWAP1 PUSH1 0x0 SWAP1 LOG2 POP POP JUMP JUMPDEST PUSH1 0x0 PUSH2 0x14EB PUSH1 0x0 DUP1 MLOAD PUSH1 0x20 PUSH2 0x23C3 DUP4 CODECOPY DUP2 MLOAD SWAP2 MSTORE PUSH2 0x717 JUMP JUMPDEST SWAP1 POP PUSH1 0x1 PUSH1 0x1 PUSH1 0xA0 SHL SUB DUP2 AND CALLER EQ PUSH2 0x1534 JUMPI PUSH1 0x40 MLOAD PUSH3 0x461BCD PUSH1 0xE5 SHL DUP2 MSTORE PUSH1 0x4 ADD DUP1 DUP1 PUSH1 0x20 ADD DUP3 DUP2 SUB DUP3 MSTORE PUSH1 0x2B DUP2 MSTORE PUSH1 0x20 ADD DUP1 PUSH2 0x229C PUSH1 0x2B SWAP2 CODECOPY PUSH1 0x40 ADD SWAP2 POP POP PUSH1 0x40 MLOAD DUP1 SWAP2 SUB SWAP1 REVERT JUMPDEST PUSH2 0x1556 PUSH21 0x29A4A3A42FA9A822A2A22FA1A7A72A2927A62622A9 PUSH1 0x59 SHL DUP4 PUSH2 0x1702 JUMP JUMPDEST PUSH1 0x40 MLOAD PUSH1 0x1 PUSH1 0x1 PUSH1 0xA0 SHL SUB DUP4 AND SWAP1 PUSH32 0x579F9FFAA1ECB9BF9C8A40161500243B875B8A597C78EC222812E5336EF9793 SWAP1 PUSH1 0x0 SWAP1 LOG2 POP POP JUMP JUMPDEST PUSH1 0x0 PUSH2 0x5C5 PUSH25 0x29A4A3A42FAB27A620AA24A624AA2CAFA420A92B22A9AA22A9 PUSH1 0x39 SHL PUSH2 0x717 JUMP JUMPDEST PUSH1 0x0 PUSH2 0x5C5 PUSH25 0x29A4A3A42FA324A720A721A2AFA1A7A72324A3AAA920AA27A9 PUSH1 0x39 SHL PUSH2 0x717 JUMP JUMPDEST PUSH1 0x0 PUSH2 0x15F5 PUSH1 0x0 DUP1 MLOAD PUSH1 0x20 PUSH2 0x23C3 DUP4 CODECOPY DUP2 MLOAD SWAP2 MSTORE PUSH2 0x717 JUMP JUMPDEST SWAP1 POP PUSH1 0x1 PUSH1 0x1 PUSH1 0xA0 SHL SUB DUP2 AND CALLER EQ PUSH2 0x163E JUMPI PUSH1 0x40 MLOAD PUSH3 0x461BCD PUSH1 0xE5 SHL DUP2 MSTORE PUSH1 0x4 ADD DUP1 DUP1 PUSH1 0x20 ADD DUP3 DUP2 SUB DUP3 MSTORE PUSH1 0x2B DUP2 MSTORE PUSH1 0x20 ADD DUP1 PUSH2 0x229C PUSH1 0x2B SWAP2 CODECOPY PUSH1 0x40 ADD SWAP2 POP POP PUSH1 0x40 MLOAD DUP1 SWAP2 SUB SWAP1 REVERT JUMPDEST PUSH2 0x1668 PUSH32 0x534947485F46696E616E63655F534947485041595F41474752454741544F5200 DUP4 PUSH2 0x1702 JUMP JUMPDEST PUSH1 0x40 MLOAD PUSH1 0x1 PUSH1 0x1 PUSH1 0xA0 SHL SUB DUP4 AND SWAP1 PUSH32 0x7B85740503D5E7932B8875CF0C5E013D7F24A57E37C0FEF940F93B841366610E SWAP1 PUSH1 0x0 SWAP1 LOG2 POP POP JUMP JUMPDEST PUSH1 0x0 PUSH2 0x5C5 PUSH12 0x2322A2AFA82927AB24A222A9 PUSH1 0xA1 SHL PUSH2 0x717 JUMP JUMPDEST PUSH1 0x0 PUSH2 0x5C5 PUSH12 0x50524943455F4F5241434C45 PUSH1 0xA0 SHL PUSH2 0x717 JUMP JUMPDEST PUSH1 0x0 SWAP2 DUP3 MSTORE PUSH1 0x20 DUP3 SWAP1 MSTORE PUSH1 0x40 SWAP1 SWAP2 KECCAK256 DUP1 SLOAD PUSH1 0x1 PUSH1 0x1 PUSH1 0xA0 SHL SUB NOT AND PUSH1 0x1 PUSH1 0x1 PUSH1 0xA0 SHL SUB SWAP1 SWAP3 AND SWAP2 SWAP1 SWAP2 OR SWAP1 SSTORE JUMP JUMPDEST PUSH1 0x0 PUSH2 0x170D DUP4 PUSH2 0x717 JUMP JUMPDEST PUSH1 0x40 DUP1 MLOAD ADDRESS PUSH1 0x24 DUP1 DUP4 ADD SWAP2 SWAP1 SWAP2 MSTORE DUP3 MLOAD DUP1 DUP4 SUB SWAP1 SWAP2 ADD DUP2 MSTORE PUSH1 0x44 SWAP1 SWAP2 ADD SWAP1 SWAP2 MSTORE PUSH1 0x20 DUP2 ADD DUP1 MLOAD PUSH1 0x1 PUSH1 0x1 PUSH1 0xE0 SHL SUB AND PUSH4 0x189ACDBD PUSH1 0xE3 SHL OR SWAP1 MSTORE SWAP1 SWAP2 POP DUP2 SWAP1 PUSH1 0x1 PUSH1 0x1 PUSH1 0xA0 SHL SUB DUP3 AND PUSH2 0x18B5 JUMPI PUSH1 0x40 MLOAD PUSH2 0x1766 SWAP1 PUSH2 0x198E JUMP JUMPDEST PUSH1 0x40 MLOAD DUP1 SWAP2 SUB SWAP1 PUSH1 0x0 CREATE DUP1 ISZERO DUP1 ISZERO PUSH2 0x1782 JUMPI RETURNDATASIZE PUSH1 0x0 DUP1 RETURNDATACOPY RETURNDATASIZE PUSH1 0x0 REVERT JUMPDEST POP SWAP2 POP DUP2 PUSH1 0x1 PUSH1 0x1 PUSH1 0xA0 SHL SUB AND PUSH4 0xCF7A1D77 DUP6 ADDRESS DUP5 PUSH1 0x40 MLOAD DUP5 PUSH4 0xFFFFFFFF AND PUSH1 0xE0 SHL DUP2 MSTORE PUSH1 0x4 ADD DUP1 DUP5 PUSH1 0x1 PUSH1 0x1 PUSH1 0xA0 SHL SUB AND DUP2 MSTORE PUSH1 0x20 ADD DUP4 PUSH1 0x1 PUSH1 0x1 PUSH1 0xA0 SHL SUB AND DUP2 MSTORE PUSH1 0x20 ADD DUP1 PUSH1 0x20 ADD DUP3 DUP2 SUB DUP3 MSTORE DUP4 DUP2 DUP2 MLOAD DUP2 MSTORE PUSH1 0x20 ADD SWAP2 POP DUP1 MLOAD SWAP1 PUSH1 0x20 ADD SWAP1 DUP1 DUP4 DUP4 PUSH1 0x0 JUMPDEST DUP4 DUP2 LT ISZERO PUSH2 0x1801 JUMPI DUP2 DUP2 ADD MLOAD DUP4 DUP3 ADD MSTORE PUSH1 0x20 ADD PUSH2 0x17E9 JUMP JUMPDEST POP POP POP POP SWAP1 POP SWAP1 DUP2 ADD SWAP1 PUSH1 0x1F AND DUP1 ISZERO PUSH2 0x182E JUMPI DUP1 DUP3 SUB DUP1 MLOAD PUSH1 0x1 DUP4 PUSH1 0x20 SUB PUSH2 0x100 EXP SUB NOT AND DUP2 MSTORE PUSH1 0x20 ADD SWAP2 POP JUMPDEST POP SWAP5 POP POP POP POP POP PUSH1 0x0 PUSH1 0x40 MLOAD DUP1 DUP4 SUB DUP2 PUSH1 0x0 DUP8 DUP1 EXTCODESIZE ISZERO DUP1 ISZERO PUSH2 0x184F JUMPI PUSH1 0x0 DUP1 REVERT JUMPDEST POP GAS CALL ISZERO DUP1 ISZERO PUSH2 0x1863 JUMPI RETURNDATASIZE PUSH1 0x0 DUP1 RETURNDATACOPY RETURNDATASIZE PUSH1 0x0 REVERT JUMPDEST POP POP POP POP PUSH2 0x1871 DUP6 DUP4 PUSH2 0x16D4 JUMP JUMPDEST PUSH1 0x40 DUP1 MLOAD DUP7 DUP2 MSTORE SWAP1 MLOAD PUSH1 0x1 PUSH1 0x1 PUSH1 0xA0 SHL SUB DUP5 AND SWAP2 PUSH32 0x1EB35CB4B5BBB23D152F3B4016A5A46C37A07AE930ED0956ABA951E231142438 SWAP2 SWAP1 DUP2 SWAP1 SUB PUSH1 0x20 ADD SWAP1 LOG2 PUSH2 0x1987 JUMP JUMPDEST DUP2 PUSH1 0x1 PUSH1 0x1 PUSH1 0xA0 SHL SUB AND PUSH4 0x4F1EF286 DUP6 DUP4 PUSH1 0x40 MLOAD DUP4 PUSH4 0xFFFFFFFF AND PUSH1 0xE0 SHL DUP2 MSTORE PUSH1 0x4 ADD DUP1 DUP4 PUSH1 0x1 PUSH1 0x1 PUSH1 0xA0 SHL SUB AND DUP2 MSTORE PUSH1 0x20 ADD DUP1 PUSH1 0x20 ADD DUP3 DUP2 SUB DUP3 MSTORE DUP4 DUP2 DUP2 MLOAD DUP2 MSTORE PUSH1 0x20 ADD SWAP2 POP DUP1 MLOAD SWAP1 PUSH1 0x20 ADD SWAP1 DUP1 DUP4 DUP4 PUSH1 0x0 JUMPDEST DUP4 DUP2 LT ISZERO PUSH2 0x1921 JUMPI DUP2 DUP2 ADD MLOAD DUP4 DUP3 ADD MSTORE PUSH1 0x20 ADD PUSH2 0x1909 JUMP JUMPDEST POP POP POP POP SWAP1 POP SWAP1 DUP2 ADD SWAP1 PUSH1 0x1F AND DUP1 ISZERO PUSH2 0x194E JUMPI DUP1 DUP3 SUB DUP1 MLOAD PUSH1 0x1 DUP4 PUSH1 0x20 SUB PUSH2 0x100 EXP SUB NOT AND DUP2 MSTORE PUSH1 0x20 ADD SWAP2 POP JUMPDEST POP SWAP4 POP POP POP POP PUSH1 0x0 PUSH1 0x40 MLOAD DUP1 DUP4 SUB DUP2 PUSH1 0x0 DUP8 DUP1 EXTCODESIZE ISZERO DUP1 ISZERO PUSH2 0x196E JUMPI PUSH1 0x0 DUP1 REVERT JUMPDEST POP GAS CALL ISZERO DUP1 ISZERO PUSH2 0x1982 JUMPI RETURNDATASIZE PUSH1 0x0 DUP1 RETURNDATACOPY RETURNDATASIZE PUSH1 0x0 REVERT JUMPDEST POP POP POP POP JUMPDEST POP POP POP POP POP JUMP JUMPDEST PUSH2 0x900 DUP1 PUSH2 0x199C DUP4 CODECOPY ADD SWAP1 JUMP INVALID PUSH1 0x80 PUSH1 0x40 MSTORE CALLVALUE DUP1 ISZERO PUSH2 0x10 JUMPI PUSH1 0x0 DUP1 REVERT JUMPDEST POP PUSH2 0x8E0 DUP1 PUSH2 0x20 PUSH1 0x0 CODECOPY PUSH1 0x0 RETURN INVALID PUSH1 0x80 PUSH1 0x40 MSTORE PUSH1 0x4 CALLDATASIZE LT PUSH2 0x74 JUMPI PUSH1 0x0 CALLDATALOAD PUSH1 0xE0 SHR DUP1 PUSH4 0x8F283970 GT PUSH2 0x4E JUMPI DUP1 PUSH4 0x8F283970 EQ PUSH2 0x16F JUMPI DUP1 PUSH4 0xCF7A1D77 EQ PUSH2 0x1A2 JUMPI DUP1 PUSH4 0xD1F57894 EQ PUSH2 0x261 JUMPI DUP1 PUSH4 0xF851A440 EQ PUSH2 0x317 JUMPI PUSH2 0x83 JUMP JUMPDEST DUP1 PUSH4 0x3659CFE6 EQ PUSH2 0x8B JUMPI DUP1 PUSH4 0x4F1EF286 EQ PUSH2 0xBE JUMPI DUP1 PUSH4 0x5C60DA1B EQ PUSH2 0x13E JUMPI PUSH2 0x83 JUMP JUMPDEST CALLDATASIZE PUSH2 0x83 JUMPI PUSH2 0x81 PUSH2 0x32C JUMP JUMPDEST STOP JUMPDEST PUSH2 0x81 PUSH2 0x32C JUMP JUMPDEST CALLVALUE DUP1 ISZERO PUSH2 0x97 JUMPI PUSH1 0x0 DUP1 REVERT JUMPDEST POP PUSH2 0x81 PUSH1 0x4 DUP1 CALLDATASIZE SUB PUSH1 0x20 DUP2 LT ISZERO PUSH2 0xAE JUMPI PUSH1 0x0 DUP1 REVERT JUMPDEST POP CALLDATALOAD PUSH1 0x1 PUSH1 0x1 PUSH1 0xA0 SHL SUB AND PUSH2 0x346 JUMP JUMPDEST PUSH2 0x81 PUSH1 0x4 DUP1 CALLDATASIZE SUB PUSH1 0x40 DUP2 LT ISZERO PUSH2 0xD4 JUMPI PUSH1 0x0 DUP1 REVERT JUMPDEST PUSH1 0x1 PUSH1 0x1 PUSH1 0xA0 SHL SUB DUP3 CALLDATALOAD AND SWAP2 SWAP1 DUP2 ADD SWAP1 PUSH1 0x40 DUP2 ADD PUSH1 0x20 DUP3 ADD CALLDATALOAD PUSH5 0x100000000 DUP2 GT ISZERO PUSH2 0xFF JUMPI PUSH1 0x0 DUP1 REVERT JUMPDEST DUP3 ADD DUP4 PUSH1 0x20 DUP3 ADD GT ISZERO PUSH2 0x111 JUMPI PUSH1 0x0 DUP1 REVERT JUMPDEST DUP1 CALLDATALOAD SWAP1 PUSH1 0x20 ADD SWAP2 DUP5 PUSH1 0x1 DUP4 MUL DUP5 ADD GT PUSH5 0x100000000 DUP4 GT OR ISZERO PUSH2 0x133 JUMPI PUSH1 0x0 DUP1 REVERT JUMPDEST POP SWAP1 SWAP3 POP SWAP1 POP PUSH2 0x380 JUMP JUMPDEST CALLVALUE DUP1 ISZERO PUSH2 0x14A JUMPI PUSH1 0x0 DUP1 REVERT JUMPDEST POP PUSH2 0x153 PUSH2 0x42D JUMP JUMPDEST PUSH1 0x40 DUP1 MLOAD PUSH1 0x1 PUSH1 0x1 PUSH1 0xA0 SHL SUB SWAP1 SWAP3 AND DUP3 MSTORE MLOAD SWAP1 DUP2 SWAP1 SUB PUSH1 0x20 ADD SWAP1 RETURN JUMPDEST CALLVALUE DUP1 ISZERO PUSH2 0x17B JUMPI PUSH1 0x0 DUP1 REVERT JUMPDEST POP PUSH2 0x81 PUSH1 0x4 DUP1 CALLDATASIZE SUB PUSH1 0x20 DUP2 LT ISZERO PUSH2 0x192 JUMPI PUSH1 0x0 DUP1 REVERT JUMPDEST POP CALLDATALOAD PUSH1 0x1 PUSH1 0x1 PUSH1 0xA0 SHL SUB AND PUSH2 0x46A JUMP JUMPDEST PUSH2 0x81 PUSH1 0x4 DUP1 CALLDATASIZE SUB PUSH1 0x60 DUP2 LT ISZERO PUSH2 0x1B8 JUMPI PUSH1 0x0 DUP1 REVERT JUMPDEST PUSH1 0x1 PUSH1 0x1 PUSH1 0xA0 SHL SUB DUP3 CALLDATALOAD DUP2 AND SWAP3 PUSH1 0x20 DUP2 ADD CALLDATALOAD SWAP1 SWAP2 AND SWAP2 DUP2 ADD SWAP1 PUSH1 0x60 DUP2 ADD PUSH1 0x40 DUP3 ADD CALLDATALOAD PUSH5 0x100000000 DUP2 GT ISZERO PUSH2 0x1EC JUMPI PUSH1 0x0 DUP1 REVERT JUMPDEST DUP3 ADD DUP4 PUSH1 0x20 DUP3 ADD GT ISZERO PUSH2 0x1FE JUMPI PUSH1 0x0 DUP1 REVERT JUMPDEST DUP1 CALLDATALOAD SWAP1 PUSH1 0x20 ADD SWAP2 DUP5 PUSH1 0x1 DUP4 MUL DUP5 ADD GT PUSH5 0x100000000 DUP4 GT OR ISZERO PUSH2 0x220 JUMPI PUSH1 0x0 DUP1 REVERT JUMPDEST SWAP2 SWAP1 DUP1 DUP1 PUSH1 0x1F ADD PUSH1 0x20 DUP1 SWAP2 DIV MUL PUSH1 0x20 ADD PUSH1 0x40 MLOAD SWAP1 DUP2 ADD PUSH1 0x40 MSTORE DUP1 SWAP4 SWAP3 SWAP2 SWAP1 DUP2 DUP2 MSTORE PUSH1 0x20 ADD DUP4 DUP4 DUP1 DUP3 DUP5 CALLDATACOPY PUSH1 0x0 SWAP3 ADD SWAP2 SWAP1 SWAP2 MSTORE POP SWAP3 SWAP6 POP PUSH2 0x524 SWAP5 POP POP POP POP POP JUMP JUMPDEST PUSH2 0x81 PUSH1 0x4 DUP1 CALLDATASIZE SUB PUSH1 0x40 DUP2 LT ISZERO PUSH2 0x277 JUMPI PUSH1 0x0 DUP1 REVERT JUMPDEST PUSH1 0x1 PUSH1 0x1 PUSH1 0xA0 SHL SUB DUP3 CALLDATALOAD AND SWAP2 SWAP1 DUP2 ADD SWAP1 PUSH1 0x40 DUP2 ADD PUSH1 0x20 DUP3 ADD CALLDATALOAD PUSH5 0x100000000 DUP2 GT ISZERO PUSH2 0x2A2 JUMPI PUSH1 0x0 DUP1 REVERT JUMPDEST DUP3 ADD DUP4 PUSH1 0x20 DUP3 ADD GT ISZERO PUSH2 0x2B4 JUMPI PUSH1 0x0 DUP1 REVERT JUMPDEST DUP1 CALLDATALOAD SWAP1 PUSH1 0x20 ADD SWAP2 DUP5 PUSH1 0x1 DUP4 MUL DUP5 ADD GT PUSH5 0x100000000 DUP4 GT OR ISZERO PUSH2 0x2D6 JUMPI PUSH1 0x0 DUP1 REVERT JUMPDEST SWAP2 SWAP1 DUP1 DUP1 PUSH1 0x1F ADD PUSH1 0x20 DUP1 SWAP2 DIV MUL PUSH1 0x20 ADD PUSH1 0x40 MLOAD SWAP1 DUP2 ADD PUSH1 0x40 MSTORE DUP1 SWAP4 SWAP3 SWAP2 SWAP1 DUP2 DUP2 MSTORE PUSH1 0x20 ADD DUP4 DUP4 DUP1 DUP3 DUP5 CALLDATACOPY PUSH1 0x0 SWAP3 ADD SWAP2 SWAP1 SWAP2 MSTORE POP SWAP3 SWAP6 POP PUSH2 0x554 SWAP5 POP POP POP POP POP JUMP JUMPDEST CALLVALUE DUP1 ISZERO PUSH2 0x323 JUMPI PUSH1 0x0 DUP1 REVERT JUMPDEST POP PUSH2 0x153 PUSH2 0x634 JUMP JUMPDEST PUSH2 0x334 PUSH2 0x65F JUMP JUMPDEST PUSH2 0x344 PUSH2 0x33F PUSH2 0x667 JUMP JUMPDEST PUSH2 0x68C JUMP JUMPDEST JUMP JUMPDEST PUSH2 0x34E PUSH2 0x6B0 JUMP JUMPDEST PUSH1 0x1 PUSH1 0x1 PUSH1 0xA0 SHL SUB AND CALLER PUSH1 0x1 PUSH1 0x1 PUSH1 0xA0 SHL SUB AND EQ ISZERO PUSH2 0x375 JUMPI PUSH2 0x370 DUP2 PUSH2 0x6D5 JUMP JUMPDEST PUSH2 0x37D JUMP JUMPDEST PUSH2 0x37D PUSH2 0x32C JUMP JUMPDEST POP JUMP JUMPDEST PUSH2 0x388 PUSH2 0x6B0 JUMP JUMPDEST PUSH1 0x1 PUSH1 0x1 PUSH1 0xA0 SHL SUB AND CALLER PUSH1 0x1 PUSH1 0x1 PUSH1 0xA0 SHL SUB AND EQ ISZERO PUSH2 0x420 JUMPI PUSH2 0x3AA DUP4 PUSH2 0x6D5 JUMP JUMPDEST PUSH1 0x0 DUP4 PUSH1 0x1 PUSH1 0x1 PUSH1 0xA0 SHL SUB AND DUP4 DUP4 PUSH1 0x40 MLOAD DUP1 DUP4 DUP4 DUP1 DUP3 DUP5 CALLDATACOPY PUSH1 0x40 MLOAD SWAP3 ADD SWAP5 POP PUSH1 0x0 SWAP4 POP SWAP1 SWAP2 POP POP DUP1 DUP4 SUB DUP2 DUP6 GAS DELEGATECALL SWAP2 POP POP RETURNDATASIZE DUP1 PUSH1 0x0 DUP2 EQ PUSH2 0x407 JUMPI PUSH1 0x40 MLOAD SWAP2 POP PUSH1 0x1F NOT PUSH1 0x3F RETURNDATASIZE ADD AND DUP3 ADD PUSH1 0x40 MSTORE RETURNDATASIZE DUP3 MSTORE RETURNDATASIZE PUSH1 0x0 PUSH1 0x20 DUP5 ADD RETURNDATACOPY PUSH2 0x40C JUMP JUMPDEST PUSH1 0x60 SWAP2 POP JUMPDEST POP POP SWAP1 POP DUP1 PUSH2 0x41A JUMPI PUSH1 0x0 DUP1 REVERT JUMPDEST POP PUSH2 0x428 JUMP JUMPDEST PUSH2 0x428 PUSH2 0x32C JUMP JUMPDEST POP POP POP JUMP JUMPDEST PUSH1 0x0 PUSH2 0x437 PUSH2 0x6B0 JUMP JUMPDEST PUSH1 0x1 PUSH1 0x1 PUSH1 0xA0 SHL SUB AND CALLER PUSH1 0x1 PUSH1 0x1 PUSH1 0xA0 SHL SUB AND EQ ISZERO PUSH2 0x45F JUMPI PUSH2 0x458 PUSH2 0x667 JUMP JUMPDEST SWAP1 POP PUSH2 0x467 JUMP JUMPDEST PUSH2 0x467 PUSH2 0x32C JUMP JUMPDEST SWAP1 JUMP JUMPDEST PUSH2 0x472 PUSH2 0x6B0 JUMP JUMPDEST PUSH1 0x1 PUSH1 0x1 PUSH1 0xA0 SHL SUB AND CALLER PUSH1 0x1 PUSH1 0x1 PUSH1 0xA0 SHL SUB AND EQ ISZERO PUSH2 0x375 JUMPI PUSH1 0x1 PUSH1 0x1 PUSH1 0xA0 SHL SUB DUP2 AND PUSH2 0x4D0 JUMPI PUSH1 0x40 MLOAD PUSH3 0x461BCD PUSH1 0xE5 SHL DUP2 MSTORE PUSH1 0x4 ADD DUP1 DUP1 PUSH1 0x20 ADD DUP3 DUP2 SUB DUP3 MSTORE PUSH1 0x36 DUP2 MSTORE PUSH1 0x20 ADD DUP1 PUSH2 0x83A PUSH1 0x36 SWAP2 CODECOPY PUSH1 0x40 ADD SWAP2 POP POP PUSH1 0x40 MLOAD DUP1 SWAP2 SUB SWAP1 REVERT JUMPDEST PUSH32 0x7E644D79422F17C01E4894B5F4F588D331EBFA28653D42AE832DC59E38C9798F PUSH2 0x4F9 PUSH2 0x6B0 JUMP JUMPDEST PUSH1 0x40 DUP1 MLOAD PUSH1 0x1 PUSH1 0x1 PUSH1 0xA0 SHL SUB SWAP3 DUP4 AND DUP2 MSTORE SWAP2 DUP5 AND PUSH1 0x20 DUP4 ADD MSTORE DUP1 MLOAD SWAP2 DUP3 SWAP1 SUB ADD SWAP1 LOG1 PUSH2 0x370 DUP2 PUSH2 0x715 JUMP JUMPDEST PUSH1 0x0 PUSH2 0x52E PUSH2 0x667 JUMP JUMPDEST PUSH1 0x1 PUSH1 0x1 PUSH1 0xA0 SHL SUB AND EQ PUSH2 0x541 JUMPI PUSH1 0x0 DUP1 REVERT JUMPDEST PUSH2 0x54B DUP4 DUP3 PUSH2 0x554 JUMP JUMPDEST PUSH2 0x428 DUP3 PUSH2 0x715 JUMP JUMPDEST PUSH1 0x0 PUSH2 0x55E PUSH2 0x667 JUMP JUMPDEST PUSH1 0x1 PUSH1 0x1 PUSH1 0xA0 SHL SUB AND EQ PUSH2 0x571 JUMPI PUSH1 0x0 DUP1 REVERT JUMPDEST PUSH2 0x57A DUP3 PUSH2 0x739 JUMP JUMPDEST DUP1 MLOAD ISZERO PUSH2 0x630 JUMPI PUSH1 0x0 DUP3 PUSH1 0x1 PUSH1 0x1 PUSH1 0xA0 SHL SUB AND DUP3 PUSH1 0x40 MLOAD DUP1 DUP3 DUP1 MLOAD SWAP1 PUSH1 0x20 ADD SWAP1 DUP1 DUP4 DUP4 JUMPDEST PUSH1 0x20 DUP4 LT PUSH2 0x5BD JUMPI DUP1 MLOAD DUP3 MSTORE PUSH1 0x1F NOT SWAP1 SWAP3 ADD SWAP2 PUSH1 0x20 SWAP2 DUP3 ADD SWAP2 ADD PUSH2 0x59E JUMP JUMPDEST PUSH1 0x1 DUP4 PUSH1 0x20 SUB PUSH2 0x100 EXP SUB DUP1 NOT DUP3 MLOAD AND DUP2 DUP5 MLOAD AND DUP1 DUP3 OR DUP6 MSTORE POP POP POP POP POP POP SWAP1 POP ADD SWAP2 POP POP PUSH1 0x0 PUSH1 0x40 MLOAD DUP1 DUP4 SUB DUP2 DUP6 GAS DELEGATECALL SWAP2 POP POP RETURNDATASIZE DUP1 PUSH1 0x0 DUP2 EQ PUSH2 0x61D JUMPI PUSH1 0x40 MLOAD SWAP2 POP PUSH1 0x1F NOT PUSH1 0x3F RETURNDATASIZE ADD AND DUP3 ADD PUSH1 0x40 MSTORE RETURNDATASIZE DUP3 MSTORE RETURNDATASIZE PUSH1 0x0 PUSH1 0x20 DUP5 ADD RETURNDATACOPY PUSH2 0x622 JUMP JUMPDEST PUSH1 0x60 SWAP2 POP JUMPDEST POP POP SWAP1 POP DUP1 PUSH2 0x428 JUMPI PUSH1 0x0 DUP1 REVERT JUMPDEST POP POP JUMP JUMPDEST PUSH1 0x0 PUSH2 0x63E PUSH2 0x6B0 JUMP JUMPDEST PUSH1 0x1 PUSH1 0x1 PUSH1 0xA0 SHL SUB AND CALLER PUSH1 0x1 PUSH1 0x1 PUSH1 0xA0 SHL SUB AND EQ ISZERO PUSH2 0x45F JUMPI PUSH2 0x458 PUSH2 0x6B0 JUMP JUMPDEST PUSH2 0x344 PUSH2 0x7A1 JUMP JUMPDEST PUSH32 0x360894A13BA1A3210667C828492DB98DCA3E2076CC3735A920A3CA505D382BBC SLOAD SWAP1 JUMP JUMPDEST CALLDATASIZE PUSH1 0x0 DUP1 CALLDATACOPY PUSH1 0x0 DUP1 CALLDATASIZE PUSH1 0x0 DUP5 GAS DELEGATECALL RETURNDATASIZE PUSH1 0x0 DUP1 RETURNDATACOPY DUP1 DUP1 ISZERO PUSH2 0x6AB JUMPI RETURNDATASIZE PUSH1 0x0 RETURN JUMPDEST RETURNDATASIZE PUSH1 0x0 REVERT JUMPDEST PUSH32 0xB53127684A568B3173AE13B9F8A6016E243E63B6E8EE1178D6A717850B5D6103 SLOAD SWAP1 JUMP JUMPDEST PUSH2 0x6DE DUP2 PUSH2 0x739 JUMP JUMPDEST PUSH1 0x40 MLOAD PUSH1 0x1 PUSH1 0x1 PUSH1 0xA0 SHL SUB DUP3 AND SWAP1 PUSH32 0xBC7CD75A20EE27FD9ADEBAB32041F755214DBC6BFFA90CC0225B39DA2E5C2D3B SWAP1 PUSH1 0x0 SWAP1 LOG2 POP JUMP JUMPDEST PUSH32 0xB53127684A568B3173AE13B9F8A6016E243E63B6E8EE1178D6A717850B5D6103 SSTORE JUMP JUMPDEST PUSH2 0x742 DUP2 PUSH2 0x801 JUMP JUMPDEST PUSH2 0x77D JUMPI PUSH1 0x40 MLOAD PUSH3 0x461BCD PUSH1 0xE5 SHL DUP2 MSTORE PUSH1 0x4 ADD DUP1 DUP1 PUSH1 0x20 ADD DUP3 DUP2 SUB DUP3 MSTORE PUSH1 0x3B DUP2 MSTORE PUSH1 0x20 ADD DUP1 PUSH2 0x870 PUSH1 0x3B SWAP2 CODECOPY PUSH1 0x40 ADD SWAP2 POP POP PUSH1 0x40 MLOAD DUP1 SWAP2 SUB SWAP1 REVERT JUMPDEST PUSH32 0x360894A13BA1A3210667C828492DB98DCA3E2076CC3735A920A3CA505D382BBC SSTORE JUMP JUMPDEST PUSH2 0x7A9 PUSH2 0x6B0 JUMP JUMPDEST PUSH1 0x1 PUSH1 0x1 PUSH1 0xA0 SHL SUB AND CALLER PUSH1 0x1 PUSH1 0x1 PUSH1 0xA0 SHL SUB AND EQ ISZERO PUSH2 0x7F9 JUMPI PUSH1 0x40 MLOAD PUSH3 0x461BCD PUSH1 0xE5 SHL DUP2 MSTORE PUSH1 0x4 ADD DUP1 DUP1 PUSH1 0x20 ADD DUP3 DUP2 SUB DUP3 MSTORE PUSH1 0x32 DUP2 MSTORE PUSH1 0x20 ADD DUP1 PUSH2 0x808 PUSH1 0x32 SWAP2 CODECOPY PUSH1 0x40 ADD SWAP2 POP POP PUSH1 0x40 MLOAD DUP1 SWAP2 SUB SWAP1 REVERT JUMPDEST PUSH2 0x344 PUSH2 0x344 JUMP JUMPDEST EXTCODESIZE ISZERO ISZERO SWAP1 JUMP INVALID NUMBER PUSH2 0x6E6E PUSH16 0x742063616C6C2066616C6C6261636B20 PUSH7 0x756E6374696F6E KECCAK256 PUSH7 0x726F6D20746865 KECCAK256 PUSH17 0x726F78792061646D696E43616E6E6F7420 PUSH4 0x68616E67 PUSH6 0x207468652061 PUSH5 0x6D696E206F PUSH7 0x20612070726F78 PUSH26 0x20746F20746865207A65726F206164647265737343616E6E6F74 KECCAK256 PUSH20 0x657420612070726F787920696D706C656D656E74 PUSH2 0x7469 PUSH16 0x6E20746F2061206E6F6E2D636F6E7472 PUSH2 0x6374 KECCAK256 PUSH2 0x6464 PUSH19 0x657373A2646970667358221220DAD46C9A146F 0xC LOG2 SLT 0xD8 EXTCODESIZE PUSH31 0x6968AE3F14BFF3E304DF280695768285B004659164736F6C63430007000033 SLOAD PUSH9 0x652063616C6C657220 PUSH14 0x7573742062652074686520534947 0x48 KECCAK256 CHAINID 0x49 0x4E COINBASE 0x4E NUMBER GASLIMIT KECCAK256 0x4D PUSH2 0x6E61 PUSH8 0x657250454E44494E SELFBALANCE 0x5F 0x4C GASLIMIT 0x4E DIFFICULTY 0x49 0x4E SELFBALANCE 0x5F POP 0x4F 0x4F 0x4C 0x5F 0x4D COINBASE 0x4E COINBASE SELFBALANCE GASLIMIT MSTORE STOP STOP STOP STOP 0x4F PUSH15 0x6C79207468652050656E64696E6720 MSTORE8 0x49 SELFBALANCE 0x48 KECCAK256 CHAINID PUSH10 0x6E616E6365204D616E61 PUSH8 0x65722063616E2063 PUSH2 0x6C6C KECCAK256 PUSH21 0x6869732066756E6374696F6E20746F206265206163 PUSH4 0x65707465 PUSH5 0x20746F2062 PUSH6 0x636F6D652074 PUSH9 0x652053494748204669 PUSH15 0x616E6365204D616E616765724F6E6C PUSH26 0x207468652050656E64696E67204C656E64696E6720506F6F6C20 0x4D PUSH2 0x6E61 PUSH8 0x65722063616E2063 PUSH2 0x6C6C KECCAK256 PUSH21 0x6869732066756E6374696F6E20746F206265206163 PUSH4 0x65707465 PUSH5 0x20746F2062 PUSH6 0x636F6D652074 PUSH9 0x65204C656E64696E67 KECCAK256 POP PUSH16 0x6F6C204D616E61676572534947485F46 0x49 0x4E COINBASE 0x4E NUMBER GASLIMIT 0x5F 0x4D COINBASE 0x4E COINBASE SELFBALANCE GASLIMIT MSTORE STOP STOP STOP STOP STOP STOP STOP STOP STOP STOP STOP STOP POP GASLIMIT 0x4E DIFFICULTY 0x49 0x4E SELFBALANCE 0x5F MSTORE8 0x49 SELFBALANCE 0x48 0x5F CHAINID 0x49 0x4E COINBASE 0x4E NUMBER GASLIMIT 0x5F 0x4D COINBASE 0x4E COINBASE SELFBALANCE GASLIMIT MSTORE STOP STOP STOP STOP SLOAD PUSH9 0x652063616C6C657220 PUSH14 0x75737420626520746865204C656E PUSH5 0x696E672050 PUSH19 0x6F746F636F6C204D616E616765724C454E4449 0x4E SELFBALANCE 0x5F POP 0x4F 0x4F 0x4C 0x5F 0x4D COINBASE 0x4E COINBASE SELFBALANCE GASLIMIT MSTORE STOP STOP STOP STOP STOP STOP STOP STOP STOP STOP STOP STOP LOG2 PUSH5 0x6970667358 0x22 SLT KECCAK256 0xA9 GT 0xD6 DUP13 PUSH31 0x587C5FF89746F209012F9A1FB9A0BC5BADB8E4ED0936FBD8D1A0EA64736F6C PUSH4 0x43000700 STOP CALLER "
		},
		"gasEstimates": {
			"creation": {
				"codeDepositCost": "1870200",
				"executionCost": "infinite",
				"totalCost": "infinite"
			},
			"external": {
				"acceptLendingPoolManager()": "infinite",
				"acceptSIGHFinanceManager()": "infinite",
				"getAddress(bytes32)": "1238",
				"getFeeProvider()": "1260",
				"getLendingPool()": "1197",
				"getLendingPoolConfigurator()": "1239",
				"getLendingPoolLiquidationManager()": "1283",
				"getLendingPoolManager()": "infinite",
				"getLendingRateOracle()": "1262",
				"getPendingLendingPoolManager()": "infinite",
				"getPendingSIGHFinanceManager()": "infinite",
				"getPriceOracle()": "1282",
				"getSIGHAddress()": "1217",
				"getSIGHFinanceConfigurator()": "1216",
				"getSIGHFinanceFeeCollector()": "1190",
				"getSIGHFinanceManager()": "infinite",
				"getSIGHNFTBoosters()": "1241",
				"getSIGHPAYAggregator()": "1257",
				"getSIGHSpeedController()": "1283",
				"getSIGHStaking()": "1207",
				"getSIGHTreasury()": "1196",
				"getSIGHVolatilityHarvester()": "1194",
				"setFeeProviderImpl(address)": "infinite",
				"setLendingPoolConfiguratorImpl(address)": "infinite",
				"setLendingPoolImpl(address)": "infinite",
				"setLendingPoolLiquidationManager(address)": "infinite",
				"setLendingRateOracle(address)": "infinite",
				"setPendingLendingPoolManager(address)": "infinite",
				"setPendingSIGHFinanceManager(address)": "infinite",
				"setPriceOracle(address)": "infinite",
				"setSIGHAddress(address)": "infinite",
				"setSIGHFinanceConfiguratorImpl(address)": "infinite",
				"setSIGHFinanceFeeCollector(address)": "infinite",
				"setSIGHNFTBoosters(address)": "infinite",
				"setSIGHPAYAggregator(address)": "infinite",
				"setSIGHSpeedController(address)": "infinite",
				"setSIGHStaking(address)": "infinite",
				"setSIGHTreasuryImpl(address)": "infinite",
				"setSIGHVolatilityHarvesterImpl(address)": "infinite"
			},
			"internal": {
				"updateImplInternal(bytes32,address)": "infinite"
			}
		},
		"methodIdentifiers": {
			"acceptLendingPoolManager()": "7725c7bf",
			"acceptSIGHFinanceManager()": "2e07f25d",
			"getAddress(bytes32)": "21f8a721",
			"getFeeProvider()": "fbeefc3c",
			"getLendingPool()": "0261bf8b",
			"getLendingPoolConfigurator()": "85c858b1",
			"getLendingPoolLiquidationManager()": "5834eb9a",
			"getLendingPoolManager()": "33128d59",
			"getLendingRateOracle()": "3618abba",
			"getPendingLendingPoolManager()": "2e7bac46",
			"getPendingSIGHFinanceManager()": "c145d058",
			"getPriceOracle()": "fca513a8",
			"getSIGHAddress()": "841aa40c",
			"getSIGHFinanceConfigurator()": "db49224b",
			"getSIGHFinanceFeeCollector()": "145d02f0",
			"getSIGHFinanceManager()": "87854354",
			"getSIGHNFTBoosters()": "0a807e4f",
			"getSIGHPAYAggregator()": "10ea16eb",
			"getSIGHSpeedController()": "ab3802cb",
			"getSIGHStaking()": "1db4f569",
			"getSIGHTreasury()": "59e6130c",
			"getSIGHVolatilityHarvester()": "d72e2802",
			"setFeeProviderImpl(address)": "2a62c636",
			"setLendingPoolConfiguratorImpl(address)": "c12542df",
			"setLendingPoolImpl(address)": "5aef021f",
			"setLendingPoolLiquidationManager(address)": "44ce375b",
			"setLendingRateOracle(address)": "820d1274",
			"setPendingLendingPoolManager(address)": "0904ac73",
			"setPendingSIGHFinanceManager(address)": "42d419bf",
			"setPriceOracle(address)": "530e784f",
			"setSIGHAddress(address)": "723130ac",
			"setSIGHFinanceConfiguratorImpl(address)": "832b705a",
			"setSIGHFinanceFeeCollector(address)": "39c06e28",
			"setSIGHNFTBoosters(address)": "bc9e42ae",
			"setSIGHPAYAggregator(address)": "f8644cc2",
			"setSIGHSpeedController(address)": "d557d56d",
			"setSIGHStaking(address)": "343c1596",
			"setSIGHTreasuryImpl(address)": "c5b3f337",
			"setSIGHVolatilityHarvesterImpl(address)": "39ac577e"
		}
	},
	"abi": [
		{
			"inputs": [
				{
					"internalType": "address",
					"name": "SIGHFinanceManagerAddress",
					"type": "address"
				},
				{
					"internalType": "address",
					"name": "LendingPoolManagerAddress",
					"type": "address"
				}
			],
			"stateMutability": "nonpayable",
			"type": "constructor"
		},
		{
			"anonymous": false,
			"inputs": [
				{
					"indexed": true,
					"internalType": "address",
					"name": "newAddress",
					"type": "address"
				}
			],
			"name": "FeeProviderUpdated",
			"type": "event"
		},
		{
			"anonymous": false,
			"inputs": [
				{
					"indexed": true,
					"internalType": "address",
					"name": "newAddress",
					"type": "address"
				}
			],
			"name": "LendingPoolConfiguratorUpdated",
			"type": "event"
		},
		{
			"anonymous": false,
			"inputs": [
				{
					"indexed": true,
					"internalType": "address",
					"name": "newAddress",
					"type": "address"
				}
			],
			"name": "LendingPoolLiquidationManagerUpdated",
			"type": "event"
		},
		{
			"anonymous": false,
			"inputs": [
				{
					"indexed": false,
					"internalType": "address",
					"name": "_lendingPoolManager",
					"type": "address"
				}
			],
			"name": "LendingPoolManagerUpdated",
			"type": "event"
		},
		{
			"anonymous": false,
			"inputs": [
				{
					"indexed": true,
					"internalType": "address",
					"name": "newAddress",
					"type": "address"
				}
			],
			"name": "LendingPoolUpdated",
			"type": "event"
		},
		{
			"anonymous": false,
			"inputs": [
				{
					"indexed": true,
					"internalType": "address",
					"name": "newAddress",
					"type": "address"
				}
			],
			"name": "LendingRateOracleUpdated",
			"type": "event"
		},
		{
			"anonymous": false,
			"inputs": [
				{
					"indexed": false,
					"internalType": "address",
					"name": "_pendingLendingPoolManager",
					"type": "address"
				}
			],
			"name": "PendingLendingPoolManagerUpdated",
			"type": "event"
		},
		{
			"anonymous": false,
			"inputs": [
				{
					"indexed": false,
					"internalType": "address",
					"name": "_pendingSighFinanceManager",
					"type": "address"
				}
			],
			"name": "PendingSIGHFinanceManagerUpdated",
			"type": "event"
		},
		{
			"anonymous": false,
			"inputs": [
				{
					"indexed": true,
					"internalType": "address",
					"name": "newAddress",
					"type": "address"
				}
			],
			"name": "PriceOracleUpdated",
			"type": "event"
		},
		{
			"anonymous": false,
			"inputs": [
				{
					"indexed": false,
					"internalType": "bytes32",
					"name": "id",
					"type": "bytes32"
				},
				{
					"indexed": true,
					"internalType": "address",
					"name": "newAddress",
					"type": "address"
				}
			],
			"name": "ProxyCreated",
			"type": "event"
		},
		{
			"anonymous": false,
			"inputs": [
				{
					"indexed": true,
					"internalType": "address",
					"name": "sighAddress",
					"type": "address"
				}
			],
			"name": "SIGHAddressUpdated",
			"type": "event"
		},
		{
			"anonymous": false,
			"inputs": [
				{
					"indexed": true,
					"internalType": "address",
					"name": "sighFinanceConfigAddress",
					"type": "address"
				}
			],
			"name": "SIGHFinanceConfiguratorUpdated",
			"type": "event"
		},
		{
			"anonymous": false,
			"inputs": [
				{
					"indexed": true,
					"internalType": "address",
					"name": "newAddress",
					"type": "address"
				}
			],
			"name": "SIGHFinanceFeeCollectorUpdated",
			"type": "event"
		},
		{
			"anonymous": false,
			"inputs": [
				{
					"indexed": false,
					"internalType": "address",
					"name": "_sighFinanceManager",
					"type": "address"
				}
			],
			"name": "SIGHFinanceManagerUpdated",
			"type": "event"
		},
		{
			"anonymous": false,
			"inputs": [
				{
					"indexed": true,
					"internalType": "address",
					"name": "newAddress",
					"type": "address"
				}
			],
			"name": "SIGHFinanceSIGHPAYAggregatorUpdated",
			"type": "event"
		},
		{
			"anonymous": false,
			"inputs": [
				{
					"indexed": true,
					"internalType": "address",
					"name": "boosterAddress",
					"type": "address"
				}
			],
			"name": "SIGHNFTBoosterUpdated",
			"type": "event"
		},
		{
			"anonymous": false,
			"inputs": [
				{
					"indexed": true,
					"internalType": "address",
					"name": "speedControllerAddress",
					"type": "address"
				}
			],
			"name": "SIGHSpeedControllerUpdated",
			"type": "event"
		},
		{
			"anonymous": false,
			"inputs": [
				{
					"indexed": true,
					"internalType": "address",
					"name": "SIGHStakingAddress",
					"type": "address"
				}
			],
			"name": "SIGHStakingImplUpdated",
			"type": "event"
		},
		{
			"anonymous": false,
			"inputs": [
				{
					"indexed": true,
					"internalType": "address",
					"name": "newAddress",
					"type": "address"
				}
			],
			"name": "SIGHTreasuryImplUpdated",
			"type": "event"
		},
		{
			"anonymous": false,
			"inputs": [
				{
					"indexed": true,
					"internalType": "address",
					"name": "newAddress",
					"type": "address"
				}
			],
			"name": "SIGHVolatilityHarvesterImplUpdated",
			"type": "event"
		},
		{
			"inputs": [],
			"name": "acceptLendingPoolManager",
			"outputs": [],
			"stateMutability": "nonpayable",
			"type": "function"
		},
		{
			"inputs": [],
			"name": "acceptSIGHFinanceManager",
			"outputs": [],
			"stateMutability": "nonpayable",
			"type": "function"
		},
		{
			"inputs": [
				{
					"internalType": "bytes32",
					"name": "_key",
					"type": "bytes32"
				}
			],
			"name": "getAddress",
			"outputs": [
				{
					"internalType": "address",
					"name": "",
					"type": "address"
				}
			],
			"stateMutability": "view",
			"type": "function"
		},
		{
			"inputs": [],
			"name": "getFeeProvider",
			"outputs": [
				{
					"internalType": "address",
					"name": "",
					"type": "address"
				}
			],
			"stateMutability": "view",
			"type": "function"
		},
		{
			"inputs": [],
			"name": "getLendingPool",
			"outputs": [
				{
					"internalType": "address",
					"name": "",
					"type": "address"
				}
			],
			"stateMutability": "view",
			"type": "function"
		},
		{
			"inputs": [],
			"name": "getLendingPoolConfigurator",
			"outputs": [
				{
					"internalType": "address",
					"name": "",
					"type": "address"
				}
			],
			"stateMutability": "view",
			"type": "function"
		},
		{
			"inputs": [],
			"name": "getLendingPoolLiquidationManager",
			"outputs": [
				{
					"internalType": "address",
					"name": "",
					"type": "address"
				}
			],
			"stateMutability": "view",
			"type": "function"
		},
		{
			"inputs": [],
			"name": "getLendingPoolManager",
			"outputs": [
				{
					"internalType": "address",
					"name": "",
					"type": "address"
				}
			],
			"stateMutability": "view",
			"type": "function"
		},
		{
			"inputs": [],
			"name": "getLendingRateOracle",
			"outputs": [
				{
					"internalType": "address",
					"name": "",
					"type": "address"
				}
			],
			"stateMutability": "view",
			"type": "function"
		},
		{
			"inputs": [],
			"name": "getPendingLendingPoolManager",
			"outputs": [
				{
					"internalType": "address",
					"name": "",
					"type": "address"
				}
			],
			"stateMutability": "view",
			"type": "function"
		},
		{
			"inputs": [],
			"name": "getPendingSIGHFinanceManager",
			"outputs": [
				{
					"internalType": "address",
					"name": "",
					"type": "address"
				}
			],
			"stateMutability": "view",
			"type": "function"
		},
		{
			"inputs": [],
			"name": "getPriceOracle",
			"outputs": [
				{
					"internalType": "address",
					"name": "",
					"type": "address"
				}
			],
			"stateMutability": "view",
			"type": "function"
		},
		{
			"inputs": [],
			"name": "getSIGHAddress",
			"outputs": [
				{
					"internalType": "address",
					"name": "",
					"type": "address"
				}
			],
			"stateMutability": "view",
			"type": "function"
		},
		{
			"inputs": [],
			"name": "getSIGHFinanceConfigurator",
			"outputs": [
				{
					"internalType": "address",
					"name": "",
					"type": "address"
				}
			],
			"stateMutability": "view",
			"type": "function"
		},
		{
			"inputs": [],
			"name": "getSIGHFinanceFeeCollector",
			"outputs": [
				{
					"internalType": "address",
					"name": "",
					"type": "address"
				}
			],
			"stateMutability": "view",
			"type": "function"
		},
		{
			"inputs": [],
			"name": "getSIGHFinanceManager",
			"outputs": [
				{
					"internalType": "address",
					"name": "",
					"type": "address"
				}
			],
			"stateMutability": "view",
			"type": "function"
		},
		{
			"inputs": [],
			"name": "getSIGHNFTBoosters",
			"outputs": [
				{
					"internalType": "address",
					"name": "",
					"type": "address"
				}
			],
			"stateMutability": "view",
			"type": "function"
		},
		{
			"inputs": [],
			"name": "getSIGHPAYAggregator",
			"outputs": [
				{
					"internalType": "address",
					"name": "",
					"type": "address"
				}
			],
			"stateMutability": "view",
			"type": "function"
		},
		{
			"inputs": [],
			"name": "getSIGHSpeedController",
			"outputs": [
				{
					"internalType": "address",
					"name": "",
					"type": "address"
				}
			],
			"stateMutability": "view",
			"type": "function"
		},
		{
			"inputs": [],
			"name": "getSIGHStaking",
			"outputs": [
				{
					"internalType": "address",
					"name": "",
					"type": "address"
				}
			],
			"stateMutability": "view",
			"type": "function"
		},
		{
			"inputs": [],
			"name": "getSIGHTreasury",
			"outputs": [
				{
					"internalType": "address",
					"name": "",
					"type": "address"
				}
			],
			"stateMutability": "view",
			"type": "function"
		},
		{
			"inputs": [],
			"name": "getSIGHVolatilityHarvester",
			"outputs": [
				{
					"internalType": "address",
					"name": "",
					"type": "address"
				}
			],
			"stateMutability": "view",
			"type": "function"
		},
		{
			"inputs": [
				{
					"internalType": "address",
					"name": "_feeProvider",
					"type": "address"
				}
			],
			"name": "setFeeProviderImpl",
			"outputs": [],
			"stateMutability": "nonpayable",
			"type": "function"
		},
		{
			"inputs": [
				{
					"internalType": "address",
					"name": "_configurator",
					"type": "address"
				}
			],
			"name": "setLendingPoolConfiguratorImpl",
			"outputs": [],
			"stateMutability": "nonpayable",
			"type": "function"
		},
		{
			"inputs": [
				{
					"internalType": "address",
					"name": "_pool",
					"type": "address"
				}
			],
			"name": "setLendingPoolImpl",
			"outputs": [],
			"stateMutability": "nonpayable",
			"type": "function"
		},
		{
			"inputs": [
				{
					"internalType": "address",
					"name": "_manager",
					"type": "address"
				}
			],
			"name": "setLendingPoolLiquidationManager",
			"outputs": [],
			"stateMutability": "nonpayable",
			"type": "function"
		},
		{
			"inputs": [
				{
					"internalType": "address",
					"name": "_lendingRateOracle",
					"type": "address"
				}
			],
			"name": "setLendingRateOracle",
			"outputs": [],
			"stateMutability": "nonpayable",
			"type": "function"
		},
		{
			"inputs": [
				{
					"internalType": "address",
					"name": "_pendinglendingPoolManager",
					"type": "address"
				}
			],
			"name": "setPendingLendingPoolManager",
			"outputs": [],
			"stateMutability": "nonpayable",
			"type": "function"
		},
		{
			"inputs": [
				{
					"internalType": "address",
					"name": "_PendingSIGHFinanceManager",
					"type": "address"
				}
			],
			"name": "setPendingSIGHFinanceManager",
			"outputs": [],
			"stateMutability": "nonpayable",
			"type": "function"
		},
		{
			"inputs": [
				{
					"internalType": "address",
					"name": "_priceOracle",
					"type": "address"
				}
			],
			"name": "setPriceOracle",
			"outputs": [],
			"stateMutability": "nonpayable",
			"type": "function"
		},
		{
			"inputs": [
				{
					"internalType": "address",
					"name": "sighAddress",
					"type": "address"
				}
			],
			"name": "setSIGHAddress",
			"outputs": [],
			"stateMutability": "nonpayable",
			"type": "function"
		},
		{
			"inputs": [
				{
					"internalType": "address",
					"name": "_configurator",
					"type": "address"
				}
			],
			"name": "setSIGHFinanceConfiguratorImpl",
			"outputs": [],
			"stateMutability": "nonpayable",
			"type": "function"
		},
		{
			"inputs": [
				{
					"internalType": "address",
					"name": "_feeCollector",
					"type": "address"
				}
			],
			"name": "setSIGHFinanceFeeCollector",
			"outputs": [],
			"stateMutability": "nonpayable",
			"type": "function"
		},
		{
			"inputs": [
				{
					"internalType": "address",
					"name": "_SIGHNFTBooster",
					"type": "address"
				}
			],
			"name": "setSIGHNFTBoosters",
			"outputs": [],
			"stateMutability": "nonpayable",
			"type": "function"
		},
		{
			"inputs": [
				{
					"internalType": "address",
					"name": "_SIGHPAYAggregator",
					"type": "address"
				}
			],
			"name": "setSIGHPAYAggregator",
			"outputs": [],
			"stateMutability": "nonpayable",
			"type": "function"
		},
		{
			"inputs": [
				{
					"internalType": "address",
					"name": "_SIGHSpeedController",
					"type": "address"
				}
			],
			"name": "setSIGHSpeedController",
			"outputs": [],
			"stateMutability": "nonpayable",
			"type": "function"
		},
		{
			"inputs": [
				{
					"internalType": "address",
					"name": "_SIGHStaking",
					"type": "address"
				}
			],
			"name": "setSIGHStaking",
			"outputs": [],
			"stateMutability": "nonpayable",
			"type": "function"
		},
		{
			"inputs": [
				{
					"internalType": "address",
					"name": "_SIGHTreasury",
					"type": "address"
				}
			],
			"name": "setSIGHTreasuryImpl",
			"outputs": [],
			"stateMutability": "nonpayable",
			"type": "function"
		},
		{
			"inputs": [
				{
					"internalType": "address",
					"name": "_SIGHVolatilityHarvester",
					"type": "address"
				}
			],
			"name": "setSIGHVolatilityHarvesterImpl",
			"outputs": [],
			"stateMutability": "nonpayable",
			"type": "function"
		}
	]
}