{
	"data": {
		"bytecode": {
			"linkReferences": {},
			"object": "61018060405234801561001157600080fd5b50604051610e08380380610e08833981810160405260e081101561003457600080fd5b5080516020808301516040840151606085015160808087015160a088015160c0909801519185905295969395929491939161008e90879061007c9061070c6100c3821b17901c565b6100d360201b61071c1790919060201c565b60a05260609690961b6001600160601b03191660c05260e09390935261010091909152610120526101405250610160526101b9565b6b033b2e3c9fd0803ce800000090565b600061011b83836040518060400160405280601e81526020017f536166654d6174683a207375627472616374696f6e206f766572666c6f77000081525061012260201b60201c565b9392505050565b600081848411156101b15760405162461bcd60e51b81526004018080602001828103825283818151815260200191508051906020019080838360005b8381101561017657818101518382015260200161015e565b50505050905090810190601f1680156101a35780820380516001836020036101000a031916815260200191505b509250505060405180910390fd5b505050900390565b60805160a05160c05160601c60e05161010051610120516101405161016051610b9a61026e6000398061046852806106ea52508061017d528061049852806105755250806101c5528061021252806104c95250806101e95280610257528061051452806105d752508061023652806104f352806105fd52806106a25250806102e252806106c65250806101a1528061040f5250806103e25280610434528061054f52806105b2528061067e5250610b9a6000f3fe608060405234801561001057600080fd5b506004361061009e5760003560e01c80639584df28116100665780639584df28146100dd578063a15f30ac1461013f578063b258954414610147578063c72c4d101461014f578063ccab01a3146101735761009e565b80630bdf953f146100a357806317319873146100bd57806365614f81146100c55780637b832f58146100cd57806380031e37146100d5575b600080fd5b6100ab61017b565b60408051918252519081900360200190f35b6100ab61019f565b6100ab6101c3565b6100ab6101e7565b6100ab61020b565b610121600480360360c08110156100f357600080fd5b506001600160a01b038135169060208101359060408101359060608101359060808101359060a00135610286565b60408051938452602084019290925282820152519081900360600190f35b6100ab61067c565b6100ab6106a0565b6101576106c4565b604080516001600160a01b039092168252519081900360200190f35b6100ab6106e8565b7f000000000000000000000000000000000000000000000000000000000000000090565b7f000000000000000000000000000000000000000000000000000000000000000081565b7f000000000000000000000000000000000000000000000000000000000000000090565b7f000000000000000000000000000000000000000000000000000000000000000090565b60006102817f000000000000000000000000000000000000000000000000000000000000000061027b7f00000000000000000000000000000000000000000000000000000000000000007f0000000000000000000000000000000000000000000000000000000000000000610767565b90610767565b905090565b6000806000610293610b0f565b61029d8888610767565b808252600060208301819052604083018190526060830181905290156102db5781516102d6906102ce908c90610767565b8351906107c1565b6102de565b60005b90507f00000000000000000000000000000000000000000000000000000000000000006001600160a01b0316633618abba6040518163ffffffff1660e01b815260040160206040518083038186803b15801561033957600080fd5b505afa15801561034d573d6000803e3d6000fd5b505050506040513d602081101561036357600080fd5b50516040805163bb85c0bb60e01b81526001600160a01b038e811660048301529151919092169163bb85c0bb916024808301926020929190829003018186803b1580156103af57600080fd5b505afa1580156103c3573d6000803e3d6000fd5b505050506040513d60208110156103d957600080fd5b505160408301527f000000000000000000000000000000000000000000000000000000000000000081111561054357600061045e7f0000000000000000000000000000000000000000000000000000000000000000610458847f000000000000000000000000000000000000000000000000000000000000000061071c565b906107c1565b90506104bc61048d7f000000000000000000000000000000000000000000000000000000000000000083610897565b604085015161027b907f0000000000000000000000000000000000000000000000000000000000000000610767565b60408401526105386104ee7f000000000000000000000000000000000000000000000000000000000000000083610897565b61027b7f00000000000000000000000000000000000000000000000000000000000000007f0000000000000000000000000000000000000000000000000000000000000000610767565b602084015250610628565b6105a561059a610573837f00000000000000000000000000000000000000000000000000000000000000006107c1565b7f000000000000000000000000000000000000000000000000000000000000000090610897565b604084015190610767565b60408301526106226105fb7f0000000000000000000000000000000000000000000000000000000000000000610458847f0000000000000000000000000000000000000000000000000000000000000000610897565b7f000000000000000000000000000000000000000000000000000000000000000090610767565b60208301525b6106576106376127108861071c565b6106518361064b8d8d88602001518e610941565b90610897565b906109a8565b606083018190526040830151602090930151909c929b50995090975050505050505050565b7f000000000000000000000000000000000000000000000000000000000000000081565b7f000000000000000000000000000000000000000000000000000000000000000090565b7f000000000000000000000000000000000000000000000000000000000000000081565b7f000000000000000000000000000000000000000000000000000000000000000090565b6b033b2e3c9fd0803ce800000090565b600061075e83836040518060400160405280601e81526020017f536166654d6174683a207375627472616374696f6e206f766572666c6f770000815250610a18565b90505b92915050565b60008282018381101561075e576040805162461bcd60e51b815260206004820152601b60248201527f536166654d6174683a206164646974696f6e206f766572666c6f770000000000604482015290519081900360640190fd5b60008161080d576040805162461bcd60e51b81526020600482015260156024820152744d4154485f4449564953494f4e5f42595f5a45524f60581b604482015290519081900360640190fd5b600282046b033b2e3c9fd0803ce8000000811904841115610875576040805162461bcd60e51b815260206004820152601c60248201527f4d4154485f4d554c5449504c49434154494f4e5f4f564552464c4f5700000000604482015290519081900360640190fd5b82816b033b2e3c9fd0803ce80000008602018161088e57fe5b04949350505050565b60008215806108a4575081155b156108b157506000610761565b816b019d971e4fe8401e7400000019816108c757fe5b0483111561091c576040805162461bcd60e51b815260206004820152601c60248201527f4d4154485f4d554c5449504c49434154494f4e5f4f564552464c4f5700000000604482015290519081900360640190fd5b6b033b2e3c9fd0803ce80000006002815b04838502018161093957fe5b049392505050565b60008061094e8686610767565b90508061095f5760009150506109a0565b600061096e8561064b88610aaf565b9050600061097f8561064b8a610aaf565b9050600061099961098f85610aaf565b6104588585610767565b9450505050505b949350505050565b60008215806109b5575081155b156109c257506000610761565b8161138819816109ce57fe5b04831115610a0d5760405162461bcd60e51b8152600401808060200182810382526026815260200180610b3f6026913960400191505060405180910390fd5b61271060028161092d565b60008184841115610aa75760405162461bcd60e51b81526004018080602001828103825283818151815260200191508051906020019080838360005b83811015610a6c578181015183820152602001610a54565b50505050905090810190601f168015610a995780820380516001836020036101000a031916815260200191505b509250505060405180910390fd5b505050900390565b6000633b9aca008281029081048314610761576040805162461bcd60e51b815260206004820152601c60248201527f4d415448204d554c5449504c49434154494f4e204f564552464c4f5700000000604482015290519081900360640190fd5b6040518060a001604052806000815260200160008152602001600081526020016000815260200160008152509056fe50657263656e74616765204d617468203a204d756c7469706c69636174696f6e206572726f72a264697066735822122031a370a817d1277e89ca4292a99e80c1b11a5fa4ba34777f974cbbb07d2c85b264736f6c63430007000033",
			"opcodes": "PUSH2 0x180 PUSH1 0x40 MSTORE CALLVALUE DUP1 ISZERO PUSH2 0x11 JUMPI PUSH1 0x0 DUP1 REVERT JUMPDEST POP PUSH1 0x40 MLOAD PUSH2 0xE08 CODESIZE SUB DUP1 PUSH2 0xE08 DUP4 CODECOPY DUP2 DUP2 ADD PUSH1 0x40 MSTORE PUSH1 0xE0 DUP2 LT ISZERO PUSH2 0x34 JUMPI PUSH1 0x0 DUP1 REVERT JUMPDEST POP DUP1 MLOAD PUSH1 0x20 DUP1 DUP4 ADD MLOAD PUSH1 0x40 DUP5 ADD MLOAD PUSH1 0x60 DUP6 ADD MLOAD PUSH1 0x80 DUP1 DUP8 ADD MLOAD PUSH1 0xA0 DUP9 ADD MLOAD PUSH1 0xC0 SWAP1 SWAP9 ADD MLOAD SWAP2 DUP6 SWAP1 MSTORE SWAP6 SWAP7 SWAP4 SWAP6 SWAP3 SWAP5 SWAP2 SWAP4 SWAP2 PUSH2 0x8E SWAP1 DUP8 SWAP1 PUSH2 0x7C SWAP1 PUSH2 0x70C PUSH2 0xC3 DUP3 SHL OR SWAP1 SHR JUMP JUMPDEST PUSH2 0xD3 PUSH1 0x20 SHL PUSH2 0x71C OR SWAP1 SWAP2 SWAP1 PUSH1 0x20 SHR JUMP JUMPDEST PUSH1 0xA0 MSTORE PUSH1 0x60 SWAP7 SWAP1 SWAP7 SHL PUSH1 0x1 PUSH1 0x1 PUSH1 0x60 SHL SUB NOT AND PUSH1 0xC0 MSTORE PUSH1 0xE0 SWAP4 SWAP1 SWAP4 MSTORE PUSH2 0x100 SWAP2 SWAP1 SWAP2 MSTORE PUSH2 0x120 MSTORE PUSH2 0x140 MSTORE POP PUSH2 0x160 MSTORE PUSH2 0x1B9 JUMP JUMPDEST PUSH12 0x33B2E3C9FD0803CE8000000 SWAP1 JUMP JUMPDEST PUSH1 0x0 PUSH2 0x11B DUP4 DUP4 PUSH1 0x40 MLOAD DUP1 PUSH1 0x40 ADD PUSH1 0x40 MSTORE DUP1 PUSH1 0x1E DUP2 MSTORE PUSH1 0x20 ADD PUSH32 0x536166654D6174683A207375627472616374696F6E206F766572666C6F770000 DUP2 MSTORE POP PUSH2 0x122 PUSH1 0x20 SHL PUSH1 0x20 SHR JUMP JUMPDEST SWAP4 SWAP3 POP POP POP JUMP JUMPDEST PUSH1 0x0 DUP2 DUP5 DUP5 GT ISZERO PUSH2 0x1B1 JUMPI PUSH1 0x40 MLOAD PUSH3 0x461BCD PUSH1 0xE5 SHL DUP2 MSTORE PUSH1 0x4 ADD DUP1 DUP1 PUSH1 0x20 ADD DUP3 DUP2 SUB DUP3 MSTORE DUP4 DUP2 DUP2 MLOAD DUP2 MSTORE PUSH1 0x20 ADD SWAP2 POP DUP1 MLOAD SWAP1 PUSH1 0x20 ADD SWAP1 DUP1 DUP4 DUP4 PUSH1 0x0 JUMPDEST DUP4 DUP2 LT ISZERO PUSH2 0x176 JUMPI DUP2 DUP2 ADD MLOAD DUP4 DUP3 ADD MSTORE PUSH1 0x20 ADD PUSH2 0x15E JUMP JUMPDEST POP POP POP POP SWAP1 POP SWAP1 DUP2 ADD SWAP1 PUSH1 0x1F AND DUP1 ISZERO PUSH2 0x1A3 JUMPI DUP1 DUP3 SUB DUP1 MLOAD PUSH1 0x1 DUP4 PUSH1 0x20 SUB PUSH2 0x100 EXP SUB NOT AND DUP2 MSTORE PUSH1 0x20 ADD SWAP2 POP JUMPDEST POP SWAP3 POP POP POP PUSH1 0x40 MLOAD DUP1 SWAP2 SUB SWAP1 REVERT JUMPDEST POP POP POP SWAP1 SUB SWAP1 JUMP JUMPDEST PUSH1 0x80 MLOAD PUSH1 0xA0 MLOAD PUSH1 0xC0 MLOAD PUSH1 0x60 SHR PUSH1 0xE0 MLOAD PUSH2 0x100 MLOAD PUSH2 0x120 MLOAD PUSH2 0x140 MLOAD PUSH2 0x160 MLOAD PUSH2 0xB9A PUSH2 0x26E PUSH1 0x0 CODECOPY DUP1 PUSH2 0x468 MSTORE DUP1 PUSH2 0x6EA MSTORE POP DUP1 PUSH2 0x17D MSTORE DUP1 PUSH2 0x498 MSTORE DUP1 PUSH2 0x575 MSTORE POP DUP1 PUSH2 0x1C5 MSTORE DUP1 PUSH2 0x212 MSTORE DUP1 PUSH2 0x4C9 MSTORE POP DUP1 PUSH2 0x1E9 MSTORE DUP1 PUSH2 0x257 MSTORE DUP1 PUSH2 0x514 MSTORE DUP1 PUSH2 0x5D7 MSTORE POP DUP1 PUSH2 0x236 MSTORE DUP1 PUSH2 0x4F3 MSTORE DUP1 PUSH2 0x5FD MSTORE DUP1 PUSH2 0x6A2 MSTORE POP DUP1 PUSH2 0x2E2 MSTORE DUP1 PUSH2 0x6C6 MSTORE POP DUP1 PUSH2 0x1A1 MSTORE DUP1 PUSH2 0x40F MSTORE POP DUP1 PUSH2 0x3E2 MSTORE DUP1 PUSH2 0x434 MSTORE DUP1 PUSH2 0x54F MSTORE DUP1 PUSH2 0x5B2 MSTORE DUP1 PUSH2 0x67E MSTORE POP PUSH2 0xB9A PUSH1 0x0 RETURN INVALID PUSH1 0x80 PUSH1 0x40 MSTORE CALLVALUE DUP1 ISZERO PUSH2 0x10 JUMPI PUSH1 0x0 DUP1 REVERT JUMPDEST POP PUSH1 0x4 CALLDATASIZE LT PUSH2 0x9E JUMPI PUSH1 0x0 CALLDATALOAD PUSH1 0xE0 SHR DUP1 PUSH4 0x9584DF28 GT PUSH2 0x66 JUMPI DUP1 PUSH4 0x9584DF28 EQ PUSH2 0xDD JUMPI DUP1 PUSH4 0xA15F30AC EQ PUSH2 0x13F JUMPI DUP1 PUSH4 0xB2589544 EQ PUSH2 0x147 JUMPI DUP1 PUSH4 0xC72C4D10 EQ PUSH2 0x14F JUMPI DUP1 PUSH4 0xCCAB01A3 EQ PUSH2 0x173 JUMPI PUSH2 0x9E JUMP JUMPDEST DUP1 PUSH4 0xBDF953F EQ PUSH2 0xA3 JUMPI DUP1 PUSH4 0x17319873 EQ PUSH2 0xBD JUMPI DUP1 PUSH4 0x65614F81 EQ PUSH2 0xC5 JUMPI DUP1 PUSH4 0x7B832F58 EQ PUSH2 0xCD JUMPI DUP1 PUSH4 0x80031E37 EQ PUSH2 0xD5 JUMPI JUMPDEST PUSH1 0x0 DUP1 REVERT JUMPDEST PUSH2 0xAB PUSH2 0x17B JUMP JUMPDEST PUSH1 0x40 DUP1 MLOAD SWAP2 DUP3 MSTORE MLOAD SWAP1 DUP2 SWAP1 SUB PUSH1 0x20 ADD SWAP1 RETURN JUMPDEST PUSH2 0xAB PUSH2 0x19F JUMP JUMPDEST PUSH2 0xAB PUSH2 0x1C3 JUMP JUMPDEST PUSH2 0xAB PUSH2 0x1E7 JUMP JUMPDEST PUSH2 0xAB PUSH2 0x20B JUMP JUMPDEST PUSH2 0x121 PUSH1 0x4 DUP1 CALLDATASIZE SUB PUSH1 0xC0 DUP2 LT ISZERO PUSH2 0xF3 JUMPI PUSH1 0x0 DUP1 REVERT JUMPDEST POP PUSH1 0x1 PUSH1 0x1 PUSH1 0xA0 SHL SUB DUP2 CALLDATALOAD AND SWAP1 PUSH1 0x20 DUP2 ADD CALLDATALOAD SWAP1 PUSH1 0x40 DUP2 ADD CALLDATALOAD SWAP1 PUSH1 0x60 DUP2 ADD CALLDATALOAD SWAP1 PUSH1 0x80 DUP2 ADD CALLDATALOAD SWAP1 PUSH1 0xA0 ADD CALLDATALOAD PUSH2 0x286 JUMP JUMPDEST PUSH1 0x40 DUP1 MLOAD SWAP4 DUP5 MSTORE PUSH1 0x20 DUP5 ADD SWAP3 SWAP1 SWAP3 MSTORE DUP3 DUP3 ADD MSTORE MLOAD SWAP1 DUP2 SWAP1 SUB PUSH1 0x60 ADD SWAP1 RETURN JUMPDEST PUSH2 0xAB PUSH2 0x67C JUMP JUMPDEST PUSH2 0xAB PUSH2 0x6A0 JUMP JUMPDEST PUSH2 0x157 PUSH2 0x6C4 JUMP JUMPDEST PUSH1 0x40 DUP1 MLOAD PUSH1 0x1 PUSH1 0x1 PUSH1 0xA0 SHL SUB SWAP1 SWAP3 AND DUP3 MSTORE MLOAD SWAP1 DUP2 SWAP1 SUB PUSH1 0x20 ADD SWAP1 RETURN JUMPDEST PUSH2 0xAB PUSH2 0x6E8 JUMP JUMPDEST PUSH32 0x0 SWAP1 JUMP JUMPDEST PUSH32 0x0 DUP2 JUMP JUMPDEST PUSH32 0x0 SWAP1 JUMP JUMPDEST PUSH32 0x0 SWAP1 JUMP JUMPDEST PUSH1 0x0 PUSH2 0x281 PUSH32 0x0 PUSH2 0x27B PUSH32 0x0 PUSH32 0x0 PUSH2 0x767 JUMP JUMPDEST SWAP1 PUSH2 0x767 JUMP JUMPDEST SWAP1 POP SWAP1 JUMP JUMPDEST PUSH1 0x0 DUP1 PUSH1 0x0 PUSH2 0x293 PUSH2 0xB0F JUMP JUMPDEST PUSH2 0x29D DUP9 DUP9 PUSH2 0x767 JUMP JUMPDEST DUP1 DUP3 MSTORE PUSH1 0x0 PUSH1 0x20 DUP4 ADD DUP2 SWAP1 MSTORE PUSH1 0x40 DUP4 ADD DUP2 SWAP1 MSTORE PUSH1 0x60 DUP4 ADD DUP2 SWAP1 MSTORE SWAP1 ISZERO PUSH2 0x2DB JUMPI DUP2 MLOAD PUSH2 0x2D6 SWAP1 PUSH2 0x2CE SWAP1 DUP13 SWAP1 PUSH2 0x767 JUMP JUMPDEST DUP4 MLOAD SWAP1 PUSH2 0x7C1 JUMP JUMPDEST PUSH2 0x2DE JUMP JUMPDEST PUSH1 0x0 JUMPDEST SWAP1 POP PUSH32 0x0 PUSH1 0x1 PUSH1 0x1 PUSH1 0xA0 SHL SUB AND PUSH4 0x3618ABBA PUSH1 0x40 MLOAD DUP2 PUSH4 0xFFFFFFFF AND PUSH1 0xE0 SHL DUP2 MSTORE PUSH1 0x4 ADD PUSH1 0x20 PUSH1 0x40 MLOAD DUP1 DUP4 SUB DUP2 DUP7 DUP1 EXTCODESIZE ISZERO DUP1 ISZERO PUSH2 0x339 JUMPI PUSH1 0x0 DUP1 REVERT JUMPDEST POP GAS STATICCALL ISZERO DUP1 ISZERO PUSH2 0x34D JUMPI RETURNDATASIZE PUSH1 0x0 DUP1 RETURNDATACOPY RETURNDATASIZE PUSH1 0x0 REVERT JUMPDEST POP POP POP POP PUSH1 0x40 MLOAD RETURNDATASIZE PUSH1 0x20 DUP2 LT ISZERO PUSH2 0x363 JUMPI PUSH1 0x0 DUP1 REVERT JUMPDEST POP MLOAD PUSH1 0x40 DUP1 MLOAD PUSH4 0xBB85C0BB PUSH1 0xE0 SHL DUP2 MSTORE PUSH1 0x1 PUSH1 0x1 PUSH1 0xA0 SHL SUB DUP15 DUP2 AND PUSH1 0x4 DUP4 ADD MSTORE SWAP2 MLOAD SWAP2 SWAP1 SWAP3 AND SWAP2 PUSH4 0xBB85C0BB SWAP2 PUSH1 0x24 DUP1 DUP4 ADD SWAP3 PUSH1 0x20 SWAP3 SWAP2 SWAP1 DUP3 SWAP1 SUB ADD DUP2 DUP7 DUP1 EXTCODESIZE ISZERO DUP1 ISZERO PUSH2 0x3AF JUMPI PUSH1 0x0 DUP1 REVERT JUMPDEST POP GAS STATICCALL ISZERO DUP1 ISZERO PUSH2 0x3C3 JUMPI RETURNDATASIZE PUSH1 0x0 DUP1 RETURNDATACOPY RETURNDATASIZE PUSH1 0x0 REVERT JUMPDEST POP POP POP POP PUSH1 0x40 MLOAD RETURNDATASIZE PUSH1 0x20 DUP2 LT ISZERO PUSH2 0x3D9 JUMPI PUSH1 0x0 DUP1 REVERT JUMPDEST POP MLOAD PUSH1 0x40 DUP4 ADD MSTORE PUSH32 0x0 DUP2 GT ISZERO PUSH2 0x543 JUMPI PUSH1 0x0 PUSH2 0x45E PUSH32 0x0 PUSH2 0x458 DUP5 PUSH32 0x0 PUSH2 0x71C JUMP JUMPDEST SWAP1 PUSH2 0x7C1 JUMP JUMPDEST SWAP1 POP PUSH2 0x4BC PUSH2 0x48D PUSH32 0x0 DUP4 PUSH2 0x897 JUMP JUMPDEST PUSH1 0x40 DUP6 ADD MLOAD PUSH2 0x27B SWAP1 PUSH32 0x0 PUSH2 0x767 JUMP JUMPDEST PUSH1 0x40 DUP5 ADD MSTORE PUSH2 0x538 PUSH2 0x4EE PUSH32 0x0 DUP4 PUSH2 0x897 JUMP JUMPDEST PUSH2 0x27B PUSH32 0x0 PUSH32 0x0 PUSH2 0x767 JUMP JUMPDEST PUSH1 0x20 DUP5 ADD MSTORE POP PUSH2 0x628 JUMP JUMPDEST PUSH2 0x5A5 PUSH2 0x59A PUSH2 0x573 DUP4 PUSH32 0x0 PUSH2 0x7C1 JUMP JUMPDEST PUSH32 0x0 SWAP1 PUSH2 0x897 JUMP JUMPDEST PUSH1 0x40 DUP5 ADD MLOAD SWAP1 PUSH2 0x767 JUMP JUMPDEST PUSH1 0x40 DUP4 ADD MSTORE PUSH2 0x622 PUSH2 0x5FB PUSH32 0x0 PUSH2 0x458 DUP5 PUSH32 0x0 PUSH2 0x897 JUMP JUMPDEST PUSH32 0x0 SWAP1 PUSH2 0x767 JUMP JUMPDEST PUSH1 0x20 DUP4 ADD MSTORE JUMPDEST PUSH2 0x657 PUSH2 0x637 PUSH2 0x2710 DUP9 PUSH2 0x71C JUMP JUMPDEST PUSH2 0x651 DUP4 PUSH2 0x64B DUP14 DUP14 DUP9 PUSH1 0x20 ADD MLOAD DUP15 PUSH2 0x941 JUMP JUMPDEST SWAP1 PUSH2 0x897 JUMP JUMPDEST SWAP1 PUSH2 0x9A8 JUMP JUMPDEST PUSH1 0x60 DUP4 ADD DUP2 SWAP1 MSTORE PUSH1 0x40 DUP4 ADD MLOAD PUSH1 0x20 SWAP1 SWAP4 ADD MLOAD SWAP1 SWAP13 SWAP3 SWAP12 POP SWAP10 POP SWAP1 SWAP8 POP POP POP POP POP POP POP POP JUMP JUMPDEST PUSH32 0x0 DUP2 JUMP JUMPDEST PUSH32 0x0 SWAP1 JUMP JUMPDEST PUSH32 0x0 DUP2 JUMP JUMPDEST PUSH32 0x0 SWAP1 JUMP JUMPDEST PUSH12 0x33B2E3C9FD0803CE8000000 SWAP1 JUMP JUMPDEST PUSH1 0x0 PUSH2 0x75E DUP4 DUP4 PUSH1 0x40 MLOAD DUP1 PUSH1 0x40 ADD PUSH1 0x40 MSTORE DUP1 PUSH1 0x1E DUP2 MSTORE PUSH1 0x20 ADD PUSH32 0x536166654D6174683A207375627472616374696F6E206F766572666C6F770000 DUP2 MSTORE POP PUSH2 0xA18 JUMP JUMPDEST SWAP1 POP JUMPDEST SWAP3 SWAP2 POP POP JUMP JUMPDEST PUSH1 0x0 DUP3 DUP3 ADD DUP4 DUP2 LT ISZERO PUSH2 0x75E JUMPI PUSH1 0x40 DUP1 MLOAD PUSH3 0x461BCD PUSH1 0xE5 SHL DUP2 MSTORE PUSH1 0x20 PUSH1 0x4 DUP3 ADD MSTORE PUSH1 0x1B PUSH1 0x24 DUP3 ADD MSTORE PUSH32 0x536166654D6174683A206164646974696F6E206F766572666C6F770000000000 PUSH1 0x44 DUP3 ADD MSTORE SWAP1 MLOAD SWAP1 DUP2 SWAP1 SUB PUSH1 0x64 ADD SWAP1 REVERT JUMPDEST PUSH1 0x0 DUP2 PUSH2 0x80D JUMPI PUSH1 0x40 DUP1 MLOAD PUSH3 0x461BCD PUSH1 0xE5 SHL DUP2 MSTORE PUSH1 0x20 PUSH1 0x4 DUP3 ADD MSTORE PUSH1 0x15 PUSH1 0x24 DUP3 ADD MSTORE PUSH21 0x4D4154485F4449564953494F4E5F42595F5A45524F PUSH1 0x58 SHL PUSH1 0x44 DUP3 ADD MSTORE SWAP1 MLOAD SWAP1 DUP2 SWAP1 SUB PUSH1 0x64 ADD SWAP1 REVERT JUMPDEST PUSH1 0x2 DUP3 DIV PUSH12 0x33B2E3C9FD0803CE8000000 DUP2 NOT DIV DUP5 GT ISZERO PUSH2 0x875 JUMPI PUSH1 0x40 DUP1 MLOAD PUSH3 0x461BCD PUSH1 0xE5 SHL DUP2 MSTORE PUSH1 0x20 PUSH1 0x4 DUP3 ADD MSTORE PUSH1 0x1C PUSH1 0x24 DUP3 ADD MSTORE PUSH32 0x4D4154485F4D554C5449504C49434154494F4E5F4F564552464C4F5700000000 PUSH1 0x44 DUP3 ADD MSTORE SWAP1 MLOAD SWAP1 DUP2 SWAP1 SUB PUSH1 0x64 ADD SWAP1 REVERT JUMPDEST DUP3 DUP2 PUSH12 0x33B2E3C9FD0803CE8000000 DUP7 MUL ADD DUP2 PUSH2 0x88E JUMPI INVALID JUMPDEST DIV SWAP5 SWAP4 POP POP POP POP JUMP JUMPDEST PUSH1 0x0 DUP3 ISZERO DUP1 PUSH2 0x8A4 JUMPI POP DUP2 ISZERO JUMPDEST ISZERO PUSH2 0x8B1 JUMPI POP PUSH1 0x0 PUSH2 0x761 JUMP JUMPDEST DUP2 PUSH12 0x19D971E4FE8401E74000000 NOT DUP2 PUSH2 0x8C7 JUMPI INVALID JUMPDEST DIV DUP4 GT ISZERO PUSH2 0x91C JUMPI PUSH1 0x40 DUP1 MLOAD PUSH3 0x461BCD PUSH1 0xE5 SHL DUP2 MSTORE PUSH1 0x20 PUSH1 0x4 DUP3 ADD MSTORE PUSH1 0x1C PUSH1 0x24 DUP3 ADD MSTORE PUSH32 0x4D4154485F4D554C5449504C49434154494F4E5F4F564552464C4F5700000000 PUSH1 0x44 DUP3 ADD MSTORE SWAP1 MLOAD SWAP1 DUP2 SWAP1 SUB PUSH1 0x64 ADD SWAP1 REVERT JUMPDEST PUSH12 0x33B2E3C9FD0803CE8000000 PUSH1 0x2 DUP2 JUMPDEST DIV DUP4 DUP6 MUL ADD DUP2 PUSH2 0x939 JUMPI INVALID JUMPDEST DIV SWAP4 SWAP3 POP POP POP JUMP JUMPDEST PUSH1 0x0 DUP1 PUSH2 0x94E DUP7 DUP7 PUSH2 0x767 JUMP JUMPDEST SWAP1 POP DUP1 PUSH2 0x95F JUMPI PUSH1 0x0 SWAP2 POP POP PUSH2 0x9A0 JUMP JUMPDEST PUSH1 0x0 PUSH2 0x96E DUP6 PUSH2 0x64B DUP9 PUSH2 0xAAF JUMP JUMPDEST SWAP1 POP PUSH1 0x0 PUSH2 0x97F DUP6 PUSH2 0x64B DUP11 PUSH2 0xAAF JUMP JUMPDEST SWAP1 POP PUSH1 0x0 PUSH2 0x999 PUSH2 0x98F DUP6 PUSH2 0xAAF JUMP JUMPDEST PUSH2 0x458 DUP6 DUP6 PUSH2 0x767 JUMP JUMPDEST SWAP5 POP POP POP POP POP JUMPDEST SWAP5 SWAP4 POP POP POP POP JUMP JUMPDEST PUSH1 0x0 DUP3 ISZERO DUP1 PUSH2 0x9B5 JUMPI POP DUP2 ISZERO JUMPDEST ISZERO PUSH2 0x9C2 JUMPI POP PUSH1 0x0 PUSH2 0x761 JUMP JUMPDEST DUP2 PUSH2 0x1388 NOT DUP2 PUSH2 0x9CE JUMPI INVALID JUMPDEST DIV DUP4 GT ISZERO PUSH2 0xA0D JUMPI PUSH1 0x40 MLOAD PUSH3 0x461BCD PUSH1 0xE5 SHL DUP2 MSTORE PUSH1 0x4 ADD DUP1 DUP1 PUSH1 0x20 ADD DUP3 DUP2 SUB DUP3 MSTORE PUSH1 0x26 DUP2 MSTORE PUSH1 0x20 ADD DUP1 PUSH2 0xB3F PUSH1 0x26 SWAP2 CODECOPY PUSH1 0x40 ADD SWAP2 POP POP PUSH1 0x40 MLOAD DUP1 SWAP2 SUB SWAP1 REVERT JUMPDEST PUSH2 0x2710 PUSH1 0x2 DUP2 PUSH2 0x92D JUMP JUMPDEST PUSH1 0x0 DUP2 DUP5 DUP5 GT ISZERO PUSH2 0xAA7 JUMPI PUSH1 0x40 MLOAD PUSH3 0x461BCD PUSH1 0xE5 SHL DUP2 MSTORE PUSH1 0x4 ADD DUP1 DUP1 PUSH1 0x20 ADD DUP3 DUP2 SUB DUP3 MSTORE DUP4 DUP2 DUP2 MLOAD DUP2 MSTORE PUSH1 0x20 ADD SWAP2 POP DUP1 MLOAD SWAP1 PUSH1 0x20 ADD SWAP1 DUP1 DUP4 DUP4 PUSH1 0x0 JUMPDEST DUP4 DUP2 LT ISZERO PUSH2 0xA6C JUMPI DUP2 DUP2 ADD MLOAD DUP4 DUP3 ADD MSTORE PUSH1 0x20 ADD PUSH2 0xA54 JUMP JUMPDEST POP POP POP POP SWAP1 POP SWAP1 DUP2 ADD SWAP1 PUSH1 0x1F AND DUP1 ISZERO PUSH2 0xA99 JUMPI DUP1 DUP3 SUB DUP1 MLOAD PUSH1 0x1 DUP4 PUSH1 0x20 SUB PUSH2 0x100 EXP SUB NOT AND DUP2 MSTORE PUSH1 0x20 ADD SWAP2 POP JUMPDEST POP SWAP3 POP POP POP PUSH1 0x40 MLOAD DUP1 SWAP2 SUB SWAP1 REVERT JUMPDEST POP POP POP SWAP1 SUB SWAP1 JUMP JUMPDEST PUSH1 0x0 PUSH4 0x3B9ACA00 DUP3 DUP2 MUL SWAP1 DUP2 DIV DUP4 EQ PUSH2 0x761 JUMPI PUSH1 0x40 DUP1 MLOAD PUSH3 0x461BCD PUSH1 0xE5 SHL DUP2 MSTORE PUSH1 0x20 PUSH1 0x4 DUP3 ADD MSTORE PUSH1 0x1C PUSH1 0x24 DUP3 ADD MSTORE PUSH32 0x4D415448204D554C5449504C49434154494F4E204F564552464C4F5700000000 PUSH1 0x44 DUP3 ADD MSTORE SWAP1 MLOAD SWAP1 DUP2 SWAP1 SUB PUSH1 0x64 ADD SWAP1 REVERT JUMPDEST PUSH1 0x40 MLOAD DUP1 PUSH1 0xA0 ADD PUSH1 0x40 MSTORE DUP1 PUSH1 0x0 DUP2 MSTORE PUSH1 0x20 ADD PUSH1 0x0 DUP2 MSTORE PUSH1 0x20 ADD PUSH1 0x0 DUP2 MSTORE PUSH1 0x20 ADD PUSH1 0x0 DUP2 MSTORE PUSH1 0x20 ADD PUSH1 0x0 DUP2 MSTORE POP SWAP1 JUMP INVALID POP PUSH6 0x7263656E7461 PUSH8 0x65204D617468203A KECCAK256 0x4D PUSH22 0x6C7469706C69636174696F6E206572726F72A2646970 PUSH7 0x735822122031A3 PUSH17 0xA817D1277E89CA4292A99E80C1B11A5FA4 0xBA CALLVALUE PUSH24 0x7F974CBBB07D2C85B264736F6C6343000700003300000000 "
		},
		"gasEstimates": {
			"creation": {
				"codeDepositCost": "594000",
				"executionCost": "infinite",
				"totalCost": "infinite"
			},
			"external": {
				"EXCESS_UTILIZATION_RATE()": "infinite",
				"OPTIMAL_UTILIZATION_RATE()": "infinite",
				"addressesProvider()": "infinite",
				"baseVariableBorrowRate()": "infinite",
				"calculateInterestRates(address,uint256,uint256,uint256,uint256,uint256)": "infinite",
				"getMaxVariableBorrowRate()": "infinite",
				"stableRateSlope1()": "infinite",
				"stableRateSlope2()": "infinite",
				"variableRateSlope1()": "infinite",
				"variableRateSlope2()": "infinite"
			},
			"internal": {
				"_getOverallBorrowRate(uint256,uint256,uint256,uint256)": "infinite"
			}
		},
		"methodIdentifiers": {
			"EXCESS_UTILIZATION_RATE()": "17319873",
			"OPTIMAL_UTILIZATION_RATE()": "a15f30ac",
			"addressesProvider()": "c72c4d10",
			"baseVariableBorrowRate()": "b2589544",
			"calculateInterestRates(address,uint256,uint256,uint256,uint256,uint256)": "9584df28",
			"getMaxVariableBorrowRate()": "80031e37",
			"stableRateSlope1()": "0bdf953f",
			"stableRateSlope2()": "ccab01a3",
			"variableRateSlope1()": "7b832f58",
			"variableRateSlope2()": "65614f81"
		}
	},
	"abi": [
		{
			"inputs": [
				{
					"internalType": "contract IGlobalAddressesProvider",
					"name": "provider",
					"type": "address"
				},
				{
					"internalType": "uint256",
					"name": "optimalUtilizationRate",
					"type": "uint256"
				},
				{
					"internalType": "uint256",
					"name": "baseVariableBorrowRate",
					"type": "uint256"
				},
				{
					"internalType": "uint256",
					"name": "variableRateSlope1",
					"type": "uint256"
				},
				{
					"internalType": "uint256",
					"name": "variableRateSlope2",
					"type": "uint256"
				},
				{
					"internalType": "uint256",
					"name": "stableRateSlope1",
					"type": "uint256"
				},
				{
					"internalType": "uint256",
					"name": "stableRateSlope2",
					"type": "uint256"
				}
			],
			"stateMutability": "nonpayable",
			"type": "constructor"
		},
		{
			"inputs": [],
			"name": "EXCESS_UTILIZATION_RATE",
			"outputs": [
				{
					"internalType": "uint256",
					"name": "",
					"type": "uint256"
				}
			],
			"stateMutability": "view",
			"type": "function"
		},
		{
			"inputs": [],
			"name": "OPTIMAL_UTILIZATION_RATE",
			"outputs": [
				{
					"internalType": "uint256",
					"name": "",
					"type": "uint256"
				}
			],
			"stateMutability": "view",
			"type": "function"
		},
		{
			"inputs": [],
			"name": "addressesProvider",
			"outputs": [
				{
					"internalType": "contract IGlobalAddressesProvider",
					"name": "",
					"type": "address"
				}
			],
			"stateMutability": "view",
			"type": "function"
		},
		{
			"inputs": [],
			"name": "baseVariableBorrowRate",
			"outputs": [
				{
					"internalType": "uint256",
					"name": "",
					"type": "uint256"
				}
			],
			"stateMutability": "view",
			"type": "function"
		},
		{
			"inputs": [
				{
					"internalType": "address",
					"name": "instrument",
					"type": "address"
				},
				{
					"internalType": "uint256",
					"name": "availableLiquidity",
					"type": "uint256"
				},
				{
					"internalType": "uint256",
					"name": "totalStableDebt",
					"type": "uint256"
				},
				{
					"internalType": "uint256",
					"name": "totalVariableDebt",
					"type": "uint256"
				},
				{
					"internalType": "uint256",
					"name": "averageStableBorrowRate",
					"type": "uint256"
				},
				{
					"internalType": "uint256",
					"name": "reserveFactor",
					"type": "uint256"
				}
			],
			"name": "calculateInterestRates",
			"outputs": [
				{
					"internalType": "uint256",
					"name": "",
					"type": "uint256"
				},
				{
					"internalType": "uint256",
					"name": "",
					"type": "uint256"
				},
				{
					"internalType": "uint256",
					"name": "",
					"type": "uint256"
				}
			],
			"stateMutability": "view",
			"type": "function"
		},
		{
			"inputs": [],
			"name": "getMaxVariableBorrowRate",
			"outputs": [
				{
					"internalType": "uint256",
					"name": "",
					"type": "uint256"
				}
			],
			"stateMutability": "view",
			"type": "function"
		},
		{
			"inputs": [],
			"name": "stableRateSlope1",
			"outputs": [
				{
					"internalType": "uint256",
					"name": "",
					"type": "uint256"
				}
			],
			"stateMutability": "view",
			"type": "function"
		},
		{
			"inputs": [],
			"name": "stableRateSlope2",
			"outputs": [
				{
					"internalType": "uint256",
					"name": "",
					"type": "uint256"
				}
			],
			"stateMutability": "view",
			"type": "function"
		},
		{
			"inputs": [],
			"name": "variableRateSlope1",
			"outputs": [
				{
					"internalType": "uint256",
					"name": "",
					"type": "uint256"
				}
			],
			"stateMutability": "view",
			"type": "function"
		},
		{
			"inputs": [],
			"name": "variableRateSlope2",
			"outputs": [
				{
					"internalType": "uint256",
					"name": "",
					"type": "uint256"
				}
			],
			"stateMutability": "view",
			"type": "function"
		}
	]
}