{
	"data": {
		"bytecode": {
			"linkReferences": {
				"localhost/contracts/lendingProtocol/libraries/logic/InstrumentReserveLogic.sol": {
					"InstrumentReserveLogic": [
						{
							"length": 20,
							"start": 3293
						}
					]
				},
				"localhost/contracts/lendingProtocol/libraries/logic/ValidationLogic.sol": {
					"ValidationLogic": [
						{
							"length": 20,
							"start": 1539
						},
						{
							"length": 20,
							"start": 3534
						},
						{
							"length": 20,
							"start": 4721
						},
						{
							"length": 20,
							"start": 5799
						},
						{
							"length": 20,
							"start": 8031
						},
						{
							"length": 20,
							"start": 8663
						},
						{
							"length": 20,
							"start": 14515
						}
					]
				}
			},
			"object": "60806040526000805534801561001457600080fd5b50615f2e80620000256000396000f3fe608060405234801561001057600080fd5b50600436106101a85760003560e01c80638afaff02116100f9578063c619adac11610097578063d2d0e06611610071578063d2d0e0661461037a578063d5ed39331461038d578063df9ac432146103a0578063e82fec2f146103b5576101a8565b8063c619adac1461034c578063cd1123821461035f578063cff3435f14610372576101a8565b8063b8d29276116100d3578063b8d29276146102ee578063bedb86fb14610301578063bf92857c14610314578063c4d66de814610339576101a8565b80638afaff02146102c057806394ba89a2146102c8578063a415bcad146102db576101a8565b80634417a58311610166578063570b0b7411610140578063570b0b741461027f578063573ade811461029257806369328dec146102a55780637c55ccb3146102b8576101a8565b80634417a5831461022c5780634dc54a381461024c5780635610992a1461026c576101a8565b8062a718a9146101ad578063074b2e43146101c25780630c363982146101e057806329c3e55e146101f35780632b0475e1146102065780632fee4de714610219575b600080fd5b6101c06101bb36600461512d565b6103bd565b005b6101ca610592565b6040516101d79190615e20565b60405180910390f35b6101c06101ee366004615297565b610597565b6101ca61020136600461504d565b61075d565b6101ca61021436600461504d565b610786565b6101c06102273660046151ea565b6107a7565b61023f61023a36600461504d565b610979565b6040516101d79190615c24565b61025f61025a36600461504d565b6109ac565b6040516101d79190615c2e565b6101c061027a366004615085565b610a9d565b6101c061028d3660046150bd565b610b8e565b6101ca6102a036600461536c565b610d27565b6101ca6102b33660046152ef565b611198565b6101c0611553565b6101ca61161d565b6101c06102d63660046152c4565b611622565b6101c06102e93660046153b5565b611a20565b6101c06102fc3660046152c4565b611aa0565b6101c061030f3660046153f4565b611b7c565b61032761032236600461504d565b611caf565b6040516101d796959493929190615e77565b6101c061034736600461504d565b611dab565b61023f61035a36600461504d565b611e43565b6101c061036d366004615085565b611e76565b6101ca61217d565b6101c0610388366004615330565b612182565b6101c061039b366004615186565b612538565b6103a8612890565b6040516101d791906158f8565b6101ca612935565b6103c561293b565b60345460408051632c1a75cd60e11b815290516000926001600160a01b031691635834eb9a916004808301926020929190829003018186803b15801561040a57600080fd5b505afa15801561041e573d6000803e3d6000fd5b505050506040513d601f19601f820116820180604052508101906104429190615069565b905060006060826001600160a01b0316888888888860405160240161046b9594939291906156b5565b60408051601f198184030181529181526020820180516001600160e01b031662a718a960e01b1790525161049f91906155aa565b600060405180830381855af49150503d80600081146104da576040519150601f19603f3d011682016040523d82523d6000602084013e6104df565b606091505b509150915081604051806040016040528060018152602001603360f81b815250906105265760405162461bcd60e51b815260040161051d9190615953565b60405180910390fd5b50600060608280602001905181019061053f9190615444565b91509150816000148160405160200161055891906155aa565b604051602081830303815290604052906105855760405162461bcd60e51b815260040161051d9190615953565b5050505050505050505050565b605a81565b61059f61293b565b6001600160a01b038083166000908152603960208181526040808420338552603a835293819020603c546034548351631f94a27560e31b81529351969773__$b69fa0e71033e55a4e4e233ff70178f007$__9763efa388be978a978d978d9792969295603b95939493169263fca513a892600480840193919291829003018186803b15801561062d57600080fd5b505afa158015610641573d6000803e3d6000fd5b505050506040513d601f19601f820116820180604052508101906106659190615069565b6040518963ffffffff1660e01b8152600401610688989796959493929190615d64565b60006040518083038186803b1580156106a057600080fd5b505af41580156106b4573d6000803e3d6000fd5b505050506007810154336000908152603a602052604090206106e091600160a01b900460ff1684612978565b81156107215760405133906001600160a01b038516907f0fa277da50ddc7ccdfa45b85b1f26c78fe2d562ffe054abc05a44d7e08cd0dda90600090a3610758565b60405133906001600160a01b038516907f5f0dbed5d3dac715152b6b58c69a80d2ed41075ed413e35b7379025a642ef0d690600090a35b505050565b6001600160a01b038116600090815260396020526040812061077e906129d3565b90505b919050565b6001600160a01b038116600090815260396020526040812061077e90612a48565b6107af61293b565b60345460408051632c1a75cd60e11b815290516000926001600160a01b031691635834eb9a916004808301926020929190829003018186803b1580156107f457600080fd5b505afa158015610808573d6000803e3d6000fd5b505050506040513d601f19601f8201168201806040525081019061082c9190615069565b905060006060826001600160a01b0316338a8a8a8a8a8a604051602401610859979695949392919061560b565b60408051601f198184030181529181526020820180516001600160e01b031663a16a10bd60e01b1790525161088e91906155aa565b600060405180830381855af49150503d80600081146108c9576040519150601f19603f3d011682016040523d82523d6000602084013e6108ce565b606091505b509150915081604051806040016040528060018152602001603360f81b8152509061090c5760405162461bcd60e51b815260040161051d9190615953565b5060006060828060200190518101906109259190615444565b91509150816000148160405160200161093e91906155aa565b6040516020818303038152906040529061096b5760405162461bcd60e51b815260040161051d9190615953565b505050505050505050505050565b610981614e3c565b506001600160a01b03166000908152603a602090815260409182902082519182019092529054815290565b6109b4614e4f565b506001600160a01b0390811660009081526039602090815260409182902082516101c08101845281546101a08201908152815260018201546001600160801b0380821694830194909452600160801b908190048416948201949094526002820154808416606083015284900483166080820152600382015492831660a08201529290910464ffffffffff1660c08301526004810154831660e0830152600581015483166101008301526006810154831661012083015260070154918216610140820152600160a01b820460ff908116610160830152600160a81b90920490911661018082015290565b603454604080516385c858b160e01b8152905133926001600160a01b0316916385c858b1916004808301926020929190829003018186803b158015610ae157600080fd5b505afa158015610af5573d6000803e3d6000fd5b505050506040513d601f19601f82011682018060405250810190610b199190615069565b6001600160a01b03161460405180604001604052806002815260200161333360f01b81525090610b5c5760405162461bcd60e51b815260040161051d9190615953565b506001600160a01b03918216600090815260396020526040902060070180546001600160a01b03191691909216179055565b603454604080516385c858b160e01b8152905133926001600160a01b0316916385c858b1916004808301926020929190829003018186803b158015610bd257600080fd5b505afa158015610be6573d6000803e3d6000fd5b505050506040513d601f19601f82011682018060405250810190610c0a9190615069565b6001600160a01b03161460405180604001604052806002815260200161333360f01b81525090610c4d5760405162461bcd60e51b815260040161051d9190615953565b50610c5785612aa7565b604051806040016040528060018152602001601b60f91b81525090610c8f5760405162461bcd60e51b815260040161051d9190615953565b506001600160a01b038516600090815260396020526040908190209051630349f0e560e31b815273__$1058838d7c2df8d1b39c46a88827b92350$__91631a4f872891610ce791908890889088908890600401615d36565b60006040518083038186803b158015610cff57600080fd5b505af4158015610d13573d6000803e3d6000fd5b50505050610d2085612aad565b5050505050565b6000610d3161293b565b6001600160a01b0385166000908152603960205260409020610d51614ec2565b610d5b8483612bb3565b60608301526040820152846002811115610d7157fe5b81906002811115610d7e57fe5b90816002811115610d8b57fe5b9052508051604080830151606084015191516373721f8d60e01b815273__$b69fa0e71033e55a4e4e233ff70178f007$__936373721f8d93610dd79388938d93928c9291600401615ddc565b60006040518083038186803b158015610def57600080fd5b505af4158015610e03573d6000803e3d6000fd5b5060019250610e10915050565b81516002811115610e1d57fe5b14610e2c578060600151610e32565b80604001515b6080820152603854603754610e5d918491339188918c918c916001600160a01b039182169116612cc7565b6020830152955085610ed057336001600160a01b0316846001600160a01b0316886001600160a01b03167f81cfb79463601de705d4cf6b8d69112983d76a685120e5e4d3581f30871b87fc60008560200151604051610ebd929190615945565b60405180910390a4600092505050611190565b8060800151861015610ee457608081018690525b603754610efb9083906001600160a01b0316612f8d565b603554604051630f8a56cd60e31b81526001600160a01b0390911690637c52b66890610f2b908a906004016155c6565b602060405180830381600087803b158015610f4557600080fd5b505af1158015610f59573d6000803e3d6000fd5b505050506040513d601f19601f82011682018060405250810190610f7d9190615410565b50600181516002811115610f8d57fe5b14156110025760058201546080820151604051632770a7eb60e21b81526001600160a01b0390921691639dc29fac91610fcb91889190600401615672565b600060405180830381600087803b158015610fe557600080fd5b505af1158015610ff9573d6000803e3d6000fd5b50505050611083565b600682015460808201516001840154604051637a94c56560e11b81526001600160a01b039093169263f5298aca92611050928992600160801b9091046001600160801b03169060040161568b565b600060405180830381600087803b15801561106a57600080fd5b505af115801561107e573d6000803e3d6000fd5b505050505b600482015460808201516001600160a01b03909116906110aa9084908a9084906000613065565b6110d382608001516110cd8460600151856040015161345790919063ffffffff16565b90613485565b61110b5760078301546001600160a01b0386166000908152603a6020526040812061110b929091600160a01b90910460ff16906134c7565b6080820151611128906001600160a01b038a16903390849061351c565b336001600160a01b0316856001600160a01b0316896001600160a01b03167f81cfb79463601de705d4cf6b8d69112983d76a685120e5e4d3581f30871b87fc8560800151866020015160405161117f929190615945565b60405180910390a450608001519150505b949350505050565b60006111a261293b565b6001600160a01b0380851660009081526039602052604080822060048082015492516370a0823160e01b8152919492909216929183916370a08231916111ea913391016155c6565b60206040518083038186803b15801561120257600080fd5b505afa158015611216573d6000803e3d6000fd5b505050506040513d601f19601f8201168201806040525081019061123a919061542c565b90508560001981141561124a5750805b73__$b69fa0e71033e55a4e4e233ff70178f007$__63655f0bd88983856039603a6000336001600160a01b03166001600160a01b03168152602001908152602001600020603b603c54603460009054906101000a90046001600160a01b03166001600160a01b031663fca513a86040518163ffffffff1660e01b815260040160206040518083038186803b1580156112e157600080fd5b505afa1580156112f5573d6000803e3d6000fd5b505050506040513d601f19601f820116820180604052508101906113199190615069565b6040518963ffffffff1660e01b815260040161133c989796959493929190615859565b60006040518083038186803b15801561135457600080fd5b505af4158015611368573d6000803e3d6000fd5b505060375461138392508691506001600160a01b0316612f8d565b611391848985600085613065565b603554604051634f425fbb60e01b81526001600160a01b0390911690634f425fbb906113c1908b906004016155c6565b602060405180830381600087803b1580156113db57600080fd5b505af11580156113ef573d6000803e3d6000fd5b505050506040513d601f19601f820116820180604052508101906114139190615410565b508181141561147e576007840154336000908152603a60205260408120611447929091600160a01b90910460ff1690612978565b60405133906001600160a01b038a16907f5f0dbed5d3dac715152b6b58c69a80d2ed41075ed413e35b7379025a642ef0d690600090a35b6001840154604051636b81068560e11b81526001600160a01b0385169163d7020d0a916114bf9133918b9187916001600160801b03909116906004016155da565b600060405180830381600087803b1580156114d957600080fd5b505af11580156114ed573d6000803e3d6000fd5b50505050856001600160a01b0316336001600160a01b0316896001600160a01b03167f3115d1449a7b732c986cba18244e897a450f61e1bb8d589cd2e69e6c8924f9f78460405161153e9190615e20565b60405180910390a493505050505b9392505050565b603454604080516385c858b160e01b8152905133926001600160a01b0316916385c858b1916004808301926020929190829003018186803b15801561159757600080fd5b505afa1580156115ab573d6000803e3d6000fd5b505050506040513d601f19601f820116820180604052508101906115cf9190615069565b6001600160a01b03161460405180604001604052806002815260200161333360f01b815250906116125760405162461bcd60e51b815260040161051d9190615953565b5061161b61357a565b565b600181565b61162a61293b565b6001600160a01b0382166000908152603960205260408120908061164e3384612bb3565b91509150600084600281111561166057fe5b336000908152603a602052604090819020905163cc2a02d760e01b815291925073__$b69fa0e71033e55a4e4e233ff70178f007$__9163cc2a02d7916116b191889190889088908890600401615da6565b60006040518083038186803b1580156116c957600080fd5b505af41580156116dd573d6000803e3d6000fd5b50506037546116f892508691506001600160a01b0316612f8d565b603554604051630f8a56cd60e31b81526001600160a01b0390911690637c52b668906117289089906004016155c6565b602060405180830381600087803b15801561174257600080fd5b505af1158015611756573d6000803e3d6000fd5b505050506040513d601f19601f8201168201806040525081019061177a9190615410565b50600181600281111561178957fe5b1415611899576005840154604051632770a7eb60e21b81526001600160a01b0390911690639dc29fac906117c39033908790600401615672565b600060405180830381600087803b1580156117dd57600080fd5b505af11580156117f1573d6000803e3d6000fd5b505050506006840154600185015460405163b3f1c93d60e01b81526001600160a01b039092169163b3f1c93d9161184191339182918991600160801b90046001600160801b0316906004016155da565b602060405180830381600087803b15801561185b57600080fd5b505af115801561186f573d6000803e3d6000fd5b505050506040513d601f19601f820116820180604052508101906118939190615410565b506119af565b60068401546001850154604051637a94c56560e11b81526001600160a01b039092169163f5298aca916118e49133918791600160801b9091046001600160801b03169060040161568b565b600060405180830381600087803b1580156118fe57600080fd5b505af1158015611912573d6000803e3d6000fd5b505050506005840154600385015460405163b3f1c93d60e01b81526001600160a01b039092169163b3f1c93d9161195b913391829188916001600160801b0316906004016155da565b602060405180830381600087803b15801561197557600080fd5b505af1158015611989573d6000803e3d6000fd5b505050506040513d601f19601f820116820180604052508101906119ad9190615410565b505b60048401546119cd90859088906001600160a01b0316600080613065565b336001600160a01b0316866001600160a01b03167fea368a40e9570069bb8e6511d668293ad2e1f03b0d982431fd223de9f3b70ca687604051611a109190615e20565b60405180910390a3505050505050565b611a2861293b565b6001600160a01b038086166000818152603960209081526040918290208251610100810184529384523391840191909152848416918301919091526060820187905260808201869052600481015490921660a082015261ffff841660c0820152600160e0820152611a9890613744565b505050505050565b603454604080516385c858b160e01b8152905133926001600160a01b0316916385c858b1916004808301926020929190829003018186803b158015611ae457600080fd5b505afa158015611af8573d6000803e3d6000fd5b505050506040513d601f19601f82011682018060405250810190611b1c9190615069565b6001600160a01b03161460405180604001604052806002815260200161333360f01b81525090611b5f5760405162461bcd60e51b815260040161051d9190615953565b506001600160a01b03909116600090815260396020526040902055565b603454604080516385c858b160e01b8152905133926001600160a01b0316916385c858b1916004808301926020929190829003018186803b158015611bc057600080fd5b505afa158015611bd4573d6000803e3d6000fd5b505050506040513d601f19601f82011682018060405250810190611bf89190615069565b6001600160a01b03161460405180604001604052806002815260200161333360f01b81525090611c3b5760405162461bcd60e51b815260040161051d9190615953565b50603d805460ff1916821515179081905560ff1615611c82576040517f9e87fac88ff661f02d44f95383c817fece4bce600a3dab7a54406878b965e75290600090a1611cac565b6040517fa45f47fdea8a1efdd9029a5691c7f759c32b7c698632b563573e155625d1693390600090a15b50565b600080600080600080611d88876039603a60008b6001600160a01b03166001600160a01b03168152602001908152602001600020604051806020016040529081600082015481525050603b603c54603460009054906101000a90046001600160a01b03166001600160a01b031663fca513a86040518163ffffffff1660e01b815260040160206040518083038186803b158015611d4b57600080fd5b505afa158015611d5f573d6000803e3d6000fd5b505050506040513d601f19601f82011682018060405250810190611d839190615069565b613cfb565b93995091975090945092509050611da08686846141bc565b935091939550919395565b6000611db56141f0565b60015490915060ff1680611dcc5750611dcc6141f5565b80611dd8575060005481115b611df45760405162461bcd60e51b815260040161051d90615aef565b60015460ff16158015611e13576001805460ff19168117905560008290555b603480546001600160a01b0319166001600160a01b0385161790558015610758576001805460ff19169055505050565b611e4b614e3c565b506001600160a01b031660009081526039602090815260409182902082519182019092529054815290565b611e7e61293b565b6001600160a01b038083166000908152603960205260408082206005810154600682015460048084015494516370a0823160e01b81529396928316959183169490921692909185916370a0823191611ed8918a91016155c6565b60206040518083038186803b158015611ef057600080fd5b505afa158015611f04573d6000803e3d6000fd5b505050506040513d601f19601f82011682018060405250810190611f28919061542c565b604051632918eb8560e21b815290915073__$b69fa0e71033e55a4e4e233ff70178f007$__9063a463ae1490611f6a9088908b90899089908990600401615d36565b60006040518083038186803b158015611f8257600080fd5b505af4158015611f96573d6000803e3d6000fd5b5050603754611fb192508791506001600160a01b0316612f8d565b603554604051630f8a56cd60e31b81526001600160a01b0390911690637c52b66890611fe1908a906004016155c6565b602060405180830381600087803b158015611ffb57600080fd5b505af115801561200f573d6000803e3d6000fd5b505050506040513d601f19601f820116820180604052508101906120339190615410565b50604051632770a7eb60e21b81526001600160a01b03851690639dc29fac906120629089908590600401615672565b600060405180830381600087803b15801561207c57600080fd5b505af1158015612090573d6000803e3d6000fd5b505050600386015460405163b3f1c93d60e01b81526001600160a01b038716925063b3f1c93d916120d3918a91829187916001600160801b0316906004016155da565b602060405180830381600087803b1580156120ed57600080fd5b505af1158015612101573d6000803e3d6000fd5b505050506040513d601f19601f820116820180604052508101906121259190615410565b50612134858884600080613065565b856001600160a01b0316876001600160a01b03167f9f439ae0c81e41a04d3fdfe07aed54e6a179fb0db15be7702eb66fa8ef6f530060405160405180910390a350505050505050565b608081565b61218a61293b565b6001600160a01b03831660009081526039602052604090819020905163ce31011560e01b815273__$b69fa0e71033e55a4e4e233ff70178f007$__9063ce310115906121dc9084908790600401615945565b60006040518083038186803b1580156121f457600080fd5b505af4158015612208573d6000803e3d6000fd5b505050506004810154603854603754603654604080516101c08101825286546101a08201908152815260018701546001600160801b038082166020840152600160801b918290048116938301939093526002880154808416606084015281900483166080830152600388015492831660a083015290910464ffffffffff1660c08201526001600160a01b0394851660e0820181905260058701548616610100830152600687015486166101208301526007870154808716610140840152600160a01b810460ff908116610160850152600160a81b909104166101808301529460009461230594929333938c938c93811692918116918c91166141fb565b60375490915061231f9084906001600160a01b0316612f8d565b612339868361232e8885613485565b869291906000613065565b603554604051634f425fbb60e01b81526001600160a01b0390911690634f425fbb906123699089906004016155c6565b602060405180830381600087803b15801561238357600080fd5b505af1158015612397573d6000803e3d6000fd5b505050506040513d601f19601f820116820180604052508101906123bb9190615410565b506123dd33836123cb8885613485565b6001600160a01b038a1692919061351c565b60006001600160a01b03831663156e29f6336123f98986613485565b60018801546040516001600160e01b031960e086901b16815261242a9392916001600160801b03169060040161568b565b602060405180830381600087803b15801561244457600080fd5b505af1158015612458573d6000803e3d6000fd5b505050506040513d601f19601f8201168201806040525081019061247c9190615410565b905080156124e4576007840154336000908152603a602052604090206124ad91600160a01b900460ff166001612978565b60405133906001600160a01b038916907f0fa277da50ddc7ccdfa45b85b1f26c78fe2d562ffe054abc05a44d7e08cd0dda90600090a35b336001600160a01b0388167f5548c837ab068cf56a2c2479df0882a4922fd203edb7517321831d95078c5f6261251a8986613485565b6040516125279190615e20565b60405180910390a350505050505050565b61254061293b565b6001600160a01b0386811660009081526039602090815260409182902060040154825180840190935260018352603560f81b91830191909152909116331461259b5760405162461bcd60e51b815260040161051d9190615953565b50612657856039603a6000896001600160a01b03166001600160a01b03168152602001908152602001600020603b603c54603460009054906101000a90046001600160a01b03166001600160a01b031663fca513a86040518163ffffffff1660e01b815260040160206040518083038186803b15801561261a57600080fd5b505afa15801561262e573d6000803e3d6000fd5b505050506040513d601f19601f820116820180604052508101906126529190615069565b614340565b6001600160a01b0386811660009081526039602052604090819020600701546035549151630f8a56cd60e31b8152600160a01b90910460ff16929190911690637c52b668906126aa908a906004016155c6565b602060405180830381600087803b1580156126c457600080fd5b505af11580156126d8573d6000803e3d6000fd5b505050506040513d601f19601f820116820180604052508101906126fc9190615410565b50603554604051634f425fbb60e01b81526001600160a01b0390911690634f425fbb9061272d908a906004016155c6565b602060405180830381600087803b15801561274757600080fd5b505af115801561275b573d6000803e3d6000fd5b505050506040513d601f19601f8201168201806040525081019061277f9190615410565b50846001600160a01b0316866001600160a01b031614612887576127a38385613485565b61280f576001600160a01b0386166000908152603a60205260408120906127cd9082908490612978565b866001600160a01b0316886001600160a01b03167f5f0dbed5d3dac715152b6b58c69a80d2ed41075ed413e35b7379025a642ef0d660405160405180910390a3505b8115801561281c57508315155b15612887576001600160a01b0385166000908152603a6020526040902061284581836001612978565b856001600160a01b0316886001600160a01b03167f0fa277da50ddc7ccdfa45b85b1f26c78fe2d562ffe054abc05a44d7e08cd0dda60405160405180910390a3505b50505050505050565b606080603c5467ffffffffffffffff811180156128ac57600080fd5b506040519080825280602002602001820160405280156128d6578160200160208202803683370190505b50905060005b603c5481101561292f576000818152603b602052604090205482516001600160a01b039091169083908390811061290f57fe5b6001600160a01b03909216602092830291909101909101526001016128dc565b50905090565b6109c481565b603d546040805180820190915260018152601960f91b60208201529060ff1615611cac5760405162461bcd60e51b815260040161051d9190615953565b608082106129985760405162461bcd60e51b815260040161051d90615bbe565b81600202600101816129ab5760006129ae565b60015b60ff16901b826002026001016001901b19846000015416178360000181905550505050565b600381015460009064ffffffffff600160801b9091048116904216811415612a115750506001810154600160801b90046001600160801b0316610781565b60018301546002840154600091611190916001600160801b03600160801b92839004811692612a4292041685614390565b9061439d565b600381015460009064ffffffffff600160801b9091048116904216811415612a7f57505060018101546001600160801b0316610781565b60018301546002840154600091611190916001600160801b0391821691612a42911685614412565b3b151590565b603c546040805180820190915260018152603160f81b602082015260808210612ae95760405162461bcd60e51b815260040161051d9190615953565b506001600160a01b038216600090815260396020526040812060070154600160a01b900460ff16151580612b52575060008052603b6020527f75ae8a0e79dd0a018aa9bf1c84550b9ba9413a6b4d6d81c2029471d98e3db9e5546001600160a01b038481169116145b90508061075857506001600160a01b03919091166000818152603960209081526040808320600701805460ff60a01b1916600160a01b60ff881602179055848352603b909152902080546001600160a01b0319169091179055600101603c55565b60058101546040516370a0823160e01b815260009182916001600160a01b03909116906370a0823190612bea9087906004016155c6565b60206040518083038186803b158015612c0257600080fd5b505afa158015612c16573d6000803e3d6000fd5b505050506040513d601f19601f82011682018060405250810190612c3a919061542c565b60068401546040516370a0823160e01b81526001600160a01b03909116906370a0823190612c6c9088906004016155c6565b60206040518083038186803b158015612c8457600080fd5b505afa158015612c98573d6000803e3d6000fd5b505050506040513d601f19601f82011682018060405250810190612cbc919061542c565b915091509250929050565b600687015460405163285c23a560e01b8152600091829182916001600160a01b03169063285c23a590612cfe908b906004016155c6565b60206040518083038186803b158015612d1657600080fd5b505afa158015612d2a573d6000803e3d6000fd5b505050506040513d601f19601f82011682018060405250810190612d4e919061542c565b60068b0154604051634c6fc8e960e01b81529192506000916001600160a01b0390911690634c6fc8e990612d86908c906004016155c6565b60206040518083038186803b158015612d9e57600080fd5b505afa158015612db2573d6000803e3d6000fd5b505050506040513d601f19601f82011682018060405250810190612dd6919061542c565b90506000808315612e7d5783891015612def5788612df1565b835b9050612e086001600160a01b038b168d8a8461351c565b612e128982613485565b60058e0154604051631470b90b60e01b8152919a506001600160a01b031690631470b90b90612e4a908e9060009086906004016157d4565b600060405180830381600087803b158015612e6457600080fd5b505af1158015612e78573d6000803e3d6000fd5b505050505b600083118015612e8d5750600089115b15612f2d57828911612e9f5788612ea1565b825b9150612eb86001600160a01b038b168d898561351c565b612ec28983613485565b60058e01546040516375282d1360e11b8152919a506001600160a01b03169063ea505a2690612efa908e9060009087906004016157d4565b600060405180830381600087803b158015612f1457600080fd5b505af1158015612f28573d6000803e3d6000fd5b505050505b7fb3884abb0cd78ceb06cf359025a995c0e008a7e8cd7a195af8d05b64da47ad1b8a8d8d8c8587604051612f66969594939291906156e9565b60405180910390a188612f798284613457565b955095505050505097509795505050505050565b60068201546040805163b1bf962d60e01b815290516000926001600160a01b03169163b1bf962d916004808301926020929190829003018186803b158015612fd457600080fd5b505afa158015612fe8573d6000803e3d6000fd5b505050506040513d601f19601f8201168201806040525081019061300c919061542c565b60018401546003850154919250600160801b8082046001600160801b03908116939216910464ffffffffff166000806130488887868887614450565b9150915061305b888888888686896145ad565b5050505050505050565b61306d614ef2565b60058601546001600160a01b031680825260408051637b98f4df60e11b8152815163f731e9be92600480840193919291829003018186803b1580156130b157600080fd5b505afa1580156130c5573d6000803e3d6000fd5b505050506040513d601f19601f820116820180604052508101906130e991906154eb565b60c083015260408083019190915260018701546006880154825163b1bf962d60e01b8152925161318e93600160801b9093046001600160801b0316926001600160a01b039092169163b1bf962d916004808301926020929190829003018186803b15801561315657600080fd5b505afa15801561316a573d6000803e3d6000fd5b505050506040513d601f19601f82011682018060405250810190612a42919061542c565b60e08201526040516370a0823160e01b81526001600160a01b038616906370a08231906131bf9087906004016155c6565b60206040518083038186803b1580156131d757600080fd5b505afa1580156131eb573d6000803e3d6000fd5b505050506040513d601f19601f8201168201806040525081019061320f919061542c565b6020820181905260078701546001600160a01b031690639584df2890879061323d9086906110cd9089613457565b604085015160e086015160c08701516132558d614772565b6040518763ffffffff1660e01b8152600401613276969594939291906158c5565b60606040518083038186803b15801561328e57600080fd5b505afa1580156132a2573d6000803e3d6000fd5b505050506040513d601f19601f820116820180604052508101906132c6919061550e565b60a0840152608083015260608201819052604080518082019091526002815261189960f11b6020820152906001600160801b0310156133185760405162461bcd60e51b815260040161051d9190615953565b506080810151604080518082019091526002815261313360f01b6020820152906001600160801b03101561335f5760405162461bcd60e51b815260040161051d9190615953565b5060a08101516040805180820190915260028152610c4d60f21b6020820152906001600160801b0310156133a65760405162461bcd60e51b815260040161051d9190615953565b506060810151600287018054608084015160038a0180546001600160801b03199081166001600160801b038085169190911790925560a08701519316818616178116600160801b84831681029190911790945560018b01546040516001600160a01b038c16967f9adb65693c7acc3236bf2c0979398344d4783c4d439d2bd5bc6f18d75e751b8b966134479691959491938083169391900490911690615e48565b60405180910390a2505050505050565b60008282018381101561347c5760405162461bcd60e51b815260040161051d90615986565b90505b92915050565b600061347c83836040518060400160405280601e81526020017f536166654d6174683a207375627472616374696f6e206f766572666c6f77000081525061477d565b608082106134e75760405162461bcd60e51b815260040161051d90615bbe565b81600202816134f75760006134fa565b60015b60ff16901b826002026001901b19846000015416178360000181905550505050565b613574846323b872dd60e01b85858560405160240161353d93929190615722565b60408051601f198184030181529190526020810180516001600160e01b03166001600160e01b0319909316929092179091526147a9565b50505050565b603460009054906101000a90046001600160a01b03166001600160a01b031663fbeefc3c6040518163ffffffff1660e01b815260040160206040518083038186803b1580156135c857600080fd5b505afa1580156135dc573d6000803e3d6000fd5b505050506040513d601f19601f820116820180604052508101906136009190615069565b603680546001600160a01b0319166001600160a01b03928316179055603454604080516310ea16eb60e01b8152905191909216916310ea16eb916004808301926020929190829003018186803b15801561365957600080fd5b505afa15801561366d573d6000803e3d6000fd5b505050506040513d601f19601f820116820180604052508101906136919190615069565b603780546001600160a01b0319166001600160a01b0392831617905560345460408051630145d02f60e41b81529051919092169163145d02f0916004808301926020929190829003018186803b1580156136ea57600080fd5b505afa1580156136fe573d6000803e3d6000fd5b505050506040513d601f19601f820116820180604052508101906137229190615069565b603880546001600160a01b0319166001600160a01b0392909216919091179055565b80516001600160a01b0390811660009081526039602090815260408083208186015185168452603a83528184206034548351631f94a27560e31b81529351929691959491169263fca513a89260048083019392829003018186803b1580156137ab57600080fd5b505afa1580156137bf573d6000803e3d6000fd5b505050506040513d601f19601f820116820180604052508101906137e39190615069565b9050600061388a6137f385614838565b600a0a6138848760600151856001600160a01b031663b3596f078a600001516040518263ffffffff1660e01b815260040161382e91906155c6565b60206040518083038186803b15801561384657600080fd5b505afa15801561385a573d6000803e3d6000fd5b505050506040513d601f19601f8201168201806040525081019061387e919061542c565b90614842565b9061487c565b905073__$b69fa0e71033e55a4e4e233ff70178f007$__6381dd544386600001518688604001518960600151868b608001516109c460398c603b603c548e6040518d63ffffffff1660e01b81526004016138ef9c9b9a999897969594939291906157f5565b60006040518083038186803b15801561390757600080fd5b505af415801561391b573d6000803e3d6000fd5b505060375461393692508691506001600160a01b0316612f8d565b6035548551604051630f8a56cd60e31b81526001600160a01b0390921691637c52b66891613966916004016155c6565b602060405180830381600087803b15801561398057600080fd5b505af1158015613994573d6000803e3d6000fd5b505050506040513d601f19601f820116820180604052508101906139b89190615410565b5060208501518551606087015160c088015160365460009485946139ec948b949293919290916001600160a01b03166148be565b6001876080015160028111156139fe57fe5b6002811115613a0957fe5b1415613abe576003860154600587015460208901516040808b015160608c0151915163b3f1c93d60e01b81526001600160801b0390951696506001600160a01b039093169363b3f1c93d93613a65939290918890600401615772565b602060405180830381600087803b158015613a7f57600080fd5b505af1158015613a93573d6000803e3d6000fd5b505050506040513d601f19601f82011682018060405250810190613ab79190615410565b9050613b6d565b600686015460208801516040808a015160608b015160018b0154925163b3f1c93d60e01b81526001600160a01b039095169463b3f1c93d94613b189490939291600160801b9091046001600160801b0316906004016155da565b602060405180830381600087803b158015613b3257600080fd5b505af1158015613b46573d6000803e3d6000fd5b505050506040513d601f19601f82011682018060405250810190613b6a9190615410565b90505b8015613b8f576007860154613b8f908690600160a01b900460ff1660016134c7565b613bbe87600001518860a0015160008a60e00151613bae576000613bb4565b8a606001515b8a93929190613065565b8660e0015115613c56578660a001516001600160a01b0316634efecaa5886020015189606001516040518363ffffffff1660e01b8152600401613c02929190615672565b602060405180830381600087803b158015613c1c57600080fd5b505af1158015613c30573d6000803e3d6000fd5b505050506040513d601f19601f82011682018060405250810190613c54919061542c565b505b86604001516001600160a01b031687600001516001600160a01b03167f4bc4b08d677fc59195d56e346dcb5cc5dc3b78b90d59f5d36740ae1b3d225db889602001518a606001518b6080015160016002811115613caf57fe5b8d608001516002811115613cbf57fe5b6002811115613cca57fe5b14613ce95760028c0154600160801b90046001600160801b0316613ceb565b875b604051612527949392919061589f565b6000806000806000613d0b614f40565b613d148a614a65565b15613d325760008060008060001995509550955095509550506141ae565b600060e08201525b878160e00151101561410d5760e0810151613d56908b90614a6a565b613d5f576140fd565b60e0810151600090815260208a81526040808320546001600160a01b03166101e085018190528352908d90529020613d9681614a9d565b506080860181905260c08601929092525060a0840191909152600a0a60208301526101e082015160405163b3596f0760e01b81526001600160a01b038a169163b3596f0791613de891906004016155c6565b60206040518083038186803b158015613e0057600080fd5b505afa158015613e14573d6000803e3d6000fd5b505050506040513d601f19601f82011682018060405250810190613e38919061542c565b825260c082015115801590613e58575060e0820151613e58908c90614ac8565b15613f76578060040160009054906101000a90046001600160a01b03166001600160a01b03166370a082318e6040518263ffffffff1660e01b8152600401613ea091906155c6565b60206040518083038186803b158015613eb857600080fd5b505afa158015613ecc573d6000803e3d6000fd5b505050506040513d601f19601f82011682018060405250810190613ef0919061542c565b6040830181905260208301518351600092613f0f929161388491614842565b610120840151909150613f229082613457565b61012084015260a0830151613f4890613f3c908390614842565b61016085015190613457565b61016084015260c0830151613f6e90613f62908390614842565b61018085015190613457565b610180840152505b60e0820151613f86908c90614b02565b156140fb578060050160009054906101000a90046001600160a01b03166001600160a01b03166370a082318e6040518263ffffffff1660e01b8152600401613fce91906155c6565b60206040518083038186803b158015613fe657600080fd5b505afa158015613ffa573d6000803e3d6000fd5b505050506040513d601f19601f8201168201806040525081019061401e919061542c565b8260600181815250506140c88160060160009054906101000a90046001600160a01b03166001600160a01b03166370a082318f6040518263ffffffff1660e01b815260040161406d91906155c6565b60206040518083038186803b15801561408557600080fd5b505afa158015614099573d6000803e3d6000fd5b505050506040513d601f19601f820116820180604052508101906140bd919061542c565b606084015190613457565b60608301819052602083015183516140f4926140e8929161388491614842565b61014084015190613457565b6101408301525b505b60e0810180516001019052613d3a565b600081610120015111614121576000614136565b6101208101516101608201516141369161487c565b61016082015261012081015161414d576000614162565b6101208101516101808201516141629161487c565b610180820181905261012082015161014083015161417f92614b35565b610100820181905261012082015161014083015161016084015161018090940151919850965091945090925090505b965096509650965096915050565b6000806141c98584614b59565b9050838110156141dd57600091505061154c565b6141e78185613485565b95945050505050565b600190565b303b1590565b600080600080846001600160a01b03166365f156de8c8c8c8a6040518563ffffffff1660e01b81526004016142339493929190615746565b606060405180830381600087803b15801561424d57600080fd5b505af1158015614261573d6000803e3d6000fd5b505050506040513d601f19601f82011682018060405250810190614285919061550e565b9250925092506000821180156142a357506001600160a01b03881615155b156142bd576142bd6001600160a01b038b168c8a8561351c565b6000811180156142d557506001600160a01b03871615155b156142ef576142ef6001600160a01b038b168c898461351c565b7f597c350087e2f091c27c26de4cabea0413196e4b68c85516a25225ce6c944a438a8c8b85858b6040516143289695949392919061579b565b60405180910390a150909a9950505050505050505050565b6040805160208101909152845481526000906143629088908890878787613cfb565b945050505050670de0b6b3a76400008110156128875760405162461bcd60e51b815260040161051d90615a80565b600061347c838342614baa565b60008215806143aa575081155b156143b75750600061347f565b816b019d971e4fe8401e7400000019816143cd57fe5b048311156143ed5760405162461bcd60e51b815260040161051d90615a49565b6b033b2e3c9fd0803ce80000006002815b04838502018161440a57fe5b049392505050565b6000806144264264ffffffffff8516613485565b9050611190614433614c80565b6301e133806144428785614842565b8161444957fe5b0490613457565b600285015460009081906001600160801b03168585821561457e5760006144778488614412565b9050614483818a61439d565b604080518082019091526002815261189b60f11b60208201529093506001600160801b038411156144c75760405162461bcd60e51b815260040161051d9190615953565b5060018b0180546001600160801b0319166001600160801b038516179055891561457c5760028b015460009061450d90600160801b90046001600160801b031689614390565b9050614519818a61439d565b604080518082019091526002815261313760f01b60208201529093506001600160801b0384111561455d5760405162461bcd60e51b815260040161051d9190615953565b505060018b0180546001600160801b03808516600160801b0291161790555b505b600399909901805464ffffffffff60801b1916600160801b4264ffffffffff1602179055989650505050505050565b6145b5614fda565b6145be88614772565b61012082018190526145d05750612887565b8760050160009054906101000a90046001600160a01b03166001600160a01b031663797743386040518163ffffffff1660e01b815260040160806040518083038186803b15801561462057600080fd5b505afa158015614634573d6000803e3d6000fd5b505050506040513d601f19601f82011682018060405250810190614658919061553b565b64ffffffffff1661014085015260a08401528252602082015261467b868661439d565b608082015261468a868461439d565b606082015260a08101516101408201516146ac919064ffffffffff8516614baa565b60c0820181905260208201516146c19161439d565b604082018190526080820151825160608401516146e693926110cd9290918391613457565b60e082018190526101208201516146fd9190614b59565b61010082018190521561305b5760048089015461010083015160405163083d92c960e31b81526001600160a01b03909216926341ec96489261474492918c918a9101615e29565b600060405180830381600087803b15801561475e57600080fd5b505af115801561096b573d6000803e3d6000fd5b5460401c61ffff1690565b600081848411156147a15760405162461bcd60e51b815260040161051d9190615953565b505050900390565b60606147fe826040518060400160405280602081526020017f5361666545524332303a206c6f772d6c6576656c2063616c6c206661696c6564815250856001600160a01b0316614c909092919063ffffffff16565b805190915015610758578080602001905181019061481c9190615410565b6107585760405162461bcd60e51b815260040161051d90615b74565b5460301c60ff1690565b6000826148515750600061347f565b8282028284828161485e57fe5b041461347c5760405162461bcd60e51b815260040161051d90615aae565b600061347c83836040518060400160405280601a81526020017f536166654d6174683a206469766973696f6e206279207a65726f000000000000815250614c9f565b600080826001600160a01b031663258c71a0888888886040518563ffffffff1660e01b81526004016148f39493929190615746565b6040805180830381600087803b15801561490c57600080fd5b505af1158015614920573d6000803e3d6000fd5b505050506040513d601f19601f8201168201806040525081019061494491906154eb565b60058a0154604051631470b90b60e01b81529294509092506001600160a01b031690631470b90b9061497f908a9086906000906004016157d4565b600060405180830381600087803b15801561499957600080fd5b505af11580156149ad573d6000803e3d6000fd5b50505060058901546040516375282d1360e11b81526001600160a01b03909116915063ea505a26906149e8908a9085906000906004016157d4565b600060405180830381600087803b158015614a0257600080fd5b505af1158015614a16573d6000803e3d6000fd5b505050507f0fa3311270ab5c267714bc5cf4785ef34b67dbf7c8c35062577b6ab8158b7598878787858589604051614a539695949392919061579b565b60405180910390a15050505050505050565b511590565b600060808210614a8c5760405162461bcd60e51b815260040161051d90615bbe565b509051600360029092021c16151590565b5461ffff80821692601083901c821692602081901c83169260ff603083901c169260409290921c1690565b600060808210614aea5760405162461bcd60e51b815260040161051d90615bbe565b50815160016002830281019190911c16151592915050565b600060808210614b245760405162461bcd60e51b815260040161051d90615bbe565b509051600160029092021c16151590565b600082614b45575060001961154c565b61119083614b538685614b59565b90614cd6565b6000821580614b66575081155b15614b735750600061347f565b816113881981614b7f57fe5b04831115614b9f5760405162461bcd60e51b815260040161051d90615a03565b6127106002816143fe565b600080614bbe8364ffffffffff8616613485565b905080614bd557614bcd614c80565b91505061154c565b6000198101600060028311614beb576000614bf0565b600283035b90506301e1338087046000614c05828061439d565b90506000614c13828461439d565b905060006002614c278461387e8a8a614842565b81614c2e57fe5b04905060006006614c458461387e89818d8d614842565b81614c4c57fe5b049050614c7081614c6a8481614c628a8e614842565b614c6a614c80565b90613457565b9c9b505050505050505050505050565b6b033b2e3c9fd0803ce800000090565b60606111908484600085614d42565b60008183614cc05760405162461bcd60e51b815260040161051d9190615953565b506000838581614ccc57fe5b0495945050505050565b600081614cf55760405162461bcd60e51b815260040161051d90615bf5565b60028204670de0b6b3a7640000811904841115614d245760405162461bcd60e51b815260040161051d90615a49565b8281670de0b6b3a764000086020181614d3957fe5b04949350505050565b606082471015614d645760405162461bcd60e51b815260040161051d906159bd565b614d6d85612aa7565b614d895760405162461bcd60e51b815260040161051d90615b3d565b60006060866001600160a01b03168587604051614da691906155aa565b60006040518083038185875af1925050503d8060008114614de3576040519150601f19603f3d011682016040523d82523d6000602084013e614de8565b606091505b5091509150614df8828286614e03565b979650505050505050565b60608315614e1257508161154c565b825115614e225782518084602001fd5b8160405162461bcd60e51b815260040161051d9190615953565b6040518060200160405280600081525090565b604051806101a00160405280614e63614e3c565b815260006020820181905260408201819052606082018190526080820181905260a0820181905260c0820181905260e0820181905261010082018190526101208201819052610140820181905261016082018190526101809091015290565b6040805160a081019091528060008152602001600081526020016000815260200160008152602001600081525090565b60405180610100016040528060006001600160a01b03168152602001600081526020016000815260200160008152602001600081526020016000815260200160008152602001600081525090565b604051806102400160405280600081526020016000815260200160008152602001600081526020016000815260200160008152602001600081526020016000815260200160008152602001600081526020016000815260200160008152602001600081526020016000815260200160001515815260200160006001600160a01b031681526020016000151581526020016000151581525090565b60405180610160016040528060008152602001600081526020016000815260200160008152602001600081526020016000815260200160008152602001600081526020016000815260200160008152602001600064ffffffffff1681525090565b803561ffff8116811461347f57600080fd5b60006020828403121561505e578081fd5b813561347c81615ed5565b60006020828403121561507a578081fd5b815161347c81615ed5565b60008060408385031215615097578081fd5b82356150a281615ed5565b915060208301356150b281615ed5565b809150509250929050565b600080600080600060a086880312156150d4578081fd5b85356150df81615ed5565b945060208601356150ef81615ed5565b935060408601356150ff81615ed5565b9250606086013561510f81615ed5565b9150608086013561511f81615ed5565b809150509295509295909350565b600080600080600060a08688031215615144578081fd5b853561514f81615ed5565b9450602086013561515f81615ed5565b9350604086013561516f81615ed5565b925060608601359150608086013561511f81615eea565b60008060008060008060c0878903121561519e578081fd5b86356151a981615ed5565b955060208701356151b981615ed5565b945060408701356151c981615ed5565b959894975094956060810135955060808101359460a0909101359350915050565b60008060008060008060a08789031215615202578182fd5b863561520d81615ed5565b9550602087013561521d81615ed5565b945060408701359350606087013567ffffffffffffffff80821115615240578384fd5b818901915089601f830112615253578384fd5b813581811115615261578485fd5b8a6020828501011115615272578485fd5b60208301955080945050505061528b886080890161503b565b90509295509295509295565b600080604083850312156152a9578182fd5b82356152b481615ed5565b915060208301356150b281615eea565b600080604083850312156152d6578182fd5b82356152e181615ed5565b946020939093013593505050565b600080600060608486031215615303578081fd5b833561530e81615ed5565b925060208401359150604084013561532581615ed5565b809150509250925092565b600080600060608486031215615344578081fd5b833561534f81615ed5565b925060208401359150604084013561ffff81168114615325578182fd5b60008060008060808587031215615381578182fd5b843561538c81615ed5565b9350602085013592506040850135915060608501356153aa81615ed5565b939692955090935050565b600080600080600060a086880312156153cc578283fd5b85356153d781615ed5565b9450602086013593506040860135925061510f876060880161503b565b600060208284031215615405578081fd5b813561347c81615eea565b600060208284031215615421578081fd5b815161347c81615eea565b60006020828403121561543d578081fd5b5051919050565b60008060408385031215615456578182fd5b82519150602083015167ffffffffffffffff80821115615474578283fd5b818501915085601f830112615487578283fd5b815181811115615495578384fd5b604051601f8201601f1916810160200183811182821017156154b5578586fd5b6040528181528382016020018810156154cc578485fd5b6154dd826020830160208701615e9f565b809450505050509250929050565b600080604083850312156154fd578182fd5b505080516020909101519092909150565b600080600060608486031215615522578081fd5b8351925060208401519150604084015190509250925092565b60008060008060808587031215615550578182fd5b845193506020850151925060408501519150606085015164ffffffffff811681146153aa578182fd5b6001600160a01b03169052565b519052565b6001600160801b03169052565b64ffffffffff169052565b60ff169052565b600082516155bc818460208701615e9f565b9190910192915050565b6001600160a01b0391909116815260200190565b6001600160a01b03948516815292909316602083015260408201526001600160801b03909116606082015260800190565b6001600160a01b0388811682528781166020830152861660408201526060810185905260c06080820181905281018390526000838560e08401378060e0858401015260e0601f19601f860116830101905061ffff831660a083015298975050505050505050565b6001600160a01b03929092168252602082015260400190565b6001600160a01b0393909316835260208301919091526001600160801b0316604082015260600190565b6001600160a01b03958616815293851660208501529190931660408301526060820192909252901515608082015260a00190565b6001600160a01b03968716815294861660208601529290941660408401526060830152608082019290925260a081019190915260c00190565b6001600160a01b039384168152919092166020820152604081019190915260600190565b6001600160a01b039485168152929093166020830152604082015261ffff909116606082015260800190565b6001600160a01b0394851681529290931660208301526040820152606081019190915260800190565b6001600160a01b03968716815294909516602085015260408401929092526060830152608082015261ffff90911660a082015260c00190565b6001600160a01b039390931683526020830191909152604082015260600190565b6001600160a01b039c8d168152602081019b909b52988b1660408b015260608a0197909752608089019590955260a088019390935260c087019190915260e08601526101008501526101208401526101408301529091166101608201526101800190565b6001600160a01b039889168152602081019790975260408701959095526060860193909352608085019190915260a084015260c083015290911660e08201526101000190565b6001600160a01b0394909416845260208401929092526040830152606082015260800190565b6001600160a01b03969096168652602086019490945260408501929092526060840152608083015260a082015260c00190565b6020808252825182820181905260009190848201906040850190845b818110156159395783516001600160a01b031683529284019291840191600101615914565b50909695505050505050565b918252602082015260400190565b6000602082528251806020840152615972816040850160208701615e9f565b601f01601f19169190910160400192915050565b6020808252601b908201527f536166654d6174683a206164646974696f6e206f766572666c6f770000000000604082015260600190565b60208082526026908201527f416464726573733a20696e73756666696369656e742062616c616e636520666f6040820152651c8818d85b1b60d21b606082015260800190565b60208082526026908201527f50657263656e74616765204d617468203a204d756c7469706c69636174696f6e6040820152651032b93937b960d11b606082015260800190565b6020808252601c908201527f4d4154485f4d554c5449504c49434154494f4e5f4f564552464c4f5700000000604082015260600190565b6020808252601490820152731514905394d19154881393d50810531313d5d15160621b604082015260600190565b60208082526021908201527f536166654d6174683a206d756c7469706c69636174696f6e206f766572666c6f6040820152607760f81b606082015260800190565b6020808252602e908201527f436f6e747261637420696e7374616e63652068617320616c726561647920626560408201526d195b881a5b9a5d1a585b1a5e995960921b606082015260800190565b6020808252601d908201527f416464726573733a2063616c6c20746f206e6f6e2d636f6e7472616374000000604082015260600190565b6020808252602a908201527f5361666545524332303a204552433230206f7065726174696f6e20646964206e6040820152691bdd081cdd58d8d9595960b21b606082015260800190565b60208082526018908201527f496e76616c696420696e737472756d656e7420496e6465780000000000000000604082015260600190565b6020808252601590820152744d4154485f4449564953494f4e5f42595f5a45524f60581b604082015260600190565b9051815260200190565b60006101a082019050615c42828451615586565b6020830151615c54602084018261558b565b506040830151615c67604084018261558b565b506060830151615c7a606084018261558b565b506080830151615c8d608084018261558b565b5060a0830151615ca060a084018261558b565b5060c0830151615cb360c0840182615598565b5060e0830151615cc660e0840182615579565b5061010080840151615cda82850182615579565b505061012080840151615cef82850182615579565b505061014080840151615d0482850182615579565b505061016080840151615d19828501826155a3565b505061018080840151615d2e828501826155a3565b505092915050565b9485526001600160a01b03938416602086015291831660408501528216606084015216608082015260a00190565b9788526001600160a01b03968716602089015294151560408801526060870193909352608086019190915260a085015260c08401521660e08201526101000190565b600060a082019050868252856020830152846040830152836060830152615dcc83615ecb565b8260808301529695505050505050565b8681526020810186905260c08101615df386615ecb565b60408201959095526001600160a01b03939093166060840152608083019190915260a09091015292915050565b90815260200190565b9283526001600160a01b03919091166020830152604082015260600190565b948552602085019390935260408401919091526001600160801b03908116606084015216608082015260a00190565b958652602086019490945260408501929092526060840152608083015260a082015260c00190565b60005b83811015615eba578181015183820152602001615ea2565b838111156135745750506000910152565b60038110611cac57fe5b6001600160a01b0381168114611cac57600080fd5b8015158114611cac57600080fdfea26469706673582212209be24932ae89873459b92b0caceb67fd204b23a21923d109e6434eac3ab99ccf64736f6c63430007000033",
			"opcodes": "PUSH1 0x80 PUSH1 0x40 MSTORE PUSH1 0x0 DUP1 SSTORE CALLVALUE DUP1 ISZERO PUSH2 0x14 JUMPI PUSH1 0x0 DUP1 REVERT JUMPDEST POP PUSH2 0x5F2E DUP1 PUSH3 0x25 PUSH1 0x0 CODECOPY PUSH1 0x0 RETURN INVALID PUSH1 0x80 PUSH1 0x40 MSTORE CALLVALUE DUP1 ISZERO PUSH2 0x10 JUMPI PUSH1 0x0 DUP1 REVERT JUMPDEST POP PUSH1 0x4 CALLDATASIZE LT PUSH2 0x1A8 JUMPI PUSH1 0x0 CALLDATALOAD PUSH1 0xE0 SHR DUP1 PUSH4 0x8AFAFF02 GT PUSH2 0xF9 JUMPI DUP1 PUSH4 0xC619ADAC GT PUSH2 0x97 JUMPI DUP1 PUSH4 0xD2D0E066 GT PUSH2 0x71 JUMPI DUP1 PUSH4 0xD2D0E066 EQ PUSH2 0x37A JUMPI DUP1 PUSH4 0xD5ED3933 EQ PUSH2 0x38D JUMPI DUP1 PUSH4 0xDF9AC432 EQ PUSH2 0x3A0 JUMPI DUP1 PUSH4 0xE82FEC2F EQ PUSH2 0x3B5 JUMPI PUSH2 0x1A8 JUMP JUMPDEST DUP1 PUSH4 0xC619ADAC EQ PUSH2 0x34C JUMPI DUP1 PUSH4 0xCD112382 EQ PUSH2 0x35F JUMPI DUP1 PUSH4 0xCFF3435F EQ PUSH2 0x372 JUMPI PUSH2 0x1A8 JUMP JUMPDEST DUP1 PUSH4 0xB8D29276 GT PUSH2 0xD3 JUMPI DUP1 PUSH4 0xB8D29276 EQ PUSH2 0x2EE JUMPI DUP1 PUSH4 0xBEDB86FB EQ PUSH2 0x301 JUMPI DUP1 PUSH4 0xBF92857C EQ PUSH2 0x314 JUMPI DUP1 PUSH4 0xC4D66DE8 EQ PUSH2 0x339 JUMPI PUSH2 0x1A8 JUMP JUMPDEST DUP1 PUSH4 0x8AFAFF02 EQ PUSH2 0x2C0 JUMPI DUP1 PUSH4 0x94BA89A2 EQ PUSH2 0x2C8 JUMPI DUP1 PUSH4 0xA415BCAD EQ PUSH2 0x2DB JUMPI PUSH2 0x1A8 JUMP JUMPDEST DUP1 PUSH4 0x4417A583 GT PUSH2 0x166 JUMPI DUP1 PUSH4 0x570B0B74 GT PUSH2 0x140 JUMPI DUP1 PUSH4 0x570B0B74 EQ PUSH2 0x27F JUMPI DUP1 PUSH4 0x573ADE81 EQ PUSH2 0x292 JUMPI DUP1 PUSH4 0x69328DEC EQ PUSH2 0x2A5 JUMPI DUP1 PUSH4 0x7C55CCB3 EQ PUSH2 0x2B8 JUMPI PUSH2 0x1A8 JUMP JUMPDEST DUP1 PUSH4 0x4417A583 EQ PUSH2 0x22C JUMPI DUP1 PUSH4 0x4DC54A38 EQ PUSH2 0x24C JUMPI DUP1 PUSH4 0x5610992A EQ PUSH2 0x26C JUMPI PUSH2 0x1A8 JUMP JUMPDEST DUP1 PUSH3 0xA718A9 EQ PUSH2 0x1AD JUMPI DUP1 PUSH4 0x74B2E43 EQ PUSH2 0x1C2 JUMPI DUP1 PUSH4 0xC363982 EQ PUSH2 0x1E0 JUMPI DUP1 PUSH4 0x29C3E55E EQ PUSH2 0x1F3 JUMPI DUP1 PUSH4 0x2B0475E1 EQ PUSH2 0x206 JUMPI DUP1 PUSH4 0x2FEE4DE7 EQ PUSH2 0x219 JUMPI JUMPDEST PUSH1 0x0 DUP1 REVERT JUMPDEST PUSH2 0x1C0 PUSH2 0x1BB CALLDATASIZE PUSH1 0x4 PUSH2 0x512D JUMP JUMPDEST PUSH2 0x3BD JUMP JUMPDEST STOP JUMPDEST PUSH2 0x1CA PUSH2 0x592 JUMP JUMPDEST PUSH1 0x40 MLOAD PUSH2 0x1D7 SWAP2 SWAP1 PUSH2 0x5E20 JUMP JUMPDEST PUSH1 0x40 MLOAD DUP1 SWAP2 SUB SWAP1 RETURN JUMPDEST PUSH2 0x1C0 PUSH2 0x1EE CALLDATASIZE PUSH1 0x4 PUSH2 0x5297 JUMP JUMPDEST PUSH2 0x597 JUMP JUMPDEST PUSH2 0x1CA PUSH2 0x201 CALLDATASIZE PUSH1 0x4 PUSH2 0x504D JUMP JUMPDEST PUSH2 0x75D JUMP JUMPDEST PUSH2 0x1CA PUSH2 0x214 CALLDATASIZE PUSH1 0x4 PUSH2 0x504D JUMP JUMPDEST PUSH2 0x786 JUMP JUMPDEST PUSH2 0x1C0 PUSH2 0x227 CALLDATASIZE PUSH1 0x4 PUSH2 0x51EA JUMP JUMPDEST PUSH2 0x7A7 JUMP JUMPDEST PUSH2 0x23F PUSH2 0x23A CALLDATASIZE PUSH1 0x4 PUSH2 0x504D JUMP JUMPDEST PUSH2 0x979 JUMP JUMPDEST PUSH1 0x40 MLOAD PUSH2 0x1D7 SWAP2 SWAP1 PUSH2 0x5C24 JUMP JUMPDEST PUSH2 0x25F PUSH2 0x25A CALLDATASIZE PUSH1 0x4 PUSH2 0x504D JUMP JUMPDEST PUSH2 0x9AC JUMP JUMPDEST PUSH1 0x40 MLOAD PUSH2 0x1D7 SWAP2 SWAP1 PUSH2 0x5C2E JUMP JUMPDEST PUSH2 0x1C0 PUSH2 0x27A CALLDATASIZE PUSH1 0x4 PUSH2 0x5085 JUMP JUMPDEST PUSH2 0xA9D JUMP JUMPDEST PUSH2 0x1C0 PUSH2 0x28D CALLDATASIZE PUSH1 0x4 PUSH2 0x50BD JUMP JUMPDEST PUSH2 0xB8E JUMP JUMPDEST PUSH2 0x1CA PUSH2 0x2A0 CALLDATASIZE PUSH1 0x4 PUSH2 0x536C JUMP JUMPDEST PUSH2 0xD27 JUMP JUMPDEST PUSH2 0x1CA PUSH2 0x2B3 CALLDATASIZE PUSH1 0x4 PUSH2 0x52EF JUMP JUMPDEST PUSH2 0x1198 JUMP JUMPDEST PUSH2 0x1C0 PUSH2 0x1553 JUMP JUMPDEST PUSH2 0x1CA PUSH2 0x161D JUMP JUMPDEST PUSH2 0x1C0 PUSH2 0x2D6 CALLDATASIZE PUSH1 0x4 PUSH2 0x52C4 JUMP JUMPDEST PUSH2 0x1622 JUMP JUMPDEST PUSH2 0x1C0 PUSH2 0x2E9 CALLDATASIZE PUSH1 0x4 PUSH2 0x53B5 JUMP JUMPDEST PUSH2 0x1A20 JUMP JUMPDEST PUSH2 0x1C0 PUSH2 0x2FC CALLDATASIZE PUSH1 0x4 PUSH2 0x52C4 JUMP JUMPDEST PUSH2 0x1AA0 JUMP JUMPDEST PUSH2 0x1C0 PUSH2 0x30F CALLDATASIZE PUSH1 0x4 PUSH2 0x53F4 JUMP JUMPDEST PUSH2 0x1B7C JUMP JUMPDEST PUSH2 0x327 PUSH2 0x322 CALLDATASIZE PUSH1 0x4 PUSH2 0x504D JUMP JUMPDEST PUSH2 0x1CAF JUMP JUMPDEST PUSH1 0x40 MLOAD PUSH2 0x1D7 SWAP7 SWAP6 SWAP5 SWAP4 SWAP3 SWAP2 SWAP1 PUSH2 0x5E77 JUMP JUMPDEST PUSH2 0x1C0 PUSH2 0x347 CALLDATASIZE PUSH1 0x4 PUSH2 0x504D JUMP JUMPDEST PUSH2 0x1DAB JUMP JUMPDEST PUSH2 0x23F PUSH2 0x35A CALLDATASIZE PUSH1 0x4 PUSH2 0x504D JUMP JUMPDEST PUSH2 0x1E43 JUMP JUMPDEST PUSH2 0x1C0 PUSH2 0x36D CALLDATASIZE PUSH1 0x4 PUSH2 0x5085 JUMP JUMPDEST PUSH2 0x1E76 JUMP JUMPDEST PUSH2 0x1CA PUSH2 0x217D JUMP JUMPDEST PUSH2 0x1C0 PUSH2 0x388 CALLDATASIZE PUSH1 0x4 PUSH2 0x5330 JUMP JUMPDEST PUSH2 0x2182 JUMP JUMPDEST PUSH2 0x1C0 PUSH2 0x39B CALLDATASIZE PUSH1 0x4 PUSH2 0x5186 JUMP JUMPDEST PUSH2 0x2538 JUMP JUMPDEST PUSH2 0x3A8 PUSH2 0x2890 JUMP JUMPDEST PUSH1 0x40 MLOAD PUSH2 0x1D7 SWAP2 SWAP1 PUSH2 0x58F8 JUMP JUMPDEST PUSH2 0x1CA PUSH2 0x2935 JUMP JUMPDEST PUSH2 0x3C5 PUSH2 0x293B JUMP JUMPDEST PUSH1 0x34 SLOAD PUSH1 0x40 DUP1 MLOAD PUSH4 0x2C1A75CD PUSH1 0xE1 SHL DUP2 MSTORE SWAP1 MLOAD PUSH1 0x0 SWAP3 PUSH1 0x1 PUSH1 0x1 PUSH1 0xA0 SHL SUB AND SWAP2 PUSH4 0x5834EB9A SWAP2 PUSH1 0x4 DUP1 DUP4 ADD SWAP3 PUSH1 0x20 SWAP3 SWAP2 SWAP1 DUP3 SWAP1 SUB ADD DUP2 DUP7 DUP1 EXTCODESIZE ISZERO DUP1 ISZERO PUSH2 0x40A JUMPI PUSH1 0x0 DUP1 REVERT JUMPDEST POP GAS STATICCALL ISZERO DUP1 ISZERO PUSH2 0x41E JUMPI RETURNDATASIZE PUSH1 0x0 DUP1 RETURNDATACOPY RETURNDATASIZE PUSH1 0x0 REVERT JUMPDEST POP POP POP POP PUSH1 0x40 MLOAD RETURNDATASIZE PUSH1 0x1F NOT PUSH1 0x1F DUP3 ADD AND DUP3 ADD DUP1 PUSH1 0x40 MSTORE POP DUP2 ADD SWAP1 PUSH2 0x442 SWAP2 SWAP1 PUSH2 0x5069 JUMP JUMPDEST SWAP1 POP PUSH1 0x0 PUSH1 0x60 DUP3 PUSH1 0x1 PUSH1 0x1 PUSH1 0xA0 SHL SUB AND DUP9 DUP9 DUP9 DUP9 DUP9 PUSH1 0x40 MLOAD PUSH1 0x24 ADD PUSH2 0x46B SWAP6 SWAP5 SWAP4 SWAP3 SWAP2 SWAP1 PUSH2 0x56B5 JUMP JUMPDEST PUSH1 0x40 DUP1 MLOAD PUSH1 0x1F NOT DUP2 DUP5 SUB ADD DUP2 MSTORE SWAP2 DUP2 MSTORE PUSH1 0x20 DUP3 ADD DUP1 MLOAD PUSH1 0x1 PUSH1 0x1 PUSH1 0xE0 SHL SUB AND PUSH3 0xA718A9 PUSH1 0xE0 SHL OR SWAP1 MSTORE MLOAD PUSH2 0x49F SWAP2 SWAP1 PUSH2 0x55AA JUMP JUMPDEST PUSH1 0x0 PUSH1 0x40 MLOAD DUP1 DUP4 SUB DUP2 DUP6 GAS DELEGATECALL SWAP2 POP POP RETURNDATASIZE DUP1 PUSH1 0x0 DUP2 EQ PUSH2 0x4DA JUMPI PUSH1 0x40 MLOAD SWAP2 POP PUSH1 0x1F NOT PUSH1 0x3F RETURNDATASIZE ADD AND DUP3 ADD PUSH1 0x40 MSTORE RETURNDATASIZE DUP3 MSTORE RETURNDATASIZE PUSH1 0x0 PUSH1 0x20 DUP5 ADD RETURNDATACOPY PUSH2 0x4DF JUMP JUMPDEST PUSH1 0x60 SWAP2 POP JUMPDEST POP SWAP2 POP SWAP2 POP DUP2 PUSH1 0x40 MLOAD DUP1 PUSH1 0x40 ADD PUSH1 0x40 MSTORE DUP1 PUSH1 0x1 DUP2 MSTORE PUSH1 0x20 ADD PUSH1 0x33 PUSH1 0xF8 SHL DUP2 MSTORE POP SWAP1 PUSH2 0x526 JUMPI PUSH1 0x40 MLOAD PUSH3 0x461BCD PUSH1 0xE5 SHL DUP2 MSTORE PUSH1 0x4 ADD PUSH2 0x51D SWAP2 SWAP1 PUSH2 0x5953 JUMP JUMPDEST PUSH1 0x40 MLOAD DUP1 SWAP2 SUB SWAP1 REVERT JUMPDEST POP PUSH1 0x0 PUSH1 0x60 DUP3 DUP1 PUSH1 0x20 ADD SWAP1 MLOAD DUP2 ADD SWAP1 PUSH2 0x53F SWAP2 SWAP1 PUSH2 0x5444 JUMP JUMPDEST SWAP2 POP SWAP2 POP DUP2 PUSH1 0x0 EQ DUP2 PUSH1 0x40 MLOAD PUSH1 0x20 ADD PUSH2 0x558 SWAP2 SWAP1 PUSH2 0x55AA JUMP JUMPDEST PUSH1 0x40 MLOAD PUSH1 0x20 DUP2 DUP4 SUB SUB DUP2 MSTORE SWAP1 PUSH1 0x40 MSTORE SWAP1 PUSH2 0x585 JUMPI PUSH1 0x40 MLOAD PUSH3 0x461BCD PUSH1 0xE5 SHL DUP2 MSTORE PUSH1 0x4 ADD PUSH2 0x51D SWAP2 SWAP1 PUSH2 0x5953 JUMP JUMPDEST POP POP POP POP POP POP POP POP POP POP POP JUMP JUMPDEST PUSH1 0x5A DUP2 JUMP JUMPDEST PUSH2 0x59F PUSH2 0x293B JUMP JUMPDEST PUSH1 0x1 PUSH1 0x1 PUSH1 0xA0 SHL SUB DUP1 DUP4 AND PUSH1 0x0 SWAP1 DUP2 MSTORE PUSH1 0x39 PUSH1 0x20 DUP2 DUP2 MSTORE PUSH1 0x40 DUP1 DUP5 KECCAK256 CALLER DUP6 MSTORE PUSH1 0x3A DUP4 MSTORE SWAP4 DUP2 SWAP1 KECCAK256 PUSH1 0x3C SLOAD PUSH1 0x34 SLOAD DUP4 MLOAD PUSH4 0x1F94A275 PUSH1 0xE3 SHL DUP2 MSTORE SWAP4 MLOAD SWAP7 SWAP8 PUSH20 0x0 SWAP8 PUSH4 0xEFA388BE SWAP8 DUP11 SWAP8 DUP14 SWAP8 DUP14 SWAP8 SWAP3 SWAP7 SWAP3 SWAP6 PUSH1 0x3B SWAP6 SWAP4 SWAP5 SWAP4 AND SWAP3 PUSH4 0xFCA513A8 SWAP3 PUSH1 0x4 DUP1 DUP5 ADD SWAP4 SWAP2 SWAP3 SWAP2 DUP3 SWAP1 SUB ADD DUP2 DUP7 DUP1 EXTCODESIZE ISZERO DUP1 ISZERO PUSH2 0x62D JUMPI PUSH1 0x0 DUP1 REVERT JUMPDEST POP GAS STATICCALL ISZERO DUP1 ISZERO PUSH2 0x641 JUMPI RETURNDATASIZE PUSH1 0x0 DUP1 RETURNDATACOPY RETURNDATASIZE PUSH1 0x0 REVERT JUMPDEST POP POP POP POP PUSH1 0x40 MLOAD RETURNDATASIZE PUSH1 0x1F NOT PUSH1 0x1F DUP3 ADD AND DUP3 ADD DUP1 PUSH1 0x40 MSTORE POP DUP2 ADD SWAP1 PUSH2 0x665 SWAP2 SWAP1 PUSH2 0x5069 JUMP JUMPDEST PUSH1 0x40 MLOAD DUP10 PUSH4 0xFFFFFFFF AND PUSH1 0xE0 SHL DUP2 MSTORE PUSH1 0x4 ADD PUSH2 0x688 SWAP9 SWAP8 SWAP7 SWAP6 SWAP5 SWAP4 SWAP3 SWAP2 SWAP1 PUSH2 0x5D64 JUMP JUMPDEST PUSH1 0x0 PUSH1 0x40 MLOAD DUP1 DUP4 SUB DUP2 DUP7 DUP1 EXTCODESIZE ISZERO DUP1 ISZERO PUSH2 0x6A0 JUMPI PUSH1 0x0 DUP1 REVERT JUMPDEST POP GAS DELEGATECALL ISZERO DUP1 ISZERO PUSH2 0x6B4 JUMPI RETURNDATASIZE PUSH1 0x0 DUP1 RETURNDATACOPY RETURNDATASIZE PUSH1 0x0 REVERT JUMPDEST POP POP POP POP PUSH1 0x7 DUP2 ADD SLOAD CALLER PUSH1 0x0 SWAP1 DUP2 MSTORE PUSH1 0x3A PUSH1 0x20 MSTORE PUSH1 0x40 SWAP1 KECCAK256 PUSH2 0x6E0 SWAP2 PUSH1 0x1 PUSH1 0xA0 SHL SWAP1 DIV PUSH1 0xFF AND DUP5 PUSH2 0x2978 JUMP JUMPDEST DUP2 ISZERO PUSH2 0x721 JUMPI PUSH1 0x40 MLOAD CALLER SWAP1 PUSH1 0x1 PUSH1 0x1 PUSH1 0xA0 SHL SUB DUP6 AND SWAP1 PUSH32 0xFA277DA50DDC7CCDFA45B85B1F26C78FE2D562FFE054ABC05A44D7E08CD0DDA SWAP1 PUSH1 0x0 SWAP1 LOG3 PUSH2 0x758 JUMP JUMPDEST PUSH1 0x40 MLOAD CALLER SWAP1 PUSH1 0x1 PUSH1 0x1 PUSH1 0xA0 SHL SUB DUP6 AND SWAP1 PUSH32 0x5F0DBED5D3DAC715152B6B58C69A80D2ED41075ED413E35B7379025A642EF0D6 SWAP1 PUSH1 0x0 SWAP1 LOG3 JUMPDEST POP POP POP JUMP JUMPDEST PUSH1 0x1 PUSH1 0x1 PUSH1 0xA0 SHL SUB DUP2 AND PUSH1 0x0 SWAP1 DUP2 MSTORE PUSH1 0x39 PUSH1 0x20 MSTORE PUSH1 0x40 DUP2 KECCAK256 PUSH2 0x77E SWAP1 PUSH2 0x29D3 JUMP JUMPDEST SWAP1 POP JUMPDEST SWAP2 SWAP1 POP JUMP JUMPDEST PUSH1 0x1 PUSH1 0x1 PUSH1 0xA0 SHL SUB DUP2 AND PUSH1 0x0 SWAP1 DUP2 MSTORE PUSH1 0x39 PUSH1 0x20 MSTORE PUSH1 0x40 DUP2 KECCAK256 PUSH2 0x77E SWAP1 PUSH2 0x2A48 JUMP JUMPDEST PUSH2 0x7AF PUSH2 0x293B JUMP JUMPDEST PUSH1 0x34 SLOAD PUSH1 0x40 DUP1 MLOAD PUSH4 0x2C1A75CD PUSH1 0xE1 SHL DUP2 MSTORE SWAP1 MLOAD PUSH1 0x0 SWAP3 PUSH1 0x1 PUSH1 0x1 PUSH1 0xA0 SHL SUB AND SWAP2 PUSH4 0x5834EB9A SWAP2 PUSH1 0x4 DUP1 DUP4 ADD SWAP3 PUSH1 0x20 SWAP3 SWAP2 SWAP1 DUP3 SWAP1 SUB ADD DUP2 DUP7 DUP1 EXTCODESIZE ISZERO DUP1 ISZERO PUSH2 0x7F4 JUMPI PUSH1 0x0 DUP1 REVERT JUMPDEST POP GAS STATICCALL ISZERO DUP1 ISZERO PUSH2 0x808 JUMPI RETURNDATASIZE PUSH1 0x0 DUP1 RETURNDATACOPY RETURNDATASIZE PUSH1 0x0 REVERT JUMPDEST POP POP POP POP PUSH1 0x40 MLOAD RETURNDATASIZE PUSH1 0x1F NOT PUSH1 0x1F DUP3 ADD AND DUP3 ADD DUP1 PUSH1 0x40 MSTORE POP DUP2 ADD SWAP1 PUSH2 0x82C SWAP2 SWAP1 PUSH2 0x5069 JUMP JUMPDEST SWAP1 POP PUSH1 0x0 PUSH1 0x60 DUP3 PUSH1 0x1 PUSH1 0x1 PUSH1 0xA0 SHL SUB AND CALLER DUP11 DUP11 DUP11 DUP11 DUP11 DUP11 PUSH1 0x40 MLOAD PUSH1 0x24 ADD PUSH2 0x859 SWAP8 SWAP7 SWAP6 SWAP5 SWAP4 SWAP3 SWAP2 SWAP1 PUSH2 0x560B JUMP JUMPDEST PUSH1 0x40 DUP1 MLOAD PUSH1 0x1F NOT DUP2 DUP5 SUB ADD DUP2 MSTORE SWAP2 DUP2 MSTORE PUSH1 0x20 DUP3 ADD DUP1 MLOAD PUSH1 0x1 PUSH1 0x1 PUSH1 0xE0 SHL SUB AND PUSH4 0xA16A10BD PUSH1 0xE0 SHL OR SWAP1 MSTORE MLOAD PUSH2 0x88E SWAP2 SWAP1 PUSH2 0x55AA JUMP JUMPDEST PUSH1 0x0 PUSH1 0x40 MLOAD DUP1 DUP4 SUB DUP2 DUP6 GAS DELEGATECALL SWAP2 POP POP RETURNDATASIZE DUP1 PUSH1 0x0 DUP2 EQ PUSH2 0x8C9 JUMPI PUSH1 0x40 MLOAD SWAP2 POP PUSH1 0x1F NOT PUSH1 0x3F RETURNDATASIZE ADD AND DUP3 ADD PUSH1 0x40 MSTORE RETURNDATASIZE DUP3 MSTORE RETURNDATASIZE PUSH1 0x0 PUSH1 0x20 DUP5 ADD RETURNDATACOPY PUSH2 0x8CE JUMP JUMPDEST PUSH1 0x60 SWAP2 POP JUMPDEST POP SWAP2 POP SWAP2 POP DUP2 PUSH1 0x40 MLOAD DUP1 PUSH1 0x40 ADD PUSH1 0x40 MSTORE DUP1 PUSH1 0x1 DUP2 MSTORE PUSH1 0x20 ADD PUSH1 0x33 PUSH1 0xF8 SHL DUP2 MSTORE POP SWAP1 PUSH2 0x90C JUMPI PUSH1 0x40 MLOAD PUSH3 0x461BCD PUSH1 0xE5 SHL DUP2 MSTORE PUSH1 0x4 ADD PUSH2 0x51D SWAP2 SWAP1 PUSH2 0x5953 JUMP JUMPDEST POP PUSH1 0x0 PUSH1 0x60 DUP3 DUP1 PUSH1 0x20 ADD SWAP1 MLOAD DUP2 ADD SWAP1 PUSH2 0x925 SWAP2 SWAP1 PUSH2 0x5444 JUMP JUMPDEST SWAP2 POP SWAP2 POP DUP2 PUSH1 0x0 EQ DUP2 PUSH1 0x40 MLOAD PUSH1 0x20 ADD PUSH2 0x93E SWAP2 SWAP1 PUSH2 0x55AA JUMP JUMPDEST PUSH1 0x40 MLOAD PUSH1 0x20 DUP2 DUP4 SUB SUB DUP2 MSTORE SWAP1 PUSH1 0x40 MSTORE SWAP1 PUSH2 0x96B JUMPI PUSH1 0x40 MLOAD PUSH3 0x461BCD PUSH1 0xE5 SHL DUP2 MSTORE PUSH1 0x4 ADD PUSH2 0x51D SWAP2 SWAP1 PUSH2 0x5953 JUMP JUMPDEST POP POP POP POP POP POP POP POP POP POP POP POP JUMP JUMPDEST PUSH2 0x981 PUSH2 0x4E3C JUMP JUMPDEST POP PUSH1 0x1 PUSH1 0x1 PUSH1 0xA0 SHL SUB AND PUSH1 0x0 SWAP1 DUP2 MSTORE PUSH1 0x3A PUSH1 0x20 SWAP1 DUP2 MSTORE PUSH1 0x40 SWAP2 DUP3 SWAP1 KECCAK256 DUP3 MLOAD SWAP2 DUP3 ADD SWAP1 SWAP3 MSTORE SWAP1 SLOAD DUP2 MSTORE SWAP1 JUMP JUMPDEST PUSH2 0x9B4 PUSH2 0x4E4F JUMP JUMPDEST POP PUSH1 0x1 PUSH1 0x1 PUSH1 0xA0 SHL SUB SWAP1 DUP2 AND PUSH1 0x0 SWAP1 DUP2 MSTORE PUSH1 0x39 PUSH1 0x20 SWAP1 DUP2 MSTORE PUSH1 0x40 SWAP2 DUP3 SWAP1 KECCAK256 DUP3 MLOAD PUSH2 0x1C0 DUP2 ADD DUP5 MSTORE DUP2 SLOAD PUSH2 0x1A0 DUP3 ADD SWAP1 DUP2 MSTORE DUP2 MSTORE PUSH1 0x1 DUP3 ADD SLOAD PUSH1 0x1 PUSH1 0x1 PUSH1 0x80 SHL SUB DUP1 DUP3 AND SWAP5 DUP4 ADD SWAP5 SWAP1 SWAP5 MSTORE PUSH1 0x1 PUSH1 0x80 SHL SWAP1 DUP2 SWAP1 DIV DUP5 AND SWAP5 DUP3 ADD SWAP5 SWAP1 SWAP5 MSTORE PUSH1 0x2 DUP3 ADD SLOAD DUP1 DUP5 AND PUSH1 0x60 DUP4 ADD MSTORE DUP5 SWAP1 DIV DUP4 AND PUSH1 0x80 DUP3 ADD MSTORE PUSH1 0x3 DUP3 ADD SLOAD SWAP3 DUP4 AND PUSH1 0xA0 DUP3 ADD MSTORE SWAP3 SWAP1 SWAP2 DIV PUSH5 0xFFFFFFFFFF AND PUSH1 0xC0 DUP4 ADD MSTORE PUSH1 0x4 DUP2 ADD SLOAD DUP4 AND PUSH1 0xE0 DUP4 ADD MSTORE PUSH1 0x5 DUP2 ADD SLOAD DUP4 AND PUSH2 0x100 DUP4 ADD MSTORE PUSH1 0x6 DUP2 ADD SLOAD DUP4 AND PUSH2 0x120 DUP4 ADD MSTORE PUSH1 0x7 ADD SLOAD SWAP2 DUP3 AND PUSH2 0x140 DUP3 ADD MSTORE PUSH1 0x1 PUSH1 0xA0 SHL DUP3 DIV PUSH1 0xFF SWAP1 DUP2 AND PUSH2 0x160 DUP4 ADD MSTORE PUSH1 0x1 PUSH1 0xA8 SHL SWAP1 SWAP3 DIV SWAP1 SWAP2 AND PUSH2 0x180 DUP3 ADD MSTORE SWAP1 JUMP JUMPDEST PUSH1 0x34 SLOAD PUSH1 0x40 DUP1 MLOAD PUSH4 0x85C858B1 PUSH1 0xE0 SHL DUP2 MSTORE SWAP1 MLOAD CALLER SWAP3 PUSH1 0x1 PUSH1 0x1 PUSH1 0xA0 SHL SUB AND SWAP2 PUSH4 0x85C858B1 SWAP2 PUSH1 0x4 DUP1 DUP4 ADD SWAP3 PUSH1 0x20 SWAP3 SWAP2 SWAP1 DUP3 SWAP1 SUB ADD DUP2 DUP7 DUP1 EXTCODESIZE ISZERO DUP1 ISZERO PUSH2 0xAE1 JUMPI PUSH1 0x0 DUP1 REVERT JUMPDEST POP GAS STATICCALL ISZERO DUP1 ISZERO PUSH2 0xAF5 JUMPI RETURNDATASIZE PUSH1 0x0 DUP1 RETURNDATACOPY RETURNDATASIZE PUSH1 0x0 REVERT JUMPDEST POP POP POP POP PUSH1 0x40 MLOAD RETURNDATASIZE PUSH1 0x1F NOT PUSH1 0x1F DUP3 ADD AND DUP3 ADD DUP1 PUSH1 0x40 MSTORE POP DUP2 ADD SWAP1 PUSH2 0xB19 SWAP2 SWAP1 PUSH2 0x5069 JUMP JUMPDEST PUSH1 0x1 PUSH1 0x1 PUSH1 0xA0 SHL SUB AND EQ PUSH1 0x40 MLOAD DUP1 PUSH1 0x40 ADD PUSH1 0x40 MSTORE DUP1 PUSH1 0x2 DUP2 MSTORE PUSH1 0x20 ADD PUSH2 0x3333 PUSH1 0xF0 SHL DUP2 MSTORE POP SWAP1 PUSH2 0xB5C JUMPI PUSH1 0x40 MLOAD PUSH3 0x461BCD PUSH1 0xE5 SHL DUP2 MSTORE PUSH1 0x4 ADD PUSH2 0x51D SWAP2 SWAP1 PUSH2 0x5953 JUMP JUMPDEST POP PUSH1 0x1 PUSH1 0x1 PUSH1 0xA0 SHL SUB SWAP2 DUP3 AND PUSH1 0x0 SWAP1 DUP2 MSTORE PUSH1 0x39 PUSH1 0x20 MSTORE PUSH1 0x40 SWAP1 KECCAK256 PUSH1 0x7 ADD DUP1 SLOAD PUSH1 0x1 PUSH1 0x1 PUSH1 0xA0 SHL SUB NOT AND SWAP2 SWAP1 SWAP3 AND OR SWAP1 SSTORE JUMP JUMPDEST PUSH1 0x34 SLOAD PUSH1 0x40 DUP1 MLOAD PUSH4 0x85C858B1 PUSH1 0xE0 SHL DUP2 MSTORE SWAP1 MLOAD CALLER SWAP3 PUSH1 0x1 PUSH1 0x1 PUSH1 0xA0 SHL SUB AND SWAP2 PUSH4 0x85C858B1 SWAP2 PUSH1 0x4 DUP1 DUP4 ADD SWAP3 PUSH1 0x20 SWAP3 SWAP2 SWAP1 DUP3 SWAP1 SUB ADD DUP2 DUP7 DUP1 EXTCODESIZE ISZERO DUP1 ISZERO PUSH2 0xBD2 JUMPI PUSH1 0x0 DUP1 REVERT JUMPDEST POP GAS STATICCALL ISZERO DUP1 ISZERO PUSH2 0xBE6 JUMPI RETURNDATASIZE PUSH1 0x0 DUP1 RETURNDATACOPY RETURNDATASIZE PUSH1 0x0 REVERT JUMPDEST POP POP POP POP PUSH1 0x40 MLOAD RETURNDATASIZE PUSH1 0x1F NOT PUSH1 0x1F DUP3 ADD AND DUP3 ADD DUP1 PUSH1 0x40 MSTORE POP DUP2 ADD SWAP1 PUSH2 0xC0A SWAP2 SWAP1 PUSH2 0x5069 JUMP JUMPDEST PUSH1 0x1 PUSH1 0x1 PUSH1 0xA0 SHL SUB AND EQ PUSH1 0x40 MLOAD DUP1 PUSH1 0x40 ADD PUSH1 0x40 MSTORE DUP1 PUSH1 0x2 DUP2 MSTORE PUSH1 0x20 ADD PUSH2 0x3333 PUSH1 0xF0 SHL DUP2 MSTORE POP SWAP1 PUSH2 0xC4D JUMPI PUSH1 0x40 MLOAD PUSH3 0x461BCD PUSH1 0xE5 SHL DUP2 MSTORE PUSH1 0x4 ADD PUSH2 0x51D SWAP2 SWAP1 PUSH2 0x5953 JUMP JUMPDEST POP PUSH2 0xC57 DUP6 PUSH2 0x2AA7 JUMP JUMPDEST PUSH1 0x40 MLOAD DUP1 PUSH1 0x40 ADD PUSH1 0x40 MSTORE DUP1 PUSH1 0x1 DUP2 MSTORE PUSH1 0x20 ADD PUSH1 0x1B PUSH1 0xF9 SHL DUP2 MSTORE POP SWAP1 PUSH2 0xC8F JUMPI PUSH1 0x40 MLOAD PUSH3 0x461BCD PUSH1 0xE5 SHL DUP2 MSTORE PUSH1 0x4 ADD PUSH2 0x51D SWAP2 SWAP1 PUSH2 0x5953 JUMP JUMPDEST POP PUSH1 0x1 PUSH1 0x1 PUSH1 0xA0 SHL SUB DUP6 AND PUSH1 0x0 SWAP1 DUP2 MSTORE PUSH1 0x39 PUSH1 0x20 MSTORE PUSH1 0x40 SWAP1 DUP2 SWAP1 KECCAK256 SWAP1 MLOAD PUSH4 0x349F0E5 PUSH1 0xE3 SHL DUP2 MSTORE PUSH20 0x0 SWAP2 PUSH4 0x1A4F8728 SWAP2 PUSH2 0xCE7 SWAP2 SWAP1 DUP9 SWAP1 DUP9 SWAP1 DUP9 SWAP1 DUP9 SWAP1 PUSH1 0x4 ADD PUSH2 0x5D36 JUMP JUMPDEST PUSH1 0x0 PUSH1 0x40 MLOAD DUP1 DUP4 SUB DUP2 DUP7 DUP1 EXTCODESIZE ISZERO DUP1 ISZERO PUSH2 0xCFF JUMPI PUSH1 0x0 DUP1 REVERT JUMPDEST POP GAS DELEGATECALL ISZERO DUP1 ISZERO PUSH2 0xD13 JUMPI RETURNDATASIZE PUSH1 0x0 DUP1 RETURNDATACOPY RETURNDATASIZE PUSH1 0x0 REVERT JUMPDEST POP POP POP POP PUSH2 0xD20 DUP6 PUSH2 0x2AAD JUMP JUMPDEST POP POP POP POP POP JUMP JUMPDEST PUSH1 0x0 PUSH2 0xD31 PUSH2 0x293B JUMP JUMPDEST PUSH1 0x1 PUSH1 0x1 PUSH1 0xA0 SHL SUB DUP6 AND PUSH1 0x0 SWAP1 DUP2 MSTORE PUSH1 0x39 PUSH1 0x20 MSTORE PUSH1 0x40 SWAP1 KECCAK256 PUSH2 0xD51 PUSH2 0x4EC2 JUMP JUMPDEST PUSH2 0xD5B DUP5 DUP4 PUSH2 0x2BB3 JUMP JUMPDEST PUSH1 0x60 DUP4 ADD MSTORE PUSH1 0x40 DUP3 ADD MSTORE DUP5 PUSH1 0x2 DUP2 GT ISZERO PUSH2 0xD71 JUMPI INVALID JUMPDEST DUP2 SWAP1 PUSH1 0x2 DUP2 GT ISZERO PUSH2 0xD7E JUMPI INVALID JUMPDEST SWAP1 DUP2 PUSH1 0x2 DUP2 GT ISZERO PUSH2 0xD8B JUMPI INVALID JUMPDEST SWAP1 MSTORE POP DUP1 MLOAD PUSH1 0x40 DUP1 DUP4 ADD MLOAD PUSH1 0x60 DUP5 ADD MLOAD SWAP2 MLOAD PUSH4 0x73721F8D PUSH1 0xE0 SHL DUP2 MSTORE PUSH20 0x0 SWAP4 PUSH4 0x73721F8D SWAP4 PUSH2 0xDD7 SWAP4 DUP9 SWAP4 DUP14 SWAP4 SWAP3 DUP13 SWAP3 SWAP2 PUSH1 0x4 ADD PUSH2 0x5DDC JUMP JUMPDEST PUSH1 0x0 PUSH1 0x40 MLOAD DUP1 DUP4 SUB DUP2 DUP7 DUP1 EXTCODESIZE ISZERO DUP1 ISZERO PUSH2 0xDEF JUMPI PUSH1 0x0 DUP1 REVERT JUMPDEST POP GAS DELEGATECALL ISZERO DUP1 ISZERO PUSH2 0xE03 JUMPI RETURNDATASIZE PUSH1 0x0 DUP1 RETURNDATACOPY RETURNDATASIZE PUSH1 0x0 REVERT JUMPDEST POP PUSH1 0x1 SWAP3 POP PUSH2 0xE10 SWAP2 POP POP JUMP JUMPDEST DUP2 MLOAD PUSH1 0x2 DUP2 GT ISZERO PUSH2 0xE1D JUMPI INVALID JUMPDEST EQ PUSH2 0xE2C JUMPI DUP1 PUSH1 0x60 ADD MLOAD PUSH2 0xE32 JUMP JUMPDEST DUP1 PUSH1 0x40 ADD MLOAD JUMPDEST PUSH1 0x80 DUP3 ADD MSTORE PUSH1 0x38 SLOAD PUSH1 0x37 SLOAD PUSH2 0xE5D SWAP2 DUP5 SWAP2 CALLER SWAP2 DUP9 SWAP2 DUP13 SWAP2 DUP13 SWAP2 PUSH1 0x1 PUSH1 0x1 PUSH1 0xA0 SHL SUB SWAP2 DUP3 AND SWAP2 AND PUSH2 0x2CC7 JUMP JUMPDEST PUSH1 0x20 DUP4 ADD MSTORE SWAP6 POP DUP6 PUSH2 0xED0 JUMPI CALLER PUSH1 0x1 PUSH1 0x1 PUSH1 0xA0 SHL SUB AND DUP5 PUSH1 0x1 PUSH1 0x1 PUSH1 0xA0 SHL SUB AND DUP9 PUSH1 0x1 PUSH1 0x1 PUSH1 0xA0 SHL SUB AND PUSH32 0x81CFB79463601DE705D4CF6B8D69112983D76A685120E5E4D3581F30871B87FC PUSH1 0x0 DUP6 PUSH1 0x20 ADD MLOAD PUSH1 0x40 MLOAD PUSH2 0xEBD SWAP3 SWAP2 SWAP1 PUSH2 0x5945 JUMP JUMPDEST PUSH1 0x40 MLOAD DUP1 SWAP2 SUB SWAP1 LOG4 PUSH1 0x0 SWAP3 POP POP POP PUSH2 0x1190 JUMP JUMPDEST DUP1 PUSH1 0x80 ADD MLOAD DUP7 LT ISZERO PUSH2 0xEE4 JUMPI PUSH1 0x80 DUP2 ADD DUP7 SWAP1 MSTORE JUMPDEST PUSH1 0x37 SLOAD PUSH2 0xEFB SWAP1 DUP4 SWAP1 PUSH1 0x1 PUSH1 0x1 PUSH1 0xA0 SHL SUB AND PUSH2 0x2F8D JUMP JUMPDEST PUSH1 0x35 SLOAD PUSH1 0x40 MLOAD PUSH4 0xF8A56CD PUSH1 0xE3 SHL DUP2 MSTORE PUSH1 0x1 PUSH1 0x1 PUSH1 0xA0 SHL SUB SWAP1 SWAP2 AND SWAP1 PUSH4 0x7C52B668 SWAP1 PUSH2 0xF2B SWAP1 DUP11 SWAP1 PUSH1 0x4 ADD PUSH2 0x55C6 JUMP JUMPDEST PUSH1 0x20 PUSH1 0x40 MLOAD DUP1 DUP4 SUB DUP2 PUSH1 0x0 DUP8 DUP1 EXTCODESIZE ISZERO DUP1 ISZERO PUSH2 0xF45 JUMPI PUSH1 0x0 DUP1 REVERT JUMPDEST POP GAS CALL ISZERO DUP1 ISZERO PUSH2 0xF59 JUMPI RETURNDATASIZE PUSH1 0x0 DUP1 RETURNDATACOPY RETURNDATASIZE PUSH1 0x0 REVERT JUMPDEST POP POP POP POP PUSH1 0x40 MLOAD RETURNDATASIZE PUSH1 0x1F NOT PUSH1 0x1F DUP3 ADD AND DUP3 ADD DUP1 PUSH1 0x40 MSTORE POP DUP2 ADD SWAP1 PUSH2 0xF7D SWAP2 SWAP1 PUSH2 0x5410 JUMP JUMPDEST POP PUSH1 0x1 DUP2 MLOAD PUSH1 0x2 DUP2 GT ISZERO PUSH2 0xF8D JUMPI INVALID JUMPDEST EQ ISZERO PUSH2 0x1002 JUMPI PUSH1 0x5 DUP3 ADD SLOAD PUSH1 0x80 DUP3 ADD MLOAD PUSH1 0x40 MLOAD PUSH4 0x2770A7EB PUSH1 0xE2 SHL DUP2 MSTORE PUSH1 0x1 PUSH1 0x1 PUSH1 0xA0 SHL SUB SWAP1 SWAP3 AND SWAP2 PUSH4 0x9DC29FAC SWAP2 PUSH2 0xFCB SWAP2 DUP9 SWAP2 SWAP1 PUSH1 0x4 ADD PUSH2 0x5672 JUMP JUMPDEST PUSH1 0x0 PUSH1 0x40 MLOAD DUP1 DUP4 SUB DUP2 PUSH1 0x0 DUP8 DUP1 EXTCODESIZE ISZERO DUP1 ISZERO PUSH2 0xFE5 JUMPI PUSH1 0x0 DUP1 REVERT JUMPDEST POP GAS CALL ISZERO DUP1 ISZERO PUSH2 0xFF9 JUMPI RETURNDATASIZE PUSH1 0x0 DUP1 RETURNDATACOPY RETURNDATASIZE PUSH1 0x0 REVERT JUMPDEST POP POP POP POP PUSH2 0x1083 JUMP JUMPDEST PUSH1 0x6 DUP3 ADD SLOAD PUSH1 0x80 DUP3 ADD MLOAD PUSH1 0x1 DUP5 ADD SLOAD PUSH1 0x40 MLOAD PUSH4 0x7A94C565 PUSH1 0xE1 SHL DUP2 MSTORE PUSH1 0x1 PUSH1 0x1 PUSH1 0xA0 SHL SUB SWAP1 SWAP4 AND SWAP3 PUSH4 0xF5298ACA SWAP3 PUSH2 0x1050 SWAP3 DUP10 SWAP3 PUSH1 0x1 PUSH1 0x80 SHL SWAP1 SWAP2 DIV PUSH1 0x1 PUSH1 0x1 PUSH1 0x80 SHL SUB AND SWAP1 PUSH1 0x4 ADD PUSH2 0x568B JUMP JUMPDEST PUSH1 0x0 PUSH1 0x40 MLOAD DUP1 DUP4 SUB DUP2 PUSH1 0x0 DUP8 DUP1 EXTCODESIZE ISZERO DUP1 ISZERO PUSH2 0x106A JUMPI PUSH1 0x0 DUP1 REVERT JUMPDEST POP GAS CALL ISZERO DUP1 ISZERO PUSH2 0x107E JUMPI RETURNDATASIZE PUSH1 0x0 DUP1 RETURNDATACOPY RETURNDATASIZE PUSH1 0x0 REVERT JUMPDEST POP POP POP POP JUMPDEST PUSH1 0x4 DUP3 ADD SLOAD PUSH1 0x80 DUP3 ADD MLOAD PUSH1 0x1 PUSH1 0x1 PUSH1 0xA0 SHL SUB SWAP1 SWAP2 AND SWAP1 PUSH2 0x10AA SWAP1 DUP5 SWAP1 DUP11 SWAP1 DUP5 SWAP1 PUSH1 0x0 PUSH2 0x3065 JUMP JUMPDEST PUSH2 0x10D3 DUP3 PUSH1 0x80 ADD MLOAD PUSH2 0x10CD DUP5 PUSH1 0x60 ADD MLOAD DUP6 PUSH1 0x40 ADD MLOAD PUSH2 0x3457 SWAP1 SWAP2 SWAP1 PUSH4 0xFFFFFFFF AND JUMP JUMPDEST SWAP1 PUSH2 0x3485 JUMP JUMPDEST PUSH2 0x110B JUMPI PUSH1 0x7 DUP4 ADD SLOAD PUSH1 0x1 PUSH1 0x1 PUSH1 0xA0 SHL SUB DUP7 AND PUSH1 0x0 SWAP1 DUP2 MSTORE PUSH1 0x3A PUSH1 0x20 MSTORE PUSH1 0x40 DUP2 KECCAK256 PUSH2 0x110B SWAP3 SWAP1 SWAP2 PUSH1 0x1 PUSH1 0xA0 SHL SWAP1 SWAP2 DIV PUSH1 0xFF AND SWAP1 PUSH2 0x34C7 JUMP JUMPDEST PUSH1 0x80 DUP3 ADD MLOAD PUSH2 0x1128 SWAP1 PUSH1 0x1 PUSH1 0x1 PUSH1 0xA0 SHL SUB DUP11 AND SWAP1 CALLER SWAP1 DUP5 SWAP1 PUSH2 0x351C JUMP JUMPDEST CALLER PUSH1 0x1 PUSH1 0x1 PUSH1 0xA0 SHL SUB AND DUP6 PUSH1 0x1 PUSH1 0x1 PUSH1 0xA0 SHL SUB AND DUP10 PUSH1 0x1 PUSH1 0x1 PUSH1 0xA0 SHL SUB AND PUSH32 0x81CFB79463601DE705D4CF6B8D69112983D76A685120E5E4D3581F30871B87FC DUP6 PUSH1 0x80 ADD MLOAD DUP7 PUSH1 0x20 ADD MLOAD PUSH1 0x40 MLOAD PUSH2 0x117F SWAP3 SWAP2 SWAP1 PUSH2 0x5945 JUMP JUMPDEST PUSH1 0x40 MLOAD DUP1 SWAP2 SUB SWAP1 LOG4 POP PUSH1 0x80 ADD MLOAD SWAP2 POP POP JUMPDEST SWAP5 SWAP4 POP POP POP POP JUMP JUMPDEST PUSH1 0x0 PUSH2 0x11A2 PUSH2 0x293B JUMP JUMPDEST PUSH1 0x1 PUSH1 0x1 PUSH1 0xA0 SHL SUB DUP1 DUP6 AND PUSH1 0x0 SWAP1 DUP2 MSTORE PUSH1 0x39 PUSH1 0x20 MSTORE PUSH1 0x40 DUP1 DUP3 KECCAK256 PUSH1 0x4 DUP1 DUP3 ADD SLOAD SWAP3 MLOAD PUSH4 0x70A08231 PUSH1 0xE0 SHL DUP2 MSTORE SWAP2 SWAP5 SWAP3 SWAP1 SWAP3 AND SWAP3 SWAP2 DUP4 SWAP2 PUSH4 0x70A08231 SWAP2 PUSH2 0x11EA SWAP2 CALLER SWAP2 ADD PUSH2 0x55C6 JUMP JUMPDEST PUSH1 0x20 PUSH1 0x40 MLOAD DUP1 DUP4 SUB DUP2 DUP7 DUP1 EXTCODESIZE ISZERO DUP1 ISZERO PUSH2 0x1202 JUMPI PUSH1 0x0 DUP1 REVERT JUMPDEST POP GAS STATICCALL ISZERO DUP1 ISZERO PUSH2 0x1216 JUMPI RETURNDATASIZE PUSH1 0x0 DUP1 RETURNDATACOPY RETURNDATASIZE PUSH1 0x0 REVERT JUMPDEST POP POP POP POP PUSH1 0x40 MLOAD RETURNDATASIZE PUSH1 0x1F NOT PUSH1 0x1F DUP3 ADD AND DUP3 ADD DUP1 PUSH1 0x40 MSTORE POP DUP2 ADD SWAP1 PUSH2 0x123A SWAP2 SWAP1 PUSH2 0x542C JUMP JUMPDEST SWAP1 POP DUP6 PUSH1 0x0 NOT DUP2 EQ ISZERO PUSH2 0x124A JUMPI POP DUP1 JUMPDEST PUSH20 0x0 PUSH4 0x655F0BD8 DUP10 DUP4 DUP6 PUSH1 0x39 PUSH1 0x3A PUSH1 0x0 CALLER PUSH1 0x1 PUSH1 0x1 PUSH1 0xA0 SHL SUB AND PUSH1 0x1 PUSH1 0x1 PUSH1 0xA0 SHL SUB AND DUP2 MSTORE PUSH1 0x20 ADD SWAP1 DUP2 MSTORE PUSH1 0x20 ADD PUSH1 0x0 KECCAK256 PUSH1 0x3B PUSH1 0x3C SLOAD PUSH1 0x34 PUSH1 0x0 SWAP1 SLOAD SWAP1 PUSH2 0x100 EXP SWAP1 DIV PUSH1 0x1 PUSH1 0x1 PUSH1 0xA0 SHL SUB AND PUSH1 0x1 PUSH1 0x1 PUSH1 0xA0 SHL SUB AND PUSH4 0xFCA513A8 PUSH1 0x40 MLOAD DUP2 PUSH4 0xFFFFFFFF AND PUSH1 0xE0 SHL DUP2 MSTORE PUSH1 0x4 ADD PUSH1 0x20 PUSH1 0x40 MLOAD DUP1 DUP4 SUB DUP2 DUP7 DUP1 EXTCODESIZE ISZERO DUP1 ISZERO PUSH2 0x12E1 JUMPI PUSH1 0x0 DUP1 REVERT JUMPDEST POP GAS STATICCALL ISZERO DUP1 ISZERO PUSH2 0x12F5 JUMPI RETURNDATASIZE PUSH1 0x0 DUP1 RETURNDATACOPY RETURNDATASIZE PUSH1 0x0 REVERT JUMPDEST POP POP POP POP PUSH1 0x40 MLOAD RETURNDATASIZE PUSH1 0x1F NOT PUSH1 0x1F DUP3 ADD AND DUP3 ADD DUP1 PUSH1 0x40 MSTORE POP DUP2 ADD SWAP1 PUSH2 0x1319 SWAP2 SWAP1 PUSH2 0x5069 JUMP JUMPDEST PUSH1 0x40 MLOAD DUP10 PUSH4 0xFFFFFFFF AND PUSH1 0xE0 SHL DUP2 MSTORE PUSH1 0x4 ADD PUSH2 0x133C SWAP9 SWAP8 SWAP7 SWAP6 SWAP5 SWAP4 SWAP3 SWAP2 SWAP1 PUSH2 0x5859 JUMP JUMPDEST PUSH1 0x0 PUSH1 0x40 MLOAD DUP1 DUP4 SUB DUP2 DUP7 DUP1 EXTCODESIZE ISZERO DUP1 ISZERO PUSH2 0x1354 JUMPI PUSH1 0x0 DUP1 REVERT JUMPDEST POP GAS DELEGATECALL ISZERO DUP1 ISZERO PUSH2 0x1368 JUMPI RETURNDATASIZE PUSH1 0x0 DUP1 RETURNDATACOPY RETURNDATASIZE PUSH1 0x0 REVERT JUMPDEST POP POP PUSH1 0x37 SLOAD PUSH2 0x1383 SWAP3 POP DUP7 SWAP2 POP PUSH1 0x1 PUSH1 0x1 PUSH1 0xA0 SHL SUB AND PUSH2 0x2F8D JUMP JUMPDEST PUSH2 0x1391 DUP5 DUP10 DUP6 PUSH1 0x0 DUP6 PUSH2 0x3065 JUMP JUMPDEST PUSH1 0x35 SLOAD PUSH1 0x40 MLOAD PUSH4 0x4F425FBB PUSH1 0xE0 SHL DUP2 MSTORE PUSH1 0x1 PUSH1 0x1 PUSH1 0xA0 SHL SUB SWAP1 SWAP2 AND SWAP1 PUSH4 0x4F425FBB SWAP1 PUSH2 0x13C1 SWAP1 DUP12 SWAP1 PUSH1 0x4 ADD PUSH2 0x55C6 JUMP JUMPDEST PUSH1 0x20 PUSH1 0x40 MLOAD DUP1 DUP4 SUB DUP2 PUSH1 0x0 DUP8 DUP1 EXTCODESIZE ISZERO DUP1 ISZERO PUSH2 0x13DB JUMPI PUSH1 0x0 DUP1 REVERT JUMPDEST POP GAS CALL ISZERO DUP1 ISZERO PUSH2 0x13EF JUMPI RETURNDATASIZE PUSH1 0x0 DUP1 RETURNDATACOPY RETURNDATASIZE PUSH1 0x0 REVERT JUMPDEST POP POP POP POP PUSH1 0x40 MLOAD RETURNDATASIZE PUSH1 0x1F NOT PUSH1 0x1F DUP3 ADD AND DUP3 ADD DUP1 PUSH1 0x40 MSTORE POP DUP2 ADD SWAP1 PUSH2 0x1413 SWAP2 SWAP1 PUSH2 0x5410 JUMP JUMPDEST POP DUP2 DUP2 EQ ISZERO PUSH2 0x147E JUMPI PUSH1 0x7 DUP5 ADD SLOAD CALLER PUSH1 0x0 SWAP1 DUP2 MSTORE PUSH1 0x3A PUSH1 0x20 MSTORE PUSH1 0x40 DUP2 KECCAK256 PUSH2 0x1447 SWAP3 SWAP1 SWAP2 PUSH1 0x1 PUSH1 0xA0 SHL SWAP1 SWAP2 DIV PUSH1 0xFF AND SWAP1 PUSH2 0x2978 JUMP JUMPDEST PUSH1 0x40 MLOAD CALLER SWAP1 PUSH1 0x1 PUSH1 0x1 PUSH1 0xA0 SHL SUB DUP11 AND SWAP1 PUSH32 0x5F0DBED5D3DAC715152B6B58C69A80D2ED41075ED413E35B7379025A642EF0D6 SWAP1 PUSH1 0x0 SWAP1 LOG3 JUMPDEST PUSH1 0x1 DUP5 ADD SLOAD PUSH1 0x40 MLOAD PUSH4 0x6B810685 PUSH1 0xE1 SHL DUP2 MSTORE PUSH1 0x1 PUSH1 0x1 PUSH1 0xA0 SHL SUB DUP6 AND SWAP2 PUSH4 0xD7020D0A SWAP2 PUSH2 0x14BF SWAP2 CALLER SWAP2 DUP12 SWAP2 DUP8 SWAP2 PUSH1 0x1 PUSH1 0x1 PUSH1 0x80 SHL SUB SWAP1 SWAP2 AND SWAP1 PUSH1 0x4 ADD PUSH2 0x55DA JUMP JUMPDEST PUSH1 0x0 PUSH1 0x40 MLOAD DUP1 DUP4 SUB DUP2 PUSH1 0x0 DUP8 DUP1 EXTCODESIZE ISZERO DUP1 ISZERO PUSH2 0x14D9 JUMPI PUSH1 0x0 DUP1 REVERT JUMPDEST POP GAS CALL ISZERO DUP1 ISZERO PUSH2 0x14ED JUMPI RETURNDATASIZE PUSH1 0x0 DUP1 RETURNDATACOPY RETURNDATASIZE PUSH1 0x0 REVERT JUMPDEST POP POP POP POP DUP6 PUSH1 0x1 PUSH1 0x1 PUSH1 0xA0 SHL SUB AND CALLER PUSH1 0x1 PUSH1 0x1 PUSH1 0xA0 SHL SUB AND DUP10 PUSH1 0x1 PUSH1 0x1 PUSH1 0xA0 SHL SUB AND PUSH32 0x3115D1449A7B732C986CBA18244E897A450F61E1BB8D589CD2E69E6C8924F9F7 DUP5 PUSH1 0x40 MLOAD PUSH2 0x153E SWAP2 SWAP1 PUSH2 0x5E20 JUMP JUMPDEST PUSH1 0x40 MLOAD DUP1 SWAP2 SUB SWAP1 LOG4 SWAP4 POP POP POP POP JUMPDEST SWAP4 SWAP3 POP POP POP JUMP JUMPDEST PUSH1 0x34 SLOAD PUSH1 0x40 DUP1 MLOAD PUSH4 0x85C858B1 PUSH1 0xE0 SHL DUP2 MSTORE SWAP1 MLOAD CALLER SWAP3 PUSH1 0x1 PUSH1 0x1 PUSH1 0xA0 SHL SUB AND SWAP2 PUSH4 0x85C858B1 SWAP2 PUSH1 0x4 DUP1 DUP4 ADD SWAP3 PUSH1 0x20 SWAP3 SWAP2 SWAP1 DUP3 SWAP1 SUB ADD DUP2 DUP7 DUP1 EXTCODESIZE ISZERO DUP1 ISZERO PUSH2 0x1597 JUMPI PUSH1 0x0 DUP1 REVERT JUMPDEST POP GAS STATICCALL ISZERO DUP1 ISZERO PUSH2 0x15AB JUMPI RETURNDATASIZE PUSH1 0x0 DUP1 RETURNDATACOPY RETURNDATASIZE PUSH1 0x0 REVERT JUMPDEST POP POP POP POP PUSH1 0x40 MLOAD RETURNDATASIZE PUSH1 0x1F NOT PUSH1 0x1F DUP3 ADD AND DUP3 ADD DUP1 PUSH1 0x40 MSTORE POP DUP2 ADD SWAP1 PUSH2 0x15CF SWAP2 SWAP1 PUSH2 0x5069 JUMP JUMPDEST PUSH1 0x1 PUSH1 0x1 PUSH1 0xA0 SHL SUB AND EQ PUSH1 0x40 MLOAD DUP1 PUSH1 0x40 ADD PUSH1 0x40 MSTORE DUP1 PUSH1 0x2 DUP2 MSTORE PUSH1 0x20 ADD PUSH2 0x3333 PUSH1 0xF0 SHL DUP2 MSTORE POP SWAP1 PUSH2 0x1612 JUMPI PUSH1 0x40 MLOAD PUSH3 0x461BCD PUSH1 0xE5 SHL DUP2 MSTORE PUSH1 0x4 ADD PUSH2 0x51D SWAP2 SWAP1 PUSH2 0x5953 JUMP JUMPDEST POP PUSH2 0x161B PUSH2 0x357A JUMP JUMPDEST JUMP JUMPDEST PUSH1 0x1 DUP2 JUMP JUMPDEST PUSH2 0x162A PUSH2 0x293B JUMP JUMPDEST PUSH1 0x1 PUSH1 0x1 PUSH1 0xA0 SHL SUB DUP3 AND PUSH1 0x0 SWAP1 DUP2 MSTORE PUSH1 0x39 PUSH1 0x20 MSTORE PUSH1 0x40 DUP2 KECCAK256 SWAP1 DUP1 PUSH2 0x164E CALLER DUP5 PUSH2 0x2BB3 JUMP JUMPDEST SWAP2 POP SWAP2 POP PUSH1 0x0 DUP5 PUSH1 0x2 DUP2 GT ISZERO PUSH2 0x1660 JUMPI INVALID JUMPDEST CALLER PUSH1 0x0 SWAP1 DUP2 MSTORE PUSH1 0x3A PUSH1 0x20 MSTORE PUSH1 0x40 SWAP1 DUP2 SWAP1 KECCAK256 SWAP1 MLOAD PUSH4 0xCC2A02D7 PUSH1 0xE0 SHL DUP2 MSTORE SWAP2 SWAP3 POP PUSH20 0x0 SWAP2 PUSH4 0xCC2A02D7 SWAP2 PUSH2 0x16B1 SWAP2 DUP9 SWAP2 SWAP1 DUP9 SWAP1 DUP9 SWAP1 DUP9 SWAP1 PUSH1 0x4 ADD PUSH2 0x5DA6 JUMP JUMPDEST PUSH1 0x0 PUSH1 0x40 MLOAD DUP1 DUP4 SUB DUP2 DUP7 DUP1 EXTCODESIZE ISZERO DUP1 ISZERO PUSH2 0x16C9 JUMPI PUSH1 0x0 DUP1 REVERT JUMPDEST POP GAS DELEGATECALL ISZERO DUP1 ISZERO PUSH2 0x16DD JUMPI RETURNDATASIZE PUSH1 0x0 DUP1 RETURNDATACOPY RETURNDATASIZE PUSH1 0x0 REVERT JUMPDEST POP POP PUSH1 0x37 SLOAD PUSH2 0x16F8 SWAP3 POP DUP7 SWAP2 POP PUSH1 0x1 PUSH1 0x1 PUSH1 0xA0 SHL SUB AND PUSH2 0x2F8D JUMP JUMPDEST PUSH1 0x35 SLOAD PUSH1 0x40 MLOAD PUSH4 0xF8A56CD PUSH1 0xE3 SHL DUP2 MSTORE PUSH1 0x1 PUSH1 0x1 PUSH1 0xA0 SHL SUB SWAP1 SWAP2 AND SWAP1 PUSH4 0x7C52B668 SWAP1 PUSH2 0x1728 SWAP1 DUP10 SWAP1 PUSH1 0x4 ADD PUSH2 0x55C6 JUMP JUMPDEST PUSH1 0x20 PUSH1 0x40 MLOAD DUP1 DUP4 SUB DUP2 PUSH1 0x0 DUP8 DUP1 EXTCODESIZE ISZERO DUP1 ISZERO PUSH2 0x1742 JUMPI PUSH1 0x0 DUP1 REVERT JUMPDEST POP GAS CALL ISZERO DUP1 ISZERO PUSH2 0x1756 JUMPI RETURNDATASIZE PUSH1 0x0 DUP1 RETURNDATACOPY RETURNDATASIZE PUSH1 0x0 REVERT JUMPDEST POP POP POP POP PUSH1 0x40 MLOAD RETURNDATASIZE PUSH1 0x1F NOT PUSH1 0x1F DUP3 ADD AND DUP3 ADD DUP1 PUSH1 0x40 MSTORE POP DUP2 ADD SWAP1 PUSH2 0x177A SWAP2 SWAP1 PUSH2 0x5410 JUMP JUMPDEST POP PUSH1 0x1 DUP2 PUSH1 0x2 DUP2 GT ISZERO PUSH2 0x1789 JUMPI INVALID JUMPDEST EQ ISZERO PUSH2 0x1899 JUMPI PUSH1 0x5 DUP5 ADD SLOAD PUSH1 0x40 MLOAD PUSH4 0x2770A7EB PUSH1 0xE2 SHL DUP2 MSTORE PUSH1 0x1 PUSH1 0x1 PUSH1 0xA0 SHL SUB SWAP1 SWAP2 AND SWAP1 PUSH4 0x9DC29FAC SWAP1 PUSH2 0x17C3 SWAP1 CALLER SWAP1 DUP8 SWAP1 PUSH1 0x4 ADD PUSH2 0x5672 JUMP JUMPDEST PUSH1 0x0 PUSH1 0x40 MLOAD DUP1 DUP4 SUB DUP2 PUSH1 0x0 DUP8 DUP1 EXTCODESIZE ISZERO DUP1 ISZERO PUSH2 0x17DD JUMPI PUSH1 0x0 DUP1 REVERT JUMPDEST POP GAS CALL ISZERO DUP1 ISZERO PUSH2 0x17F1 JUMPI RETURNDATASIZE PUSH1 0x0 DUP1 RETURNDATACOPY RETURNDATASIZE PUSH1 0x0 REVERT JUMPDEST POP POP POP POP PUSH1 0x6 DUP5 ADD SLOAD PUSH1 0x1 DUP6 ADD SLOAD PUSH1 0x40 MLOAD PUSH4 0xB3F1C93D PUSH1 0xE0 SHL DUP2 MSTORE PUSH1 0x1 PUSH1 0x1 PUSH1 0xA0 SHL SUB SWAP1 SWAP3 AND SWAP2 PUSH4 0xB3F1C93D SWAP2 PUSH2 0x1841 SWAP2 CALLER SWAP2 DUP3 SWAP2 DUP10 SWAP2 PUSH1 0x1 PUSH1 0x80 SHL SWAP1 DIV PUSH1 0x1 PUSH1 0x1 PUSH1 0x80 SHL SUB AND SWAP1 PUSH1 0x4 ADD PUSH2 0x55DA JUMP JUMPDEST PUSH1 0x20 PUSH1 0x40 MLOAD DUP1 DUP4 SUB DUP2 PUSH1 0x0 DUP8 DUP1 EXTCODESIZE ISZERO DUP1 ISZERO PUSH2 0x185B JUMPI PUSH1 0x0 DUP1 REVERT JUMPDEST POP GAS CALL ISZERO DUP1 ISZERO PUSH2 0x186F JUMPI RETURNDATASIZE PUSH1 0x0 DUP1 RETURNDATACOPY RETURNDATASIZE PUSH1 0x0 REVERT JUMPDEST POP POP POP POP PUSH1 0x40 MLOAD RETURNDATASIZE PUSH1 0x1F NOT PUSH1 0x1F DUP3 ADD AND DUP3 ADD DUP1 PUSH1 0x40 MSTORE POP DUP2 ADD SWAP1 PUSH2 0x1893 SWAP2 SWAP1 PUSH2 0x5410 JUMP JUMPDEST POP PUSH2 0x19AF JUMP JUMPDEST PUSH1 0x6 DUP5 ADD SLOAD PUSH1 0x1 DUP6 ADD SLOAD PUSH1 0x40 MLOAD PUSH4 0x7A94C565 PUSH1 0xE1 SHL DUP2 MSTORE PUSH1 0x1 PUSH1 0x1 PUSH1 0xA0 SHL SUB SWAP1 SWAP3 AND SWAP2 PUSH4 0xF5298ACA SWAP2 PUSH2 0x18E4 SWAP2 CALLER SWAP2 DUP8 SWAP2 PUSH1 0x1 PUSH1 0x80 SHL SWAP1 SWAP2 DIV PUSH1 0x1 PUSH1 0x1 PUSH1 0x80 SHL SUB AND SWAP1 PUSH1 0x4 ADD PUSH2 0x568B JUMP JUMPDEST PUSH1 0x0 PUSH1 0x40 MLOAD DUP1 DUP4 SUB DUP2 PUSH1 0x0 DUP8 DUP1 EXTCODESIZE ISZERO DUP1 ISZERO PUSH2 0x18FE JUMPI PUSH1 0x0 DUP1 REVERT JUMPDEST POP GAS CALL ISZERO DUP1 ISZERO PUSH2 0x1912 JUMPI RETURNDATASIZE PUSH1 0x0 DUP1 RETURNDATACOPY RETURNDATASIZE PUSH1 0x0 REVERT JUMPDEST POP POP POP POP PUSH1 0x5 DUP5 ADD SLOAD PUSH1 0x3 DUP6 ADD SLOAD PUSH1 0x40 MLOAD PUSH4 0xB3F1C93D PUSH1 0xE0 SHL DUP2 MSTORE PUSH1 0x1 PUSH1 0x1 PUSH1 0xA0 SHL SUB SWAP1 SWAP3 AND SWAP2 PUSH4 0xB3F1C93D SWAP2 PUSH2 0x195B SWAP2 CALLER SWAP2 DUP3 SWAP2 DUP9 SWAP2 PUSH1 0x1 PUSH1 0x1 PUSH1 0x80 SHL SUB AND SWAP1 PUSH1 0x4 ADD PUSH2 0x55DA JUMP JUMPDEST PUSH1 0x20 PUSH1 0x40 MLOAD DUP1 DUP4 SUB DUP2 PUSH1 0x0 DUP8 DUP1 EXTCODESIZE ISZERO DUP1 ISZERO PUSH2 0x1975 JUMPI PUSH1 0x0 DUP1 REVERT JUMPDEST POP GAS CALL ISZERO DUP1 ISZERO PUSH2 0x1989 JUMPI RETURNDATASIZE PUSH1 0x0 DUP1 RETURNDATACOPY RETURNDATASIZE PUSH1 0x0 REVERT JUMPDEST POP POP POP POP PUSH1 0x40 MLOAD RETURNDATASIZE PUSH1 0x1F NOT PUSH1 0x1F DUP3 ADD AND DUP3 ADD DUP1 PUSH1 0x40 MSTORE POP DUP2 ADD SWAP1 PUSH2 0x19AD SWAP2 SWAP1 PUSH2 0x5410 JUMP JUMPDEST POP JUMPDEST PUSH1 0x4 DUP5 ADD SLOAD PUSH2 0x19CD SWAP1 DUP6 SWAP1 DUP9 SWAP1 PUSH1 0x1 PUSH1 0x1 PUSH1 0xA0 SHL SUB AND PUSH1 0x0 DUP1 PUSH2 0x3065 JUMP JUMPDEST CALLER PUSH1 0x1 PUSH1 0x1 PUSH1 0xA0 SHL SUB AND DUP7 PUSH1 0x1 PUSH1 0x1 PUSH1 0xA0 SHL SUB AND PUSH32 0xEA368A40E9570069BB8E6511D668293AD2E1F03B0D982431FD223DE9F3B70CA6 DUP8 PUSH1 0x40 MLOAD PUSH2 0x1A10 SWAP2 SWAP1 PUSH2 0x5E20 JUMP JUMPDEST PUSH1 0x40 MLOAD DUP1 SWAP2 SUB SWAP1 LOG3 POP POP POP POP POP POP JUMP JUMPDEST PUSH2 0x1A28 PUSH2 0x293B JUMP JUMPDEST PUSH1 0x1 PUSH1 0x1 PUSH1 0xA0 SHL SUB DUP1 DUP7 AND PUSH1 0x0 DUP2 DUP2 MSTORE PUSH1 0x39 PUSH1 0x20 SWAP1 DUP2 MSTORE PUSH1 0x40 SWAP2 DUP3 SWAP1 KECCAK256 DUP3 MLOAD PUSH2 0x100 DUP2 ADD DUP5 MSTORE SWAP4 DUP5 MSTORE CALLER SWAP2 DUP5 ADD SWAP2 SWAP1 SWAP2 MSTORE DUP5 DUP5 AND SWAP2 DUP4 ADD SWAP2 SWAP1 SWAP2 MSTORE PUSH1 0x60 DUP3 ADD DUP8 SWAP1 MSTORE PUSH1 0x80 DUP3 ADD DUP7 SWAP1 MSTORE PUSH1 0x4 DUP2 ADD SLOAD SWAP1 SWAP3 AND PUSH1 0xA0 DUP3 ADD MSTORE PUSH2 0xFFFF DUP5 AND PUSH1 0xC0 DUP3 ADD MSTORE PUSH1 0x1 PUSH1 0xE0 DUP3 ADD MSTORE PUSH2 0x1A98 SWAP1 PUSH2 0x3744 JUMP JUMPDEST POP POP POP POP POP POP JUMP JUMPDEST PUSH1 0x34 SLOAD PUSH1 0x40 DUP1 MLOAD PUSH4 0x85C858B1 PUSH1 0xE0 SHL DUP2 MSTORE SWAP1 MLOAD CALLER SWAP3 PUSH1 0x1 PUSH1 0x1 PUSH1 0xA0 SHL SUB AND SWAP2 PUSH4 0x85C858B1 SWAP2 PUSH1 0x4 DUP1 DUP4 ADD SWAP3 PUSH1 0x20 SWAP3 SWAP2 SWAP1 DUP3 SWAP1 SUB ADD DUP2 DUP7 DUP1 EXTCODESIZE ISZERO DUP1 ISZERO PUSH2 0x1AE4 JUMPI PUSH1 0x0 DUP1 REVERT JUMPDEST POP GAS STATICCALL ISZERO DUP1 ISZERO PUSH2 0x1AF8 JUMPI RETURNDATASIZE PUSH1 0x0 DUP1 RETURNDATACOPY RETURNDATASIZE PUSH1 0x0 REVERT JUMPDEST POP POP POP POP PUSH1 0x40 MLOAD RETURNDATASIZE PUSH1 0x1F NOT PUSH1 0x1F DUP3 ADD AND DUP3 ADD DUP1 PUSH1 0x40 MSTORE POP DUP2 ADD SWAP1 PUSH2 0x1B1C SWAP2 SWAP1 PUSH2 0x5069 JUMP JUMPDEST PUSH1 0x1 PUSH1 0x1 PUSH1 0xA0 SHL SUB AND EQ PUSH1 0x40 MLOAD DUP1 PUSH1 0x40 ADD PUSH1 0x40 MSTORE DUP1 PUSH1 0x2 DUP2 MSTORE PUSH1 0x20 ADD PUSH2 0x3333 PUSH1 0xF0 SHL DUP2 MSTORE POP SWAP1 PUSH2 0x1B5F JUMPI PUSH1 0x40 MLOAD PUSH3 0x461BCD PUSH1 0xE5 SHL DUP2 MSTORE PUSH1 0x4 ADD PUSH2 0x51D SWAP2 SWAP1 PUSH2 0x5953 JUMP JUMPDEST POP PUSH1 0x1 PUSH1 0x1 PUSH1 0xA0 SHL SUB SWAP1 SWAP2 AND PUSH1 0x0 SWAP1 DUP2 MSTORE PUSH1 0x39 PUSH1 0x20 MSTORE PUSH1 0x40 SWAP1 KECCAK256 SSTORE JUMP JUMPDEST PUSH1 0x34 SLOAD PUSH1 0x40 DUP1 MLOAD PUSH4 0x85C858B1 PUSH1 0xE0 SHL DUP2 MSTORE SWAP1 MLOAD CALLER SWAP3 PUSH1 0x1 PUSH1 0x1 PUSH1 0xA0 SHL SUB AND SWAP2 PUSH4 0x85C858B1 SWAP2 PUSH1 0x4 DUP1 DUP4 ADD SWAP3 PUSH1 0x20 SWAP3 SWAP2 SWAP1 DUP3 SWAP1 SUB ADD DUP2 DUP7 DUP1 EXTCODESIZE ISZERO DUP1 ISZERO PUSH2 0x1BC0 JUMPI PUSH1 0x0 DUP1 REVERT JUMPDEST POP GAS STATICCALL ISZERO DUP1 ISZERO PUSH2 0x1BD4 JUMPI RETURNDATASIZE PUSH1 0x0 DUP1 RETURNDATACOPY RETURNDATASIZE PUSH1 0x0 REVERT JUMPDEST POP POP POP POP PUSH1 0x40 MLOAD RETURNDATASIZE PUSH1 0x1F NOT PUSH1 0x1F DUP3 ADD AND DUP3 ADD DUP1 PUSH1 0x40 MSTORE POP DUP2 ADD SWAP1 PUSH2 0x1BF8 SWAP2 SWAP1 PUSH2 0x5069 JUMP JUMPDEST PUSH1 0x1 PUSH1 0x1 PUSH1 0xA0 SHL SUB AND EQ PUSH1 0x40 MLOAD DUP1 PUSH1 0x40 ADD PUSH1 0x40 MSTORE DUP1 PUSH1 0x2 DUP2 MSTORE PUSH1 0x20 ADD PUSH2 0x3333 PUSH1 0xF0 SHL DUP2 MSTORE POP SWAP1 PUSH2 0x1C3B JUMPI PUSH1 0x40 MLOAD PUSH3 0x461BCD PUSH1 0xE5 SHL DUP2 MSTORE PUSH1 0x4 ADD PUSH2 0x51D SWAP2 SWAP1 PUSH2 0x5953 JUMP JUMPDEST POP PUSH1 0x3D DUP1 SLOAD PUSH1 0xFF NOT AND DUP3 ISZERO ISZERO OR SWAP1 DUP2 SWAP1 SSTORE PUSH1 0xFF AND ISZERO PUSH2 0x1C82 JUMPI PUSH1 0x40 MLOAD PUSH32 0x9E87FAC88FF661F02D44F95383C817FECE4BCE600A3DAB7A54406878B965E752 SWAP1 PUSH1 0x0 SWAP1 LOG1 PUSH2 0x1CAC JUMP JUMPDEST PUSH1 0x40 MLOAD PUSH32 0xA45F47FDEA8A1EFDD9029A5691C7F759C32B7C698632B563573E155625D16933 SWAP1 PUSH1 0x0 SWAP1 LOG1 JUMPDEST POP JUMP JUMPDEST PUSH1 0x0 DUP1 PUSH1 0x0 DUP1 PUSH1 0x0 DUP1 PUSH2 0x1D88 DUP8 PUSH1 0x39 PUSH1 0x3A PUSH1 0x0 DUP12 PUSH1 0x1 PUSH1 0x1 PUSH1 0xA0 SHL SUB AND PUSH1 0x1 PUSH1 0x1 PUSH1 0xA0 SHL SUB AND DUP2 MSTORE PUSH1 0x20 ADD SWAP1 DUP2 MSTORE PUSH1 0x20 ADD PUSH1 0x0 KECCAK256 PUSH1 0x40 MLOAD DUP1 PUSH1 0x20 ADD PUSH1 0x40 MSTORE SWAP1 DUP2 PUSH1 0x0 DUP3 ADD SLOAD DUP2 MSTORE POP POP PUSH1 0x3B PUSH1 0x3C SLOAD PUSH1 0x34 PUSH1 0x0 SWAP1 SLOAD SWAP1 PUSH2 0x100 EXP SWAP1 DIV PUSH1 0x1 PUSH1 0x1 PUSH1 0xA0 SHL SUB AND PUSH1 0x1 PUSH1 0x1 PUSH1 0xA0 SHL SUB AND PUSH4 0xFCA513A8 PUSH1 0x40 MLOAD DUP2 PUSH4 0xFFFFFFFF AND PUSH1 0xE0 SHL DUP2 MSTORE PUSH1 0x4 ADD PUSH1 0x20 PUSH1 0x40 MLOAD DUP1 DUP4 SUB DUP2 DUP7 DUP1 EXTCODESIZE ISZERO DUP1 ISZERO PUSH2 0x1D4B JUMPI PUSH1 0x0 DUP1 REVERT JUMPDEST POP GAS STATICCALL ISZERO DUP1 ISZERO PUSH2 0x1D5F JUMPI RETURNDATASIZE PUSH1 0x0 DUP1 RETURNDATACOPY RETURNDATASIZE PUSH1 0x0 REVERT JUMPDEST POP POP POP POP PUSH1 0x40 MLOAD RETURNDATASIZE PUSH1 0x1F NOT PUSH1 0x1F DUP3 ADD AND DUP3 ADD DUP1 PUSH1 0x40 MSTORE POP DUP2 ADD SWAP1 PUSH2 0x1D83 SWAP2 SWAP1 PUSH2 0x5069 JUMP JUMPDEST PUSH2 0x3CFB JUMP JUMPDEST SWAP4 SWAP10 POP SWAP2 SWAP8 POP SWAP1 SWAP5 POP SWAP3 POP SWAP1 POP PUSH2 0x1DA0 DUP7 DUP7 DUP5 PUSH2 0x41BC JUMP JUMPDEST SWAP4 POP SWAP2 SWAP4 SWAP6 POP SWAP2 SWAP4 SWAP6 JUMP JUMPDEST PUSH1 0x0 PUSH2 0x1DB5 PUSH2 0x41F0 JUMP JUMPDEST PUSH1 0x1 SLOAD SWAP1 SWAP2 POP PUSH1 0xFF AND DUP1 PUSH2 0x1DCC JUMPI POP PUSH2 0x1DCC PUSH2 0x41F5 JUMP JUMPDEST DUP1 PUSH2 0x1DD8 JUMPI POP PUSH1 0x0 SLOAD DUP2 GT JUMPDEST PUSH2 0x1DF4 JUMPI PUSH1 0x40 MLOAD PUSH3 0x461BCD PUSH1 0xE5 SHL DUP2 MSTORE PUSH1 0x4 ADD PUSH2 0x51D SWAP1 PUSH2 0x5AEF JUMP JUMPDEST PUSH1 0x1 SLOAD PUSH1 0xFF AND ISZERO DUP1 ISZERO PUSH2 0x1E13 JUMPI PUSH1 0x1 DUP1 SLOAD PUSH1 0xFF NOT AND DUP2 OR SWAP1 SSTORE PUSH1 0x0 DUP3 SWAP1 SSTORE JUMPDEST PUSH1 0x34 DUP1 SLOAD PUSH1 0x1 PUSH1 0x1 PUSH1 0xA0 SHL SUB NOT AND PUSH1 0x1 PUSH1 0x1 PUSH1 0xA0 SHL SUB DUP6 AND OR SWAP1 SSTORE DUP1 ISZERO PUSH2 0x758 JUMPI PUSH1 0x1 DUP1 SLOAD PUSH1 0xFF NOT AND SWAP1 SSTORE POP POP POP JUMP JUMPDEST PUSH2 0x1E4B PUSH2 0x4E3C JUMP JUMPDEST POP PUSH1 0x1 PUSH1 0x1 PUSH1 0xA0 SHL SUB AND PUSH1 0x0 SWAP1 DUP2 MSTORE PUSH1 0x39 PUSH1 0x20 SWAP1 DUP2 MSTORE PUSH1 0x40 SWAP2 DUP3 SWAP1 KECCAK256 DUP3 MLOAD SWAP2 DUP3 ADD SWAP1 SWAP3 MSTORE SWAP1 SLOAD DUP2 MSTORE SWAP1 JUMP JUMPDEST PUSH2 0x1E7E PUSH2 0x293B JUMP JUMPDEST PUSH1 0x1 PUSH1 0x1 PUSH1 0xA0 SHL SUB DUP1 DUP4 AND PUSH1 0x0 SWAP1 DUP2 MSTORE PUSH1 0x39 PUSH1 0x20 MSTORE PUSH1 0x40 DUP1 DUP3 KECCAK256 PUSH1 0x5 DUP2 ADD SLOAD PUSH1 0x6 DUP3 ADD SLOAD PUSH1 0x4 DUP1 DUP5 ADD SLOAD SWAP5 MLOAD PUSH4 0x70A08231 PUSH1 0xE0 SHL DUP2 MSTORE SWAP4 SWAP7 SWAP3 DUP4 AND SWAP6 SWAP2 DUP4 AND SWAP5 SWAP1 SWAP3 AND SWAP3 SWAP1 SWAP2 DUP6 SWAP2 PUSH4 0x70A08231 SWAP2 PUSH2 0x1ED8 SWAP2 DUP11 SWAP2 ADD PUSH2 0x55C6 JUMP JUMPDEST PUSH1 0x20 PUSH1 0x40 MLOAD DUP1 DUP4 SUB DUP2 DUP7 DUP1 EXTCODESIZE ISZERO DUP1 ISZERO PUSH2 0x1EF0 JUMPI PUSH1 0x0 DUP1 REVERT JUMPDEST POP GAS STATICCALL ISZERO DUP1 ISZERO PUSH2 0x1F04 JUMPI RETURNDATASIZE PUSH1 0x0 DUP1 RETURNDATACOPY RETURNDATASIZE PUSH1 0x0 REVERT JUMPDEST POP POP POP POP PUSH1 0x40 MLOAD RETURNDATASIZE PUSH1 0x1F NOT PUSH1 0x1F DUP3 ADD AND DUP3 ADD DUP1 PUSH1 0x40 MSTORE POP DUP2 ADD SWAP1 PUSH2 0x1F28 SWAP2 SWAP1 PUSH2 0x542C JUMP JUMPDEST PUSH1 0x40 MLOAD PUSH4 0x2918EB85 PUSH1 0xE2 SHL DUP2 MSTORE SWAP1 SWAP2 POP PUSH20 0x0 SWAP1 PUSH4 0xA463AE14 SWAP1 PUSH2 0x1F6A SWAP1 DUP9 SWAP1 DUP12 SWAP1 DUP10 SWAP1 DUP10 SWAP1 DUP10 SWAP1 PUSH1 0x4 ADD PUSH2 0x5D36 JUMP JUMPDEST PUSH1 0x0 PUSH1 0x40 MLOAD DUP1 DUP4 SUB DUP2 DUP7 DUP1 EXTCODESIZE ISZERO DUP1 ISZERO PUSH2 0x1F82 JUMPI PUSH1 0x0 DUP1 REVERT JUMPDEST POP GAS DELEGATECALL ISZERO DUP1 ISZERO PUSH2 0x1F96 JUMPI RETURNDATASIZE PUSH1 0x0 DUP1 RETURNDATACOPY RETURNDATASIZE PUSH1 0x0 REVERT JUMPDEST POP POP PUSH1 0x37 SLOAD PUSH2 0x1FB1 SWAP3 POP DUP8 SWAP2 POP PUSH1 0x1 PUSH1 0x1 PUSH1 0xA0 SHL SUB AND PUSH2 0x2F8D JUMP JUMPDEST PUSH1 0x35 SLOAD PUSH1 0x40 MLOAD PUSH4 0xF8A56CD PUSH1 0xE3 SHL DUP2 MSTORE PUSH1 0x1 PUSH1 0x1 PUSH1 0xA0 SHL SUB SWAP1 SWAP2 AND SWAP1 PUSH4 0x7C52B668 SWAP1 PUSH2 0x1FE1 SWAP1 DUP11 SWAP1 PUSH1 0x4 ADD PUSH2 0x55C6 JUMP JUMPDEST PUSH1 0x20 PUSH1 0x40 MLOAD DUP1 DUP4 SUB DUP2 PUSH1 0x0 DUP8 DUP1 EXTCODESIZE ISZERO DUP1 ISZERO PUSH2 0x1FFB JUMPI PUSH1 0x0 DUP1 REVERT JUMPDEST POP GAS CALL ISZERO DUP1 ISZERO PUSH2 0x200F JUMPI RETURNDATASIZE PUSH1 0x0 DUP1 RETURNDATACOPY RETURNDATASIZE PUSH1 0x0 REVERT JUMPDEST POP POP POP POP PUSH1 0x40 MLOAD RETURNDATASIZE PUSH1 0x1F NOT PUSH1 0x1F DUP3 ADD AND DUP3 ADD DUP1 PUSH1 0x40 MSTORE POP DUP2 ADD SWAP1 PUSH2 0x2033 SWAP2 SWAP1 PUSH2 0x5410 JUMP JUMPDEST POP PUSH1 0x40 MLOAD PUSH4 0x2770A7EB PUSH1 0xE2 SHL DUP2 MSTORE PUSH1 0x1 PUSH1 0x1 PUSH1 0xA0 SHL SUB DUP6 AND SWAP1 PUSH4 0x9DC29FAC SWAP1 PUSH2 0x2062 SWAP1 DUP10 SWAP1 DUP6 SWAP1 PUSH1 0x4 ADD PUSH2 0x5672 JUMP JUMPDEST PUSH1 0x0 PUSH1 0x40 MLOAD DUP1 DUP4 SUB DUP2 PUSH1 0x0 DUP8 DUP1 EXTCODESIZE ISZERO DUP1 ISZERO PUSH2 0x207C JUMPI PUSH1 0x0 DUP1 REVERT JUMPDEST POP GAS CALL ISZERO DUP1 ISZERO PUSH2 0x2090 JUMPI RETURNDATASIZE PUSH1 0x0 DUP1 RETURNDATACOPY RETURNDATASIZE PUSH1 0x0 REVERT JUMPDEST POP POP POP PUSH1 0x3 DUP7 ADD SLOAD PUSH1 0x40 MLOAD PUSH4 0xB3F1C93D PUSH1 0xE0 SHL DUP2 MSTORE PUSH1 0x1 PUSH1 0x1 PUSH1 0xA0 SHL SUB DUP8 AND SWAP3 POP PUSH4 0xB3F1C93D SWAP2 PUSH2 0x20D3 SWAP2 DUP11 SWAP2 DUP3 SWAP2 DUP8 SWAP2 PUSH1 0x1 PUSH1 0x1 PUSH1 0x80 SHL SUB AND SWAP1 PUSH1 0x4 ADD PUSH2 0x55DA JUMP JUMPDEST PUSH1 0x20 PUSH1 0x40 MLOAD DUP1 DUP4 SUB DUP2 PUSH1 0x0 DUP8 DUP1 EXTCODESIZE ISZERO DUP1 ISZERO PUSH2 0x20ED JUMPI PUSH1 0x0 DUP1 REVERT JUMPDEST POP GAS CALL ISZERO DUP1 ISZERO PUSH2 0x2101 JUMPI RETURNDATASIZE PUSH1 0x0 DUP1 RETURNDATACOPY RETURNDATASIZE PUSH1 0x0 REVERT JUMPDEST POP POP POP POP PUSH1 0x40 MLOAD RETURNDATASIZE PUSH1 0x1F NOT PUSH1 0x1F DUP3 ADD AND DUP3 ADD DUP1 PUSH1 0x40 MSTORE POP DUP2 ADD SWAP1 PUSH2 0x2125 SWAP2 SWAP1 PUSH2 0x5410 JUMP JUMPDEST POP PUSH2 0x2134 DUP6 DUP9 DUP5 PUSH1 0x0 DUP1 PUSH2 0x3065 JUMP JUMPDEST DUP6 PUSH1 0x1 PUSH1 0x1 PUSH1 0xA0 SHL SUB AND DUP8 PUSH1 0x1 PUSH1 0x1 PUSH1 0xA0 SHL SUB AND PUSH32 0x9F439AE0C81E41A04D3FDFE07AED54E6A179FB0DB15BE7702EB66FA8EF6F5300 PUSH1 0x40 MLOAD PUSH1 0x40 MLOAD DUP1 SWAP2 SUB SWAP1 LOG3 POP POP POP POP POP POP POP JUMP JUMPDEST PUSH1 0x80 DUP2 JUMP JUMPDEST PUSH2 0x218A PUSH2 0x293B JUMP JUMPDEST PUSH1 0x1 PUSH1 0x1 PUSH1 0xA0 SHL SUB DUP4 AND PUSH1 0x0 SWAP1 DUP2 MSTORE PUSH1 0x39 PUSH1 0x20 MSTORE PUSH1 0x40 SWAP1 DUP2 SWAP1 KECCAK256 SWAP1 MLOAD PUSH4 0xCE310115 PUSH1 0xE0 SHL DUP2 MSTORE PUSH20 0x0 SWAP1 PUSH4 0xCE310115 SWAP1 PUSH2 0x21DC SWAP1 DUP5 SWAP1 DUP8 SWAP1 PUSH1 0x4 ADD PUSH2 0x5945 JUMP JUMPDEST PUSH1 0x0 PUSH1 0x40 MLOAD DUP1 DUP4 SUB DUP2 DUP7 DUP1 EXTCODESIZE ISZERO DUP1 ISZERO PUSH2 0x21F4 JUMPI PUSH1 0x0 DUP1 REVERT JUMPDEST POP GAS DELEGATECALL ISZERO DUP1 ISZERO PUSH2 0x2208 JUMPI RETURNDATASIZE PUSH1 0x0 DUP1 RETURNDATACOPY RETURNDATASIZE PUSH1 0x0 REVERT JUMPDEST POP POP POP POP PUSH1 0x4 DUP2 ADD SLOAD PUSH1 0x38 SLOAD PUSH1 0x37 SLOAD PUSH1 0x36 SLOAD PUSH1 0x40 DUP1 MLOAD PUSH2 0x1C0 DUP2 ADD DUP3 MSTORE DUP7 SLOAD PUSH2 0x1A0 DUP3 ADD SWAP1 DUP2 MSTORE DUP2 MSTORE PUSH1 0x1 DUP8 ADD SLOAD PUSH1 0x1 PUSH1 0x1 PUSH1 0x80 SHL SUB DUP1 DUP3 AND PUSH1 0x20 DUP5 ADD MSTORE PUSH1 0x1 PUSH1 0x80 SHL SWAP2 DUP3 SWAP1 DIV DUP2 AND SWAP4 DUP4 ADD SWAP4 SWAP1 SWAP4 MSTORE PUSH1 0x2 DUP9 ADD SLOAD DUP1 DUP5 AND PUSH1 0x60 DUP5 ADD MSTORE DUP2 SWAP1 DIV DUP4 AND PUSH1 0x80 DUP4 ADD MSTORE PUSH1 0x3 DUP9 ADD SLOAD SWAP3 DUP4 AND PUSH1 0xA0 DUP4 ADD MSTORE SWAP1 SWAP2 DIV PUSH5 0xFFFFFFFFFF AND PUSH1 0xC0 DUP3 ADD MSTORE PUSH1 0x1 PUSH1 0x1 PUSH1 0xA0 SHL SUB SWAP5 DUP6 AND PUSH1 0xE0 DUP3 ADD DUP2 SWAP1 MSTORE PUSH1 0x5 DUP8 ADD SLOAD DUP7 AND PUSH2 0x100 DUP4 ADD MSTORE PUSH1 0x6 DUP8 ADD SLOAD DUP7 AND PUSH2 0x120 DUP4 ADD MSTORE PUSH1 0x7 DUP8 ADD SLOAD DUP1 DUP8 AND PUSH2 0x140 DUP5 ADD MSTORE PUSH1 0x1 PUSH1 0xA0 SHL DUP2 DIV PUSH1 0xFF SWAP1 DUP2 AND PUSH2 0x160 DUP6 ADD MSTORE PUSH1 0x1 PUSH1 0xA8 SHL SWAP1 SWAP2 DIV AND PUSH2 0x180 DUP4 ADD MSTORE SWAP5 PUSH1 0x0 SWAP5 PUSH2 0x2305 SWAP5 SWAP3 SWAP4 CALLER SWAP4 DUP13 SWAP4 DUP13 SWAP4 DUP2 AND SWAP3 SWAP2 DUP2 AND SWAP2 DUP13 SWAP2 AND PUSH2 0x41FB JUMP JUMPDEST PUSH1 0x37 SLOAD SWAP1 SWAP2 POP PUSH2 0x231F SWAP1 DUP5 SWAP1 PUSH1 0x1 PUSH1 0x1 PUSH1 0xA0 SHL SUB AND PUSH2 0x2F8D JUMP JUMPDEST PUSH2 0x2339 DUP7 DUP4 PUSH2 0x232E DUP9 DUP6 PUSH2 0x3485 JUMP JUMPDEST DUP7 SWAP3 SWAP2 SWAP1 PUSH1 0x0 PUSH2 0x3065 JUMP JUMPDEST PUSH1 0x35 SLOAD PUSH1 0x40 MLOAD PUSH4 0x4F425FBB PUSH1 0xE0 SHL DUP2 MSTORE PUSH1 0x1 PUSH1 0x1 PUSH1 0xA0 SHL SUB SWAP1 SWAP2 AND SWAP1 PUSH4 0x4F425FBB SWAP1 PUSH2 0x2369 SWAP1 DUP10 SWAP1 PUSH1 0x4 ADD PUSH2 0x55C6 JUMP JUMPDEST PUSH1 0x20 PUSH1 0x40 MLOAD DUP1 DUP4 SUB DUP2 PUSH1 0x0 DUP8 DUP1 EXTCODESIZE ISZERO DUP1 ISZERO PUSH2 0x2383 JUMPI PUSH1 0x0 DUP1 REVERT JUMPDEST POP GAS CALL ISZERO DUP1 ISZERO PUSH2 0x2397 JUMPI RETURNDATASIZE PUSH1 0x0 DUP1 RETURNDATACOPY RETURNDATASIZE PUSH1 0x0 REVERT JUMPDEST POP POP POP POP PUSH1 0x40 MLOAD RETURNDATASIZE PUSH1 0x1F NOT PUSH1 0x1F DUP3 ADD AND DUP3 ADD DUP1 PUSH1 0x40 MSTORE POP DUP2 ADD SWAP1 PUSH2 0x23BB SWAP2 SWAP1 PUSH2 0x5410 JUMP JUMPDEST POP PUSH2 0x23DD CALLER DUP4 PUSH2 0x23CB DUP9 DUP6 PUSH2 0x3485 JUMP JUMPDEST PUSH1 0x1 PUSH1 0x1 PUSH1 0xA0 SHL SUB DUP11 AND SWAP3 SWAP2 SWAP1 PUSH2 0x351C JUMP JUMPDEST PUSH1 0x0 PUSH1 0x1 PUSH1 0x1 PUSH1 0xA0 SHL SUB DUP4 AND PUSH4 0x156E29F6 CALLER PUSH2 0x23F9 DUP10 DUP7 PUSH2 0x3485 JUMP JUMPDEST PUSH1 0x1 DUP9 ADD SLOAD PUSH1 0x40 MLOAD PUSH1 0x1 PUSH1 0x1 PUSH1 0xE0 SHL SUB NOT PUSH1 0xE0 DUP7 SWAP1 SHL AND DUP2 MSTORE PUSH2 0x242A SWAP4 SWAP3 SWAP2 PUSH1 0x1 PUSH1 0x1 PUSH1 0x80 SHL SUB AND SWAP1 PUSH1 0x4 ADD PUSH2 0x568B JUMP JUMPDEST PUSH1 0x20 PUSH1 0x40 MLOAD DUP1 DUP4 SUB DUP2 PUSH1 0x0 DUP8 DUP1 EXTCODESIZE ISZERO DUP1 ISZERO PUSH2 0x2444 JUMPI PUSH1 0x0 DUP1 REVERT JUMPDEST POP GAS CALL ISZERO DUP1 ISZERO PUSH2 0x2458 JUMPI RETURNDATASIZE PUSH1 0x0 DUP1 RETURNDATACOPY RETURNDATASIZE PUSH1 0x0 REVERT JUMPDEST POP POP POP POP PUSH1 0x40 MLOAD RETURNDATASIZE PUSH1 0x1F NOT PUSH1 0x1F DUP3 ADD AND DUP3 ADD DUP1 PUSH1 0x40 MSTORE POP DUP2 ADD SWAP1 PUSH2 0x247C SWAP2 SWAP1 PUSH2 0x5410 JUMP JUMPDEST SWAP1 POP DUP1 ISZERO PUSH2 0x24E4 JUMPI PUSH1 0x7 DUP5 ADD SLOAD CALLER PUSH1 0x0 SWAP1 DUP2 MSTORE PUSH1 0x3A PUSH1 0x20 MSTORE PUSH1 0x40 SWAP1 KECCAK256 PUSH2 0x24AD SWAP2 PUSH1 0x1 PUSH1 0xA0 SHL SWAP1 DIV PUSH1 0xFF AND PUSH1 0x1 PUSH2 0x2978 JUMP JUMPDEST PUSH1 0x40 MLOAD CALLER SWAP1 PUSH1 0x1 PUSH1 0x1 PUSH1 0xA0 SHL SUB DUP10 AND SWAP1 PUSH32 0xFA277DA50DDC7CCDFA45B85B1F26C78FE2D562FFE054ABC05A44D7E08CD0DDA SWAP1 PUSH1 0x0 SWAP1 LOG3 JUMPDEST CALLER PUSH1 0x1 PUSH1 0x1 PUSH1 0xA0 SHL SUB DUP9 AND PUSH32 0x5548C837AB068CF56A2C2479DF0882A4922FD203EDB7517321831D95078C5F62 PUSH2 0x251A DUP10 DUP7 PUSH2 0x3485 JUMP JUMPDEST PUSH1 0x40 MLOAD PUSH2 0x2527 SWAP2 SWAP1 PUSH2 0x5E20 JUMP JUMPDEST PUSH1 0x40 MLOAD DUP1 SWAP2 SUB SWAP1 LOG3 POP POP POP POP POP POP POP JUMP JUMPDEST PUSH2 0x2540 PUSH2 0x293B JUMP JUMPDEST PUSH1 0x1 PUSH1 0x1 PUSH1 0xA0 SHL SUB DUP7 DUP2 AND PUSH1 0x0 SWAP1 DUP2 MSTORE PUSH1 0x39 PUSH1 0x20 SWAP1 DUP2 MSTORE PUSH1 0x40 SWAP2 DUP3 SWAP1 KECCAK256 PUSH1 0x4 ADD SLOAD DUP3 MLOAD DUP1 DUP5 ADD SWAP1 SWAP4 MSTORE PUSH1 0x1 DUP4 MSTORE PUSH1 0x35 PUSH1 0xF8 SHL SWAP2 DUP4 ADD SWAP2 SWAP1 SWAP2 MSTORE SWAP1 SWAP2 AND CALLER EQ PUSH2 0x259B JUMPI PUSH1 0x40 MLOAD PUSH3 0x461BCD PUSH1 0xE5 SHL DUP2 MSTORE PUSH1 0x4 ADD PUSH2 0x51D SWAP2 SWAP1 PUSH2 0x5953 JUMP JUMPDEST POP PUSH2 0x2657 DUP6 PUSH1 0x39 PUSH1 0x3A PUSH1 0x0 DUP10 PUSH1 0x1 PUSH1 0x1 PUSH1 0xA0 SHL SUB AND PUSH1 0x1 PUSH1 0x1 PUSH1 0xA0 SHL SUB AND DUP2 MSTORE PUSH1 0x20 ADD SWAP1 DUP2 MSTORE PUSH1 0x20 ADD PUSH1 0x0 KECCAK256 PUSH1 0x3B PUSH1 0x3C SLOAD PUSH1 0x34 PUSH1 0x0 SWAP1 SLOAD SWAP1 PUSH2 0x100 EXP SWAP1 DIV PUSH1 0x1 PUSH1 0x1 PUSH1 0xA0 SHL SUB AND PUSH1 0x1 PUSH1 0x1 PUSH1 0xA0 SHL SUB AND PUSH4 0xFCA513A8 PUSH1 0x40 MLOAD DUP2 PUSH4 0xFFFFFFFF AND PUSH1 0xE0 SHL DUP2 MSTORE PUSH1 0x4 ADD PUSH1 0x20 PUSH1 0x40 MLOAD DUP1 DUP4 SUB DUP2 DUP7 DUP1 EXTCODESIZE ISZERO DUP1 ISZERO PUSH2 0x261A JUMPI PUSH1 0x0 DUP1 REVERT JUMPDEST POP GAS STATICCALL ISZERO DUP1 ISZERO PUSH2 0x262E JUMPI RETURNDATASIZE PUSH1 0x0 DUP1 RETURNDATACOPY RETURNDATASIZE PUSH1 0x0 REVERT JUMPDEST POP POP POP POP PUSH1 0x40 MLOAD RETURNDATASIZE PUSH1 0x1F NOT PUSH1 0x1F DUP3 ADD AND DUP3 ADD DUP1 PUSH1 0x40 MSTORE POP DUP2 ADD SWAP1 PUSH2 0x2652 SWAP2 SWAP1 PUSH2 0x5069 JUMP JUMPDEST PUSH2 0x4340 JUMP JUMPDEST PUSH1 0x1 PUSH1 0x1 PUSH1 0xA0 SHL SUB DUP7 DUP2 AND PUSH1 0x0 SWAP1 DUP2 MSTORE PUSH1 0x39 PUSH1 0x20 MSTORE PUSH1 0x40 SWAP1 DUP2 SWAP1 KECCAK256 PUSH1 0x7 ADD SLOAD PUSH1 0x35 SLOAD SWAP2 MLOAD PUSH4 0xF8A56CD PUSH1 0xE3 SHL DUP2 MSTORE PUSH1 0x1 PUSH1 0xA0 SHL SWAP1 SWAP2 DIV PUSH1 0xFF AND SWAP3 SWAP2 SWAP1 SWAP2 AND SWAP1 PUSH4 0x7C52B668 SWAP1 PUSH2 0x26AA SWAP1 DUP11 SWAP1 PUSH1 0x4 ADD PUSH2 0x55C6 JUMP JUMPDEST PUSH1 0x20 PUSH1 0x40 MLOAD DUP1 DUP4 SUB DUP2 PUSH1 0x0 DUP8 DUP1 EXTCODESIZE ISZERO DUP1 ISZERO PUSH2 0x26C4 JUMPI PUSH1 0x0 DUP1 REVERT JUMPDEST POP GAS CALL ISZERO DUP1 ISZERO PUSH2 0x26D8 JUMPI RETURNDATASIZE PUSH1 0x0 DUP1 RETURNDATACOPY RETURNDATASIZE PUSH1 0x0 REVERT JUMPDEST POP POP POP POP PUSH1 0x40 MLOAD RETURNDATASIZE PUSH1 0x1F NOT PUSH1 0x1F DUP3 ADD AND DUP3 ADD DUP1 PUSH1 0x40 MSTORE POP DUP2 ADD SWAP1 PUSH2 0x26FC SWAP2 SWAP1 PUSH2 0x5410 JUMP JUMPDEST POP PUSH1 0x35 SLOAD PUSH1 0x40 MLOAD PUSH4 0x4F425FBB PUSH1 0xE0 SHL DUP2 MSTORE PUSH1 0x1 PUSH1 0x1 PUSH1 0xA0 SHL SUB SWAP1 SWAP2 AND SWAP1 PUSH4 0x4F425FBB SWAP1 PUSH2 0x272D SWAP1 DUP11 SWAP1 PUSH1 0x4 ADD PUSH2 0x55C6 JUMP JUMPDEST PUSH1 0x20 PUSH1 0x40 MLOAD DUP1 DUP4 SUB DUP2 PUSH1 0x0 DUP8 DUP1 EXTCODESIZE ISZERO DUP1 ISZERO PUSH2 0x2747 JUMPI PUSH1 0x0 DUP1 REVERT JUMPDEST POP GAS CALL ISZERO DUP1 ISZERO PUSH2 0x275B JUMPI RETURNDATASIZE PUSH1 0x0 DUP1 RETURNDATACOPY RETURNDATASIZE PUSH1 0x0 REVERT JUMPDEST POP POP POP POP PUSH1 0x40 MLOAD RETURNDATASIZE PUSH1 0x1F NOT PUSH1 0x1F DUP3 ADD AND DUP3 ADD DUP1 PUSH1 0x40 MSTORE POP DUP2 ADD SWAP1 PUSH2 0x277F SWAP2 SWAP1 PUSH2 0x5410 JUMP JUMPDEST POP DUP5 PUSH1 0x1 PUSH1 0x1 PUSH1 0xA0 SHL SUB AND DUP7 PUSH1 0x1 PUSH1 0x1 PUSH1 0xA0 SHL SUB AND EQ PUSH2 0x2887 JUMPI PUSH2 0x27A3 DUP4 DUP6 PUSH2 0x3485 JUMP JUMPDEST PUSH2 0x280F JUMPI PUSH1 0x1 PUSH1 0x1 PUSH1 0xA0 SHL SUB DUP7 AND PUSH1 0x0 SWAP1 DUP2 MSTORE PUSH1 0x3A PUSH1 0x20 MSTORE PUSH1 0x40 DUP2 KECCAK256 SWAP1 PUSH2 0x27CD SWAP1 DUP3 SWAP1 DUP5 SWAP1 PUSH2 0x2978 JUMP JUMPDEST DUP7 PUSH1 0x1 PUSH1 0x1 PUSH1 0xA0 SHL SUB AND DUP9 PUSH1 0x1 PUSH1 0x1 PUSH1 0xA0 SHL SUB AND PUSH32 0x5F0DBED5D3DAC715152B6B58C69A80D2ED41075ED413E35B7379025A642EF0D6 PUSH1 0x40 MLOAD PUSH1 0x40 MLOAD DUP1 SWAP2 SUB SWAP1 LOG3 POP JUMPDEST DUP2 ISZERO DUP1 ISZERO PUSH2 0x281C JUMPI POP DUP4 ISZERO ISZERO JUMPDEST ISZERO PUSH2 0x2887 JUMPI PUSH1 0x1 PUSH1 0x1 PUSH1 0xA0 SHL SUB DUP6 AND PUSH1 0x0 SWAP1 DUP2 MSTORE PUSH1 0x3A PUSH1 0x20 MSTORE PUSH1 0x40 SWAP1 KECCAK256 PUSH2 0x2845 DUP2 DUP4 PUSH1 0x1 PUSH2 0x2978 JUMP JUMPDEST DUP6 PUSH1 0x1 PUSH1 0x1 PUSH1 0xA0 SHL SUB AND DUP9 PUSH1 0x1 PUSH1 0x1 PUSH1 0xA0 SHL SUB AND PUSH32 0xFA277DA50DDC7CCDFA45B85B1F26C78FE2D562FFE054ABC05A44D7E08CD0DDA PUSH1 0x40 MLOAD PUSH1 0x40 MLOAD DUP1 SWAP2 SUB SWAP1 LOG3 POP JUMPDEST POP POP POP POP POP POP POP JUMP JUMPDEST PUSH1 0x60 DUP1 PUSH1 0x3C SLOAD PUSH8 0xFFFFFFFFFFFFFFFF DUP2 GT DUP1 ISZERO PUSH2 0x28AC JUMPI PUSH1 0x0 DUP1 REVERT JUMPDEST POP PUSH1 0x40 MLOAD SWAP1 DUP1 DUP3 MSTORE DUP1 PUSH1 0x20 MUL PUSH1 0x20 ADD DUP3 ADD PUSH1 0x40 MSTORE DUP1 ISZERO PUSH2 0x28D6 JUMPI DUP2 PUSH1 0x20 ADD PUSH1 0x20 DUP3 MUL DUP1 CALLDATASIZE DUP4 CALLDATACOPY ADD SWAP1 POP JUMPDEST POP SWAP1 POP PUSH1 0x0 JUMPDEST PUSH1 0x3C SLOAD DUP2 LT ISZERO PUSH2 0x292F JUMPI PUSH1 0x0 DUP2 DUP2 MSTORE PUSH1 0x3B PUSH1 0x20 MSTORE PUSH1 0x40 SWAP1 KECCAK256 SLOAD DUP3 MLOAD PUSH1 0x1 PUSH1 0x1 PUSH1 0xA0 SHL SUB SWAP1 SWAP2 AND SWAP1 DUP4 SWAP1 DUP4 SWAP1 DUP2 LT PUSH2 0x290F JUMPI INVALID JUMPDEST PUSH1 0x1 PUSH1 0x1 PUSH1 0xA0 SHL SUB SWAP1 SWAP3 AND PUSH1 0x20 SWAP3 DUP4 MUL SWAP2 SWAP1 SWAP2 ADD SWAP1 SWAP2 ADD MSTORE PUSH1 0x1 ADD PUSH2 0x28DC JUMP JUMPDEST POP SWAP1 POP SWAP1 JUMP JUMPDEST PUSH2 0x9C4 DUP2 JUMP JUMPDEST PUSH1 0x3D SLOAD PUSH1 0x40 DUP1 MLOAD DUP1 DUP3 ADD SWAP1 SWAP2 MSTORE PUSH1 0x1 DUP2 MSTORE PUSH1 0x19 PUSH1 0xF9 SHL PUSH1 0x20 DUP3 ADD MSTORE SWAP1 PUSH1 0xFF AND ISZERO PUSH2 0x1CAC JUMPI PUSH1 0x40 MLOAD PUSH3 0x461BCD PUSH1 0xE5 SHL DUP2 MSTORE PUSH1 0x4 ADD PUSH2 0x51D SWAP2 SWAP1 PUSH2 0x5953 JUMP JUMPDEST PUSH1 0x80 DUP3 LT PUSH2 0x2998 JUMPI PUSH1 0x40 MLOAD PUSH3 0x461BCD PUSH1 0xE5 SHL DUP2 MSTORE PUSH1 0x4 ADD PUSH2 0x51D SWAP1 PUSH2 0x5BBE JUMP JUMPDEST DUP2 PUSH1 0x2 MUL PUSH1 0x1 ADD DUP2 PUSH2 0x29AB JUMPI PUSH1 0x0 PUSH2 0x29AE JUMP JUMPDEST PUSH1 0x1 JUMPDEST PUSH1 0xFF AND SWAP1 SHL DUP3 PUSH1 0x2 MUL PUSH1 0x1 ADD PUSH1 0x1 SWAP1 SHL NOT DUP5 PUSH1 0x0 ADD SLOAD AND OR DUP4 PUSH1 0x0 ADD DUP2 SWAP1 SSTORE POP POP POP POP JUMP JUMPDEST PUSH1 0x3 DUP2 ADD SLOAD PUSH1 0x0 SWAP1 PUSH5 0xFFFFFFFFFF PUSH1 0x1 PUSH1 0x80 SHL SWAP1 SWAP2 DIV DUP2 AND SWAP1 TIMESTAMP AND DUP2 EQ ISZERO PUSH2 0x2A11 JUMPI POP POP PUSH1 0x1 DUP2 ADD SLOAD PUSH1 0x1 PUSH1 0x80 SHL SWAP1 DIV PUSH1 0x1 PUSH1 0x1 PUSH1 0x80 SHL SUB AND PUSH2 0x781 JUMP JUMPDEST PUSH1 0x1 DUP4 ADD SLOAD PUSH1 0x2 DUP5 ADD SLOAD PUSH1 0x0 SWAP2 PUSH2 0x1190 SWAP2 PUSH1 0x1 PUSH1 0x1 PUSH1 0x80 SHL SUB PUSH1 0x1 PUSH1 0x80 SHL SWAP3 DUP4 SWAP1 DIV DUP2 AND SWAP3 PUSH2 0x2A42 SWAP3 DIV AND DUP6 PUSH2 0x4390 JUMP JUMPDEST SWAP1 PUSH2 0x439D JUMP JUMPDEST PUSH1 0x3 DUP2 ADD SLOAD PUSH1 0x0 SWAP1 PUSH5 0xFFFFFFFFFF PUSH1 0x1 PUSH1 0x80 SHL SWAP1 SWAP2 DIV DUP2 AND SWAP1 TIMESTAMP AND DUP2 EQ ISZERO PUSH2 0x2A7F JUMPI POP POP PUSH1 0x1 DUP2 ADD SLOAD PUSH1 0x1 PUSH1 0x1 PUSH1 0x80 SHL SUB AND PUSH2 0x781 JUMP JUMPDEST PUSH1 0x1 DUP4 ADD SLOAD PUSH1 0x2 DUP5 ADD SLOAD PUSH1 0x0 SWAP2 PUSH2 0x1190 SWAP2 PUSH1 0x1 PUSH1 0x1 PUSH1 0x80 SHL SUB SWAP2 DUP3 AND SWAP2 PUSH2 0x2A42 SWAP2 AND DUP6 PUSH2 0x4412 JUMP JUMPDEST EXTCODESIZE ISZERO ISZERO SWAP1 JUMP JUMPDEST PUSH1 0x3C SLOAD PUSH1 0x40 DUP1 MLOAD DUP1 DUP3 ADD SWAP1 SWAP2 MSTORE PUSH1 0x1 DUP2 MSTORE PUSH1 0x31 PUSH1 0xF8 SHL PUSH1 0x20 DUP3 ADD MSTORE PUSH1 0x80 DUP3 LT PUSH2 0x2AE9 JUMPI PUSH1 0x40 MLOAD PUSH3 0x461BCD PUSH1 0xE5 SHL DUP2 MSTORE PUSH1 0x4 ADD PUSH2 0x51D SWAP2 SWAP1 PUSH2 0x5953 JUMP JUMPDEST POP PUSH1 0x1 PUSH1 0x1 PUSH1 0xA0 SHL SUB DUP3 AND PUSH1 0x0 SWAP1 DUP2 MSTORE PUSH1 0x39 PUSH1 0x20 MSTORE PUSH1 0x40 DUP2 KECCAK256 PUSH1 0x7 ADD SLOAD PUSH1 0x1 PUSH1 0xA0 SHL SWAP1 DIV PUSH1 0xFF AND ISZERO ISZERO DUP1 PUSH2 0x2B52 JUMPI POP PUSH1 0x0 DUP1 MSTORE PUSH1 0x3B PUSH1 0x20 MSTORE PUSH32 0x75AE8A0E79DD0A018AA9BF1C84550B9BA9413A6B4D6D81C2029471D98E3DB9E5 SLOAD PUSH1 0x1 PUSH1 0x1 PUSH1 0xA0 SHL SUB DUP5 DUP2 AND SWAP2 AND EQ JUMPDEST SWAP1 POP DUP1 PUSH2 0x758 JUMPI POP PUSH1 0x1 PUSH1 0x1 PUSH1 0xA0 SHL SUB SWAP2 SWAP1 SWAP2 AND PUSH1 0x0 DUP2 DUP2 MSTORE PUSH1 0x39 PUSH1 0x20 SWAP1 DUP2 MSTORE PUSH1 0x40 DUP1 DUP4 KECCAK256 PUSH1 0x7 ADD DUP1 SLOAD PUSH1 0xFF PUSH1 0xA0 SHL NOT AND PUSH1 0x1 PUSH1 0xA0 SHL PUSH1 0xFF DUP9 AND MUL OR SWAP1 SSTORE DUP5 DUP4 MSTORE PUSH1 0x3B SWAP1 SWAP2 MSTORE SWAP1 KECCAK256 DUP1 SLOAD PUSH1 0x1 PUSH1 0x1 PUSH1 0xA0 SHL SUB NOT AND SWAP1 SWAP2 OR SWAP1 SSTORE PUSH1 0x1 ADD PUSH1 0x3C SSTORE JUMP JUMPDEST PUSH1 0x5 DUP2 ADD SLOAD PUSH1 0x40 MLOAD PUSH4 0x70A08231 PUSH1 0xE0 SHL DUP2 MSTORE PUSH1 0x0 SWAP2 DUP3 SWAP2 PUSH1 0x1 PUSH1 0x1 PUSH1 0xA0 SHL SUB SWAP1 SWAP2 AND SWAP1 PUSH4 0x70A08231 SWAP1 PUSH2 0x2BEA SWAP1 DUP8 SWAP1 PUSH1 0x4 ADD PUSH2 0x55C6 JUMP JUMPDEST PUSH1 0x20 PUSH1 0x40 MLOAD DUP1 DUP4 SUB DUP2 DUP7 DUP1 EXTCODESIZE ISZERO DUP1 ISZERO PUSH2 0x2C02 JUMPI PUSH1 0x0 DUP1 REVERT JUMPDEST POP GAS STATICCALL ISZERO DUP1 ISZERO PUSH2 0x2C16 JUMPI RETURNDATASIZE PUSH1 0x0 DUP1 RETURNDATACOPY RETURNDATASIZE PUSH1 0x0 REVERT JUMPDEST POP POP POP POP PUSH1 0x40 MLOAD RETURNDATASIZE PUSH1 0x1F NOT PUSH1 0x1F DUP3 ADD AND DUP3 ADD DUP1 PUSH1 0x40 MSTORE POP DUP2 ADD SWAP1 PUSH2 0x2C3A SWAP2 SWAP1 PUSH2 0x542C JUMP JUMPDEST PUSH1 0x6 DUP5 ADD SLOAD PUSH1 0x40 MLOAD PUSH4 0x70A08231 PUSH1 0xE0 SHL DUP2 MSTORE PUSH1 0x1 PUSH1 0x1 PUSH1 0xA0 SHL SUB SWAP1 SWAP2 AND SWAP1 PUSH4 0x70A08231 SWAP1 PUSH2 0x2C6C SWAP1 DUP9 SWAP1 PUSH1 0x4 ADD PUSH2 0x55C6 JUMP JUMPDEST PUSH1 0x20 PUSH1 0x40 MLOAD DUP1 DUP4 SUB DUP2 DUP7 DUP1 EXTCODESIZE ISZERO DUP1 ISZERO PUSH2 0x2C84 JUMPI PUSH1 0x0 DUP1 REVERT JUMPDEST POP GAS STATICCALL ISZERO DUP1 ISZERO PUSH2 0x2C98 JUMPI RETURNDATASIZE PUSH1 0x0 DUP1 RETURNDATACOPY RETURNDATASIZE PUSH1 0x0 REVERT JUMPDEST POP POP POP POP PUSH1 0x40 MLOAD RETURNDATASIZE PUSH1 0x1F NOT PUSH1 0x1F DUP3 ADD AND DUP3 ADD DUP1 PUSH1 0x40 MSTORE POP DUP2 ADD SWAP1 PUSH2 0x2CBC SWAP2 SWAP1 PUSH2 0x542C JUMP JUMPDEST SWAP2 POP SWAP2 POP SWAP3 POP SWAP3 SWAP1 POP JUMP JUMPDEST PUSH1 0x6 DUP8 ADD SLOAD PUSH1 0x40 MLOAD PUSH4 0x285C23A5 PUSH1 0xE0 SHL DUP2 MSTORE PUSH1 0x0 SWAP2 DUP3 SWAP2 DUP3 SWAP2 PUSH1 0x1 PUSH1 0x1 PUSH1 0xA0 SHL SUB AND SWAP1 PUSH4 0x285C23A5 SWAP1 PUSH2 0x2CFE SWAP1 DUP12 SWAP1 PUSH1 0x4 ADD PUSH2 0x55C6 JUMP JUMPDEST PUSH1 0x20 PUSH1 0x40 MLOAD DUP1 DUP4 SUB DUP2 DUP7 DUP1 EXTCODESIZE ISZERO DUP1 ISZERO PUSH2 0x2D16 JUMPI PUSH1 0x0 DUP1 REVERT JUMPDEST POP GAS STATICCALL ISZERO DUP1 ISZERO PUSH2 0x2D2A JUMPI RETURNDATASIZE PUSH1 0x0 DUP1 RETURNDATACOPY RETURNDATASIZE PUSH1 0x0 REVERT JUMPDEST POP POP POP POP PUSH1 0x40 MLOAD RETURNDATASIZE PUSH1 0x1F NOT PUSH1 0x1F DUP3 ADD AND DUP3 ADD DUP1 PUSH1 0x40 MSTORE POP DUP2 ADD SWAP1 PUSH2 0x2D4E SWAP2 SWAP1 PUSH2 0x542C JUMP JUMPDEST PUSH1 0x6 DUP12 ADD SLOAD PUSH1 0x40 MLOAD PUSH4 0x4C6FC8E9 PUSH1 0xE0 SHL DUP2 MSTORE SWAP2 SWAP3 POP PUSH1 0x0 SWAP2 PUSH1 0x1 PUSH1 0x1 PUSH1 0xA0 SHL SUB SWAP1 SWAP2 AND SWAP1 PUSH4 0x4C6FC8E9 SWAP1 PUSH2 0x2D86 SWAP1 DUP13 SWAP1 PUSH1 0x4 ADD PUSH2 0x55C6 JUMP JUMPDEST PUSH1 0x20 PUSH1 0x40 MLOAD DUP1 DUP4 SUB DUP2 DUP7 DUP1 EXTCODESIZE ISZERO DUP1 ISZERO PUSH2 0x2D9E JUMPI PUSH1 0x0 DUP1 REVERT JUMPDEST POP GAS STATICCALL ISZERO DUP1 ISZERO PUSH2 0x2DB2 JUMPI RETURNDATASIZE PUSH1 0x0 DUP1 RETURNDATACOPY RETURNDATASIZE PUSH1 0x0 REVERT JUMPDEST POP POP POP POP PUSH1 0x40 MLOAD RETURNDATASIZE PUSH1 0x1F NOT PUSH1 0x1F DUP3 ADD AND DUP3 ADD DUP1 PUSH1 0x40 MSTORE POP DUP2 ADD SWAP1 PUSH2 0x2DD6 SWAP2 SWAP1 PUSH2 0x542C JUMP JUMPDEST SWAP1 POP PUSH1 0x0 DUP1 DUP4 ISZERO PUSH2 0x2E7D JUMPI DUP4 DUP10 LT ISZERO PUSH2 0x2DEF JUMPI DUP9 PUSH2 0x2DF1 JUMP JUMPDEST DUP4 JUMPDEST SWAP1 POP PUSH2 0x2E08 PUSH1 0x1 PUSH1 0x1 PUSH1 0xA0 SHL SUB DUP12 AND DUP14 DUP11 DUP5 PUSH2 0x351C JUMP JUMPDEST PUSH2 0x2E12 DUP10 DUP3 PUSH2 0x3485 JUMP JUMPDEST PUSH1 0x5 DUP15 ADD SLOAD PUSH1 0x40 MLOAD PUSH4 0x1470B90B PUSH1 0xE0 SHL DUP2 MSTORE SWAP2 SWAP11 POP PUSH1 0x1 PUSH1 0x1 PUSH1 0xA0 SHL SUB AND SWAP1 PUSH4 0x1470B90B SWAP1 PUSH2 0x2E4A SWAP1 DUP15 SWAP1 PUSH1 0x0 SWAP1 DUP7 SWAP1 PUSH1 0x4 ADD PUSH2 0x57D4 JUMP JUMPDEST PUSH1 0x0 PUSH1 0x40 MLOAD DUP1 DUP4 SUB DUP2 PUSH1 0x0 DUP8 DUP1 EXTCODESIZE ISZERO DUP1 ISZERO PUSH2 0x2E64 JUMPI PUSH1 0x0 DUP1 REVERT JUMPDEST POP GAS CALL ISZERO DUP1 ISZERO PUSH2 0x2E78 JUMPI RETURNDATASIZE PUSH1 0x0 DUP1 RETURNDATACOPY RETURNDATASIZE PUSH1 0x0 REVERT JUMPDEST POP POP POP POP JUMPDEST PUSH1 0x0 DUP4 GT DUP1 ISZERO PUSH2 0x2E8D JUMPI POP PUSH1 0x0 DUP10 GT JUMPDEST ISZERO PUSH2 0x2F2D JUMPI DUP3 DUP10 GT PUSH2 0x2E9F JUMPI DUP9 PUSH2 0x2EA1 JUMP JUMPDEST DUP3 JUMPDEST SWAP2 POP PUSH2 0x2EB8 PUSH1 0x1 PUSH1 0x1 PUSH1 0xA0 SHL SUB DUP12 AND DUP14 DUP10 DUP6 PUSH2 0x351C JUMP JUMPDEST PUSH2 0x2EC2 DUP10 DUP4 PUSH2 0x3485 JUMP JUMPDEST PUSH1 0x5 DUP15 ADD SLOAD PUSH1 0x40 MLOAD PUSH4 0x75282D13 PUSH1 0xE1 SHL DUP2 MSTORE SWAP2 SWAP11 POP PUSH1 0x1 PUSH1 0x1 PUSH1 0xA0 SHL SUB AND SWAP1 PUSH4 0xEA505A26 SWAP1 PUSH2 0x2EFA SWAP1 DUP15 SWAP1 PUSH1 0x0 SWAP1 DUP8 SWAP1 PUSH1 0x4 ADD PUSH2 0x57D4 JUMP JUMPDEST PUSH1 0x0 PUSH1 0x40 MLOAD DUP1 DUP4 SUB DUP2 PUSH1 0x0 DUP8 DUP1 EXTCODESIZE ISZERO DUP1 ISZERO PUSH2 0x2F14 JUMPI PUSH1 0x0 DUP1 REVERT JUMPDEST POP GAS CALL ISZERO DUP1 ISZERO PUSH2 0x2F28 JUMPI RETURNDATASIZE PUSH1 0x0 DUP1 RETURNDATACOPY RETURNDATASIZE PUSH1 0x0 REVERT JUMPDEST POP POP POP POP JUMPDEST PUSH32 0xB3884ABB0CD78CEB06CF359025A995C0E008A7E8CD7A195AF8D05B64DA47AD1B DUP11 DUP14 DUP14 DUP13 DUP6 DUP8 PUSH1 0x40 MLOAD PUSH2 0x2F66 SWAP7 SWAP6 SWAP5 SWAP4 SWAP3 SWAP2 SWAP1 PUSH2 0x56E9 JUMP JUMPDEST PUSH1 0x40 MLOAD DUP1 SWAP2 SUB SWAP1 LOG1 DUP9 PUSH2 0x2F79 DUP3 DUP5 PUSH2 0x3457 JUMP JUMPDEST SWAP6 POP SWAP6 POP POP POP POP POP SWAP8 POP SWAP8 SWAP6 POP POP POP POP POP POP JUMP JUMPDEST PUSH1 0x6 DUP3 ADD SLOAD PUSH1 0x40 DUP1 MLOAD PUSH4 0xB1BF962D PUSH1 0xE0 SHL DUP2 MSTORE SWAP1 MLOAD PUSH1 0x0 SWAP3 PUSH1 0x1 PUSH1 0x1 PUSH1 0xA0 SHL SUB AND SWAP2 PUSH4 0xB1BF962D SWAP2 PUSH1 0x4 DUP1 DUP4 ADD SWAP3 PUSH1 0x20 SWAP3 SWAP2 SWAP1 DUP3 SWAP1 SUB ADD DUP2 DUP7 DUP1 EXTCODESIZE ISZERO DUP1 ISZERO PUSH2 0x2FD4 JUMPI PUSH1 0x0 DUP1 REVERT JUMPDEST POP GAS STATICCALL ISZERO DUP1 ISZERO PUSH2 0x2FE8 JUMPI RETURNDATASIZE PUSH1 0x0 DUP1 RETURNDATACOPY RETURNDATASIZE PUSH1 0x0 REVERT JUMPDEST POP POP POP POP PUSH1 0x40 MLOAD RETURNDATASIZE PUSH1 0x1F NOT PUSH1 0x1F DUP3 ADD AND DUP3 ADD DUP1 PUSH1 0x40 MSTORE POP DUP2 ADD SWAP1 PUSH2 0x300C SWAP2 SWAP1 PUSH2 0x542C JUMP JUMPDEST PUSH1 0x1 DUP5 ADD SLOAD PUSH1 0x3 DUP6 ADD SLOAD SWAP2 SWAP3 POP PUSH1 0x1 PUSH1 0x80 SHL DUP1 DUP3 DIV PUSH1 0x1 PUSH1 0x1 PUSH1 0x80 SHL SUB SWAP1 DUP2 AND SWAP4 SWAP3 AND SWAP2 DIV PUSH5 0xFFFFFFFFFF AND PUSH1 0x0 DUP1 PUSH2 0x3048 DUP9 DUP8 DUP7 DUP9 DUP8 PUSH2 0x4450 JUMP JUMPDEST SWAP2 POP SWAP2 POP PUSH2 0x305B DUP9 DUP9 DUP9 DUP9 DUP7 DUP7 DUP10 PUSH2 0x45AD JUMP JUMPDEST POP POP POP POP POP POP POP POP JUMP JUMPDEST PUSH2 0x306D PUSH2 0x4EF2 JUMP JUMPDEST PUSH1 0x5 DUP7 ADD SLOAD PUSH1 0x1 PUSH1 0x1 PUSH1 0xA0 SHL SUB AND DUP1 DUP3 MSTORE PUSH1 0x40 DUP1 MLOAD PUSH4 0x7B98F4DF PUSH1 0xE1 SHL DUP2 MSTORE DUP2 MLOAD PUSH4 0xF731E9BE SWAP3 PUSH1 0x4 DUP1 DUP5 ADD SWAP4 SWAP2 SWAP3 SWAP2 DUP3 SWAP1 SUB ADD DUP2 DUP7 DUP1 EXTCODESIZE ISZERO DUP1 ISZERO PUSH2 0x30B1 JUMPI PUSH1 0x0 DUP1 REVERT JUMPDEST POP GAS STATICCALL ISZERO DUP1 ISZERO PUSH2 0x30C5 JUMPI RETURNDATASIZE PUSH1 0x0 DUP1 RETURNDATACOPY RETURNDATASIZE PUSH1 0x0 REVERT JUMPDEST POP POP POP POP PUSH1 0x40 MLOAD RETURNDATASIZE PUSH1 0x1F NOT PUSH1 0x1F DUP3 ADD AND DUP3 ADD DUP1 PUSH1 0x40 MSTORE POP DUP2 ADD SWAP1 PUSH2 0x30E9 SWAP2 SWAP1 PUSH2 0x54EB JUMP JUMPDEST PUSH1 0xC0 DUP4 ADD MSTORE PUSH1 0x40 DUP1 DUP4 ADD SWAP2 SWAP1 SWAP2 MSTORE PUSH1 0x1 DUP8 ADD SLOAD PUSH1 0x6 DUP9 ADD SLOAD DUP3 MLOAD PUSH4 0xB1BF962D PUSH1 0xE0 SHL DUP2 MSTORE SWAP3 MLOAD PUSH2 0x318E SWAP4 PUSH1 0x1 PUSH1 0x80 SHL SWAP1 SWAP4 DIV PUSH1 0x1 PUSH1 0x1 PUSH1 0x80 SHL SUB AND SWAP3 PUSH1 0x1 PUSH1 0x1 PUSH1 0xA0 SHL SUB SWAP1 SWAP3 AND SWAP2 PUSH4 0xB1BF962D SWAP2 PUSH1 0x4 DUP1 DUP4 ADD SWAP3 PUSH1 0x20 SWAP3 SWAP2 SWAP1 DUP3 SWAP1 SUB ADD DUP2 DUP7 DUP1 EXTCODESIZE ISZERO DUP1 ISZERO PUSH2 0x3156 JUMPI PUSH1 0x0 DUP1 REVERT JUMPDEST POP GAS STATICCALL ISZERO DUP1 ISZERO PUSH2 0x316A JUMPI RETURNDATASIZE PUSH1 0x0 DUP1 RETURNDATACOPY RETURNDATASIZE PUSH1 0x0 REVERT JUMPDEST POP POP POP POP PUSH1 0x40 MLOAD RETURNDATASIZE PUSH1 0x1F NOT PUSH1 0x1F DUP3 ADD AND DUP3 ADD DUP1 PUSH1 0x40 MSTORE POP DUP2 ADD SWAP1 PUSH2 0x2A42 SWAP2 SWAP1 PUSH2 0x542C JUMP JUMPDEST PUSH1 0xE0 DUP3 ADD MSTORE PUSH1 0x40 MLOAD PUSH4 0x70A08231 PUSH1 0xE0 SHL DUP2 MSTORE PUSH1 0x1 PUSH1 0x1 PUSH1 0xA0 SHL SUB DUP7 AND SWAP1 PUSH4 0x70A08231 SWAP1 PUSH2 0x31BF SWAP1 DUP8 SWAP1 PUSH1 0x4 ADD PUSH2 0x55C6 JUMP JUMPDEST PUSH1 0x20 PUSH1 0x40 MLOAD DUP1 DUP4 SUB DUP2 DUP7 DUP1 EXTCODESIZE ISZERO DUP1 ISZERO PUSH2 0x31D7 JUMPI PUSH1 0x0 DUP1 REVERT JUMPDEST POP GAS STATICCALL ISZERO DUP1 ISZERO PUSH2 0x31EB JUMPI RETURNDATASIZE PUSH1 0x0 DUP1 RETURNDATACOPY RETURNDATASIZE PUSH1 0x0 REVERT JUMPDEST POP POP POP POP PUSH1 0x40 MLOAD RETURNDATASIZE PUSH1 0x1F NOT PUSH1 0x1F DUP3 ADD AND DUP3 ADD DUP1 PUSH1 0x40 MSTORE POP DUP2 ADD SWAP1 PUSH2 0x320F SWAP2 SWAP1 PUSH2 0x542C JUMP JUMPDEST PUSH1 0x20 DUP3 ADD DUP2 SWAP1 MSTORE PUSH1 0x7 DUP8 ADD SLOAD PUSH1 0x1 PUSH1 0x1 PUSH1 0xA0 SHL SUB AND SWAP1 PUSH4 0x9584DF28 SWAP1 DUP8 SWAP1 PUSH2 0x323D SWAP1 DUP7 SWAP1 PUSH2 0x10CD SWAP1 DUP10 PUSH2 0x3457 JUMP JUMPDEST PUSH1 0x40 DUP6 ADD MLOAD PUSH1 0xE0 DUP7 ADD MLOAD PUSH1 0xC0 DUP8 ADD MLOAD PUSH2 0x3255 DUP14 PUSH2 0x4772 JUMP JUMPDEST PUSH1 0x40 MLOAD DUP8 PUSH4 0xFFFFFFFF AND PUSH1 0xE0 SHL DUP2 MSTORE PUSH1 0x4 ADD PUSH2 0x3276 SWAP7 SWAP6 SWAP5 SWAP4 SWAP3 SWAP2 SWAP1 PUSH2 0x58C5 JUMP JUMPDEST PUSH1 0x60 PUSH1 0x40 MLOAD DUP1 DUP4 SUB DUP2 DUP7 DUP1 EXTCODESIZE ISZERO DUP1 ISZERO PUSH2 0x328E JUMPI PUSH1 0x0 DUP1 REVERT JUMPDEST POP GAS STATICCALL ISZERO DUP1 ISZERO PUSH2 0x32A2 JUMPI RETURNDATASIZE PUSH1 0x0 DUP1 RETURNDATACOPY RETURNDATASIZE PUSH1 0x0 REVERT JUMPDEST POP POP POP POP PUSH1 0x40 MLOAD RETURNDATASIZE PUSH1 0x1F NOT PUSH1 0x1F DUP3 ADD AND DUP3 ADD DUP1 PUSH1 0x40 MSTORE POP DUP2 ADD SWAP1 PUSH2 0x32C6 SWAP2 SWAP1 PUSH2 0x550E JUMP JUMPDEST PUSH1 0xA0 DUP5 ADD MSTORE PUSH1 0x80 DUP4 ADD MSTORE PUSH1 0x60 DUP3 ADD DUP2 SWAP1 MSTORE PUSH1 0x40 DUP1 MLOAD DUP1 DUP3 ADD SWAP1 SWAP2 MSTORE PUSH1 0x2 DUP2 MSTORE PUSH2 0x1899 PUSH1 0xF1 SHL PUSH1 0x20 DUP3 ADD MSTORE SWAP1 PUSH1 0x1 PUSH1 0x1 PUSH1 0x80 SHL SUB LT ISZERO PUSH2 0x3318 JUMPI PUSH1 0x40 MLOAD PUSH3 0x461BCD PUSH1 0xE5 SHL DUP2 MSTORE PUSH1 0x4 ADD PUSH2 0x51D SWAP2 SWAP1 PUSH2 0x5953 JUMP JUMPDEST POP PUSH1 0x80 DUP2 ADD MLOAD PUSH1 0x40 DUP1 MLOAD DUP1 DUP3 ADD SWAP1 SWAP2 MSTORE PUSH1 0x2 DUP2 MSTORE PUSH2 0x3133 PUSH1 0xF0 SHL PUSH1 0x20 DUP3 ADD MSTORE SWAP1 PUSH1 0x1 PUSH1 0x1 PUSH1 0x80 SHL SUB LT ISZERO PUSH2 0x335F JUMPI PUSH1 0x40 MLOAD PUSH3 0x461BCD PUSH1 0xE5 SHL DUP2 MSTORE PUSH1 0x4 ADD PUSH2 0x51D SWAP2 SWAP1 PUSH2 0x5953 JUMP JUMPDEST POP PUSH1 0xA0 DUP2 ADD MLOAD PUSH1 0x40 DUP1 MLOAD DUP1 DUP3 ADD SWAP1 SWAP2 MSTORE PUSH1 0x2 DUP2 MSTORE PUSH2 0xC4D PUSH1 0xF2 SHL PUSH1 0x20 DUP3 ADD MSTORE SWAP1 PUSH1 0x1 PUSH1 0x1 PUSH1 0x80 SHL SUB LT ISZERO PUSH2 0x33A6 JUMPI PUSH1 0x40 MLOAD PUSH3 0x461BCD PUSH1 0xE5 SHL DUP2 MSTORE PUSH1 0x4 ADD PUSH2 0x51D SWAP2 SWAP1 PUSH2 0x5953 JUMP JUMPDEST POP PUSH1 0x60 DUP2 ADD MLOAD PUSH1 0x2 DUP8 ADD DUP1 SLOAD PUSH1 0x80 DUP5 ADD MLOAD PUSH1 0x3 DUP11 ADD DUP1 SLOAD PUSH1 0x1 PUSH1 0x1 PUSH1 0x80 SHL SUB NOT SWAP1 DUP2 AND PUSH1 0x1 PUSH1 0x1 PUSH1 0x80 SHL SUB DUP1 DUP6 AND SWAP2 SWAP1 SWAP2 OR SWAP1 SWAP3 SSTORE PUSH1 0xA0 DUP8 ADD MLOAD SWAP4 AND DUP2 DUP7 AND OR DUP2 AND PUSH1 0x1 PUSH1 0x80 SHL DUP5 DUP4 AND DUP2 MUL SWAP2 SWAP1 SWAP2 OR SWAP1 SWAP5 SSTORE PUSH1 0x1 DUP12 ADD SLOAD PUSH1 0x40 MLOAD PUSH1 0x1 PUSH1 0x1 PUSH1 0xA0 SHL SUB DUP13 AND SWAP7 PUSH32 0x9ADB65693C7ACC3236BF2C0979398344D4783C4D439D2BD5BC6F18D75E751B8B SWAP7 PUSH2 0x3447 SWAP7 SWAP2 SWAP6 SWAP5 SWAP2 SWAP4 DUP1 DUP4 AND SWAP4 SWAP2 SWAP1 DIV SWAP1 SWAP2 AND SWAP1 PUSH2 0x5E48 JUMP JUMPDEST PUSH1 0x40 MLOAD DUP1 SWAP2 SUB SWAP1 LOG2 POP POP POP POP POP POP JUMP JUMPDEST PUSH1 0x0 DUP3 DUP3 ADD DUP4 DUP2 LT ISZERO PUSH2 0x347C JUMPI PUSH1 0x40 MLOAD PUSH3 0x461BCD PUSH1 0xE5 SHL DUP2 MSTORE PUSH1 0x4 ADD PUSH2 0x51D SWAP1 PUSH2 0x5986 JUMP JUMPDEST SWAP1 POP JUMPDEST SWAP3 SWAP2 POP POP JUMP JUMPDEST PUSH1 0x0 PUSH2 0x347C DUP4 DUP4 PUSH1 0x40 MLOAD DUP1 PUSH1 0x40 ADD PUSH1 0x40 MSTORE DUP1 PUSH1 0x1E DUP2 MSTORE PUSH1 0x20 ADD PUSH32 0x536166654D6174683A207375627472616374696F6E206F766572666C6F770000 DUP2 MSTORE POP PUSH2 0x477D JUMP JUMPDEST PUSH1 0x80 DUP3 LT PUSH2 0x34E7 JUMPI PUSH1 0x40 MLOAD PUSH3 0x461BCD PUSH1 0xE5 SHL DUP2 MSTORE PUSH1 0x4 ADD PUSH2 0x51D SWAP1 PUSH2 0x5BBE JUMP JUMPDEST DUP2 PUSH1 0x2 MUL DUP2 PUSH2 0x34F7 JUMPI PUSH1 0x0 PUSH2 0x34FA JUMP JUMPDEST PUSH1 0x1 JUMPDEST PUSH1 0xFF AND SWAP1 SHL DUP3 PUSH1 0x2 MUL PUSH1 0x1 SWAP1 SHL NOT DUP5 PUSH1 0x0 ADD SLOAD AND OR DUP4 PUSH1 0x0 ADD DUP2 SWAP1 SSTORE POP POP POP POP JUMP JUMPDEST PUSH2 0x3574 DUP5 PUSH4 0x23B872DD PUSH1 0xE0 SHL DUP6 DUP6 DUP6 PUSH1 0x40 MLOAD PUSH1 0x24 ADD PUSH2 0x353D SWAP4 SWAP3 SWAP2 SWAP1 PUSH2 0x5722 JUMP JUMPDEST PUSH1 0x40 DUP1 MLOAD PUSH1 0x1F NOT DUP2 DUP5 SUB ADD DUP2 MSTORE SWAP2 SWAP1 MSTORE PUSH1 0x20 DUP2 ADD DUP1 MLOAD PUSH1 0x1 PUSH1 0x1 PUSH1 0xE0 SHL SUB AND PUSH1 0x1 PUSH1 0x1 PUSH1 0xE0 SHL SUB NOT SWAP1 SWAP4 AND SWAP3 SWAP1 SWAP3 OR SWAP1 SWAP2 MSTORE PUSH2 0x47A9 JUMP JUMPDEST POP POP POP POP JUMP JUMPDEST PUSH1 0x34 PUSH1 0x0 SWAP1 SLOAD SWAP1 PUSH2 0x100 EXP SWAP1 DIV PUSH1 0x1 PUSH1 0x1 PUSH1 0xA0 SHL SUB AND PUSH1 0x1 PUSH1 0x1 PUSH1 0xA0 SHL SUB AND PUSH4 0xFBEEFC3C PUSH1 0x40 MLOAD DUP2 PUSH4 0xFFFFFFFF AND PUSH1 0xE0 SHL DUP2 MSTORE PUSH1 0x4 ADD PUSH1 0x20 PUSH1 0x40 MLOAD DUP1 DUP4 SUB DUP2 DUP7 DUP1 EXTCODESIZE ISZERO DUP1 ISZERO PUSH2 0x35C8 JUMPI PUSH1 0x0 DUP1 REVERT JUMPDEST POP GAS STATICCALL ISZERO DUP1 ISZERO PUSH2 0x35DC JUMPI RETURNDATASIZE PUSH1 0x0 DUP1 RETURNDATACOPY RETURNDATASIZE PUSH1 0x0 REVERT JUMPDEST POP POP POP POP PUSH1 0x40 MLOAD RETURNDATASIZE PUSH1 0x1F NOT PUSH1 0x1F DUP3 ADD AND DUP3 ADD DUP1 PUSH1 0x40 MSTORE POP DUP2 ADD SWAP1 PUSH2 0x3600 SWAP2 SWAP1 PUSH2 0x5069 JUMP JUMPDEST PUSH1 0x36 DUP1 SLOAD PUSH1 0x1 PUSH1 0x1 PUSH1 0xA0 SHL SUB NOT AND PUSH1 0x1 PUSH1 0x1 PUSH1 0xA0 SHL SUB SWAP3 DUP4 AND OR SWAP1 SSTORE PUSH1 0x34 SLOAD PUSH1 0x40 DUP1 MLOAD PUSH4 0x10EA16EB PUSH1 0xE0 SHL DUP2 MSTORE SWAP1 MLOAD SWAP2 SWAP1 SWAP3 AND SWAP2 PUSH4 0x10EA16EB SWAP2 PUSH1 0x4 DUP1 DUP4 ADD SWAP3 PUSH1 0x20 SWAP3 SWAP2 SWAP1 DUP3 SWAP1 SUB ADD DUP2 DUP7 DUP1 EXTCODESIZE ISZERO DUP1 ISZERO PUSH2 0x3659 JUMPI PUSH1 0x0 DUP1 REVERT JUMPDEST POP GAS STATICCALL ISZERO DUP1 ISZERO PUSH2 0x366D JUMPI RETURNDATASIZE PUSH1 0x0 DUP1 RETURNDATACOPY RETURNDATASIZE PUSH1 0x0 REVERT JUMPDEST POP POP POP POP PUSH1 0x40 MLOAD RETURNDATASIZE PUSH1 0x1F NOT PUSH1 0x1F DUP3 ADD AND DUP3 ADD DUP1 PUSH1 0x40 MSTORE POP DUP2 ADD SWAP1 PUSH2 0x3691 SWAP2 SWAP1 PUSH2 0x5069 JUMP JUMPDEST PUSH1 0x37 DUP1 SLOAD PUSH1 0x1 PUSH1 0x1 PUSH1 0xA0 SHL SUB NOT AND PUSH1 0x1 PUSH1 0x1 PUSH1 0xA0 SHL SUB SWAP3 DUP4 AND OR SWAP1 SSTORE PUSH1 0x34 SLOAD PUSH1 0x40 DUP1 MLOAD PUSH4 0x145D02F PUSH1 0xE4 SHL DUP2 MSTORE SWAP1 MLOAD SWAP2 SWAP1 SWAP3 AND SWAP2 PUSH4 0x145D02F0 SWAP2 PUSH1 0x4 DUP1 DUP4 ADD SWAP3 PUSH1 0x20 SWAP3 SWAP2 SWAP1 DUP3 SWAP1 SUB ADD DUP2 DUP7 DUP1 EXTCODESIZE ISZERO DUP1 ISZERO PUSH2 0x36EA JUMPI PUSH1 0x0 DUP1 REVERT JUMPDEST POP GAS STATICCALL ISZERO DUP1 ISZERO PUSH2 0x36FE JUMPI RETURNDATASIZE PUSH1 0x0 DUP1 RETURNDATACOPY RETURNDATASIZE PUSH1 0x0 REVERT JUMPDEST POP POP POP POP PUSH1 0x40 MLOAD RETURNDATASIZE PUSH1 0x1F NOT PUSH1 0x1F DUP3 ADD AND DUP3 ADD DUP1 PUSH1 0x40 MSTORE POP DUP2 ADD SWAP1 PUSH2 0x3722 SWAP2 SWAP1 PUSH2 0x5069 JUMP JUMPDEST PUSH1 0x38 DUP1 SLOAD PUSH1 0x1 PUSH1 0x1 PUSH1 0xA0 SHL SUB NOT AND PUSH1 0x1 PUSH1 0x1 PUSH1 0xA0 SHL SUB SWAP3 SWAP1 SWAP3 AND SWAP2 SWAP1 SWAP2 OR SWAP1 SSTORE JUMP JUMPDEST DUP1 MLOAD PUSH1 0x1 PUSH1 0x1 PUSH1 0xA0 SHL SUB SWAP1 DUP2 AND PUSH1 0x0 SWAP1 DUP2 MSTORE PUSH1 0x39 PUSH1 0x20 SWAP1 DUP2 MSTORE PUSH1 0x40 DUP1 DUP4 KECCAK256 DUP2 DUP7 ADD MLOAD DUP6 AND DUP5 MSTORE PUSH1 0x3A DUP4 MSTORE DUP2 DUP5 KECCAK256 PUSH1 0x34 SLOAD DUP4 MLOAD PUSH4 0x1F94A275 PUSH1 0xE3 SHL DUP2 MSTORE SWAP4 MLOAD SWAP3 SWAP7 SWAP2 SWAP6 SWAP5 SWAP2 AND SWAP3 PUSH4 0xFCA513A8 SWAP3 PUSH1 0x4 DUP1 DUP4 ADD SWAP4 SWAP3 DUP3 SWAP1 SUB ADD DUP2 DUP7 DUP1 EXTCODESIZE ISZERO DUP1 ISZERO PUSH2 0x37AB JUMPI PUSH1 0x0 DUP1 REVERT JUMPDEST POP GAS STATICCALL ISZERO DUP1 ISZERO PUSH2 0x37BF JUMPI RETURNDATASIZE PUSH1 0x0 DUP1 RETURNDATACOPY RETURNDATASIZE PUSH1 0x0 REVERT JUMPDEST POP POP POP POP PUSH1 0x40 MLOAD RETURNDATASIZE PUSH1 0x1F NOT PUSH1 0x1F DUP3 ADD AND DUP3 ADD DUP1 PUSH1 0x40 MSTORE POP DUP2 ADD SWAP1 PUSH2 0x37E3 SWAP2 SWAP1 PUSH2 0x5069 JUMP JUMPDEST SWAP1 POP PUSH1 0x0 PUSH2 0x388A PUSH2 0x37F3 DUP6 PUSH2 0x4838 JUMP JUMPDEST PUSH1 0xA EXP PUSH2 0x3884 DUP8 PUSH1 0x60 ADD MLOAD DUP6 PUSH1 0x1 PUSH1 0x1 PUSH1 0xA0 SHL SUB AND PUSH4 0xB3596F07 DUP11 PUSH1 0x0 ADD MLOAD PUSH1 0x40 MLOAD DUP3 PUSH4 0xFFFFFFFF AND PUSH1 0xE0 SHL DUP2 MSTORE PUSH1 0x4 ADD PUSH2 0x382E SWAP2 SWAP1 PUSH2 0x55C6 JUMP JUMPDEST PUSH1 0x20 PUSH1 0x40 MLOAD DUP1 DUP4 SUB DUP2 DUP7 DUP1 EXTCODESIZE ISZERO DUP1 ISZERO PUSH2 0x3846 JUMPI PUSH1 0x0 DUP1 REVERT JUMPDEST POP GAS STATICCALL ISZERO DUP1 ISZERO PUSH2 0x385A JUMPI RETURNDATASIZE PUSH1 0x0 DUP1 RETURNDATACOPY RETURNDATASIZE PUSH1 0x0 REVERT JUMPDEST POP POP POP POP PUSH1 0x40 MLOAD RETURNDATASIZE PUSH1 0x1F NOT PUSH1 0x1F DUP3 ADD AND DUP3 ADD DUP1 PUSH1 0x40 MSTORE POP DUP2 ADD SWAP1 PUSH2 0x387E SWAP2 SWAP1 PUSH2 0x542C JUMP JUMPDEST SWAP1 PUSH2 0x4842 JUMP JUMPDEST SWAP1 PUSH2 0x487C JUMP JUMPDEST SWAP1 POP PUSH20 0x0 PUSH4 0x81DD5443 DUP7 PUSH1 0x0 ADD MLOAD DUP7 DUP9 PUSH1 0x40 ADD MLOAD DUP10 PUSH1 0x60 ADD MLOAD DUP7 DUP12 PUSH1 0x80 ADD MLOAD PUSH2 0x9C4 PUSH1 0x39 DUP13 PUSH1 0x3B PUSH1 0x3C SLOAD DUP15 PUSH1 0x40 MLOAD DUP14 PUSH4 0xFFFFFFFF AND PUSH1 0xE0 SHL DUP2 MSTORE PUSH1 0x4 ADD PUSH2 0x38EF SWAP13 SWAP12 SWAP11 SWAP10 SWAP9 SWAP8 SWAP7 SWAP6 SWAP5 SWAP4 SWAP3 SWAP2 SWAP1 PUSH2 0x57F5 JUMP JUMPDEST PUSH1 0x0 PUSH1 0x40 MLOAD DUP1 DUP4 SUB DUP2 DUP7 DUP1 EXTCODESIZE ISZERO DUP1 ISZERO PUSH2 0x3907 JUMPI PUSH1 0x0 DUP1 REVERT JUMPDEST POP GAS DELEGATECALL ISZERO DUP1 ISZERO PUSH2 0x391B JUMPI RETURNDATASIZE PUSH1 0x0 DUP1 RETURNDATACOPY RETURNDATASIZE PUSH1 0x0 REVERT JUMPDEST POP POP PUSH1 0x37 SLOAD PUSH2 0x3936 SWAP3 POP DUP7 SWAP2 POP PUSH1 0x1 PUSH1 0x1 PUSH1 0xA0 SHL SUB AND PUSH2 0x2F8D JUMP JUMPDEST PUSH1 0x35 SLOAD DUP6 MLOAD PUSH1 0x40 MLOAD PUSH4 0xF8A56CD PUSH1 0xE3 SHL DUP2 MSTORE PUSH1 0x1 PUSH1 0x1 PUSH1 0xA0 SHL SUB SWAP1 SWAP3 AND SWAP2 PUSH4 0x7C52B668 SWAP2 PUSH2 0x3966 SWAP2 PUSH1 0x4 ADD PUSH2 0x55C6 JUMP JUMPDEST PUSH1 0x20 PUSH1 0x40 MLOAD DUP1 DUP4 SUB DUP2 PUSH1 0x0 DUP8 DUP1 EXTCODESIZE ISZERO DUP1 ISZERO PUSH2 0x3980 JUMPI PUSH1 0x0 DUP1 REVERT JUMPDEST POP GAS CALL ISZERO DUP1 ISZERO PUSH2 0x3994 JUMPI RETURNDATASIZE PUSH1 0x0 DUP1 RETURNDATACOPY RETURNDATASIZE PUSH1 0x0 REVERT JUMPDEST POP POP POP POP PUSH1 0x40 MLOAD RETURNDATASIZE PUSH1 0x1F NOT PUSH1 0x1F DUP3 ADD AND DUP3 ADD DUP1 PUSH1 0x40 MSTORE POP DUP2 ADD SWAP1 PUSH2 0x39B8 SWAP2 SWAP1 PUSH2 0x5410 JUMP JUMPDEST POP PUSH1 0x20 DUP6 ADD MLOAD DUP6 MLOAD PUSH1 0x60 DUP8 ADD MLOAD PUSH1 0xC0 DUP9 ADD MLOAD PUSH1 0x36 SLOAD PUSH1 0x0 SWAP5 DUP6 SWAP5 PUSH2 0x39EC SWAP5 DUP12 SWAP5 SWAP3 SWAP4 SWAP2 SWAP3 SWAP1 SWAP2 PUSH1 0x1 PUSH1 0x1 PUSH1 0xA0 SHL SUB AND PUSH2 0x48BE JUMP JUMPDEST PUSH1 0x1 DUP8 PUSH1 0x80 ADD MLOAD PUSH1 0x2 DUP2 GT ISZERO PUSH2 0x39FE JUMPI INVALID JUMPDEST PUSH1 0x2 DUP2 GT ISZERO PUSH2 0x3A09 JUMPI INVALID JUMPDEST EQ ISZERO PUSH2 0x3ABE JUMPI PUSH1 0x3 DUP7 ADD SLOAD PUSH1 0x5 DUP8 ADD SLOAD PUSH1 0x20 DUP10 ADD MLOAD PUSH1 0x40 DUP1 DUP12 ADD MLOAD PUSH1 0x60 DUP13 ADD MLOAD SWAP2 MLOAD PUSH4 0xB3F1C93D PUSH1 0xE0 SHL DUP2 MSTORE PUSH1 0x1 PUSH1 0x1 PUSH1 0x80 SHL SUB SWAP1 SWAP6 AND SWAP7 POP PUSH1 0x1 PUSH1 0x1 PUSH1 0xA0 SHL SUB SWAP1 SWAP4 AND SWAP4 PUSH4 0xB3F1C93D SWAP4 PUSH2 0x3A65 SWAP4 SWAP3 SWAP1 SWAP2 DUP9 SWAP1 PUSH1 0x4 ADD PUSH2 0x5772 JUMP JUMPDEST PUSH1 0x20 PUSH1 0x40 MLOAD DUP1 DUP4 SUB DUP2 PUSH1 0x0 DUP8 DUP1 EXTCODESIZE ISZERO DUP1 ISZERO PUSH2 0x3A7F JUMPI PUSH1 0x0 DUP1 REVERT JUMPDEST POP GAS CALL ISZERO DUP1 ISZERO PUSH2 0x3A93 JUMPI RETURNDATASIZE PUSH1 0x0 DUP1 RETURNDATACOPY RETURNDATASIZE PUSH1 0x0 REVERT JUMPDEST POP POP POP POP PUSH1 0x40 MLOAD RETURNDATASIZE PUSH1 0x1F NOT PUSH1 0x1F DUP3 ADD AND DUP3 ADD DUP1 PUSH1 0x40 MSTORE POP DUP2 ADD SWAP1 PUSH2 0x3AB7 SWAP2 SWAP1 PUSH2 0x5410 JUMP JUMPDEST SWAP1 POP PUSH2 0x3B6D JUMP JUMPDEST PUSH1 0x6 DUP7 ADD SLOAD PUSH1 0x20 DUP9 ADD MLOAD PUSH1 0x40 DUP1 DUP11 ADD MLOAD PUSH1 0x60 DUP12 ADD MLOAD PUSH1 0x1 DUP12 ADD SLOAD SWAP3 MLOAD PUSH4 0xB3F1C93D PUSH1 0xE0 SHL DUP2 MSTORE PUSH1 0x1 PUSH1 0x1 PUSH1 0xA0 SHL SUB SWAP1 SWAP6 AND SWAP5 PUSH4 0xB3F1C93D SWAP5 PUSH2 0x3B18 SWAP5 SWAP1 SWAP4 SWAP3 SWAP2 PUSH1 0x1 PUSH1 0x80 SHL SWAP1 SWAP2 DIV PUSH1 0x1 PUSH1 0x1 PUSH1 0x80 SHL SUB AND SWAP1 PUSH1 0x4 ADD PUSH2 0x55DA JUMP JUMPDEST PUSH1 0x20 PUSH1 0x40 MLOAD DUP1 DUP4 SUB DUP2 PUSH1 0x0 DUP8 DUP1 EXTCODESIZE ISZERO DUP1 ISZERO PUSH2 0x3B32 JUMPI PUSH1 0x0 DUP1 REVERT JUMPDEST POP GAS CALL ISZERO DUP1 ISZERO PUSH2 0x3B46 JUMPI RETURNDATASIZE PUSH1 0x0 DUP1 RETURNDATACOPY RETURNDATASIZE PUSH1 0x0 REVERT JUMPDEST POP POP POP POP PUSH1 0x40 MLOAD RETURNDATASIZE PUSH1 0x1F NOT PUSH1 0x1F DUP3 ADD AND DUP3 ADD DUP1 PUSH1 0x40 MSTORE POP DUP2 ADD SWAP1 PUSH2 0x3B6A SWAP2 SWAP1 PUSH2 0x5410 JUMP JUMPDEST SWAP1 POP JUMPDEST DUP1 ISZERO PUSH2 0x3B8F JUMPI PUSH1 0x7 DUP7 ADD SLOAD PUSH2 0x3B8F SWAP1 DUP7 SWAP1 PUSH1 0x1 PUSH1 0xA0 SHL SWAP1 DIV PUSH1 0xFF AND PUSH1 0x1 PUSH2 0x34C7 JUMP JUMPDEST PUSH2 0x3BBE DUP8 PUSH1 0x0 ADD MLOAD DUP9 PUSH1 0xA0 ADD MLOAD PUSH1 0x0 DUP11 PUSH1 0xE0 ADD MLOAD PUSH2 0x3BAE JUMPI PUSH1 0x0 PUSH2 0x3BB4 JUMP JUMPDEST DUP11 PUSH1 0x60 ADD MLOAD JUMPDEST DUP11 SWAP4 SWAP3 SWAP2 SWAP1 PUSH2 0x3065 JUMP JUMPDEST DUP7 PUSH1 0xE0 ADD MLOAD ISZERO PUSH2 0x3C56 JUMPI DUP7 PUSH1 0xA0 ADD MLOAD PUSH1 0x1 PUSH1 0x1 PUSH1 0xA0 SHL SUB AND PUSH4 0x4EFECAA5 DUP9 PUSH1 0x20 ADD MLOAD DUP10 PUSH1 0x60 ADD MLOAD PUSH1 0x40 MLOAD DUP4 PUSH4 0xFFFFFFFF AND PUSH1 0xE0 SHL DUP2 MSTORE PUSH1 0x4 ADD PUSH2 0x3C02 SWAP3 SWAP2 SWAP1 PUSH2 0x5672 JUMP JUMPDEST PUSH1 0x20 PUSH1 0x40 MLOAD DUP1 DUP4 SUB DUP2 PUSH1 0x0 DUP8 DUP1 EXTCODESIZE ISZERO DUP1 ISZERO PUSH2 0x3C1C JUMPI PUSH1 0x0 DUP1 REVERT JUMPDEST POP GAS CALL ISZERO DUP1 ISZERO PUSH2 0x3C30 JUMPI RETURNDATASIZE PUSH1 0x0 DUP1 RETURNDATACOPY RETURNDATASIZE PUSH1 0x0 REVERT JUMPDEST POP POP POP POP PUSH1 0x40 MLOAD RETURNDATASIZE PUSH1 0x1F NOT PUSH1 0x1F DUP3 ADD AND DUP3 ADD DUP1 PUSH1 0x40 MSTORE POP DUP2 ADD SWAP1 PUSH2 0x3C54 SWAP2 SWAP1 PUSH2 0x542C JUMP JUMPDEST POP JUMPDEST DUP7 PUSH1 0x40 ADD MLOAD PUSH1 0x1 PUSH1 0x1 PUSH1 0xA0 SHL SUB AND DUP8 PUSH1 0x0 ADD MLOAD PUSH1 0x1 PUSH1 0x1 PUSH1 0xA0 SHL SUB AND PUSH32 0x4BC4B08D677FC59195D56E346DCB5CC5DC3B78B90D59F5D36740AE1B3D225DB8 DUP10 PUSH1 0x20 ADD MLOAD DUP11 PUSH1 0x60 ADD MLOAD DUP12 PUSH1 0x80 ADD MLOAD PUSH1 0x1 PUSH1 0x2 DUP2 GT ISZERO PUSH2 0x3CAF JUMPI INVALID JUMPDEST DUP14 PUSH1 0x80 ADD MLOAD PUSH1 0x2 DUP2 GT ISZERO PUSH2 0x3CBF JUMPI INVALID JUMPDEST PUSH1 0x2 DUP2 GT ISZERO PUSH2 0x3CCA JUMPI INVALID JUMPDEST EQ PUSH2 0x3CE9 JUMPI PUSH1 0x2 DUP13 ADD SLOAD PUSH1 0x1 PUSH1 0x80 SHL SWAP1 DIV PUSH1 0x1 PUSH1 0x1 PUSH1 0x80 SHL SUB AND PUSH2 0x3CEB JUMP JUMPDEST DUP8 JUMPDEST PUSH1 0x40 MLOAD PUSH2 0x2527 SWAP5 SWAP4 SWAP3 SWAP2 SWAP1 PUSH2 0x589F JUMP JUMPDEST PUSH1 0x0 DUP1 PUSH1 0x0 DUP1 PUSH1 0x0 PUSH2 0x3D0B PUSH2 0x4F40 JUMP JUMPDEST PUSH2 0x3D14 DUP11 PUSH2 0x4A65 JUMP JUMPDEST ISZERO PUSH2 0x3D32 JUMPI PUSH1 0x0 DUP1 PUSH1 0x0 DUP1 PUSH1 0x0 NOT SWAP6 POP SWAP6 POP SWAP6 POP SWAP6 POP SWAP6 POP POP PUSH2 0x41AE JUMP JUMPDEST PUSH1 0x0 PUSH1 0xE0 DUP3 ADD MSTORE JUMPDEST DUP8 DUP2 PUSH1 0xE0 ADD MLOAD LT ISZERO PUSH2 0x410D JUMPI PUSH1 0xE0 DUP2 ADD MLOAD PUSH2 0x3D56 SWAP1 DUP12 SWAP1 PUSH2 0x4A6A JUMP JUMPDEST PUSH2 0x3D5F JUMPI PUSH2 0x40FD JUMP JUMPDEST PUSH1 0xE0 DUP2 ADD MLOAD PUSH1 0x0 SWAP1 DUP2 MSTORE PUSH1 0x20 DUP11 DUP2 MSTORE PUSH1 0x40 DUP1 DUP4 KECCAK256 SLOAD PUSH1 0x1 PUSH1 0x1 PUSH1 0xA0 SHL SUB AND PUSH2 0x1E0 DUP6 ADD DUP2 SWAP1 MSTORE DUP4 MSTORE SWAP1 DUP14 SWAP1 MSTORE SWAP1 KECCAK256 PUSH2 0x3D96 DUP2 PUSH2 0x4A9D JUMP JUMPDEST POP PUSH1 0x80 DUP7 ADD DUP2 SWAP1 MSTORE PUSH1 0xC0 DUP7 ADD SWAP3 SWAP1 SWAP3 MSTORE POP PUSH1 0xA0 DUP5 ADD SWAP2 SWAP1 SWAP2 MSTORE PUSH1 0xA EXP PUSH1 0x20 DUP4 ADD MSTORE PUSH2 0x1E0 DUP3 ADD MLOAD PUSH1 0x40 MLOAD PUSH4 0xB3596F07 PUSH1 0xE0 SHL DUP2 MSTORE PUSH1 0x1 PUSH1 0x1 PUSH1 0xA0 SHL SUB DUP11 AND SWAP2 PUSH4 0xB3596F07 SWAP2 PUSH2 0x3DE8 SWAP2 SWAP1 PUSH1 0x4 ADD PUSH2 0x55C6 JUMP JUMPDEST PUSH1 0x20 PUSH1 0x40 MLOAD DUP1 DUP4 SUB DUP2 DUP7 DUP1 EXTCODESIZE ISZERO DUP1 ISZERO PUSH2 0x3E00 JUMPI PUSH1 0x0 DUP1 REVERT JUMPDEST POP GAS STATICCALL ISZERO DUP1 ISZERO PUSH2 0x3E14 JUMPI RETURNDATASIZE PUSH1 0x0 DUP1 RETURNDATACOPY RETURNDATASIZE PUSH1 0x0 REVERT JUMPDEST POP POP POP POP PUSH1 0x40 MLOAD RETURNDATASIZE PUSH1 0x1F NOT PUSH1 0x1F DUP3 ADD AND DUP3 ADD DUP1 PUSH1 0x40 MSTORE POP DUP2 ADD SWAP1 PUSH2 0x3E38 SWAP2 SWAP1 PUSH2 0x542C JUMP JUMPDEST DUP3 MSTORE PUSH1 0xC0 DUP3 ADD MLOAD ISZERO DUP1 ISZERO SWAP1 PUSH2 0x3E58 JUMPI POP PUSH1 0xE0 DUP3 ADD MLOAD PUSH2 0x3E58 SWAP1 DUP13 SWAP1 PUSH2 0x4AC8 JUMP JUMPDEST ISZERO PUSH2 0x3F76 JUMPI DUP1 PUSH1 0x4 ADD PUSH1 0x0 SWAP1 SLOAD SWAP1 PUSH2 0x100 EXP SWAP1 DIV PUSH1 0x1 PUSH1 0x1 PUSH1 0xA0 SHL SUB AND PUSH1 0x1 PUSH1 0x1 PUSH1 0xA0 SHL SUB AND PUSH4 0x70A08231 DUP15 PUSH1 0x40 MLOAD DUP3 PUSH4 0xFFFFFFFF AND PUSH1 0xE0 SHL DUP2 MSTORE PUSH1 0x4 ADD PUSH2 0x3EA0 SWAP2 SWAP1 PUSH2 0x55C6 JUMP JUMPDEST PUSH1 0x20 PUSH1 0x40 MLOAD DUP1 DUP4 SUB DUP2 DUP7 DUP1 EXTCODESIZE ISZERO DUP1 ISZERO PUSH2 0x3EB8 JUMPI PUSH1 0x0 DUP1 REVERT JUMPDEST POP GAS STATICCALL ISZERO DUP1 ISZERO PUSH2 0x3ECC JUMPI RETURNDATASIZE PUSH1 0x0 DUP1 RETURNDATACOPY RETURNDATASIZE PUSH1 0x0 REVERT JUMPDEST POP POP POP POP PUSH1 0x40 MLOAD RETURNDATASIZE PUSH1 0x1F NOT PUSH1 0x1F DUP3 ADD AND DUP3 ADD DUP1 PUSH1 0x40 MSTORE POP DUP2 ADD SWAP1 PUSH2 0x3EF0 SWAP2 SWAP1 PUSH2 0x542C JUMP JUMPDEST PUSH1 0x40 DUP4 ADD DUP2 SWAP1 MSTORE PUSH1 0x20 DUP4 ADD MLOAD DUP4 MLOAD PUSH1 0x0 SWAP3 PUSH2 0x3F0F SWAP3 SWAP2 PUSH2 0x3884 SWAP2 PUSH2 0x4842 JUMP JUMPDEST PUSH2 0x120 DUP5 ADD MLOAD SWAP1 SWAP2 POP PUSH2 0x3F22 SWAP1 DUP3 PUSH2 0x3457 JUMP JUMPDEST PUSH2 0x120 DUP5 ADD MSTORE PUSH1 0xA0 DUP4 ADD MLOAD PUSH2 0x3F48 SWAP1 PUSH2 0x3F3C SWAP1 DUP4 SWAP1 PUSH2 0x4842 JUMP JUMPDEST PUSH2 0x160 DUP6 ADD MLOAD SWAP1 PUSH2 0x3457 JUMP JUMPDEST PUSH2 0x160 DUP5 ADD MSTORE PUSH1 0xC0 DUP4 ADD MLOAD PUSH2 0x3F6E SWAP1 PUSH2 0x3F62 SWAP1 DUP4 SWAP1 PUSH2 0x4842 JUMP JUMPDEST PUSH2 0x180 DUP6 ADD MLOAD SWAP1 PUSH2 0x3457 JUMP JUMPDEST PUSH2 0x180 DUP5 ADD MSTORE POP JUMPDEST PUSH1 0xE0 DUP3 ADD MLOAD PUSH2 0x3F86 SWAP1 DUP13 SWAP1 PUSH2 0x4B02 JUMP JUMPDEST ISZERO PUSH2 0x40FB JUMPI DUP1 PUSH1 0x5 ADD PUSH1 0x0 SWAP1 SLOAD SWAP1 PUSH2 0x100 EXP SWAP1 DIV PUSH1 0x1 PUSH1 0x1 PUSH1 0xA0 SHL SUB AND PUSH1 0x1 PUSH1 0x1 PUSH1 0xA0 SHL SUB AND PUSH4 0x70A08231 DUP15 PUSH1 0x40 MLOAD DUP3 PUSH4 0xFFFFFFFF AND PUSH1 0xE0 SHL DUP2 MSTORE PUSH1 0x4 ADD PUSH2 0x3FCE SWAP2 SWAP1 PUSH2 0x55C6 JUMP JUMPDEST PUSH1 0x20 PUSH1 0x40 MLOAD DUP1 DUP4 SUB DUP2 DUP7 DUP1 EXTCODESIZE ISZERO DUP1 ISZERO PUSH2 0x3FE6 JUMPI PUSH1 0x0 DUP1 REVERT JUMPDEST POP GAS STATICCALL ISZERO DUP1 ISZERO PUSH2 0x3FFA JUMPI RETURNDATASIZE PUSH1 0x0 DUP1 RETURNDATACOPY RETURNDATASIZE PUSH1 0x0 REVERT JUMPDEST POP POP POP POP PUSH1 0x40 MLOAD RETURNDATASIZE PUSH1 0x1F NOT PUSH1 0x1F DUP3 ADD AND DUP3 ADD DUP1 PUSH1 0x40 MSTORE POP DUP2 ADD SWAP1 PUSH2 0x401E SWAP2 SWAP1 PUSH2 0x542C JUMP JUMPDEST DUP3 PUSH1 0x60 ADD DUP2 DUP2 MSTORE POP POP PUSH2 0x40C8 DUP2 PUSH1 0x6 ADD PUSH1 0x0 SWAP1 SLOAD SWAP1 PUSH2 0x100 EXP SWAP1 DIV PUSH1 0x1 PUSH1 0x1 PUSH1 0xA0 SHL SUB AND PUSH1 0x1 PUSH1 0x1 PUSH1 0xA0 SHL SUB AND PUSH4 0x70A08231 DUP16 PUSH1 0x40 MLOAD DUP3 PUSH4 0xFFFFFFFF AND PUSH1 0xE0 SHL DUP2 MSTORE PUSH1 0x4 ADD PUSH2 0x406D SWAP2 SWAP1 PUSH2 0x55C6 JUMP JUMPDEST PUSH1 0x20 PUSH1 0x40 MLOAD DUP1 DUP4 SUB DUP2 DUP7 DUP1 EXTCODESIZE ISZERO DUP1 ISZERO PUSH2 0x4085 JUMPI PUSH1 0x0 DUP1 REVERT JUMPDEST POP GAS STATICCALL ISZERO DUP1 ISZERO PUSH2 0x4099 JUMPI RETURNDATASIZE PUSH1 0x0 DUP1 RETURNDATACOPY RETURNDATASIZE PUSH1 0x0 REVERT JUMPDEST POP POP POP POP PUSH1 0x40 MLOAD RETURNDATASIZE PUSH1 0x1F NOT PUSH1 0x1F DUP3 ADD AND DUP3 ADD DUP1 PUSH1 0x40 MSTORE POP DUP2 ADD SWAP1 PUSH2 0x40BD SWAP2 SWAP1 PUSH2 0x542C JUMP JUMPDEST PUSH1 0x60 DUP5 ADD MLOAD SWAP1 PUSH2 0x3457 JUMP JUMPDEST PUSH1 0x60 DUP4 ADD DUP2 SWAP1 MSTORE PUSH1 0x20 DUP4 ADD MLOAD DUP4 MLOAD PUSH2 0x40F4 SWAP3 PUSH2 0x40E8 SWAP3 SWAP2 PUSH2 0x3884 SWAP2 PUSH2 0x4842 JUMP JUMPDEST PUSH2 0x140 DUP5 ADD MLOAD SWAP1 PUSH2 0x3457 JUMP JUMPDEST PUSH2 0x140 DUP4 ADD MSTORE JUMPDEST POP JUMPDEST PUSH1 0xE0 DUP2 ADD DUP1 MLOAD PUSH1 0x1 ADD SWAP1 MSTORE PUSH2 0x3D3A JUMP JUMPDEST PUSH1 0x0 DUP2 PUSH2 0x120 ADD MLOAD GT PUSH2 0x4121 JUMPI PUSH1 0x0 PUSH2 0x4136 JUMP JUMPDEST PUSH2 0x120 DUP2 ADD MLOAD PUSH2 0x160 DUP3 ADD MLOAD PUSH2 0x4136 SWAP2 PUSH2 0x487C JUMP JUMPDEST PUSH2 0x160 DUP3 ADD MSTORE PUSH2 0x120 DUP2 ADD MLOAD PUSH2 0x414D JUMPI PUSH1 0x0 PUSH2 0x4162 JUMP JUMPDEST PUSH2 0x120 DUP2 ADD MLOAD PUSH2 0x180 DUP3 ADD MLOAD PUSH2 0x4162 SWAP2 PUSH2 0x487C JUMP JUMPDEST PUSH2 0x180 DUP3 ADD DUP2 SWAP1 MSTORE PUSH2 0x120 DUP3 ADD MLOAD PUSH2 0x140 DUP4 ADD MLOAD PUSH2 0x417F SWAP3 PUSH2 0x4B35 JUMP JUMPDEST PUSH2 0x100 DUP3 ADD DUP2 SWAP1 MSTORE PUSH2 0x120 DUP3 ADD MLOAD PUSH2 0x140 DUP4 ADD MLOAD PUSH2 0x160 DUP5 ADD MLOAD PUSH2 0x180 SWAP1 SWAP5 ADD MLOAD SWAP2 SWAP9 POP SWAP7 POP SWAP2 SWAP5 POP SWAP1 SWAP3 POP SWAP1 POP JUMPDEST SWAP7 POP SWAP7 POP SWAP7 POP SWAP7 POP SWAP7 SWAP2 POP POP JUMP JUMPDEST PUSH1 0x0 DUP1 PUSH2 0x41C9 DUP6 DUP5 PUSH2 0x4B59 JUMP JUMPDEST SWAP1 POP DUP4 DUP2 LT ISZERO PUSH2 0x41DD JUMPI PUSH1 0x0 SWAP2 POP POP PUSH2 0x154C JUMP JUMPDEST PUSH2 0x41E7 DUP2 DUP6 PUSH2 0x3485 JUMP JUMPDEST SWAP6 SWAP5 POP POP POP POP POP JUMP JUMPDEST PUSH1 0x1 SWAP1 JUMP JUMPDEST ADDRESS EXTCODESIZE ISZERO SWAP1 JUMP JUMPDEST PUSH1 0x0 DUP1 PUSH1 0x0 DUP1 DUP5 PUSH1 0x1 PUSH1 0x1 PUSH1 0xA0 SHL SUB AND PUSH4 0x65F156DE DUP13 DUP13 DUP13 DUP11 PUSH1 0x40 MLOAD DUP6 PUSH4 0xFFFFFFFF AND PUSH1 0xE0 SHL DUP2 MSTORE PUSH1 0x4 ADD PUSH2 0x4233 SWAP5 SWAP4 SWAP3 SWAP2 SWAP1 PUSH2 0x5746 JUMP JUMPDEST PUSH1 0x60 PUSH1 0x40 MLOAD DUP1 DUP4 SUB DUP2 PUSH1 0x0 DUP8 DUP1 EXTCODESIZE ISZERO DUP1 ISZERO PUSH2 0x424D JUMPI PUSH1 0x0 DUP1 REVERT JUMPDEST POP GAS CALL ISZERO DUP1 ISZERO PUSH2 0x4261 JUMPI RETURNDATASIZE PUSH1 0x0 DUP1 RETURNDATACOPY RETURNDATASIZE PUSH1 0x0 REVERT JUMPDEST POP POP POP POP PUSH1 0x40 MLOAD RETURNDATASIZE PUSH1 0x1F NOT PUSH1 0x1F DUP3 ADD AND DUP3 ADD DUP1 PUSH1 0x40 MSTORE POP DUP2 ADD SWAP1 PUSH2 0x4285 SWAP2 SWAP1 PUSH2 0x550E JUMP JUMPDEST SWAP3 POP SWAP3 POP SWAP3 POP PUSH1 0x0 DUP3 GT DUP1 ISZERO PUSH2 0x42A3 JUMPI POP PUSH1 0x1 PUSH1 0x1 PUSH1 0xA0 SHL SUB DUP9 AND ISZERO ISZERO JUMPDEST ISZERO PUSH2 0x42BD JUMPI PUSH2 0x42BD PUSH1 0x1 PUSH1 0x1 PUSH1 0xA0 SHL SUB DUP12 AND DUP13 DUP11 DUP6 PUSH2 0x351C JUMP JUMPDEST PUSH1 0x0 DUP2 GT DUP1 ISZERO PUSH2 0x42D5 JUMPI POP PUSH1 0x1 PUSH1 0x1 PUSH1 0xA0 SHL SUB DUP8 AND ISZERO ISZERO JUMPDEST ISZERO PUSH2 0x42EF JUMPI PUSH2 0x42EF PUSH1 0x1 PUSH1 0x1 PUSH1 0xA0 SHL SUB DUP12 AND DUP13 DUP10 DUP5 PUSH2 0x351C JUMP JUMPDEST PUSH32 0x597C350087E2F091C27C26DE4CABEA0413196E4B68C85516A25225CE6C944A43 DUP11 DUP13 DUP12 DUP6 DUP6 DUP12 PUSH1 0x40 MLOAD PUSH2 0x4328 SWAP7 SWAP6 SWAP5 SWAP4 SWAP3 SWAP2 SWAP1 PUSH2 0x579B JUMP JUMPDEST PUSH1 0x40 MLOAD DUP1 SWAP2 SUB SWAP1 LOG1 POP SWAP1 SWAP11 SWAP10 POP POP POP POP POP POP POP POP POP POP JUMP JUMPDEST PUSH1 0x40 DUP1 MLOAD PUSH1 0x20 DUP2 ADD SWAP1 SWAP2 MSTORE DUP5 SLOAD DUP2 MSTORE PUSH1 0x0 SWAP1 PUSH2 0x4362 SWAP1 DUP9 SWAP1 DUP9 SWAP1 DUP8 DUP8 DUP8 PUSH2 0x3CFB JUMP JUMPDEST SWAP5 POP POP POP POP POP PUSH8 0xDE0B6B3A7640000 DUP2 LT ISZERO PUSH2 0x2887 JUMPI PUSH1 0x40 MLOAD PUSH3 0x461BCD PUSH1 0xE5 SHL DUP2 MSTORE PUSH1 0x4 ADD PUSH2 0x51D SWAP1 PUSH2 0x5A80 JUMP JUMPDEST PUSH1 0x0 PUSH2 0x347C DUP4 DUP4 TIMESTAMP PUSH2 0x4BAA JUMP JUMPDEST PUSH1 0x0 DUP3 ISZERO DUP1 PUSH2 0x43AA JUMPI POP DUP2 ISZERO JUMPDEST ISZERO PUSH2 0x43B7 JUMPI POP PUSH1 0x0 PUSH2 0x347F JUMP JUMPDEST DUP2 PUSH12 0x19D971E4FE8401E74000000 NOT DUP2 PUSH2 0x43CD JUMPI INVALID JUMPDEST DIV DUP4 GT ISZERO PUSH2 0x43ED JUMPI PUSH1 0x40 MLOAD PUSH3 0x461BCD PUSH1 0xE5 SHL DUP2 MSTORE PUSH1 0x4 ADD PUSH2 0x51D SWAP1 PUSH2 0x5A49 JUMP JUMPDEST PUSH12 0x33B2E3C9FD0803CE8000000 PUSH1 0x2 DUP2 JUMPDEST DIV DUP4 DUP6 MUL ADD DUP2 PUSH2 0x440A JUMPI INVALID JUMPDEST DIV SWAP4 SWAP3 POP POP POP JUMP JUMPDEST PUSH1 0x0 DUP1 PUSH2 0x4426 TIMESTAMP PUSH5 0xFFFFFFFFFF DUP6 AND PUSH2 0x3485 JUMP JUMPDEST SWAP1 POP PUSH2 0x1190 PUSH2 0x4433 PUSH2 0x4C80 JUMP JUMPDEST PUSH4 0x1E13380 PUSH2 0x4442 DUP8 DUP6 PUSH2 0x4842 JUMP JUMPDEST DUP2 PUSH2 0x4449 JUMPI INVALID JUMPDEST DIV SWAP1 PUSH2 0x3457 JUMP JUMPDEST PUSH1 0x2 DUP6 ADD SLOAD PUSH1 0x0 SWAP1 DUP2 SWAP1 PUSH1 0x1 PUSH1 0x1 PUSH1 0x80 SHL SUB AND DUP6 DUP6 DUP3 ISZERO PUSH2 0x457E JUMPI PUSH1 0x0 PUSH2 0x4477 DUP5 DUP9 PUSH2 0x4412 JUMP JUMPDEST SWAP1 POP PUSH2 0x4483 DUP2 DUP11 PUSH2 0x439D JUMP JUMPDEST PUSH1 0x40 DUP1 MLOAD DUP1 DUP3 ADD SWAP1 SWAP2 MSTORE PUSH1 0x2 DUP2 MSTORE PUSH2 0x189B PUSH1 0xF1 SHL PUSH1 0x20 DUP3 ADD MSTORE SWAP1 SWAP4 POP PUSH1 0x1 PUSH1 0x1 PUSH1 0x80 SHL SUB DUP5 GT ISZERO PUSH2 0x44C7 JUMPI PUSH1 0x40 MLOAD PUSH3 0x461BCD PUSH1 0xE5 SHL DUP2 MSTORE PUSH1 0x4 ADD PUSH2 0x51D SWAP2 SWAP1 PUSH2 0x5953 JUMP JUMPDEST POP PUSH1 0x1 DUP12 ADD DUP1 SLOAD PUSH1 0x1 PUSH1 0x1 PUSH1 0x80 SHL SUB NOT AND PUSH1 0x1 PUSH1 0x1 PUSH1 0x80 SHL SUB DUP6 AND OR SWAP1 SSTORE DUP10 ISZERO PUSH2 0x457C JUMPI PUSH1 0x2 DUP12 ADD SLOAD PUSH1 0x0 SWAP1 PUSH2 0x450D SWAP1 PUSH1 0x1 PUSH1 0x80 SHL SWAP1 DIV PUSH1 0x1 PUSH1 0x1 PUSH1 0x80 SHL SUB AND DUP10 PUSH2 0x4390 JUMP JUMPDEST SWAP1 POP PUSH2 0x4519 DUP2 DUP11 PUSH2 0x439D JUMP JUMPDEST PUSH1 0x40 DUP1 MLOAD DUP1 DUP3 ADD SWAP1 SWAP2 MSTORE PUSH1 0x2 DUP2 MSTORE PUSH2 0x3137 PUSH1 0xF0 SHL PUSH1 0x20 DUP3 ADD MSTORE SWAP1 SWAP4 POP PUSH1 0x1 PUSH1 0x1 PUSH1 0x80 SHL SUB DUP5 GT ISZERO PUSH2 0x455D JUMPI PUSH1 0x40 MLOAD PUSH3 0x461BCD PUSH1 0xE5 SHL DUP2 MSTORE PUSH1 0x4 ADD PUSH2 0x51D SWAP2 SWAP1 PUSH2 0x5953 JUMP JUMPDEST POP POP PUSH1 0x1 DUP12 ADD DUP1 SLOAD PUSH1 0x1 PUSH1 0x1 PUSH1 0x80 SHL SUB DUP1 DUP6 AND PUSH1 0x1 PUSH1 0x80 SHL MUL SWAP2 AND OR SWAP1 SSTORE JUMPDEST POP JUMPDEST PUSH1 0x3 SWAP10 SWAP1 SWAP10 ADD DUP1 SLOAD PUSH5 0xFFFFFFFFFF PUSH1 0x80 SHL NOT AND PUSH1 0x1 PUSH1 0x80 SHL TIMESTAMP PUSH5 0xFFFFFFFFFF AND MUL OR SWAP1 SSTORE SWAP9 SWAP7 POP POP POP POP POP POP POP JUMP JUMPDEST PUSH2 0x45B5 PUSH2 0x4FDA JUMP JUMPDEST PUSH2 0x45BE DUP9 PUSH2 0x4772 JUMP JUMPDEST PUSH2 0x120 DUP3 ADD DUP2 SWAP1 MSTORE PUSH2 0x45D0 JUMPI POP PUSH2 0x2887 JUMP JUMPDEST DUP8 PUSH1 0x5 ADD PUSH1 0x0 SWAP1 SLOAD SWAP1 PUSH2 0x100 EXP SWAP1 DIV PUSH1 0x1 PUSH1 0x1 PUSH1 0xA0 SHL SUB AND PUSH1 0x1 PUSH1 0x1 PUSH1 0xA0 SHL SUB AND PUSH4 0x79774338 PUSH1 0x40 MLOAD DUP2 PUSH4 0xFFFFFFFF AND PUSH1 0xE0 SHL DUP2 MSTORE PUSH1 0x4 ADD PUSH1 0x80 PUSH1 0x40 MLOAD DUP1 DUP4 SUB DUP2 DUP7 DUP1 EXTCODESIZE ISZERO DUP1 ISZERO PUSH2 0x4620 JUMPI PUSH1 0x0 DUP1 REVERT JUMPDEST POP GAS STATICCALL ISZERO DUP1 ISZERO PUSH2 0x4634 JUMPI RETURNDATASIZE PUSH1 0x0 DUP1 RETURNDATACOPY RETURNDATASIZE PUSH1 0x0 REVERT JUMPDEST POP POP POP POP PUSH1 0x40 MLOAD RETURNDATASIZE PUSH1 0x1F NOT PUSH1 0x1F DUP3 ADD AND DUP3 ADD DUP1 PUSH1 0x40 MSTORE POP DUP2 ADD SWAP1 PUSH2 0x4658 SWAP2 SWAP1 PUSH2 0x553B JUMP JUMPDEST PUSH5 0xFFFFFFFFFF AND PUSH2 0x140 DUP6 ADD MSTORE PUSH1 0xA0 DUP5 ADD MSTORE DUP3 MSTORE PUSH1 0x20 DUP3 ADD MSTORE PUSH2 0x467B DUP7 DUP7 PUSH2 0x439D JUMP JUMPDEST PUSH1 0x80 DUP3 ADD MSTORE PUSH2 0x468A DUP7 DUP5 PUSH2 0x439D JUMP JUMPDEST PUSH1 0x60 DUP3 ADD MSTORE PUSH1 0xA0 DUP2 ADD MLOAD PUSH2 0x140 DUP3 ADD MLOAD PUSH2 0x46AC SWAP2 SWAP1 PUSH5 0xFFFFFFFFFF DUP6 AND PUSH2 0x4BAA JUMP JUMPDEST PUSH1 0xC0 DUP3 ADD DUP2 SWAP1 MSTORE PUSH1 0x20 DUP3 ADD MLOAD PUSH2 0x46C1 SWAP2 PUSH2 0x439D JUMP JUMPDEST PUSH1 0x40 DUP3 ADD DUP2 SWAP1 MSTORE PUSH1 0x80 DUP3 ADD MLOAD DUP3 MLOAD PUSH1 0x60 DUP5 ADD MLOAD PUSH2 0x46E6 SWAP4 SWAP3 PUSH2 0x10CD SWAP3 SWAP1 SWAP2 DUP4 SWAP2 PUSH2 0x3457 JUMP JUMPDEST PUSH1 0xE0 DUP3 ADD DUP2 SWAP1 MSTORE PUSH2 0x120 DUP3 ADD MLOAD PUSH2 0x46FD SWAP2 SWAP1 PUSH2 0x4B59 JUMP JUMPDEST PUSH2 0x100 DUP3 ADD DUP2 SWAP1 MSTORE ISZERO PUSH2 0x305B JUMPI PUSH1 0x4 DUP1 DUP10 ADD SLOAD PUSH2 0x100 DUP4 ADD MLOAD PUSH1 0x40 MLOAD PUSH4 0x83D92C9 PUSH1 0xE3 SHL DUP2 MSTORE PUSH1 0x1 PUSH1 0x1 PUSH1 0xA0 SHL SUB SWAP1 SWAP3 AND SWAP3 PUSH4 0x41EC9648 SWAP3 PUSH2 0x4744 SWAP3 SWAP2 DUP13 SWAP2 DUP11 SWAP2 ADD PUSH2 0x5E29 JUMP JUMPDEST PUSH1 0x0 PUSH1 0x40 MLOAD DUP1 DUP4 SUB DUP2 PUSH1 0x0 DUP8 DUP1 EXTCODESIZE ISZERO DUP1 ISZERO PUSH2 0x475E JUMPI PUSH1 0x0 DUP1 REVERT JUMPDEST POP GAS CALL ISZERO DUP1 ISZERO PUSH2 0x96B JUMPI RETURNDATASIZE PUSH1 0x0 DUP1 RETURNDATACOPY RETURNDATASIZE PUSH1 0x0 REVERT JUMPDEST SLOAD PUSH1 0x40 SHR PUSH2 0xFFFF AND SWAP1 JUMP JUMPDEST PUSH1 0x0 DUP2 DUP5 DUP5 GT ISZERO PUSH2 0x47A1 JUMPI PUSH1 0x40 MLOAD PUSH3 0x461BCD PUSH1 0xE5 SHL DUP2 MSTORE PUSH1 0x4 ADD PUSH2 0x51D SWAP2 SWAP1 PUSH2 0x5953 JUMP JUMPDEST POP POP POP SWAP1 SUB SWAP1 JUMP JUMPDEST PUSH1 0x60 PUSH2 0x47FE DUP3 PUSH1 0x40 MLOAD DUP1 PUSH1 0x40 ADD PUSH1 0x40 MSTORE DUP1 PUSH1 0x20 DUP2 MSTORE PUSH1 0x20 ADD PUSH32 0x5361666545524332303A206C6F772D6C6576656C2063616C6C206661696C6564 DUP2 MSTORE POP DUP6 PUSH1 0x1 PUSH1 0x1 PUSH1 0xA0 SHL SUB AND PUSH2 0x4C90 SWAP1 SWAP3 SWAP2 SWAP1 PUSH4 0xFFFFFFFF AND JUMP JUMPDEST DUP1 MLOAD SWAP1 SWAP2 POP ISZERO PUSH2 0x758 JUMPI DUP1 DUP1 PUSH1 0x20 ADD SWAP1 MLOAD DUP2 ADD SWAP1 PUSH2 0x481C SWAP2 SWAP1 PUSH2 0x5410 JUMP JUMPDEST PUSH2 0x758 JUMPI PUSH1 0x40 MLOAD PUSH3 0x461BCD PUSH1 0xE5 SHL DUP2 MSTORE PUSH1 0x4 ADD PUSH2 0x51D SWAP1 PUSH2 0x5B74 JUMP JUMPDEST SLOAD PUSH1 0x30 SHR PUSH1 0xFF AND SWAP1 JUMP JUMPDEST PUSH1 0x0 DUP3 PUSH2 0x4851 JUMPI POP PUSH1 0x0 PUSH2 0x347F JUMP JUMPDEST DUP3 DUP3 MUL DUP3 DUP5 DUP3 DUP2 PUSH2 0x485E JUMPI INVALID JUMPDEST DIV EQ PUSH2 0x347C JUMPI PUSH1 0x40 MLOAD PUSH3 0x461BCD PUSH1 0xE5 SHL DUP2 MSTORE PUSH1 0x4 ADD PUSH2 0x51D SWAP1 PUSH2 0x5AAE JUMP JUMPDEST PUSH1 0x0 PUSH2 0x347C DUP4 DUP4 PUSH1 0x40 MLOAD DUP1 PUSH1 0x40 ADD PUSH1 0x40 MSTORE DUP1 PUSH1 0x1A DUP2 MSTORE PUSH1 0x20 ADD PUSH32 0x536166654D6174683A206469766973696F6E206279207A65726F000000000000 DUP2 MSTORE POP PUSH2 0x4C9F JUMP JUMPDEST PUSH1 0x0 DUP1 DUP3 PUSH1 0x1 PUSH1 0x1 PUSH1 0xA0 SHL SUB AND PUSH4 0x258C71A0 DUP9 DUP9 DUP9 DUP9 PUSH1 0x40 MLOAD DUP6 PUSH4 0xFFFFFFFF AND PUSH1 0xE0 SHL DUP2 MSTORE PUSH1 0x4 ADD PUSH2 0x48F3 SWAP5 SWAP4 SWAP3 SWAP2 SWAP1 PUSH2 0x5746 JUMP JUMPDEST PUSH1 0x40 DUP1 MLOAD DUP1 DUP4 SUB DUP2 PUSH1 0x0 DUP8 DUP1 EXTCODESIZE ISZERO DUP1 ISZERO PUSH2 0x490C JUMPI PUSH1 0x0 DUP1 REVERT JUMPDEST POP GAS CALL ISZERO DUP1 ISZERO PUSH2 0x4920 JUMPI RETURNDATASIZE PUSH1 0x0 DUP1 RETURNDATACOPY RETURNDATASIZE PUSH1 0x0 REVERT JUMPDEST POP POP POP POP PUSH1 0x40 MLOAD RETURNDATASIZE PUSH1 0x1F NOT PUSH1 0x1F DUP3 ADD AND DUP3 ADD DUP1 PUSH1 0x40 MSTORE POP DUP2 ADD SWAP1 PUSH2 0x4944 SWAP2 SWAP1 PUSH2 0x54EB JUMP JUMPDEST PUSH1 0x5 DUP11 ADD SLOAD PUSH1 0x40 MLOAD PUSH4 0x1470B90B PUSH1 0xE0 SHL DUP2 MSTORE SWAP3 SWAP5 POP SWAP1 SWAP3 POP PUSH1 0x1 PUSH1 0x1 PUSH1 0xA0 SHL SUB AND SWAP1 PUSH4 0x1470B90B SWAP1 PUSH2 0x497F SWAP1 DUP11 SWAP1 DUP7 SWAP1 PUSH1 0x0 SWAP1 PUSH1 0x4 ADD PUSH2 0x57D4 JUMP JUMPDEST PUSH1 0x0 PUSH1 0x40 MLOAD DUP1 DUP4 SUB DUP2 PUSH1 0x0 DUP8 DUP1 EXTCODESIZE ISZERO DUP1 ISZERO PUSH2 0x4999 JUMPI PUSH1 0x0 DUP1 REVERT JUMPDEST POP GAS CALL ISZERO DUP1 ISZERO PUSH2 0x49AD JUMPI RETURNDATASIZE PUSH1 0x0 DUP1 RETURNDATACOPY RETURNDATASIZE PUSH1 0x0 REVERT JUMPDEST POP POP POP PUSH1 0x5 DUP10 ADD SLOAD PUSH1 0x40 MLOAD PUSH4 0x75282D13 PUSH1 0xE1 SHL DUP2 MSTORE PUSH1 0x1 PUSH1 0x1 PUSH1 0xA0 SHL SUB SWAP1 SWAP2 AND SWAP2 POP PUSH4 0xEA505A26 SWAP1 PUSH2 0x49E8 SWAP1 DUP11 SWAP1 DUP6 SWAP1 PUSH1 0x0 SWAP1 PUSH1 0x4 ADD PUSH2 0x57D4 JUMP JUMPDEST PUSH1 0x0 PUSH1 0x40 MLOAD DUP1 DUP4 SUB DUP2 PUSH1 0x0 DUP8 DUP1 EXTCODESIZE ISZERO DUP1 ISZERO PUSH2 0x4A02 JUMPI PUSH1 0x0 DUP1 REVERT JUMPDEST POP GAS CALL ISZERO DUP1 ISZERO PUSH2 0x4A16 JUMPI RETURNDATASIZE PUSH1 0x0 DUP1 RETURNDATACOPY RETURNDATASIZE PUSH1 0x0 REVERT JUMPDEST POP POP POP POP PUSH32 0xFA3311270AB5C267714BC5CF4785EF34B67DBF7C8C35062577B6AB8158B7598 DUP8 DUP8 DUP8 DUP6 DUP6 DUP10 PUSH1 0x40 MLOAD PUSH2 0x4A53 SWAP7 SWAP6 SWAP5 SWAP4 SWAP3 SWAP2 SWAP1 PUSH2 0x579B JUMP JUMPDEST PUSH1 0x40 MLOAD DUP1 SWAP2 SUB SWAP1 LOG1 POP POP POP POP POP POP POP POP JUMP JUMPDEST MLOAD ISZERO SWAP1 JUMP JUMPDEST PUSH1 0x0 PUSH1 0x80 DUP3 LT PUSH2 0x4A8C JUMPI PUSH1 0x40 MLOAD PUSH3 0x461BCD PUSH1 0xE5 SHL DUP2 MSTORE PUSH1 0x4 ADD PUSH2 0x51D SWAP1 PUSH2 0x5BBE JUMP JUMPDEST POP SWAP1 MLOAD PUSH1 0x3 PUSH1 0x2 SWAP1 SWAP3 MUL SHR AND ISZERO ISZERO SWAP1 JUMP JUMPDEST SLOAD PUSH2 0xFFFF DUP1 DUP3 AND SWAP3 PUSH1 0x10 DUP4 SWAP1 SHR DUP3 AND SWAP3 PUSH1 0x20 DUP2 SWAP1 SHR DUP4 AND SWAP3 PUSH1 0xFF PUSH1 0x30 DUP4 SWAP1 SHR AND SWAP3 PUSH1 0x40 SWAP3 SWAP1 SWAP3 SHR AND SWAP1 JUMP JUMPDEST PUSH1 0x0 PUSH1 0x80 DUP3 LT PUSH2 0x4AEA JUMPI PUSH1 0x40 MLOAD PUSH3 0x461BCD PUSH1 0xE5 SHL DUP2 MSTORE PUSH1 0x4 ADD PUSH2 0x51D SWAP1 PUSH2 0x5BBE JUMP JUMPDEST POP DUP2 MLOAD PUSH1 0x1 PUSH1 0x2 DUP4 MUL DUP2 ADD SWAP2 SWAP1 SWAP2 SHR AND ISZERO ISZERO SWAP3 SWAP2 POP POP JUMP JUMPDEST PUSH1 0x0 PUSH1 0x80 DUP3 LT PUSH2 0x4B24 JUMPI PUSH1 0x40 MLOAD PUSH3 0x461BCD PUSH1 0xE5 SHL DUP2 MSTORE PUSH1 0x4 ADD PUSH2 0x51D SWAP1 PUSH2 0x5BBE JUMP JUMPDEST POP SWAP1 MLOAD PUSH1 0x1 PUSH1 0x2 SWAP1 SWAP3 MUL SHR AND ISZERO ISZERO SWAP1 JUMP JUMPDEST PUSH1 0x0 DUP3 PUSH2 0x4B45 JUMPI POP PUSH1 0x0 NOT PUSH2 0x154C JUMP JUMPDEST PUSH2 0x1190 DUP4 PUSH2 0x4B53 DUP7 DUP6 PUSH2 0x4B59 JUMP JUMPDEST SWAP1 PUSH2 0x4CD6 JUMP JUMPDEST PUSH1 0x0 DUP3 ISZERO DUP1 PUSH2 0x4B66 JUMPI POP DUP2 ISZERO JUMPDEST ISZERO PUSH2 0x4B73 JUMPI POP PUSH1 0x0 PUSH2 0x347F JUMP JUMPDEST DUP2 PUSH2 0x1388 NOT DUP2 PUSH2 0x4B7F JUMPI INVALID JUMPDEST DIV DUP4 GT ISZERO PUSH2 0x4B9F JUMPI PUSH1 0x40 MLOAD PUSH3 0x461BCD PUSH1 0xE5 SHL DUP2 MSTORE PUSH1 0x4 ADD PUSH2 0x51D SWAP1 PUSH2 0x5A03 JUMP JUMPDEST PUSH2 0x2710 PUSH1 0x2 DUP2 PUSH2 0x43FE JUMP JUMPDEST PUSH1 0x0 DUP1 PUSH2 0x4BBE DUP4 PUSH5 0xFFFFFFFFFF DUP7 AND PUSH2 0x3485 JUMP JUMPDEST SWAP1 POP DUP1 PUSH2 0x4BD5 JUMPI PUSH2 0x4BCD PUSH2 0x4C80 JUMP JUMPDEST SWAP2 POP POP PUSH2 0x154C JUMP JUMPDEST PUSH1 0x0 NOT DUP2 ADD PUSH1 0x0 PUSH1 0x2 DUP4 GT PUSH2 0x4BEB JUMPI PUSH1 0x0 PUSH2 0x4BF0 JUMP JUMPDEST PUSH1 0x2 DUP4 SUB JUMPDEST SWAP1 POP PUSH4 0x1E13380 DUP8 DIV PUSH1 0x0 PUSH2 0x4C05 DUP3 DUP1 PUSH2 0x439D JUMP JUMPDEST SWAP1 POP PUSH1 0x0 PUSH2 0x4C13 DUP3 DUP5 PUSH2 0x439D JUMP JUMPDEST SWAP1 POP PUSH1 0x0 PUSH1 0x2 PUSH2 0x4C27 DUP5 PUSH2 0x387E DUP11 DUP11 PUSH2 0x4842 JUMP JUMPDEST DUP2 PUSH2 0x4C2E JUMPI INVALID JUMPDEST DIV SWAP1 POP PUSH1 0x0 PUSH1 0x6 PUSH2 0x4C45 DUP5 PUSH2 0x387E DUP10 DUP2 DUP14 DUP14 PUSH2 0x4842 JUMP JUMPDEST DUP2 PUSH2 0x4C4C JUMPI INVALID JUMPDEST DIV SWAP1 POP PUSH2 0x4C70 DUP2 PUSH2 0x4C6A DUP5 DUP2 PUSH2 0x4C62 DUP11 DUP15 PUSH2 0x4842 JUMP JUMPDEST PUSH2 0x4C6A PUSH2 0x4C80 JUMP JUMPDEST SWAP1 PUSH2 0x3457 JUMP JUMPDEST SWAP13 SWAP12 POP POP POP POP POP POP POP POP POP POP POP POP JUMP JUMPDEST PUSH12 0x33B2E3C9FD0803CE8000000 SWAP1 JUMP JUMPDEST PUSH1 0x60 PUSH2 0x1190 DUP5 DUP5 PUSH1 0x0 DUP6 PUSH2 0x4D42 JUMP JUMPDEST PUSH1 0x0 DUP2 DUP4 PUSH2 0x4CC0 JUMPI PUSH1 0x40 MLOAD PUSH3 0x461BCD PUSH1 0xE5 SHL DUP2 MSTORE PUSH1 0x4 ADD PUSH2 0x51D SWAP2 SWAP1 PUSH2 0x5953 JUMP JUMPDEST POP PUSH1 0x0 DUP4 DUP6 DUP2 PUSH2 0x4CCC JUMPI INVALID JUMPDEST DIV SWAP6 SWAP5 POP POP POP POP POP JUMP JUMPDEST PUSH1 0x0 DUP2 PUSH2 0x4CF5 JUMPI PUSH1 0x40 MLOAD PUSH3 0x461BCD PUSH1 0xE5 SHL DUP2 MSTORE PUSH1 0x4 ADD PUSH2 0x51D SWAP1 PUSH2 0x5BF5 JUMP JUMPDEST PUSH1 0x2 DUP3 DIV PUSH8 0xDE0B6B3A7640000 DUP2 NOT DIV DUP5 GT ISZERO PUSH2 0x4D24 JUMPI PUSH1 0x40 MLOAD PUSH3 0x461BCD PUSH1 0xE5 SHL DUP2 MSTORE PUSH1 0x4 ADD PUSH2 0x51D SWAP1 PUSH2 0x5A49 JUMP JUMPDEST DUP3 DUP2 PUSH8 0xDE0B6B3A7640000 DUP7 MUL ADD DUP2 PUSH2 0x4D39 JUMPI INVALID JUMPDEST DIV SWAP5 SWAP4 POP POP POP POP JUMP JUMPDEST PUSH1 0x60 DUP3 SELFBALANCE LT ISZERO PUSH2 0x4D64 JUMPI PUSH1 0x40 MLOAD PUSH3 0x461BCD PUSH1 0xE5 SHL DUP2 MSTORE PUSH1 0x4 ADD PUSH2 0x51D SWAP1 PUSH2 0x59BD JUMP JUMPDEST PUSH2 0x4D6D DUP6 PUSH2 0x2AA7 JUMP JUMPDEST PUSH2 0x4D89 JUMPI PUSH1 0x40 MLOAD PUSH3 0x461BCD PUSH1 0xE5 SHL DUP2 MSTORE PUSH1 0x4 ADD PUSH2 0x51D SWAP1 PUSH2 0x5B3D JUMP JUMPDEST PUSH1 0x0 PUSH1 0x60 DUP7 PUSH1 0x1 PUSH1 0x1 PUSH1 0xA0 SHL SUB AND DUP6 DUP8 PUSH1 0x40 MLOAD PUSH2 0x4DA6 SWAP2 SWAP1 PUSH2 0x55AA JUMP JUMPDEST PUSH1 0x0 PUSH1 0x40 MLOAD DUP1 DUP4 SUB DUP2 DUP6 DUP8 GAS CALL SWAP3 POP POP POP RETURNDATASIZE DUP1 PUSH1 0x0 DUP2 EQ PUSH2 0x4DE3 JUMPI PUSH1 0x40 MLOAD SWAP2 POP PUSH1 0x1F NOT PUSH1 0x3F RETURNDATASIZE ADD AND DUP3 ADD PUSH1 0x40 MSTORE RETURNDATASIZE DUP3 MSTORE RETURNDATASIZE PUSH1 0x0 PUSH1 0x20 DUP5 ADD RETURNDATACOPY PUSH2 0x4DE8 JUMP JUMPDEST PUSH1 0x60 SWAP2 POP JUMPDEST POP SWAP2 POP SWAP2 POP PUSH2 0x4DF8 DUP3 DUP3 DUP7 PUSH2 0x4E03 JUMP JUMPDEST SWAP8 SWAP7 POP POP POP POP POP POP POP JUMP JUMPDEST PUSH1 0x60 DUP4 ISZERO PUSH2 0x4E12 JUMPI POP DUP2 PUSH2 0x154C JUMP JUMPDEST DUP3 MLOAD ISZERO PUSH2 0x4E22 JUMPI DUP3 MLOAD DUP1 DUP5 PUSH1 0x20 ADD REVERT JUMPDEST DUP2 PUSH1 0x40 MLOAD PUSH3 0x461BCD PUSH1 0xE5 SHL DUP2 MSTORE PUSH1 0x4 ADD PUSH2 0x51D SWAP2 SWAP1 PUSH2 0x5953 JUMP JUMPDEST PUSH1 0x40 MLOAD DUP1 PUSH1 0x20 ADD PUSH1 0x40 MSTORE DUP1 PUSH1 0x0 DUP2 MSTORE POP SWAP1 JUMP JUMPDEST PUSH1 0x40 MLOAD DUP1 PUSH2 0x1A0 ADD PUSH1 0x40 MSTORE DUP1 PUSH2 0x4E63 PUSH2 0x4E3C JUMP JUMPDEST DUP2 MSTORE PUSH1 0x0 PUSH1 0x20 DUP3 ADD DUP2 SWAP1 MSTORE PUSH1 0x40 DUP3 ADD DUP2 SWAP1 MSTORE PUSH1 0x60 DUP3 ADD DUP2 SWAP1 MSTORE PUSH1 0x80 DUP3 ADD DUP2 SWAP1 MSTORE PUSH1 0xA0 DUP3 ADD DUP2 SWAP1 MSTORE PUSH1 0xC0 DUP3 ADD DUP2 SWAP1 MSTORE PUSH1 0xE0 DUP3 ADD DUP2 SWAP1 MSTORE PUSH2 0x100 DUP3 ADD DUP2 SWAP1 MSTORE PUSH2 0x120 DUP3 ADD DUP2 SWAP1 MSTORE PUSH2 0x140 DUP3 ADD DUP2 SWAP1 MSTORE PUSH2 0x160 DUP3 ADD DUP2 SWAP1 MSTORE PUSH2 0x180 SWAP1 SWAP2 ADD MSTORE SWAP1 JUMP JUMPDEST PUSH1 0x40 DUP1 MLOAD PUSH1 0xA0 DUP2 ADD SWAP1 SWAP2 MSTORE DUP1 PUSH1 0x0 DUP2 MSTORE PUSH1 0x20 ADD PUSH1 0x0 DUP2 MSTORE PUSH1 0x20 ADD PUSH1 0x0 DUP2 MSTORE PUSH1 0x20 ADD PUSH1 0x0 DUP2 MSTORE PUSH1 0x20 ADD PUSH1 0x0 DUP2 MSTORE POP SWAP1 JUMP JUMPDEST PUSH1 0x40 MLOAD DUP1 PUSH2 0x100 ADD PUSH1 0x40 MSTORE DUP1 PUSH1 0x0 PUSH1 0x1 PUSH1 0x1 PUSH1 0xA0 SHL SUB AND DUP2 MSTORE PUSH1 0x20 ADD PUSH1 0x0 DUP2 MSTORE PUSH1 0x20 ADD PUSH1 0x0 DUP2 MSTORE PUSH1 0x20 ADD PUSH1 0x0 DUP2 MSTORE PUSH1 0x20 ADD PUSH1 0x0 DUP2 MSTORE PUSH1 0x20 ADD PUSH1 0x0 DUP2 MSTORE PUSH1 0x20 ADD PUSH1 0x0 DUP2 MSTORE PUSH1 0x20 ADD PUSH1 0x0 DUP2 MSTORE POP SWAP1 JUMP JUMPDEST PUSH1 0x40 MLOAD DUP1 PUSH2 0x240 ADD PUSH1 0x40 MSTORE DUP1 PUSH1 0x0 DUP2 MSTORE PUSH1 0x20 ADD PUSH1 0x0 DUP2 MSTORE PUSH1 0x20 ADD PUSH1 0x0 DUP2 MSTORE PUSH1 0x20 ADD PUSH1 0x0 DUP2 MSTORE PUSH1 0x20 ADD PUSH1 0x0 DUP2 MSTORE PUSH1 0x20 ADD PUSH1 0x0 DUP2 MSTORE PUSH1 0x20 ADD PUSH1 0x0 DUP2 MSTORE PUSH1 0x20 ADD PUSH1 0x0 DUP2 MSTORE PUSH1 0x20 ADD PUSH1 0x0 DUP2 MSTORE PUSH1 0x20 ADD PUSH1 0x0 DUP2 MSTORE PUSH1 0x20 ADD PUSH1 0x0 DUP2 MSTORE PUSH1 0x20 ADD PUSH1 0x0 DUP2 MSTORE PUSH1 0x20 ADD PUSH1 0x0 DUP2 MSTORE PUSH1 0x20 ADD PUSH1 0x0 DUP2 MSTORE PUSH1 0x20 ADD PUSH1 0x0 ISZERO ISZERO DUP2 MSTORE PUSH1 0x20 ADD PUSH1 0x0 PUSH1 0x1 PUSH1 0x1 PUSH1 0xA0 SHL SUB AND DUP2 MSTORE PUSH1 0x20 ADD PUSH1 0x0 ISZERO ISZERO DUP2 MSTORE PUSH1 0x20 ADD PUSH1 0x0 ISZERO ISZERO DUP2 MSTORE POP SWAP1 JUMP JUMPDEST PUSH1 0x40 MLOAD DUP1 PUSH2 0x160 ADD PUSH1 0x40 MSTORE DUP1 PUSH1 0x0 DUP2 MSTORE PUSH1 0x20 ADD PUSH1 0x0 DUP2 MSTORE PUSH1 0x20 ADD PUSH1 0x0 DUP2 MSTORE PUSH1 0x20 ADD PUSH1 0x0 DUP2 MSTORE PUSH1 0x20 ADD PUSH1 0x0 DUP2 MSTORE PUSH1 0x20 ADD PUSH1 0x0 DUP2 MSTORE PUSH1 0x20 ADD PUSH1 0x0 DUP2 MSTORE PUSH1 0x20 ADD PUSH1 0x0 DUP2 MSTORE PUSH1 0x20 ADD PUSH1 0x0 DUP2 MSTORE PUSH1 0x20 ADD PUSH1 0x0 DUP2 MSTORE PUSH1 0x20 ADD PUSH1 0x0 PUSH5 0xFFFFFFFFFF AND DUP2 MSTORE POP SWAP1 JUMP JUMPDEST DUP1 CALLDATALOAD PUSH2 0xFFFF DUP2 AND DUP2 EQ PUSH2 0x347F JUMPI PUSH1 0x0 DUP1 REVERT JUMPDEST PUSH1 0x0 PUSH1 0x20 DUP3 DUP5 SUB SLT ISZERO PUSH2 0x505E JUMPI DUP1 DUP2 REVERT JUMPDEST DUP2 CALLDATALOAD PUSH2 0x347C DUP2 PUSH2 0x5ED5 JUMP JUMPDEST PUSH1 0x0 PUSH1 0x20 DUP3 DUP5 SUB SLT ISZERO PUSH2 0x507A JUMPI DUP1 DUP2 REVERT JUMPDEST DUP2 MLOAD PUSH2 0x347C DUP2 PUSH2 0x5ED5 JUMP JUMPDEST PUSH1 0x0 DUP1 PUSH1 0x40 DUP4 DUP6 SUB SLT ISZERO PUSH2 0x5097 JUMPI DUP1 DUP2 REVERT JUMPDEST DUP3 CALLDATALOAD PUSH2 0x50A2 DUP2 PUSH2 0x5ED5 JUMP JUMPDEST SWAP2 POP PUSH1 0x20 DUP4 ADD CALLDATALOAD PUSH2 0x50B2 DUP2 PUSH2 0x5ED5 JUMP JUMPDEST DUP1 SWAP2 POP POP SWAP3 POP SWAP3 SWAP1 POP JUMP JUMPDEST PUSH1 0x0 DUP1 PUSH1 0x0 DUP1 PUSH1 0x0 PUSH1 0xA0 DUP7 DUP9 SUB SLT ISZERO PUSH2 0x50D4 JUMPI DUP1 DUP2 REVERT JUMPDEST DUP6 CALLDATALOAD PUSH2 0x50DF DUP2 PUSH2 0x5ED5 JUMP JUMPDEST SWAP5 POP PUSH1 0x20 DUP7 ADD CALLDATALOAD PUSH2 0x50EF DUP2 PUSH2 0x5ED5 JUMP JUMPDEST SWAP4 POP PUSH1 0x40 DUP7 ADD CALLDATALOAD PUSH2 0x50FF DUP2 PUSH2 0x5ED5 JUMP JUMPDEST SWAP3 POP PUSH1 0x60 DUP7 ADD CALLDATALOAD PUSH2 0x510F DUP2 PUSH2 0x5ED5 JUMP JUMPDEST SWAP2 POP PUSH1 0x80 DUP7 ADD CALLDATALOAD PUSH2 0x511F DUP2 PUSH2 0x5ED5 JUMP JUMPDEST DUP1 SWAP2 POP POP SWAP3 SWAP6 POP SWAP3 SWAP6 SWAP1 SWAP4 POP JUMP JUMPDEST PUSH1 0x0 DUP1 PUSH1 0x0 DUP1 PUSH1 0x0 PUSH1 0xA0 DUP7 DUP9 SUB SLT ISZERO PUSH2 0x5144 JUMPI DUP1 DUP2 REVERT JUMPDEST DUP6 CALLDATALOAD PUSH2 0x514F DUP2 PUSH2 0x5ED5 JUMP JUMPDEST SWAP5 POP PUSH1 0x20 DUP7 ADD CALLDATALOAD PUSH2 0x515F DUP2 PUSH2 0x5ED5 JUMP JUMPDEST SWAP4 POP PUSH1 0x40 DUP7 ADD CALLDATALOAD PUSH2 0x516F DUP2 PUSH2 0x5ED5 JUMP JUMPDEST SWAP3 POP PUSH1 0x60 DUP7 ADD CALLDATALOAD SWAP2 POP PUSH1 0x80 DUP7 ADD CALLDATALOAD PUSH2 0x511F DUP2 PUSH2 0x5EEA JUMP JUMPDEST PUSH1 0x0 DUP1 PUSH1 0x0 DUP1 PUSH1 0x0 DUP1 PUSH1 0xC0 DUP8 DUP10 SUB SLT ISZERO PUSH2 0x519E JUMPI DUP1 DUP2 REVERT JUMPDEST DUP7 CALLDATALOAD PUSH2 0x51A9 DUP2 PUSH2 0x5ED5 JUMP JUMPDEST SWAP6 POP PUSH1 0x20 DUP8 ADD CALLDATALOAD PUSH2 0x51B9 DUP2 PUSH2 0x5ED5 JUMP JUMPDEST SWAP5 POP PUSH1 0x40 DUP8 ADD CALLDATALOAD PUSH2 0x51C9 DUP2 PUSH2 0x5ED5 JUMP JUMPDEST SWAP6 SWAP9 SWAP5 SWAP8 POP SWAP5 SWAP6 PUSH1 0x60 DUP2 ADD CALLDATALOAD SWAP6 POP PUSH1 0x80 DUP2 ADD CALLDATALOAD SWAP5 PUSH1 0xA0 SWAP1 SWAP2 ADD CALLDATALOAD SWAP4 POP SWAP2 POP POP JUMP JUMPDEST PUSH1 0x0 DUP1 PUSH1 0x0 DUP1 PUSH1 0x0 DUP1 PUSH1 0xA0 DUP8 DUP10 SUB SLT ISZERO PUSH2 0x5202 JUMPI DUP2 DUP3 REVERT JUMPDEST DUP7 CALLDATALOAD PUSH2 0x520D DUP2 PUSH2 0x5ED5 JUMP JUMPDEST SWAP6 POP PUSH1 0x20 DUP8 ADD CALLDATALOAD PUSH2 0x521D DUP2 PUSH2 0x5ED5 JUMP JUMPDEST SWAP5 POP PUSH1 0x40 DUP8 ADD CALLDATALOAD SWAP4 POP PUSH1 0x60 DUP8 ADD CALLDATALOAD PUSH8 0xFFFFFFFFFFFFFFFF DUP1 DUP3 GT ISZERO PUSH2 0x5240 JUMPI DUP4 DUP5 REVERT JUMPDEST DUP2 DUP10 ADD SWAP2 POP DUP10 PUSH1 0x1F DUP4 ADD SLT PUSH2 0x5253 JUMPI DUP4 DUP5 REVERT JUMPDEST DUP2 CALLDATALOAD DUP2 DUP2 GT ISZERO PUSH2 0x5261 JUMPI DUP5 DUP6 REVERT JUMPDEST DUP11 PUSH1 0x20 DUP3 DUP6 ADD ADD GT ISZERO PUSH2 0x5272 JUMPI DUP5 DUP6 REVERT JUMPDEST PUSH1 0x20 DUP4 ADD SWAP6 POP DUP1 SWAP5 POP POP POP POP PUSH2 0x528B DUP9 PUSH1 0x80 DUP10 ADD PUSH2 0x503B JUMP JUMPDEST SWAP1 POP SWAP3 SWAP6 POP SWAP3 SWAP6 POP SWAP3 SWAP6 JUMP JUMPDEST PUSH1 0x0 DUP1 PUSH1 0x40 DUP4 DUP6 SUB SLT ISZERO PUSH2 0x52A9 JUMPI DUP2 DUP3 REVERT JUMPDEST DUP3 CALLDATALOAD PUSH2 0x52B4 DUP2 PUSH2 0x5ED5 JUMP JUMPDEST SWAP2 POP PUSH1 0x20 DUP4 ADD CALLDATALOAD PUSH2 0x50B2 DUP2 PUSH2 0x5EEA JUMP JUMPDEST PUSH1 0x0 DUP1 PUSH1 0x40 DUP4 DUP6 SUB SLT ISZERO PUSH2 0x52D6 JUMPI DUP2 DUP3 REVERT JUMPDEST DUP3 CALLDATALOAD PUSH2 0x52E1 DUP2 PUSH2 0x5ED5 JUMP JUMPDEST SWAP5 PUSH1 0x20 SWAP4 SWAP1 SWAP4 ADD CALLDATALOAD SWAP4 POP POP POP JUMP JUMPDEST PUSH1 0x0 DUP1 PUSH1 0x0 PUSH1 0x60 DUP5 DUP7 SUB SLT ISZERO PUSH2 0x5303 JUMPI DUP1 DUP2 REVERT JUMPDEST DUP4 CALLDATALOAD PUSH2 0x530E DUP2 PUSH2 0x5ED5 JUMP JUMPDEST SWAP3 POP PUSH1 0x20 DUP5 ADD CALLDATALOAD SWAP2 POP PUSH1 0x40 DUP5 ADD CALLDATALOAD PUSH2 0x5325 DUP2 PUSH2 0x5ED5 JUMP JUMPDEST DUP1 SWAP2 POP POP SWAP3 POP SWAP3 POP SWAP3 JUMP JUMPDEST PUSH1 0x0 DUP1 PUSH1 0x0 PUSH1 0x60 DUP5 DUP7 SUB SLT ISZERO PUSH2 0x5344 JUMPI DUP1 DUP2 REVERT JUMPDEST DUP4 CALLDATALOAD PUSH2 0x534F DUP2 PUSH2 0x5ED5 JUMP JUMPDEST SWAP3 POP PUSH1 0x20 DUP5 ADD CALLDATALOAD SWAP2 POP PUSH1 0x40 DUP5 ADD CALLDATALOAD PUSH2 0xFFFF DUP2 AND DUP2 EQ PUSH2 0x5325 JUMPI DUP2 DUP3 REVERT JUMPDEST PUSH1 0x0 DUP1 PUSH1 0x0 DUP1 PUSH1 0x80 DUP6 DUP8 SUB SLT ISZERO PUSH2 0x5381 JUMPI DUP2 DUP3 REVERT JUMPDEST DUP5 CALLDATALOAD PUSH2 0x538C DUP2 PUSH2 0x5ED5 JUMP JUMPDEST SWAP4 POP PUSH1 0x20 DUP6 ADD CALLDATALOAD SWAP3 POP PUSH1 0x40 DUP6 ADD CALLDATALOAD SWAP2 POP PUSH1 0x60 DUP6 ADD CALLDATALOAD PUSH2 0x53AA DUP2 PUSH2 0x5ED5 JUMP JUMPDEST SWAP4 SWAP7 SWAP3 SWAP6 POP SWAP1 SWAP4 POP POP JUMP JUMPDEST PUSH1 0x0 DUP1 PUSH1 0x0 DUP1 PUSH1 0x0 PUSH1 0xA0 DUP7 DUP9 SUB SLT ISZERO PUSH2 0x53CC JUMPI DUP3 DUP4 REVERT JUMPDEST DUP6 CALLDATALOAD PUSH2 0x53D7 DUP2 PUSH2 0x5ED5 JUMP JUMPDEST SWAP5 POP PUSH1 0x20 DUP7 ADD CALLDATALOAD SWAP4 POP PUSH1 0x40 DUP7 ADD CALLDATALOAD SWAP3 POP PUSH2 0x510F DUP8 PUSH1 0x60 DUP9 ADD PUSH2 0x503B JUMP JUMPDEST PUSH1 0x0 PUSH1 0x20 DUP3 DUP5 SUB SLT ISZERO PUSH2 0x5405 JUMPI DUP1 DUP2 REVERT JUMPDEST DUP2 CALLDATALOAD PUSH2 0x347C DUP2 PUSH2 0x5EEA JUMP JUMPDEST PUSH1 0x0 PUSH1 0x20 DUP3 DUP5 SUB SLT ISZERO PUSH2 0x5421 JUMPI DUP1 DUP2 REVERT JUMPDEST DUP2 MLOAD PUSH2 0x347C DUP2 PUSH2 0x5EEA JUMP JUMPDEST PUSH1 0x0 PUSH1 0x20 DUP3 DUP5 SUB SLT ISZERO PUSH2 0x543D JUMPI DUP1 DUP2 REVERT JUMPDEST POP MLOAD SWAP2 SWAP1 POP JUMP JUMPDEST PUSH1 0x0 DUP1 PUSH1 0x40 DUP4 DUP6 SUB SLT ISZERO PUSH2 0x5456 JUMPI DUP2 DUP3 REVERT JUMPDEST DUP3 MLOAD SWAP2 POP PUSH1 0x20 DUP4 ADD MLOAD PUSH8 0xFFFFFFFFFFFFFFFF DUP1 DUP3 GT ISZERO PUSH2 0x5474 JUMPI DUP3 DUP4 REVERT JUMPDEST DUP2 DUP6 ADD SWAP2 POP DUP6 PUSH1 0x1F DUP4 ADD SLT PUSH2 0x5487 JUMPI DUP3 DUP4 REVERT JUMPDEST DUP2 MLOAD DUP2 DUP2 GT ISZERO PUSH2 0x5495 JUMPI DUP4 DUP5 REVERT JUMPDEST PUSH1 0x40 MLOAD PUSH1 0x1F DUP3 ADD PUSH1 0x1F NOT AND DUP2 ADD PUSH1 0x20 ADD DUP4 DUP2 GT DUP3 DUP3 LT OR ISZERO PUSH2 0x54B5 JUMPI DUP6 DUP7 REVERT JUMPDEST PUSH1 0x40 MSTORE DUP2 DUP2 MSTORE DUP4 DUP3 ADD PUSH1 0x20 ADD DUP9 LT ISZERO PUSH2 0x54CC JUMPI DUP5 DUP6 REVERT JUMPDEST PUSH2 0x54DD DUP3 PUSH1 0x20 DUP4 ADD PUSH1 0x20 DUP8 ADD PUSH2 0x5E9F JUMP JUMPDEST DUP1 SWAP5 POP POP POP POP POP SWAP3 POP SWAP3 SWAP1 POP JUMP JUMPDEST PUSH1 0x0 DUP1 PUSH1 0x40 DUP4 DUP6 SUB SLT ISZERO PUSH2 0x54FD JUMPI DUP2 DUP3 REVERT JUMPDEST POP POP DUP1 MLOAD PUSH1 0x20 SWAP1 SWAP2 ADD MLOAD SWAP1 SWAP3 SWAP1 SWAP2 POP JUMP JUMPDEST PUSH1 0x0 DUP1 PUSH1 0x0 PUSH1 0x60 DUP5 DUP7 SUB SLT ISZERO PUSH2 0x5522 JUMPI DUP1 DUP2 REVERT JUMPDEST DUP4 MLOAD SWAP3 POP PUSH1 0x20 DUP5 ADD MLOAD SWAP2 POP PUSH1 0x40 DUP5 ADD MLOAD SWAP1 POP SWAP3 POP SWAP3 POP SWAP3 JUMP JUMPDEST PUSH1 0x0 DUP1 PUSH1 0x0 DUP1 PUSH1 0x80 DUP6 DUP8 SUB SLT ISZERO PUSH2 0x5550 JUMPI DUP2 DUP3 REVERT JUMPDEST DUP5 MLOAD SWAP4 POP PUSH1 0x20 DUP6 ADD MLOAD SWAP3 POP PUSH1 0x40 DUP6 ADD MLOAD SWAP2 POP PUSH1 0x60 DUP6 ADD MLOAD PUSH5 0xFFFFFFFFFF DUP2 AND DUP2 EQ PUSH2 0x53AA JUMPI DUP2 DUP3 REVERT JUMPDEST PUSH1 0x1 PUSH1 0x1 PUSH1 0xA0 SHL SUB AND SWAP1 MSTORE JUMP JUMPDEST MLOAD SWAP1 MSTORE JUMP JUMPDEST PUSH1 0x1 PUSH1 0x1 PUSH1 0x80 SHL SUB AND SWAP1 MSTORE JUMP JUMPDEST PUSH5 0xFFFFFFFFFF AND SWAP1 MSTORE JUMP JUMPDEST PUSH1 0xFF AND SWAP1 MSTORE JUMP JUMPDEST PUSH1 0x0 DUP3 MLOAD PUSH2 0x55BC DUP2 DUP5 PUSH1 0x20 DUP8 ADD PUSH2 0x5E9F JUMP JUMPDEST SWAP2 SWAP1 SWAP2 ADD SWAP3 SWAP2 POP POP JUMP JUMPDEST PUSH1 0x1 PUSH1 0x1 PUSH1 0xA0 SHL SUB SWAP2 SWAP1 SWAP2 AND DUP2 MSTORE PUSH1 0x20 ADD SWAP1 JUMP JUMPDEST PUSH1 0x1 PUSH1 0x1 PUSH1 0xA0 SHL SUB SWAP5 DUP6 AND DUP2 MSTORE SWAP3 SWAP1 SWAP4 AND PUSH1 0x20 DUP4 ADD MSTORE PUSH1 0x40 DUP3 ADD MSTORE PUSH1 0x1 PUSH1 0x1 PUSH1 0x80 SHL SUB SWAP1 SWAP2 AND PUSH1 0x60 DUP3 ADD MSTORE PUSH1 0x80 ADD SWAP1 JUMP JUMPDEST PUSH1 0x1 PUSH1 0x1 PUSH1 0xA0 SHL SUB DUP9 DUP2 AND DUP3 MSTORE DUP8 DUP2 AND PUSH1 0x20 DUP4 ADD MSTORE DUP7 AND PUSH1 0x40 DUP3 ADD MSTORE PUSH1 0x60 DUP2 ADD DUP6 SWAP1 MSTORE PUSH1 0xC0 PUSH1 0x80 DUP3 ADD DUP2 SWAP1 MSTORE DUP2 ADD DUP4 SWAP1 MSTORE PUSH1 0x0 DUP4 DUP6 PUSH1 0xE0 DUP5 ADD CALLDATACOPY DUP1 PUSH1 0xE0 DUP6 DUP5 ADD ADD MSTORE PUSH1 0xE0 PUSH1 0x1F NOT PUSH1 0x1F DUP7 ADD AND DUP4 ADD ADD SWAP1 POP PUSH2 0xFFFF DUP4 AND PUSH1 0xA0 DUP4 ADD MSTORE SWAP9 SWAP8 POP POP POP POP POP POP POP POP JUMP JUMPDEST PUSH1 0x1 PUSH1 0x1 PUSH1 0xA0 SHL SUB SWAP3 SWAP1 SWAP3 AND DUP3 MSTORE PUSH1 0x20 DUP3 ADD MSTORE PUSH1 0x40 ADD SWAP1 JUMP JUMPDEST PUSH1 0x1 PUSH1 0x1 PUSH1 0xA0 SHL SUB SWAP4 SWAP1 SWAP4 AND DUP4 MSTORE PUSH1 0x20 DUP4 ADD SWAP2 SWAP1 SWAP2 MSTORE PUSH1 0x1 PUSH1 0x1 PUSH1 0x80 SHL SUB AND PUSH1 0x40 DUP3 ADD MSTORE PUSH1 0x60 ADD SWAP1 JUMP JUMPDEST PUSH1 0x1 PUSH1 0x1 PUSH1 0xA0 SHL SUB SWAP6 DUP7 AND DUP2 MSTORE SWAP4 DUP6 AND PUSH1 0x20 DUP6 ADD MSTORE SWAP2 SWAP1 SWAP4 AND PUSH1 0x40 DUP4 ADD MSTORE PUSH1 0x60 DUP3 ADD SWAP3 SWAP1 SWAP3 MSTORE SWAP1 ISZERO ISZERO PUSH1 0x80 DUP3 ADD MSTORE PUSH1 0xA0 ADD SWAP1 JUMP JUMPDEST PUSH1 0x1 PUSH1 0x1 PUSH1 0xA0 SHL SUB SWAP7 DUP8 AND DUP2 MSTORE SWAP5 DUP7 AND PUSH1 0x20 DUP7 ADD MSTORE SWAP3 SWAP1 SWAP5 AND PUSH1 0x40 DUP5 ADD MSTORE PUSH1 0x60 DUP4 ADD MSTORE PUSH1 0x80 DUP3 ADD SWAP3 SWAP1 SWAP3 MSTORE PUSH1 0xA0 DUP2 ADD SWAP2 SWAP1 SWAP2 MSTORE PUSH1 0xC0 ADD SWAP1 JUMP JUMPDEST PUSH1 0x1 PUSH1 0x1 PUSH1 0xA0 SHL SUB SWAP4 DUP5 AND DUP2 MSTORE SWAP2 SWAP1 SWAP3 AND PUSH1 0x20 DUP3 ADD MSTORE PUSH1 0x40 DUP2 ADD SWAP2 SWAP1 SWAP2 MSTORE PUSH1 0x60 ADD SWAP1 JUMP JUMPDEST PUSH1 0x1 PUSH1 0x1 PUSH1 0xA0 SHL SUB SWAP5 DUP6 AND DUP2 MSTORE SWAP3 SWAP1 SWAP4 AND PUSH1 0x20 DUP4 ADD MSTORE PUSH1 0x40 DUP3 ADD MSTORE PUSH2 0xFFFF SWAP1 SWAP2 AND PUSH1 0x60 DUP3 ADD MSTORE PUSH1 0x80 ADD SWAP1 JUMP JUMPDEST PUSH1 0x1 PUSH1 0x1 PUSH1 0xA0 SHL SUB SWAP5 DUP6 AND DUP2 MSTORE SWAP3 SWAP1 SWAP4 AND PUSH1 0x20 DUP4 ADD MSTORE PUSH1 0x40 DUP3 ADD MSTORE PUSH1 0x60 DUP2 ADD SWAP2 SWAP1 SWAP2 MSTORE PUSH1 0x80 ADD SWAP1 JUMP JUMPDEST PUSH1 0x1 PUSH1 0x1 PUSH1 0xA0 SHL SUB SWAP7 DUP8 AND DUP2 MSTORE SWAP5 SWAP1 SWAP6 AND PUSH1 0x20 DUP6 ADD MSTORE PUSH1 0x40 DUP5 ADD SWAP3 SWAP1 SWAP3 MSTORE PUSH1 0x60 DUP4 ADD MSTORE PUSH1 0x80 DUP3 ADD MSTORE PUSH2 0xFFFF SWAP1 SWAP2 AND PUSH1 0xA0 DUP3 ADD MSTORE PUSH1 0xC0 ADD SWAP1 JUMP JUMPDEST PUSH1 0x1 PUSH1 0x1 PUSH1 0xA0 SHL SUB SWAP4 SWAP1 SWAP4 AND DUP4 MSTORE PUSH1 0x20 DUP4 ADD SWAP2 SWAP1 SWAP2 MSTORE PUSH1 0x40 DUP3 ADD MSTORE PUSH1 0x60 ADD SWAP1 JUMP JUMPDEST PUSH1 0x1 PUSH1 0x1 PUSH1 0xA0 SHL SUB SWAP13 DUP14 AND DUP2 MSTORE PUSH1 0x20 DUP2 ADD SWAP12 SWAP1 SWAP12 MSTORE SWAP9 DUP12 AND PUSH1 0x40 DUP12 ADD MSTORE PUSH1 0x60 DUP11 ADD SWAP8 SWAP1 SWAP8 MSTORE PUSH1 0x80 DUP10 ADD SWAP6 SWAP1 SWAP6 MSTORE PUSH1 0xA0 DUP9 ADD SWAP4 SWAP1 SWAP4 MSTORE PUSH1 0xC0 DUP8 ADD SWAP2 SWAP1 SWAP2 MSTORE PUSH1 0xE0 DUP7 ADD MSTORE PUSH2 0x100 DUP6 ADD MSTORE PUSH2 0x120 DUP5 ADD MSTORE PUSH2 0x140 DUP4 ADD MSTORE SWAP1 SWAP2 AND PUSH2 0x160 DUP3 ADD MSTORE PUSH2 0x180 ADD SWAP1 JUMP JUMPDEST PUSH1 0x1 PUSH1 0x1 PUSH1 0xA0 SHL SUB SWAP9 DUP10 AND DUP2 MSTORE PUSH1 0x20 DUP2 ADD SWAP8 SWAP1 SWAP8 MSTORE PUSH1 0x40 DUP8 ADD SWAP6 SWAP1 SWAP6 MSTORE PUSH1 0x60 DUP7 ADD SWAP4 SWAP1 SWAP4 MSTORE PUSH1 0x80 DUP6 ADD SWAP2 SWAP1 SWAP2 MSTORE PUSH1 0xA0 DUP5 ADD MSTORE PUSH1 0xC0 DUP4 ADD MSTORE SWAP1 SWAP2 AND PUSH1 0xE0 DUP3 ADD MSTORE PUSH2 0x100 ADD SWAP1 JUMP JUMPDEST PUSH1 0x1 PUSH1 0x1 PUSH1 0xA0 SHL SUB SWAP5 SWAP1 SWAP5 AND DUP5 MSTORE PUSH1 0x20 DUP5 ADD SWAP3 SWAP1 SWAP3 MSTORE PUSH1 0x40 DUP4 ADD MSTORE PUSH1 0x60 DUP3 ADD MSTORE PUSH1 0x80 ADD SWAP1 JUMP JUMPDEST PUSH1 0x1 PUSH1 0x1 PUSH1 0xA0 SHL SUB SWAP7 SWAP1 SWAP7 AND DUP7 MSTORE PUSH1 0x20 DUP7 ADD SWAP5 SWAP1 SWAP5 MSTORE PUSH1 0x40 DUP6 ADD SWAP3 SWAP1 SWAP3 MSTORE PUSH1 0x60 DUP5 ADD MSTORE PUSH1 0x80 DUP4 ADD MSTORE PUSH1 0xA0 DUP3 ADD MSTORE PUSH1 0xC0 ADD SWAP1 JUMP JUMPDEST PUSH1 0x20 DUP1 DUP3 MSTORE DUP3 MLOAD DUP3 DUP3 ADD DUP2 SWAP1 MSTORE PUSH1 0x0 SWAP2 SWAP1 DUP5 DUP3 ADD SWAP1 PUSH1 0x40 DUP6 ADD SWAP1 DUP5 JUMPDEST DUP2 DUP2 LT ISZERO PUSH2 0x5939 JUMPI DUP4 MLOAD PUSH1 0x1 PUSH1 0x1 PUSH1 0xA0 SHL SUB AND DUP4 MSTORE SWAP3 DUP5 ADD SWAP3 SWAP2 DUP5 ADD SWAP2 PUSH1 0x1 ADD PUSH2 0x5914 JUMP JUMPDEST POP SWAP1 SWAP7 SWAP6 POP POP POP POP POP POP JUMP JUMPDEST SWAP2 DUP3 MSTORE PUSH1 0x20 DUP3 ADD MSTORE PUSH1 0x40 ADD SWAP1 JUMP JUMPDEST PUSH1 0x0 PUSH1 0x20 DUP3 MSTORE DUP3 MLOAD DUP1 PUSH1 0x20 DUP5 ADD MSTORE PUSH2 0x5972 DUP2 PUSH1 0x40 DUP6 ADD PUSH1 0x20 DUP8 ADD PUSH2 0x5E9F JUMP JUMPDEST PUSH1 0x1F ADD PUSH1 0x1F NOT AND SWAP2 SWAP1 SWAP2 ADD PUSH1 0x40 ADD SWAP3 SWAP2 POP POP JUMP JUMPDEST PUSH1 0x20 DUP1 DUP3 MSTORE PUSH1 0x1B SWAP1 DUP3 ADD MSTORE PUSH32 0x536166654D6174683A206164646974696F6E206F766572666C6F770000000000 PUSH1 0x40 DUP3 ADD MSTORE PUSH1 0x60 ADD SWAP1 JUMP JUMPDEST PUSH1 0x20 DUP1 DUP3 MSTORE PUSH1 0x26 SWAP1 DUP3 ADD MSTORE PUSH32 0x416464726573733A20696E73756666696369656E742062616C616E636520666F PUSH1 0x40 DUP3 ADD MSTORE PUSH6 0x1C8818D85B1B PUSH1 0xD2 SHL PUSH1 0x60 DUP3 ADD MSTORE PUSH1 0x80 ADD SWAP1 JUMP JUMPDEST PUSH1 0x20 DUP1 DUP3 MSTORE PUSH1 0x26 SWAP1 DUP3 ADD MSTORE PUSH32 0x50657263656E74616765204D617468203A204D756C7469706C69636174696F6E PUSH1 0x40 DUP3 ADD MSTORE PUSH6 0x1032B93937B9 PUSH1 0xD1 SHL PUSH1 0x60 DUP3 ADD MSTORE PUSH1 0x80 ADD SWAP1 JUMP JUMPDEST PUSH1 0x20 DUP1 DUP3 MSTORE PUSH1 0x1C SWAP1 DUP3 ADD MSTORE PUSH32 0x4D4154485F4D554C5449504C49434154494F4E5F4F564552464C4F5700000000 PUSH1 0x40 DUP3 ADD MSTORE PUSH1 0x60 ADD SWAP1 JUMP JUMPDEST PUSH1 0x20 DUP1 DUP3 MSTORE PUSH1 0x14 SWAP1 DUP3 ADD MSTORE PUSH20 0x1514905394D19154881393D50810531313D5D151 PUSH1 0x62 SHL PUSH1 0x40 DUP3 ADD MSTORE PUSH1 0x60 ADD SWAP1 JUMP JUMPDEST PUSH1 0x20 DUP1 DUP3 MSTORE PUSH1 0x21 SWAP1 DUP3 ADD MSTORE PUSH32 0x536166654D6174683A206D756C7469706C69636174696F6E206F766572666C6F PUSH1 0x40 DUP3 ADD MSTORE PUSH1 0x77 PUSH1 0xF8 SHL PUSH1 0x60 DUP3 ADD MSTORE PUSH1 0x80 ADD SWAP1 JUMP JUMPDEST PUSH1 0x20 DUP1 DUP3 MSTORE PUSH1 0x2E SWAP1 DUP3 ADD MSTORE PUSH32 0x436F6E747261637420696E7374616E63652068617320616C7265616479206265 PUSH1 0x40 DUP3 ADD MSTORE PUSH14 0x195B881A5B9A5D1A585B1A5E9959 PUSH1 0x92 SHL PUSH1 0x60 DUP3 ADD MSTORE PUSH1 0x80 ADD SWAP1 JUMP JUMPDEST PUSH1 0x20 DUP1 DUP3 MSTORE PUSH1 0x1D SWAP1 DUP3 ADD MSTORE PUSH32 0x416464726573733A2063616C6C20746F206E6F6E2D636F6E7472616374000000 PUSH1 0x40 DUP3 ADD MSTORE PUSH1 0x60 ADD SWAP1 JUMP JUMPDEST PUSH1 0x20 DUP1 DUP3 MSTORE PUSH1 0x2A SWAP1 DUP3 ADD MSTORE PUSH32 0x5361666545524332303A204552433230206F7065726174696F6E20646964206E PUSH1 0x40 DUP3 ADD MSTORE PUSH10 0x1BDD081CDD58D8D95959 PUSH1 0xB2 SHL PUSH1 0x60 DUP3 ADD MSTORE PUSH1 0x80 ADD SWAP1 JUMP JUMPDEST PUSH1 0x20 DUP1 DUP3 MSTORE PUSH1 0x18 SWAP1 DUP3 ADD MSTORE PUSH32 0x496E76616C696420696E737472756D656E7420496E6465780000000000000000 PUSH1 0x40 DUP3 ADD MSTORE PUSH1 0x60 ADD SWAP1 JUMP JUMPDEST PUSH1 0x20 DUP1 DUP3 MSTORE PUSH1 0x15 SWAP1 DUP3 ADD MSTORE PUSH21 0x4D4154485F4449564953494F4E5F42595F5A45524F PUSH1 0x58 SHL PUSH1 0x40 DUP3 ADD MSTORE PUSH1 0x60 ADD SWAP1 JUMP JUMPDEST SWAP1 MLOAD DUP2 MSTORE PUSH1 0x20 ADD SWAP1 JUMP JUMPDEST PUSH1 0x0 PUSH2 0x1A0 DUP3 ADD SWAP1 POP PUSH2 0x5C42 DUP3 DUP5 MLOAD PUSH2 0x5586 JUMP JUMPDEST PUSH1 0x20 DUP4 ADD MLOAD PUSH2 0x5C54 PUSH1 0x20 DUP5 ADD DUP3 PUSH2 0x558B JUMP JUMPDEST POP PUSH1 0x40 DUP4 ADD MLOAD PUSH2 0x5C67 PUSH1 0x40 DUP5 ADD DUP3 PUSH2 0x558B JUMP JUMPDEST POP PUSH1 0x60 DUP4 ADD MLOAD PUSH2 0x5C7A PUSH1 0x60 DUP5 ADD DUP3 PUSH2 0x558B JUMP JUMPDEST POP PUSH1 0x80 DUP4 ADD MLOAD PUSH2 0x5C8D PUSH1 0x80 DUP5 ADD DUP3 PUSH2 0x558B JUMP JUMPDEST POP PUSH1 0xA0 DUP4 ADD MLOAD PUSH2 0x5CA0 PUSH1 0xA0 DUP5 ADD DUP3 PUSH2 0x558B JUMP JUMPDEST POP PUSH1 0xC0 DUP4 ADD MLOAD PUSH2 0x5CB3 PUSH1 0xC0 DUP5 ADD DUP3 PUSH2 0x5598 JUMP JUMPDEST POP PUSH1 0xE0 DUP4 ADD MLOAD PUSH2 0x5CC6 PUSH1 0xE0 DUP5 ADD DUP3 PUSH2 0x5579 JUMP JUMPDEST POP PUSH2 0x100 DUP1 DUP5 ADD MLOAD PUSH2 0x5CDA DUP3 DUP6 ADD DUP3 PUSH2 0x5579 JUMP JUMPDEST POP POP PUSH2 0x120 DUP1 DUP5 ADD MLOAD PUSH2 0x5CEF DUP3 DUP6 ADD DUP3 PUSH2 0x5579 JUMP JUMPDEST POP POP PUSH2 0x140 DUP1 DUP5 ADD MLOAD PUSH2 0x5D04 DUP3 DUP6 ADD DUP3 PUSH2 0x5579 JUMP JUMPDEST POP POP PUSH2 0x160 DUP1 DUP5 ADD MLOAD PUSH2 0x5D19 DUP3 DUP6 ADD DUP3 PUSH2 0x55A3 JUMP JUMPDEST POP POP PUSH2 0x180 DUP1 DUP5 ADD MLOAD PUSH2 0x5D2E DUP3 DUP6 ADD DUP3 PUSH2 0x55A3 JUMP JUMPDEST POP POP SWAP3 SWAP2 POP POP JUMP JUMPDEST SWAP5 DUP6 MSTORE PUSH1 0x1 PUSH1 0x1 PUSH1 0xA0 SHL SUB SWAP4 DUP5 AND PUSH1 0x20 DUP7 ADD MSTORE SWAP2 DUP4 AND PUSH1 0x40 DUP6 ADD MSTORE DUP3 AND PUSH1 0x60 DUP5 ADD MSTORE AND PUSH1 0x80 DUP3 ADD MSTORE PUSH1 0xA0 ADD SWAP1 JUMP JUMPDEST SWAP8 DUP9 MSTORE PUSH1 0x1 PUSH1 0x1 PUSH1 0xA0 SHL SUB SWAP7 DUP8 AND PUSH1 0x20 DUP10 ADD MSTORE SWAP5 ISZERO ISZERO PUSH1 0x40 DUP9 ADD MSTORE PUSH1 0x60 DUP8 ADD SWAP4 SWAP1 SWAP4 MSTORE PUSH1 0x80 DUP7 ADD SWAP2 SWAP1 SWAP2 MSTORE PUSH1 0xA0 DUP6 ADD MSTORE PUSH1 0xC0 DUP5 ADD MSTORE AND PUSH1 0xE0 DUP3 ADD MSTORE PUSH2 0x100 ADD SWAP1 JUMP JUMPDEST PUSH1 0x0 PUSH1 0xA0 DUP3 ADD SWAP1 POP DUP7 DUP3 MSTORE DUP6 PUSH1 0x20 DUP4 ADD MSTORE DUP5 PUSH1 0x40 DUP4 ADD MSTORE DUP4 PUSH1 0x60 DUP4 ADD MSTORE PUSH2 0x5DCC DUP4 PUSH2 0x5ECB JUMP JUMPDEST DUP3 PUSH1 0x80 DUP4 ADD MSTORE SWAP7 SWAP6 POP POP POP POP POP POP JUMP JUMPDEST DUP7 DUP2 MSTORE PUSH1 0x20 DUP2 ADD DUP7 SWAP1 MSTORE PUSH1 0xC0 DUP2 ADD PUSH2 0x5DF3 DUP7 PUSH2 0x5ECB JUMP JUMPDEST PUSH1 0x40 DUP3 ADD SWAP6 SWAP1 SWAP6 MSTORE PUSH1 0x1 PUSH1 0x1 PUSH1 0xA0 SHL SUB SWAP4 SWAP1 SWAP4 AND PUSH1 0x60 DUP5 ADD MSTORE PUSH1 0x80 DUP4 ADD SWAP2 SWAP1 SWAP2 MSTORE PUSH1 0xA0 SWAP1 SWAP2 ADD MSTORE SWAP3 SWAP2 POP POP JUMP JUMPDEST SWAP1 DUP2 MSTORE PUSH1 0x20 ADD SWAP1 JUMP JUMPDEST SWAP3 DUP4 MSTORE PUSH1 0x1 PUSH1 0x1 PUSH1 0xA0 SHL SUB SWAP2 SWAP1 SWAP2 AND PUSH1 0x20 DUP4 ADD MSTORE PUSH1 0x40 DUP3 ADD MSTORE PUSH1 0x60 ADD SWAP1 JUMP JUMPDEST SWAP5 DUP6 MSTORE PUSH1 0x20 DUP6 ADD SWAP4 SWAP1 SWAP4 MSTORE PUSH1 0x40 DUP5 ADD SWAP2 SWAP1 SWAP2 MSTORE PUSH1 0x1 PUSH1 0x1 PUSH1 0x80 SHL SUB SWAP1 DUP2 AND PUSH1 0x60 DUP5 ADD MSTORE AND PUSH1 0x80 DUP3 ADD MSTORE PUSH1 0xA0 ADD SWAP1 JUMP JUMPDEST SWAP6 DUP7 MSTORE PUSH1 0x20 DUP7 ADD SWAP5 SWAP1 SWAP5 MSTORE PUSH1 0x40 DUP6 ADD SWAP3 SWAP1 SWAP3 MSTORE PUSH1 0x60 DUP5 ADD MSTORE PUSH1 0x80 DUP4 ADD MSTORE PUSH1 0xA0 DUP3 ADD MSTORE PUSH1 0xC0 ADD SWAP1 JUMP JUMPDEST PUSH1 0x0 JUMPDEST DUP4 DUP2 LT ISZERO PUSH2 0x5EBA JUMPI DUP2 DUP2 ADD MLOAD DUP4 DUP3 ADD MSTORE PUSH1 0x20 ADD PUSH2 0x5EA2 JUMP JUMPDEST DUP4 DUP2 GT ISZERO PUSH2 0x3574 JUMPI POP POP PUSH1 0x0 SWAP2 ADD MSTORE JUMP JUMPDEST PUSH1 0x3 DUP2 LT PUSH2 0x1CAC JUMPI INVALID JUMPDEST PUSH1 0x1 PUSH1 0x1 PUSH1 0xA0 SHL SUB DUP2 AND DUP2 EQ PUSH2 0x1CAC JUMPI PUSH1 0x0 DUP1 REVERT JUMPDEST DUP1 ISZERO ISZERO DUP2 EQ PUSH2 0x1CAC JUMPI PUSH1 0x0 DUP1 REVERT INVALID LOG2 PUSH5 0x6970667358 0x22 SLT KECCAK256 SWAP12 0xE2 0x49 ORIGIN 0xAE DUP10 DUP8 CALLVALUE MSIZE 0xB9 0x2B 0xC 0xAC 0xEB PUSH8 0xFD204B23A21923D1 MULMOD 0xE6 NUMBER 0x4E 0xAC GASPRICE 0xB9 SWAP13 0xCF PUSH5 0x736F6C6343 STOP SMOD STOP STOP CALLER "
		},
		"gasEstimates": {
			"creation": {
				"codeDepositCost": "4873200",
				"executionCost": "10763",
				"totalCost": "4883963"
			},
			"external": {
				"FLASHLOAN_PREMIUM_TOTAL()": "274",
				"LENDINGPOOL_REVISION()": "274",
				"MAX_STABLE_RATE_BORROW_SIZE_PERCENT()": "338",
				"_MAX_NUMBER_INSTRUMENTS()": "317",
				"borrow(address,uint256,uint256,uint16,address)": "infinite",
				"deposit(address,uint256,uint16)": "infinite",
				"finalizeTransfer(address,address,address,uint256,uint256,uint256)": "infinite",
				"flashLoan(address,address,uint256,bytes,uint16)": "infinite",
				"getInstrumentConfiguration(address)": "1431",
				"getInstrumentData(address)": "infinite",
				"getInstrumentNormalizedIncome(address)": "infinite",
				"getInstrumentNormalizedVariableDebt(address)": "infinite",
				"getInstrumentsList()": "infinite",
				"getUserAccountData(address)": "infinite",
				"getUserConfiguration(address)": "1432",
				"initInstrument(address,address,address,address,address)": "infinite",
				"initialize(address)": "86215",
				"liquidationCall(address,address,address,uint256,bool)": "infinite",
				"rebalanceStableBorrowRate(address,address)": "infinite",
				"refreshConfig()": "infinite",
				"repay(address,uint256,uint256,address)": "infinite",
				"setConfiguration(address,uint256)": "infinite",
				"setInstrumentInterestRateStrategyAddress(address,address)": "infinite",
				"setPause(bool)": "infinite",
				"setUserUseInstrumentAsCollateral(address,bool)": "infinite",
				"swapBorrowRateMode(address,uint256)": "infinite",
				"withdraw(address,uint256,address)": "infinite"
			},
			"internal": {
				"_addInstrumentToList(address)": "infinite",
				"_executeBorrow(struct LendingPool.ExecuteBorrowParams memory)": "infinite",
				"_whenNotPaused()": "infinite",
				"getRevision()": "15",
				"refreshConfigInternal()": "infinite"
			}
		},
		"methodIdentifiers": {
			"FLASHLOAN_PREMIUM_TOTAL()": "074b2e43",
			"LENDINGPOOL_REVISION()": "8afaff02",
			"MAX_STABLE_RATE_BORROW_SIZE_PERCENT()": "e82fec2f",
			"_MAX_NUMBER_INSTRUMENTS()": "cff3435f",
			"borrow(address,uint256,uint256,uint16,address)": "a415bcad",
			"deposit(address,uint256,uint16)": "d2d0e066",
			"finalizeTransfer(address,address,address,uint256,uint256,uint256)": "d5ed3933",
			"flashLoan(address,address,uint256,bytes,uint16)": "2fee4de7",
			"getInstrumentConfiguration(address)": "c619adac",
			"getInstrumentData(address)": "4dc54a38",
			"getInstrumentNormalizedIncome(address)": "2b0475e1",
			"getInstrumentNormalizedVariableDebt(address)": "29c3e55e",
			"getInstrumentsList()": "df9ac432",
			"getUserAccountData(address)": "bf92857c",
			"getUserConfiguration(address)": "4417a583",
			"initInstrument(address,address,address,address,address)": "570b0b74",
			"initialize(address)": "c4d66de8",
			"liquidationCall(address,address,address,uint256,bool)": "00a718a9",
			"rebalanceStableBorrowRate(address,address)": "cd112382",
			"refreshConfig()": "7c55ccb3",
			"repay(address,uint256,uint256,address)": "573ade81",
			"setConfiguration(address,uint256)": "b8d29276",
			"setInstrumentInterestRateStrategyAddress(address,address)": "5610992a",
			"setPause(bool)": "bedb86fb",
			"setUserUseInstrumentAsCollateral(address,bool)": "0c363982",
			"swapBorrowRateMode(address,uint256)": "94ba89a2",
			"withdraw(address,uint256,address)": "69328dec"
		}
	},
	"abi": [
		{
			"anonymous": false,
			"inputs": [
				{
					"indexed": true,
					"internalType": "address",
					"name": "instrument",
					"type": "address"
				},
				{
					"indexed": false,
					"internalType": "address",
					"name": "user",
					"type": "address"
				},
				{
					"indexed": true,
					"internalType": "address",
					"name": "onBehalfOf",
					"type": "address"
				},
				{
					"indexed": false,
					"internalType": "uint256",
					"name": "amount",
					"type": "uint256"
				},
				{
					"indexed": false,
					"internalType": "uint256",
					"name": "borrowRateMode",
					"type": "uint256"
				},
				{
					"indexed": false,
					"internalType": "uint256",
					"name": "borrowRate",
					"type": "uint256"
				}
			],
			"name": "Borrow",
			"type": "event"
		},
		{
			"anonymous": false,
			"inputs": [
				{
					"indexed": true,
					"internalType": "address",
					"name": "instrument",
					"type": "address"
				},
				{
					"indexed": true,
					"internalType": "address",
					"name": "user",
					"type": "address"
				},
				{
					"indexed": false,
					"internalType": "uint256",
					"name": "amount",
					"type": "uint256"
				}
			],
			"name": "Deposit",
			"type": "event"
		},
		{
			"anonymous": false,
			"inputs": [
				{
					"indexed": true,
					"internalType": "address",
					"name": "target",
					"type": "address"
				},
				{
					"indexed": true,
					"internalType": "address",
					"name": "initiator",
					"type": "address"
				},
				{
					"indexed": true,
					"internalType": "address",
					"name": "asset",
					"type": "address"
				},
				{
					"indexed": false,
					"internalType": "uint256",
					"name": "amount",
					"type": "uint256"
				},
				{
					"indexed": false,
					"internalType": "uint256",
					"name": "premium",
					"type": "uint256"
				},
				{
					"indexed": false,
					"internalType": "uint16",
					"name": "boosterID",
					"type": "uint16"
				}
			],
			"name": "FlashLoan",
			"type": "event"
		},
		{
			"anonymous": false,
			"inputs": [
				{
					"indexed": true,
					"internalType": "address",
					"name": "instrument",
					"type": "address"
				},
				{
					"indexed": false,
					"internalType": "uint256",
					"name": "liquidityRate",
					"type": "uint256"
				},
				{
					"indexed": false,
					"internalType": "uint256",
					"name": "stableBorrowRate",
					"type": "uint256"
				},
				{
					"indexed": false,
					"internalType": "uint256",
					"name": "variableBorrowRate",
					"type": "uint256"
				},
				{
					"indexed": false,
					"internalType": "uint256",
					"name": "liquidityIndex",
					"type": "uint256"
				},
				{
					"indexed": false,
					"internalType": "uint256",
					"name": "variableBorrowIndex",
					"type": "uint256"
				}
			],
			"name": "InstrumentDataUpdated",
			"type": "event"
		},
		{
			"anonymous": false,
			"inputs": [
				{
					"indexed": true,
					"internalType": "address",
					"name": "instrument",
					"type": "address"
				},
				{
					"indexed": true,
					"internalType": "address",
					"name": "user",
					"type": "address"
				}
			],
			"name": "InstrumentUsedAsCollateralDisabled",
			"type": "event"
		},
		{
			"anonymous": false,
			"inputs": [
				{
					"indexed": true,
					"internalType": "address",
					"name": "instrument",
					"type": "address"
				},
				{
					"indexed": true,
					"internalType": "address",
					"name": "user",
					"type": "address"
				}
			],
			"name": "InstrumentUsedAsCollateralEnabled",
			"type": "event"
		},
		{
			"anonymous": false,
			"inputs": [
				{
					"indexed": true,
					"internalType": "address",
					"name": "collateralAsset",
					"type": "address"
				},
				{
					"indexed": true,
					"internalType": "address",
					"name": "debtAsset",
					"type": "address"
				},
				{
					"indexed": true,
					"internalType": "address",
					"name": "user",
					"type": "address"
				},
				{
					"indexed": false,
					"internalType": "uint256",
					"name": "debtToCover",
					"type": "uint256"
				},
				{
					"indexed": false,
					"internalType": "uint256",
					"name": "liquidatedCollateralAmount",
					"type": "uint256"
				},
				{
					"indexed": false,
					"internalType": "address",
					"name": "liquidator",
					"type": "address"
				},
				{
					"indexed": false,
					"internalType": "bool",
					"name": "receiveIToken",
					"type": "bool"
				}
			],
			"name": "LiquidationCall",
			"type": "event"
		},
		{
			"anonymous": false,
			"inputs": [],
			"name": "Paused",
			"type": "event"
		},
		{
			"anonymous": false,
			"inputs": [
				{
					"indexed": true,
					"internalType": "address",
					"name": "instrument",
					"type": "address"
				},
				{
					"indexed": true,
					"internalType": "address",
					"name": "user",
					"type": "address"
				}
			],
			"name": "RebalanceStableBorrowRate",
			"type": "event"
		},
		{
			"anonymous": false,
			"inputs": [
				{
					"indexed": true,
					"internalType": "address",
					"name": "instrument",
					"type": "address"
				},
				{
					"indexed": true,
					"internalType": "address",
					"name": "user",
					"type": "address"
				},
				{
					"indexed": true,
					"internalType": "address",
					"name": "repayer",
					"type": "address"
				},
				{
					"indexed": false,
					"internalType": "uint256",
					"name": "loanRepaid",
					"type": "uint256"
				},
				{
					"indexed": false,
					"internalType": "uint256",
					"name": "totalFeeRepaid",
					"type": "uint256"
				}
			],
			"name": "Repay",
			"type": "event"
		},
		{
			"anonymous": false,
			"inputs": [
				{
					"indexed": true,
					"internalType": "address",
					"name": "instrument",
					"type": "address"
				},
				{
					"indexed": true,
					"internalType": "address",
					"name": "user",
					"type": "address"
				},
				{
					"indexed": false,
					"internalType": "uint256",
					"name": "rateMode",
					"type": "uint256"
				}
			],
			"name": "Swap",
			"type": "event"
		},
		{
			"anonymous": false,
			"inputs": [],
			"name": "Unpaused",
			"type": "event"
		},
		{
			"anonymous": false,
			"inputs": [
				{
					"indexed": true,
					"internalType": "address",
					"name": "instrument",
					"type": "address"
				},
				{
					"indexed": true,
					"internalType": "address",
					"name": "user",
					"type": "address"
				},
				{
					"indexed": true,
					"internalType": "address",
					"name": "to",
					"type": "address"
				},
				{
					"indexed": false,
					"internalType": "uint256",
					"name": "amount",
					"type": "uint256"
				}
			],
			"name": "Withdraw",
			"type": "event"
		},
		{
			"anonymous": false,
			"inputs": [
				{
					"indexed": false,
					"internalType": "address",
					"name": "instrumentAddress",
					"type": "address"
				},
				{
					"indexed": false,
					"internalType": "address",
					"name": "user",
					"type": "address"
				},
				{
					"indexed": false,
					"internalType": "uint256",
					"name": "amount",
					"type": "uint256"
				},
				{
					"indexed": false,
					"internalType": "uint256",
					"name": "platformFee",
					"type": "uint256"
				},
				{
					"indexed": false,
					"internalType": "uint256",
					"name": "reserveFee",
					"type": "uint256"
				},
				{
					"indexed": false,
					"internalType": "uint16",
					"name": "_boosterId",
					"type": "uint16"
				}
			],
			"name": "borrowFeeUpdated",
			"type": "event"
		},
		{
			"anonymous": false,
			"inputs": [
				{
					"indexed": false,
					"internalType": "address",
					"name": "instrumentAddress",
					"type": "address"
				},
				{
					"indexed": false,
					"internalType": "address",
					"name": "user",
					"type": "address"
				},
				{
					"indexed": false,
					"internalType": "uint256",
					"name": "amount",
					"type": "uint256"
				},
				{
					"indexed": false,
					"internalType": "uint256",
					"name": "platformFee",
					"type": "uint256"
				},
				{
					"indexed": false,
					"internalType": "uint256",
					"name": "reserveFee",
					"type": "uint256"
				},
				{
					"indexed": false,
					"internalType": "uint16",
					"name": "_boosterId",
					"type": "uint16"
				}
			],
			"name": "depositFeeDeducted",
			"type": "event"
		},
		{
			"anonymous": false,
			"inputs": [
				{
					"indexed": false,
					"internalType": "address",
					"name": "instrumentAddress",
					"type": "address"
				},
				{
					"indexed": false,
					"internalType": "address",
					"name": "user",
					"type": "address"
				},
				{
					"indexed": false,
					"internalType": "address",
					"name": "onBehalfOf",
					"type": "address"
				},
				{
					"indexed": false,
					"internalType": "uint256",
					"name": "amount",
					"type": "uint256"
				},
				{
					"indexed": false,
					"internalType": "uint256",
					"name": "platformFeePay",
					"type": "uint256"
				},
				{
					"indexed": false,
					"internalType": "uint256",
					"name": "reserveFeePay",
					"type": "uint256"
				}
			],
			"name": "feeRepaid",
			"type": "event"
		},
		{
			"inputs": [],
			"name": "FLASHLOAN_PREMIUM_TOTAL",
			"outputs": [
				{
					"internalType": "uint256",
					"name": "",
					"type": "uint256"
				}
			],
			"stateMutability": "view",
			"type": "function"
		},
		{
			"inputs": [],
			"name": "LENDINGPOOL_REVISION",
			"outputs": [
				{
					"internalType": "uint256",
					"name": "",
					"type": "uint256"
				}
			],
			"stateMutability": "view",
			"type": "function"
		},
		{
			"inputs": [],
			"name": "MAX_STABLE_RATE_BORROW_SIZE_PERCENT",
			"outputs": [
				{
					"internalType": "uint256",
					"name": "",
					"type": "uint256"
				}
			],
			"stateMutability": "view",
			"type": "function"
		},
		{
			"inputs": [],
			"name": "_MAX_NUMBER_INSTRUMENTS",
			"outputs": [
				{
					"internalType": "uint256",
					"name": "",
					"type": "uint256"
				}
			],
			"stateMutability": "view",
			"type": "function"
		},
		{
			"inputs": [
				{
					"internalType": "address",
					"name": "asset",
					"type": "address"
				},
				{
					"internalType": "uint256",
					"name": "amount",
					"type": "uint256"
				},
				{
					"internalType": "uint256",
					"name": "interestRateMode",
					"type": "uint256"
				},
				{
					"internalType": "uint16",
					"name": "boosterId",
					"type": "uint16"
				},
				{
					"internalType": "address",
					"name": "onBehalfOf",
					"type": "address"
				}
			],
			"name": "borrow",
			"outputs": [],
			"stateMutability": "nonpayable",
			"type": "function"
		},
		{
			"inputs": [
				{
					"internalType": "address",
					"name": "_instrument",
					"type": "address"
				},
				{
					"internalType": "uint256",
					"name": "_amount",
					"type": "uint256"
				},
				{
					"internalType": "uint16",
					"name": "boosterId",
					"type": "uint16"
				}
			],
			"name": "deposit",
			"outputs": [],
			"stateMutability": "nonpayable",
			"type": "function"
		},
		{
			"inputs": [
				{
					"internalType": "address",
					"name": "asset",
					"type": "address"
				},
				{
					"internalType": "address",
					"name": "from",
					"type": "address"
				},
				{
					"internalType": "address",
					"name": "to",
					"type": "address"
				},
				{
					"internalType": "uint256",
					"name": "amount",
					"type": "uint256"
				},
				{
					"internalType": "uint256",
					"name": "balanceFromBefore",
					"type": "uint256"
				},
				{
					"internalType": "uint256",
					"name": "balanceToBefore",
					"type": "uint256"
				}
			],
			"name": "finalizeTransfer",
			"outputs": [],
			"stateMutability": "nonpayable",
			"type": "function"
		},
		{
			"inputs": [
				{
					"internalType": "address",
					"name": "receiverAddress",
					"type": "address"
				},
				{
					"internalType": "address",
					"name": "asset",
					"type": "address"
				},
				{
					"internalType": "uint256",
					"name": "amount",
					"type": "uint256"
				},
				{
					"internalType": "bytes",
					"name": "_params",
					"type": "bytes"
				},
				{
					"internalType": "uint16",
					"name": "boosterId",
					"type": "uint16"
				}
			],
			"name": "flashLoan",
			"outputs": [],
			"stateMutability": "nonpayable",
			"type": "function"
		},
		{
			"inputs": [
				{
					"internalType": "address",
					"name": "asset",
					"type": "address"
				}
			],
			"name": "getInstrumentConfiguration",
			"outputs": [
				{
					"components": [
						{
							"internalType": "uint256",
							"name": "data",
							"type": "uint256"
						}
					],
					"internalType": "struct DataTypes.InstrumentConfigurationMap",
					"name": "",
					"type": "tuple"
				}
			],
			"stateMutability": "view",
			"type": "function"
		},
		{
			"inputs": [
				{
					"internalType": "address",
					"name": "asset",
					"type": "address"
				}
			],
			"name": "getInstrumentData",
			"outputs": [
				{
					"components": [
						{
							"components": [
								{
									"internalType": "uint256",
									"name": "data",
									"type": "uint256"
								}
							],
							"internalType": "struct DataTypes.InstrumentConfigurationMap",
							"name": "configuration",
							"type": "tuple"
						},
						{
							"internalType": "uint128",
							"name": "liquidityIndex",
							"type": "uint128"
						},
						{
							"internalType": "uint128",
							"name": "variableBorrowIndex",
							"type": "uint128"
						},
						{
							"internalType": "uint128",
							"name": "currentLiquidityRate",
							"type": "uint128"
						},
						{
							"internalType": "uint128",
							"name": "currentVariableBorrowRate",
							"type": "uint128"
						},
						{
							"internalType": "uint128",
							"name": "currentStableBorrowRate",
							"type": "uint128"
						},
						{
							"internalType": "uint40",
							"name": "lastUpdateTimestamp",
							"type": "uint40"
						},
						{
							"internalType": "address",
							"name": "iTokenAddress",
							"type": "address"
						},
						{
							"internalType": "address",
							"name": "stableDebtTokenAddress",
							"type": "address"
						},
						{
							"internalType": "address",
							"name": "variableDebtTokenAddress",
							"type": "address"
						},
						{
							"internalType": "address",
							"name": "interestRateStrategyAddress",
							"type": "address"
						},
						{
							"internalType": "uint8",
							"name": "id",
							"type": "uint8"
						},
						{
							"internalType": "uint8",
							"name": "decimals",
							"type": "uint8"
						}
					],
					"internalType": "struct DataTypes.InstrumentData",
					"name": "",
					"type": "tuple"
				}
			],
			"stateMutability": "view",
			"type": "function"
		},
		{
			"inputs": [
				{
					"internalType": "address",
					"name": "asset",
					"type": "address"
				}
			],
			"name": "getInstrumentNormalizedIncome",
			"outputs": [
				{
					"internalType": "uint256",
					"name": "",
					"type": "uint256"
				}
			],
			"stateMutability": "view",
			"type": "function"
		},
		{
			"inputs": [
				{
					"internalType": "address",
					"name": "asset",
					"type": "address"
				}
			],
			"name": "getInstrumentNormalizedVariableDebt",
			"outputs": [
				{
					"internalType": "uint256",
					"name": "",
					"type": "uint256"
				}
			],
			"stateMutability": "view",
			"type": "function"
		},
		{
			"inputs": [],
			"name": "getInstrumentsList",
			"outputs": [
				{
					"internalType": "address[]",
					"name": "",
					"type": "address[]"
				}
			],
			"stateMutability": "view",
			"type": "function"
		},
		{
			"inputs": [
				{
					"internalType": "address",
					"name": "user",
					"type": "address"
				}
			],
			"name": "getUserAccountData",
			"outputs": [
				{
					"internalType": "uint256",
					"name": "totalCollateralUSD",
					"type": "uint256"
				},
				{
					"internalType": "uint256",
					"name": "totalDebtUSD",
					"type": "uint256"
				},
				{
					"internalType": "uint256",
					"name": "availableBorrowsUSD",
					"type": "uint256"
				},
				{
					"internalType": "uint256",
					"name": "currentLiquidationThreshold",
					"type": "uint256"
				},
				{
					"internalType": "uint256",
					"name": "ltv",
					"type": "uint256"
				},
				{
					"internalType": "uint256",
					"name": "healthFactor",
					"type": "uint256"
				}
			],
			"stateMutability": "view",
			"type": "function"
		},
		{
			"inputs": [
				{
					"internalType": "address",
					"name": "user",
					"type": "address"
				}
			],
			"name": "getUserConfiguration",
			"outputs": [
				{
					"components": [
						{
							"internalType": "uint256",
							"name": "data",
							"type": "uint256"
						}
					],
					"internalType": "struct DataTypes.UserConfigurationMap",
					"name": "",
					"type": "tuple"
				}
			],
			"stateMutability": "view",
			"type": "function"
		},
		{
			"inputs": [
				{
					"internalType": "address",
					"name": "asset",
					"type": "address"
				},
				{
					"internalType": "address",
					"name": "iTokenAddress",
					"type": "address"
				},
				{
					"internalType": "address",
					"name": "stableDebtAddress",
					"type": "address"
				},
				{
					"internalType": "address",
					"name": "variableDebtAddress",
					"type": "address"
				},
				{
					"internalType": "address",
					"name": "interestRateStrategyAddress",
					"type": "address"
				}
			],
			"name": "initInstrument",
			"outputs": [],
			"stateMutability": "nonpayable",
			"type": "function"
		},
		{
			"inputs": [
				{
					"internalType": "contract IGlobalAddressesProvider",
					"name": "provider",
					"type": "address"
				}
			],
			"name": "initialize",
			"outputs": [],
			"stateMutability": "nonpayable",
			"type": "function"
		},
		{
			"inputs": [
				{
					"internalType": "address",
					"name": "collateralAsset",
					"type": "address"
				},
				{
					"internalType": "address",
					"name": "debtAsset",
					"type": "address"
				},
				{
					"internalType": "address",
					"name": "user",
					"type": "address"
				},
				{
					"internalType": "uint256",
					"name": "debtToCover",
					"type": "uint256"
				},
				{
					"internalType": "bool",
					"name": "_receiveIToken",
					"type": "bool"
				}
			],
			"name": "liquidationCall",
			"outputs": [],
			"stateMutability": "nonpayable",
			"type": "function"
		},
		{
			"inputs": [
				{
					"internalType": "address",
					"name": "asset",
					"type": "address"
				},
				{
					"internalType": "address",
					"name": "user",
					"type": "address"
				}
			],
			"name": "rebalanceStableBorrowRate",
			"outputs": [],
			"stateMutability": "nonpayable",
			"type": "function"
		},
		{
			"inputs": [],
			"name": "refreshConfig",
			"outputs": [],
			"stateMutability": "nonpayable",
			"type": "function"
		},
		{
			"inputs": [
				{
					"internalType": "address",
					"name": "asset",
					"type": "address"
				},
				{
					"internalType": "uint256",
					"name": "amount",
					"type": "uint256"
				},
				{
					"internalType": "uint256",
					"name": "rateMode",
					"type": "uint256"
				},
				{
					"internalType": "address",
					"name": "onBehalfOf",
					"type": "address"
				}
			],
			"name": "repay",
			"outputs": [
				{
					"internalType": "uint256",
					"name": "",
					"type": "uint256"
				}
			],
			"stateMutability": "nonpayable",
			"type": "function"
		},
		{
			"inputs": [
				{
					"internalType": "address",
					"name": "asset",
					"type": "address"
				},
				{
					"internalType": "uint256",
					"name": "configuration",
					"type": "uint256"
				}
			],
			"name": "setConfiguration",
			"outputs": [],
			"stateMutability": "nonpayable",
			"type": "function"
		},
		{
			"inputs": [
				{
					"internalType": "address",
					"name": "asset",
					"type": "address"
				},
				{
					"internalType": "address",
					"name": "rateStrategyAddress",
					"type": "address"
				}
			],
			"name": "setInstrumentInterestRateStrategyAddress",
			"outputs": [],
			"stateMutability": "nonpayable",
			"type": "function"
		},
		{
			"inputs": [
				{
					"internalType": "bool",
					"name": "val",
					"type": "bool"
				}
			],
			"name": "setPause",
			"outputs": [],
			"stateMutability": "nonpayable",
			"type": "function"
		},
		{
			"inputs": [
				{
					"internalType": "address",
					"name": "asset",
					"type": "address"
				},
				{
					"internalType": "bool",
					"name": "useAsCollateral",
					"type": "bool"
				}
			],
			"name": "setUserUseInstrumentAsCollateral",
			"outputs": [],
			"stateMutability": "nonpayable",
			"type": "function"
		},
		{
			"inputs": [
				{
					"internalType": "address",
					"name": "asset",
					"type": "address"
				},
				{
					"internalType": "uint256",
					"name": "rateMode",
					"type": "uint256"
				}
			],
			"name": "swapBorrowRateMode",
			"outputs": [],
			"stateMutability": "nonpayable",
			"type": "function"
		},
		{
			"inputs": [
				{
					"internalType": "address",
					"name": "_instrument",
					"type": "address"
				},
				{
					"internalType": "uint256",
					"name": "amount",
					"type": "uint256"
				},
				{
					"internalType": "address",
					"name": "to",
					"type": "address"
				}
			],
			"name": "withdraw",
			"outputs": [
				{
					"internalType": "uint256",
					"name": "",
					"type": "uint256"
				}
			],
			"stateMutability": "nonpayable",
			"type": "function"
		}
	]
}