{
	"data": {
		"bytecode": {
			"linkReferences": {},
			"object": "60806040526000805534801561001457600080fd5b506130ed806100246000396000f3fe608060405234801561001057600080fd5b50600436106100355760003560e01c8062a718a91461003a578063698b08b7146100fd575b600080fd5b61007e600480360360a081101561005057600080fd5b506001600160a01b038135811691602081013582169160408201351690606081013590608001351515610117565b6040518083815260200180602001828103825283818151815260200191508051906020019080838360005b838110156100c15781810151838201526020016100a9565b50505050905090810190601f1680156100ee5780820380516001836020036101000a031916815260200191505b50935050505060405180910390f35b610105610f47565b60408051918252519081900360200190f35b6001600160a01b03808616600090815260396020908152604080832088851684528184209488168452603a90925282209192606092610154612d5f565b604080516020808201835284548252603c546034548451631f94a27560e31b815294516101e6958f956039959094603b9490936001600160a01b039091169263fca513a8926004808301939192829003018186803b1580156101b557600080fd5b505afa1580156101c9573d6000803e3d6000fd5b505050506040513d60208110156101df57600080fd5b5051610f4c565b610140860152506101fd92508b9150859050611412565b6040830181905260208301829052610140830151610222928792879287929091611515565b6102008301526101e08201819052600090600981111561023e57fe5b600981111561024957fe5b1461026757806101e001518161020001519550955050505050610f3d565b6004808501546001600160a01b039081166101808401819052604080516370a0823160e01b8152928d169383019390935291516370a0823191602480820192602092909190829003018186803b1580156102c057600080fd5b505afa1580156102d4573d6000803e3d6000fd5b505050506040513d60208110156102ea57600080fd5b505181526040810151602082015161030f91611388916103099161168b565b906116ee565b6060820181905288116103225787610328565b80606001515b60808201819052815161034391869186918f918f919061176e565b61012083015261010082015260058301546040805163285c23a560e01b81526001600160a01b038c811660048301529151919092169163285c23a5916024808301926020929190829003018186803b15801561039e57600080fd5b505afa1580156103b2573d6000803e3d6000fd5b505050506040513d60208110156103c857600080fd5b505161022082018190526103de906113886116ee565b610260820152600583015460408051634c6fc8e960e01b81526001600160a01b038c8116600483015291519190921691634c6fc8e9916024808301926020929190829003018186803b15801561043357600080fd5b505afa158015610447573d6000803e3d6000fd5b505050506040513d602081101561045d57600080fd5b50516102408201819052610473906113886116ee565b610280820152610260810151158015906104935750610100810151815110155b156104d3576104c684848d8d8561026001516104c187610100015188600001516119e790919063ffffffff16565b61176e565b6102e08301526102a08201525b60008161028001511180156104fd57506102a08101516101008201516104f89161168b565b815110155b156105475761053a84848d8d8561028001516104c1876102a001516105348961010001518a600001516119e790919063ffffffff16565b906119e7565b6103008301526102c08201525b806080015181610120015110156105645761012081015160808201525b866106245760008b6001600160a01b03166370a082318361018001516040518263ffffffff1660e01b815260040180826001600160a01b0316815260200191505060206040518083038186803b1580156105bd57600080fd5b505afa1580156105d1573d6000803e3d6000fd5b505050506040513d60208110156105e757600080fd5b505161010083015190915081101561062257600560405180606001604052806021815260200161304c60219139965096505050505050610f3d565b505b80608001518160400151106106c75760068301546080820151600185015460408051637a94c56560e11b81526001600160a01b038e811660048301526024820194909452600160801b9092046001600160801b0316604483015251919092169163f5298aca91606480830192600092919082900301818387803b1580156106aa57600080fd5b505af11580156106be573d6000803e3d6000fd5b505050506107eb565b60408101511561076057600683015460408281015160018601548251637a94c56560e11b81526001600160a01b038e811660048301526024820193909352600160801b9091046001600160801b03166044820152915192169163f5298aca9160648082019260009290919082900301818387803b15801561074757600080fd5b505af115801561075b573d6000803e3d6000fd5b505050505b6005830154604082015160808301516001600160a01b0390921691639dc29fac918c9161078c916119e7565b6040518363ffffffff1660e01b815260040180836001600160a01b0316815260200182815260200192505050600060405180830381600087803b1580156107d257600080fd5b505af11580156107e6573d6000803e3d6000fd5b505050505b8615610968578061018001516001600160a01b03166370a08231336040518263ffffffff1660e01b815260040180826001600160a01b0316815260200191505060206040518083038186803b15801561084357600080fd5b505afa158015610857573d6000803e3d6000fd5b505050506040513d602081101561086d57600080fd5b50516101608201526101808101516101008201516040805163f866c31960e01b81526001600160a01b038d8116600483015233602483015260448201939093529051919092169163f866c31991606480830192600092919082900301818387803b1580156108da57600080fd5b505af11580156108ee573d6000803e3d6000fd5b505050508061016001516000141561096357336000908152603a60205260409020600785015461092b908290600160a01b900460ff166001611a29565b60405133906001600160a01b038e16907f0fa277da50ddc7ccdfa45b85b1f26c78fe2d562ffe054abc05a44d7e08cd0dda90600090a3505b610a2e565b60375461097f9085906001600160a01b0316611ab4565b61018081015161010082015161099c9186918e9190600090611b80565b610180810151610100820151600186015460408051636b81068560e11b81526001600160a01b038e8116600483015233602483015260448201949094526001600160801b03909216606483015251919092169163d7020d0a91608480830192600092919082900301818387803b158015610a1557600080fd5b505af1158015610a29573d6000803e3d6000fd5b505050505b80516101008201511415610a99576007840154610a58908390600160a01b900460ff166000611a29565b886001600160a01b03168b6001600160a01b03167f5f0dbed5d3dac715152b6b58c69a80d2ed41075ed413e35b7379025a642ef0d660405160405180910390a35b60048301546080820151610abf916001600160a01b038d8116923392919091169061205f565b6102e081015115610ca757603754610ae19085906001600160a01b0316611ab4565b6101808101516102a0820151610afe9186918e9190600090611b80565b6101808101516038546102a0830151600187015460408051636b81068560e11b81526001600160a01b038f81166004830152948516602482015260448101939093526001600160801b03909116606483015251919092169163d7020d0a91608480830192600092919082900301818387803b158015610b7c57600080fd5b505af1158015610b90573d6000803e3d6000fd5b50505060058401546102e083015160408051631470b90b60e01b81526001600160a01b038e8116600483015260006024830181905260448301949094529151919093169350631470b90b92606480820193929182900301818387803b158015610bf857600080fd5b505af1158015610c0c573d6000803e3d6000fd5b505050507fb30a040c03f075f83ee547a903f7ca8575b150416afcbe7529173f811b43d050898c8c846102200151856102600151866102e00151876102a0015160405180886001600160a01b03168152602001876001600160a01b03168152602001866001600160a01b0316815260200185815260200184815260200183815260200182815260200197505050505050505060405180910390a15b61030081015115610e8f57603754610cc99085906001600160a01b0316611ab4565b6101808101516102c0820151610ce69186918e9190600090611b80565b6101808101516037546102c0830151600187015460408051636b81068560e11b81526001600160a01b038f81166004830152948516602482015260448101939093526001600160801b03909116606483015251919092169163d7020d0a91608480830192600092919082900301818387803b158015610d6457600080fd5b505af1158015610d78573d6000803e3d6000fd5b5050506005840154610300830151604080516375282d1360e11b81526001600160a01b038e811660048301526000602483018190526044830194909452915191909316935063ea505a2692606480820193929182900301818387803b158015610de057600080fd5b505af1158015610df4573d6000803e3d6000fd5b505050507fab3fa2d0c6dc0dc302f1d3d043a145cd2b839fa27057f576c59a5f6d0a48ac66898c8c846102400151856102800151866103000151876102c0015160405180886001600160a01b03168152602001876001600160a01b03168152602001866001600160a01b0316815260200185815260200184815260200183815260200182815260200197505050505050505060405180910390a15b886001600160a01b03168a6001600160a01b03168c6001600160a01b03167fe413a321e8681d831f4dbccbca790d2952b56f977908e45be37335533e0052868460800151856101000151338d60405180858152602001848152602001836001600160a01b03168152602001821515815260200194505050505060405180910390a46000604051806040016040528060098152602001684e4f204552524f525360b81b81525095509550505050505b9550959350505050565b600181565b6000806000806000610f5c612e31565b610f658a6120bf565b15610f83576000806000806000199550955095509550955050611404565b600060e08201525b878160e0015110156113635760e0810151610fa7908b906120c4565b610fb057611353565b60e0810151600090815260208a81526040808320546001600160a01b03166101e085018190528352908d90529020610fe781612127565b506080860181905260c08601929092525060a0840191909152600a0a6020808401919091526101e08301516040805163b3596f0760e01b81526001600160a01b0392831660048201529051918b169263b3596f0792602480840193829003018186803b15801561105657600080fd5b505afa15801561106a573d6000803e3d6000fd5b505050506040513d602081101561108057600080fd5b5051825260c0820151158015906110a2575060e08201516110a2908c90612152565b156111c3578060040160009054906101000a90046001600160a01b03166001600160a01b03166370a082318e6040518263ffffffff1660e01b815260040180826001600160a01b0316815260200191505060206040518083038186803b15801561110b57600080fd5b505afa15801561111f573d6000803e3d6000fd5b505050506040513d602081101561113557600080fd5b5051604083018190526020830151835160009261115c9291611156916121bc565b90612215565b61012084015190915061116f908261168b565b61012084015260a0830151611195906111899083906121bc565b6101608501519061168b565b61016084015260c08301516111bb906111af9083906121bc565b6101808501519061168b565b610180840152505b60e08201516111d3908c90612257565b15611351578060050160009054906101000a90046001600160a01b03166001600160a01b03166370a082318e6040518263ffffffff1660e01b815260040180826001600160a01b0316815260200191505060206040518083038186803b15801561123c57600080fd5b505afa158015611250573d6000803e3d6000fd5b505050506040513d602081101561126657600080fd5b810190808051906020019092919050505082606001818152505061131e8160060160009054906101000a90046001600160a01b03166001600160a01b03166370a082318f6040518263ffffffff1660e01b815260040180826001600160a01b0316815260200191505060206040518083038186803b1580156112e757600080fd5b505afa1580156112fb573d6000803e3d6000fd5b505050506040513d602081101561131157600080fd5b505160608401519061168b565b606083018190526020830151835161134a9261133e9291611156916121bc565b6101408401519061168b565b6101408301525b505b60e0810180516001019052610f8b565b60008161012001511161137757600061138c565b61012081015161016082015161138c91612215565b6101608201526101208101516113a35760006113b8565b6101208101516101808201516113b891612215565b61018082018190526101208201516101408301516113d5926122ba565b610100820181905261012082015161014083015161016084015161018090940151919850965091945090925090505b965096509650965096915050565b6005810154604080516370a0823160e01b81526001600160a01b0385811660048301529151600093849316916370a08231916024808301926020929190829003018186803b15801561146357600080fd5b505afa158015611477573d6000803e3d6000fd5b505050506040513d602081101561148d57600080fd5b50516006840154604080516370a0823160e01b81526001600160a01b038881166004830152915191909216916370a08231916024808301926020929190829003018186803b1580156114de57600080fd5b505afa1580156114f2573d6000803e3d6000fd5b505050506040513d602081101561150857600080fd5b5051909590945092505050565b60006060611522886122e8565b15806115345750611532876122e8565b155b1561156f575050604080518082019091526015815274496e737472756d656e74206e6f742041637469766560581b6020820152600690611680565b670de0b6b3a764000085106115a257600460405180606001604052806021815260200161306d6021913991509150611680565b6000806115ae8a6122f8565b1180156115dd575060078901546040805160208101909152885481526115dd91600160a01b900460ff16612152565b90508061162357505060408051808201909152601f81527f434f4c4c41544552414c2043414e4e4f54204245204c49515549444154454400602082015260029150611680565b8415801561162f575083155b15611659576003604051806060016040528060278152602001613004602791399250925050611680565b50506040805180820190915260098152684e4f204552524f525360b81b6020820152600091505b965096945050505050565b6000828201838110156116e5576040805162461bcd60e51b815260206004820152601b60248201527f536166654d6174683a206164646974696f6e206f766572666c6f770000000000604482015290519081900360640190fd5b90505b92915050565b60008215806116fb575081155b15611708575060006116e8565b81611388198161171457fe5b048311156117535760405162461bcd60e51b8152600401808060200182810382526026815260200180612fde6026913960400191505060405180910390fd5b6127106002815b04838502018161176657fe5b049392505050565b6000806000806000603460009054906101000a90046001600160a01b03166001600160a01b031663fca513a86040518163ffffffff1660e01b815260040160206040518083038186803b1580156117c457600080fd5b505afa1580156117d8573d6000803e3d6000fd5b505050506040513d60208110156117ee57600080fd5b505190506117fa612ecb565b816001600160a01b031663b3596f078b6040518263ffffffff1660e01b815260040180826001600160a01b0316815260200191505060206040518083038186803b15801561184757600080fd5b505afa15801561185b573d6000803e3d6000fd5b505050506040513d602081101561187157600080fd5b5051604080830191909152805163b3596f0760e01b81526001600160a01b038b8116600483015291519184169163b3596f0791602480820192602092909190829003018186803b1580156118c457600080fd5b505afa1580156118d8573d6000803e3d6000fd5b505050506040513d60208110156118ee57600080fd5b505160608201526118fe8c612127565b5060c085015260208401525061191590508b612303565b60a082018190526040820151611962916119329190600a0a6121bc565b61115683602001516103098560c00151600a0a61195c8e88606001516121bc90919063ffffffff16565b906121bc565b608082018190528710156119cb578693506119c481602001516119be61199c8460c00151600a0a85606001516121bc90919063ffffffff16565b6111568560a00151600a0a61195c8a88604001516121bc90919063ffffffff16565b9061230d565b92506119d6565b806080015193508792505b50919a909950975050505050505050565b60006116e583836040518060400160405280601e81526020017f536166654d6174683a207375627472616374696f6e206f766572666c6f7700008152506123cf565b60808210611a79576040805162461bcd60e51b8152602060048201526018602482015277092dcecc2d8d2c840d2dce6e8e4eadacadce84092dcc8caf60431b604482015290519081900360640190fd5b8160020260010181611a8c576000611a8f565b60015b60ff16901b826002026001016001901b19846000015416178360000181905550505050565b60068201546040805163b1bf962d60e01b815290516000926001600160a01b03169163b1bf962d916004808301926020929190829003018186803b158015611afb57600080fd5b505afa158015611b0f573d6000803e3d6000fd5b505050506040513d6020811015611b2557600080fd5b505160018401546003850154919250600160801b8082046001600160801b03908116939216910464ffffffffff16600080611b638887868887612429565b91509150611b76888888888686896125e2565b5050505050505050565b611b88612f08565b60058601546001600160a01b031680825260408051637b98f4df60e11b8152815163f731e9be92600480840193919291829003018186803b158015611bcc57600080fd5b505afa158015611be0573d6000803e3d6000fd5b505050506040513d6040811015611bf657600080fd5b50805160209182015160c084015260408084019190915260018801546006890154825163b1bf962d60e01b81529251611c9a94600160801b9093046001600160801b0316936001600160a01b039092169263b1bf962d9260048082019391829003018186803b158015611c6857600080fd5b505afa158015611c7c573d6000803e3d6000fd5b505050506040513d6020811015611c9257600080fd5b5051906127ce565b60e0820152604080516370a0823160e01b81526001600160a01b0386811660048301529151918716916370a0823191602480820192602092909190829003018186803b158015611ce957600080fd5b505afa158015611cfd573d6000803e3d6000fd5b505050506040513d6020811015611d1357600080fd5b50516020820181905260078701546001600160a01b031690639584df28908790611d43908690610534908961168b565b604085015160e086015160c0870151611d5b8d612868565b6040518763ffffffff1660e01b815260040180876001600160a01b03168152602001868152602001858152602001848152602001838152602001828152602001965050505050505060606040518083038186803b158015611dbb57600080fd5b505afa158015611dcf573d6000803e3d6000fd5b505050506040513d6060811015611de557600080fd5b50805160208083015160409384015160a086015260808501526060840182905282518084019093526002835261189960f11b908301526001600160801b031015611ead5760405162461bcd60e51b81526004018080602001828103825283818151815260200191508051906020019080838360005b83811015611e72578181015183820152602001611e5a565b50505050905090810190601f168015611e9f5780820380516001836020036101000a031916815260200191505b509250505060405180910390fd5b506080810151604080518082019091526002815261313360f01b6020820152906001600160801b031015611f225760405162461bcd60e51b8152602060048201818152835160248401528351909283926044909101919085019080838360008315611e72578181015183820152602001611e5a565b5060a08101516040805180820190915260028152610c4d60f21b6020820152906001600160801b031015611f975760405162461bcd60e51b8152602060048201818152835160248401528351909283926044909101919085019080838360008315611e72578181015183820152602001611e5a565b5060608181015160028801805460808086015160038c0180546001600160801b03199081166001600160801b038085169190911790925560a0808a015191909516828816178216600160801b82841681029190911790965560018e01546040805198895260208901949094528784019190915280821697870197909752939095049092169183019190915291516001600160a01b038816927f9adb65693c7acc3236bf2c0979398344d4783c4d439d2bd5bc6f18d75e751b8b928290030190a2505050505050565b604080516001600160a01b0380861660248301528416604482015260648082018490528251808303909101815260849091019091526020810180516001600160e01b03166323b872dd60e01b1790526120b9908590612873565b50505050565b511590565b600060808210612116576040805162461bcd60e51b8152602060048201526018602482015277092dcecc2d8d2c840d2dce6e8e4eadacadce84092dcc8caf60431b604482015290519081900360640190fd5b509051600360029092021c16151590565b5461ffff80821692601083901c821692602081901c83169260ff603083901c169260409290921c1690565b6000608082106121a4576040805162461bcd60e51b8152602060048201526018602482015277092dcecc2d8d2c840d2dce6e8e4eadacadce84092dcc8caf60431b604482015290519081900360640190fd5b50815160016002830281019190911c16151592915050565b6000826121cb575060006116e8565b828202828482816121d857fe5b04146116e55760405162461bcd60e51b815260040180806020018281038252602181526020018061302b6021913960400191505060405180910390fd5b60006116e583836040518060400160405280601a81526020017f536166654d6174683a206469766973696f6e206279207a65726f000000000000815250612929565b6000608082106122a9576040805162461bcd60e51b8152602060048201526018602482015277092dcecc2d8d2c840d2dce6e8e4eadacadce84092dcc8caf60431b604482015290519081900360640190fd5b509051600160029092021c16151590565b6000826122ca57506000196122e1565b6122de836122d886856116ee565b9061298e565b90505b9392505050565b5467010000000000000016151590565b5460101c61ffff1690565b5460301c60ff1690565b600081612359576040805162461bcd60e51b81526020600482015260156024820152744d415448204449564953494f4e204259205a45524f60581b604482015290519081900360640190fd5b600282046127108119048411156123b7576040805162461bcd60e51b815260206004820181905260248201527f50657263656e74616765204d617468203a204469766973696f6e206572726f72604482015290519081900360640190fd5b8281612710860201816123c657fe5b04949350505050565b600081848411156124215760405162461bcd60e51b8152602060048201818152835160248401528351909283926044909101919085019080838360008315611e72578181015183820152602001611e5a565b505050900390565b600285015460009081906001600160801b0316858582156125b35760006124508488612a53565b905061245c818a6127ce565b604080518082019091526002815261189b60f11b60208201529093506001600160801b038411156124ce5760405162461bcd60e51b8152602060048201818152835160248401528351909283926044909101919085019080838360008315611e72578181015183820152602001611e5a565b5060018b0180546001600160801b0319166001600160801b03851617905589156125b15760028b015460009061251490600160801b90046001600160801b031689612a99565b9050612520818a6127ce565b604080518082019091526002815261313760f01b60208201529093506001600160801b038411156125925760405162461bcd60e51b8152602060048201818152835160248401528351909283926044909101919085019080838360008315611e72578181015183820152602001611e5a565b505060018b0180546001600160801b03808516600160801b0291161790555b505b600399909901805464ffffffffff60801b1916600160801b4264ffffffffff1602179055989650505050505050565b6125ea612f56565b6125f388612868565b610120820181905261260557506127c5565b8760050160009054906101000a90046001600160a01b03166001600160a01b031663797743386040518163ffffffff1660e01b815260040160806040518083038186803b15801561265557600080fd5b505afa158015612669573d6000803e3d6000fd5b505050506040513d608081101561267f57600080fd5b508051602080830151604084015160609094015164ffffffffff1661014086015260a0850193909352918352908201526126b986866127ce565b60808201526126c886846127ce565b606082015260a08101516101408201516126ea919064ffffffffff8516612aa2565b60c0820181905260208201516126ff916127ce565b604082018190526080820151825160608401516127249392610534929091839161168b565b60e0820181905261012082015161273b91906116ee565b610100820181905215611b76576004808901546101008301516040805163083d92c960e31b8152938401919091526001600160a01b038a811660248501526044840188905290519116916341ec964891606480830192600092919082900301818387803b1580156127ab57600080fd5b505af11580156127bf573d6000803e3d6000fd5b50505050505b50505050505050565b60008215806127db575081155b156127e8575060006116e8565b816b019d971e4fe8401e7400000019816127fe57fe5b04831115612853576040805162461bcd60e51b815260206004820152601c60248201527f4d4154485f4d554c5449504c49434154494f4e5f4f564552464c4f5700000000604482015290519081900360640190fd5b6b033b2e3c9fd0803ce800000060028161175a565b5460401c61ffff1690565b60606128c8826040518060400160405280602081526020017f5361666545524332303a206c6f772d6c6576656c2063616c6c206661696c6564815250856001600160a01b0316612b789092919063ffffffff16565b805190915015612924578080602001905160208110156128e757600080fd5b50516129245760405162461bcd60e51b815260040180806020018281038252602a81526020018061308e602a913960400191505060405180910390fd5b505050565b600081836129785760405162461bcd60e51b8152602060048201818152835160248401528351909283926044909101919085019080838360008315611e72578181015183820152602001611e5a565b50600083858161298457fe5b0495945050505050565b6000816129da576040805162461bcd60e51b81526020600482015260156024820152744d4154485f4449564953494f4e5f42595f5a45524f60581b604482015290519081900360640190fd5b60028204670de0b6b3a7640000811904841115612a3e576040805162461bcd60e51b815260206004820152601c60248201527f4d4154485f4d554c5449504c49434154494f4e5f4f564552464c4f5700000000604482015290519081900360640190fd5b8281670de0b6b3a7640000860201816123c657fe5b600080612a674264ffffffffff85166119e7565b9050612a91612a74612b87565b6301e13380612a8387856121bc565b81612a8a57fe5b049061168b565b949350505050565b60006116e58383425b600080612ab68364ffffffffff86166119e7565b905080612acd57612ac5612b87565b9150506122e1565b6000198101600060028311612ae3576000612ae8565b600283035b90506301e1338087046000612afd82806127ce565b90506000612b0b82846127ce565b905060006002612b1f8461195c8a8a6121bc565b81612b2657fe5b04905060006006612b3d8461195c89818d8d6121bc565b81612b4457fe5b049050612b6881612b628481612b5a8a8e6121bc565b612b62612b87565b9061168b565b9c9b505050505050505050505050565b60606122de8484600085612b97565b6b033b2e3c9fd0803ce800000090565b606082471015612bd85760405162461bcd60e51b8152600401808060200182810382526026815260200180612fb86026913960400191505060405180910390fd5b612be185612cf3565b612c32576040805162461bcd60e51b815260206004820152601d60248201527f416464726573733a2063616c6c20746f206e6f6e2d636f6e7472616374000000604482015290519081900360640190fd5b60006060866001600160a01b031685876040518082805190602001908083835b60208310612c715780518252601f199092019160209182019101612c52565b6001836020036101000a03801982511681845116808217855250505050505090500191505060006040518083038185875af1925050503d8060008114612cd3576040519150601f19603f3d011682016040523d82523d6000602084013e612cd8565b606091505b5091509150612ce8828286612cf9565b979650505050505050565b3b151590565b60608315612d085750816122e1565b825115612d185782518084602001fd5b60405162461bcd60e51b8152602060048201818152845160248401528451859391928392604401919085019080838360008315611e72578181015183820152602001611e5a565b60405180610320016040528060008152602001600081526020016000815260200160008152602001600081526020016000815260200160008152602001600081526020016000815260200160008152602001600081526020016000815260200160006001600160a01b0316815260200160001515815260200160006002811115612de557fe5b8152602001600081526020016060815260200160008152602001600081526020016000815260200160008152602001600081526020016000815260200160008152602001600081525090565b604051806102400160405280600081526020016000815260200160008152602001600081526020016000815260200160008152602001600081526020016000815260200160008152602001600081526020016000815260200160008152602001600081526020016000815260200160001515815260200160006001600160a01b031681526020016000151581526020016000151581525090565b6040518060e00160405280600081526020016000815260200160008152602001600081526020016000815260200160008152602001600081525090565b60405180610100016040528060006001600160a01b03168152602001600081526020016000815260200160008152602001600081526020016000815260200160008152602001600081525090565b60405180610160016040528060008152602001600081526020016000815260200160008152602001600081526020016000815260200160008152602001600081526020016000815260200160008152602001600064ffffffffff168152509056fe416464726573733a20696e73756666696369656e742062616c616e636520666f722063616c6c50657263656e74616765204d617468203a204d756c7469706c69636174696f6e206572726f725350454349464945442043555252454e4359204e4f5420424f52524f5745442042592055534552536166654d6174683a206d756c7469706c69636174696f6e206f766572666c6f774e4f5420454e4f554748204c495155494449545920544f204c49515549444154454845414c544820464143544f52204e4f542042454c4f57205448524553484f4c445361666545524332303a204552433230206f7065726174696f6e20646964206e6f742073756363656564a2646970667358221220ea5981f023a62d436fe1e2e382b2eb575d324eeaf733a8a26ffdcfebb623553a64736f6c63430007000033",
			"opcodes": "PUSH1 0x80 PUSH1 0x40 MSTORE PUSH1 0x0 DUP1 SSTORE CALLVALUE DUP1 ISZERO PUSH2 0x14 JUMPI PUSH1 0x0 DUP1 REVERT JUMPDEST POP PUSH2 0x30ED DUP1 PUSH2 0x24 PUSH1 0x0 CODECOPY PUSH1 0x0 RETURN INVALID PUSH1 0x80 PUSH1 0x40 MSTORE CALLVALUE DUP1 ISZERO PUSH2 0x10 JUMPI PUSH1 0x0 DUP1 REVERT JUMPDEST POP PUSH1 0x4 CALLDATASIZE LT PUSH2 0x35 JUMPI PUSH1 0x0 CALLDATALOAD PUSH1 0xE0 SHR DUP1 PUSH3 0xA718A9 EQ PUSH2 0x3A JUMPI DUP1 PUSH4 0x698B08B7 EQ PUSH2 0xFD JUMPI JUMPDEST PUSH1 0x0 DUP1 REVERT JUMPDEST PUSH2 0x7E PUSH1 0x4 DUP1 CALLDATASIZE SUB PUSH1 0xA0 DUP2 LT ISZERO PUSH2 0x50 JUMPI PUSH1 0x0 DUP1 REVERT JUMPDEST POP PUSH1 0x1 PUSH1 0x1 PUSH1 0xA0 SHL SUB DUP2 CALLDATALOAD DUP2 AND SWAP2 PUSH1 0x20 DUP2 ADD CALLDATALOAD DUP3 AND SWAP2 PUSH1 0x40 DUP3 ADD CALLDATALOAD AND SWAP1 PUSH1 0x60 DUP2 ADD CALLDATALOAD SWAP1 PUSH1 0x80 ADD CALLDATALOAD ISZERO ISZERO PUSH2 0x117 JUMP JUMPDEST PUSH1 0x40 MLOAD DUP1 DUP4 DUP2 MSTORE PUSH1 0x20 ADD DUP1 PUSH1 0x20 ADD DUP3 DUP2 SUB DUP3 MSTORE DUP4 DUP2 DUP2 MLOAD DUP2 MSTORE PUSH1 0x20 ADD SWAP2 POP DUP1 MLOAD SWAP1 PUSH1 0x20 ADD SWAP1 DUP1 DUP4 DUP4 PUSH1 0x0 JUMPDEST DUP4 DUP2 LT ISZERO PUSH2 0xC1 JUMPI DUP2 DUP2 ADD MLOAD DUP4 DUP3 ADD MSTORE PUSH1 0x20 ADD PUSH2 0xA9 JUMP JUMPDEST POP POP POP POP SWAP1 POP SWAP1 DUP2 ADD SWAP1 PUSH1 0x1F AND DUP1 ISZERO PUSH2 0xEE JUMPI DUP1 DUP3 SUB DUP1 MLOAD PUSH1 0x1 DUP4 PUSH1 0x20 SUB PUSH2 0x100 EXP SUB NOT AND DUP2 MSTORE PUSH1 0x20 ADD SWAP2 POP JUMPDEST POP SWAP4 POP POP POP POP PUSH1 0x40 MLOAD DUP1 SWAP2 SUB SWAP1 RETURN JUMPDEST PUSH2 0x105 PUSH2 0xF47 JUMP JUMPDEST PUSH1 0x40 DUP1 MLOAD SWAP2 DUP3 MSTORE MLOAD SWAP1 DUP2 SWAP1 SUB PUSH1 0x20 ADD SWAP1 RETURN JUMPDEST PUSH1 0x1 PUSH1 0x1 PUSH1 0xA0 SHL SUB DUP1 DUP7 AND PUSH1 0x0 SWAP1 DUP2 MSTORE PUSH1 0x39 PUSH1 0x20 SWAP1 DUP2 MSTORE PUSH1 0x40 DUP1 DUP4 KECCAK256 DUP9 DUP6 AND DUP5 MSTORE DUP2 DUP5 KECCAK256 SWAP5 DUP9 AND DUP5 MSTORE PUSH1 0x3A SWAP1 SWAP3 MSTORE DUP3 KECCAK256 SWAP2 SWAP3 PUSH1 0x60 SWAP3 PUSH2 0x154 PUSH2 0x2D5F JUMP JUMPDEST PUSH1 0x40 DUP1 MLOAD PUSH1 0x20 DUP1 DUP3 ADD DUP4 MSTORE DUP5 SLOAD DUP3 MSTORE PUSH1 0x3C SLOAD PUSH1 0x34 SLOAD DUP5 MLOAD PUSH4 0x1F94A275 PUSH1 0xE3 SHL DUP2 MSTORE SWAP5 MLOAD PUSH2 0x1E6 SWAP6 DUP16 SWAP6 PUSH1 0x39 SWAP6 SWAP1 SWAP5 PUSH1 0x3B SWAP5 SWAP1 SWAP4 PUSH1 0x1 PUSH1 0x1 PUSH1 0xA0 SHL SUB SWAP1 SWAP2 AND SWAP3 PUSH4 0xFCA513A8 SWAP3 PUSH1 0x4 DUP1 DUP4 ADD SWAP4 SWAP2 SWAP3 DUP3 SWAP1 SUB ADD DUP2 DUP7 DUP1 EXTCODESIZE ISZERO DUP1 ISZERO PUSH2 0x1B5 JUMPI PUSH1 0x0 DUP1 REVERT JUMPDEST POP GAS STATICCALL ISZERO DUP1 ISZERO PUSH2 0x1C9 JUMPI RETURNDATASIZE PUSH1 0x0 DUP1 RETURNDATACOPY RETURNDATASIZE PUSH1 0x0 REVERT JUMPDEST POP POP POP POP PUSH1 0x40 MLOAD RETURNDATASIZE PUSH1 0x20 DUP2 LT ISZERO PUSH2 0x1DF JUMPI PUSH1 0x0 DUP1 REVERT JUMPDEST POP MLOAD PUSH2 0xF4C JUMP JUMPDEST PUSH2 0x140 DUP7 ADD MSTORE POP PUSH2 0x1FD SWAP3 POP DUP12 SWAP2 POP DUP6 SWAP1 POP PUSH2 0x1412 JUMP JUMPDEST PUSH1 0x40 DUP4 ADD DUP2 SWAP1 MSTORE PUSH1 0x20 DUP4 ADD DUP3 SWAP1 MSTORE PUSH2 0x140 DUP4 ADD MLOAD PUSH2 0x222 SWAP3 DUP8 SWAP3 DUP8 SWAP3 DUP8 SWAP3 SWAP1 SWAP2 PUSH2 0x1515 JUMP JUMPDEST PUSH2 0x200 DUP4 ADD MSTORE PUSH2 0x1E0 DUP3 ADD DUP2 SWAP1 MSTORE PUSH1 0x0 SWAP1 PUSH1 0x9 DUP2 GT ISZERO PUSH2 0x23E JUMPI INVALID JUMPDEST PUSH1 0x9 DUP2 GT ISZERO PUSH2 0x249 JUMPI INVALID JUMPDEST EQ PUSH2 0x267 JUMPI DUP1 PUSH2 0x1E0 ADD MLOAD DUP2 PUSH2 0x200 ADD MLOAD SWAP6 POP SWAP6 POP POP POP POP POP PUSH2 0xF3D JUMP JUMPDEST PUSH1 0x4 DUP1 DUP6 ADD SLOAD PUSH1 0x1 PUSH1 0x1 PUSH1 0xA0 SHL SUB SWAP1 DUP2 AND PUSH2 0x180 DUP5 ADD DUP2 SWAP1 MSTORE PUSH1 0x40 DUP1 MLOAD PUSH4 0x70A08231 PUSH1 0xE0 SHL DUP2 MSTORE SWAP3 DUP14 AND SWAP4 DUP4 ADD SWAP4 SWAP1 SWAP4 MSTORE SWAP2 MLOAD PUSH4 0x70A08231 SWAP2 PUSH1 0x24 DUP1 DUP3 ADD SWAP3 PUSH1 0x20 SWAP3 SWAP1 SWAP2 SWAP1 DUP3 SWAP1 SUB ADD DUP2 DUP7 DUP1 EXTCODESIZE ISZERO DUP1 ISZERO PUSH2 0x2C0 JUMPI PUSH1 0x0 DUP1 REVERT JUMPDEST POP GAS STATICCALL ISZERO DUP1 ISZERO PUSH2 0x2D4 JUMPI RETURNDATASIZE PUSH1 0x0 DUP1 RETURNDATACOPY RETURNDATASIZE PUSH1 0x0 REVERT JUMPDEST POP POP POP POP PUSH1 0x40 MLOAD RETURNDATASIZE PUSH1 0x20 DUP2 LT ISZERO PUSH2 0x2EA JUMPI PUSH1 0x0 DUP1 REVERT JUMPDEST POP MLOAD DUP2 MSTORE PUSH1 0x40 DUP2 ADD MLOAD PUSH1 0x20 DUP3 ADD MLOAD PUSH2 0x30F SWAP2 PUSH2 0x1388 SWAP2 PUSH2 0x309 SWAP2 PUSH2 0x168B JUMP JUMPDEST SWAP1 PUSH2 0x16EE JUMP JUMPDEST PUSH1 0x60 DUP3 ADD DUP2 SWAP1 MSTORE DUP9 GT PUSH2 0x322 JUMPI DUP8 PUSH2 0x328 JUMP JUMPDEST DUP1 PUSH1 0x60 ADD MLOAD JUMPDEST PUSH1 0x80 DUP3 ADD DUP2 SWAP1 MSTORE DUP2 MLOAD PUSH2 0x343 SWAP2 DUP7 SWAP2 DUP7 SWAP2 DUP16 SWAP2 DUP16 SWAP2 SWAP1 PUSH2 0x176E JUMP JUMPDEST PUSH2 0x120 DUP4 ADD MSTORE PUSH2 0x100 DUP3 ADD MSTORE PUSH1 0x5 DUP4 ADD SLOAD PUSH1 0x40 DUP1 MLOAD PUSH4 0x285C23A5 PUSH1 0xE0 SHL DUP2 MSTORE PUSH1 0x1 PUSH1 0x1 PUSH1 0xA0 SHL SUB DUP13 DUP2 AND PUSH1 0x4 DUP4 ADD MSTORE SWAP2 MLOAD SWAP2 SWAP1 SWAP3 AND SWAP2 PUSH4 0x285C23A5 SWAP2 PUSH1 0x24 DUP1 DUP4 ADD SWAP3 PUSH1 0x20 SWAP3 SWAP2 SWAP1 DUP3 SWAP1 SUB ADD DUP2 DUP7 DUP1 EXTCODESIZE ISZERO DUP1 ISZERO PUSH2 0x39E JUMPI PUSH1 0x0 DUP1 REVERT JUMPDEST POP GAS STATICCALL ISZERO DUP1 ISZERO PUSH2 0x3B2 JUMPI RETURNDATASIZE PUSH1 0x0 DUP1 RETURNDATACOPY RETURNDATASIZE PUSH1 0x0 REVERT JUMPDEST POP POP POP POP PUSH1 0x40 MLOAD RETURNDATASIZE PUSH1 0x20 DUP2 LT ISZERO PUSH2 0x3C8 JUMPI PUSH1 0x0 DUP1 REVERT JUMPDEST POP MLOAD PUSH2 0x220 DUP3 ADD DUP2 SWAP1 MSTORE PUSH2 0x3DE SWAP1 PUSH2 0x1388 PUSH2 0x16EE JUMP JUMPDEST PUSH2 0x260 DUP3 ADD MSTORE PUSH1 0x5 DUP4 ADD SLOAD PUSH1 0x40 DUP1 MLOAD PUSH4 0x4C6FC8E9 PUSH1 0xE0 SHL DUP2 MSTORE PUSH1 0x1 PUSH1 0x1 PUSH1 0xA0 SHL SUB DUP13 DUP2 AND PUSH1 0x4 DUP4 ADD MSTORE SWAP2 MLOAD SWAP2 SWAP1 SWAP3 AND SWAP2 PUSH4 0x4C6FC8E9 SWAP2 PUSH1 0x24 DUP1 DUP4 ADD SWAP3 PUSH1 0x20 SWAP3 SWAP2 SWAP1 DUP3 SWAP1 SUB ADD DUP2 DUP7 DUP1 EXTCODESIZE ISZERO DUP1 ISZERO PUSH2 0x433 JUMPI PUSH1 0x0 DUP1 REVERT JUMPDEST POP GAS STATICCALL ISZERO DUP1 ISZERO PUSH2 0x447 JUMPI RETURNDATASIZE PUSH1 0x0 DUP1 RETURNDATACOPY RETURNDATASIZE PUSH1 0x0 REVERT JUMPDEST POP POP POP POP PUSH1 0x40 MLOAD RETURNDATASIZE PUSH1 0x20 DUP2 LT ISZERO PUSH2 0x45D JUMPI PUSH1 0x0 DUP1 REVERT JUMPDEST POP MLOAD PUSH2 0x240 DUP3 ADD DUP2 SWAP1 MSTORE PUSH2 0x473 SWAP1 PUSH2 0x1388 PUSH2 0x16EE JUMP JUMPDEST PUSH2 0x280 DUP3 ADD MSTORE PUSH2 0x260 DUP2 ADD MLOAD ISZERO DUP1 ISZERO SWAP1 PUSH2 0x493 JUMPI POP PUSH2 0x100 DUP2 ADD MLOAD DUP2 MLOAD LT ISZERO JUMPDEST ISZERO PUSH2 0x4D3 JUMPI PUSH2 0x4C6 DUP5 DUP5 DUP14 DUP14 DUP6 PUSH2 0x260 ADD MLOAD PUSH2 0x4C1 DUP8 PUSH2 0x100 ADD MLOAD DUP9 PUSH1 0x0 ADD MLOAD PUSH2 0x19E7 SWAP1 SWAP2 SWAP1 PUSH4 0xFFFFFFFF AND JUMP JUMPDEST PUSH2 0x176E JUMP JUMPDEST PUSH2 0x2E0 DUP4 ADD MSTORE PUSH2 0x2A0 DUP3 ADD MSTORE JUMPDEST PUSH1 0x0 DUP2 PUSH2 0x280 ADD MLOAD GT DUP1 ISZERO PUSH2 0x4FD JUMPI POP PUSH2 0x2A0 DUP2 ADD MLOAD PUSH2 0x100 DUP3 ADD MLOAD PUSH2 0x4F8 SWAP2 PUSH2 0x168B JUMP JUMPDEST DUP2 MLOAD LT ISZERO JUMPDEST ISZERO PUSH2 0x547 JUMPI PUSH2 0x53A DUP5 DUP5 DUP14 DUP14 DUP6 PUSH2 0x280 ADD MLOAD PUSH2 0x4C1 DUP8 PUSH2 0x2A0 ADD MLOAD PUSH2 0x534 DUP10 PUSH2 0x100 ADD MLOAD DUP11 PUSH1 0x0 ADD MLOAD PUSH2 0x19E7 SWAP1 SWAP2 SWAP1 PUSH4 0xFFFFFFFF AND JUMP JUMPDEST SWAP1 PUSH2 0x19E7 JUMP JUMPDEST PUSH2 0x300 DUP4 ADD MSTORE PUSH2 0x2C0 DUP3 ADD MSTORE JUMPDEST DUP1 PUSH1 0x80 ADD MLOAD DUP2 PUSH2 0x120 ADD MLOAD LT ISZERO PUSH2 0x564 JUMPI PUSH2 0x120 DUP2 ADD MLOAD PUSH1 0x80 DUP3 ADD MSTORE JUMPDEST DUP7 PUSH2 0x624 JUMPI PUSH1 0x0 DUP12 PUSH1 0x1 PUSH1 0x1 PUSH1 0xA0 SHL SUB AND PUSH4 0x70A08231 DUP4 PUSH2 0x180 ADD MLOAD PUSH1 0x40 MLOAD DUP3 PUSH4 0xFFFFFFFF AND PUSH1 0xE0 SHL DUP2 MSTORE PUSH1 0x4 ADD DUP1 DUP3 PUSH1 0x1 PUSH1 0x1 PUSH1 0xA0 SHL SUB AND DUP2 MSTORE PUSH1 0x20 ADD SWAP2 POP POP PUSH1 0x20 PUSH1 0x40 MLOAD DUP1 DUP4 SUB DUP2 DUP7 DUP1 EXTCODESIZE ISZERO DUP1 ISZERO PUSH2 0x5BD JUMPI PUSH1 0x0 DUP1 REVERT JUMPDEST POP GAS STATICCALL ISZERO DUP1 ISZERO PUSH2 0x5D1 JUMPI RETURNDATASIZE PUSH1 0x0 DUP1 RETURNDATACOPY RETURNDATASIZE PUSH1 0x0 REVERT JUMPDEST POP POP POP POP PUSH1 0x40 MLOAD RETURNDATASIZE PUSH1 0x20 DUP2 LT ISZERO PUSH2 0x5E7 JUMPI PUSH1 0x0 DUP1 REVERT JUMPDEST POP MLOAD PUSH2 0x100 DUP4 ADD MLOAD SWAP1 SWAP2 POP DUP2 LT ISZERO PUSH2 0x622 JUMPI PUSH1 0x5 PUSH1 0x40 MLOAD DUP1 PUSH1 0x60 ADD PUSH1 0x40 MSTORE DUP1 PUSH1 0x21 DUP2 MSTORE PUSH1 0x20 ADD PUSH2 0x304C PUSH1 0x21 SWAP2 CODECOPY SWAP7 POP SWAP7 POP POP POP POP POP POP PUSH2 0xF3D JUMP JUMPDEST POP JUMPDEST DUP1 PUSH1 0x80 ADD MLOAD DUP2 PUSH1 0x40 ADD MLOAD LT PUSH2 0x6C7 JUMPI PUSH1 0x6 DUP4 ADD SLOAD PUSH1 0x80 DUP3 ADD MLOAD PUSH1 0x1 DUP6 ADD SLOAD PUSH1 0x40 DUP1 MLOAD PUSH4 0x7A94C565 PUSH1 0xE1 SHL DUP2 MSTORE PUSH1 0x1 PUSH1 0x1 PUSH1 0xA0 SHL SUB DUP15 DUP2 AND PUSH1 0x4 DUP4 ADD MSTORE PUSH1 0x24 DUP3 ADD SWAP5 SWAP1 SWAP5 MSTORE PUSH1 0x1 PUSH1 0x80 SHL SWAP1 SWAP3 DIV PUSH1 0x1 PUSH1 0x1 PUSH1 0x80 SHL SUB AND PUSH1 0x44 DUP4 ADD MSTORE MLOAD SWAP2 SWAP1 SWAP3 AND SWAP2 PUSH4 0xF5298ACA SWAP2 PUSH1 0x64 DUP1 DUP4 ADD SWAP3 PUSH1 0x0 SWAP3 SWAP2 SWAP1 DUP3 SWAP1 SUB ADD DUP2 DUP4 DUP8 DUP1 EXTCODESIZE ISZERO DUP1 ISZERO PUSH2 0x6AA JUMPI PUSH1 0x0 DUP1 REVERT JUMPDEST POP GAS CALL ISZERO DUP1 ISZERO PUSH2 0x6BE JUMPI RETURNDATASIZE PUSH1 0x0 DUP1 RETURNDATACOPY RETURNDATASIZE PUSH1 0x0 REVERT JUMPDEST POP POP POP POP PUSH2 0x7EB JUMP JUMPDEST PUSH1 0x40 DUP2 ADD MLOAD ISZERO PUSH2 0x760 JUMPI PUSH1 0x6 DUP4 ADD SLOAD PUSH1 0x40 DUP3 DUP2 ADD MLOAD PUSH1 0x1 DUP7 ADD SLOAD DUP3 MLOAD PUSH4 0x7A94C565 PUSH1 0xE1 SHL DUP2 MSTORE PUSH1 0x1 PUSH1 0x1 PUSH1 0xA0 SHL SUB DUP15 DUP2 AND PUSH1 0x4 DUP4 ADD MSTORE PUSH1 0x24 DUP3 ADD SWAP4 SWAP1 SWAP4 MSTORE PUSH1 0x1 PUSH1 0x80 SHL SWAP1 SWAP2 DIV PUSH1 0x1 PUSH1 0x1 PUSH1 0x80 SHL SUB AND PUSH1 0x44 DUP3 ADD MSTORE SWAP2 MLOAD SWAP3 AND SWAP2 PUSH4 0xF5298ACA SWAP2 PUSH1 0x64 DUP1 DUP3 ADD SWAP3 PUSH1 0x0 SWAP3 SWAP1 SWAP2 SWAP1 DUP3 SWAP1 SUB ADD DUP2 DUP4 DUP8 DUP1 EXTCODESIZE ISZERO DUP1 ISZERO PUSH2 0x747 JUMPI PUSH1 0x0 DUP1 REVERT JUMPDEST POP GAS CALL ISZERO DUP1 ISZERO PUSH2 0x75B JUMPI RETURNDATASIZE PUSH1 0x0 DUP1 RETURNDATACOPY RETURNDATASIZE PUSH1 0x0 REVERT JUMPDEST POP POP POP POP JUMPDEST PUSH1 0x5 DUP4 ADD SLOAD PUSH1 0x40 DUP3 ADD MLOAD PUSH1 0x80 DUP4 ADD MLOAD PUSH1 0x1 PUSH1 0x1 PUSH1 0xA0 SHL SUB SWAP1 SWAP3 AND SWAP2 PUSH4 0x9DC29FAC SWAP2 DUP13 SWAP2 PUSH2 0x78C SWAP2 PUSH2 0x19E7 JUMP JUMPDEST PUSH1 0x40 MLOAD DUP4 PUSH4 0xFFFFFFFF AND PUSH1 0xE0 SHL DUP2 MSTORE PUSH1 0x4 ADD DUP1 DUP4 PUSH1 0x1 PUSH1 0x1 PUSH1 0xA0 SHL SUB AND DUP2 MSTORE PUSH1 0x20 ADD DUP3 DUP2 MSTORE PUSH1 0x20 ADD SWAP3 POP POP POP PUSH1 0x0 PUSH1 0x40 MLOAD DUP1 DUP4 SUB DUP2 PUSH1 0x0 DUP8 DUP1 EXTCODESIZE ISZERO DUP1 ISZERO PUSH2 0x7D2 JUMPI PUSH1 0x0 DUP1 REVERT JUMPDEST POP GAS CALL ISZERO DUP1 ISZERO PUSH2 0x7E6 JUMPI RETURNDATASIZE PUSH1 0x0 DUP1 RETURNDATACOPY RETURNDATASIZE PUSH1 0x0 REVERT JUMPDEST POP POP POP POP JUMPDEST DUP7 ISZERO PUSH2 0x968 JUMPI DUP1 PUSH2 0x180 ADD MLOAD PUSH1 0x1 PUSH1 0x1 PUSH1 0xA0 SHL SUB AND PUSH4 0x70A08231 CALLER PUSH1 0x40 MLOAD DUP3 PUSH4 0xFFFFFFFF AND PUSH1 0xE0 SHL DUP2 MSTORE PUSH1 0x4 ADD DUP1 DUP3 PUSH1 0x1 PUSH1 0x1 PUSH1 0xA0 SHL SUB AND DUP2 MSTORE PUSH1 0x20 ADD SWAP2 POP POP PUSH1 0x20 PUSH1 0x40 MLOAD DUP1 DUP4 SUB DUP2 DUP7 DUP1 EXTCODESIZE ISZERO DUP1 ISZERO PUSH2 0x843 JUMPI PUSH1 0x0 DUP1 REVERT JUMPDEST POP GAS STATICCALL ISZERO DUP1 ISZERO PUSH2 0x857 JUMPI RETURNDATASIZE PUSH1 0x0 DUP1 RETURNDATACOPY RETURNDATASIZE PUSH1 0x0 REVERT JUMPDEST POP POP POP POP PUSH1 0x40 MLOAD RETURNDATASIZE PUSH1 0x20 DUP2 LT ISZERO PUSH2 0x86D JUMPI PUSH1 0x0 DUP1 REVERT JUMPDEST POP MLOAD PUSH2 0x160 DUP3 ADD MSTORE PUSH2 0x180 DUP2 ADD MLOAD PUSH2 0x100 DUP3 ADD MLOAD PUSH1 0x40 DUP1 MLOAD PUSH4 0xF866C319 PUSH1 0xE0 SHL DUP2 MSTORE PUSH1 0x1 PUSH1 0x1 PUSH1 0xA0 SHL SUB DUP14 DUP2 AND PUSH1 0x4 DUP4 ADD MSTORE CALLER PUSH1 0x24 DUP4 ADD MSTORE PUSH1 0x44 DUP3 ADD SWAP4 SWAP1 SWAP4 MSTORE SWAP1 MLOAD SWAP2 SWAP1 SWAP3 AND SWAP2 PUSH4 0xF866C319 SWAP2 PUSH1 0x64 DUP1 DUP4 ADD SWAP3 PUSH1 0x0 SWAP3 SWAP2 SWAP1 DUP3 SWAP1 SUB ADD DUP2 DUP4 DUP8 DUP1 EXTCODESIZE ISZERO DUP1 ISZERO PUSH2 0x8DA JUMPI PUSH1 0x0 DUP1 REVERT JUMPDEST POP GAS CALL ISZERO DUP1 ISZERO PUSH2 0x8EE JUMPI RETURNDATASIZE PUSH1 0x0 DUP1 RETURNDATACOPY RETURNDATASIZE PUSH1 0x0 REVERT JUMPDEST POP POP POP POP DUP1 PUSH2 0x160 ADD MLOAD PUSH1 0x0 EQ ISZERO PUSH2 0x963 JUMPI CALLER PUSH1 0x0 SWAP1 DUP2 MSTORE PUSH1 0x3A PUSH1 0x20 MSTORE PUSH1 0x40 SWAP1 KECCAK256 PUSH1 0x7 DUP6 ADD SLOAD PUSH2 0x92B SWAP1 DUP3 SWAP1 PUSH1 0x1 PUSH1 0xA0 SHL SWAP1 DIV PUSH1 0xFF AND PUSH1 0x1 PUSH2 0x1A29 JUMP JUMPDEST PUSH1 0x40 MLOAD CALLER SWAP1 PUSH1 0x1 PUSH1 0x1 PUSH1 0xA0 SHL SUB DUP15 AND SWAP1 PUSH32 0xFA277DA50DDC7CCDFA45B85B1F26C78FE2D562FFE054ABC05A44D7E08CD0DDA SWAP1 PUSH1 0x0 SWAP1 LOG3 POP JUMPDEST PUSH2 0xA2E JUMP JUMPDEST PUSH1 0x37 SLOAD PUSH2 0x97F SWAP1 DUP6 SWAP1 PUSH1 0x1 PUSH1 0x1 PUSH1 0xA0 SHL SUB AND PUSH2 0x1AB4 JUMP JUMPDEST PUSH2 0x180 DUP2 ADD MLOAD PUSH2 0x100 DUP3 ADD MLOAD PUSH2 0x99C SWAP2 DUP7 SWAP2 DUP15 SWAP2 SWAP1 PUSH1 0x0 SWAP1 PUSH2 0x1B80 JUMP JUMPDEST PUSH2 0x180 DUP2 ADD MLOAD PUSH2 0x100 DUP3 ADD MLOAD PUSH1 0x1 DUP7 ADD SLOAD PUSH1 0x40 DUP1 MLOAD PUSH4 0x6B810685 PUSH1 0xE1 SHL DUP2 MSTORE PUSH1 0x1 PUSH1 0x1 PUSH1 0xA0 SHL SUB DUP15 DUP2 AND PUSH1 0x4 DUP4 ADD MSTORE CALLER PUSH1 0x24 DUP4 ADD MSTORE PUSH1 0x44 DUP3 ADD SWAP5 SWAP1 SWAP5 MSTORE PUSH1 0x1 PUSH1 0x1 PUSH1 0x80 SHL SUB SWAP1 SWAP3 AND PUSH1 0x64 DUP4 ADD MSTORE MLOAD SWAP2 SWAP1 SWAP3 AND SWAP2 PUSH4 0xD7020D0A SWAP2 PUSH1 0x84 DUP1 DUP4 ADD SWAP3 PUSH1 0x0 SWAP3 SWAP2 SWAP1 DUP3 SWAP1 SUB ADD DUP2 DUP4 DUP8 DUP1 EXTCODESIZE ISZERO DUP1 ISZERO PUSH2 0xA15 JUMPI PUSH1 0x0 DUP1 REVERT JUMPDEST POP GAS CALL ISZERO DUP1 ISZERO PUSH2 0xA29 JUMPI RETURNDATASIZE PUSH1 0x0 DUP1 RETURNDATACOPY RETURNDATASIZE PUSH1 0x0 REVERT JUMPDEST POP POP POP POP JUMPDEST DUP1 MLOAD PUSH2 0x100 DUP3 ADD MLOAD EQ ISZERO PUSH2 0xA99 JUMPI PUSH1 0x7 DUP5 ADD SLOAD PUSH2 0xA58 SWAP1 DUP4 SWAP1 PUSH1 0x1 PUSH1 0xA0 SHL SWAP1 DIV PUSH1 0xFF AND PUSH1 0x0 PUSH2 0x1A29 JUMP JUMPDEST DUP9 PUSH1 0x1 PUSH1 0x1 PUSH1 0xA0 SHL SUB AND DUP12 PUSH1 0x1 PUSH1 0x1 PUSH1 0xA0 SHL SUB AND PUSH32 0x5F0DBED5D3DAC715152B6B58C69A80D2ED41075ED413E35B7379025A642EF0D6 PUSH1 0x40 MLOAD PUSH1 0x40 MLOAD DUP1 SWAP2 SUB SWAP1 LOG3 JUMPDEST PUSH1 0x4 DUP4 ADD SLOAD PUSH1 0x80 DUP3 ADD MLOAD PUSH2 0xABF SWAP2 PUSH1 0x1 PUSH1 0x1 PUSH1 0xA0 SHL SUB DUP14 DUP2 AND SWAP3 CALLER SWAP3 SWAP2 SWAP1 SWAP2 AND SWAP1 PUSH2 0x205F JUMP JUMPDEST PUSH2 0x2E0 DUP2 ADD MLOAD ISZERO PUSH2 0xCA7 JUMPI PUSH1 0x37 SLOAD PUSH2 0xAE1 SWAP1 DUP6 SWAP1 PUSH1 0x1 PUSH1 0x1 PUSH1 0xA0 SHL SUB AND PUSH2 0x1AB4 JUMP JUMPDEST PUSH2 0x180 DUP2 ADD MLOAD PUSH2 0x2A0 DUP3 ADD MLOAD PUSH2 0xAFE SWAP2 DUP7 SWAP2 DUP15 SWAP2 SWAP1 PUSH1 0x0 SWAP1 PUSH2 0x1B80 JUMP JUMPDEST PUSH2 0x180 DUP2 ADD MLOAD PUSH1 0x38 SLOAD PUSH2 0x2A0 DUP4 ADD MLOAD PUSH1 0x1 DUP8 ADD SLOAD PUSH1 0x40 DUP1 MLOAD PUSH4 0x6B810685 PUSH1 0xE1 SHL DUP2 MSTORE PUSH1 0x1 PUSH1 0x1 PUSH1 0xA0 SHL SUB DUP16 DUP2 AND PUSH1 0x4 DUP4 ADD MSTORE SWAP5 DUP6 AND PUSH1 0x24 DUP3 ADD MSTORE PUSH1 0x44 DUP2 ADD SWAP4 SWAP1 SWAP4 MSTORE PUSH1 0x1 PUSH1 0x1 PUSH1 0x80 SHL SUB SWAP1 SWAP2 AND PUSH1 0x64 DUP4 ADD MSTORE MLOAD SWAP2 SWAP1 SWAP3 AND SWAP2 PUSH4 0xD7020D0A SWAP2 PUSH1 0x84 DUP1 DUP4 ADD SWAP3 PUSH1 0x0 SWAP3 SWAP2 SWAP1 DUP3 SWAP1 SUB ADD DUP2 DUP4 DUP8 DUP1 EXTCODESIZE ISZERO DUP1 ISZERO PUSH2 0xB7C JUMPI PUSH1 0x0 DUP1 REVERT JUMPDEST POP GAS CALL ISZERO DUP1 ISZERO PUSH2 0xB90 JUMPI RETURNDATASIZE PUSH1 0x0 DUP1 RETURNDATACOPY RETURNDATASIZE PUSH1 0x0 REVERT JUMPDEST POP POP POP PUSH1 0x5 DUP5 ADD SLOAD PUSH2 0x2E0 DUP4 ADD MLOAD PUSH1 0x40 DUP1 MLOAD PUSH4 0x1470B90B PUSH1 0xE0 SHL DUP2 MSTORE PUSH1 0x1 PUSH1 0x1 PUSH1 0xA0 SHL SUB DUP15 DUP2 AND PUSH1 0x4 DUP4 ADD MSTORE PUSH1 0x0 PUSH1 0x24 DUP4 ADD DUP2 SWAP1 MSTORE PUSH1 0x44 DUP4 ADD SWAP5 SWAP1 SWAP5 MSTORE SWAP2 MLOAD SWAP2 SWAP1 SWAP4 AND SWAP4 POP PUSH4 0x1470B90B SWAP3 PUSH1 0x64 DUP1 DUP3 ADD SWAP4 SWAP3 SWAP2 DUP3 SWAP1 SUB ADD DUP2 DUP4 DUP8 DUP1 EXTCODESIZE ISZERO DUP1 ISZERO PUSH2 0xBF8 JUMPI PUSH1 0x0 DUP1 REVERT JUMPDEST POP GAS CALL ISZERO DUP1 ISZERO PUSH2 0xC0C JUMPI RETURNDATASIZE PUSH1 0x0 DUP1 RETURNDATACOPY RETURNDATASIZE PUSH1 0x0 REVERT JUMPDEST POP POP POP POP PUSH32 0xB30A040C03F075F83EE547A903F7CA8575B150416AFCBE7529173F811B43D050 DUP10 DUP13 DUP13 DUP5 PUSH2 0x220 ADD MLOAD DUP6 PUSH2 0x260 ADD MLOAD DUP7 PUSH2 0x2E0 ADD MLOAD DUP8 PUSH2 0x2A0 ADD MLOAD PUSH1 0x40 MLOAD DUP1 DUP9 PUSH1 0x1 PUSH1 0x1 PUSH1 0xA0 SHL SUB AND DUP2 MSTORE PUSH1 0x20 ADD DUP8 PUSH1 0x1 PUSH1 0x1 PUSH1 0xA0 SHL SUB AND DUP2 MSTORE PUSH1 0x20 ADD DUP7 PUSH1 0x1 PUSH1 0x1 PUSH1 0xA0 SHL SUB AND DUP2 MSTORE PUSH1 0x20 ADD DUP6 DUP2 MSTORE PUSH1 0x20 ADD DUP5 DUP2 MSTORE PUSH1 0x20 ADD DUP4 DUP2 MSTORE PUSH1 0x20 ADD DUP3 DUP2 MSTORE PUSH1 0x20 ADD SWAP8 POP POP POP POP POP POP POP POP PUSH1 0x40 MLOAD DUP1 SWAP2 SUB SWAP1 LOG1 JUMPDEST PUSH2 0x300 DUP2 ADD MLOAD ISZERO PUSH2 0xE8F JUMPI PUSH1 0x37 SLOAD PUSH2 0xCC9 SWAP1 DUP6 SWAP1 PUSH1 0x1 PUSH1 0x1 PUSH1 0xA0 SHL SUB AND PUSH2 0x1AB4 JUMP JUMPDEST PUSH2 0x180 DUP2 ADD MLOAD PUSH2 0x2C0 DUP3 ADD MLOAD PUSH2 0xCE6 SWAP2 DUP7 SWAP2 DUP15 SWAP2 SWAP1 PUSH1 0x0 SWAP1 PUSH2 0x1B80 JUMP JUMPDEST PUSH2 0x180 DUP2 ADD MLOAD PUSH1 0x37 SLOAD PUSH2 0x2C0 DUP4 ADD MLOAD PUSH1 0x1 DUP8 ADD SLOAD PUSH1 0x40 DUP1 MLOAD PUSH4 0x6B810685 PUSH1 0xE1 SHL DUP2 MSTORE PUSH1 0x1 PUSH1 0x1 PUSH1 0xA0 SHL SUB DUP16 DUP2 AND PUSH1 0x4 DUP4 ADD MSTORE SWAP5 DUP6 AND PUSH1 0x24 DUP3 ADD MSTORE PUSH1 0x44 DUP2 ADD SWAP4 SWAP1 SWAP4 MSTORE PUSH1 0x1 PUSH1 0x1 PUSH1 0x80 SHL SUB SWAP1 SWAP2 AND PUSH1 0x64 DUP4 ADD MSTORE MLOAD SWAP2 SWAP1 SWAP3 AND SWAP2 PUSH4 0xD7020D0A SWAP2 PUSH1 0x84 DUP1 DUP4 ADD SWAP3 PUSH1 0x0 SWAP3 SWAP2 SWAP1 DUP3 SWAP1 SUB ADD DUP2 DUP4 DUP8 DUP1 EXTCODESIZE ISZERO DUP1 ISZERO PUSH2 0xD64 JUMPI PUSH1 0x0 DUP1 REVERT JUMPDEST POP GAS CALL ISZERO DUP1 ISZERO PUSH2 0xD78 JUMPI RETURNDATASIZE PUSH1 0x0 DUP1 RETURNDATACOPY RETURNDATASIZE PUSH1 0x0 REVERT JUMPDEST POP POP POP PUSH1 0x5 DUP5 ADD SLOAD PUSH2 0x300 DUP4 ADD MLOAD PUSH1 0x40 DUP1 MLOAD PUSH4 0x75282D13 PUSH1 0xE1 SHL DUP2 MSTORE PUSH1 0x1 PUSH1 0x1 PUSH1 0xA0 SHL SUB DUP15 DUP2 AND PUSH1 0x4 DUP4 ADD MSTORE PUSH1 0x0 PUSH1 0x24 DUP4 ADD DUP2 SWAP1 MSTORE PUSH1 0x44 DUP4 ADD SWAP5 SWAP1 SWAP5 MSTORE SWAP2 MLOAD SWAP2 SWAP1 SWAP4 AND SWAP4 POP PUSH4 0xEA505A26 SWAP3 PUSH1 0x64 DUP1 DUP3 ADD SWAP4 SWAP3 SWAP2 DUP3 SWAP1 SUB ADD DUP2 DUP4 DUP8 DUP1 EXTCODESIZE ISZERO DUP1 ISZERO PUSH2 0xDE0 JUMPI PUSH1 0x0 DUP1 REVERT JUMPDEST POP GAS CALL ISZERO DUP1 ISZERO PUSH2 0xDF4 JUMPI RETURNDATASIZE PUSH1 0x0 DUP1 RETURNDATACOPY RETURNDATASIZE PUSH1 0x0 REVERT JUMPDEST POP POP POP POP PUSH32 0xAB3FA2D0C6DC0DC302F1D3D043A145CD2B839FA27057F576C59A5F6D0A48AC66 DUP10 DUP13 DUP13 DUP5 PUSH2 0x240 ADD MLOAD DUP6 PUSH2 0x280 ADD MLOAD DUP7 PUSH2 0x300 ADD MLOAD DUP8 PUSH2 0x2C0 ADD MLOAD PUSH1 0x40 MLOAD DUP1 DUP9 PUSH1 0x1 PUSH1 0x1 PUSH1 0xA0 SHL SUB AND DUP2 MSTORE PUSH1 0x20 ADD DUP8 PUSH1 0x1 PUSH1 0x1 PUSH1 0xA0 SHL SUB AND DUP2 MSTORE PUSH1 0x20 ADD DUP7 PUSH1 0x1 PUSH1 0x1 PUSH1 0xA0 SHL SUB AND DUP2 MSTORE PUSH1 0x20 ADD DUP6 DUP2 MSTORE PUSH1 0x20 ADD DUP5 DUP2 MSTORE PUSH1 0x20 ADD DUP4 DUP2 MSTORE PUSH1 0x20 ADD DUP3 DUP2 MSTORE PUSH1 0x20 ADD SWAP8 POP POP POP POP POP POP POP POP PUSH1 0x40 MLOAD DUP1 SWAP2 SUB SWAP1 LOG1 JUMPDEST DUP9 PUSH1 0x1 PUSH1 0x1 PUSH1 0xA0 SHL SUB AND DUP11 PUSH1 0x1 PUSH1 0x1 PUSH1 0xA0 SHL SUB AND DUP13 PUSH1 0x1 PUSH1 0x1 PUSH1 0xA0 SHL SUB AND PUSH32 0xE413A321E8681D831F4DBCCBCA790D2952B56F977908E45BE37335533E005286 DUP5 PUSH1 0x80 ADD MLOAD DUP6 PUSH2 0x100 ADD MLOAD CALLER DUP14 PUSH1 0x40 MLOAD DUP1 DUP6 DUP2 MSTORE PUSH1 0x20 ADD DUP5 DUP2 MSTORE PUSH1 0x20 ADD DUP4 PUSH1 0x1 PUSH1 0x1 PUSH1 0xA0 SHL SUB AND DUP2 MSTORE PUSH1 0x20 ADD DUP3 ISZERO ISZERO DUP2 MSTORE PUSH1 0x20 ADD SWAP5 POP POP POP POP POP PUSH1 0x40 MLOAD DUP1 SWAP2 SUB SWAP1 LOG4 PUSH1 0x0 PUSH1 0x40 MLOAD DUP1 PUSH1 0x40 ADD PUSH1 0x40 MSTORE DUP1 PUSH1 0x9 DUP2 MSTORE PUSH1 0x20 ADD PUSH9 0x4E4F204552524F5253 PUSH1 0xB8 SHL DUP2 MSTORE POP SWAP6 POP SWAP6 POP POP POP POP POP JUMPDEST SWAP6 POP SWAP6 SWAP4 POP POP POP POP JUMP JUMPDEST PUSH1 0x1 DUP2 JUMP JUMPDEST PUSH1 0x0 DUP1 PUSH1 0x0 DUP1 PUSH1 0x0 PUSH2 0xF5C PUSH2 0x2E31 JUMP JUMPDEST PUSH2 0xF65 DUP11 PUSH2 0x20BF JUMP JUMPDEST ISZERO PUSH2 0xF83 JUMPI PUSH1 0x0 DUP1 PUSH1 0x0 DUP1 PUSH1 0x0 NOT SWAP6 POP SWAP6 POP SWAP6 POP SWAP6 POP SWAP6 POP POP PUSH2 0x1404 JUMP JUMPDEST PUSH1 0x0 PUSH1 0xE0 DUP3 ADD MSTORE JUMPDEST DUP8 DUP2 PUSH1 0xE0 ADD MLOAD LT ISZERO PUSH2 0x1363 JUMPI PUSH1 0xE0 DUP2 ADD MLOAD PUSH2 0xFA7 SWAP1 DUP12 SWAP1 PUSH2 0x20C4 JUMP JUMPDEST PUSH2 0xFB0 JUMPI PUSH2 0x1353 JUMP JUMPDEST PUSH1 0xE0 DUP2 ADD MLOAD PUSH1 0x0 SWAP1 DUP2 MSTORE PUSH1 0x20 DUP11 DUP2 MSTORE PUSH1 0x40 DUP1 DUP4 KECCAK256 SLOAD PUSH1 0x1 PUSH1 0x1 PUSH1 0xA0 SHL SUB AND PUSH2 0x1E0 DUP6 ADD DUP2 SWAP1 MSTORE DUP4 MSTORE SWAP1 DUP14 SWAP1 MSTORE SWAP1 KECCAK256 PUSH2 0xFE7 DUP2 PUSH2 0x2127 JUMP JUMPDEST POP PUSH1 0x80 DUP7 ADD DUP2 SWAP1 MSTORE PUSH1 0xC0 DUP7 ADD SWAP3 SWAP1 SWAP3 MSTORE POP PUSH1 0xA0 DUP5 ADD SWAP2 SWAP1 SWAP2 MSTORE PUSH1 0xA EXP PUSH1 0x20 DUP1 DUP5 ADD SWAP2 SWAP1 SWAP2 MSTORE PUSH2 0x1E0 DUP4 ADD MLOAD PUSH1 0x40 DUP1 MLOAD PUSH4 0xB3596F07 PUSH1 0xE0 SHL DUP2 MSTORE PUSH1 0x1 PUSH1 0x1 PUSH1 0xA0 SHL SUB SWAP3 DUP4 AND PUSH1 0x4 DUP3 ADD MSTORE SWAP1 MLOAD SWAP2 DUP12 AND SWAP3 PUSH4 0xB3596F07 SWAP3 PUSH1 0x24 DUP1 DUP5 ADD SWAP4 DUP3 SWAP1 SUB ADD DUP2 DUP7 DUP1 EXTCODESIZE ISZERO DUP1 ISZERO PUSH2 0x1056 JUMPI PUSH1 0x0 DUP1 REVERT JUMPDEST POP GAS STATICCALL ISZERO DUP1 ISZERO PUSH2 0x106A JUMPI RETURNDATASIZE PUSH1 0x0 DUP1 RETURNDATACOPY RETURNDATASIZE PUSH1 0x0 REVERT JUMPDEST POP POP POP POP PUSH1 0x40 MLOAD RETURNDATASIZE PUSH1 0x20 DUP2 LT ISZERO PUSH2 0x1080 JUMPI PUSH1 0x0 DUP1 REVERT JUMPDEST POP MLOAD DUP3 MSTORE PUSH1 0xC0 DUP3 ADD MLOAD ISZERO DUP1 ISZERO SWAP1 PUSH2 0x10A2 JUMPI POP PUSH1 0xE0 DUP3 ADD MLOAD PUSH2 0x10A2 SWAP1 DUP13 SWAP1 PUSH2 0x2152 JUMP JUMPDEST ISZERO PUSH2 0x11C3 JUMPI DUP1 PUSH1 0x4 ADD PUSH1 0x0 SWAP1 SLOAD SWAP1 PUSH2 0x100 EXP SWAP1 DIV PUSH1 0x1 PUSH1 0x1 PUSH1 0xA0 SHL SUB AND PUSH1 0x1 PUSH1 0x1 PUSH1 0xA0 SHL SUB AND PUSH4 0x70A08231 DUP15 PUSH1 0x40 MLOAD DUP3 PUSH4 0xFFFFFFFF AND PUSH1 0xE0 SHL DUP2 MSTORE PUSH1 0x4 ADD DUP1 DUP3 PUSH1 0x1 PUSH1 0x1 PUSH1 0xA0 SHL SUB AND DUP2 MSTORE PUSH1 0x20 ADD SWAP2 POP POP PUSH1 0x20 PUSH1 0x40 MLOAD DUP1 DUP4 SUB DUP2 DUP7 DUP1 EXTCODESIZE ISZERO DUP1 ISZERO PUSH2 0x110B JUMPI PUSH1 0x0 DUP1 REVERT JUMPDEST POP GAS STATICCALL ISZERO DUP1 ISZERO PUSH2 0x111F JUMPI RETURNDATASIZE PUSH1 0x0 DUP1 RETURNDATACOPY RETURNDATASIZE PUSH1 0x0 REVERT JUMPDEST POP POP POP POP PUSH1 0x40 MLOAD RETURNDATASIZE PUSH1 0x20 DUP2 LT ISZERO PUSH2 0x1135 JUMPI PUSH1 0x0 DUP1 REVERT JUMPDEST POP MLOAD PUSH1 0x40 DUP4 ADD DUP2 SWAP1 MSTORE PUSH1 0x20 DUP4 ADD MLOAD DUP4 MLOAD PUSH1 0x0 SWAP3 PUSH2 0x115C SWAP3 SWAP2 PUSH2 0x1156 SWAP2 PUSH2 0x21BC JUMP JUMPDEST SWAP1 PUSH2 0x2215 JUMP JUMPDEST PUSH2 0x120 DUP5 ADD MLOAD SWAP1 SWAP2 POP PUSH2 0x116F SWAP1 DUP3 PUSH2 0x168B JUMP JUMPDEST PUSH2 0x120 DUP5 ADD MSTORE PUSH1 0xA0 DUP4 ADD MLOAD PUSH2 0x1195 SWAP1 PUSH2 0x1189 SWAP1 DUP4 SWAP1 PUSH2 0x21BC JUMP JUMPDEST PUSH2 0x160 DUP6 ADD MLOAD SWAP1 PUSH2 0x168B JUMP JUMPDEST PUSH2 0x160 DUP5 ADD MSTORE PUSH1 0xC0 DUP4 ADD MLOAD PUSH2 0x11BB SWAP1 PUSH2 0x11AF SWAP1 DUP4 SWAP1 PUSH2 0x21BC JUMP JUMPDEST PUSH2 0x180 DUP6 ADD MLOAD SWAP1 PUSH2 0x168B JUMP JUMPDEST PUSH2 0x180 DUP5 ADD MSTORE POP JUMPDEST PUSH1 0xE0 DUP3 ADD MLOAD PUSH2 0x11D3 SWAP1 DUP13 SWAP1 PUSH2 0x2257 JUMP JUMPDEST ISZERO PUSH2 0x1351 JUMPI DUP1 PUSH1 0x5 ADD PUSH1 0x0 SWAP1 SLOAD SWAP1 PUSH2 0x100 EXP SWAP1 DIV PUSH1 0x1 PUSH1 0x1 PUSH1 0xA0 SHL SUB AND PUSH1 0x1 PUSH1 0x1 PUSH1 0xA0 SHL SUB AND PUSH4 0x70A08231 DUP15 PUSH1 0x40 MLOAD DUP3 PUSH4 0xFFFFFFFF AND PUSH1 0xE0 SHL DUP2 MSTORE PUSH1 0x4 ADD DUP1 DUP3 PUSH1 0x1 PUSH1 0x1 PUSH1 0xA0 SHL SUB AND DUP2 MSTORE PUSH1 0x20 ADD SWAP2 POP POP PUSH1 0x20 PUSH1 0x40 MLOAD DUP1 DUP4 SUB DUP2 DUP7 DUP1 EXTCODESIZE ISZERO DUP1 ISZERO PUSH2 0x123C JUMPI PUSH1 0x0 DUP1 REVERT JUMPDEST POP GAS STATICCALL ISZERO DUP1 ISZERO PUSH2 0x1250 JUMPI RETURNDATASIZE PUSH1 0x0 DUP1 RETURNDATACOPY RETURNDATASIZE PUSH1 0x0 REVERT JUMPDEST POP POP POP POP PUSH1 0x40 MLOAD RETURNDATASIZE PUSH1 0x20 DUP2 LT ISZERO PUSH2 0x1266 JUMPI PUSH1 0x0 DUP1 REVERT JUMPDEST DUP2 ADD SWAP1 DUP1 DUP1 MLOAD SWAP1 PUSH1 0x20 ADD SWAP1 SWAP3 SWAP2 SWAP1 POP POP POP DUP3 PUSH1 0x60 ADD DUP2 DUP2 MSTORE POP POP PUSH2 0x131E DUP2 PUSH1 0x6 ADD PUSH1 0x0 SWAP1 SLOAD SWAP1 PUSH2 0x100 EXP SWAP1 DIV PUSH1 0x1 PUSH1 0x1 PUSH1 0xA0 SHL SUB AND PUSH1 0x1 PUSH1 0x1 PUSH1 0xA0 SHL SUB AND PUSH4 0x70A08231 DUP16 PUSH1 0x40 MLOAD DUP3 PUSH4 0xFFFFFFFF AND PUSH1 0xE0 SHL DUP2 MSTORE PUSH1 0x4 ADD DUP1 DUP3 PUSH1 0x1 PUSH1 0x1 PUSH1 0xA0 SHL SUB AND DUP2 MSTORE PUSH1 0x20 ADD SWAP2 POP POP PUSH1 0x20 PUSH1 0x40 MLOAD DUP1 DUP4 SUB DUP2 DUP7 DUP1 EXTCODESIZE ISZERO DUP1 ISZERO PUSH2 0x12E7 JUMPI PUSH1 0x0 DUP1 REVERT JUMPDEST POP GAS STATICCALL ISZERO DUP1 ISZERO PUSH2 0x12FB JUMPI RETURNDATASIZE PUSH1 0x0 DUP1 RETURNDATACOPY RETURNDATASIZE PUSH1 0x0 REVERT JUMPDEST POP POP POP POP PUSH1 0x40 MLOAD RETURNDATASIZE PUSH1 0x20 DUP2 LT ISZERO PUSH2 0x1311 JUMPI PUSH1 0x0 DUP1 REVERT JUMPDEST POP MLOAD PUSH1 0x60 DUP5 ADD MLOAD SWAP1 PUSH2 0x168B JUMP JUMPDEST PUSH1 0x60 DUP4 ADD DUP2 SWAP1 MSTORE PUSH1 0x20 DUP4 ADD MLOAD DUP4 MLOAD PUSH2 0x134A SWAP3 PUSH2 0x133E SWAP3 SWAP2 PUSH2 0x1156 SWAP2 PUSH2 0x21BC JUMP JUMPDEST PUSH2 0x140 DUP5 ADD MLOAD SWAP1 PUSH2 0x168B JUMP JUMPDEST PUSH2 0x140 DUP4 ADD MSTORE JUMPDEST POP JUMPDEST PUSH1 0xE0 DUP2 ADD DUP1 MLOAD PUSH1 0x1 ADD SWAP1 MSTORE PUSH2 0xF8B JUMP JUMPDEST PUSH1 0x0 DUP2 PUSH2 0x120 ADD MLOAD GT PUSH2 0x1377 JUMPI PUSH1 0x0 PUSH2 0x138C JUMP JUMPDEST PUSH2 0x120 DUP2 ADD MLOAD PUSH2 0x160 DUP3 ADD MLOAD PUSH2 0x138C SWAP2 PUSH2 0x2215 JUMP JUMPDEST PUSH2 0x160 DUP3 ADD MSTORE PUSH2 0x120 DUP2 ADD MLOAD PUSH2 0x13A3 JUMPI PUSH1 0x0 PUSH2 0x13B8 JUMP JUMPDEST PUSH2 0x120 DUP2 ADD MLOAD PUSH2 0x180 DUP3 ADD MLOAD PUSH2 0x13B8 SWAP2 PUSH2 0x2215 JUMP JUMPDEST PUSH2 0x180 DUP3 ADD DUP2 SWAP1 MSTORE PUSH2 0x120 DUP3 ADD MLOAD PUSH2 0x140 DUP4 ADD MLOAD PUSH2 0x13D5 SWAP3 PUSH2 0x22BA JUMP JUMPDEST PUSH2 0x100 DUP3 ADD DUP2 SWAP1 MSTORE PUSH2 0x120 DUP3 ADD MLOAD PUSH2 0x140 DUP4 ADD MLOAD PUSH2 0x160 DUP5 ADD MLOAD PUSH2 0x180 SWAP1 SWAP5 ADD MLOAD SWAP2 SWAP9 POP SWAP7 POP SWAP2 SWAP5 POP SWAP1 SWAP3 POP SWAP1 POP JUMPDEST SWAP7 POP SWAP7 POP SWAP7 POP SWAP7 POP SWAP7 SWAP2 POP POP JUMP JUMPDEST PUSH1 0x5 DUP2 ADD SLOAD PUSH1 0x40 DUP1 MLOAD PUSH4 0x70A08231 PUSH1 0xE0 SHL DUP2 MSTORE PUSH1 0x1 PUSH1 0x1 PUSH1 0xA0 SHL SUB DUP6 DUP2 AND PUSH1 0x4 DUP4 ADD MSTORE SWAP2 MLOAD PUSH1 0x0 SWAP4 DUP5 SWAP4 AND SWAP2 PUSH4 0x70A08231 SWAP2 PUSH1 0x24 DUP1 DUP4 ADD SWAP3 PUSH1 0x20 SWAP3 SWAP2 SWAP1 DUP3 SWAP1 SUB ADD DUP2 DUP7 DUP1 EXTCODESIZE ISZERO DUP1 ISZERO PUSH2 0x1463 JUMPI PUSH1 0x0 DUP1 REVERT JUMPDEST POP GAS STATICCALL ISZERO DUP1 ISZERO PUSH2 0x1477 JUMPI RETURNDATASIZE PUSH1 0x0 DUP1 RETURNDATACOPY RETURNDATASIZE PUSH1 0x0 REVERT JUMPDEST POP POP POP POP PUSH1 0x40 MLOAD RETURNDATASIZE PUSH1 0x20 DUP2 LT ISZERO PUSH2 0x148D JUMPI PUSH1 0x0 DUP1 REVERT JUMPDEST POP MLOAD PUSH1 0x6 DUP5 ADD SLOAD PUSH1 0x40 DUP1 MLOAD PUSH4 0x70A08231 PUSH1 0xE0 SHL DUP2 MSTORE PUSH1 0x1 PUSH1 0x1 PUSH1 0xA0 SHL SUB DUP9 DUP2 AND PUSH1 0x4 DUP4 ADD MSTORE SWAP2 MLOAD SWAP2 SWAP1 SWAP3 AND SWAP2 PUSH4 0x70A08231 SWAP2 PUSH1 0x24 DUP1 DUP4 ADD SWAP3 PUSH1 0x20 SWAP3 SWAP2 SWAP1 DUP3 SWAP1 SUB ADD DUP2 DUP7 DUP1 EXTCODESIZE ISZERO DUP1 ISZERO PUSH2 0x14DE JUMPI PUSH1 0x0 DUP1 REVERT JUMPDEST POP GAS STATICCALL ISZERO DUP1 ISZERO PUSH2 0x14F2 JUMPI RETURNDATASIZE PUSH1 0x0 DUP1 RETURNDATACOPY RETURNDATASIZE PUSH1 0x0 REVERT JUMPDEST POP POP POP POP PUSH1 0x40 MLOAD RETURNDATASIZE PUSH1 0x20 DUP2 LT ISZERO PUSH2 0x1508 JUMPI PUSH1 0x0 DUP1 REVERT JUMPDEST POP MLOAD SWAP1 SWAP6 SWAP1 SWAP5 POP SWAP3 POP POP POP JUMP JUMPDEST PUSH1 0x0 PUSH1 0x60 PUSH2 0x1522 DUP9 PUSH2 0x22E8 JUMP JUMPDEST ISZERO DUP1 PUSH2 0x1534 JUMPI POP PUSH2 0x1532 DUP8 PUSH2 0x22E8 JUMP JUMPDEST ISZERO JUMPDEST ISZERO PUSH2 0x156F JUMPI POP POP PUSH1 0x40 DUP1 MLOAD DUP1 DUP3 ADD SWAP1 SWAP2 MSTORE PUSH1 0x15 DUP2 MSTORE PUSH21 0x496E737472756D656E74206E6F7420416374697665 PUSH1 0x58 SHL PUSH1 0x20 DUP3 ADD MSTORE PUSH1 0x6 SWAP1 PUSH2 0x1680 JUMP JUMPDEST PUSH8 0xDE0B6B3A7640000 DUP6 LT PUSH2 0x15A2 JUMPI PUSH1 0x4 PUSH1 0x40 MLOAD DUP1 PUSH1 0x60 ADD PUSH1 0x40 MSTORE DUP1 PUSH1 0x21 DUP2 MSTORE PUSH1 0x20 ADD PUSH2 0x306D PUSH1 0x21 SWAP2 CODECOPY SWAP2 POP SWAP2 POP PUSH2 0x1680 JUMP JUMPDEST PUSH1 0x0 DUP1 PUSH2 0x15AE DUP11 PUSH2 0x22F8 JUMP JUMPDEST GT DUP1 ISZERO PUSH2 0x15DD JUMPI POP PUSH1 0x7 DUP10 ADD SLOAD PUSH1 0x40 DUP1 MLOAD PUSH1 0x20 DUP2 ADD SWAP1 SWAP2 MSTORE DUP9 SLOAD DUP2 MSTORE PUSH2 0x15DD SWAP2 PUSH1 0x1 PUSH1 0xA0 SHL SWAP1 DIV PUSH1 0xFF AND PUSH2 0x2152 JUMP JUMPDEST SWAP1 POP DUP1 PUSH2 0x1623 JUMPI POP POP PUSH1 0x40 DUP1 MLOAD DUP1 DUP3 ADD SWAP1 SWAP2 MSTORE PUSH1 0x1F DUP2 MSTORE PUSH32 0x434F4C4C41544552414C2043414E4E4F54204245204C49515549444154454400 PUSH1 0x20 DUP3 ADD MSTORE PUSH1 0x2 SWAP2 POP PUSH2 0x1680 JUMP JUMPDEST DUP5 ISZERO DUP1 ISZERO PUSH2 0x162F JUMPI POP DUP4 ISZERO JUMPDEST ISZERO PUSH2 0x1659 JUMPI PUSH1 0x3 PUSH1 0x40 MLOAD DUP1 PUSH1 0x60 ADD PUSH1 0x40 MSTORE DUP1 PUSH1 0x27 DUP2 MSTORE PUSH1 0x20 ADD PUSH2 0x3004 PUSH1 0x27 SWAP2 CODECOPY SWAP3 POP SWAP3 POP POP PUSH2 0x1680 JUMP JUMPDEST POP POP PUSH1 0x40 DUP1 MLOAD DUP1 DUP3 ADD SWAP1 SWAP2 MSTORE PUSH1 0x9 DUP2 MSTORE PUSH9 0x4E4F204552524F5253 PUSH1 0xB8 SHL PUSH1 0x20 DUP3 ADD MSTORE PUSH1 0x0 SWAP2 POP JUMPDEST SWAP7 POP SWAP7 SWAP5 POP POP POP POP POP JUMP JUMPDEST PUSH1 0x0 DUP3 DUP3 ADD DUP4 DUP2 LT ISZERO PUSH2 0x16E5 JUMPI PUSH1 0x40 DUP1 MLOAD PUSH3 0x461BCD PUSH1 0xE5 SHL DUP2 MSTORE PUSH1 0x20 PUSH1 0x4 DUP3 ADD MSTORE PUSH1 0x1B PUSH1 0x24 DUP3 ADD MSTORE PUSH32 0x536166654D6174683A206164646974696F6E206F766572666C6F770000000000 PUSH1 0x44 DUP3 ADD MSTORE SWAP1 MLOAD SWAP1 DUP2 SWAP1 SUB PUSH1 0x64 ADD SWAP1 REVERT JUMPDEST SWAP1 POP JUMPDEST SWAP3 SWAP2 POP POP JUMP JUMPDEST PUSH1 0x0 DUP3 ISZERO DUP1 PUSH2 0x16FB JUMPI POP DUP2 ISZERO JUMPDEST ISZERO PUSH2 0x1708 JUMPI POP PUSH1 0x0 PUSH2 0x16E8 JUMP JUMPDEST DUP2 PUSH2 0x1388 NOT DUP2 PUSH2 0x1714 JUMPI INVALID JUMPDEST DIV DUP4 GT ISZERO PUSH2 0x1753 JUMPI PUSH1 0x40 MLOAD PUSH3 0x461BCD PUSH1 0xE5 SHL DUP2 MSTORE PUSH1 0x4 ADD DUP1 DUP1 PUSH1 0x20 ADD DUP3 DUP2 SUB DUP3 MSTORE PUSH1 0x26 DUP2 MSTORE PUSH1 0x20 ADD DUP1 PUSH2 0x2FDE PUSH1 0x26 SWAP2 CODECOPY PUSH1 0x40 ADD SWAP2 POP POP PUSH1 0x40 MLOAD DUP1 SWAP2 SUB SWAP1 REVERT JUMPDEST PUSH2 0x2710 PUSH1 0x2 DUP2 JUMPDEST DIV DUP4 DUP6 MUL ADD DUP2 PUSH2 0x1766 JUMPI INVALID JUMPDEST DIV SWAP4 SWAP3 POP POP POP JUMP JUMPDEST PUSH1 0x0 DUP1 PUSH1 0x0 DUP1 PUSH1 0x0 PUSH1 0x34 PUSH1 0x0 SWAP1 SLOAD SWAP1 PUSH2 0x100 EXP SWAP1 DIV PUSH1 0x1 PUSH1 0x1 PUSH1 0xA0 SHL SUB AND PUSH1 0x1 PUSH1 0x1 PUSH1 0xA0 SHL SUB AND PUSH4 0xFCA513A8 PUSH1 0x40 MLOAD DUP2 PUSH4 0xFFFFFFFF AND PUSH1 0xE0 SHL DUP2 MSTORE PUSH1 0x4 ADD PUSH1 0x20 PUSH1 0x40 MLOAD DUP1 DUP4 SUB DUP2 DUP7 DUP1 EXTCODESIZE ISZERO DUP1 ISZERO PUSH2 0x17C4 JUMPI PUSH1 0x0 DUP1 REVERT JUMPDEST POP GAS STATICCALL ISZERO DUP1 ISZERO PUSH2 0x17D8 JUMPI RETURNDATASIZE PUSH1 0x0 DUP1 RETURNDATACOPY RETURNDATASIZE PUSH1 0x0 REVERT JUMPDEST POP POP POP POP PUSH1 0x40 MLOAD RETURNDATASIZE PUSH1 0x20 DUP2 LT ISZERO PUSH2 0x17EE JUMPI PUSH1 0x0 DUP1 REVERT JUMPDEST POP MLOAD SWAP1 POP PUSH2 0x17FA PUSH2 0x2ECB JUMP JUMPDEST DUP2 PUSH1 0x1 PUSH1 0x1 PUSH1 0xA0 SHL SUB AND PUSH4 0xB3596F07 DUP12 PUSH1 0x40 MLOAD DUP3 PUSH4 0xFFFFFFFF AND PUSH1 0xE0 SHL DUP2 MSTORE PUSH1 0x4 ADD DUP1 DUP3 PUSH1 0x1 PUSH1 0x1 PUSH1 0xA0 SHL SUB AND DUP2 MSTORE PUSH1 0x20 ADD SWAP2 POP POP PUSH1 0x20 PUSH1 0x40 MLOAD DUP1 DUP4 SUB DUP2 DUP7 DUP1 EXTCODESIZE ISZERO DUP1 ISZERO PUSH2 0x1847 JUMPI PUSH1 0x0 DUP1 REVERT JUMPDEST POP GAS STATICCALL ISZERO DUP1 ISZERO PUSH2 0x185B JUMPI RETURNDATASIZE PUSH1 0x0 DUP1 RETURNDATACOPY RETURNDATASIZE PUSH1 0x0 REVERT JUMPDEST POP POP POP POP PUSH1 0x40 MLOAD RETURNDATASIZE PUSH1 0x20 DUP2 LT ISZERO PUSH2 0x1871 JUMPI PUSH1 0x0 DUP1 REVERT JUMPDEST POP MLOAD PUSH1 0x40 DUP1 DUP4 ADD SWAP2 SWAP1 SWAP2 MSTORE DUP1 MLOAD PUSH4 0xB3596F07 PUSH1 0xE0 SHL DUP2 MSTORE PUSH1 0x1 PUSH1 0x1 PUSH1 0xA0 SHL SUB DUP12 DUP2 AND PUSH1 0x4 DUP4 ADD MSTORE SWAP2 MLOAD SWAP2 DUP5 AND SWAP2 PUSH4 0xB3596F07 SWAP2 PUSH1 0x24 DUP1 DUP3 ADD SWAP3 PUSH1 0x20 SWAP3 SWAP1 SWAP2 SWAP1 DUP3 SWAP1 SUB ADD DUP2 DUP7 DUP1 EXTCODESIZE ISZERO DUP1 ISZERO PUSH2 0x18C4 JUMPI PUSH1 0x0 DUP1 REVERT JUMPDEST POP GAS STATICCALL ISZERO DUP1 ISZERO PUSH2 0x18D8 JUMPI RETURNDATASIZE PUSH1 0x0 DUP1 RETURNDATACOPY RETURNDATASIZE PUSH1 0x0 REVERT JUMPDEST POP POP POP POP PUSH1 0x40 MLOAD RETURNDATASIZE PUSH1 0x20 DUP2 LT ISZERO PUSH2 0x18EE JUMPI PUSH1 0x0 DUP1 REVERT JUMPDEST POP MLOAD PUSH1 0x60 DUP3 ADD MSTORE PUSH2 0x18FE DUP13 PUSH2 0x2127 JUMP JUMPDEST POP PUSH1 0xC0 DUP6 ADD MSTORE PUSH1 0x20 DUP5 ADD MSTORE POP PUSH2 0x1915 SWAP1 POP DUP12 PUSH2 0x2303 JUMP JUMPDEST PUSH1 0xA0 DUP3 ADD DUP2 SWAP1 MSTORE PUSH1 0x40 DUP3 ADD MLOAD PUSH2 0x1962 SWAP2 PUSH2 0x1932 SWAP2 SWAP1 PUSH1 0xA EXP PUSH2 0x21BC JUMP JUMPDEST PUSH2 0x1156 DUP4 PUSH1 0x20 ADD MLOAD PUSH2 0x309 DUP6 PUSH1 0xC0 ADD MLOAD PUSH1 0xA EXP PUSH2 0x195C DUP15 DUP9 PUSH1 0x60 ADD MLOAD PUSH2 0x21BC SWAP1 SWAP2 SWAP1 PUSH4 0xFFFFFFFF AND JUMP JUMPDEST SWAP1 PUSH2 0x21BC JUMP JUMPDEST PUSH1 0x80 DUP3 ADD DUP2 SWAP1 MSTORE DUP8 LT ISZERO PUSH2 0x19CB JUMPI DUP7 SWAP4 POP PUSH2 0x19C4 DUP2 PUSH1 0x20 ADD MLOAD PUSH2 0x19BE PUSH2 0x199C DUP5 PUSH1 0xC0 ADD MLOAD PUSH1 0xA EXP DUP6 PUSH1 0x60 ADD MLOAD PUSH2 0x21BC SWAP1 SWAP2 SWAP1 PUSH4 0xFFFFFFFF AND JUMP JUMPDEST PUSH2 0x1156 DUP6 PUSH1 0xA0 ADD MLOAD PUSH1 0xA EXP PUSH2 0x195C DUP11 DUP9 PUSH1 0x40 ADD MLOAD PUSH2 0x21BC SWAP1 SWAP2 SWAP1 PUSH4 0xFFFFFFFF AND JUMP JUMPDEST SWAP1 PUSH2 0x230D JUMP JUMPDEST SWAP3 POP PUSH2 0x19D6 JUMP JUMPDEST DUP1 PUSH1 0x80 ADD MLOAD SWAP4 POP DUP8 SWAP3 POP JUMPDEST POP SWAP2 SWAP11 SWAP1 SWAP10 POP SWAP8 POP POP POP POP POP POP POP POP JUMP JUMPDEST PUSH1 0x0 PUSH2 0x16E5 DUP4 DUP4 PUSH1 0x40 MLOAD DUP1 PUSH1 0x40 ADD PUSH1 0x40 MSTORE DUP1 PUSH1 0x1E DUP2 MSTORE PUSH1 0x20 ADD PUSH32 0x536166654D6174683A207375627472616374696F6E206F766572666C6F770000 DUP2 MSTORE POP PUSH2 0x23CF JUMP JUMPDEST PUSH1 0x80 DUP3 LT PUSH2 0x1A79 JUMPI PUSH1 0x40 DUP1 MLOAD PUSH3 0x461BCD PUSH1 0xE5 SHL DUP2 MSTORE PUSH1 0x20 PUSH1 0x4 DUP3 ADD MSTORE PUSH1 0x18 PUSH1 0x24 DUP3 ADD MSTORE PUSH24 0x92DCECC2D8D2C840D2DCE6E8E4EADACADCE84092DCC8CAF PUSH1 0x43 SHL PUSH1 0x44 DUP3 ADD MSTORE SWAP1 MLOAD SWAP1 DUP2 SWAP1 SUB PUSH1 0x64 ADD SWAP1 REVERT JUMPDEST DUP2 PUSH1 0x2 MUL PUSH1 0x1 ADD DUP2 PUSH2 0x1A8C JUMPI PUSH1 0x0 PUSH2 0x1A8F JUMP JUMPDEST PUSH1 0x1 JUMPDEST PUSH1 0xFF AND SWAP1 SHL DUP3 PUSH1 0x2 MUL PUSH1 0x1 ADD PUSH1 0x1 SWAP1 SHL NOT DUP5 PUSH1 0x0 ADD SLOAD AND OR DUP4 PUSH1 0x0 ADD DUP2 SWAP1 SSTORE POP POP POP POP JUMP JUMPDEST PUSH1 0x6 DUP3 ADD SLOAD PUSH1 0x40 DUP1 MLOAD PUSH4 0xB1BF962D PUSH1 0xE0 SHL DUP2 MSTORE SWAP1 MLOAD PUSH1 0x0 SWAP3 PUSH1 0x1 PUSH1 0x1 PUSH1 0xA0 SHL SUB AND SWAP2 PUSH4 0xB1BF962D SWAP2 PUSH1 0x4 DUP1 DUP4 ADD SWAP3 PUSH1 0x20 SWAP3 SWAP2 SWAP1 DUP3 SWAP1 SUB ADD DUP2 DUP7 DUP1 EXTCODESIZE ISZERO DUP1 ISZERO PUSH2 0x1AFB JUMPI PUSH1 0x0 DUP1 REVERT JUMPDEST POP GAS STATICCALL ISZERO DUP1 ISZERO PUSH2 0x1B0F JUMPI RETURNDATASIZE PUSH1 0x0 DUP1 RETURNDATACOPY RETURNDATASIZE PUSH1 0x0 REVERT JUMPDEST POP POP POP POP PUSH1 0x40 MLOAD RETURNDATASIZE PUSH1 0x20 DUP2 LT ISZERO PUSH2 0x1B25 JUMPI PUSH1 0x0 DUP1 REVERT JUMPDEST POP MLOAD PUSH1 0x1 DUP5 ADD SLOAD PUSH1 0x3 DUP6 ADD SLOAD SWAP2 SWAP3 POP PUSH1 0x1 PUSH1 0x80 SHL DUP1 DUP3 DIV PUSH1 0x1 PUSH1 0x1 PUSH1 0x80 SHL SUB SWAP1 DUP2 AND SWAP4 SWAP3 AND SWAP2 DIV PUSH5 0xFFFFFFFFFF AND PUSH1 0x0 DUP1 PUSH2 0x1B63 DUP9 DUP8 DUP7 DUP9 DUP8 PUSH2 0x2429 JUMP JUMPDEST SWAP2 POP SWAP2 POP PUSH2 0x1B76 DUP9 DUP9 DUP9 DUP9 DUP7 DUP7 DUP10 PUSH2 0x25E2 JUMP JUMPDEST POP POP POP POP POP POP POP POP JUMP JUMPDEST PUSH2 0x1B88 PUSH2 0x2F08 JUMP JUMPDEST PUSH1 0x5 DUP7 ADD SLOAD PUSH1 0x1 PUSH1 0x1 PUSH1 0xA0 SHL SUB AND DUP1 DUP3 MSTORE PUSH1 0x40 DUP1 MLOAD PUSH4 0x7B98F4DF PUSH1 0xE1 SHL DUP2 MSTORE DUP2 MLOAD PUSH4 0xF731E9BE SWAP3 PUSH1 0x4 DUP1 DUP5 ADD SWAP4 SWAP2 SWAP3 SWAP2 DUP3 SWAP1 SUB ADD DUP2 DUP7 DUP1 EXTCODESIZE ISZERO DUP1 ISZERO PUSH2 0x1BCC JUMPI PUSH1 0x0 DUP1 REVERT JUMPDEST POP GAS STATICCALL ISZERO DUP1 ISZERO PUSH2 0x1BE0 JUMPI RETURNDATASIZE PUSH1 0x0 DUP1 RETURNDATACOPY RETURNDATASIZE PUSH1 0x0 REVERT JUMPDEST POP POP POP POP PUSH1 0x40 MLOAD RETURNDATASIZE PUSH1 0x40 DUP2 LT ISZERO PUSH2 0x1BF6 JUMPI PUSH1 0x0 DUP1 REVERT JUMPDEST POP DUP1 MLOAD PUSH1 0x20 SWAP2 DUP3 ADD MLOAD PUSH1 0xC0 DUP5 ADD MSTORE PUSH1 0x40 DUP1 DUP5 ADD SWAP2 SWAP1 SWAP2 MSTORE PUSH1 0x1 DUP9 ADD SLOAD PUSH1 0x6 DUP10 ADD SLOAD DUP3 MLOAD PUSH4 0xB1BF962D PUSH1 0xE0 SHL DUP2 MSTORE SWAP3 MLOAD PUSH2 0x1C9A SWAP5 PUSH1 0x1 PUSH1 0x80 SHL SWAP1 SWAP4 DIV PUSH1 0x1 PUSH1 0x1 PUSH1 0x80 SHL SUB AND SWAP4 PUSH1 0x1 PUSH1 0x1 PUSH1 0xA0 SHL SUB SWAP1 SWAP3 AND SWAP3 PUSH4 0xB1BF962D SWAP3 PUSH1 0x4 DUP1 DUP3 ADD SWAP4 SWAP2 DUP3 SWAP1 SUB ADD DUP2 DUP7 DUP1 EXTCODESIZE ISZERO DUP1 ISZERO PUSH2 0x1C68 JUMPI PUSH1 0x0 DUP1 REVERT JUMPDEST POP GAS STATICCALL ISZERO DUP1 ISZERO PUSH2 0x1C7C JUMPI RETURNDATASIZE PUSH1 0x0 DUP1 RETURNDATACOPY RETURNDATASIZE PUSH1 0x0 REVERT JUMPDEST POP POP POP POP PUSH1 0x40 MLOAD RETURNDATASIZE PUSH1 0x20 DUP2 LT ISZERO PUSH2 0x1C92 JUMPI PUSH1 0x0 DUP1 REVERT JUMPDEST POP MLOAD SWAP1 PUSH2 0x27CE JUMP JUMPDEST PUSH1 0xE0 DUP3 ADD MSTORE PUSH1 0x40 DUP1 MLOAD PUSH4 0x70A08231 PUSH1 0xE0 SHL DUP2 MSTORE PUSH1 0x1 PUSH1 0x1 PUSH1 0xA0 SHL SUB DUP7 DUP2 AND PUSH1 0x4 DUP4 ADD MSTORE SWAP2 MLOAD SWAP2 DUP8 AND SWAP2 PUSH4 0x70A08231 SWAP2 PUSH1 0x24 DUP1 DUP3 ADD SWAP3 PUSH1 0x20 SWAP3 SWAP1 SWAP2 SWAP1 DUP3 SWAP1 SUB ADD DUP2 DUP7 DUP1 EXTCODESIZE ISZERO DUP1 ISZERO PUSH2 0x1CE9 JUMPI PUSH1 0x0 DUP1 REVERT JUMPDEST POP GAS STATICCALL ISZERO DUP1 ISZERO PUSH2 0x1CFD JUMPI RETURNDATASIZE PUSH1 0x0 DUP1 RETURNDATACOPY RETURNDATASIZE PUSH1 0x0 REVERT JUMPDEST POP POP POP POP PUSH1 0x40 MLOAD RETURNDATASIZE PUSH1 0x20 DUP2 LT ISZERO PUSH2 0x1D13 JUMPI PUSH1 0x0 DUP1 REVERT JUMPDEST POP MLOAD PUSH1 0x20 DUP3 ADD DUP2 SWAP1 MSTORE PUSH1 0x7 DUP8 ADD SLOAD PUSH1 0x1 PUSH1 0x1 PUSH1 0xA0 SHL SUB AND SWAP1 PUSH4 0x9584DF28 SWAP1 DUP8 SWAP1 PUSH2 0x1D43 SWAP1 DUP7 SWAP1 PUSH2 0x534 SWAP1 DUP10 PUSH2 0x168B JUMP JUMPDEST PUSH1 0x40 DUP6 ADD MLOAD PUSH1 0xE0 DUP7 ADD MLOAD PUSH1 0xC0 DUP8 ADD MLOAD PUSH2 0x1D5B DUP14 PUSH2 0x2868 JUMP JUMPDEST PUSH1 0x40 MLOAD DUP8 PUSH4 0xFFFFFFFF AND PUSH1 0xE0 SHL DUP2 MSTORE PUSH1 0x4 ADD DUP1 DUP8 PUSH1 0x1 PUSH1 0x1 PUSH1 0xA0 SHL SUB AND DUP2 MSTORE PUSH1 0x20 ADD DUP7 DUP2 MSTORE PUSH1 0x20 ADD DUP6 DUP2 MSTORE PUSH1 0x20 ADD DUP5 DUP2 MSTORE PUSH1 0x20 ADD DUP4 DUP2 MSTORE PUSH1 0x20 ADD DUP3 DUP2 MSTORE PUSH1 0x20 ADD SWAP7 POP POP POP POP POP POP POP PUSH1 0x60 PUSH1 0x40 MLOAD DUP1 DUP4 SUB DUP2 DUP7 DUP1 EXTCODESIZE ISZERO DUP1 ISZERO PUSH2 0x1DBB JUMPI PUSH1 0x0 DUP1 REVERT JUMPDEST POP GAS STATICCALL ISZERO DUP1 ISZERO PUSH2 0x1DCF JUMPI RETURNDATASIZE PUSH1 0x0 DUP1 RETURNDATACOPY RETURNDATASIZE PUSH1 0x0 REVERT JUMPDEST POP POP POP POP PUSH1 0x40 MLOAD RETURNDATASIZE PUSH1 0x60 DUP2 LT ISZERO PUSH2 0x1DE5 JUMPI PUSH1 0x0 DUP1 REVERT JUMPDEST POP DUP1 MLOAD PUSH1 0x20 DUP1 DUP4 ADD MLOAD PUSH1 0x40 SWAP4 DUP5 ADD MLOAD PUSH1 0xA0 DUP7 ADD MSTORE PUSH1 0x80 DUP6 ADD MSTORE PUSH1 0x60 DUP5 ADD DUP3 SWAP1 MSTORE DUP3 MLOAD DUP1 DUP5 ADD SWAP1 SWAP4 MSTORE PUSH1 0x2 DUP4 MSTORE PUSH2 0x1899 PUSH1 0xF1 SHL SWAP1 DUP4 ADD MSTORE PUSH1 0x1 PUSH1 0x1 PUSH1 0x80 SHL SUB LT ISZERO PUSH2 0x1EAD JUMPI PUSH1 0x40 MLOAD PUSH3 0x461BCD PUSH1 0xE5 SHL DUP2 MSTORE PUSH1 0x4 ADD DUP1 DUP1 PUSH1 0x20 ADD DUP3 DUP2 SUB DUP3 MSTORE DUP4 DUP2 DUP2 MLOAD DUP2 MSTORE PUSH1 0x20 ADD SWAP2 POP DUP1 MLOAD SWAP1 PUSH1 0x20 ADD SWAP1 DUP1 DUP4 DUP4 PUSH1 0x0 JUMPDEST DUP4 DUP2 LT ISZERO PUSH2 0x1E72 JUMPI DUP2 DUP2 ADD MLOAD DUP4 DUP3 ADD MSTORE PUSH1 0x20 ADD PUSH2 0x1E5A JUMP JUMPDEST POP POP POP POP SWAP1 POP SWAP1 DUP2 ADD SWAP1 PUSH1 0x1F AND DUP1 ISZERO PUSH2 0x1E9F JUMPI DUP1 DUP3 SUB DUP1 MLOAD PUSH1 0x1 DUP4 PUSH1 0x20 SUB PUSH2 0x100 EXP SUB NOT AND DUP2 MSTORE PUSH1 0x20 ADD SWAP2 POP JUMPDEST POP SWAP3 POP POP POP PUSH1 0x40 MLOAD DUP1 SWAP2 SUB SWAP1 REVERT JUMPDEST POP PUSH1 0x80 DUP2 ADD MLOAD PUSH1 0x40 DUP1 MLOAD DUP1 DUP3 ADD SWAP1 SWAP2 MSTORE PUSH1 0x2 DUP2 MSTORE PUSH2 0x3133 PUSH1 0xF0 SHL PUSH1 0x20 DUP3 ADD MSTORE SWAP1 PUSH1 0x1 PUSH1 0x1 PUSH1 0x80 SHL SUB LT ISZERO PUSH2 0x1F22 JUMPI PUSH1 0x40 MLOAD PUSH3 0x461BCD PUSH1 0xE5 SHL DUP2 MSTORE PUSH1 0x20 PUSH1 0x4 DUP3 ADD DUP2 DUP2 MSTORE DUP4 MLOAD PUSH1 0x24 DUP5 ADD MSTORE DUP4 MLOAD SWAP1 SWAP3 DUP4 SWAP3 PUSH1 0x44 SWAP1 SWAP2 ADD SWAP2 SWAP1 DUP6 ADD SWAP1 DUP1 DUP4 DUP4 PUSH1 0x0 DUP4 ISZERO PUSH2 0x1E72 JUMPI DUP2 DUP2 ADD MLOAD DUP4 DUP3 ADD MSTORE PUSH1 0x20 ADD PUSH2 0x1E5A JUMP JUMPDEST POP PUSH1 0xA0 DUP2 ADD MLOAD PUSH1 0x40 DUP1 MLOAD DUP1 DUP3 ADD SWAP1 SWAP2 MSTORE PUSH1 0x2 DUP2 MSTORE PUSH2 0xC4D PUSH1 0xF2 SHL PUSH1 0x20 DUP3 ADD MSTORE SWAP1 PUSH1 0x1 PUSH1 0x1 PUSH1 0x80 SHL SUB LT ISZERO PUSH2 0x1F97 JUMPI PUSH1 0x40 MLOAD PUSH3 0x461BCD PUSH1 0xE5 SHL DUP2 MSTORE PUSH1 0x20 PUSH1 0x4 DUP3 ADD DUP2 DUP2 MSTORE DUP4 MLOAD PUSH1 0x24 DUP5 ADD MSTORE DUP4 MLOAD SWAP1 SWAP3 DUP4 SWAP3 PUSH1 0x44 SWAP1 SWAP2 ADD SWAP2 SWAP1 DUP6 ADD SWAP1 DUP1 DUP4 DUP4 PUSH1 0x0 DUP4 ISZERO PUSH2 0x1E72 JUMPI DUP2 DUP2 ADD MLOAD DUP4 DUP3 ADD MSTORE PUSH1 0x20 ADD PUSH2 0x1E5A JUMP JUMPDEST POP PUSH1 0x60 DUP2 DUP2 ADD MLOAD PUSH1 0x2 DUP9 ADD DUP1 SLOAD PUSH1 0x80 DUP1 DUP7 ADD MLOAD PUSH1 0x3 DUP13 ADD DUP1 SLOAD PUSH1 0x1 PUSH1 0x1 PUSH1 0x80 SHL SUB NOT SWAP1 DUP2 AND PUSH1 0x1 PUSH1 0x1 PUSH1 0x80 SHL SUB DUP1 DUP6 AND SWAP2 SWAP1 SWAP2 OR SWAP1 SWAP3 SSTORE PUSH1 0xA0 DUP1 DUP11 ADD MLOAD SWAP2 SWAP1 SWAP6 AND DUP3 DUP9 AND OR DUP3 AND PUSH1 0x1 PUSH1 0x80 SHL DUP3 DUP5 AND DUP2 MUL SWAP2 SWAP1 SWAP2 OR SWAP1 SWAP7 SSTORE PUSH1 0x1 DUP15 ADD SLOAD PUSH1 0x40 DUP1 MLOAD SWAP9 DUP10 MSTORE PUSH1 0x20 DUP10 ADD SWAP5 SWAP1 SWAP5 MSTORE DUP8 DUP5 ADD SWAP2 SWAP1 SWAP2 MSTORE DUP1 DUP3 AND SWAP8 DUP8 ADD SWAP8 SWAP1 SWAP8 MSTORE SWAP4 SWAP1 SWAP6 DIV SWAP1 SWAP3 AND SWAP2 DUP4 ADD SWAP2 SWAP1 SWAP2 MSTORE SWAP2 MLOAD PUSH1 0x1 PUSH1 0x1 PUSH1 0xA0 SHL SUB DUP9 AND SWAP3 PUSH32 0x9ADB65693C7ACC3236BF2C0979398344D4783C4D439D2BD5BC6F18D75E751B8B SWAP3 DUP3 SWAP1 SUB ADD SWAP1 LOG2 POP POP POP POP POP POP JUMP JUMPDEST PUSH1 0x40 DUP1 MLOAD PUSH1 0x1 PUSH1 0x1 PUSH1 0xA0 SHL SUB DUP1 DUP7 AND PUSH1 0x24 DUP4 ADD MSTORE DUP5 AND PUSH1 0x44 DUP3 ADD MSTORE PUSH1 0x64 DUP1 DUP3 ADD DUP5 SWAP1 MSTORE DUP3 MLOAD DUP1 DUP4 SUB SWAP1 SWAP2 ADD DUP2 MSTORE PUSH1 0x84 SWAP1 SWAP2 ADD SWAP1 SWAP2 MSTORE PUSH1 0x20 DUP2 ADD DUP1 MLOAD PUSH1 0x1 PUSH1 0x1 PUSH1 0xE0 SHL SUB AND PUSH4 0x23B872DD PUSH1 0xE0 SHL OR SWAP1 MSTORE PUSH2 0x20B9 SWAP1 DUP6 SWAP1 PUSH2 0x2873 JUMP JUMPDEST POP POP POP POP JUMP JUMPDEST MLOAD ISZERO SWAP1 JUMP JUMPDEST PUSH1 0x0 PUSH1 0x80 DUP3 LT PUSH2 0x2116 JUMPI PUSH1 0x40 DUP1 MLOAD PUSH3 0x461BCD PUSH1 0xE5 SHL DUP2 MSTORE PUSH1 0x20 PUSH1 0x4 DUP3 ADD MSTORE PUSH1 0x18 PUSH1 0x24 DUP3 ADD MSTORE PUSH24 0x92DCECC2D8D2C840D2DCE6E8E4EADACADCE84092DCC8CAF PUSH1 0x43 SHL PUSH1 0x44 DUP3 ADD MSTORE SWAP1 MLOAD SWAP1 DUP2 SWAP1 SUB PUSH1 0x64 ADD SWAP1 REVERT JUMPDEST POP SWAP1 MLOAD PUSH1 0x3 PUSH1 0x2 SWAP1 SWAP3 MUL SHR AND ISZERO ISZERO SWAP1 JUMP JUMPDEST SLOAD PUSH2 0xFFFF DUP1 DUP3 AND SWAP3 PUSH1 0x10 DUP4 SWAP1 SHR DUP3 AND SWAP3 PUSH1 0x20 DUP2 SWAP1 SHR DUP4 AND SWAP3 PUSH1 0xFF PUSH1 0x30 DUP4 SWAP1 SHR AND SWAP3 PUSH1 0x40 SWAP3 SWAP1 SWAP3 SHR AND SWAP1 JUMP JUMPDEST PUSH1 0x0 PUSH1 0x80 DUP3 LT PUSH2 0x21A4 JUMPI PUSH1 0x40 DUP1 MLOAD PUSH3 0x461BCD PUSH1 0xE5 SHL DUP2 MSTORE PUSH1 0x20 PUSH1 0x4 DUP3 ADD MSTORE PUSH1 0x18 PUSH1 0x24 DUP3 ADD MSTORE PUSH24 0x92DCECC2D8D2C840D2DCE6E8E4EADACADCE84092DCC8CAF PUSH1 0x43 SHL PUSH1 0x44 DUP3 ADD MSTORE SWAP1 MLOAD SWAP1 DUP2 SWAP1 SUB PUSH1 0x64 ADD SWAP1 REVERT JUMPDEST POP DUP2 MLOAD PUSH1 0x1 PUSH1 0x2 DUP4 MUL DUP2 ADD SWAP2 SWAP1 SWAP2 SHR AND ISZERO ISZERO SWAP3 SWAP2 POP POP JUMP JUMPDEST PUSH1 0x0 DUP3 PUSH2 0x21CB JUMPI POP PUSH1 0x0 PUSH2 0x16E8 JUMP JUMPDEST DUP3 DUP3 MUL DUP3 DUP5 DUP3 DUP2 PUSH2 0x21D8 JUMPI INVALID JUMPDEST DIV EQ PUSH2 0x16E5 JUMPI PUSH1 0x40 MLOAD PUSH3 0x461BCD PUSH1 0xE5 SHL DUP2 MSTORE PUSH1 0x4 ADD DUP1 DUP1 PUSH1 0x20 ADD DUP3 DUP2 SUB DUP3 MSTORE PUSH1 0x21 DUP2 MSTORE PUSH1 0x20 ADD DUP1 PUSH2 0x302B PUSH1 0x21 SWAP2 CODECOPY PUSH1 0x40 ADD SWAP2 POP POP PUSH1 0x40 MLOAD DUP1 SWAP2 SUB SWAP1 REVERT JUMPDEST PUSH1 0x0 PUSH2 0x16E5 DUP4 DUP4 PUSH1 0x40 MLOAD DUP1 PUSH1 0x40 ADD PUSH1 0x40 MSTORE DUP1 PUSH1 0x1A DUP2 MSTORE PUSH1 0x20 ADD PUSH32 0x536166654D6174683A206469766973696F6E206279207A65726F000000000000 DUP2 MSTORE POP PUSH2 0x2929 JUMP JUMPDEST PUSH1 0x0 PUSH1 0x80 DUP3 LT PUSH2 0x22A9 JUMPI PUSH1 0x40 DUP1 MLOAD PUSH3 0x461BCD PUSH1 0xE5 SHL DUP2 MSTORE PUSH1 0x20 PUSH1 0x4 DUP3 ADD MSTORE PUSH1 0x18 PUSH1 0x24 DUP3 ADD MSTORE PUSH24 0x92DCECC2D8D2C840D2DCE6E8E4EADACADCE84092DCC8CAF PUSH1 0x43 SHL PUSH1 0x44 DUP3 ADD MSTORE SWAP1 MLOAD SWAP1 DUP2 SWAP1 SUB PUSH1 0x64 ADD SWAP1 REVERT JUMPDEST POP SWAP1 MLOAD PUSH1 0x1 PUSH1 0x2 SWAP1 SWAP3 MUL SHR AND ISZERO ISZERO SWAP1 JUMP JUMPDEST PUSH1 0x0 DUP3 PUSH2 0x22CA JUMPI POP PUSH1 0x0 NOT PUSH2 0x22E1 JUMP JUMPDEST PUSH2 0x22DE DUP4 PUSH2 0x22D8 DUP7 DUP6 PUSH2 0x16EE JUMP JUMPDEST SWAP1 PUSH2 0x298E JUMP JUMPDEST SWAP1 POP JUMPDEST SWAP4 SWAP3 POP POP POP JUMP JUMPDEST SLOAD PUSH8 0x100000000000000 AND ISZERO ISZERO SWAP1 JUMP JUMPDEST SLOAD PUSH1 0x10 SHR PUSH2 0xFFFF AND SWAP1 JUMP JUMPDEST SLOAD PUSH1 0x30 SHR PUSH1 0xFF AND SWAP1 JUMP JUMPDEST PUSH1 0x0 DUP2 PUSH2 0x2359 JUMPI PUSH1 0x40 DUP1 MLOAD PUSH3 0x461BCD PUSH1 0xE5 SHL DUP2 MSTORE PUSH1 0x20 PUSH1 0x4 DUP3 ADD MSTORE PUSH1 0x15 PUSH1 0x24 DUP3 ADD MSTORE PUSH21 0x4D415448204449564953494F4E204259205A45524F PUSH1 0x58 SHL PUSH1 0x44 DUP3 ADD MSTORE SWAP1 MLOAD SWAP1 DUP2 SWAP1 SUB PUSH1 0x64 ADD SWAP1 REVERT JUMPDEST PUSH1 0x2 DUP3 DIV PUSH2 0x2710 DUP2 NOT DIV DUP5 GT ISZERO PUSH2 0x23B7 JUMPI PUSH1 0x40 DUP1 MLOAD PUSH3 0x461BCD PUSH1 0xE5 SHL DUP2 MSTORE PUSH1 0x20 PUSH1 0x4 DUP3 ADD DUP2 SWAP1 MSTORE PUSH1 0x24 DUP3 ADD MSTORE PUSH32 0x50657263656E74616765204D617468203A204469766973696F6E206572726F72 PUSH1 0x44 DUP3 ADD MSTORE SWAP1 MLOAD SWAP1 DUP2 SWAP1 SUB PUSH1 0x64 ADD SWAP1 REVERT JUMPDEST DUP3 DUP2 PUSH2 0x2710 DUP7 MUL ADD DUP2 PUSH2 0x23C6 JUMPI INVALID JUMPDEST DIV SWAP5 SWAP4 POP POP POP POP JUMP JUMPDEST PUSH1 0x0 DUP2 DUP5 DUP5 GT ISZERO PUSH2 0x2421 JUMPI PUSH1 0x40 MLOAD PUSH3 0x461BCD PUSH1 0xE5 SHL DUP2 MSTORE PUSH1 0x20 PUSH1 0x4 DUP3 ADD DUP2 DUP2 MSTORE DUP4 MLOAD PUSH1 0x24 DUP5 ADD MSTORE DUP4 MLOAD SWAP1 SWAP3 DUP4 SWAP3 PUSH1 0x44 SWAP1 SWAP2 ADD SWAP2 SWAP1 DUP6 ADD SWAP1 DUP1 DUP4 DUP4 PUSH1 0x0 DUP4 ISZERO PUSH2 0x1E72 JUMPI DUP2 DUP2 ADD MLOAD DUP4 DUP3 ADD MSTORE PUSH1 0x20 ADD PUSH2 0x1E5A JUMP JUMPDEST POP POP POP SWAP1 SUB SWAP1 JUMP JUMPDEST PUSH1 0x2 DUP6 ADD SLOAD PUSH1 0x0 SWAP1 DUP2 SWAP1 PUSH1 0x1 PUSH1 0x1 PUSH1 0x80 SHL SUB AND DUP6 DUP6 DUP3 ISZERO PUSH2 0x25B3 JUMPI PUSH1 0x0 PUSH2 0x2450 DUP5 DUP9 PUSH2 0x2A53 JUMP JUMPDEST SWAP1 POP PUSH2 0x245C DUP2 DUP11 PUSH2 0x27CE JUMP JUMPDEST PUSH1 0x40 DUP1 MLOAD DUP1 DUP3 ADD SWAP1 SWAP2 MSTORE PUSH1 0x2 DUP2 MSTORE PUSH2 0x189B PUSH1 0xF1 SHL PUSH1 0x20 DUP3 ADD MSTORE SWAP1 SWAP4 POP PUSH1 0x1 PUSH1 0x1 PUSH1 0x80 SHL SUB DUP5 GT ISZERO PUSH2 0x24CE JUMPI PUSH1 0x40 MLOAD PUSH3 0x461BCD PUSH1 0xE5 SHL DUP2 MSTORE PUSH1 0x20 PUSH1 0x4 DUP3 ADD DUP2 DUP2 MSTORE DUP4 MLOAD PUSH1 0x24 DUP5 ADD MSTORE DUP4 MLOAD SWAP1 SWAP3 DUP4 SWAP3 PUSH1 0x44 SWAP1 SWAP2 ADD SWAP2 SWAP1 DUP6 ADD SWAP1 DUP1 DUP4 DUP4 PUSH1 0x0 DUP4 ISZERO PUSH2 0x1E72 JUMPI DUP2 DUP2 ADD MLOAD DUP4 DUP3 ADD MSTORE PUSH1 0x20 ADD PUSH2 0x1E5A JUMP JUMPDEST POP PUSH1 0x1 DUP12 ADD DUP1 SLOAD PUSH1 0x1 PUSH1 0x1 PUSH1 0x80 SHL SUB NOT AND PUSH1 0x1 PUSH1 0x1 PUSH1 0x80 SHL SUB DUP6 AND OR SWAP1 SSTORE DUP10 ISZERO PUSH2 0x25B1 JUMPI PUSH1 0x2 DUP12 ADD SLOAD PUSH1 0x0 SWAP1 PUSH2 0x2514 SWAP1 PUSH1 0x1 PUSH1 0x80 SHL SWAP1 DIV PUSH1 0x1 PUSH1 0x1 PUSH1 0x80 SHL SUB AND DUP10 PUSH2 0x2A99 JUMP JUMPDEST SWAP1 POP PUSH2 0x2520 DUP2 DUP11 PUSH2 0x27CE JUMP JUMPDEST PUSH1 0x40 DUP1 MLOAD DUP1 DUP3 ADD SWAP1 SWAP2 MSTORE PUSH1 0x2 DUP2 MSTORE PUSH2 0x3137 PUSH1 0xF0 SHL PUSH1 0x20 DUP3 ADD MSTORE SWAP1 SWAP4 POP PUSH1 0x1 PUSH1 0x1 PUSH1 0x80 SHL SUB DUP5 GT ISZERO PUSH2 0x2592 JUMPI PUSH1 0x40 MLOAD PUSH3 0x461BCD PUSH1 0xE5 SHL DUP2 MSTORE PUSH1 0x20 PUSH1 0x4 DUP3 ADD DUP2 DUP2 MSTORE DUP4 MLOAD PUSH1 0x24 DUP5 ADD MSTORE DUP4 MLOAD SWAP1 SWAP3 DUP4 SWAP3 PUSH1 0x44 SWAP1 SWAP2 ADD SWAP2 SWAP1 DUP6 ADD SWAP1 DUP1 DUP4 DUP4 PUSH1 0x0 DUP4 ISZERO PUSH2 0x1E72 JUMPI DUP2 DUP2 ADD MLOAD DUP4 DUP3 ADD MSTORE PUSH1 0x20 ADD PUSH2 0x1E5A JUMP JUMPDEST POP POP PUSH1 0x1 DUP12 ADD DUP1 SLOAD PUSH1 0x1 PUSH1 0x1 PUSH1 0x80 SHL SUB DUP1 DUP6 AND PUSH1 0x1 PUSH1 0x80 SHL MUL SWAP2 AND OR SWAP1 SSTORE JUMPDEST POP JUMPDEST PUSH1 0x3 SWAP10 SWAP1 SWAP10 ADD DUP1 SLOAD PUSH5 0xFFFFFFFFFF PUSH1 0x80 SHL NOT AND PUSH1 0x1 PUSH1 0x80 SHL TIMESTAMP PUSH5 0xFFFFFFFFFF AND MUL OR SWAP1 SSTORE SWAP9 SWAP7 POP POP POP POP POP POP POP JUMP JUMPDEST PUSH2 0x25EA PUSH2 0x2F56 JUMP JUMPDEST PUSH2 0x25F3 DUP9 PUSH2 0x2868 JUMP JUMPDEST PUSH2 0x120 DUP3 ADD DUP2 SWAP1 MSTORE PUSH2 0x2605 JUMPI POP PUSH2 0x27C5 JUMP JUMPDEST DUP8 PUSH1 0x5 ADD PUSH1 0x0 SWAP1 SLOAD SWAP1 PUSH2 0x100 EXP SWAP1 DIV PUSH1 0x1 PUSH1 0x1 PUSH1 0xA0 SHL SUB AND PUSH1 0x1 PUSH1 0x1 PUSH1 0xA0 SHL SUB AND PUSH4 0x79774338 PUSH1 0x40 MLOAD DUP2 PUSH4 0xFFFFFFFF AND PUSH1 0xE0 SHL DUP2 MSTORE PUSH1 0x4 ADD PUSH1 0x80 PUSH1 0x40 MLOAD DUP1 DUP4 SUB DUP2 DUP7 DUP1 EXTCODESIZE ISZERO DUP1 ISZERO PUSH2 0x2655 JUMPI PUSH1 0x0 DUP1 REVERT JUMPDEST POP GAS STATICCALL ISZERO DUP1 ISZERO PUSH2 0x2669 JUMPI RETURNDATASIZE PUSH1 0x0 DUP1 RETURNDATACOPY RETURNDATASIZE PUSH1 0x0 REVERT JUMPDEST POP POP POP POP PUSH1 0x40 MLOAD RETURNDATASIZE PUSH1 0x80 DUP2 LT ISZERO PUSH2 0x267F JUMPI PUSH1 0x0 DUP1 REVERT JUMPDEST POP DUP1 MLOAD PUSH1 0x20 DUP1 DUP4 ADD MLOAD PUSH1 0x40 DUP5 ADD MLOAD PUSH1 0x60 SWAP1 SWAP5 ADD MLOAD PUSH5 0xFFFFFFFFFF AND PUSH2 0x140 DUP7 ADD MSTORE PUSH1 0xA0 DUP6 ADD SWAP4 SWAP1 SWAP4 MSTORE SWAP2 DUP4 MSTORE SWAP1 DUP3 ADD MSTORE PUSH2 0x26B9 DUP7 DUP7 PUSH2 0x27CE JUMP JUMPDEST PUSH1 0x80 DUP3 ADD MSTORE PUSH2 0x26C8 DUP7 DUP5 PUSH2 0x27CE JUMP JUMPDEST PUSH1 0x60 DUP3 ADD MSTORE PUSH1 0xA0 DUP2 ADD MLOAD PUSH2 0x140 DUP3 ADD MLOAD PUSH2 0x26EA SWAP2 SWAP1 PUSH5 0xFFFFFFFFFF DUP6 AND PUSH2 0x2AA2 JUMP JUMPDEST PUSH1 0xC0 DUP3 ADD DUP2 SWAP1 MSTORE PUSH1 0x20 DUP3 ADD MLOAD PUSH2 0x26FF SWAP2 PUSH2 0x27CE JUMP JUMPDEST PUSH1 0x40 DUP3 ADD DUP2 SWAP1 MSTORE PUSH1 0x80 DUP3 ADD MLOAD DUP3 MLOAD PUSH1 0x60 DUP5 ADD MLOAD PUSH2 0x2724 SWAP4 SWAP3 PUSH2 0x534 SWAP3 SWAP1 SWAP2 DUP4 SWAP2 PUSH2 0x168B JUMP JUMPDEST PUSH1 0xE0 DUP3 ADD DUP2 SWAP1 MSTORE PUSH2 0x120 DUP3 ADD MLOAD PUSH2 0x273B SWAP2 SWAP1 PUSH2 0x16EE JUMP JUMPDEST PUSH2 0x100 DUP3 ADD DUP2 SWAP1 MSTORE ISZERO PUSH2 0x1B76 JUMPI PUSH1 0x4 DUP1 DUP10 ADD SLOAD PUSH2 0x100 DUP4 ADD MLOAD PUSH1 0x40 DUP1 MLOAD PUSH4 0x83D92C9 PUSH1 0xE3 SHL DUP2 MSTORE SWAP4 DUP5 ADD SWAP2 SWAP1 SWAP2 MSTORE PUSH1 0x1 PUSH1 0x1 PUSH1 0xA0 SHL SUB DUP11 DUP2 AND PUSH1 0x24 DUP6 ADD MSTORE PUSH1 0x44 DUP5 ADD DUP9 SWAP1 MSTORE SWAP1 MLOAD SWAP2 AND SWAP2 PUSH4 0x41EC9648 SWAP2 PUSH1 0x64 DUP1 DUP4 ADD SWAP3 PUSH1 0x0 SWAP3 SWAP2 SWAP1 DUP3 SWAP1 SUB ADD DUP2 DUP4 DUP8 DUP1 EXTCODESIZE ISZERO DUP1 ISZERO PUSH2 0x27AB JUMPI PUSH1 0x0 DUP1 REVERT JUMPDEST POP GAS CALL ISZERO DUP1 ISZERO PUSH2 0x27BF JUMPI RETURNDATASIZE PUSH1 0x0 DUP1 RETURNDATACOPY RETURNDATASIZE PUSH1 0x0 REVERT JUMPDEST POP POP POP POP POP JUMPDEST POP POP POP POP POP POP POP JUMP JUMPDEST PUSH1 0x0 DUP3 ISZERO DUP1 PUSH2 0x27DB JUMPI POP DUP2 ISZERO JUMPDEST ISZERO PUSH2 0x27E8 JUMPI POP PUSH1 0x0 PUSH2 0x16E8 JUMP JUMPDEST DUP2 PUSH12 0x19D971E4FE8401E74000000 NOT DUP2 PUSH2 0x27FE JUMPI INVALID JUMPDEST DIV DUP4 GT ISZERO PUSH2 0x2853 JUMPI PUSH1 0x40 DUP1 MLOAD PUSH3 0x461BCD PUSH1 0xE5 SHL DUP2 MSTORE PUSH1 0x20 PUSH1 0x4 DUP3 ADD MSTORE PUSH1 0x1C PUSH1 0x24 DUP3 ADD MSTORE PUSH32 0x4D4154485F4D554C5449504C49434154494F4E5F4F564552464C4F5700000000 PUSH1 0x44 DUP3 ADD MSTORE SWAP1 MLOAD SWAP1 DUP2 SWAP1 SUB PUSH1 0x64 ADD SWAP1 REVERT JUMPDEST PUSH12 0x33B2E3C9FD0803CE8000000 PUSH1 0x2 DUP2 PUSH2 0x175A JUMP JUMPDEST SLOAD PUSH1 0x40 SHR PUSH2 0xFFFF AND SWAP1 JUMP JUMPDEST PUSH1 0x60 PUSH2 0x28C8 DUP3 PUSH1 0x40 MLOAD DUP1 PUSH1 0x40 ADD PUSH1 0x40 MSTORE DUP1 PUSH1 0x20 DUP2 MSTORE PUSH1 0x20 ADD PUSH32 0x5361666545524332303A206C6F772D6C6576656C2063616C6C206661696C6564 DUP2 MSTORE POP DUP6 PUSH1 0x1 PUSH1 0x1 PUSH1 0xA0 SHL SUB AND PUSH2 0x2B78 SWAP1 SWAP3 SWAP2 SWAP1 PUSH4 0xFFFFFFFF AND JUMP JUMPDEST DUP1 MLOAD SWAP1 SWAP2 POP ISZERO PUSH2 0x2924 JUMPI DUP1 DUP1 PUSH1 0x20 ADD SWAP1 MLOAD PUSH1 0x20 DUP2 LT ISZERO PUSH2 0x28E7 JUMPI PUSH1 0x0 DUP1 REVERT JUMPDEST POP MLOAD PUSH2 0x2924 JUMPI PUSH1 0x40 MLOAD PUSH3 0x461BCD PUSH1 0xE5 SHL DUP2 MSTORE PUSH1 0x4 ADD DUP1 DUP1 PUSH1 0x20 ADD DUP3 DUP2 SUB DUP3 MSTORE PUSH1 0x2A DUP2 MSTORE PUSH1 0x20 ADD DUP1 PUSH2 0x308E PUSH1 0x2A SWAP2 CODECOPY PUSH1 0x40 ADD SWAP2 POP POP PUSH1 0x40 MLOAD DUP1 SWAP2 SUB SWAP1 REVERT JUMPDEST POP POP POP JUMP JUMPDEST PUSH1 0x0 DUP2 DUP4 PUSH2 0x2978 JUMPI PUSH1 0x40 MLOAD PUSH3 0x461BCD PUSH1 0xE5 SHL DUP2 MSTORE PUSH1 0x20 PUSH1 0x4 DUP3 ADD DUP2 DUP2 MSTORE DUP4 MLOAD PUSH1 0x24 DUP5 ADD MSTORE DUP4 MLOAD SWAP1 SWAP3 DUP4 SWAP3 PUSH1 0x44 SWAP1 SWAP2 ADD SWAP2 SWAP1 DUP6 ADD SWAP1 DUP1 DUP4 DUP4 PUSH1 0x0 DUP4 ISZERO PUSH2 0x1E72 JUMPI DUP2 DUP2 ADD MLOAD DUP4 DUP3 ADD MSTORE PUSH1 0x20 ADD PUSH2 0x1E5A JUMP JUMPDEST POP PUSH1 0x0 DUP4 DUP6 DUP2 PUSH2 0x2984 JUMPI INVALID JUMPDEST DIV SWAP6 SWAP5 POP POP POP POP POP JUMP JUMPDEST PUSH1 0x0 DUP2 PUSH2 0x29DA JUMPI PUSH1 0x40 DUP1 MLOAD PUSH3 0x461BCD PUSH1 0xE5 SHL DUP2 MSTORE PUSH1 0x20 PUSH1 0x4 DUP3 ADD MSTORE PUSH1 0x15 PUSH1 0x24 DUP3 ADD MSTORE PUSH21 0x4D4154485F4449564953494F4E5F42595F5A45524F PUSH1 0x58 SHL PUSH1 0x44 DUP3 ADD MSTORE SWAP1 MLOAD SWAP1 DUP2 SWAP1 SUB PUSH1 0x64 ADD SWAP1 REVERT JUMPDEST PUSH1 0x2 DUP3 DIV PUSH8 0xDE0B6B3A7640000 DUP2 NOT DIV DUP5 GT ISZERO PUSH2 0x2A3E JUMPI PUSH1 0x40 DUP1 MLOAD PUSH3 0x461BCD PUSH1 0xE5 SHL DUP2 MSTORE PUSH1 0x20 PUSH1 0x4 DUP3 ADD MSTORE PUSH1 0x1C PUSH1 0x24 DUP3 ADD MSTORE PUSH32 0x4D4154485F4D554C5449504C49434154494F4E5F4F564552464C4F5700000000 PUSH1 0x44 DUP3 ADD MSTORE SWAP1 MLOAD SWAP1 DUP2 SWAP1 SUB PUSH1 0x64 ADD SWAP1 REVERT JUMPDEST DUP3 DUP2 PUSH8 0xDE0B6B3A7640000 DUP7 MUL ADD DUP2 PUSH2 0x23C6 JUMPI INVALID JUMPDEST PUSH1 0x0 DUP1 PUSH2 0x2A67 TIMESTAMP PUSH5 0xFFFFFFFFFF DUP6 AND PUSH2 0x19E7 JUMP JUMPDEST SWAP1 POP PUSH2 0x2A91 PUSH2 0x2A74 PUSH2 0x2B87 JUMP JUMPDEST PUSH4 0x1E13380 PUSH2 0x2A83 DUP8 DUP6 PUSH2 0x21BC JUMP JUMPDEST DUP2 PUSH2 0x2A8A JUMPI INVALID JUMPDEST DIV SWAP1 PUSH2 0x168B JUMP JUMPDEST SWAP5 SWAP4 POP POP POP POP JUMP JUMPDEST PUSH1 0x0 PUSH2 0x16E5 DUP4 DUP4 TIMESTAMP JUMPDEST PUSH1 0x0 DUP1 PUSH2 0x2AB6 DUP4 PUSH5 0xFFFFFFFFFF DUP7 AND PUSH2 0x19E7 JUMP JUMPDEST SWAP1 POP DUP1 PUSH2 0x2ACD JUMPI PUSH2 0x2AC5 PUSH2 0x2B87 JUMP JUMPDEST SWAP2 POP POP PUSH2 0x22E1 JUMP JUMPDEST PUSH1 0x0 NOT DUP2 ADD PUSH1 0x0 PUSH1 0x2 DUP4 GT PUSH2 0x2AE3 JUMPI PUSH1 0x0 PUSH2 0x2AE8 JUMP JUMPDEST PUSH1 0x2 DUP4 SUB JUMPDEST SWAP1 POP PUSH4 0x1E13380 DUP8 DIV PUSH1 0x0 PUSH2 0x2AFD DUP3 DUP1 PUSH2 0x27CE JUMP JUMPDEST SWAP1 POP PUSH1 0x0 PUSH2 0x2B0B DUP3 DUP5 PUSH2 0x27CE JUMP JUMPDEST SWAP1 POP PUSH1 0x0 PUSH1 0x2 PUSH2 0x2B1F DUP5 PUSH2 0x195C DUP11 DUP11 PUSH2 0x21BC JUMP JUMPDEST DUP2 PUSH2 0x2B26 JUMPI INVALID JUMPDEST DIV SWAP1 POP PUSH1 0x0 PUSH1 0x6 PUSH2 0x2B3D DUP5 PUSH2 0x195C DUP10 DUP2 DUP14 DUP14 PUSH2 0x21BC JUMP JUMPDEST DUP2 PUSH2 0x2B44 JUMPI INVALID JUMPDEST DIV SWAP1 POP PUSH2 0x2B68 DUP2 PUSH2 0x2B62 DUP5 DUP2 PUSH2 0x2B5A DUP11 DUP15 PUSH2 0x21BC JUMP JUMPDEST PUSH2 0x2B62 PUSH2 0x2B87 JUMP JUMPDEST SWAP1 PUSH2 0x168B JUMP JUMPDEST SWAP13 SWAP12 POP POP POP POP POP POP POP POP POP POP POP POP JUMP JUMPDEST PUSH1 0x60 PUSH2 0x22DE DUP5 DUP5 PUSH1 0x0 DUP6 PUSH2 0x2B97 JUMP JUMPDEST PUSH12 0x33B2E3C9FD0803CE8000000 SWAP1 JUMP JUMPDEST PUSH1 0x60 DUP3 SELFBALANCE LT ISZERO PUSH2 0x2BD8 JUMPI PUSH1 0x40 MLOAD PUSH3 0x461BCD PUSH1 0xE5 SHL DUP2 MSTORE PUSH1 0x4 ADD DUP1 DUP1 PUSH1 0x20 ADD DUP3 DUP2 SUB DUP3 MSTORE PUSH1 0x26 DUP2 MSTORE PUSH1 0x20 ADD DUP1 PUSH2 0x2FB8 PUSH1 0x26 SWAP2 CODECOPY PUSH1 0x40 ADD SWAP2 POP POP PUSH1 0x40 MLOAD DUP1 SWAP2 SUB SWAP1 REVERT JUMPDEST PUSH2 0x2BE1 DUP6 PUSH2 0x2CF3 JUMP JUMPDEST PUSH2 0x2C32 JUMPI PUSH1 0x40 DUP1 MLOAD PUSH3 0x461BCD PUSH1 0xE5 SHL DUP2 MSTORE PUSH1 0x20 PUSH1 0x4 DUP3 ADD MSTORE PUSH1 0x1D PUSH1 0x24 DUP3 ADD MSTORE PUSH32 0x416464726573733A2063616C6C20746F206E6F6E2D636F6E7472616374000000 PUSH1 0x44 DUP3 ADD MSTORE SWAP1 MLOAD SWAP1 DUP2 SWAP1 SUB PUSH1 0x64 ADD SWAP1 REVERT JUMPDEST PUSH1 0x0 PUSH1 0x60 DUP7 PUSH1 0x1 PUSH1 0x1 PUSH1 0xA0 SHL SUB AND DUP6 DUP8 PUSH1 0x40 MLOAD DUP1 DUP3 DUP1 MLOAD SWAP1 PUSH1 0x20 ADD SWAP1 DUP1 DUP4 DUP4 JUMPDEST PUSH1 0x20 DUP4 LT PUSH2 0x2C71 JUMPI DUP1 MLOAD DUP3 MSTORE PUSH1 0x1F NOT SWAP1 SWAP3 ADD SWAP2 PUSH1 0x20 SWAP2 DUP3 ADD SWAP2 ADD PUSH2 0x2C52 JUMP JUMPDEST PUSH1 0x1 DUP4 PUSH1 0x20 SUB PUSH2 0x100 EXP SUB DUP1 NOT DUP3 MLOAD AND DUP2 DUP5 MLOAD AND DUP1 DUP3 OR DUP6 MSTORE POP POP POP POP POP POP SWAP1 POP ADD SWAP2 POP POP PUSH1 0x0 PUSH1 0x40 MLOAD DUP1 DUP4 SUB DUP2 DUP6 DUP8 GAS CALL SWAP3 POP POP POP RETURNDATASIZE DUP1 PUSH1 0x0 DUP2 EQ PUSH2 0x2CD3 JUMPI PUSH1 0x40 MLOAD SWAP2 POP PUSH1 0x1F NOT PUSH1 0x3F RETURNDATASIZE ADD AND DUP3 ADD PUSH1 0x40 MSTORE RETURNDATASIZE DUP3 MSTORE RETURNDATASIZE PUSH1 0x0 PUSH1 0x20 DUP5 ADD RETURNDATACOPY PUSH2 0x2CD8 JUMP JUMPDEST PUSH1 0x60 SWAP2 POP JUMPDEST POP SWAP2 POP SWAP2 POP PUSH2 0x2CE8 DUP3 DUP3 DUP7 PUSH2 0x2CF9 JUMP JUMPDEST SWAP8 SWAP7 POP POP POP POP POP POP POP JUMP JUMPDEST EXTCODESIZE ISZERO ISZERO SWAP1 JUMP JUMPDEST PUSH1 0x60 DUP4 ISZERO PUSH2 0x2D08 JUMPI POP DUP2 PUSH2 0x22E1 JUMP JUMPDEST DUP3 MLOAD ISZERO PUSH2 0x2D18 JUMPI DUP3 MLOAD DUP1 DUP5 PUSH1 0x20 ADD REVERT JUMPDEST PUSH1 0x40 MLOAD PUSH3 0x461BCD PUSH1 0xE5 SHL DUP2 MSTORE PUSH1 0x20 PUSH1 0x4 DUP3 ADD DUP2 DUP2 MSTORE DUP5 MLOAD PUSH1 0x24 DUP5 ADD MSTORE DUP5 MLOAD DUP6 SWAP4 SWAP2 SWAP3 DUP4 SWAP3 PUSH1 0x44 ADD SWAP2 SWAP1 DUP6 ADD SWAP1 DUP1 DUP4 DUP4 PUSH1 0x0 DUP4 ISZERO PUSH2 0x1E72 JUMPI DUP2 DUP2 ADD MLOAD DUP4 DUP3 ADD MSTORE PUSH1 0x20 ADD PUSH2 0x1E5A JUMP JUMPDEST PUSH1 0x40 MLOAD DUP1 PUSH2 0x320 ADD PUSH1 0x40 MSTORE DUP1 PUSH1 0x0 DUP2 MSTORE PUSH1 0x20 ADD PUSH1 0x0 DUP2 MSTORE PUSH1 0x20 ADD PUSH1 0x0 DUP2 MSTORE PUSH1 0x20 ADD PUSH1 0x0 DUP2 MSTORE PUSH1 0x20 ADD PUSH1 0x0 DUP2 MSTORE PUSH1 0x20 ADD PUSH1 0x0 DUP2 MSTORE PUSH1 0x20 ADD PUSH1 0x0 DUP2 MSTORE PUSH1 0x20 ADD PUSH1 0x0 DUP2 MSTORE PUSH1 0x20 ADD PUSH1 0x0 DUP2 MSTORE PUSH1 0x20 ADD PUSH1 0x0 DUP2 MSTORE PUSH1 0x20 ADD PUSH1 0x0 DUP2 MSTORE PUSH1 0x20 ADD PUSH1 0x0 DUP2 MSTORE PUSH1 0x20 ADD PUSH1 0x0 PUSH1 0x1 PUSH1 0x1 PUSH1 0xA0 SHL SUB AND DUP2 MSTORE PUSH1 0x20 ADD PUSH1 0x0 ISZERO ISZERO DUP2 MSTORE PUSH1 0x20 ADD PUSH1 0x0 PUSH1 0x2 DUP2 GT ISZERO PUSH2 0x2DE5 JUMPI INVALID JUMPDEST DUP2 MSTORE PUSH1 0x20 ADD PUSH1 0x0 DUP2 MSTORE PUSH1 0x20 ADD PUSH1 0x60 DUP2 MSTORE PUSH1 0x20 ADD PUSH1 0x0 DUP2 MSTORE PUSH1 0x20 ADD PUSH1 0x0 DUP2 MSTORE PUSH1 0x20 ADD PUSH1 0x0 DUP2 MSTORE PUSH1 0x20 ADD PUSH1 0x0 DUP2 MSTORE PUSH1 0x20 ADD PUSH1 0x0 DUP2 MSTORE PUSH1 0x20 ADD PUSH1 0x0 DUP2 MSTORE PUSH1 0x20 ADD PUSH1 0x0 DUP2 MSTORE PUSH1 0x20 ADD PUSH1 0x0 DUP2 MSTORE POP SWAP1 JUMP JUMPDEST PUSH1 0x40 MLOAD DUP1 PUSH2 0x240 ADD PUSH1 0x40 MSTORE DUP1 PUSH1 0x0 DUP2 MSTORE PUSH1 0x20 ADD PUSH1 0x0 DUP2 MSTORE PUSH1 0x20 ADD PUSH1 0x0 DUP2 MSTORE PUSH1 0x20 ADD PUSH1 0x0 DUP2 MSTORE PUSH1 0x20 ADD PUSH1 0x0 DUP2 MSTORE PUSH1 0x20 ADD PUSH1 0x0 DUP2 MSTORE PUSH1 0x20 ADD PUSH1 0x0 DUP2 MSTORE PUSH1 0x20 ADD PUSH1 0x0 DUP2 MSTORE PUSH1 0x20 ADD PUSH1 0x0 DUP2 MSTORE PUSH1 0x20 ADD PUSH1 0x0 DUP2 MSTORE PUSH1 0x20 ADD PUSH1 0x0 DUP2 MSTORE PUSH1 0x20 ADD PUSH1 0x0 DUP2 MSTORE PUSH1 0x20 ADD PUSH1 0x0 DUP2 MSTORE PUSH1 0x20 ADD PUSH1 0x0 DUP2 MSTORE PUSH1 0x20 ADD PUSH1 0x0 ISZERO ISZERO DUP2 MSTORE PUSH1 0x20 ADD PUSH1 0x0 PUSH1 0x1 PUSH1 0x1 PUSH1 0xA0 SHL SUB AND DUP2 MSTORE PUSH1 0x20 ADD PUSH1 0x0 ISZERO ISZERO DUP2 MSTORE PUSH1 0x20 ADD PUSH1 0x0 ISZERO ISZERO DUP2 MSTORE POP SWAP1 JUMP JUMPDEST PUSH1 0x40 MLOAD DUP1 PUSH1 0xE0 ADD PUSH1 0x40 MSTORE DUP1 PUSH1 0x0 DUP2 MSTORE PUSH1 0x20 ADD PUSH1 0x0 DUP2 MSTORE PUSH1 0x20 ADD PUSH1 0x0 DUP2 MSTORE PUSH1 0x20 ADD PUSH1 0x0 DUP2 MSTORE PUSH1 0x20 ADD PUSH1 0x0 DUP2 MSTORE PUSH1 0x20 ADD PUSH1 0x0 DUP2 MSTORE PUSH1 0x20 ADD PUSH1 0x0 DUP2 MSTORE POP SWAP1 JUMP JUMPDEST PUSH1 0x40 MLOAD DUP1 PUSH2 0x100 ADD PUSH1 0x40 MSTORE DUP1 PUSH1 0x0 PUSH1 0x1 PUSH1 0x1 PUSH1 0xA0 SHL SUB AND DUP2 MSTORE PUSH1 0x20 ADD PUSH1 0x0 DUP2 MSTORE PUSH1 0x20 ADD PUSH1 0x0 DUP2 MSTORE PUSH1 0x20 ADD PUSH1 0x0 DUP2 MSTORE PUSH1 0x20 ADD PUSH1 0x0 DUP2 MSTORE PUSH1 0x20 ADD PUSH1 0x0 DUP2 MSTORE PUSH1 0x20 ADD PUSH1 0x0 DUP2 MSTORE PUSH1 0x20 ADD PUSH1 0x0 DUP2 MSTORE POP SWAP1 JUMP JUMPDEST PUSH1 0x40 MLOAD DUP1 PUSH2 0x160 ADD PUSH1 0x40 MSTORE DUP1 PUSH1 0x0 DUP2 MSTORE PUSH1 0x20 ADD PUSH1 0x0 DUP2 MSTORE PUSH1 0x20 ADD PUSH1 0x0 DUP2 MSTORE PUSH1 0x20 ADD PUSH1 0x0 DUP2 MSTORE PUSH1 0x20 ADD PUSH1 0x0 DUP2 MSTORE PUSH1 0x20 ADD PUSH1 0x0 DUP2 MSTORE PUSH1 0x20 ADD PUSH1 0x0 DUP2 MSTORE PUSH1 0x20 ADD PUSH1 0x0 DUP2 MSTORE PUSH1 0x20 ADD PUSH1 0x0 DUP2 MSTORE PUSH1 0x20 ADD PUSH1 0x0 DUP2 MSTORE PUSH1 0x20 ADD PUSH1 0x0 PUSH5 0xFFFFFFFFFF AND DUP2 MSTORE POP SWAP1 JUMP INVALID COINBASE PUSH5 0x6472657373 GASPRICE KECCAK256 PUSH10 0x6E73756666696369656E PUSH21 0x2062616C616E636520666F722063616C6C50657263 PUSH6 0x6E7461676520 0x4D PUSH2 0x7468 KECCAK256 GASPRICE KECCAK256 0x4D PUSH22 0x6C7469706C69636174696F6E206572726F7253504543 0x49 CHAINID 0x49 GASLIMIT DIFFICULTY KECCAK256 NUMBER SSTORE MSTORE MSTORE GASLIMIT 0x4E NUMBER MSIZE KECCAK256 0x4E 0x4F SLOAD KECCAK256 TIMESTAMP 0x4F MSTORE MSTORE 0x4F JUMPI GASLIMIT DIFFICULTY KECCAK256 TIMESTAMP MSIZE KECCAK256 SSTORE MSTORE8 GASLIMIT MSTORE MSTORE8 PUSH2 0x6665 0x4D PUSH2 0x7468 GASPRICE KECCAK256 PUSH14 0x756C7469706C69636174696F6E20 PUSH16 0x766572666C6F774E4F5420454E4F5547 0x48 KECCAK256 0x4C 0x49 MLOAD SSTORE 0x49 DIFFICULTY 0x49 SLOAD MSIZE KECCAK256 SLOAD 0x4F KECCAK256 0x4C 0x49 MLOAD SSTORE 0x49 DIFFICULTY COINBASE SLOAD GASLIMIT 0x48 GASLIMIT COINBASE 0x4C SLOAD 0x48 KECCAK256 CHAINID COINBASE NUMBER SLOAD 0x4F MSTORE KECCAK256 0x4E 0x4F SLOAD KECCAK256 TIMESTAMP GASLIMIT 0x4C 0x4F JUMPI KECCAK256 SLOAD 0x48 MSTORE GASLIMIT MSTORE8 0x48 0x4F 0x4C DIFFICULTY MSTORE8 PUSH2 0x6665 GASLIMIT MSTORE NUMBER ORIGIN ADDRESS GASPRICE KECCAK256 GASLIMIT MSTORE NUMBER ORIGIN ADDRESS KECCAK256 PUSH16 0x7065726174696F6E20646964206E6F74 KECCAK256 PUSH20 0x756363656564A2646970667358221220EA5981F0 0x23 0xA6 0x2D NUMBER PUSH16 0xE1E2E382B2EB575D324EEAF733A8A26F REVERT 0xCF 0xEB 0xB6 0x23 SSTORE GASPRICE PUSH5 0x736F6C6343 STOP SMOD STOP STOP CALLER "
		},
		"gasEstimates": {
			"creation": {
				"codeDepositCost": "2505000",
				"executionCost": "7709",
				"totalCost": "2512709"
			},
			"external": {
				"LIQUIDATION_MANAGER_REVISION()": "198",
				"liquidationCall(address,address,address,uint256,bool)": "infinite"
			},
			"internal": {
				"_calculateAvailableCollateralToLiquidate(struct DataTypes.InstrumentData storage pointer,struct DataTypes.InstrumentData storage pointer,address,address,uint256,uint256)": "infinite",
				"getRevision()": "infinite"
			}
		},
		"methodIdentifiers": {
			"LIQUIDATION_MANAGER_REVISION()": "698b08b7",
			"liquidationCall(address,address,address,uint256,bool)": "00a718a9"
		}
	},
	"abi": [
		{
			"anonymous": false,
			"inputs": [
				{
					"indexed": true,
					"internalType": "address",
					"name": "reserve",
					"type": "address"
				},
				{
					"indexed": true,
					"internalType": "address",
					"name": "user",
					"type": "address"
				}
			],
			"name": "InstrumentUsedAsCollateralDisabled",
			"type": "event"
		},
		{
			"anonymous": false,
			"inputs": [
				{
					"indexed": true,
					"internalType": "address",
					"name": "reserve",
					"type": "address"
				},
				{
					"indexed": true,
					"internalType": "address",
					"name": "user",
					"type": "address"
				}
			],
			"name": "InstrumentUsedAsCollateralEnabled",
			"type": "event"
		},
		{
			"anonymous": false,
			"inputs": [
				{
					"indexed": true,
					"internalType": "address",
					"name": "collateral",
					"type": "address"
				},
				{
					"indexed": true,
					"internalType": "address",
					"name": "principal",
					"type": "address"
				},
				{
					"indexed": true,
					"internalType": "address",
					"name": "user",
					"type": "address"
				},
				{
					"indexed": false,
					"internalType": "uint256",
					"name": "debtToCover",
					"type": "uint256"
				},
				{
					"indexed": false,
					"internalType": "uint256",
					"name": "liquidatedCollateralAmount",
					"type": "uint256"
				},
				{
					"indexed": false,
					"internalType": "address",
					"name": "liquidator",
					"type": "address"
				},
				{
					"indexed": false,
					"internalType": "bool",
					"name": "receiveAToken",
					"type": "bool"
				}
			],
			"name": "LiquidationCall",
			"type": "event"
		},
		{
			"anonymous": false,
			"inputs": [
				{
					"indexed": false,
					"internalType": "address",
					"name": "user",
					"type": "address"
				},
				{
					"indexed": false,
					"internalType": "address",
					"name": "collateralAsset",
					"type": "address"
				},
				{
					"indexed": false,
					"internalType": "address",
					"name": "debtAsset",
					"type": "address"
				},
				{
					"indexed": false,
					"internalType": "uint256",
					"name": "userPlatformFee",
					"type": "uint256"
				},
				{
					"indexed": false,
					"internalType": "uint256",
					"name": "maxLiquidatablePlatformFee",
					"type": "uint256"
				},
				{
					"indexed": false,
					"internalType": "uint256",
					"name": "platformFeeLiquidated",
					"type": "uint256"
				},
				{
					"indexed": false,
					"internalType": "uint256",
					"name": "maxCollateralToLiquidateForPlatformFee",
					"type": "uint256"
				}
			],
			"name": "PlatformFeeLiquidated",
			"type": "event"
		},
		{
			"anonymous": false,
			"inputs": [
				{
					"indexed": false,
					"internalType": "address",
					"name": "user",
					"type": "address"
				},
				{
					"indexed": false,
					"internalType": "address",
					"name": "collateralAsset",
					"type": "address"
				},
				{
					"indexed": false,
					"internalType": "address",
					"name": "debtAsset",
					"type": "address"
				},
				{
					"indexed": false,
					"internalType": "uint256",
					"name": "userReserveFee",
					"type": "uint256"
				},
				{
					"indexed": false,
					"internalType": "uint256",
					"name": "maxLiquidatableReserveFee",
					"type": "uint256"
				},
				{
					"indexed": false,
					"internalType": "uint256",
					"name": "reserveFeeLiquidated",
					"type": "uint256"
				},
				{
					"indexed": false,
					"internalType": "uint256",
					"name": "maxCollateralToLiquidateForReserveFee",
					"type": "uint256"
				}
			],
			"name": "ReserveFeeLiquidated",
			"type": "event"
		},
		{
			"inputs": [],
			"name": "LIQUIDATION_MANAGER_REVISION",
			"outputs": [
				{
					"internalType": "uint256",
					"name": "",
					"type": "uint256"
				}
			],
			"stateMutability": "view",
			"type": "function"
		},
		{
			"inputs": [
				{
					"internalType": "address",
					"name": "collateralAsset",
					"type": "address"
				},
				{
					"internalType": "address",
					"name": "debtAsset",
					"type": "address"
				},
				{
					"internalType": "address",
					"name": "user",
					"type": "address"
				},
				{
					"internalType": "uint256",
					"name": "debtToCover",
					"type": "uint256"
				},
				{
					"internalType": "bool",
					"name": "receiveIToken",
					"type": "bool"
				}
			],
			"name": "liquidationCall",
			"outputs": [
				{
					"internalType": "uint256",
					"name": "",
					"type": "uint256"
				},
				{
					"internalType": "string",
					"name": "",
					"type": "string"
				}
			],
			"stateMutability": "nonpayable",
			"type": "function"
		}
	]
}