{
	"data": {
		"bytecode": {
			"linkReferences": {},
			"object": "60806040523480156200001157600080fd5b5060405162001d5a38038062001d5a8339810160408190526200003491620000e6565b600062000040620000e2565b600080546001600160a01b0319166001600160a01b0383169081178255604051929350917f8be0079c531659141344cd1fd0a4f28419497f9722a3daafe3b4186f6b6457e0908290a3506001600160a01b038116620000bc5760405162461bcd60e51b8152600401620000b39062000116565b60405180910390fd5b600180546001600160a01b0319166001600160a01b039290921691909117905562000173565b3390565b600060208284031215620000f8578081fd5b81516001600160a01b03811681146200010f578182fd5b9392505050565b60208082526037908201527f534947482046696e616e6365203a20496e76616c6964205f534947484e46544260408201527f6f6f7374657273436f6e74726163742061646472657373000000000000000000606082015260800190565b611bd780620001836000396000f3fe608060405234801561001057600080fd5b50600436106100a95760003560e01c80638da5cb5b116100715780638da5cb5b14610110578063a574971014610125578063c4638bf01461013a578063db17e11d1461014d578063eae6897914610160578063f2fde38b14610182576100a9565b80631cd5d37f146100ae578063241b1b72146100cd57806356a6d9ef146100e257806364404a4a146100f5578063715018a614610108575b600080fd5b6100b6610195565b6040516100c49291906116fe565b60405180910390f35b6100e06100db3660046115c0565b610239565b005b6100e06100f036600461144e565b610348565b6100e06101033660046115c0565b61044e565b6100e0610586565b610118610605565b6040516100c49190611663565b61012d610614565b6040516100c49190611ad3565b6100e0610148366004611507565b61069a565b6100e061015b3660046113c7565b6109c9565b61017361016e366004611499565b610a46565b6040516100c493929190611adc565b6100e06101903660046113c7565b610b56565b60606000600360009054906101000a90046001600160a01b03166001600160a01b03166395d89b416040518163ffffffff1660e01b815260040160006040518083038186803b1580156101e757600080fd5b505afa1580156101fb573d6000803e3d6000fd5b505050506040513d6000823e601f3d908101601f1916820160405261022391908101906114d4565b60035490936001600160a01b0390911692509050565b60018110156102635760405162461bcd60e51b815260040161025a90611937565b60405180910390fd5b6006826040516102739190611647565b9081526040519081900360200190205460ff166102a25760405162461bcd60e51b815260040161025a9061197a565b806004836040516102b39190611647565b9081526040519081900360200190205410156102e15760405162461bcd60e51b815260040161025a906118ef565b60006103106004846040516102f69190611647565b908152604051908190036020019020600201548390610c0c565b905061031c3382610c4f565b610327338484610e09565b6103435760405162461bcd60e51b815260040161025a90611832565b505050565b610350611179565b6000546001600160a01b0390811691161461037d5760405162461bcd60e51b815260040161025a90611a20565b6001600160a01b0382166103a35760405162461bcd60e51b815260040161025a906118b8565b6103ab610614565b8111156103ca5760405162461bcd60e51b815260040161025a906117d3565b60035460405163a9059cbb60e01b81526001600160a01b039091169063a9059cbb906103fc90859085906004016116d2565b602060405180830381600087803b15801561041657600080fd5b505af115801561042a573d6000803e3d6000fd5b505050506040513d601f19601f820116820180604052508101906103439190611479565b610456611179565b6000546001600160a01b039081169116146104835760405162461bcd60e51b815260040161025a90611a20565b6001546040516329cb8b6960e01b81526001600160a01b03909116906329cb8b69906104b39085906004016116eb565b60206040518083038186803b1580156104cb57600080fd5b505afa1580156104df573d6000803e3d6000fd5b505050506040513d601f19601f820116820180604052508101906105039190611479565b61051f5760405162461bcd60e51b815260040161025a90611a8c565b60068260405161052f9190611647565b9081526040519081900360200190205460ff1661055e5760405162461bcd60e51b815260040161025a90611869565b8060048360405161056f9190611647565b908152604051908190036020019020600201555050565b61058e611179565b6000546001600160a01b039081169116146105bb5760405162461bcd60e51b815260040161025a90611a20565b600080546040516001600160a01b03909116907f8be0079c531659141344cd1fd0a4f28419497f9722a3daafe3b4186f6b6457e0908390a3600080546001600160a01b0319169055565b6000546001600160a01b031690565b6003546040516370a0823160e01b81526000916001600160a01b0316906370a0823190610645903090600401611663565b60206040518083038186803b15801561065d57600080fd5b505afa158015610671573d6000803e3d6000fd5b505050506040513d601f19601f820116820180604052508101906106959190611603565b905090565b6106a2611179565b6000546001600160a01b039081169116146106cf5760405162461bcd60e51b815260040161025a90611a20565b6001546040516329cb8b6960e01b81526001600160a01b03909116906329cb8b69906106ff9085906004016116eb565b60206040518083038186803b15801561071757600080fd5b505afa15801561072b573d6000803e3d6000fd5b505050506040513d601f19601f8201168201806040525081019061074f9190611479565b61076b5760405162461bcd60e51b815260040161025a90611a8c565b60068260405161077b9190611647565b9081526040519081900360200190205460ff166107c55760016006836040516107a49190611647565b908152604051908190036020019020805491151560ff199092169190911790555b60005b815181101561034357600560008383815181106107e157fe5b60209081029190910181015182528101919091526040016000205460ff161561081c5760405162461bcd60e51b815260040161025a90611a55565b60015482516060916001600160a01b031690634aaed3789085908590811061084057fe5b60200260200101516040518263ffffffff1660e01b81526004016108649190611ad3565b60006040518083038186803b15801561087c57600080fd5b505afa158015610890573d6000803e3d6000fd5b505050506040513d6000823e601f3d908101601f191682016040526108b891908101906113ff565b91506108c69050818561117d565b6108e25760405162461bcd60e51b815260040161025a90611728565b6004816040516108f29190611647565b908152602001604051809103902060010183838151811061090f57fe5b60209081029190910181015182546001818101855560009485529290932090920191909155604051610960919060049061094a908590611647565b9081526040519081900360200190205490611191565b6004826040516109709190611647565b90815260200160405180910390206000018190555060016005600085858151811061099757fe5b6020908102919091018101518252810191909152604001600020805460ff1916911515919091179055506001016107c8565b6109d1611179565b6000546001600160a01b039081169116146109fe5760405162461bcd60e51b815260040161025a90611a20565b6001600160a01b038116610a245760405162461bcd60e51b815260040161025a906118b8565b600380546001600160a01b0319166001600160a01b0392909216919091179055565b6001546040516329cb8b6960e01b8152600091829182916001600160a01b0316906329cb8b6990610a7b9087906004016116eb565b60206040518083038186803b158015610a9357600080fd5b505afa158015610aa7573d6000803e3d6000fd5b505050506040513d601f19601f82011682018060405250810190610acb9190611479565b610ae75760405162461bcd60e51b815260040161025a90611a8c565b600484604051610af79190611647565b908152604051908190036020018120549350600490610b17908690611647565b9081526020016040518091039020600201549150600484604051610b3b9190611647565b90815260200160405180910390206003015490509193909250565b610b5e611179565b6000546001600160a01b03908116911614610b8b5760405162461bcd60e51b815260040161025a90611a20565b6001600160a01b038116610bb15760405162461bcd60e51b815260040161025a9061178d565b600080546040516001600160a01b03808516939216917f8be0079c531659141344cd1fd0a4f28419497f9722a3daafe3b4186f6b6457e091a3600080546001600160a01b0319166001600160a01b0392909216919091179055565b600082610c1b57506000610c49565b82820282848281610c2857fe5b0414610c465760405162461bcd60e51b815260040161025a906119df565b90505b92915050565b6003546040516370a0823160e01b81526000916001600160a01b0316906370a0823190610c80903090600401611663565b60206040518083038186803b158015610c9857600080fd5b505afa158015610cac573d6000803e3d6000fd5b505050506040513d601f19601f82011682018060405250810190610cd09190611603565b6003546040516323b872dd60e01b81529192506001600160a01b0316906323b872dd90610d0590869030908790600401611677565b602060405180830381600087803b158015610d1f57600080fd5b505af1158015610d33573d6000803e3d6000fd5b505050506040513d601f19601f82011682018060405250810190610d579190611479565b506003546040516370a0823160e01b81526000916001600160a01b0316906370a0823190610d89903090600401611663565b60206040518083038186803b158015610da157600080fd5b505afa158015610db5573d6000803e3d6000fd5b505050506040513d601f19601f82011682018060405250810190610dd99190611603565b9050610de58284611191565b8114610e035760405162461bcd60e51b815260040161025a9061175f565b50505050565b6000806000600485604051610e1e9190611647565b90815260405190819003602001902060010154905060005b8181101561116a576000600487604051610e509190611647565b90815260200160405180910390206001018281548110610e6c57fe5b6000918252602080832090910154808352600590915260409091205490915060ff168015610ed057506000600488604051610ea79190611647565b90815260200160405180910390206001018381548110610ec357fe5b9060005260206000200154115b1561116157600154600254604051632142170760e11b81526001600160a01b03928316926342842e0e92610f0d929116908c908690600401611677565b600060405180830381600087803b158015610f2757600080fd5b505af1158015610f3b573d6000803e3d6000fd5b5050600154604051635d1d7df160e11b81526001600160a01b03909116925063ba3afbe29150610f6f908490600401611ad3565b60206040518083038186803b158015610f8757600080fd5b505afa158015610f9b573d6000803e3d6000fd5b505050506040513d601f19601f82011682018060405250810190610fbf91906113e3565b6001600160a01b0316886001600160a01b031614610fef5760405162461bcd60e51b815260040161025a906119a8565b60006004886040516110019190611647565b9081526020016040518091039020600101838154811061101d57fe5b906000526020600020018190555061105660016004896040516110409190611647565b90815260405190819003602001902054906111b6565b6004886040516110669190611647565b9081526020016040518091039020600001819055506110a960016004896040516110909190611647565b9081526040519081900360200190206003015490611191565b6004886040516110b99190611647565b9081526040805160209281900383019020600301929092556000838152600590915220805460ff191690556110ef846001611191565b93507f61b08e1b390d27b14c95b62e695a61ef2a28368cbdf7e2ec5d49fbc39d2105ec88888360048b6040516111259190611647565b908152604051908190036020018120600201546111449493929161169b565b60405180910390a185841415611161576001945050505050611172565b50600101610e36565b506000925050505b9392505050565b3390565b600061118983836111f8565b159392505050565b600082820183811015610c465760405162461bcd60e51b815260040161025a906117fb565b6000610c4683836040518060400160405280601e81526020017f536166654d6174683a207375627472616374696f6e206f766572666c6f7700008152506112fb565b81518151600091849184919081111561120f575080515b60005b818110156112c15782818151811061122657fe5b602001015160f81c60f81b6001600160f81b03191684828151811061124757fe5b01602001516001600160f81b031916101561126a57600019945050505050610c49565b82818151811061127657fe5b602001015160f81c60f81b6001600160f81b03191684828151811061129757fe5b01602001516001600160f81b03191611156112b9576001945050505050610c49565b600101611212565b508151835110156112d9576000199350505050610c49565b8151835111156112ef5760019350505050610c49565b60009350505050610c49565b6000818484111561131f5760405162461bcd60e51b815260040161025a91906116eb565b505050900390565b600082601f830112611337578081fd5b813561134a61134582611b39565b611af2565b915080825283602082850101111561136157600080fd5b8060208401602084013760009082016020015292915050565b600082601f83011261138a578081fd5b815161139861134582611b39565b91508082528360208285010111156113af57600080fd5b6113c0816020840160208601611b5d565b5092915050565b6000602082840312156113d8578081fd5b8135610c4681611b89565b6000602082840312156113f4578081fd5b8151610c4681611b89565b60008060408385031215611411578081fd5b825161141c81611b89565b602084015190925067ffffffffffffffff811115611438578182fd5b6114448582860161137a565b9150509250929050565b60008060408385031215611460578182fd5b823561146b81611b89565b946020939093013593505050565b60006020828403121561148a578081fd5b81518015158114610c46578182fd5b6000602082840312156114aa578081fd5b813567ffffffffffffffff8111156114c0578182fd5b6114cc84828501611327565b949350505050565b6000602082840312156114e5578081fd5b815167ffffffffffffffff8111156114fb578182fd5b6114cc8482850161137a565b60008060408385031215611519578182fd5b823567ffffffffffffffff80821115611530578384fd5b61153c86838701611327565b9350602091508185013581811115611552578384fd5b85019050601f81018613611564578283fd5b803561157261134582611b19565b81815283810190838501858402850186018a101561158e578687fd5b8694505b838510156115b0578035835260019490940193918501918501611592565b5080955050505050509250929050565b600080604083850312156115d2578182fd5b823567ffffffffffffffff8111156115e8578283fd5b6115f485828601611327565b95602094909401359450505050565b600060208284031215611614578081fd5b5051919050565b60008151808452611633816020860160208601611b5d565b601f01601f19169290920160200192915050565b60008251611659818460208701611b5d565b9190910192915050565b6001600160a01b0391909116815260200190565b6001600160a01b039384168152919092166020820152604081019190915260600190565b6001600160a01b03851681526080602082018190526000906116bf9083018661161b565b6040830194909452506060015292915050565b6001600160a01b03929092168252602082015260400190565b600060208252610c46602083018461161b565b600060408252611711604083018561161b565b905060018060a01b03831660208301529392505050565b60208082526019908201527f426f6f73746572206f6620646966666572656e74207479706500000000000000604082015260600190565b602080825260149082015273444149207472616e73666572206661696c75726560601b604082015260600190565b60208082526026908201527f4f776e61626c653a206e6577206f776e657220697320746865207a65726f206160408201526564647265737360d01b606082015260800190565b6020808252600e908201526d125b9d985b1a5908185b5bdd5b9d60921b604082015260600190565b6020808252601b908201527f536166654d6174683a206164646974696f6e206f766572666c6f770000000000604082015260600190565b6020808252601f908201527f4661696c656420746f207472616e736665722074686520426f6f737465727300604082015260600190565b6020808252602f908201527f534947482046696e616e6365203a20426f6f737465722054797065206e6f742060408201526e1a5b9a5d1a585b1a5e9959081e595d608a1b606082015260800190565b6020808252601b908201527f496e76616c69642064657374696e6174696f6e20616464726573730000000000604082015260600190565b60208082526028908201527f44657369726564204e756d626572206f6620626f6f7374657273206e6f7420616040820152677661696c61626c6560c01b606082015260800190565b60208082526023908201527f496e76616c6964206e756d626572206f6620626f6f73746572732070726f766960408201526219195960ea1b606082015260800190565b602080825260149082015273496e76616c696420426f6f73746572205479706560601b604082015260600190565b60208082526017908201527f426f6f73746572205472616e73666572206661696c6564000000000000000000604082015260600190565b60208082526021908201527f536166654d6174683a206d756c7469706c69636174696f6e206f766572666c6f6040820152607760f81b606082015260800190565b6020808252818101527f4f776e61626c653a2063616c6c6572206973206e6f7420746865206f776e6572604082015260600190565b6020808252601e908201527f426f6f7374657220616c726561647920616464656420666f722073616c650000604082015260600190565b60208082526027908201527f534947482046696e616e6365203a204e6f7420612076616c696420426f6f73746040820152666572205479706560c81b606082015260800190565b90815260200190565b9283526020830191909152604082015260600190565b60405181810167ffffffffffffffff81118282101715611b1157600080fd5b604052919050565b600067ffffffffffffffff821115611b2f578081fd5b5060209081020190565b600067ffffffffffffffff821115611b4f578081fd5b50601f01601f191660200190565b60005b83811015611b78578181015183820152602001611b60565b83811115610e035750506000910152565b6001600160a01b0381168114611b9e57600080fd5b5056fea2646970667358221220ad08a951428979ed1b42d36d79cba4ee4698f4deebf2581b35a430c7a072b7e164736f6c63430007000033",
			"opcodes": "PUSH1 0x80 PUSH1 0x40 MSTORE CALLVALUE DUP1 ISZERO PUSH3 0x11 JUMPI PUSH1 0x0 DUP1 REVERT JUMPDEST POP PUSH1 0x40 MLOAD PUSH3 0x1D5A CODESIZE SUB DUP1 PUSH3 0x1D5A DUP4 CODECOPY DUP2 ADD PUSH1 0x40 DUP2 SWAP1 MSTORE PUSH3 0x34 SWAP2 PUSH3 0xE6 JUMP JUMPDEST PUSH1 0x0 PUSH3 0x40 PUSH3 0xE2 JUMP JUMPDEST PUSH1 0x0 DUP1 SLOAD PUSH1 0x1 PUSH1 0x1 PUSH1 0xA0 SHL SUB NOT AND PUSH1 0x1 PUSH1 0x1 PUSH1 0xA0 SHL SUB DUP4 AND SWAP1 DUP2 OR DUP3 SSTORE PUSH1 0x40 MLOAD SWAP3 SWAP4 POP SWAP2 PUSH32 0x8BE0079C531659141344CD1FD0A4F28419497F9722A3DAAFE3B4186F6B6457E0 SWAP1 DUP3 SWAP1 LOG3 POP PUSH1 0x1 PUSH1 0x1 PUSH1 0xA0 SHL SUB DUP2 AND PUSH3 0xBC JUMPI PUSH1 0x40 MLOAD PUSH3 0x461BCD PUSH1 0xE5 SHL DUP2 MSTORE PUSH1 0x4 ADD PUSH3 0xB3 SWAP1 PUSH3 0x116 JUMP JUMPDEST PUSH1 0x40 MLOAD DUP1 SWAP2 SUB SWAP1 REVERT JUMPDEST PUSH1 0x1 DUP1 SLOAD PUSH1 0x1 PUSH1 0x1 PUSH1 0xA0 SHL SUB NOT AND PUSH1 0x1 PUSH1 0x1 PUSH1 0xA0 SHL SUB SWAP3 SWAP1 SWAP3 AND SWAP2 SWAP1 SWAP2 OR SWAP1 SSTORE PUSH3 0x173 JUMP JUMPDEST CALLER SWAP1 JUMP JUMPDEST PUSH1 0x0 PUSH1 0x20 DUP3 DUP5 SUB SLT ISZERO PUSH3 0xF8 JUMPI DUP1 DUP2 REVERT JUMPDEST DUP2 MLOAD PUSH1 0x1 PUSH1 0x1 PUSH1 0xA0 SHL SUB DUP2 AND DUP2 EQ PUSH3 0x10F JUMPI DUP2 DUP3 REVERT JUMPDEST SWAP4 SWAP3 POP POP POP JUMP JUMPDEST PUSH1 0x20 DUP1 DUP3 MSTORE PUSH1 0x37 SWAP1 DUP3 ADD MSTORE PUSH32 0x534947482046696E616E6365203A20496E76616C6964205F534947484E465442 PUSH1 0x40 DUP3 ADD MSTORE PUSH32 0x6F6F7374657273436F6E74726163742061646472657373000000000000000000 PUSH1 0x60 DUP3 ADD MSTORE PUSH1 0x80 ADD SWAP1 JUMP JUMPDEST PUSH2 0x1BD7 DUP1 PUSH3 0x183 PUSH1 0x0 CODECOPY PUSH1 0x0 RETURN INVALID PUSH1 0x80 PUSH1 0x40 MSTORE CALLVALUE DUP1 ISZERO PUSH2 0x10 JUMPI PUSH1 0x0 DUP1 REVERT JUMPDEST POP PUSH1 0x4 CALLDATASIZE LT PUSH2 0xA9 JUMPI PUSH1 0x0 CALLDATALOAD PUSH1 0xE0 SHR DUP1 PUSH4 0x8DA5CB5B GT PUSH2 0x71 JUMPI DUP1 PUSH4 0x8DA5CB5B EQ PUSH2 0x110 JUMPI DUP1 PUSH4 0xA5749710 EQ PUSH2 0x125 JUMPI DUP1 PUSH4 0xC4638BF0 EQ PUSH2 0x13A JUMPI DUP1 PUSH4 0xDB17E11D EQ PUSH2 0x14D JUMPI DUP1 PUSH4 0xEAE68979 EQ PUSH2 0x160 JUMPI DUP1 PUSH4 0xF2FDE38B EQ PUSH2 0x182 JUMPI PUSH2 0xA9 JUMP JUMPDEST DUP1 PUSH4 0x1CD5D37F EQ PUSH2 0xAE JUMPI DUP1 PUSH4 0x241B1B72 EQ PUSH2 0xCD JUMPI DUP1 PUSH4 0x56A6D9EF EQ PUSH2 0xE2 JUMPI DUP1 PUSH4 0x64404A4A EQ PUSH2 0xF5 JUMPI DUP1 PUSH4 0x715018A6 EQ PUSH2 0x108 JUMPI JUMPDEST PUSH1 0x0 DUP1 REVERT JUMPDEST PUSH2 0xB6 PUSH2 0x195 JUMP JUMPDEST PUSH1 0x40 MLOAD PUSH2 0xC4 SWAP3 SWAP2 SWAP1 PUSH2 0x16FE JUMP JUMPDEST PUSH1 0x40 MLOAD DUP1 SWAP2 SUB SWAP1 RETURN JUMPDEST PUSH2 0xE0 PUSH2 0xDB CALLDATASIZE PUSH1 0x4 PUSH2 0x15C0 JUMP JUMPDEST PUSH2 0x239 JUMP JUMPDEST STOP JUMPDEST PUSH2 0xE0 PUSH2 0xF0 CALLDATASIZE PUSH1 0x4 PUSH2 0x144E JUMP JUMPDEST PUSH2 0x348 JUMP JUMPDEST PUSH2 0xE0 PUSH2 0x103 CALLDATASIZE PUSH1 0x4 PUSH2 0x15C0 JUMP JUMPDEST PUSH2 0x44E JUMP JUMPDEST PUSH2 0xE0 PUSH2 0x586 JUMP JUMPDEST PUSH2 0x118 PUSH2 0x605 JUMP JUMPDEST PUSH1 0x40 MLOAD PUSH2 0xC4 SWAP2 SWAP1 PUSH2 0x1663 JUMP JUMPDEST PUSH2 0x12D PUSH2 0x614 JUMP JUMPDEST PUSH1 0x40 MLOAD PUSH2 0xC4 SWAP2 SWAP1 PUSH2 0x1AD3 JUMP JUMPDEST PUSH2 0xE0 PUSH2 0x148 CALLDATASIZE PUSH1 0x4 PUSH2 0x1507 JUMP JUMPDEST PUSH2 0x69A JUMP JUMPDEST PUSH2 0xE0 PUSH2 0x15B CALLDATASIZE PUSH1 0x4 PUSH2 0x13C7 JUMP JUMPDEST PUSH2 0x9C9 JUMP JUMPDEST PUSH2 0x173 PUSH2 0x16E CALLDATASIZE PUSH1 0x4 PUSH2 0x1499 JUMP JUMPDEST PUSH2 0xA46 JUMP JUMPDEST PUSH1 0x40 MLOAD PUSH2 0xC4 SWAP4 SWAP3 SWAP2 SWAP1 PUSH2 0x1ADC JUMP JUMPDEST PUSH2 0xE0 PUSH2 0x190 CALLDATASIZE PUSH1 0x4 PUSH2 0x13C7 JUMP JUMPDEST PUSH2 0xB56 JUMP JUMPDEST PUSH1 0x60 PUSH1 0x0 PUSH1 0x3 PUSH1 0x0 SWAP1 SLOAD SWAP1 PUSH2 0x100 EXP SWAP1 DIV PUSH1 0x1 PUSH1 0x1 PUSH1 0xA0 SHL SUB AND PUSH1 0x1 PUSH1 0x1 PUSH1 0xA0 SHL SUB AND PUSH4 0x95D89B41 PUSH1 0x40 MLOAD DUP2 PUSH4 0xFFFFFFFF AND PUSH1 0xE0 SHL DUP2 MSTORE PUSH1 0x4 ADD PUSH1 0x0 PUSH1 0x40 MLOAD DUP1 DUP4 SUB DUP2 DUP7 DUP1 EXTCODESIZE ISZERO DUP1 ISZERO PUSH2 0x1E7 JUMPI PUSH1 0x0 DUP1 REVERT JUMPDEST POP GAS STATICCALL ISZERO DUP1 ISZERO PUSH2 0x1FB JUMPI RETURNDATASIZE PUSH1 0x0 DUP1 RETURNDATACOPY RETURNDATASIZE PUSH1 0x0 REVERT JUMPDEST POP POP POP POP PUSH1 0x40 MLOAD RETURNDATASIZE PUSH1 0x0 DUP3 RETURNDATACOPY PUSH1 0x1F RETURNDATASIZE SWAP1 DUP2 ADD PUSH1 0x1F NOT AND DUP3 ADD PUSH1 0x40 MSTORE PUSH2 0x223 SWAP2 SWAP1 DUP2 ADD SWAP1 PUSH2 0x14D4 JUMP JUMPDEST PUSH1 0x3 SLOAD SWAP1 SWAP4 PUSH1 0x1 PUSH1 0x1 PUSH1 0xA0 SHL SUB SWAP1 SWAP2 AND SWAP3 POP SWAP1 POP JUMP JUMPDEST PUSH1 0x1 DUP2 LT ISZERO PUSH2 0x263 JUMPI PUSH1 0x40 MLOAD PUSH3 0x461BCD PUSH1 0xE5 SHL DUP2 MSTORE PUSH1 0x4 ADD PUSH2 0x25A SWAP1 PUSH2 0x1937 JUMP JUMPDEST PUSH1 0x40 MLOAD DUP1 SWAP2 SUB SWAP1 REVERT JUMPDEST PUSH1 0x6 DUP3 PUSH1 0x40 MLOAD PUSH2 0x273 SWAP2 SWAP1 PUSH2 0x1647 JUMP JUMPDEST SWAP1 DUP2 MSTORE PUSH1 0x40 MLOAD SWAP1 DUP2 SWAP1 SUB PUSH1 0x20 ADD SWAP1 KECCAK256 SLOAD PUSH1 0xFF AND PUSH2 0x2A2 JUMPI PUSH1 0x40 MLOAD PUSH3 0x461BCD PUSH1 0xE5 SHL DUP2 MSTORE PUSH1 0x4 ADD PUSH2 0x25A SWAP1 PUSH2 0x197A JUMP JUMPDEST DUP1 PUSH1 0x4 DUP4 PUSH1 0x40 MLOAD PUSH2 0x2B3 SWAP2 SWAP1 PUSH2 0x1647 JUMP JUMPDEST SWAP1 DUP2 MSTORE PUSH1 0x40 MLOAD SWAP1 DUP2 SWAP1 SUB PUSH1 0x20 ADD SWAP1 KECCAK256 SLOAD LT ISZERO PUSH2 0x2E1 JUMPI PUSH1 0x40 MLOAD PUSH3 0x461BCD PUSH1 0xE5 SHL DUP2 MSTORE PUSH1 0x4 ADD PUSH2 0x25A SWAP1 PUSH2 0x18EF JUMP JUMPDEST PUSH1 0x0 PUSH2 0x310 PUSH1 0x4 DUP5 PUSH1 0x40 MLOAD PUSH2 0x2F6 SWAP2 SWAP1 PUSH2 0x1647 JUMP JUMPDEST SWAP1 DUP2 MSTORE PUSH1 0x40 MLOAD SWAP1 DUP2 SWAP1 SUB PUSH1 0x20 ADD SWAP1 KECCAK256 PUSH1 0x2 ADD SLOAD DUP4 SWAP1 PUSH2 0xC0C JUMP JUMPDEST SWAP1 POP PUSH2 0x31C CALLER DUP3 PUSH2 0xC4F JUMP JUMPDEST PUSH2 0x327 CALLER DUP5 DUP5 PUSH2 0xE09 JUMP JUMPDEST PUSH2 0x343 JUMPI PUSH1 0x40 MLOAD PUSH3 0x461BCD PUSH1 0xE5 SHL DUP2 MSTORE PUSH1 0x4 ADD PUSH2 0x25A SWAP1 PUSH2 0x1832 JUMP JUMPDEST POP POP POP JUMP JUMPDEST PUSH2 0x350 PUSH2 0x1179 JUMP JUMPDEST PUSH1 0x0 SLOAD PUSH1 0x1 PUSH1 0x1 PUSH1 0xA0 SHL SUB SWAP1 DUP2 AND SWAP2 AND EQ PUSH2 0x37D JUMPI PUSH1 0x40 MLOAD PUSH3 0x461BCD PUSH1 0xE5 SHL DUP2 MSTORE PUSH1 0x4 ADD PUSH2 0x25A SWAP1 PUSH2 0x1A20 JUMP JUMPDEST PUSH1 0x1 PUSH1 0x1 PUSH1 0xA0 SHL SUB DUP3 AND PUSH2 0x3A3 JUMPI PUSH1 0x40 MLOAD PUSH3 0x461BCD PUSH1 0xE5 SHL DUP2 MSTORE PUSH1 0x4 ADD PUSH2 0x25A SWAP1 PUSH2 0x18B8 JUMP JUMPDEST PUSH2 0x3AB PUSH2 0x614 JUMP JUMPDEST DUP2 GT ISZERO PUSH2 0x3CA JUMPI PUSH1 0x40 MLOAD PUSH3 0x461BCD PUSH1 0xE5 SHL DUP2 MSTORE PUSH1 0x4 ADD PUSH2 0x25A SWAP1 PUSH2 0x17D3 JUMP JUMPDEST PUSH1 0x3 SLOAD PUSH1 0x40 MLOAD PUSH4 0xA9059CBB PUSH1 0xE0 SHL DUP2 MSTORE PUSH1 0x1 PUSH1 0x1 PUSH1 0xA0 SHL SUB SWAP1 SWAP2 AND SWAP1 PUSH4 0xA9059CBB SWAP1 PUSH2 0x3FC SWAP1 DUP6 SWAP1 DUP6 SWAP1 PUSH1 0x4 ADD PUSH2 0x16D2 JUMP JUMPDEST PUSH1 0x20 PUSH1 0x40 MLOAD DUP1 DUP4 SUB DUP2 PUSH1 0x0 DUP8 DUP1 EXTCODESIZE ISZERO DUP1 ISZERO PUSH2 0x416 JUMPI PUSH1 0x0 DUP1 REVERT JUMPDEST POP GAS CALL ISZERO DUP1 ISZERO PUSH2 0x42A JUMPI RETURNDATASIZE PUSH1 0x0 DUP1 RETURNDATACOPY RETURNDATASIZE PUSH1 0x0 REVERT JUMPDEST POP POP POP POP PUSH1 0x40 MLOAD RETURNDATASIZE PUSH1 0x1F NOT PUSH1 0x1F DUP3 ADD AND DUP3 ADD DUP1 PUSH1 0x40 MSTORE POP DUP2 ADD SWAP1 PUSH2 0x343 SWAP2 SWAP1 PUSH2 0x1479 JUMP JUMPDEST PUSH2 0x456 PUSH2 0x1179 JUMP JUMPDEST PUSH1 0x0 SLOAD PUSH1 0x1 PUSH1 0x1 PUSH1 0xA0 SHL SUB SWAP1 DUP2 AND SWAP2 AND EQ PUSH2 0x483 JUMPI PUSH1 0x40 MLOAD PUSH3 0x461BCD PUSH1 0xE5 SHL DUP2 MSTORE PUSH1 0x4 ADD PUSH2 0x25A SWAP1 PUSH2 0x1A20 JUMP JUMPDEST PUSH1 0x1 SLOAD PUSH1 0x40 MLOAD PUSH4 0x29CB8B69 PUSH1 0xE0 SHL DUP2 MSTORE PUSH1 0x1 PUSH1 0x1 PUSH1 0xA0 SHL SUB SWAP1 SWAP2 AND SWAP1 PUSH4 0x29CB8B69 SWAP1 PUSH2 0x4B3 SWAP1 DUP6 SWAP1 PUSH1 0x4 ADD PUSH2 0x16EB JUMP JUMPDEST PUSH1 0x20 PUSH1 0x40 MLOAD DUP1 DUP4 SUB DUP2 DUP7 DUP1 EXTCODESIZE ISZERO DUP1 ISZERO PUSH2 0x4CB JUMPI PUSH1 0x0 DUP1 REVERT JUMPDEST POP GAS STATICCALL ISZERO DUP1 ISZERO PUSH2 0x4DF JUMPI RETURNDATASIZE PUSH1 0x0 DUP1 RETURNDATACOPY RETURNDATASIZE PUSH1 0x0 REVERT JUMPDEST POP POP POP POP PUSH1 0x40 MLOAD RETURNDATASIZE PUSH1 0x1F NOT PUSH1 0x1F DUP3 ADD AND DUP3 ADD DUP1 PUSH1 0x40 MSTORE POP DUP2 ADD SWAP1 PUSH2 0x503 SWAP2 SWAP1 PUSH2 0x1479 JUMP JUMPDEST PUSH2 0x51F JUMPI PUSH1 0x40 MLOAD PUSH3 0x461BCD PUSH1 0xE5 SHL DUP2 MSTORE PUSH1 0x4 ADD PUSH2 0x25A SWAP1 PUSH2 0x1A8C JUMP JUMPDEST PUSH1 0x6 DUP3 PUSH1 0x40 MLOAD PUSH2 0x52F SWAP2 SWAP1 PUSH2 0x1647 JUMP JUMPDEST SWAP1 DUP2 MSTORE PUSH1 0x40 MLOAD SWAP1 DUP2 SWAP1 SUB PUSH1 0x20 ADD SWAP1 KECCAK256 SLOAD PUSH1 0xFF AND PUSH2 0x55E JUMPI PUSH1 0x40 MLOAD PUSH3 0x461BCD PUSH1 0xE5 SHL DUP2 MSTORE PUSH1 0x4 ADD PUSH2 0x25A SWAP1 PUSH2 0x1869 JUMP JUMPDEST DUP1 PUSH1 0x4 DUP4 PUSH1 0x40 MLOAD PUSH2 0x56F SWAP2 SWAP1 PUSH2 0x1647 JUMP JUMPDEST SWAP1 DUP2 MSTORE PUSH1 0x40 MLOAD SWAP1 DUP2 SWAP1 SUB PUSH1 0x20 ADD SWAP1 KECCAK256 PUSH1 0x2 ADD SSTORE POP POP JUMP JUMPDEST PUSH2 0x58E PUSH2 0x1179 JUMP JUMPDEST PUSH1 0x0 SLOAD PUSH1 0x1 PUSH1 0x1 PUSH1 0xA0 SHL SUB SWAP1 DUP2 AND SWAP2 AND EQ PUSH2 0x5BB JUMPI PUSH1 0x40 MLOAD PUSH3 0x461BCD PUSH1 0xE5 SHL DUP2 MSTORE PUSH1 0x4 ADD PUSH2 0x25A SWAP1 PUSH2 0x1A20 JUMP JUMPDEST PUSH1 0x0 DUP1 SLOAD PUSH1 0x40 MLOAD PUSH1 0x1 PUSH1 0x1 PUSH1 0xA0 SHL SUB SWAP1 SWAP2 AND SWAP1 PUSH32 0x8BE0079C531659141344CD1FD0A4F28419497F9722A3DAAFE3B4186F6B6457E0 SWAP1 DUP4 SWAP1 LOG3 PUSH1 0x0 DUP1 SLOAD PUSH1 0x1 PUSH1 0x1 PUSH1 0xA0 SHL SUB NOT AND SWAP1 SSTORE JUMP JUMPDEST PUSH1 0x0 SLOAD PUSH1 0x1 PUSH1 0x1 PUSH1 0xA0 SHL SUB AND SWAP1 JUMP JUMPDEST PUSH1 0x3 SLOAD PUSH1 0x40 MLOAD PUSH4 0x70A08231 PUSH1 0xE0 SHL DUP2 MSTORE PUSH1 0x0 SWAP2 PUSH1 0x1 PUSH1 0x1 PUSH1 0xA0 SHL SUB AND SWAP1 PUSH4 0x70A08231 SWAP1 PUSH2 0x645 SWAP1 ADDRESS SWAP1 PUSH1 0x4 ADD PUSH2 0x1663 JUMP JUMPDEST PUSH1 0x20 PUSH1 0x40 MLOAD DUP1 DUP4 SUB DUP2 DUP7 DUP1 EXTCODESIZE ISZERO DUP1 ISZERO PUSH2 0x65D JUMPI PUSH1 0x0 DUP1 REVERT JUMPDEST POP GAS STATICCALL ISZERO DUP1 ISZERO PUSH2 0x671 JUMPI RETURNDATASIZE PUSH1 0x0 DUP1 RETURNDATACOPY RETURNDATASIZE PUSH1 0x0 REVERT JUMPDEST POP POP POP POP PUSH1 0x40 MLOAD RETURNDATASIZE PUSH1 0x1F NOT PUSH1 0x1F DUP3 ADD AND DUP3 ADD DUP1 PUSH1 0x40 MSTORE POP DUP2 ADD SWAP1 PUSH2 0x695 SWAP2 SWAP1 PUSH2 0x1603 JUMP JUMPDEST SWAP1 POP SWAP1 JUMP JUMPDEST PUSH2 0x6A2 PUSH2 0x1179 JUMP JUMPDEST PUSH1 0x0 SLOAD PUSH1 0x1 PUSH1 0x1 PUSH1 0xA0 SHL SUB SWAP1 DUP2 AND SWAP2 AND EQ PUSH2 0x6CF JUMPI PUSH1 0x40 MLOAD PUSH3 0x461BCD PUSH1 0xE5 SHL DUP2 MSTORE PUSH1 0x4 ADD PUSH2 0x25A SWAP1 PUSH2 0x1A20 JUMP JUMPDEST PUSH1 0x1 SLOAD PUSH1 0x40 MLOAD PUSH4 0x29CB8B69 PUSH1 0xE0 SHL DUP2 MSTORE PUSH1 0x1 PUSH1 0x1 PUSH1 0xA0 SHL SUB SWAP1 SWAP2 AND SWAP1 PUSH4 0x29CB8B69 SWAP1 PUSH2 0x6FF SWAP1 DUP6 SWAP1 PUSH1 0x4 ADD PUSH2 0x16EB JUMP JUMPDEST PUSH1 0x20 PUSH1 0x40 MLOAD DUP1 DUP4 SUB DUP2 DUP7 DUP1 EXTCODESIZE ISZERO DUP1 ISZERO PUSH2 0x717 JUMPI PUSH1 0x0 DUP1 REVERT JUMPDEST POP GAS STATICCALL ISZERO DUP1 ISZERO PUSH2 0x72B JUMPI RETURNDATASIZE PUSH1 0x0 DUP1 RETURNDATACOPY RETURNDATASIZE PUSH1 0x0 REVERT JUMPDEST POP POP POP POP PUSH1 0x40 MLOAD RETURNDATASIZE PUSH1 0x1F NOT PUSH1 0x1F DUP3 ADD AND DUP3 ADD DUP1 PUSH1 0x40 MSTORE POP DUP2 ADD SWAP1 PUSH2 0x74F SWAP2 SWAP1 PUSH2 0x1479 JUMP JUMPDEST PUSH2 0x76B JUMPI PUSH1 0x40 MLOAD PUSH3 0x461BCD PUSH1 0xE5 SHL DUP2 MSTORE PUSH1 0x4 ADD PUSH2 0x25A SWAP1 PUSH2 0x1A8C JUMP JUMPDEST PUSH1 0x6 DUP3 PUSH1 0x40 MLOAD PUSH2 0x77B SWAP2 SWAP1 PUSH2 0x1647 JUMP JUMPDEST SWAP1 DUP2 MSTORE PUSH1 0x40 MLOAD SWAP1 DUP2 SWAP1 SUB PUSH1 0x20 ADD SWAP1 KECCAK256 SLOAD PUSH1 0xFF AND PUSH2 0x7C5 JUMPI PUSH1 0x1 PUSH1 0x6 DUP4 PUSH1 0x40 MLOAD PUSH2 0x7A4 SWAP2 SWAP1 PUSH2 0x1647 JUMP JUMPDEST SWAP1 DUP2 MSTORE PUSH1 0x40 MLOAD SWAP1 DUP2 SWAP1 SUB PUSH1 0x20 ADD SWAP1 KECCAK256 DUP1 SLOAD SWAP2 ISZERO ISZERO PUSH1 0xFF NOT SWAP1 SWAP3 AND SWAP2 SWAP1 SWAP2 OR SWAP1 SSTORE JUMPDEST PUSH1 0x0 JUMPDEST DUP2 MLOAD DUP2 LT ISZERO PUSH2 0x343 JUMPI PUSH1 0x5 PUSH1 0x0 DUP4 DUP4 DUP2 MLOAD DUP2 LT PUSH2 0x7E1 JUMPI INVALID JUMPDEST PUSH1 0x20 SWAP1 DUP2 MUL SWAP2 SWAP1 SWAP2 ADD DUP2 ADD MLOAD DUP3 MSTORE DUP2 ADD SWAP2 SWAP1 SWAP2 MSTORE PUSH1 0x40 ADD PUSH1 0x0 KECCAK256 SLOAD PUSH1 0xFF AND ISZERO PUSH2 0x81C JUMPI PUSH1 0x40 MLOAD PUSH3 0x461BCD PUSH1 0xE5 SHL DUP2 MSTORE PUSH1 0x4 ADD PUSH2 0x25A SWAP1 PUSH2 0x1A55 JUMP JUMPDEST PUSH1 0x1 SLOAD DUP3 MLOAD PUSH1 0x60 SWAP2 PUSH1 0x1 PUSH1 0x1 PUSH1 0xA0 SHL SUB AND SWAP1 PUSH4 0x4AAED378 SWAP1 DUP6 SWAP1 DUP6 SWAP1 DUP2 LT PUSH2 0x840 JUMPI INVALID JUMPDEST PUSH1 0x20 MUL PUSH1 0x20 ADD ADD MLOAD PUSH1 0x40 MLOAD DUP3 PUSH4 0xFFFFFFFF AND PUSH1 0xE0 SHL DUP2 MSTORE PUSH1 0x4 ADD PUSH2 0x864 SWAP2 SWAP1 PUSH2 0x1AD3 JUMP JUMPDEST PUSH1 0x0 PUSH1 0x40 MLOAD DUP1 DUP4 SUB DUP2 DUP7 DUP1 EXTCODESIZE ISZERO DUP1 ISZERO PUSH2 0x87C JUMPI PUSH1 0x0 DUP1 REVERT JUMPDEST POP GAS STATICCALL ISZERO DUP1 ISZERO PUSH2 0x890 JUMPI RETURNDATASIZE PUSH1 0x0 DUP1 RETURNDATACOPY RETURNDATASIZE PUSH1 0x0 REVERT JUMPDEST POP POP POP POP PUSH1 0x40 MLOAD RETURNDATASIZE PUSH1 0x0 DUP3 RETURNDATACOPY PUSH1 0x1F RETURNDATASIZE SWAP1 DUP2 ADD PUSH1 0x1F NOT AND DUP3 ADD PUSH1 0x40 MSTORE PUSH2 0x8B8 SWAP2 SWAP1 DUP2 ADD SWAP1 PUSH2 0x13FF JUMP JUMPDEST SWAP2 POP PUSH2 0x8C6 SWAP1 POP DUP2 DUP6 PUSH2 0x117D JUMP JUMPDEST PUSH2 0x8E2 JUMPI PUSH1 0x40 MLOAD PUSH3 0x461BCD PUSH1 0xE5 SHL DUP2 MSTORE PUSH1 0x4 ADD PUSH2 0x25A SWAP1 PUSH2 0x1728 JUMP JUMPDEST PUSH1 0x4 DUP2 PUSH1 0x40 MLOAD PUSH2 0x8F2 SWAP2 SWAP1 PUSH2 0x1647 JUMP JUMPDEST SWAP1 DUP2 MSTORE PUSH1 0x20 ADD PUSH1 0x40 MLOAD DUP1 SWAP2 SUB SWAP1 KECCAK256 PUSH1 0x1 ADD DUP4 DUP4 DUP2 MLOAD DUP2 LT PUSH2 0x90F JUMPI INVALID JUMPDEST PUSH1 0x20 SWAP1 DUP2 MUL SWAP2 SWAP1 SWAP2 ADD DUP2 ADD MLOAD DUP3 SLOAD PUSH1 0x1 DUP2 DUP2 ADD DUP6 SSTORE PUSH1 0x0 SWAP5 DUP6 MSTORE SWAP3 SWAP1 SWAP4 KECCAK256 SWAP1 SWAP3 ADD SWAP2 SWAP1 SWAP2 SSTORE PUSH1 0x40 MLOAD PUSH2 0x960 SWAP2 SWAP1 PUSH1 0x4 SWAP1 PUSH2 0x94A SWAP1 DUP6 SWAP1 PUSH2 0x1647 JUMP JUMPDEST SWAP1 DUP2 MSTORE PUSH1 0x40 MLOAD SWAP1 DUP2 SWAP1 SUB PUSH1 0x20 ADD SWAP1 KECCAK256 SLOAD SWAP1 PUSH2 0x1191 JUMP JUMPDEST PUSH1 0x4 DUP3 PUSH1 0x40 MLOAD PUSH2 0x970 SWAP2 SWAP1 PUSH2 0x1647 JUMP JUMPDEST SWAP1 DUP2 MSTORE PUSH1 0x20 ADD PUSH1 0x40 MLOAD DUP1 SWAP2 SUB SWAP1 KECCAK256 PUSH1 0x0 ADD DUP2 SWAP1 SSTORE POP PUSH1 0x1 PUSH1 0x5 PUSH1 0x0 DUP6 DUP6 DUP2 MLOAD DUP2 LT PUSH2 0x997 JUMPI INVALID JUMPDEST PUSH1 0x20 SWAP1 DUP2 MUL SWAP2 SWAP1 SWAP2 ADD DUP2 ADD MLOAD DUP3 MSTORE DUP2 ADD SWAP2 SWAP1 SWAP2 MSTORE PUSH1 0x40 ADD PUSH1 0x0 KECCAK256 DUP1 SLOAD PUSH1 0xFF NOT AND SWAP2 ISZERO ISZERO SWAP2 SWAP1 SWAP2 OR SWAP1 SSTORE POP PUSH1 0x1 ADD PUSH2 0x7C8 JUMP JUMPDEST PUSH2 0x9D1 PUSH2 0x1179 JUMP JUMPDEST PUSH1 0x0 SLOAD PUSH1 0x1 PUSH1 0x1 PUSH1 0xA0 SHL SUB SWAP1 DUP2 AND SWAP2 AND EQ PUSH2 0x9FE JUMPI PUSH1 0x40 MLOAD PUSH3 0x461BCD PUSH1 0xE5 SHL DUP2 MSTORE PUSH1 0x4 ADD PUSH2 0x25A SWAP1 PUSH2 0x1A20 JUMP JUMPDEST PUSH1 0x1 PUSH1 0x1 PUSH1 0xA0 SHL SUB DUP2 AND PUSH2 0xA24 JUMPI PUSH1 0x40 MLOAD PUSH3 0x461BCD PUSH1 0xE5 SHL DUP2 MSTORE PUSH1 0x4 ADD PUSH2 0x25A SWAP1 PUSH2 0x18B8 JUMP JUMPDEST PUSH1 0x3 DUP1 SLOAD PUSH1 0x1 PUSH1 0x1 PUSH1 0xA0 SHL SUB NOT AND PUSH1 0x1 PUSH1 0x1 PUSH1 0xA0 SHL SUB SWAP3 SWAP1 SWAP3 AND SWAP2 SWAP1 SWAP2 OR SWAP1 SSTORE JUMP JUMPDEST PUSH1 0x1 SLOAD PUSH1 0x40 MLOAD PUSH4 0x29CB8B69 PUSH1 0xE0 SHL DUP2 MSTORE PUSH1 0x0 SWAP2 DUP3 SWAP2 DUP3 SWAP2 PUSH1 0x1 PUSH1 0x1 PUSH1 0xA0 SHL SUB AND SWAP1 PUSH4 0x29CB8B69 SWAP1 PUSH2 0xA7B SWAP1 DUP8 SWAP1 PUSH1 0x4 ADD PUSH2 0x16EB JUMP JUMPDEST PUSH1 0x20 PUSH1 0x40 MLOAD DUP1 DUP4 SUB DUP2 DUP7 DUP1 EXTCODESIZE ISZERO DUP1 ISZERO PUSH2 0xA93 JUMPI PUSH1 0x0 DUP1 REVERT JUMPDEST POP GAS STATICCALL ISZERO DUP1 ISZERO PUSH2 0xAA7 JUMPI RETURNDATASIZE PUSH1 0x0 DUP1 RETURNDATACOPY RETURNDATASIZE PUSH1 0x0 REVERT JUMPDEST POP POP POP POP PUSH1 0x40 MLOAD RETURNDATASIZE PUSH1 0x1F NOT PUSH1 0x1F DUP3 ADD AND DUP3 ADD DUP1 PUSH1 0x40 MSTORE POP DUP2 ADD SWAP1 PUSH2 0xACB SWAP2 SWAP1 PUSH2 0x1479 JUMP JUMPDEST PUSH2 0xAE7 JUMPI PUSH1 0x40 MLOAD PUSH3 0x461BCD PUSH1 0xE5 SHL DUP2 MSTORE PUSH1 0x4 ADD PUSH2 0x25A SWAP1 PUSH2 0x1A8C JUMP JUMPDEST PUSH1 0x4 DUP5 PUSH1 0x40 MLOAD PUSH2 0xAF7 SWAP2 SWAP1 PUSH2 0x1647 JUMP JUMPDEST SWAP1 DUP2 MSTORE PUSH1 0x40 MLOAD SWAP1 DUP2 SWAP1 SUB PUSH1 0x20 ADD DUP2 KECCAK256 SLOAD SWAP4 POP PUSH1 0x4 SWAP1 PUSH2 0xB17 SWAP1 DUP7 SWAP1 PUSH2 0x1647 JUMP JUMPDEST SWAP1 DUP2 MSTORE PUSH1 0x20 ADD PUSH1 0x40 MLOAD DUP1 SWAP2 SUB SWAP1 KECCAK256 PUSH1 0x2 ADD SLOAD SWAP2 POP PUSH1 0x4 DUP5 PUSH1 0x40 MLOAD PUSH2 0xB3B SWAP2 SWAP1 PUSH2 0x1647 JUMP JUMPDEST SWAP1 DUP2 MSTORE PUSH1 0x20 ADD PUSH1 0x40 MLOAD DUP1 SWAP2 SUB SWAP1 KECCAK256 PUSH1 0x3 ADD SLOAD SWAP1 POP SWAP2 SWAP4 SWAP1 SWAP3 POP JUMP JUMPDEST PUSH2 0xB5E PUSH2 0x1179 JUMP JUMPDEST PUSH1 0x0 SLOAD PUSH1 0x1 PUSH1 0x1 PUSH1 0xA0 SHL SUB SWAP1 DUP2 AND SWAP2 AND EQ PUSH2 0xB8B JUMPI PUSH1 0x40 MLOAD PUSH3 0x461BCD PUSH1 0xE5 SHL DUP2 MSTORE PUSH1 0x4 ADD PUSH2 0x25A SWAP1 PUSH2 0x1A20 JUMP JUMPDEST PUSH1 0x1 PUSH1 0x1 PUSH1 0xA0 SHL SUB DUP2 AND PUSH2 0xBB1 JUMPI PUSH1 0x40 MLOAD PUSH3 0x461BCD PUSH1 0xE5 SHL DUP2 MSTORE PUSH1 0x4 ADD PUSH2 0x25A SWAP1 PUSH2 0x178D JUMP JUMPDEST PUSH1 0x0 DUP1 SLOAD PUSH1 0x40 MLOAD PUSH1 0x1 PUSH1 0x1 PUSH1 0xA0 SHL SUB DUP1 DUP6 AND SWAP4 SWAP3 AND SWAP2 PUSH32 0x8BE0079C531659141344CD1FD0A4F28419497F9722A3DAAFE3B4186F6B6457E0 SWAP2 LOG3 PUSH1 0x0 DUP1 SLOAD PUSH1 0x1 PUSH1 0x1 PUSH1 0xA0 SHL SUB NOT AND PUSH1 0x1 PUSH1 0x1 PUSH1 0xA0 SHL SUB SWAP3 SWAP1 SWAP3 AND SWAP2 SWAP1 SWAP2 OR SWAP1 SSTORE JUMP JUMPDEST PUSH1 0x0 DUP3 PUSH2 0xC1B JUMPI POP PUSH1 0x0 PUSH2 0xC49 JUMP JUMPDEST DUP3 DUP3 MUL DUP3 DUP5 DUP3 DUP2 PUSH2 0xC28 JUMPI INVALID JUMPDEST DIV EQ PUSH2 0xC46 JUMPI PUSH1 0x40 MLOAD PUSH3 0x461BCD PUSH1 0xE5 SHL DUP2 MSTORE PUSH1 0x4 ADD PUSH2 0x25A SWAP1 PUSH2 0x19DF JUMP JUMPDEST SWAP1 POP JUMPDEST SWAP3 SWAP2 POP POP JUMP JUMPDEST PUSH1 0x3 SLOAD PUSH1 0x40 MLOAD PUSH4 0x70A08231 PUSH1 0xE0 SHL DUP2 MSTORE PUSH1 0x0 SWAP2 PUSH1 0x1 PUSH1 0x1 PUSH1 0xA0 SHL SUB AND SWAP1 PUSH4 0x70A08231 SWAP1 PUSH2 0xC80 SWAP1 ADDRESS SWAP1 PUSH1 0x4 ADD PUSH2 0x1663 JUMP JUMPDEST PUSH1 0x20 PUSH1 0x40 MLOAD DUP1 DUP4 SUB DUP2 DUP7 DUP1 EXTCODESIZE ISZERO DUP1 ISZERO PUSH2 0xC98 JUMPI PUSH1 0x0 DUP1 REVERT JUMPDEST POP GAS STATICCALL ISZERO DUP1 ISZERO PUSH2 0xCAC JUMPI RETURNDATASIZE PUSH1 0x0 DUP1 RETURNDATACOPY RETURNDATASIZE PUSH1 0x0 REVERT JUMPDEST POP POP POP POP PUSH1 0x40 MLOAD RETURNDATASIZE PUSH1 0x1F NOT PUSH1 0x1F DUP3 ADD AND DUP3 ADD DUP1 PUSH1 0x40 MSTORE POP DUP2 ADD SWAP1 PUSH2 0xCD0 SWAP2 SWAP1 PUSH2 0x1603 JUMP JUMPDEST PUSH1 0x3 SLOAD PUSH1 0x40 MLOAD PUSH4 0x23B872DD PUSH1 0xE0 SHL DUP2 MSTORE SWAP2 SWAP3 POP PUSH1 0x1 PUSH1 0x1 PUSH1 0xA0 SHL SUB AND SWAP1 PUSH4 0x23B872DD SWAP1 PUSH2 0xD05 SWAP1 DUP7 SWAP1 ADDRESS SWAP1 DUP8 SWAP1 PUSH1 0x4 ADD PUSH2 0x1677 JUMP JUMPDEST PUSH1 0x20 PUSH1 0x40 MLOAD DUP1 DUP4 SUB DUP2 PUSH1 0x0 DUP8 DUP1 EXTCODESIZE ISZERO DUP1 ISZERO PUSH2 0xD1F JUMPI PUSH1 0x0 DUP1 REVERT JUMPDEST POP GAS CALL ISZERO DUP1 ISZERO PUSH2 0xD33 JUMPI RETURNDATASIZE PUSH1 0x0 DUP1 RETURNDATACOPY RETURNDATASIZE PUSH1 0x0 REVERT JUMPDEST POP POP POP POP PUSH1 0x40 MLOAD RETURNDATASIZE PUSH1 0x1F NOT PUSH1 0x1F DUP3 ADD AND DUP3 ADD DUP1 PUSH1 0x40 MSTORE POP DUP2 ADD SWAP1 PUSH2 0xD57 SWAP2 SWAP1 PUSH2 0x1479 JUMP JUMPDEST POP PUSH1 0x3 SLOAD PUSH1 0x40 MLOAD PUSH4 0x70A08231 PUSH1 0xE0 SHL DUP2 MSTORE PUSH1 0x0 SWAP2 PUSH1 0x1 PUSH1 0x1 PUSH1 0xA0 SHL SUB AND SWAP1 PUSH4 0x70A08231 SWAP1 PUSH2 0xD89 SWAP1 ADDRESS SWAP1 PUSH1 0x4 ADD PUSH2 0x1663 JUMP JUMPDEST PUSH1 0x20 PUSH1 0x40 MLOAD DUP1 DUP4 SUB DUP2 DUP7 DUP1 EXTCODESIZE ISZERO DUP1 ISZERO PUSH2 0xDA1 JUMPI PUSH1 0x0 DUP1 REVERT JUMPDEST POP GAS STATICCALL ISZERO DUP1 ISZERO PUSH2 0xDB5 JUMPI RETURNDATASIZE PUSH1 0x0 DUP1 RETURNDATACOPY RETURNDATASIZE PUSH1 0x0 REVERT JUMPDEST POP POP POP POP PUSH1 0x40 MLOAD RETURNDATASIZE PUSH1 0x1F NOT PUSH1 0x1F DUP3 ADD AND DUP3 ADD DUP1 PUSH1 0x40 MSTORE POP DUP2 ADD SWAP1 PUSH2 0xDD9 SWAP2 SWAP1 PUSH2 0x1603 JUMP JUMPDEST SWAP1 POP PUSH2 0xDE5 DUP3 DUP5 PUSH2 0x1191 JUMP JUMPDEST DUP2 EQ PUSH2 0xE03 JUMPI PUSH1 0x40 MLOAD PUSH3 0x461BCD PUSH1 0xE5 SHL DUP2 MSTORE PUSH1 0x4 ADD PUSH2 0x25A SWAP1 PUSH2 0x175F JUMP JUMPDEST POP POP POP POP JUMP JUMPDEST PUSH1 0x0 DUP1 PUSH1 0x0 PUSH1 0x4 DUP6 PUSH1 0x40 MLOAD PUSH2 0xE1E SWAP2 SWAP1 PUSH2 0x1647 JUMP JUMPDEST SWAP1 DUP2 MSTORE PUSH1 0x40 MLOAD SWAP1 DUP2 SWAP1 SUB PUSH1 0x20 ADD SWAP1 KECCAK256 PUSH1 0x1 ADD SLOAD SWAP1 POP PUSH1 0x0 JUMPDEST DUP2 DUP2 LT ISZERO PUSH2 0x116A JUMPI PUSH1 0x0 PUSH1 0x4 DUP8 PUSH1 0x40 MLOAD PUSH2 0xE50 SWAP2 SWAP1 PUSH2 0x1647 JUMP JUMPDEST SWAP1 DUP2 MSTORE PUSH1 0x20 ADD PUSH1 0x40 MLOAD DUP1 SWAP2 SUB SWAP1 KECCAK256 PUSH1 0x1 ADD DUP3 DUP2 SLOAD DUP2 LT PUSH2 0xE6C JUMPI INVALID JUMPDEST PUSH1 0x0 SWAP2 DUP3 MSTORE PUSH1 0x20 DUP1 DUP4 KECCAK256 SWAP1 SWAP2 ADD SLOAD DUP1 DUP4 MSTORE PUSH1 0x5 SWAP1 SWAP2 MSTORE PUSH1 0x40 SWAP1 SWAP2 KECCAK256 SLOAD SWAP1 SWAP2 POP PUSH1 0xFF AND DUP1 ISZERO PUSH2 0xED0 JUMPI POP PUSH1 0x0 PUSH1 0x4 DUP9 PUSH1 0x40 MLOAD PUSH2 0xEA7 SWAP2 SWAP1 PUSH2 0x1647 JUMP JUMPDEST SWAP1 DUP2 MSTORE PUSH1 0x20 ADD PUSH1 0x40 MLOAD DUP1 SWAP2 SUB SWAP1 KECCAK256 PUSH1 0x1 ADD DUP4 DUP2 SLOAD DUP2 LT PUSH2 0xEC3 JUMPI INVALID JUMPDEST SWAP1 PUSH1 0x0 MSTORE PUSH1 0x20 PUSH1 0x0 KECCAK256 ADD SLOAD GT JUMPDEST ISZERO PUSH2 0x1161 JUMPI PUSH1 0x1 SLOAD PUSH1 0x2 SLOAD PUSH1 0x40 MLOAD PUSH4 0x21421707 PUSH1 0xE1 SHL DUP2 MSTORE PUSH1 0x1 PUSH1 0x1 PUSH1 0xA0 SHL SUB SWAP3 DUP4 AND SWAP3 PUSH4 0x42842E0E SWAP3 PUSH2 0xF0D SWAP3 SWAP2 AND SWAP1 DUP13 SWAP1 DUP7 SWAP1 PUSH1 0x4 ADD PUSH2 0x1677 JUMP JUMPDEST PUSH1 0x0 PUSH1 0x40 MLOAD DUP1 DUP4 SUB DUP2 PUSH1 0x0 DUP8 DUP1 EXTCODESIZE ISZERO DUP1 ISZERO PUSH2 0xF27 JUMPI PUSH1 0x0 DUP1 REVERT JUMPDEST POP GAS CALL ISZERO DUP1 ISZERO PUSH2 0xF3B JUMPI RETURNDATASIZE PUSH1 0x0 DUP1 RETURNDATACOPY RETURNDATASIZE PUSH1 0x0 REVERT JUMPDEST POP POP PUSH1 0x1 SLOAD PUSH1 0x40 MLOAD PUSH4 0x5D1D7DF1 PUSH1 0xE1 SHL DUP2 MSTORE PUSH1 0x1 PUSH1 0x1 PUSH1 0xA0 SHL SUB SWAP1 SWAP2 AND SWAP3 POP PUSH4 0xBA3AFBE2 SWAP2 POP PUSH2 0xF6F SWAP1 DUP5 SWAP1 PUSH1 0x4 ADD PUSH2 0x1AD3 JUMP JUMPDEST PUSH1 0x20 PUSH1 0x40 MLOAD DUP1 DUP4 SUB DUP2 DUP7 DUP1 EXTCODESIZE ISZERO DUP1 ISZERO PUSH2 0xF87 JUMPI PUSH1 0x0 DUP1 REVERT JUMPDEST POP GAS STATICCALL ISZERO DUP1 ISZERO PUSH2 0xF9B JUMPI RETURNDATASIZE PUSH1 0x0 DUP1 RETURNDATACOPY RETURNDATASIZE PUSH1 0x0 REVERT JUMPDEST POP POP POP POP PUSH1 0x40 MLOAD RETURNDATASIZE PUSH1 0x1F NOT PUSH1 0x1F DUP3 ADD AND DUP3 ADD DUP1 PUSH1 0x40 MSTORE POP DUP2 ADD SWAP1 PUSH2 0xFBF SWAP2 SWAP1 PUSH2 0x13E3 JUMP JUMPDEST PUSH1 0x1 PUSH1 0x1 PUSH1 0xA0 SHL SUB AND DUP9 PUSH1 0x1 PUSH1 0x1 PUSH1 0xA0 SHL SUB AND EQ PUSH2 0xFEF JUMPI PUSH1 0x40 MLOAD PUSH3 0x461BCD PUSH1 0xE5 SHL DUP2 MSTORE PUSH1 0x4 ADD PUSH2 0x25A SWAP1 PUSH2 0x19A8 JUMP JUMPDEST PUSH1 0x0 PUSH1 0x4 DUP9 PUSH1 0x40 MLOAD PUSH2 0x1001 SWAP2 SWAP1 PUSH2 0x1647 JUMP JUMPDEST SWAP1 DUP2 MSTORE PUSH1 0x20 ADD PUSH1 0x40 MLOAD DUP1 SWAP2 SUB SWAP1 KECCAK256 PUSH1 0x1 ADD DUP4 DUP2 SLOAD DUP2 LT PUSH2 0x101D JUMPI INVALID JUMPDEST SWAP1 PUSH1 0x0 MSTORE PUSH1 0x20 PUSH1 0x0 KECCAK256 ADD DUP2 SWAP1 SSTORE POP PUSH2 0x1056 PUSH1 0x1 PUSH1 0x4 DUP10 PUSH1 0x40 MLOAD PUSH2 0x1040 SWAP2 SWAP1 PUSH2 0x1647 JUMP JUMPDEST SWAP1 DUP2 MSTORE PUSH1 0x40 MLOAD SWAP1 DUP2 SWAP1 SUB PUSH1 0x20 ADD SWAP1 KECCAK256 SLOAD SWAP1 PUSH2 0x11B6 JUMP JUMPDEST PUSH1 0x4 DUP9 PUSH1 0x40 MLOAD PUSH2 0x1066 SWAP2 SWAP1 PUSH2 0x1647 JUMP JUMPDEST SWAP1 DUP2 MSTORE PUSH1 0x20 ADD PUSH1 0x40 MLOAD DUP1 SWAP2 SUB SWAP1 KECCAK256 PUSH1 0x0 ADD DUP2 SWAP1 SSTORE POP PUSH2 0x10A9 PUSH1 0x1 PUSH1 0x4 DUP10 PUSH1 0x40 MLOAD PUSH2 0x1090 SWAP2 SWAP1 PUSH2 0x1647 JUMP JUMPDEST SWAP1 DUP2 MSTORE PUSH1 0x40 MLOAD SWAP1 DUP2 SWAP1 SUB PUSH1 0x20 ADD SWAP1 KECCAK256 PUSH1 0x3 ADD SLOAD SWAP1 PUSH2 0x1191 JUMP JUMPDEST PUSH1 0x4 DUP9 PUSH1 0x40 MLOAD PUSH2 0x10B9 SWAP2 SWAP1 PUSH2 0x1647 JUMP JUMPDEST SWAP1 DUP2 MSTORE PUSH1 0x40 DUP1 MLOAD PUSH1 0x20 SWAP3 DUP2 SWAP1 SUB DUP4 ADD SWAP1 KECCAK256 PUSH1 0x3 ADD SWAP3 SWAP1 SWAP3 SSTORE PUSH1 0x0 DUP4 DUP2 MSTORE PUSH1 0x5 SWAP1 SWAP2 MSTORE KECCAK256 DUP1 SLOAD PUSH1 0xFF NOT AND SWAP1 SSTORE PUSH2 0x10EF DUP5 PUSH1 0x1 PUSH2 0x1191 JUMP JUMPDEST SWAP4 POP PUSH32 0x61B08E1B390D27B14C95B62E695A61EF2A28368CBDF7E2EC5D49FBC39D2105EC DUP9 DUP9 DUP4 PUSH1 0x4 DUP12 PUSH1 0x40 MLOAD PUSH2 0x1125 SWAP2 SWAP1 PUSH2 0x1647 JUMP JUMPDEST SWAP1 DUP2 MSTORE PUSH1 0x40 MLOAD SWAP1 DUP2 SWAP1 SUB PUSH1 0x20 ADD DUP2 KECCAK256 PUSH1 0x2 ADD SLOAD PUSH2 0x1144 SWAP5 SWAP4 SWAP3 SWAP2 PUSH2 0x169B JUMP JUMPDEST PUSH1 0x40 MLOAD DUP1 SWAP2 SUB SWAP1 LOG1 DUP6 DUP5 EQ ISZERO PUSH2 0x1161 JUMPI PUSH1 0x1 SWAP5 POP POP POP POP POP PUSH2 0x1172 JUMP JUMPDEST POP PUSH1 0x1 ADD PUSH2 0xE36 JUMP JUMPDEST POP PUSH1 0x0 SWAP3 POP POP POP JUMPDEST SWAP4 SWAP3 POP POP POP JUMP JUMPDEST CALLER SWAP1 JUMP JUMPDEST PUSH1 0x0 PUSH2 0x1189 DUP4 DUP4 PUSH2 0x11F8 JUMP JUMPDEST ISZERO SWAP4 SWAP3 POP POP POP JUMP JUMPDEST PUSH1 0x0 DUP3 DUP3 ADD DUP4 DUP2 LT ISZERO PUSH2 0xC46 JUMPI PUSH1 0x40 MLOAD PUSH3 0x461BCD PUSH1 0xE5 SHL DUP2 MSTORE PUSH1 0x4 ADD PUSH2 0x25A SWAP1 PUSH2 0x17FB JUMP JUMPDEST PUSH1 0x0 PUSH2 0xC46 DUP4 DUP4 PUSH1 0x40 MLOAD DUP1 PUSH1 0x40 ADD PUSH1 0x40 MSTORE DUP1 PUSH1 0x1E DUP2 MSTORE PUSH1 0x20 ADD PUSH32 0x536166654D6174683A207375627472616374696F6E206F766572666C6F770000 DUP2 MSTORE POP PUSH2 0x12FB JUMP JUMPDEST DUP2 MLOAD DUP2 MLOAD PUSH1 0x0 SWAP2 DUP5 SWAP2 DUP5 SWAP2 SWAP1 DUP2 GT ISZERO PUSH2 0x120F JUMPI POP DUP1 MLOAD JUMPDEST PUSH1 0x0 JUMPDEST DUP2 DUP2 LT ISZERO PUSH2 0x12C1 JUMPI DUP3 DUP2 DUP2 MLOAD DUP2 LT PUSH2 0x1226 JUMPI INVALID JUMPDEST PUSH1 0x20 ADD ADD MLOAD PUSH1 0xF8 SHR PUSH1 0xF8 SHL PUSH1 0x1 PUSH1 0x1 PUSH1 0xF8 SHL SUB NOT AND DUP5 DUP3 DUP2 MLOAD DUP2 LT PUSH2 0x1247 JUMPI INVALID JUMPDEST ADD PUSH1 0x20 ADD MLOAD PUSH1 0x1 PUSH1 0x1 PUSH1 0xF8 SHL SUB NOT AND LT ISZERO PUSH2 0x126A JUMPI PUSH1 0x0 NOT SWAP5 POP POP POP POP POP PUSH2 0xC49 JUMP JUMPDEST DUP3 DUP2 DUP2 MLOAD DUP2 LT PUSH2 0x1276 JUMPI INVALID JUMPDEST PUSH1 0x20 ADD ADD MLOAD PUSH1 0xF8 SHR PUSH1 0xF8 SHL PUSH1 0x1 PUSH1 0x1 PUSH1 0xF8 SHL SUB NOT AND DUP5 DUP3 DUP2 MLOAD DUP2 LT PUSH2 0x1297 JUMPI INVALID JUMPDEST ADD PUSH1 0x20 ADD MLOAD PUSH1 0x1 PUSH1 0x1 PUSH1 0xF8 SHL SUB NOT AND GT ISZERO PUSH2 0x12B9 JUMPI PUSH1 0x1 SWAP5 POP POP POP POP POP PUSH2 0xC49 JUMP JUMPDEST PUSH1 0x1 ADD PUSH2 0x1212 JUMP JUMPDEST POP DUP2 MLOAD DUP4 MLOAD LT ISZERO PUSH2 0x12D9 JUMPI PUSH1 0x0 NOT SWAP4 POP POP POP POP PUSH2 0xC49 JUMP JUMPDEST DUP2 MLOAD DUP4 MLOAD GT ISZERO PUSH2 0x12EF JUMPI PUSH1 0x1 SWAP4 POP POP POP POP PUSH2 0xC49 JUMP JUMPDEST PUSH1 0x0 SWAP4 POP POP POP POP PUSH2 0xC49 JUMP JUMPDEST PUSH1 0x0 DUP2 DUP5 DUP5 GT ISZERO PUSH2 0x131F JUMPI PUSH1 0x40 MLOAD PUSH3 0x461BCD PUSH1 0xE5 SHL DUP2 MSTORE PUSH1 0x4 ADD PUSH2 0x25A SWAP2 SWAP1 PUSH2 0x16EB JUMP JUMPDEST POP POP POP SWAP1 SUB SWAP1 JUMP JUMPDEST PUSH1 0x0 DUP3 PUSH1 0x1F DUP4 ADD SLT PUSH2 0x1337 JUMPI DUP1 DUP2 REVERT JUMPDEST DUP2 CALLDATALOAD PUSH2 0x134A PUSH2 0x1345 DUP3 PUSH2 0x1B39 JUMP JUMPDEST PUSH2 0x1AF2 JUMP JUMPDEST SWAP2 POP DUP1 DUP3 MSTORE DUP4 PUSH1 0x20 DUP3 DUP6 ADD ADD GT ISZERO PUSH2 0x1361 JUMPI PUSH1 0x0 DUP1 REVERT JUMPDEST DUP1 PUSH1 0x20 DUP5 ADD PUSH1 0x20 DUP5 ADD CALLDATACOPY PUSH1 0x0 SWAP1 DUP3 ADD PUSH1 0x20 ADD MSTORE SWAP3 SWAP2 POP POP JUMP JUMPDEST PUSH1 0x0 DUP3 PUSH1 0x1F DUP4 ADD SLT PUSH2 0x138A JUMPI DUP1 DUP2 REVERT JUMPDEST DUP2 MLOAD PUSH2 0x1398 PUSH2 0x1345 DUP3 PUSH2 0x1B39 JUMP JUMPDEST SWAP2 POP DUP1 DUP3 MSTORE DUP4 PUSH1 0x20 DUP3 DUP6 ADD ADD GT ISZERO PUSH2 0x13AF JUMPI PUSH1 0x0 DUP1 REVERT JUMPDEST PUSH2 0x13C0 DUP2 PUSH1 0x20 DUP5 ADD PUSH1 0x20 DUP7 ADD PUSH2 0x1B5D JUMP JUMPDEST POP SWAP3 SWAP2 POP POP JUMP JUMPDEST PUSH1 0x0 PUSH1 0x20 DUP3 DUP5 SUB SLT ISZERO PUSH2 0x13D8 JUMPI DUP1 DUP2 REVERT JUMPDEST DUP2 CALLDATALOAD PUSH2 0xC46 DUP2 PUSH2 0x1B89 JUMP JUMPDEST PUSH1 0x0 PUSH1 0x20 DUP3 DUP5 SUB SLT ISZERO PUSH2 0x13F4 JUMPI DUP1 DUP2 REVERT JUMPDEST DUP2 MLOAD PUSH2 0xC46 DUP2 PUSH2 0x1B89 JUMP JUMPDEST PUSH1 0x0 DUP1 PUSH1 0x40 DUP4 DUP6 SUB SLT ISZERO PUSH2 0x1411 JUMPI DUP1 DUP2 REVERT JUMPDEST DUP3 MLOAD PUSH2 0x141C DUP2 PUSH2 0x1B89 JUMP JUMPDEST PUSH1 0x20 DUP5 ADD MLOAD SWAP1 SWAP3 POP PUSH8 0xFFFFFFFFFFFFFFFF DUP2 GT ISZERO PUSH2 0x1438 JUMPI DUP2 DUP3 REVERT JUMPDEST PUSH2 0x1444 DUP6 DUP3 DUP7 ADD PUSH2 0x137A JUMP JUMPDEST SWAP2 POP POP SWAP3 POP SWAP3 SWAP1 POP JUMP JUMPDEST PUSH1 0x0 DUP1 PUSH1 0x40 DUP4 DUP6 SUB SLT ISZERO PUSH2 0x1460 JUMPI DUP2 DUP3 REVERT JUMPDEST DUP3 CALLDATALOAD PUSH2 0x146B DUP2 PUSH2 0x1B89 JUMP JUMPDEST SWAP5 PUSH1 0x20 SWAP4 SWAP1 SWAP4 ADD CALLDATALOAD SWAP4 POP POP POP JUMP JUMPDEST PUSH1 0x0 PUSH1 0x20 DUP3 DUP5 SUB SLT ISZERO PUSH2 0x148A JUMPI DUP1 DUP2 REVERT JUMPDEST DUP2 MLOAD DUP1 ISZERO ISZERO DUP2 EQ PUSH2 0xC46 JUMPI DUP2 DUP3 REVERT JUMPDEST PUSH1 0x0 PUSH1 0x20 DUP3 DUP5 SUB SLT ISZERO PUSH2 0x14AA JUMPI DUP1 DUP2 REVERT JUMPDEST DUP2 CALLDATALOAD PUSH8 0xFFFFFFFFFFFFFFFF DUP2 GT ISZERO PUSH2 0x14C0 JUMPI DUP2 DUP3 REVERT JUMPDEST PUSH2 0x14CC DUP5 DUP3 DUP6 ADD PUSH2 0x1327 JUMP JUMPDEST SWAP5 SWAP4 POP POP POP POP JUMP JUMPDEST PUSH1 0x0 PUSH1 0x20 DUP3 DUP5 SUB SLT ISZERO PUSH2 0x14E5 JUMPI DUP1 DUP2 REVERT JUMPDEST DUP2 MLOAD PUSH8 0xFFFFFFFFFFFFFFFF DUP2 GT ISZERO PUSH2 0x14FB JUMPI DUP2 DUP3 REVERT JUMPDEST PUSH2 0x14CC DUP5 DUP3 DUP6 ADD PUSH2 0x137A JUMP JUMPDEST PUSH1 0x0 DUP1 PUSH1 0x40 DUP4 DUP6 SUB SLT ISZERO PUSH2 0x1519 JUMPI DUP2 DUP3 REVERT JUMPDEST DUP3 CALLDATALOAD PUSH8 0xFFFFFFFFFFFFFFFF DUP1 DUP3 GT ISZERO PUSH2 0x1530 JUMPI DUP4 DUP5 REVERT JUMPDEST PUSH2 0x153C DUP7 DUP4 DUP8 ADD PUSH2 0x1327 JUMP JUMPDEST SWAP4 POP PUSH1 0x20 SWAP2 POP DUP2 DUP6 ADD CALLDATALOAD DUP2 DUP2 GT ISZERO PUSH2 0x1552 JUMPI DUP4 DUP5 REVERT JUMPDEST DUP6 ADD SWAP1 POP PUSH1 0x1F DUP2 ADD DUP7 SGT PUSH2 0x1564 JUMPI DUP3 DUP4 REVERT JUMPDEST DUP1 CALLDATALOAD PUSH2 0x1572 PUSH2 0x1345 DUP3 PUSH2 0x1B19 JUMP JUMPDEST DUP2 DUP2 MSTORE DUP4 DUP2 ADD SWAP1 DUP4 DUP6 ADD DUP6 DUP5 MUL DUP6 ADD DUP7 ADD DUP11 LT ISZERO PUSH2 0x158E JUMPI DUP7 DUP8 REVERT JUMPDEST DUP7 SWAP5 POP JUMPDEST DUP4 DUP6 LT ISZERO PUSH2 0x15B0 JUMPI DUP1 CALLDATALOAD DUP4 MSTORE PUSH1 0x1 SWAP5 SWAP1 SWAP5 ADD SWAP4 SWAP2 DUP6 ADD SWAP2 DUP6 ADD PUSH2 0x1592 JUMP JUMPDEST POP DUP1 SWAP6 POP POP POP POP POP POP SWAP3 POP SWAP3 SWAP1 POP JUMP JUMPDEST PUSH1 0x0 DUP1 PUSH1 0x40 DUP4 DUP6 SUB SLT ISZERO PUSH2 0x15D2 JUMPI DUP2 DUP3 REVERT JUMPDEST DUP3 CALLDATALOAD PUSH8 0xFFFFFFFFFFFFFFFF DUP2 GT ISZERO PUSH2 0x15E8 JUMPI DUP3 DUP4 REVERT JUMPDEST PUSH2 0x15F4 DUP6 DUP3 DUP7 ADD PUSH2 0x1327 JUMP JUMPDEST SWAP6 PUSH1 0x20 SWAP5 SWAP1 SWAP5 ADD CALLDATALOAD SWAP5 POP POP POP POP JUMP JUMPDEST PUSH1 0x0 PUSH1 0x20 DUP3 DUP5 SUB SLT ISZERO PUSH2 0x1614 JUMPI DUP1 DUP2 REVERT JUMPDEST POP MLOAD SWAP2 SWAP1 POP JUMP JUMPDEST PUSH1 0x0 DUP2 MLOAD DUP1 DUP5 MSTORE PUSH2 0x1633 DUP2 PUSH1 0x20 DUP7 ADD PUSH1 0x20 DUP7 ADD PUSH2 0x1B5D JUMP JUMPDEST PUSH1 0x1F ADD PUSH1 0x1F NOT AND SWAP3 SWAP1 SWAP3 ADD PUSH1 0x20 ADD SWAP3 SWAP2 POP POP JUMP JUMPDEST PUSH1 0x0 DUP3 MLOAD PUSH2 0x1659 DUP2 DUP5 PUSH1 0x20 DUP8 ADD PUSH2 0x1B5D JUMP JUMPDEST SWAP2 SWAP1 SWAP2 ADD SWAP3 SWAP2 POP POP JUMP JUMPDEST PUSH1 0x1 PUSH1 0x1 PUSH1 0xA0 SHL SUB SWAP2 SWAP1 SWAP2 AND DUP2 MSTORE PUSH1 0x20 ADD SWAP1 JUMP JUMPDEST PUSH1 0x1 PUSH1 0x1 PUSH1 0xA0 SHL SUB SWAP4 DUP5 AND DUP2 MSTORE SWAP2 SWAP1 SWAP3 AND PUSH1 0x20 DUP3 ADD MSTORE PUSH1 0x40 DUP2 ADD SWAP2 SWAP1 SWAP2 MSTORE PUSH1 0x60 ADD SWAP1 JUMP JUMPDEST PUSH1 0x1 PUSH1 0x1 PUSH1 0xA0 SHL SUB DUP6 AND DUP2 MSTORE PUSH1 0x80 PUSH1 0x20 DUP3 ADD DUP2 SWAP1 MSTORE PUSH1 0x0 SWAP1 PUSH2 0x16BF SWAP1 DUP4 ADD DUP7 PUSH2 0x161B JUMP JUMPDEST PUSH1 0x40 DUP4 ADD SWAP5 SWAP1 SWAP5 MSTORE POP PUSH1 0x60 ADD MSTORE SWAP3 SWAP2 POP POP JUMP JUMPDEST PUSH1 0x1 PUSH1 0x1 PUSH1 0xA0 SHL SUB SWAP3 SWAP1 SWAP3 AND DUP3 MSTORE PUSH1 0x20 DUP3 ADD MSTORE PUSH1 0x40 ADD SWAP1 JUMP JUMPDEST PUSH1 0x0 PUSH1 0x20 DUP3 MSTORE PUSH2 0xC46 PUSH1 0x20 DUP4 ADD DUP5 PUSH2 0x161B JUMP JUMPDEST PUSH1 0x0 PUSH1 0x40 DUP3 MSTORE PUSH2 0x1711 PUSH1 0x40 DUP4 ADD DUP6 PUSH2 0x161B JUMP JUMPDEST SWAP1 POP PUSH1 0x1 DUP1 PUSH1 0xA0 SHL SUB DUP4 AND PUSH1 0x20 DUP4 ADD MSTORE SWAP4 SWAP3 POP POP POP JUMP JUMPDEST PUSH1 0x20 DUP1 DUP3 MSTORE PUSH1 0x19 SWAP1 DUP3 ADD MSTORE PUSH32 0x426F6F73746572206F6620646966666572656E74207479706500000000000000 PUSH1 0x40 DUP3 ADD MSTORE PUSH1 0x60 ADD SWAP1 JUMP JUMPDEST PUSH1 0x20 DUP1 DUP3 MSTORE PUSH1 0x14 SWAP1 DUP3 ADD MSTORE PUSH20 0x444149207472616E73666572206661696C757265 PUSH1 0x60 SHL PUSH1 0x40 DUP3 ADD MSTORE PUSH1 0x60 ADD SWAP1 JUMP JUMPDEST PUSH1 0x20 DUP1 DUP3 MSTORE PUSH1 0x26 SWAP1 DUP3 ADD MSTORE PUSH32 0x4F776E61626C653A206E6577206F776E657220697320746865207A65726F2061 PUSH1 0x40 DUP3 ADD MSTORE PUSH6 0x646472657373 PUSH1 0xD0 SHL PUSH1 0x60 DUP3 ADD MSTORE PUSH1 0x80 ADD SWAP1 JUMP JUMPDEST PUSH1 0x20 DUP1 DUP3 MSTORE PUSH1 0xE SWAP1 DUP3 ADD MSTORE PUSH14 0x125B9D985B1A5908185B5BDD5B9D PUSH1 0x92 SHL PUSH1 0x40 DUP3 ADD MSTORE PUSH1 0x60 ADD SWAP1 JUMP JUMPDEST PUSH1 0x20 DUP1 DUP3 MSTORE PUSH1 0x1B SWAP1 DUP3 ADD MSTORE PUSH32 0x536166654D6174683A206164646974696F6E206F766572666C6F770000000000 PUSH1 0x40 DUP3 ADD MSTORE PUSH1 0x60 ADD SWAP1 JUMP JUMPDEST PUSH1 0x20 DUP1 DUP3 MSTORE PUSH1 0x1F SWAP1 DUP3 ADD MSTORE PUSH32 0x4661696C656420746F207472616E736665722074686520426F6F737465727300 PUSH1 0x40 DUP3 ADD MSTORE PUSH1 0x60 ADD SWAP1 JUMP JUMPDEST PUSH1 0x20 DUP1 DUP3 MSTORE PUSH1 0x2F SWAP1 DUP3 ADD MSTORE PUSH32 0x534947482046696E616E6365203A20426F6F737465722054797065206E6F7420 PUSH1 0x40 DUP3 ADD MSTORE PUSH15 0x1A5B9A5D1A585B1A5E9959081E595D PUSH1 0x8A SHL PUSH1 0x60 DUP3 ADD MSTORE PUSH1 0x80 ADD SWAP1 JUMP JUMPDEST PUSH1 0x20 DUP1 DUP3 MSTORE PUSH1 0x1B SWAP1 DUP3 ADD MSTORE PUSH32 0x496E76616C69642064657374696E6174696F6E20616464726573730000000000 PUSH1 0x40 DUP3 ADD MSTORE PUSH1 0x60 ADD SWAP1 JUMP JUMPDEST PUSH1 0x20 DUP1 DUP3 MSTORE PUSH1 0x28 SWAP1 DUP3 ADD MSTORE PUSH32 0x44657369726564204E756D626572206F6620626F6F7374657273206E6F742061 PUSH1 0x40 DUP3 ADD MSTORE PUSH8 0x7661696C61626C65 PUSH1 0xC0 SHL PUSH1 0x60 DUP3 ADD MSTORE PUSH1 0x80 ADD SWAP1 JUMP JUMPDEST PUSH1 0x20 DUP1 DUP3 MSTORE PUSH1 0x23 SWAP1 DUP3 ADD MSTORE PUSH32 0x496E76616C6964206E756D626572206F6620626F6F73746572732070726F7669 PUSH1 0x40 DUP3 ADD MSTORE PUSH3 0x191959 PUSH1 0xEA SHL PUSH1 0x60 DUP3 ADD MSTORE PUSH1 0x80 ADD SWAP1 JUMP JUMPDEST PUSH1 0x20 DUP1 DUP3 MSTORE PUSH1 0x14 SWAP1 DUP3 ADD MSTORE PUSH20 0x496E76616C696420426F6F737465722054797065 PUSH1 0x60 SHL PUSH1 0x40 DUP3 ADD MSTORE PUSH1 0x60 ADD SWAP1 JUMP JUMPDEST PUSH1 0x20 DUP1 DUP3 MSTORE PUSH1 0x17 SWAP1 DUP3 ADD MSTORE PUSH32 0x426F6F73746572205472616E73666572206661696C6564000000000000000000 PUSH1 0x40 DUP3 ADD MSTORE PUSH1 0x60 ADD SWAP1 JUMP JUMPDEST PUSH1 0x20 DUP1 DUP3 MSTORE PUSH1 0x21 SWAP1 DUP3 ADD MSTORE PUSH32 0x536166654D6174683A206D756C7469706C69636174696F6E206F766572666C6F PUSH1 0x40 DUP3 ADD MSTORE PUSH1 0x77 PUSH1 0xF8 SHL PUSH1 0x60 DUP3 ADD MSTORE PUSH1 0x80 ADD SWAP1 JUMP JUMPDEST PUSH1 0x20 DUP1 DUP3 MSTORE DUP2 DUP2 ADD MSTORE PUSH32 0x4F776E61626C653A2063616C6C6572206973206E6F7420746865206F776E6572 PUSH1 0x40 DUP3 ADD MSTORE PUSH1 0x60 ADD SWAP1 JUMP JUMPDEST PUSH1 0x20 DUP1 DUP3 MSTORE PUSH1 0x1E SWAP1 DUP3 ADD MSTORE PUSH32 0x426F6F7374657220616C726561647920616464656420666F722073616C650000 PUSH1 0x40 DUP3 ADD MSTORE PUSH1 0x60 ADD SWAP1 JUMP JUMPDEST PUSH1 0x20 DUP1 DUP3 MSTORE PUSH1 0x27 SWAP1 DUP3 ADD MSTORE PUSH32 0x534947482046696E616E6365203A204E6F7420612076616C696420426F6F7374 PUSH1 0x40 DUP3 ADD MSTORE PUSH7 0x65722054797065 PUSH1 0xC8 SHL PUSH1 0x60 DUP3 ADD MSTORE PUSH1 0x80 ADD SWAP1 JUMP JUMPDEST SWAP1 DUP2 MSTORE PUSH1 0x20 ADD SWAP1 JUMP JUMPDEST SWAP3 DUP4 MSTORE PUSH1 0x20 DUP4 ADD SWAP2 SWAP1 SWAP2 MSTORE PUSH1 0x40 DUP3 ADD MSTORE PUSH1 0x60 ADD SWAP1 JUMP JUMPDEST PUSH1 0x40 MLOAD DUP2 DUP2 ADD PUSH8 0xFFFFFFFFFFFFFFFF DUP2 GT DUP3 DUP3 LT OR ISZERO PUSH2 0x1B11 JUMPI PUSH1 0x0 DUP1 REVERT JUMPDEST PUSH1 0x40 MSTORE SWAP2 SWAP1 POP JUMP JUMPDEST PUSH1 0x0 PUSH8 0xFFFFFFFFFFFFFFFF DUP3 GT ISZERO PUSH2 0x1B2F JUMPI DUP1 DUP2 REVERT JUMPDEST POP PUSH1 0x20 SWAP1 DUP2 MUL ADD SWAP1 JUMP JUMPDEST PUSH1 0x0 PUSH8 0xFFFFFFFFFFFFFFFF DUP3 GT ISZERO PUSH2 0x1B4F JUMPI DUP1 DUP2 REVERT JUMPDEST POP PUSH1 0x1F ADD PUSH1 0x1F NOT AND PUSH1 0x20 ADD SWAP1 JUMP JUMPDEST PUSH1 0x0 JUMPDEST DUP4 DUP2 LT ISZERO PUSH2 0x1B78 JUMPI DUP2 DUP2 ADD MLOAD DUP4 DUP3 ADD MSTORE PUSH1 0x20 ADD PUSH2 0x1B60 JUMP JUMPDEST DUP4 DUP2 GT ISZERO PUSH2 0xE03 JUMPI POP POP PUSH1 0x0 SWAP2 ADD MSTORE JUMP JUMPDEST PUSH1 0x1 PUSH1 0x1 PUSH1 0xA0 SHL SUB DUP2 AND DUP2 EQ PUSH2 0x1B9E JUMPI PUSH1 0x0 DUP1 REVERT JUMPDEST POP JUMP INVALID LOG2 PUSH5 0x6970667358 0x22 SLT KECCAK256 0xAD ADDMOD 0xA9 MLOAD TIMESTAMP DUP10 PUSH26 0xED1B42D36D79CBA4EE4698F4DEEBF2581B35A430C7A072B7E164 PUSH20 0x6F6C634300070000330000000000000000000000 "
		},
		"gasEstimates": {
			"creation": {
				"codeDepositCost": "1425400",
				"executionCost": "infinite",
				"totalCost": "infinite"
			},
			"external": {
				"addBoostersForSale(string,uint256[])": "infinite",
				"buyBoosters(string,uint256)": "infinite",
				"getBoosterSaleDetails(string)": "infinite",
				"getCurrentBalance()": "infinite",
				"getTokenAccepted()": "infinite",
				"owner()": "1070",
				"renounceOwnership()": "24293",
				"transferBalance(address,uint256)": "infinite",
				"transferOwnership(address)": "24547",
				"updateAcceptedToken(address)": "22149",
				"updateSalePrice(string,uint256)": "infinite"
			},
			"internal": {
				"transferBoosters(address,string memory,uint256)": "infinite",
				"transferFunds(address,uint256)": "infinite"
			}
		},
		"methodIdentifiers": {
			"addBoostersForSale(string,uint256[])": "c4638bf0",
			"buyBoosters(string,uint256)": "241b1b72",
			"getBoosterSaleDetails(string)": "eae68979",
			"getCurrentBalance()": "a5749710",
			"getTokenAccepted()": "1cd5d37f",
			"owner()": "8da5cb5b",
			"renounceOwnership()": "715018a6",
			"transferBalance(address,uint256)": "56a6d9ef",
			"transferOwnership(address)": "f2fde38b",
			"updateAcceptedToken(address)": "db17e11d",
			"updateSalePrice(string,uint256)": "64404a4a"
		}
	},
	"abi": [
		{
			"inputs": [
				{
					"internalType": "address",
					"name": "_SIGHNFTBoostersContract",
					"type": "address"
				}
			],
			"stateMutability": "nonpayable",
			"type": "constructor"
		},
		{
			"anonymous": false,
			"inputs": [
				{
					"indexed": false,
					"internalType": "address",
					"name": "to",
					"type": "address"
				},
				{
					"indexed": false,
					"internalType": "string",
					"name": "_BoosterType",
					"type": "string"
				},
				{
					"indexed": false,
					"internalType": "uint256",
					"name": "_boosterId",
					"type": "uint256"
				},
				{
					"indexed": false,
					"internalType": "uint256",
					"name": "salePrice",
					"type": "uint256"
				}
			],
			"name": "BoosterSold",
			"type": "event"
		},
		{
			"anonymous": false,
			"inputs": [
				{
					"indexed": true,
					"internalType": "address",
					"name": "previousOwner",
					"type": "address"
				},
				{
					"indexed": true,
					"internalType": "address",
					"name": "newOwner",
					"type": "address"
				}
			],
			"name": "OwnershipTransferred",
			"type": "event"
		},
		{
			"inputs": [
				{
					"internalType": "string",
					"name": "_BoosterType",
					"type": "string"
				},
				{
					"internalType": "uint256[]",
					"name": "boosterids",
					"type": "uint256[]"
				}
			],
			"name": "addBoostersForSale",
			"outputs": [],
			"stateMutability": "nonpayable",
			"type": "function"
		},
		{
			"inputs": [
				{
					"internalType": "string",
					"name": "_BoosterType",
					"type": "string"
				},
				{
					"internalType": "uint256",
					"name": "boostersToBuy",
					"type": "uint256"
				}
			],
			"name": "buyBoosters",
			"outputs": [],
			"stateMutability": "nonpayable",
			"type": "function"
		},
		{
			"inputs": [
				{
					"internalType": "string",
					"name": "_Boostertype",
					"type": "string"
				}
			],
			"name": "getBoosterSaleDetails",
			"outputs": [
				{
					"internalType": "uint256",
					"name": "available",
					"type": "uint256"
				},
				{
					"internalType": "uint256",
					"name": "price",
					"type": "uint256"
				},
				{
					"internalType": "uint256",
					"name": "sold",
					"type": "uint256"
				}
			],
			"stateMutability": "view",
			"type": "function"
		},
		{
			"inputs": [],
			"name": "getCurrentBalance",
			"outputs": [
				{
					"internalType": "uint256",
					"name": "",
					"type": "uint256"
				}
			],
			"stateMutability": "view",
			"type": "function"
		},
		{
			"inputs": [],
			"name": "getTokenAccepted",
			"outputs": [
				{
					"internalType": "string",
					"name": "symbol",
					"type": "string"
				},
				{
					"internalType": "address",
					"name": "tokenAddress",
					"type": "address"
				}
			],
			"stateMutability": "view",
			"type": "function"
		},
		{
			"inputs": [],
			"name": "owner",
			"outputs": [
				{
					"internalType": "address",
					"name": "",
					"type": "address"
				}
			],
			"stateMutability": "view",
			"type": "function"
		},
		{
			"inputs": [],
			"name": "renounceOwnership",
			"outputs": [],
			"stateMutability": "nonpayable",
			"type": "function"
		},
		{
			"inputs": [
				{
					"internalType": "address",
					"name": "to",
					"type": "address"
				},
				{
					"internalType": "uint256",
					"name": "amount",
					"type": "uint256"
				}
			],
			"name": "transferBalance",
			"outputs": [],
			"stateMutability": "nonpayable",
			"type": "function"
		},
		{
			"inputs": [
				{
					"internalType": "address",
					"name": "newOwner",
					"type": "address"
				}
			],
			"name": "transferOwnership",
			"outputs": [],
			"stateMutability": "nonpayable",
			"type": "function"
		},
		{
			"inputs": [
				{
					"internalType": "address",
					"name": "token",
					"type": "address"
				}
			],
			"name": "updateAcceptedToken",
			"outputs": [],
			"stateMutability": "nonpayable",
			"type": "function"
		},
		{
			"inputs": [
				{
					"internalType": "string",
					"name": "_BoosterType",
					"type": "string"
				},
				{
					"internalType": "uint256",
					"name": "_price",
					"type": "uint256"
				}
			],
			"name": "updateSalePrice",
			"outputs": [],
			"stateMutability": "nonpayable",
			"type": "function"
		}
	]
}