{
	"data": {
		"bytecode": {
			"linkReferences": {},
			"object": "61061b610026600b82828239805160001a60731461001957fe5b30600052607381538281f3fe73000000000000000000000000000000000000000030146080604052600436106101985760003560e01c80639fc9db98116100e8578063d121a83c116100a1578063e59e861d1161007b578063e59e861d146102c2578063f1ee25eb146102ca578063fa1c274a146102d2578063fb681def146102da57610198565b8063d121a83c146102aa578063e2c16d69146102b2578063e413c141146102ba57610198565b80639fc9db981461027a578063a8a2eaf914610282578063a9aad58c1461028a578063ac75323614610292578063cc5fc44c1461029a578063cd490a9b146102a257610198565b80633969307d116101555780638ff477ba1161012f5780638ff477ba1461025a57806392756a611461026257806395c31a561461026a578063962125ad1461027257610198565b80633969307d14610242578063407374a41461024a57806371a629da1461025257610198565b80630f3030441461019d57806311d7b0061461021a5780631ea7c604146102225780631f4a00f61461022a57806320b8c8351461023257806321393a751461023a575b600080fd5b6101a56102e2565b6040805160208082528351818301528351919283929083019185019080838360005b838110156101df5781810151838201526020016101c7565b50505050905090810190601f16801561020c5780820380516001836020036101000a031916815260200191505b509250505060405180910390f35b6101a56102ff565b6101a561031c565b6101a561033a565b6101a5610358565b6101a5610376565b6101a5610393565b6101a56103b0565b6101a56103ce565b6101a56103ec565b6101a561040a565b6101a5610427565b6101a5610444565b6101a5610462565b6101a561047f565b6101a561049d565b6101a56104ba565b6101a56104d8565b6101a56104f6565b6101a5610513565b6101a5610531565b6101a561054f565b6101a561056d565b6101a561058b565b6101a56105a9565b6101a56105c7565b604051806040016040528060018152602001603160f81b81525081565b604051806040016040528060018152602001601b60f91b81525081565b604051806040016040528060028152602001611a1b60f11b81525081565b60405180604001604052806002815260200161313760f01b81525081565b60405180604001604052806002815260200161313560f01b81525081565b604051806040016040528060018152602001603960f81b81525081565b604051806040016040528060018152602001603360f81b81525081565b60405180604001604052806002815260200161343360f01b81525081565b604051806040016040528060028152602001610d0d60f21b81525081565b604051806040016040528060028152602001610c4d60f21b81525081565b604051806040016040528060018152602001603760f81b81525081565b604051806040016040528060018152602001603560f81b81525081565b60405180604001604052806002815260200161313360f01b81525081565b604051806040016040528060018152602001600d60fa1b81525081565b60405180604001604052806002815260200161032360f41b81525081565b604051806040016040528060018152602001601960f91b81525081565b60405180604001604052806002815260200161333360f01b81525081565b60405180604001604052806002815260200161343560f01b81525081565b604051806040016040528060018152602001600760fb1b81525081565b60405180604001604052806002815260200161189960f11b81525081565b60405180604001604052806002815260200161353960f01b81525081565b60405180604001604052806002815260200161313160f01b81525081565b60405180604001604052806002815260200161062760f31b81525081565b60405180604001604052806002815260200161031360f41b81525081565b60405180604001604052806002815260200161189b60f11b81525081565b604051806040016040528060028152602001611a1960f11b8152508156fea2646970667358221220175d5cc545edabe720e4f3bc15a7bb97338805c33ac7c820add9caa7ffad9a4d64736f6c63430007000033",
			"opcodes": "PUSH2 0x61B PUSH2 0x26 PUSH1 0xB DUP3 DUP3 DUP3 CODECOPY DUP1 MLOAD PUSH1 0x0 BYTE PUSH1 0x73 EQ PUSH2 0x19 JUMPI INVALID JUMPDEST ADDRESS PUSH1 0x0 MSTORE PUSH1 0x73 DUP2 MSTORE8 DUP3 DUP2 RETURN INVALID PUSH20 0x0 ADDRESS EQ PUSH1 0x80 PUSH1 0x40 MSTORE PUSH1 0x4 CALLDATASIZE LT PUSH2 0x198 JUMPI PUSH1 0x0 CALLDATALOAD PUSH1 0xE0 SHR DUP1 PUSH4 0x9FC9DB98 GT PUSH2 0xE8 JUMPI DUP1 PUSH4 0xD121A83C GT PUSH2 0xA1 JUMPI DUP1 PUSH4 0xE59E861D GT PUSH2 0x7B JUMPI DUP1 PUSH4 0xE59E861D EQ PUSH2 0x2C2 JUMPI DUP1 PUSH4 0xF1EE25EB EQ PUSH2 0x2CA JUMPI DUP1 PUSH4 0xFA1C274A EQ PUSH2 0x2D2 JUMPI DUP1 PUSH4 0xFB681DEF EQ PUSH2 0x2DA JUMPI PUSH2 0x198 JUMP JUMPDEST DUP1 PUSH4 0xD121A83C EQ PUSH2 0x2AA JUMPI DUP1 PUSH4 0xE2C16D69 EQ PUSH2 0x2B2 JUMPI DUP1 PUSH4 0xE413C141 EQ PUSH2 0x2BA JUMPI PUSH2 0x198 JUMP JUMPDEST DUP1 PUSH4 0x9FC9DB98 EQ PUSH2 0x27A JUMPI DUP1 PUSH4 0xA8A2EAF9 EQ PUSH2 0x282 JUMPI DUP1 PUSH4 0xA9AAD58C EQ PUSH2 0x28A JUMPI DUP1 PUSH4 0xAC753236 EQ PUSH2 0x292 JUMPI DUP1 PUSH4 0xCC5FC44C EQ PUSH2 0x29A JUMPI DUP1 PUSH4 0xCD490A9B EQ PUSH2 0x2A2 JUMPI PUSH2 0x198 JUMP JUMPDEST DUP1 PUSH4 0x3969307D GT PUSH2 0x155 JUMPI DUP1 PUSH4 0x8FF477BA GT PUSH2 0x12F JUMPI DUP1 PUSH4 0x8FF477BA EQ PUSH2 0x25A JUMPI DUP1 PUSH4 0x92756A61 EQ PUSH2 0x262 JUMPI DUP1 PUSH4 0x95C31A56 EQ PUSH2 0x26A JUMPI DUP1 PUSH4 0x962125AD EQ PUSH2 0x272 JUMPI PUSH2 0x198 JUMP JUMPDEST DUP1 PUSH4 0x3969307D EQ PUSH2 0x242 JUMPI DUP1 PUSH4 0x407374A4 EQ PUSH2 0x24A JUMPI DUP1 PUSH4 0x71A629DA EQ PUSH2 0x252 JUMPI PUSH2 0x198 JUMP JUMPDEST DUP1 PUSH4 0xF303044 EQ PUSH2 0x19D JUMPI DUP1 PUSH4 0x11D7B006 EQ PUSH2 0x21A JUMPI DUP1 PUSH4 0x1EA7C604 EQ PUSH2 0x222 JUMPI DUP1 PUSH4 0x1F4A00F6 EQ PUSH2 0x22A JUMPI DUP1 PUSH4 0x20B8C835 EQ PUSH2 0x232 JUMPI DUP1 PUSH4 0x21393A75 EQ PUSH2 0x23A JUMPI JUMPDEST PUSH1 0x0 DUP1 REVERT JUMPDEST PUSH2 0x1A5 PUSH2 0x2E2 JUMP JUMPDEST PUSH1 0x40 DUP1 MLOAD PUSH1 0x20 DUP1 DUP3 MSTORE DUP4 MLOAD DUP2 DUP4 ADD MSTORE DUP4 MLOAD SWAP2 SWAP3 DUP4 SWAP3 SWAP1 DUP4 ADD SWAP2 DUP6 ADD SWAP1 DUP1 DUP4 DUP4 PUSH1 0x0 JUMPDEST DUP4 DUP2 LT ISZERO PUSH2 0x1DF JUMPI DUP2 DUP2 ADD MLOAD DUP4 DUP3 ADD MSTORE PUSH1 0x20 ADD PUSH2 0x1C7 JUMP JUMPDEST POP POP POP POP SWAP1 POP SWAP1 DUP2 ADD SWAP1 PUSH1 0x1F AND DUP1 ISZERO PUSH2 0x20C JUMPI DUP1 DUP3 SUB DUP1 MLOAD PUSH1 0x1 DUP4 PUSH1 0x20 SUB PUSH2 0x100 EXP SUB NOT AND DUP2 MSTORE PUSH1 0x20 ADD SWAP2 POP JUMPDEST POP SWAP3 POP POP POP PUSH1 0x40 MLOAD DUP1 SWAP2 SUB SWAP1 RETURN JUMPDEST PUSH2 0x1A5 PUSH2 0x2FF JUMP JUMPDEST PUSH2 0x1A5 PUSH2 0x31C JUMP JUMPDEST PUSH2 0x1A5 PUSH2 0x33A JUMP JUMPDEST PUSH2 0x1A5 PUSH2 0x358 JUMP JUMPDEST PUSH2 0x1A5 PUSH2 0x376 JUMP JUMPDEST PUSH2 0x1A5 PUSH2 0x393 JUMP JUMPDEST PUSH2 0x1A5 PUSH2 0x3B0 JUMP JUMPDEST PUSH2 0x1A5 PUSH2 0x3CE JUMP JUMPDEST PUSH2 0x1A5 PUSH2 0x3EC JUMP JUMPDEST PUSH2 0x1A5 PUSH2 0x40A JUMP JUMPDEST PUSH2 0x1A5 PUSH2 0x427 JUMP JUMPDEST PUSH2 0x1A5 PUSH2 0x444 JUMP JUMPDEST PUSH2 0x1A5 PUSH2 0x462 JUMP JUMPDEST PUSH2 0x1A5 PUSH2 0x47F JUMP JUMPDEST PUSH2 0x1A5 PUSH2 0x49D JUMP JUMPDEST PUSH2 0x1A5 PUSH2 0x4BA JUMP JUMPDEST PUSH2 0x1A5 PUSH2 0x4D8 JUMP JUMPDEST PUSH2 0x1A5 PUSH2 0x4F6 JUMP JUMPDEST PUSH2 0x1A5 PUSH2 0x513 JUMP JUMPDEST PUSH2 0x1A5 PUSH2 0x531 JUMP JUMPDEST PUSH2 0x1A5 PUSH2 0x54F JUMP JUMPDEST PUSH2 0x1A5 PUSH2 0x56D JUMP JUMPDEST PUSH2 0x1A5 PUSH2 0x58B JUMP JUMPDEST PUSH2 0x1A5 PUSH2 0x5A9 JUMP JUMPDEST PUSH2 0x1A5 PUSH2 0x5C7 JUMP JUMPDEST PUSH1 0x40 MLOAD DUP1 PUSH1 0x40 ADD PUSH1 0x40 MSTORE DUP1 PUSH1 0x1 DUP2 MSTORE PUSH1 0x20 ADD PUSH1 0x31 PUSH1 0xF8 SHL DUP2 MSTORE POP DUP2 JUMP JUMPDEST PUSH1 0x40 MLOAD DUP1 PUSH1 0x40 ADD PUSH1 0x40 MSTORE DUP1 PUSH1 0x1 DUP2 MSTORE PUSH1 0x20 ADD PUSH1 0x1B PUSH1 0xF9 SHL DUP2 MSTORE POP DUP2 JUMP JUMPDEST PUSH1 0x40 MLOAD DUP1 PUSH1 0x40 ADD PUSH1 0x40 MSTORE DUP1 PUSH1 0x2 DUP2 MSTORE PUSH1 0x20 ADD PUSH2 0x1A1B PUSH1 0xF1 SHL DUP2 MSTORE POP DUP2 JUMP JUMPDEST PUSH1 0x40 MLOAD DUP1 PUSH1 0x40 ADD PUSH1 0x40 MSTORE DUP1 PUSH1 0x2 DUP2 MSTORE PUSH1 0x20 ADD PUSH2 0x3137 PUSH1 0xF0 SHL DUP2 MSTORE POP DUP2 JUMP JUMPDEST PUSH1 0x40 MLOAD DUP1 PUSH1 0x40 ADD PUSH1 0x40 MSTORE DUP1 PUSH1 0x2 DUP2 MSTORE PUSH1 0x20 ADD PUSH2 0x3135 PUSH1 0xF0 SHL DUP2 MSTORE POP DUP2 JUMP JUMPDEST PUSH1 0x40 MLOAD DUP1 PUSH1 0x40 ADD PUSH1 0x40 MSTORE DUP1 PUSH1 0x1 DUP2 MSTORE PUSH1 0x20 ADD PUSH1 0x39 PUSH1 0xF8 SHL DUP2 MSTORE POP DUP2 JUMP JUMPDEST PUSH1 0x40 MLOAD DUP1 PUSH1 0x40 ADD PUSH1 0x40 MSTORE DUP1 PUSH1 0x1 DUP2 MSTORE PUSH1 0x20 ADD PUSH1 0x33 PUSH1 0xF8 SHL DUP2 MSTORE POP DUP2 JUMP JUMPDEST PUSH1 0x40 MLOAD DUP1 PUSH1 0x40 ADD PUSH1 0x40 MSTORE DUP1 PUSH1 0x2 DUP2 MSTORE PUSH1 0x20 ADD PUSH2 0x3433 PUSH1 0xF0 SHL DUP2 MSTORE POP DUP2 JUMP JUMPDEST PUSH1 0x40 MLOAD DUP1 PUSH1 0x40 ADD PUSH1 0x40 MSTORE DUP1 PUSH1 0x2 DUP2 MSTORE PUSH1 0x20 ADD PUSH2 0xD0D PUSH1 0xF2 SHL DUP2 MSTORE POP DUP2 JUMP JUMPDEST PUSH1 0x40 MLOAD DUP1 PUSH1 0x40 ADD PUSH1 0x40 MSTORE DUP1 PUSH1 0x2 DUP2 MSTORE PUSH1 0x20 ADD PUSH2 0xC4D PUSH1 0xF2 SHL DUP2 MSTORE POP DUP2 JUMP JUMPDEST PUSH1 0x40 MLOAD DUP1 PUSH1 0x40 ADD PUSH1 0x40 MSTORE DUP1 PUSH1 0x1 DUP2 MSTORE PUSH1 0x20 ADD PUSH1 0x37 PUSH1 0xF8 SHL DUP2 MSTORE POP DUP2 JUMP JUMPDEST PUSH1 0x40 MLOAD DUP1 PUSH1 0x40 ADD PUSH1 0x40 MSTORE DUP1 PUSH1 0x1 DUP2 MSTORE PUSH1 0x20 ADD PUSH1 0x35 PUSH1 0xF8 SHL DUP2 MSTORE POP DUP2 JUMP JUMPDEST PUSH1 0x40 MLOAD DUP1 PUSH1 0x40 ADD PUSH1 0x40 MSTORE DUP1 PUSH1 0x2 DUP2 MSTORE PUSH1 0x20 ADD PUSH2 0x3133 PUSH1 0xF0 SHL DUP2 MSTORE POP DUP2 JUMP JUMPDEST PUSH1 0x40 MLOAD DUP1 PUSH1 0x40 ADD PUSH1 0x40 MSTORE DUP1 PUSH1 0x1 DUP2 MSTORE PUSH1 0x20 ADD PUSH1 0xD PUSH1 0xFA SHL DUP2 MSTORE POP DUP2 JUMP JUMPDEST PUSH1 0x40 MLOAD DUP1 PUSH1 0x40 ADD PUSH1 0x40 MSTORE DUP1 PUSH1 0x2 DUP2 MSTORE PUSH1 0x20 ADD PUSH2 0x323 PUSH1 0xF4 SHL DUP2 MSTORE POP DUP2 JUMP JUMPDEST PUSH1 0x40 MLOAD DUP1 PUSH1 0x40 ADD PUSH1 0x40 MSTORE DUP1 PUSH1 0x1 DUP2 MSTORE PUSH1 0x20 ADD PUSH1 0x19 PUSH1 0xF9 SHL DUP2 MSTORE POP DUP2 JUMP JUMPDEST PUSH1 0x40 MLOAD DUP1 PUSH1 0x40 ADD PUSH1 0x40 MSTORE DUP1 PUSH1 0x2 DUP2 MSTORE PUSH1 0x20 ADD PUSH2 0x3333 PUSH1 0xF0 SHL DUP2 MSTORE POP DUP2 JUMP JUMPDEST PUSH1 0x40 MLOAD DUP1 PUSH1 0x40 ADD PUSH1 0x40 MSTORE DUP1 PUSH1 0x2 DUP2 MSTORE PUSH1 0x20 ADD PUSH2 0x3435 PUSH1 0xF0 SHL DUP2 MSTORE POP DUP2 JUMP JUMPDEST PUSH1 0x40 MLOAD DUP1 PUSH1 0x40 ADD PUSH1 0x40 MSTORE DUP1 PUSH1 0x1 DUP2 MSTORE PUSH1 0x20 ADD PUSH1 0x7 PUSH1 0xFB SHL DUP2 MSTORE POP DUP2 JUMP JUMPDEST PUSH1 0x40 MLOAD DUP1 PUSH1 0x40 ADD PUSH1 0x40 MSTORE DUP1 PUSH1 0x2 DUP2 MSTORE PUSH1 0x20 ADD PUSH2 0x1899 PUSH1 0xF1 SHL DUP2 MSTORE POP DUP2 JUMP JUMPDEST PUSH1 0x40 MLOAD DUP1 PUSH1 0x40 ADD PUSH1 0x40 MSTORE DUP1 PUSH1 0x2 DUP2 MSTORE PUSH1 0x20 ADD PUSH2 0x3539 PUSH1 0xF0 SHL DUP2 MSTORE POP DUP2 JUMP JUMPDEST PUSH1 0x40 MLOAD DUP1 PUSH1 0x40 ADD PUSH1 0x40 MSTORE DUP1 PUSH1 0x2 DUP2 MSTORE PUSH1 0x20 ADD PUSH2 0x3131 PUSH1 0xF0 SHL DUP2 MSTORE POP DUP2 JUMP JUMPDEST PUSH1 0x40 MLOAD DUP1 PUSH1 0x40 ADD PUSH1 0x40 MSTORE DUP1 PUSH1 0x2 DUP2 MSTORE PUSH1 0x20 ADD PUSH2 0x627 PUSH1 0xF3 SHL DUP2 MSTORE POP DUP2 JUMP JUMPDEST PUSH1 0x40 MLOAD DUP1 PUSH1 0x40 ADD PUSH1 0x40 MSTORE DUP1 PUSH1 0x2 DUP2 MSTORE PUSH1 0x20 ADD PUSH2 0x313 PUSH1 0xF4 SHL DUP2 MSTORE POP DUP2 JUMP JUMPDEST PUSH1 0x40 MLOAD DUP1 PUSH1 0x40 ADD PUSH1 0x40 MSTORE DUP1 PUSH1 0x2 DUP2 MSTORE PUSH1 0x20 ADD PUSH2 0x189B PUSH1 0xF1 SHL DUP2 MSTORE POP DUP2 JUMP JUMPDEST PUSH1 0x40 MLOAD DUP1 PUSH1 0x40 ADD PUSH1 0x40 MSTORE DUP1 PUSH1 0x2 DUP2 MSTORE PUSH1 0x20 ADD PUSH2 0x1A19 PUSH1 0xF1 SHL DUP2 MSTORE POP DUP2 JUMP INVALID LOG2 PUSH5 0x6970667358 0x22 SLT KECCAK256 OR 0x5D 0x5C 0xC5 GASLIMIT 0xED 0xAB 0xE7 KECCAK256 0xE4 RETURN 0xBC ISZERO 0xA7 0xBB SWAP8 CALLER DUP9 SDIV 0xC3 GASPRICE 0xC7 0xC8 KECCAK256 0xAD 0xD9 0xCA 0xA7 SELFDESTRUCT 0xAD SWAP11 0x4D PUSH5 0x736F6C6343 STOP SMOD STOP STOP CALLER "
		},
		"gasEstimates": {
			"creation": {
				"codeDepositCost": "312600",
				"executionCost": "377",
				"totalCost": "312977"
			},
			"external": {
				"Already_Supported()": "infinite",
				"BORROW_ALLOWANCE_NOT_ENOUGH()": "infinite",
				"CALLER_NOT_POOL_ADMIN()": "infinite",
				"CLI_OVRFLW()": "infinite",
				"FAILED()": "infinite",
				"INCONCISTENT_BALANCE()": "infinite",
				"INVALID_RETURN()": "infinite",
				"IT_INIT_FAIL()": "infinite",
				"LIQUIDITY_NOT_AVAILABLE()": "infinite",
				"LI_OVRFLW()": "infinite",
				"LPCM_COLLATERAL_CANNOT_BE_LIQUIDATED()": "infinite",
				"LPCM_HEALTH_FACTOR_NOT_BELOW_THRESHOLD()": "infinite",
				"LPCM_NOT_ENOUGH_LIQUIDITY_TO_LIQUIDATE()": "infinite",
				"LPCM_NO_ERRORS()": "infinite",
				"LPCM_SPECIFIED_CURRENCY_NOT_BORROWED_BY_USER()": "infinite",
				"LR_INVALID()": "infinite",
				"MAX_INST_LIMIT()": "infinite",
				"NOT_ALLOWED()": "infinite",
				"NOT_CONTRACT()": "infinite",
				"PAUSED()": "infinite",
				"SR_INVALID()": "infinite",
				"ST_INIT_FAIL()": "infinite",
				"VI_OVRFLW()": "infinite",
				"VOL_HAR_INIT_FAIL()": "infinite",
				"VR_INVALID()": "infinite",
				"VT_INIT_FAIL()": "infinite"
			}
		},
		"methodIdentifiers": {
			"Already_Supported()": "e413c141",
			"BORROW_ALLOWANCE_NOT_ENOUGH()": "e2c16d69",
			"CALLER_NOT_POOL_ADMIN()": "ac753236",
			"CLI_OVRFLW()": "20b8c835",
			"FAILED()": "3969307d",
			"INCONCISTENT_BALANCE()": "a8a2eaf9",
			"INVALID_RETURN()": "9fc9db98",
			"IT_INIT_FAIL()": "cd490a9b",
			"LIQUIDITY_NOT_AVAILABLE()": "e59e861d",
			"LI_OVRFLW()": "fa1c274a",
			"LPCM_COLLATERAL_CANNOT_BE_LIQUIDATED()": "407374a4",
			"LPCM_HEALTH_FACTOR_NOT_BELOW_THRESHOLD()": "fb681def",
			"LPCM_NOT_ENOUGH_LIQUIDITY_TO_LIQUIDATE()": "cc5fc44c",
			"LPCM_NO_ERRORS()": "1ea7c604",
			"LPCM_SPECIFIED_CURRENCY_NOT_BORROWED_BY_USER()": "71a629da",
			"LR_INVALID()": "d121a83c",
			"MAX_INST_LIMIT()": "0f303044",
			"NOT_ALLOWED()": "95c31a56",
			"NOT_CONTRACT()": "11d7b006",
			"PAUSED()": "a9aad58c",
			"SR_INVALID()": "962125ad",
			"ST_INIT_FAIL()": "f1ee25eb",
			"VI_OVRFLW()": "1f4a00f6",
			"VOL_HAR_INIT_FAIL()": "92756a61",
			"VR_INVALID()": "8ff477ba",
			"VT_INIT_FAIL()": "21393a75"
		}
	},
	"abi": [
		{
			"inputs": [],
			"name": "Already_Supported",
			"outputs": [
				{
					"internalType": "string",
					"name": "",
					"type": "string"
				}
			],
			"stateMutability": "view",
			"type": "function"
		},
		{
			"inputs": [],
			"name": "BORROW_ALLOWANCE_NOT_ENOUGH",
			"outputs": [
				{
					"internalType": "string",
					"name": "",
					"type": "string"
				}
			],
			"stateMutability": "view",
			"type": "function"
		},
		{
			"inputs": [],
			"name": "CALLER_NOT_POOL_ADMIN",
			"outputs": [
				{
					"internalType": "string",
					"name": "",
					"type": "string"
				}
			],
			"stateMutability": "view",
			"type": "function"
		},
		{
			"inputs": [],
			"name": "CLI_OVRFLW",
			"outputs": [
				{
					"internalType": "string",
					"name": "",
					"type": "string"
				}
			],
			"stateMutability": "view",
			"type": "function"
		},
		{
			"inputs": [],
			"name": "FAILED",
			"outputs": [
				{
					"internalType": "string",
					"name": "",
					"type": "string"
				}
			],
			"stateMutability": "view",
			"type": "function"
		},
		{
			"inputs": [],
			"name": "INCONCISTENT_BALANCE",
			"outputs": [
				{
					"internalType": "string",
					"name": "",
					"type": "string"
				}
			],
			"stateMutability": "view",
			"type": "function"
		},
		{
			"inputs": [],
			"name": "INVALID_RETURN",
			"outputs": [
				{
					"internalType": "string",
					"name": "",
					"type": "string"
				}
			],
			"stateMutability": "view",
			"type": "function"
		},
		{
			"inputs": [],
			"name": "IT_INIT_FAIL",
			"outputs": [
				{
					"internalType": "string",
					"name": "",
					"type": "string"
				}
			],
			"stateMutability": "view",
			"type": "function"
		},
		{
			"inputs": [],
			"name": "LIQUIDITY_NOT_AVAILABLE",
			"outputs": [
				{
					"internalType": "string",
					"name": "",
					"type": "string"
				}
			],
			"stateMutability": "view",
			"type": "function"
		},
		{
			"inputs": [],
			"name": "LI_OVRFLW",
			"outputs": [
				{
					"internalType": "string",
					"name": "",
					"type": "string"
				}
			],
			"stateMutability": "view",
			"type": "function"
		},
		{
			"inputs": [],
			"name": "LPCM_COLLATERAL_CANNOT_BE_LIQUIDATED",
			"outputs": [
				{
					"internalType": "string",
					"name": "",
					"type": "string"
				}
			],
			"stateMutability": "view",
			"type": "function"
		},
		{
			"inputs": [],
			"name": "LPCM_HEALTH_FACTOR_NOT_BELOW_THRESHOLD",
			"outputs": [
				{
					"internalType": "string",
					"name": "",
					"type": "string"
				}
			],
			"stateMutability": "view",
			"type": "function"
		},
		{
			"inputs": [],
			"name": "LPCM_NOT_ENOUGH_LIQUIDITY_TO_LIQUIDATE",
			"outputs": [
				{
					"internalType": "string",
					"name": "",
					"type": "string"
				}
			],
			"stateMutability": "view",
			"type": "function"
		},
		{
			"inputs": [],
			"name": "LPCM_NO_ERRORS",
			"outputs": [
				{
					"internalType": "string",
					"name": "",
					"type": "string"
				}
			],
			"stateMutability": "view",
			"type": "function"
		},
		{
			"inputs": [],
			"name": "LPCM_SPECIFIED_CURRENCY_NOT_BORROWED_BY_USER",
			"outputs": [
				{
					"internalType": "string",
					"name": "",
					"type": "string"
				}
			],
			"stateMutability": "view",
			"type": "function"
		},
		{
			"inputs": [],
			"name": "LR_INVALID",
			"outputs": [
				{
					"internalType": "string",
					"name": "",
					"type": "string"
				}
			],
			"stateMutability": "view",
			"type": "function"
		},
		{
			"inputs": [],
			"name": "MAX_INST_LIMIT",
			"outputs": [
				{
					"internalType": "string",
					"name": "",
					"type": "string"
				}
			],
			"stateMutability": "view",
			"type": "function"
		},
		{
			"inputs": [],
			"name": "NOT_ALLOWED",
			"outputs": [
				{
					"internalType": "string",
					"name": "",
					"type": "string"
				}
			],
			"stateMutability": "view",
			"type": "function"
		},
		{
			"inputs": [],
			"name": "NOT_CONTRACT",
			"outputs": [
				{
					"internalType": "string",
					"name": "",
					"type": "string"
				}
			],
			"stateMutability": "view",
			"type": "function"
		},
		{
			"inputs": [],
			"name": "PAUSED",
			"outputs": [
				{
					"internalType": "string",
					"name": "",
					"type": "string"
				}
			],
			"stateMutability": "view",
			"type": "function"
		},
		{
			"inputs": [],
			"name": "SR_INVALID",
			"outputs": [
				{
					"internalType": "string",
					"name": "",
					"type": "string"
				}
			],
			"stateMutability": "view",
			"type": "function"
		},
		{
			"inputs": [],
			"name": "ST_INIT_FAIL",
			"outputs": [
				{
					"internalType": "string",
					"name": "",
					"type": "string"
				}
			],
			"stateMutability": "view",
			"type": "function"
		},
		{
			"inputs": [],
			"name": "VI_OVRFLW",
			"outputs": [
				{
					"internalType": "string",
					"name": "",
					"type": "string"
				}
			],
			"stateMutability": "view",
			"type": "function"
		},
		{
			"inputs": [],
			"name": "VOL_HAR_INIT_FAIL",
			"outputs": [
				{
					"internalType": "string",
					"name": "",
					"type": "string"
				}
			],
			"stateMutability": "view",
			"type": "function"
		},
		{
			"inputs": [],
			"name": "VR_INVALID",
			"outputs": [
				{
					"internalType": "string",
					"name": "",
					"type": "string"
				}
			],
			"stateMutability": "view",
			"type": "function"
		},
		{
			"inputs": [],
			"name": "VT_INIT_FAIL",
			"outputs": [
				{
					"internalType": "string",
					"name": "",
					"type": "string"
				}
			],
			"stateMutability": "view",
			"type": "function"
		}
	]
}