{
	"data": {
		"bytecode": {
			"linkReferences": {},
			"object": "610241610026600b82828239805160001a60731461001957fe5b30600052607381538281f3fe73000000000000000000000000000000000000000030146080604052600436106100875760003560e01c8063ac75323611610065578063ac75323614610119578063cc5fc44c14610121578063e2c16d6914610129578063fb681def1461013157610087565b80631ea7c6041461008c578063407374a41461010957806371a629da14610111575b600080fd5b610094610139565b6040805160208082528351818301528351919283929083019185019080838360005b838110156100ce5781810151838201526020016100b6565b50505050905090810190601f1680156100fb5780820380516001836020036101000a031916815260200191505b509250505060405180910390f35b610094610157565b610094610175565b610094610193565b6100946101b1565b6100946101cf565b6100946101ed565b604051806040016040528060028152602001611a1b60f11b81525081565b60405180604001604052806002815260200161343360f01b81525081565b604051806040016040528060028152602001610d0d60f21b81525081565b60405180604001604052806002815260200161333360f01b81525081565b60405180604001604052806002815260200161343560f01b81525081565b60405180604001604052806002815260200161353960f01b81525081565b604051806040016040528060028152602001611a1960f11b8152508156fea264697066735822122038ff82ec4be9aa1ca683c522ed66e04bea56fd794e735c58777b0e2caad63c4f64736f6c63430007000033",
			"opcodes": "PUSH2 0x241 PUSH2 0x26 PUSH1 0xB DUP3 DUP3 DUP3 CODECOPY DUP1 MLOAD PUSH1 0x0 BYTE PUSH1 0x73 EQ PUSH2 0x19 JUMPI INVALID JUMPDEST ADDRESS PUSH1 0x0 MSTORE PUSH1 0x73 DUP2 MSTORE8 DUP3 DUP2 RETURN INVALID PUSH20 0x0 ADDRESS EQ PUSH1 0x80 PUSH1 0x40 MSTORE PUSH1 0x4 CALLDATASIZE LT PUSH2 0x87 JUMPI PUSH1 0x0 CALLDATALOAD PUSH1 0xE0 SHR DUP1 PUSH4 0xAC753236 GT PUSH2 0x65 JUMPI DUP1 PUSH4 0xAC753236 EQ PUSH2 0x119 JUMPI DUP1 PUSH4 0xCC5FC44C EQ PUSH2 0x121 JUMPI DUP1 PUSH4 0xE2C16D69 EQ PUSH2 0x129 JUMPI DUP1 PUSH4 0xFB681DEF EQ PUSH2 0x131 JUMPI PUSH2 0x87 JUMP JUMPDEST DUP1 PUSH4 0x1EA7C604 EQ PUSH2 0x8C JUMPI DUP1 PUSH4 0x407374A4 EQ PUSH2 0x109 JUMPI DUP1 PUSH4 0x71A629DA EQ PUSH2 0x111 JUMPI JUMPDEST PUSH1 0x0 DUP1 REVERT JUMPDEST PUSH2 0x94 PUSH2 0x139 JUMP JUMPDEST PUSH1 0x40 DUP1 MLOAD PUSH1 0x20 DUP1 DUP3 MSTORE DUP4 MLOAD DUP2 DUP4 ADD MSTORE DUP4 MLOAD SWAP2 SWAP3 DUP4 SWAP3 SWAP1 DUP4 ADD SWAP2 DUP6 ADD SWAP1 DUP1 DUP4 DUP4 PUSH1 0x0 JUMPDEST DUP4 DUP2 LT ISZERO PUSH2 0xCE JUMPI DUP2 DUP2 ADD MLOAD DUP4 DUP3 ADD MSTORE PUSH1 0x20 ADD PUSH2 0xB6 JUMP JUMPDEST POP POP POP POP SWAP1 POP SWAP1 DUP2 ADD SWAP1 PUSH1 0x1F AND DUP1 ISZERO PUSH2 0xFB JUMPI DUP1 DUP3 SUB DUP1 MLOAD PUSH1 0x1 DUP4 PUSH1 0x20 SUB PUSH2 0x100 EXP SUB NOT AND DUP2 MSTORE PUSH1 0x20 ADD SWAP2 POP JUMPDEST POP SWAP3 POP POP POP PUSH1 0x40 MLOAD DUP1 SWAP2 SUB SWAP1 RETURN JUMPDEST PUSH2 0x94 PUSH2 0x157 JUMP JUMPDEST PUSH2 0x94 PUSH2 0x175 JUMP JUMPDEST PUSH2 0x94 PUSH2 0x193 JUMP JUMPDEST PUSH2 0x94 PUSH2 0x1B1 JUMP JUMPDEST PUSH2 0x94 PUSH2 0x1CF JUMP JUMPDEST PUSH2 0x94 PUSH2 0x1ED JUMP JUMPDEST PUSH1 0x40 MLOAD DUP1 PUSH1 0x40 ADD PUSH1 0x40 MSTORE DUP1 PUSH1 0x2 DUP2 MSTORE PUSH1 0x20 ADD PUSH2 0x1A1B PUSH1 0xF1 SHL DUP2 MSTORE POP DUP2 JUMP JUMPDEST PUSH1 0x40 MLOAD DUP1 PUSH1 0x40 ADD PUSH1 0x40 MSTORE DUP1 PUSH1 0x2 DUP2 MSTORE PUSH1 0x20 ADD PUSH2 0x3433 PUSH1 0xF0 SHL DUP2 MSTORE POP DUP2 JUMP JUMPDEST PUSH1 0x40 MLOAD DUP1 PUSH1 0x40 ADD PUSH1 0x40 MSTORE DUP1 PUSH1 0x2 DUP2 MSTORE PUSH1 0x20 ADD PUSH2 0xD0D PUSH1 0xF2 SHL DUP2 MSTORE POP DUP2 JUMP JUMPDEST PUSH1 0x40 MLOAD DUP1 PUSH1 0x40 ADD PUSH1 0x40 MSTORE DUP1 PUSH1 0x2 DUP2 MSTORE PUSH1 0x20 ADD PUSH2 0x3333 PUSH1 0xF0 SHL DUP2 MSTORE POP DUP2 JUMP JUMPDEST PUSH1 0x40 MLOAD DUP1 PUSH1 0x40 ADD PUSH1 0x40 MSTORE DUP1 PUSH1 0x2 DUP2 MSTORE PUSH1 0x20 ADD PUSH2 0x3435 PUSH1 0xF0 SHL DUP2 MSTORE POP DUP2 JUMP JUMPDEST PUSH1 0x40 MLOAD DUP1 PUSH1 0x40 ADD PUSH1 0x40 MSTORE DUP1 PUSH1 0x2 DUP2 MSTORE PUSH1 0x20 ADD PUSH2 0x3539 PUSH1 0xF0 SHL DUP2 MSTORE POP DUP2 JUMP JUMPDEST PUSH1 0x40 MLOAD DUP1 PUSH1 0x40 ADD PUSH1 0x40 MSTORE DUP1 PUSH1 0x2 DUP2 MSTORE PUSH1 0x20 ADD PUSH2 0x1A19 PUSH1 0xF1 SHL DUP2 MSTORE POP DUP2 JUMP INVALID LOG2 PUSH5 0x6970667358 0x22 SLT KECCAK256 CODESIZE SELFDESTRUCT DUP3 0xEC 0x4B 0xE9 0xAA SHR 0xA6 DUP4 0xC5 0x22 0xED PUSH7 0xE04BEA56FD794E PUSH20 0x5C58777B0E2CAAD63C4F64736F6C634300070000 CALLER "
		},
		"gasEstimates": {
			"creation": {
				"codeDepositCost": "115400",
				"executionCost": "190",
				"totalCost": "115590"
			},
			"external": {
				"BORROW_ALLOWANCE_NOT_ENOUGH()": "infinite",
				"CALLER_NOT_POOL_ADMIN()": "infinite",
				"LPCM_COLLATERAL_CANNOT_BE_LIQUIDATED()": "infinite",
				"LPCM_HEALTH_FACTOR_NOT_BELOW_THRESHOLD()": "infinite",
				"LPCM_NOT_ENOUGH_LIQUIDITY_TO_LIQUIDATE()": "infinite",
				"LPCM_NO_ERRORS()": "infinite",
				"LPCM_SPECIFIED_CURRENCY_NOT_BORROWED_BY_USER()": "infinite"
			}
		},
		"methodIdentifiers": {
			"BORROW_ALLOWANCE_NOT_ENOUGH()": "e2c16d69",
			"CALLER_NOT_POOL_ADMIN()": "ac753236",
			"LPCM_COLLATERAL_CANNOT_BE_LIQUIDATED()": "407374a4",
			"LPCM_HEALTH_FACTOR_NOT_BELOW_THRESHOLD()": "fb681def",
			"LPCM_NOT_ENOUGH_LIQUIDITY_TO_LIQUIDATE()": "cc5fc44c",
			"LPCM_NO_ERRORS()": "1ea7c604",
			"LPCM_SPECIFIED_CURRENCY_NOT_BORROWED_BY_USER()": "71a629da"
		}
	},
	"abi": [
		{
			"inputs": [],
			"name": "BORROW_ALLOWANCE_NOT_ENOUGH",
			"outputs": [
				{
					"internalType": "string",
					"name": "",
					"type": "string"
				}
			],
			"stateMutability": "view",
			"type": "function"
		},
		{
			"inputs": [],
			"name": "CALLER_NOT_POOL_ADMIN",
			"outputs": [
				{
					"internalType": "string",
					"name": "",
					"type": "string"
				}
			],
			"stateMutability": "view",
			"type": "function"
		},
		{
			"inputs": [],
			"name": "LPCM_COLLATERAL_CANNOT_BE_LIQUIDATED",
			"outputs": [
				{
					"internalType": "string",
					"name": "",
					"type": "string"
				}
			],
			"stateMutability": "view",
			"type": "function"
		},
		{
			"inputs": [],
			"name": "LPCM_HEALTH_FACTOR_NOT_BELOW_THRESHOLD",
			"outputs": [
				{
					"internalType": "string",
					"name": "",
					"type": "string"
				}
			],
			"stateMutability": "view",
			"type": "function"
		},
		{
			"inputs": [],
			"name": "LPCM_NOT_ENOUGH_LIQUIDITY_TO_LIQUIDATE",
			"outputs": [
				{
					"internalType": "string",
					"name": "",
					"type": "string"
				}
			],
			"stateMutability": "view",
			"type": "function"
		},
		{
			"inputs": [],
			"name": "LPCM_NO_ERRORS",
			"outputs": [
				{
					"internalType": "string",
					"name": "",
					"type": "string"
				}
			],
			"stateMutability": "view",
			"type": "function"
		},
		{
			"inputs": [],
			"name": "LPCM_SPECIFIED_CURRENCY_NOT_BORROWED_BY_USER",
			"outputs": [
				{
					"internalType": "string",
					"name": "",
					"type": "string"
				}
			],
			"stateMutability": "view",
			"type": "function"
		}
	]
}