{
	"data": {
		"bytecode": {
			"linkReferences": {
				"localhost/contracts/lendingProtocol/libraries/logic/GenericLogic.sol": {
					"GenericLogic": [
						{
							"length": 20,
							"start": 541
						},
						{
							"length": 20,
							"start": 3361
						}
					]
				}
			},
			"object": "61225f610026600b82828239805160001a60731461001957fe5b30600052607381538281f3fe730000000000000000000000000000000000000000301460806040526004361061009d5760003560e01c8063a463ae1411610070578063a463ae14146100fb578063abfcc86a1461010e578063cc2a02d714610116578063ce31011514610129578063efa388be1461013c5761009d565b80635494eb8a146100a2578063655f0bd8146100c057806373721f8d146100d557806381dd5443146100e8575b600080fd5b6100aa61014f565b6040516100b791906121fa565b60405180910390f35b6100d36100ce36600461181f565b61015f565b005b6100d36100e33660046119e8565b6102a4565b6100d36100f636600461177b565b610384565b6100d3610109366004611917565b610727565b6100aa6109e2565b6100d361012436600461197e565b6109e8565b6100d36101373660046119c7565b610bcb565b6100d361014a3660046118ad565b610c3f565b6b0311d253316c79d37600000081565b866101855760405162461bcd60e51b815260040161017c90611c2c565b60405180910390fd5b858711156101a55760405162461bcd60e51b815260040161017c90611f07565b6001600160a01b03881660009081526020869052604081206101c690610d9d565b5050509050806101e85760405162461bcd60e51b815260040161017c90611bfd565b604051632896711d60e21b815273__$52823eb72a45f95066ef794f497be82380$__9063a259c4749061022d908c9033908d908c908c908c908c908c90600401611a6e565b60206040518083038186803b15801561024557600080fd5b505af4158015610259573d6000803e3d6000fd5b505050506040513d601f19601f8201168201806040525081019061027d9190611891565b6102995760405162461bcd60e51b815260040161017c90611d72565b505050505050505050565b60006102af87610dd5565b9050806102ce5760405162461bcd60e51b815260040161017c90611bfd565b600086116102ee5760405162461bcd60e51b815260040161017c90611c2c565b6000831180156103095750600185600281111561030757fe5b145b8061032a575060008211801561032a5750600285600281111561032857fe5b145b6103465760405162461bcd60e51b815260040161017c90611da0565b6000198614158061035f5750336001600160a01b038516145b61037b5760405162461bcd60e51b815260040161017c90611fed565b50505050505050565b61038c61163c565b6103958c610d9d565b1515610220850152151561020084015215156101e083015215156101c082018190526103d35760405162461bcd60e51b815260040161017c90611bfd565b806101e00151156103f65760405162461bcd60e51b815260040161017c90611fc2565b896104135760405162461bcd60e51b815260040161017c90611c2c565b8061020001516104355760405162461bcd60e51b815260040161017c90611dd7565b87600214806104445750876001145b6104605760405162461bcd60e51b815260040161017c90611f48565b60408051602081019091528554815261047f908c908890878787610de1565b6101608601526040850152602084015260c083015260a082018190526104b75760405162461bcd60e51b815260040161017c90611f8b565b670de0b6b3a7640000816101600151116104e35760405162461bcd60e51b815260040161017c906120a0565b61050881602001516105028b8460c001516112a890919063ffffffff16565b906112d6565b6080820181905260a082015110156105325760405162461bcd60e51b815260040161017c9061211c565b6001816101800151600281111561054557fe5b14156107185780610220015161056d5760405162461bcd60e51b815260040161017c9061215d565b60078c015460408051602081019091528654815261059491600160a01b900460ff16611336565b15806105a657506105a48c611370565b155b8061063057506004808d01546040516370a0823160e01b81526001600160a01b03909116916370a08231916105dd918f9101611a5a565b60206040518083038186803b1580156105f557600080fd5b505afa158015610609573d6000803e3d6000fd5b505050506040513d601f19601f8201168201806040525081019061062d9190611a42565b8a115b61064c5760405162461bcd60e51b815260040161017c90611b81565b8c6001600160a01b03166370a082318d60040160009054906101000a90046001600160a01b03166040518263ffffffff1660e01b815260040161068f9190611a5a565b60206040518083038186803b1580156106a757600080fd5b505afa1580156106bb573d6000803e3d6000fd5b505050506040513d601f19601f820116820180604052508101906106df9190611a42565b61012082018190526000906106f49089611378565b9050808b11156107165760405162461bcd60e51b815260040161017c90611c6d565b505b50505050505050505050505050565b600061073286610d9d565b5050509050806107545760405162461bcd60e51b815260040161017c90611bfd565b6000610849610844856001600160a01b03166318160ddd6040518163ffffffff1660e01b815260040160206040518083038186803b15801561079557600080fd5b505afa1580156107a9573d6000803e3d6000fd5b505050506040513d601f19601f820116820180604052508101906107cd9190611a42565b876001600160a01b03166318160ddd6040518163ffffffff1660e01b815260040160206040518083038186803b15801561080657600080fd5b505afa15801561081a573d6000803e3d6000fd5b505050506040513d601f19601f8201168201806040525081019061083e9190611a42565b906112a8565b6113cc565b905060006108cc876001600160a01b03166370a08231866040518263ffffffff1660e01b815260040161087c9190611a5a565b60206040518083038186803b15801561089457600080fd5b505afa1580156108a8573d6000803e3d6000fd5b505050506040513d601f19601f820116820180604052508101906108449190611a42565b9050600082156108ef576108ea6108e383856112a8565b84906113f7565b6108f2565b60005b60028a015460078b0154604080516380031e3760e01b815290519394506fffffffffffffffffffffffffffffffff909216926000926001600160a01b03909216916380031e37916004808301926020929190829003018186803b15801561095857600080fd5b505afa15801561096c573d6000803e3d6000fd5b505050506040513d601f19601f820116820180604052508101906109909190611a42565b90506b0311d253316c79d37600000083101580156109b957506109b581610fa0611378565b8211155b6109d55760405162461bcd60e51b815260040161017c90611e77565b5050505050505050505050565b610fa081565b600080806109f588610d9d565b9350509250925082610a195760405162461bcd60e51b815260040161017c90611bfd565b8115610a375760405162461bcd60e51b815260040161017c90611fc2565b6001846002811115610a4557fe5b1415610a705760008611610a6b5760405162461bcd60e51b815260040161017c90611cfa565b610bc1565b6002846002811115610a7e57fe5b1415610ba95760008511610aa45760405162461bcd60e51b815260040161017c90611ec4565b80610ac15760405162461bcd60e51b815260040161017c90612032565b6007880154604080516020810190915288548152610ae891600160a01b900460ff16611336565b1580610afa5750610af888611370565b155b80610b8d57506004808901546040516370a0823160e01b81526001600160a01b03909116916370a0823191610b3191339101611a5a565b60206040518083038186803b158015610b4957600080fd5b505afa158015610b5d573d6000803e3d6000fd5b505050506040513d601f19601f82011682018060405250810190610b819190611a42565b610b8b87876112a8565b115b610a6b5760405162461bcd60e51b815260040161017c90611b81565b60405162461bcd60e51b815260040161017c90611f48565b5050505050505050565b600080610bd784610d9d565b5050915091508260001415610bfe5760405162461bcd60e51b815260040161017c90611c2c565b81610c1b5760405162461bcd60e51b815260040161017c90611bfd565b8015610c395760405162461bcd60e51b815260040161017c90611fc2565b50505050565b6004808901546040516370a0823160e01b81526000926001600160a01b03909216916370a0823191610c7391339101611a5a565b60206040518083038186803b158015610c8b57600080fd5b505afa158015610c9f573d6000803e3d6000fd5b505050506040513d601f19601f82011682018060405250810190610cc39190611a42565b905060008111610ce55760405162461bcd60e51b815260040161017c90611b3b565b8680610d815750604051632896711d60e21b815273__$52823eb72a45f95066ef794f497be82380$__9063a259c47490610d31908b90339086908c908c908c908c908c90600401611a6e565b60206040518083038186803b158015610d4957600080fd5b505af4158015610d5d573d6000803e3d6000fd5b505050506040513d601f19601f82011682018060405250810190610d819190611891565b6102995760405162461bcd60e51b815260040161017c90611e06565b54600160381b811615159167020000000000000082161515916704000000000000008116151591670800000000000000909116151590565b54600160381b16151590565b6000806000806000610df16116d2565b610dfa8a611462565b15610e1857600080600080600019955095509550955095505061129a565b600060e08201525b878160e0015110156111f95760e0810151610e3c908b90611467565b610e45576111e9565b60e0810151600090815260208a81526040808320546001600160a01b03166101e085018190528352908d90529020610e7c8161149a565b506080860181905260c08601929092525060a0840191909152600a0a60208301526101e082015160405163b3596f0760e01b81526001600160a01b038a169163b3596f0791610ece9190600401611a5a565b60206040518083038186803b158015610ee657600080fd5b505afa158015610efa573d6000803e3d6000fd5b505050506040513d601f19601f82011682018060405250810190610f1e9190611a42565b825260c082015115801590610f3e575060e0820151610f3e908c90611336565b15611062578060040160009054906101000a90046001600160a01b03166001600160a01b03166370a082318e6040518263ffffffff1660e01b8152600401610f869190611a5a565b60206040518083038186803b158015610f9e57600080fd5b505afa158015610fb2573d6000803e3d6000fd5b505050506040513d601f19601f82011682018060405250810190610fd69190611a42565b6040830181905260208301518351600092610ffb9291610ff5916114c5565b906114ff565b61012084015190915061100e90826112a8565b61012084015260a0830151611034906110289083906114c5565b610160850151906112a8565b61016084015260c083015161105a9061104e9083906114c5565b610180850151906112a8565b610180840152505b60e0820151611072908c90611541565b156111e7578060050160009054906101000a90046001600160a01b03166001600160a01b03166370a082318e6040518263ffffffff1660e01b81526004016110ba9190611a5a565b60206040518083038186803b1580156110d257600080fd5b505afa1580156110e6573d6000803e3d6000fd5b505050506040513d601f19601f8201168201806040525081019061110a9190611a42565b8260600181815250506111b48160060160009054906101000a90046001600160a01b03166001600160a01b03166370a082318f6040518263ffffffff1660e01b81526004016111599190611a5a565b60206040518083038186803b15801561117157600080fd5b505afa158015611185573d6000803e3d6000fd5b505050506040513d601f19601f820116820180604052508101906111a99190611a42565b6060840151906112a8565b60608301819052602083015183516111e0926111d49291610ff5916114c5565b610140840151906112a8565b6101408301525b505b60e0810180516001019052610e20565b60008161012001511161120d576000611222565b610120810151610160820151611222916114ff565b61016082015261012081015161123957600061124e565b61012081015161018082015161124e916114ff565b610180820181905261012082015161014083015161126b92611574565b610100820181905261012082015161014083015161016084015161018090940151919850965091945090925090505b965096509650965096915050565b6000828201838110156112cd5760405162461bcd60e51b815260040161017c90611bc6565b90505b92915050565b6000816112f55760405162461bcd60e51b815260040161017c906120ed565b6002820461271081190484111561131e5760405162461bcd60e51b815260040161017c90611b06565b82816127108602018161132d57fe5b04949350505050565b6000608082106113585760405162461bcd60e51b815260040161017c90612194565b50815160016002830281019190911c16151592915050565b5461ffff1690565b6000821580611385575081155b15611392575060006112d0565b81611388198161139e57fe5b048311156113be5760405162461bcd60e51b815260040161017c90611cb4565b506127109102611388010490565b6000633b9aca0082810290810483146112d05760405162461bcd60e51b815260040161017c90612069565b6000816114165760405162461bcd60e51b815260040161017c906121cb565b600282046b033b2e3c9fd0803ce80000008119048411156114495760405162461bcd60e51b815260040161017c90611d3b565b82816b033b2e3c9fd0803ce80000008602018161132d57fe5b511590565b6000608082106114895760405162461bcd60e51b815260040161017c90612194565b509051600360029092021c16151590565b5461ffff80821692601083901c821692602081901c83169260ff603083901c169260409290921c1690565b6000826114d4575060006112d0565b828202828482816114e157fe5b04146112cd5760405162461bcd60e51b815260040161017c90611e36565b60006112cd83836040518060400160405280601a81526020017f536166654d6174683a206469766973696f6e206279207a65726f0000000000008152506115a2565b6000608082106115635760405162461bcd60e51b815260040161017c90612194565b509051600160029092021c16151590565b600082611584575060001961159b565b611598836115928685611378565b906115d9565b90505b9392505050565b600081836115c35760405162461bcd60e51b815260040161017c9190611ab3565b5060008385816115cf57fe5b0495945050505050565b6000816115f85760405162461bcd60e51b815260040161017c906121cb565b60028204670de0b6b3a76400008119048411156116275760405162461bcd60e51b815260040161017c90611d3b565b8281670de0b6b3a76400008602018161132d57fe5b604051806102400160405280600081526020016000815260200160008152602001600081526020016000815260200160008152602001600081526020016000815260200160008152602001600081526020016000815260200160008152602001600060028111156116a957fe5b815260006020820181905260408201819052606082018190526080820181905260a09091015290565b604051806102400160405280600081526020016000815260200160008152602001600081526020016000815260200160008152602001600081526020016000815260200160008152602001600081526020016000815260200160008152602001600081526020016000815260200160001515815260200160006001600160a01b031681526020016000151581526020016000151581525090565b8035600381106112d057600080fd5b6000806000806000806000806000806000806101808d8f03121561179d578788fd5b8c356117a881612203565b9b5060208d01359a5060408d01356117bf81612203565b995060608d0135985060808d0135975060a08d0135965060c08d0135955060e08d013594506101008d013593506101208d013592506101408d013591506101608d013561180b81612203565b809150509295989b509295989b509295989b565b600080600080600080600080610100898b03121561183b578384fd5b883561184681612203565b97506020890135965060408901359550606089013594506080890135935060a0890135925060c0890135915060e089013561188081612203565b809150509295985092959890939650565b6000602082840312156118a2578081fd5b81516112cd8161221b565b600080600080600080600080610100898b0312156118c9578384fd5b8835975060208901356118db81612203565b965060408901356118eb8161221b565b9550606089013594506080890135935060a0890135925060c0890135915060e089013561188081612203565b600080600080600060a0868803121561192e578081fd5b85359450602086013561194081612203565b9350604086013561195081612203565b9250606086013561196081612203565b9150608086013561197081612203565b809150509295509295909350565b600080600080600060a08688031215611995578081fd5b853594506020860135935060408601359250606086013591506119bb876080880161176c565b90509295509295909350565b600080604083850312156119d9578182fd5b50508035926020909101359150565b60008060008060008060c08789031215611a00578384fd5b8635955060208701359450611a18886040890161176c565b93506060870135611a2881612203565b9598949750929560808101359460a0909101359350915050565b600060208284031215611a53578081fd5b5051919050565b6001600160a01b0391909116815260200190565b6001600160a01b0398891681529688166020880152604087019590955260608601939093529054608085015260a084015260c083015290911660e08201526101000190565b6000602080835283518082850152825b81811015611adf57858101830151858201604001528201611ac3565b81811115611af05783604083870101525b50601f01601f1916929092016040019392505050565b6020808252818101527f50657263656e74616765204d617468203a204469766973696f6e206572726f72604082015260600190565b60208082526026908201527f20554e4445524c59494e472042414c414e4345204e4f5420475245415445522060408201526505448414e20360d41b606082015260800190565b60208082526025908201527f434f4c4c41544552414c2053414d4520415320424f52524f57494e472043555260408201526452454e435960d81b606082015260800190565b6020808252601b908201527f536166654d6174683a206164646974696f6e206f766572666c6f770000000000604082015260600190565b602080825260159082015274496e737472756d656e74206e6f742041637469766560581b604082015260600190565b60208082526021908201527f416d6f756e74206e6565647320746f2062652067726561746572207468616e206040820152600360fc1b606082015260800190565b60208082526027908201527f414d4f554e5420424947474552205448414e204d4158204c4f414e2053495a4560408201526620535441424c4560c81b606082015260800190565b60208082526026908201527f50657263656e74616765204d617468203a204d756c7469706c69636174696f6e6040820152651032b93937b960d11b606082015260800190565b60208082526021908201527f4e4f20535441424c452052415445204c4f414e20494e20494e535452554d454e6040820152601560fa1b606082015260800190565b6020808252601c908201527f4d4154485f4d554c5449504c49434154494f4e5f4f564552464c4f5700000000604082015260600190565b6020808252601490820152731514905394d19154881393d50810531313d5d15160621b604082015260600190565b60208082526018908201527f4e4f2044454254204f462053454c454354454420545950450000000000000000604082015260600190565b602080825260159082015274109bdc9c9bddda5b99c81b9bdd08195b98589b1959605a1b604082015260600190565b6020808252601690820152754445504f53495420414c524541445920494e2055534560501b604082015260600190565b60208082526021908201527f536166654d6174683a206d756c7469706c69636174696f6e206f766572666c6f6040820152607760f81b606082015260800190565b6020808252602d908201527f4c5020494e544552455354205241544520524542414c414e434520434f4e444960408201526c151253d394c81393d508135155609a1b606082015260800190565b60208082526023908201527f4e4f205641524941424c452052415445204c4f414e20494e20494e535452554d60408201526211539560ea1b606082015260800190565b60208082526021908201527f4e4f5420454e4f55474820415641494c41424c4520555345522042414c414e436040820152604560f81b606082015260800190565b60208082526023908201527f494e56414c494420494e5445524553542052415445204d4f44452053454c454360408201526215115160ea1b606082015260800190565b60208082526017908201527f436f6c6c61746572616c2042616c616e63652069732030000000000000000000604082015260600190565b60208082526011908201527024b739ba393ab6b2b73a10233937bd32b760791b604082015260600190565b60208082526025908201527f4e4f204558504c4943495420414d4f554e5420544f205245504159204f4e204260408201526422a420a62360d91b606082015260800190565b6020808252601d908201527f20535441424c4520424f52524f57494e47204e4f5420454e41424c4544000000604082015260600190565b6020808252601c908201527f4d415448204d554c5449504c49434154494f4e204f564552464c4f5700000000604082015260600190565b6020808252602d908201527f4865616c746820466163746f72206c657373207468616e204c6971756964617460408201526c1a5bdb881d1a1c995cda1bdb19609a1b606082015260800190565b6020808252601590820152744d415448204449564953494f4e204259205a45524f60581b604082015260600190565b60208082526021908201527f4e6f742073756666696369656e7420636f6c6c61746572616c2070726573656e6040820152601d60fa1b606082015260800190565b6020808252601a908201527f537461626c6520426f72726f77206e6f7420656e61626c65642e000000000000604082015260600190565b60208082526018908201527f496e76616c696420696e737472756d656e7420496e6465780000000000000000604082015260600190565b6020808252601590820152744d4154485f4449564953494f4e5f42595f5a45524f60581b604082015260600190565b90815260200190565b6001600160a01b038116811461221857600080fd5b50565b801515811461221857600080fdfea2646970667358221220f4fd446725183e65b36ee3c5e6cfa19accf9810a7e2b9cbcb00e37a2a12c9f8f64736f6c63430007000033",
			"opcodes": "PUSH2 0x225F PUSH2 0x26 PUSH1 0xB DUP3 DUP3 DUP3 CODECOPY DUP1 MLOAD PUSH1 0x0 BYTE PUSH1 0x73 EQ PUSH2 0x19 JUMPI INVALID JUMPDEST ADDRESS PUSH1 0x0 MSTORE PUSH1 0x73 DUP2 MSTORE8 DUP3 DUP2 RETURN INVALID PUSH20 0x0 ADDRESS EQ PUSH1 0x80 PUSH1 0x40 MSTORE PUSH1 0x4 CALLDATASIZE LT PUSH2 0x9D JUMPI PUSH1 0x0 CALLDATALOAD PUSH1 0xE0 SHR DUP1 PUSH4 0xA463AE14 GT PUSH2 0x70 JUMPI DUP1 PUSH4 0xA463AE14 EQ PUSH2 0xFB JUMPI DUP1 PUSH4 0xABFCC86A EQ PUSH2 0x10E JUMPI DUP1 PUSH4 0xCC2A02D7 EQ PUSH2 0x116 JUMPI DUP1 PUSH4 0xCE310115 EQ PUSH2 0x129 JUMPI DUP1 PUSH4 0xEFA388BE EQ PUSH2 0x13C JUMPI PUSH2 0x9D JUMP JUMPDEST DUP1 PUSH4 0x5494EB8A EQ PUSH2 0xA2 JUMPI DUP1 PUSH4 0x655F0BD8 EQ PUSH2 0xC0 JUMPI DUP1 PUSH4 0x73721F8D EQ PUSH2 0xD5 JUMPI DUP1 PUSH4 0x81DD5443 EQ PUSH2 0xE8 JUMPI JUMPDEST PUSH1 0x0 DUP1 REVERT JUMPDEST PUSH2 0xAA PUSH2 0x14F JUMP JUMPDEST PUSH1 0x40 MLOAD PUSH2 0xB7 SWAP2 SWAP1 PUSH2 0x21FA JUMP JUMPDEST PUSH1 0x40 MLOAD DUP1 SWAP2 SUB SWAP1 RETURN JUMPDEST PUSH2 0xD3 PUSH2 0xCE CALLDATASIZE PUSH1 0x4 PUSH2 0x181F JUMP JUMPDEST PUSH2 0x15F JUMP JUMPDEST STOP JUMPDEST PUSH2 0xD3 PUSH2 0xE3 CALLDATASIZE PUSH1 0x4 PUSH2 0x19E8 JUMP JUMPDEST PUSH2 0x2A4 JUMP JUMPDEST PUSH2 0xD3 PUSH2 0xF6 CALLDATASIZE PUSH1 0x4 PUSH2 0x177B JUMP JUMPDEST PUSH2 0x384 JUMP JUMPDEST PUSH2 0xD3 PUSH2 0x109 CALLDATASIZE PUSH1 0x4 PUSH2 0x1917 JUMP JUMPDEST PUSH2 0x727 JUMP JUMPDEST PUSH2 0xAA PUSH2 0x9E2 JUMP JUMPDEST PUSH2 0xD3 PUSH2 0x124 CALLDATASIZE PUSH1 0x4 PUSH2 0x197E JUMP JUMPDEST PUSH2 0x9E8 JUMP JUMPDEST PUSH2 0xD3 PUSH2 0x137 CALLDATASIZE PUSH1 0x4 PUSH2 0x19C7 JUMP JUMPDEST PUSH2 0xBCB JUMP JUMPDEST PUSH2 0xD3 PUSH2 0x14A CALLDATASIZE PUSH1 0x4 PUSH2 0x18AD JUMP JUMPDEST PUSH2 0xC3F JUMP JUMPDEST PUSH12 0x311D253316C79D376000000 DUP2 JUMP JUMPDEST DUP7 PUSH2 0x185 JUMPI PUSH1 0x40 MLOAD PUSH3 0x461BCD PUSH1 0xE5 SHL DUP2 MSTORE PUSH1 0x4 ADD PUSH2 0x17C SWAP1 PUSH2 0x1C2C JUMP JUMPDEST PUSH1 0x40 MLOAD DUP1 SWAP2 SUB SWAP1 REVERT JUMPDEST DUP6 DUP8 GT ISZERO PUSH2 0x1A5 JUMPI PUSH1 0x40 MLOAD PUSH3 0x461BCD PUSH1 0xE5 SHL DUP2 MSTORE PUSH1 0x4 ADD PUSH2 0x17C SWAP1 PUSH2 0x1F07 JUMP JUMPDEST PUSH1 0x1 PUSH1 0x1 PUSH1 0xA0 SHL SUB DUP9 AND PUSH1 0x0 SWAP1 DUP2 MSTORE PUSH1 0x20 DUP7 SWAP1 MSTORE PUSH1 0x40 DUP2 KECCAK256 PUSH2 0x1C6 SWAP1 PUSH2 0xD9D JUMP JUMPDEST POP POP POP SWAP1 POP DUP1 PUSH2 0x1E8 JUMPI PUSH1 0x40 MLOAD PUSH3 0x461BCD PUSH1 0xE5 SHL DUP2 MSTORE PUSH1 0x4 ADD PUSH2 0x17C SWAP1 PUSH2 0x1BFD JUMP JUMPDEST PUSH1 0x40 MLOAD PUSH4 0x2896711D PUSH1 0xE2 SHL DUP2 MSTORE PUSH20 0x0 SWAP1 PUSH4 0xA259C474 SWAP1 PUSH2 0x22D SWAP1 DUP13 SWAP1 CALLER SWAP1 DUP14 SWAP1 DUP13 SWAP1 DUP13 SWAP1 DUP13 SWAP1 DUP13 SWAP1 DUP13 SWAP1 PUSH1 0x4 ADD PUSH2 0x1A6E JUMP JUMPDEST PUSH1 0x20 PUSH1 0x40 MLOAD DUP1 DUP4 SUB DUP2 DUP7 DUP1 EXTCODESIZE ISZERO DUP1 ISZERO PUSH2 0x245 JUMPI PUSH1 0x0 DUP1 REVERT JUMPDEST POP GAS DELEGATECALL ISZERO DUP1 ISZERO PUSH2 0x259 JUMPI RETURNDATASIZE PUSH1 0x0 DUP1 RETURNDATACOPY RETURNDATASIZE PUSH1 0x0 REVERT JUMPDEST POP POP POP POP PUSH1 0x40 MLOAD RETURNDATASIZE PUSH1 0x1F NOT PUSH1 0x1F DUP3 ADD AND DUP3 ADD DUP1 PUSH1 0x40 MSTORE POP DUP2 ADD SWAP1 PUSH2 0x27D SWAP2 SWAP1 PUSH2 0x1891 JUMP JUMPDEST PUSH2 0x299 JUMPI PUSH1 0x40 MLOAD PUSH3 0x461BCD PUSH1 0xE5 SHL DUP2 MSTORE PUSH1 0x4 ADD PUSH2 0x17C SWAP1 PUSH2 0x1D72 JUMP JUMPDEST POP POP POP POP POP POP POP POP POP JUMP JUMPDEST PUSH1 0x0 PUSH2 0x2AF DUP8 PUSH2 0xDD5 JUMP JUMPDEST SWAP1 POP DUP1 PUSH2 0x2CE JUMPI PUSH1 0x40 MLOAD PUSH3 0x461BCD PUSH1 0xE5 SHL DUP2 MSTORE PUSH1 0x4 ADD PUSH2 0x17C SWAP1 PUSH2 0x1BFD JUMP JUMPDEST PUSH1 0x0 DUP7 GT PUSH2 0x2EE JUMPI PUSH1 0x40 MLOAD PUSH3 0x461BCD PUSH1 0xE5 SHL DUP2 MSTORE PUSH1 0x4 ADD PUSH2 0x17C SWAP1 PUSH2 0x1C2C JUMP JUMPDEST PUSH1 0x0 DUP4 GT DUP1 ISZERO PUSH2 0x309 JUMPI POP PUSH1 0x1 DUP6 PUSH1 0x2 DUP2 GT ISZERO PUSH2 0x307 JUMPI INVALID JUMPDEST EQ JUMPDEST DUP1 PUSH2 0x32A JUMPI POP PUSH1 0x0 DUP3 GT DUP1 ISZERO PUSH2 0x32A JUMPI POP PUSH1 0x2 DUP6 PUSH1 0x2 DUP2 GT ISZERO PUSH2 0x328 JUMPI INVALID JUMPDEST EQ JUMPDEST PUSH2 0x346 JUMPI PUSH1 0x40 MLOAD PUSH3 0x461BCD PUSH1 0xE5 SHL DUP2 MSTORE PUSH1 0x4 ADD PUSH2 0x17C SWAP1 PUSH2 0x1DA0 JUMP JUMPDEST PUSH1 0x0 NOT DUP7 EQ ISZERO DUP1 PUSH2 0x35F JUMPI POP CALLER PUSH1 0x1 PUSH1 0x1 PUSH1 0xA0 SHL SUB DUP6 AND EQ JUMPDEST PUSH2 0x37B JUMPI PUSH1 0x40 MLOAD PUSH3 0x461BCD PUSH1 0xE5 SHL DUP2 MSTORE PUSH1 0x4 ADD PUSH2 0x17C SWAP1 PUSH2 0x1FED JUMP JUMPDEST POP POP POP POP POP POP POP JUMP JUMPDEST PUSH2 0x38C PUSH2 0x163C JUMP JUMPDEST PUSH2 0x395 DUP13 PUSH2 0xD9D JUMP JUMPDEST ISZERO ISZERO PUSH2 0x220 DUP6 ADD MSTORE ISZERO ISZERO PUSH2 0x200 DUP5 ADD MSTORE ISZERO ISZERO PUSH2 0x1E0 DUP4 ADD MSTORE ISZERO ISZERO PUSH2 0x1C0 DUP3 ADD DUP2 SWAP1 MSTORE PUSH2 0x3D3 JUMPI PUSH1 0x40 MLOAD PUSH3 0x461BCD PUSH1 0xE5 SHL DUP2 MSTORE PUSH1 0x4 ADD PUSH2 0x17C SWAP1 PUSH2 0x1BFD JUMP JUMPDEST DUP1 PUSH2 0x1E0 ADD MLOAD ISZERO PUSH2 0x3F6 JUMPI PUSH1 0x40 MLOAD PUSH3 0x461BCD PUSH1 0xE5 SHL DUP2 MSTORE PUSH1 0x4 ADD PUSH2 0x17C SWAP1 PUSH2 0x1FC2 JUMP JUMPDEST DUP10 PUSH2 0x413 JUMPI PUSH1 0x40 MLOAD PUSH3 0x461BCD PUSH1 0xE5 SHL DUP2 MSTORE PUSH1 0x4 ADD PUSH2 0x17C SWAP1 PUSH2 0x1C2C JUMP JUMPDEST DUP1 PUSH2 0x200 ADD MLOAD PUSH2 0x435 JUMPI PUSH1 0x40 MLOAD PUSH3 0x461BCD PUSH1 0xE5 SHL DUP2 MSTORE PUSH1 0x4 ADD PUSH2 0x17C SWAP1 PUSH2 0x1DD7 JUMP JUMPDEST DUP8 PUSH1 0x2 EQ DUP1 PUSH2 0x444 JUMPI POP DUP8 PUSH1 0x1 EQ JUMPDEST PUSH2 0x460 JUMPI PUSH1 0x40 MLOAD PUSH3 0x461BCD PUSH1 0xE5 SHL DUP2 MSTORE PUSH1 0x4 ADD PUSH2 0x17C SWAP1 PUSH2 0x1F48 JUMP JUMPDEST PUSH1 0x40 DUP1 MLOAD PUSH1 0x20 DUP2 ADD SWAP1 SWAP2 MSTORE DUP6 SLOAD DUP2 MSTORE PUSH2 0x47F SWAP1 DUP13 SWAP1 DUP9 SWAP1 DUP8 DUP8 DUP8 PUSH2 0xDE1 JUMP JUMPDEST PUSH2 0x160 DUP7 ADD MSTORE PUSH1 0x40 DUP6 ADD MSTORE PUSH1 0x20 DUP5 ADD MSTORE PUSH1 0xC0 DUP4 ADD MSTORE PUSH1 0xA0 DUP3 ADD DUP2 SWAP1 MSTORE PUSH2 0x4B7 JUMPI PUSH1 0x40 MLOAD PUSH3 0x461BCD PUSH1 0xE5 SHL DUP2 MSTORE PUSH1 0x4 ADD PUSH2 0x17C SWAP1 PUSH2 0x1F8B JUMP JUMPDEST PUSH8 0xDE0B6B3A7640000 DUP2 PUSH2 0x160 ADD MLOAD GT PUSH2 0x4E3 JUMPI PUSH1 0x40 MLOAD PUSH3 0x461BCD PUSH1 0xE5 SHL DUP2 MSTORE PUSH1 0x4 ADD PUSH2 0x17C SWAP1 PUSH2 0x20A0 JUMP JUMPDEST PUSH2 0x508 DUP2 PUSH1 0x20 ADD MLOAD PUSH2 0x502 DUP12 DUP5 PUSH1 0xC0 ADD MLOAD PUSH2 0x12A8 SWAP1 SWAP2 SWAP1 PUSH4 0xFFFFFFFF AND JUMP JUMPDEST SWAP1 PUSH2 0x12D6 JUMP JUMPDEST PUSH1 0x80 DUP3 ADD DUP2 SWAP1 MSTORE PUSH1 0xA0 DUP3 ADD MLOAD LT ISZERO PUSH2 0x532 JUMPI PUSH1 0x40 MLOAD PUSH3 0x461BCD PUSH1 0xE5 SHL DUP2 MSTORE PUSH1 0x4 ADD PUSH2 0x17C SWAP1 PUSH2 0x211C JUMP JUMPDEST PUSH1 0x1 DUP2 PUSH2 0x180 ADD MLOAD PUSH1 0x2 DUP2 GT ISZERO PUSH2 0x545 JUMPI INVALID JUMPDEST EQ ISZERO PUSH2 0x718 JUMPI DUP1 PUSH2 0x220 ADD MLOAD PUSH2 0x56D JUMPI PUSH1 0x40 MLOAD PUSH3 0x461BCD PUSH1 0xE5 SHL DUP2 MSTORE PUSH1 0x4 ADD PUSH2 0x17C SWAP1 PUSH2 0x215D JUMP JUMPDEST PUSH1 0x7 DUP13 ADD SLOAD PUSH1 0x40 DUP1 MLOAD PUSH1 0x20 DUP2 ADD SWAP1 SWAP2 MSTORE DUP7 SLOAD DUP2 MSTORE PUSH2 0x594 SWAP2 PUSH1 0x1 PUSH1 0xA0 SHL SWAP1 DIV PUSH1 0xFF AND PUSH2 0x1336 JUMP JUMPDEST ISZERO DUP1 PUSH2 0x5A6 JUMPI POP PUSH2 0x5A4 DUP13 PUSH2 0x1370 JUMP JUMPDEST ISZERO JUMPDEST DUP1 PUSH2 0x630 JUMPI POP PUSH1 0x4 DUP1 DUP14 ADD SLOAD PUSH1 0x40 MLOAD PUSH4 0x70A08231 PUSH1 0xE0 SHL DUP2 MSTORE PUSH1 0x1 PUSH1 0x1 PUSH1 0xA0 SHL SUB SWAP1 SWAP2 AND SWAP2 PUSH4 0x70A08231 SWAP2 PUSH2 0x5DD SWAP2 DUP16 SWAP2 ADD PUSH2 0x1A5A JUMP JUMPDEST PUSH1 0x20 PUSH1 0x40 MLOAD DUP1 DUP4 SUB DUP2 DUP7 DUP1 EXTCODESIZE ISZERO DUP1 ISZERO PUSH2 0x5F5 JUMPI PUSH1 0x0 DUP1 REVERT JUMPDEST POP GAS STATICCALL ISZERO DUP1 ISZERO PUSH2 0x609 JUMPI RETURNDATASIZE PUSH1 0x0 DUP1 RETURNDATACOPY RETURNDATASIZE PUSH1 0x0 REVERT JUMPDEST POP POP POP POP PUSH1 0x40 MLOAD RETURNDATASIZE PUSH1 0x1F NOT PUSH1 0x1F DUP3 ADD AND DUP3 ADD DUP1 PUSH1 0x40 MSTORE POP DUP2 ADD SWAP1 PUSH2 0x62D SWAP2 SWAP1 PUSH2 0x1A42 JUMP JUMPDEST DUP11 GT JUMPDEST PUSH2 0x64C JUMPI PUSH1 0x40 MLOAD PUSH3 0x461BCD PUSH1 0xE5 SHL DUP2 MSTORE PUSH1 0x4 ADD PUSH2 0x17C SWAP1 PUSH2 0x1B81 JUMP JUMPDEST DUP13 PUSH1 0x1 PUSH1 0x1 PUSH1 0xA0 SHL SUB AND PUSH4 0x70A08231 DUP14 PUSH1 0x4 ADD PUSH1 0x0 SWAP1 SLOAD SWAP1 PUSH2 0x100 EXP SWAP1 DIV PUSH1 0x1 PUSH1 0x1 PUSH1 0xA0 SHL SUB AND PUSH1 0x40 MLOAD DUP3 PUSH4 0xFFFFFFFF AND PUSH1 0xE0 SHL DUP2 MSTORE PUSH1 0x4 ADD PUSH2 0x68F SWAP2 SWAP1 PUSH2 0x1A5A JUMP JUMPDEST PUSH1 0x20 PUSH1 0x40 MLOAD DUP1 DUP4 SUB DUP2 DUP7 DUP1 EXTCODESIZE ISZERO DUP1 ISZERO PUSH2 0x6A7 JUMPI PUSH1 0x0 DUP1 REVERT JUMPDEST POP GAS STATICCALL ISZERO DUP1 ISZERO PUSH2 0x6BB JUMPI RETURNDATASIZE PUSH1 0x0 DUP1 RETURNDATACOPY RETURNDATASIZE PUSH1 0x0 REVERT JUMPDEST POP POP POP POP PUSH1 0x40 MLOAD RETURNDATASIZE PUSH1 0x1F NOT PUSH1 0x1F DUP3 ADD AND DUP3 ADD DUP1 PUSH1 0x40 MSTORE POP DUP2 ADD SWAP1 PUSH2 0x6DF SWAP2 SWAP1 PUSH2 0x1A42 JUMP JUMPDEST PUSH2 0x120 DUP3 ADD DUP2 SWAP1 MSTORE PUSH1 0x0 SWAP1 PUSH2 0x6F4 SWAP1 DUP10 PUSH2 0x1378 JUMP JUMPDEST SWAP1 POP DUP1 DUP12 GT ISZERO PUSH2 0x716 JUMPI PUSH1 0x40 MLOAD PUSH3 0x461BCD PUSH1 0xE5 SHL DUP2 MSTORE PUSH1 0x4 ADD PUSH2 0x17C SWAP1 PUSH2 0x1C6D JUMP JUMPDEST POP JUMPDEST POP POP POP POP POP POP POP POP POP POP POP POP POP JUMP JUMPDEST PUSH1 0x0 PUSH2 0x732 DUP7 PUSH2 0xD9D JUMP JUMPDEST POP POP POP SWAP1 POP DUP1 PUSH2 0x754 JUMPI PUSH1 0x40 MLOAD PUSH3 0x461BCD PUSH1 0xE5 SHL DUP2 MSTORE PUSH1 0x4 ADD PUSH2 0x17C SWAP1 PUSH2 0x1BFD JUMP JUMPDEST PUSH1 0x0 PUSH2 0x849 PUSH2 0x844 DUP6 PUSH1 0x1 PUSH1 0x1 PUSH1 0xA0 SHL SUB AND PUSH4 0x18160DDD PUSH1 0x40 MLOAD DUP2 PUSH4 0xFFFFFFFF AND PUSH1 0xE0 SHL DUP2 MSTORE PUSH1 0x4 ADD PUSH1 0x20 PUSH1 0x40 MLOAD DUP1 DUP4 SUB DUP2 DUP7 DUP1 EXTCODESIZE ISZERO DUP1 ISZERO PUSH2 0x795 JUMPI PUSH1 0x0 DUP1 REVERT JUMPDEST POP GAS STATICCALL ISZERO DUP1 ISZERO PUSH2 0x7A9 JUMPI RETURNDATASIZE PUSH1 0x0 DUP1 RETURNDATACOPY RETURNDATASIZE PUSH1 0x0 REVERT JUMPDEST POP POP POP POP PUSH1 0x40 MLOAD RETURNDATASIZE PUSH1 0x1F NOT PUSH1 0x1F DUP3 ADD AND DUP3 ADD DUP1 PUSH1 0x40 MSTORE POP DUP2 ADD SWAP1 PUSH2 0x7CD SWAP2 SWAP1 PUSH2 0x1A42 JUMP JUMPDEST DUP8 PUSH1 0x1 PUSH1 0x1 PUSH1 0xA0 SHL SUB AND PUSH4 0x18160DDD PUSH1 0x40 MLOAD DUP2 PUSH4 0xFFFFFFFF AND PUSH1 0xE0 SHL DUP2 MSTORE PUSH1 0x4 ADD PUSH1 0x20 PUSH1 0x40 MLOAD DUP1 DUP4 SUB DUP2 DUP7 DUP1 EXTCODESIZE ISZERO DUP1 ISZERO PUSH2 0x806 JUMPI PUSH1 0x0 DUP1 REVERT JUMPDEST POP GAS STATICCALL ISZERO DUP1 ISZERO PUSH2 0x81A JUMPI RETURNDATASIZE PUSH1 0x0 DUP1 RETURNDATACOPY RETURNDATASIZE PUSH1 0x0 REVERT JUMPDEST POP POP POP POP PUSH1 0x40 MLOAD RETURNDATASIZE PUSH1 0x1F NOT PUSH1 0x1F DUP3 ADD AND DUP3 ADD DUP1 PUSH1 0x40 MSTORE POP DUP2 ADD SWAP1 PUSH2 0x83E SWAP2 SWAP1 PUSH2 0x1A42 JUMP JUMPDEST SWAP1 PUSH2 0x12A8 JUMP JUMPDEST PUSH2 0x13CC JUMP JUMPDEST SWAP1 POP PUSH1 0x0 PUSH2 0x8CC DUP8 PUSH1 0x1 PUSH1 0x1 PUSH1 0xA0 SHL SUB AND PUSH4 0x70A08231 DUP7 PUSH1 0x40 MLOAD DUP3 PUSH4 0xFFFFFFFF AND PUSH1 0xE0 SHL DUP2 MSTORE PUSH1 0x4 ADD PUSH2 0x87C SWAP2 SWAP1 PUSH2 0x1A5A JUMP JUMPDEST PUSH1 0x20 PUSH1 0x40 MLOAD DUP1 DUP4 SUB DUP2 DUP7 DUP1 EXTCODESIZE ISZERO DUP1 ISZERO PUSH2 0x894 JUMPI PUSH1 0x0 DUP1 REVERT JUMPDEST POP GAS STATICCALL ISZERO DUP1 ISZERO PUSH2 0x8A8 JUMPI RETURNDATASIZE PUSH1 0x0 DUP1 RETURNDATACOPY RETURNDATASIZE PUSH1 0x0 REVERT JUMPDEST POP POP POP POP PUSH1 0x40 MLOAD RETURNDATASIZE PUSH1 0x1F NOT PUSH1 0x1F DUP3 ADD AND DUP3 ADD DUP1 PUSH1 0x40 MSTORE POP DUP2 ADD SWAP1 PUSH2 0x844 SWAP2 SWAP1 PUSH2 0x1A42 JUMP JUMPDEST SWAP1 POP PUSH1 0x0 DUP3 ISZERO PUSH2 0x8EF JUMPI PUSH2 0x8EA PUSH2 0x8E3 DUP4 DUP6 PUSH2 0x12A8 JUMP JUMPDEST DUP5 SWAP1 PUSH2 0x13F7 JUMP JUMPDEST PUSH2 0x8F2 JUMP JUMPDEST PUSH1 0x0 JUMPDEST PUSH1 0x2 DUP11 ADD SLOAD PUSH1 0x7 DUP12 ADD SLOAD PUSH1 0x40 DUP1 MLOAD PUSH4 0x80031E37 PUSH1 0xE0 SHL DUP2 MSTORE SWAP1 MLOAD SWAP4 SWAP5 POP PUSH16 0xFFFFFFFFFFFFFFFFFFFFFFFFFFFFFFFF SWAP1 SWAP3 AND SWAP3 PUSH1 0x0 SWAP3 PUSH1 0x1 PUSH1 0x1 PUSH1 0xA0 SHL SUB SWAP1 SWAP3 AND SWAP2 PUSH4 0x80031E37 SWAP2 PUSH1 0x4 DUP1 DUP4 ADD SWAP3 PUSH1 0x20 SWAP3 SWAP2 SWAP1 DUP3 SWAP1 SUB ADD DUP2 DUP7 DUP1 EXTCODESIZE ISZERO DUP1 ISZERO PUSH2 0x958 JUMPI PUSH1 0x0 DUP1 REVERT JUMPDEST POP GAS STATICCALL ISZERO DUP1 ISZERO PUSH2 0x96C JUMPI RETURNDATASIZE PUSH1 0x0 DUP1 RETURNDATACOPY RETURNDATASIZE PUSH1 0x0 REVERT JUMPDEST POP POP POP POP PUSH1 0x40 MLOAD RETURNDATASIZE PUSH1 0x1F NOT PUSH1 0x1F DUP3 ADD AND DUP3 ADD DUP1 PUSH1 0x40 MSTORE POP DUP2 ADD SWAP1 PUSH2 0x990 SWAP2 SWAP1 PUSH2 0x1A42 JUMP JUMPDEST SWAP1 POP PUSH12 0x311D253316C79D376000000 DUP4 LT ISZERO DUP1 ISZERO PUSH2 0x9B9 JUMPI POP PUSH2 0x9B5 DUP2 PUSH2 0xFA0 PUSH2 0x1378 JUMP JUMPDEST DUP3 GT ISZERO JUMPDEST PUSH2 0x9D5 JUMPI PUSH1 0x40 MLOAD PUSH3 0x461BCD PUSH1 0xE5 SHL DUP2 MSTORE PUSH1 0x4 ADD PUSH2 0x17C SWAP1 PUSH2 0x1E77 JUMP JUMPDEST POP POP POP POP POP POP POP POP POP POP POP JUMP JUMPDEST PUSH2 0xFA0 DUP2 JUMP JUMPDEST PUSH1 0x0 DUP1 DUP1 PUSH2 0x9F5 DUP9 PUSH2 0xD9D JUMP JUMPDEST SWAP4 POP POP SWAP3 POP SWAP3 POP DUP3 PUSH2 0xA19 JUMPI PUSH1 0x40 MLOAD PUSH3 0x461BCD PUSH1 0xE5 SHL DUP2 MSTORE PUSH1 0x4 ADD PUSH2 0x17C SWAP1 PUSH2 0x1BFD JUMP JUMPDEST DUP2 ISZERO PUSH2 0xA37 JUMPI PUSH1 0x40 MLOAD PUSH3 0x461BCD PUSH1 0xE5 SHL DUP2 MSTORE PUSH1 0x4 ADD PUSH2 0x17C SWAP1 PUSH2 0x1FC2 JUMP JUMPDEST PUSH1 0x1 DUP5 PUSH1 0x2 DUP2 GT ISZERO PUSH2 0xA45 JUMPI INVALID JUMPDEST EQ ISZERO PUSH2 0xA70 JUMPI PUSH1 0x0 DUP7 GT PUSH2 0xA6B JUMPI PUSH1 0x40 MLOAD PUSH3 0x461BCD PUSH1 0xE5 SHL DUP2 MSTORE PUSH1 0x4 ADD PUSH2 0x17C SWAP1 PUSH2 0x1CFA JUMP JUMPDEST PUSH2 0xBC1 JUMP JUMPDEST PUSH1 0x2 DUP5 PUSH1 0x2 DUP2 GT ISZERO PUSH2 0xA7E JUMPI INVALID JUMPDEST EQ ISZERO PUSH2 0xBA9 JUMPI PUSH1 0x0 DUP6 GT PUSH2 0xAA4 JUMPI PUSH1 0x40 MLOAD PUSH3 0x461BCD PUSH1 0xE5 SHL DUP2 MSTORE PUSH1 0x4 ADD PUSH2 0x17C SWAP1 PUSH2 0x1EC4 JUMP JUMPDEST DUP1 PUSH2 0xAC1 JUMPI PUSH1 0x40 MLOAD PUSH3 0x461BCD PUSH1 0xE5 SHL DUP2 MSTORE PUSH1 0x4 ADD PUSH2 0x17C SWAP1 PUSH2 0x2032 JUMP JUMPDEST PUSH1 0x7 DUP9 ADD SLOAD PUSH1 0x40 DUP1 MLOAD PUSH1 0x20 DUP2 ADD SWAP1 SWAP2 MSTORE DUP9 SLOAD DUP2 MSTORE PUSH2 0xAE8 SWAP2 PUSH1 0x1 PUSH1 0xA0 SHL SWAP1 DIV PUSH1 0xFF AND PUSH2 0x1336 JUMP JUMPDEST ISZERO DUP1 PUSH2 0xAFA JUMPI POP PUSH2 0xAF8 DUP9 PUSH2 0x1370 JUMP JUMPDEST ISZERO JUMPDEST DUP1 PUSH2 0xB8D JUMPI POP PUSH1 0x4 DUP1 DUP10 ADD SLOAD PUSH1 0x40 MLOAD PUSH4 0x70A08231 PUSH1 0xE0 SHL DUP2 MSTORE PUSH1 0x1 PUSH1 0x1 PUSH1 0xA0 SHL SUB SWAP1 SWAP2 AND SWAP2 PUSH4 0x70A08231 SWAP2 PUSH2 0xB31 SWAP2 CALLER SWAP2 ADD PUSH2 0x1A5A JUMP JUMPDEST PUSH1 0x20 PUSH1 0x40 MLOAD DUP1 DUP4 SUB DUP2 DUP7 DUP1 EXTCODESIZE ISZERO DUP1 ISZERO PUSH2 0xB49 JUMPI PUSH1 0x0 DUP1 REVERT JUMPDEST POP GAS STATICCALL ISZERO DUP1 ISZERO PUSH2 0xB5D JUMPI RETURNDATASIZE PUSH1 0x0 DUP1 RETURNDATACOPY RETURNDATASIZE PUSH1 0x0 REVERT JUMPDEST POP POP POP POP PUSH1 0x40 MLOAD RETURNDATASIZE PUSH1 0x1F NOT PUSH1 0x1F DUP3 ADD AND DUP3 ADD DUP1 PUSH1 0x40 MSTORE POP DUP2 ADD SWAP1 PUSH2 0xB81 SWAP2 SWAP1 PUSH2 0x1A42 JUMP JUMPDEST PUSH2 0xB8B DUP8 DUP8 PUSH2 0x12A8 JUMP JUMPDEST GT JUMPDEST PUSH2 0xA6B JUMPI PUSH1 0x40 MLOAD PUSH3 0x461BCD PUSH1 0xE5 SHL DUP2 MSTORE PUSH1 0x4 ADD PUSH2 0x17C SWAP1 PUSH2 0x1B81 JUMP JUMPDEST PUSH1 0x40 MLOAD PUSH3 0x461BCD PUSH1 0xE5 SHL DUP2 MSTORE PUSH1 0x4 ADD PUSH2 0x17C SWAP1 PUSH2 0x1F48 JUMP JUMPDEST POP POP POP POP POP POP POP POP JUMP JUMPDEST PUSH1 0x0 DUP1 PUSH2 0xBD7 DUP5 PUSH2 0xD9D JUMP JUMPDEST POP POP SWAP2 POP SWAP2 POP DUP3 PUSH1 0x0 EQ ISZERO PUSH2 0xBFE JUMPI PUSH1 0x40 MLOAD PUSH3 0x461BCD PUSH1 0xE5 SHL DUP2 MSTORE PUSH1 0x4 ADD PUSH2 0x17C SWAP1 PUSH2 0x1C2C JUMP JUMPDEST DUP2 PUSH2 0xC1B JUMPI PUSH1 0x40 MLOAD PUSH3 0x461BCD PUSH1 0xE5 SHL DUP2 MSTORE PUSH1 0x4 ADD PUSH2 0x17C SWAP1 PUSH2 0x1BFD JUMP JUMPDEST DUP1 ISZERO PUSH2 0xC39 JUMPI PUSH1 0x40 MLOAD PUSH3 0x461BCD PUSH1 0xE5 SHL DUP2 MSTORE PUSH1 0x4 ADD PUSH2 0x17C SWAP1 PUSH2 0x1FC2 JUMP JUMPDEST POP POP POP POP JUMP JUMPDEST PUSH1 0x4 DUP1 DUP10 ADD SLOAD PUSH1 0x40 MLOAD PUSH4 0x70A08231 PUSH1 0xE0 SHL DUP2 MSTORE PUSH1 0x0 SWAP3 PUSH1 0x1 PUSH1 0x1 PUSH1 0xA0 SHL SUB SWAP1 SWAP3 AND SWAP2 PUSH4 0x70A08231 SWAP2 PUSH2 0xC73 SWAP2 CALLER SWAP2 ADD PUSH2 0x1A5A JUMP JUMPDEST PUSH1 0x20 PUSH1 0x40 MLOAD DUP1 DUP4 SUB DUP2 DUP7 DUP1 EXTCODESIZE ISZERO DUP1 ISZERO PUSH2 0xC8B JUMPI PUSH1 0x0 DUP1 REVERT JUMPDEST POP GAS STATICCALL ISZERO DUP1 ISZERO PUSH2 0xC9F JUMPI RETURNDATASIZE PUSH1 0x0 DUP1 RETURNDATACOPY RETURNDATASIZE PUSH1 0x0 REVERT JUMPDEST POP POP POP POP PUSH1 0x40 MLOAD RETURNDATASIZE PUSH1 0x1F NOT PUSH1 0x1F DUP3 ADD AND DUP3 ADD DUP1 PUSH1 0x40 MSTORE POP DUP2 ADD SWAP1 PUSH2 0xCC3 SWAP2 SWAP1 PUSH2 0x1A42 JUMP JUMPDEST SWAP1 POP PUSH1 0x0 DUP2 GT PUSH2 0xCE5 JUMPI PUSH1 0x40 MLOAD PUSH3 0x461BCD PUSH1 0xE5 SHL DUP2 MSTORE PUSH1 0x4 ADD PUSH2 0x17C SWAP1 PUSH2 0x1B3B JUMP JUMPDEST DUP7 DUP1 PUSH2 0xD81 JUMPI POP PUSH1 0x40 MLOAD PUSH4 0x2896711D PUSH1 0xE2 SHL DUP2 MSTORE PUSH20 0x0 SWAP1 PUSH4 0xA259C474 SWAP1 PUSH2 0xD31 SWAP1 DUP12 SWAP1 CALLER SWAP1 DUP7 SWAP1 DUP13 SWAP1 DUP13 SWAP1 DUP13 SWAP1 DUP13 SWAP1 DUP13 SWAP1 PUSH1 0x4 ADD PUSH2 0x1A6E JUMP JUMPDEST PUSH1 0x20 PUSH1 0x40 MLOAD DUP1 DUP4 SUB DUP2 DUP7 DUP1 EXTCODESIZE ISZERO DUP1 ISZERO PUSH2 0xD49 JUMPI PUSH1 0x0 DUP1 REVERT JUMPDEST POP GAS DELEGATECALL ISZERO DUP1 ISZERO PUSH2 0xD5D JUMPI RETURNDATASIZE PUSH1 0x0 DUP1 RETURNDATACOPY RETURNDATASIZE PUSH1 0x0 REVERT JUMPDEST POP POP POP POP PUSH1 0x40 MLOAD RETURNDATASIZE PUSH1 0x1F NOT PUSH1 0x1F DUP3 ADD AND DUP3 ADD DUP1 PUSH1 0x40 MSTORE POP DUP2 ADD SWAP1 PUSH2 0xD81 SWAP2 SWAP1 PUSH2 0x1891 JUMP JUMPDEST PUSH2 0x299 JUMPI PUSH1 0x40 MLOAD PUSH3 0x461BCD PUSH1 0xE5 SHL DUP2 MSTORE PUSH1 0x4 ADD PUSH2 0x17C SWAP1 PUSH2 0x1E06 JUMP JUMPDEST SLOAD PUSH1 0x1 PUSH1 0x38 SHL DUP2 AND ISZERO ISZERO SWAP2 PUSH8 0x200000000000000 DUP3 AND ISZERO ISZERO SWAP2 PUSH8 0x400000000000000 DUP2 AND ISZERO ISZERO SWAP2 PUSH8 0x800000000000000 SWAP1 SWAP2 AND ISZERO ISZERO SWAP1 JUMP JUMPDEST SLOAD PUSH1 0x1 PUSH1 0x38 SHL AND ISZERO ISZERO SWAP1 JUMP JUMPDEST PUSH1 0x0 DUP1 PUSH1 0x0 DUP1 PUSH1 0x0 PUSH2 0xDF1 PUSH2 0x16D2 JUMP JUMPDEST PUSH2 0xDFA DUP11 PUSH2 0x1462 JUMP JUMPDEST ISZERO PUSH2 0xE18 JUMPI PUSH1 0x0 DUP1 PUSH1 0x0 DUP1 PUSH1 0x0 NOT SWAP6 POP SWAP6 POP SWAP6 POP SWAP6 POP SWAP6 POP POP PUSH2 0x129A JUMP JUMPDEST PUSH1 0x0 PUSH1 0xE0 DUP3 ADD MSTORE JUMPDEST DUP8 DUP2 PUSH1 0xE0 ADD MLOAD LT ISZERO PUSH2 0x11F9 JUMPI PUSH1 0xE0 DUP2 ADD MLOAD PUSH2 0xE3C SWAP1 DUP12 SWAP1 PUSH2 0x1467 JUMP JUMPDEST PUSH2 0xE45 JUMPI PUSH2 0x11E9 JUMP JUMPDEST PUSH1 0xE0 DUP2 ADD MLOAD PUSH1 0x0 SWAP1 DUP2 MSTORE PUSH1 0x20 DUP11 DUP2 MSTORE PUSH1 0x40 DUP1 DUP4 KECCAK256 SLOAD PUSH1 0x1 PUSH1 0x1 PUSH1 0xA0 SHL SUB AND PUSH2 0x1E0 DUP6 ADD DUP2 SWAP1 MSTORE DUP4 MSTORE SWAP1 DUP14 SWAP1 MSTORE SWAP1 KECCAK256 PUSH2 0xE7C DUP2 PUSH2 0x149A JUMP JUMPDEST POP PUSH1 0x80 DUP7 ADD DUP2 SWAP1 MSTORE PUSH1 0xC0 DUP7 ADD SWAP3 SWAP1 SWAP3 MSTORE POP PUSH1 0xA0 DUP5 ADD SWAP2 SWAP1 SWAP2 MSTORE PUSH1 0xA EXP PUSH1 0x20 DUP4 ADD MSTORE PUSH2 0x1E0 DUP3 ADD MLOAD PUSH1 0x40 MLOAD PUSH4 0xB3596F07 PUSH1 0xE0 SHL DUP2 MSTORE PUSH1 0x1 PUSH1 0x1 PUSH1 0xA0 SHL SUB DUP11 AND SWAP2 PUSH4 0xB3596F07 SWAP2 PUSH2 0xECE SWAP2 SWAP1 PUSH1 0x4 ADD PUSH2 0x1A5A JUMP JUMPDEST PUSH1 0x20 PUSH1 0x40 MLOAD DUP1 DUP4 SUB DUP2 DUP7 DUP1 EXTCODESIZE ISZERO DUP1 ISZERO PUSH2 0xEE6 JUMPI PUSH1 0x0 DUP1 REVERT JUMPDEST POP GAS STATICCALL ISZERO DUP1 ISZERO PUSH2 0xEFA JUMPI RETURNDATASIZE PUSH1 0x0 DUP1 RETURNDATACOPY RETURNDATASIZE PUSH1 0x0 REVERT JUMPDEST POP POP POP POP PUSH1 0x40 MLOAD RETURNDATASIZE PUSH1 0x1F NOT PUSH1 0x1F DUP3 ADD AND DUP3 ADD DUP1 PUSH1 0x40 MSTORE POP DUP2 ADD SWAP1 PUSH2 0xF1E SWAP2 SWAP1 PUSH2 0x1A42 JUMP JUMPDEST DUP3 MSTORE PUSH1 0xC0 DUP3 ADD MLOAD ISZERO DUP1 ISZERO SWAP1 PUSH2 0xF3E JUMPI POP PUSH1 0xE0 DUP3 ADD MLOAD PUSH2 0xF3E SWAP1 DUP13 SWAP1 PUSH2 0x1336 JUMP JUMPDEST ISZERO PUSH2 0x1062 JUMPI DUP1 PUSH1 0x4 ADD PUSH1 0x0 SWAP1 SLOAD SWAP1 PUSH2 0x100 EXP SWAP1 DIV PUSH1 0x1 PUSH1 0x1 PUSH1 0xA0 SHL SUB AND PUSH1 0x1 PUSH1 0x1 PUSH1 0xA0 SHL SUB AND PUSH4 0x70A08231 DUP15 PUSH1 0x40 MLOAD DUP3 PUSH4 0xFFFFFFFF AND PUSH1 0xE0 SHL DUP2 MSTORE PUSH1 0x4 ADD PUSH2 0xF86 SWAP2 SWAP1 PUSH2 0x1A5A JUMP JUMPDEST PUSH1 0x20 PUSH1 0x40 MLOAD DUP1 DUP4 SUB DUP2 DUP7 DUP1 EXTCODESIZE ISZERO DUP1 ISZERO PUSH2 0xF9E JUMPI PUSH1 0x0 DUP1 REVERT JUMPDEST POP GAS STATICCALL ISZERO DUP1 ISZERO PUSH2 0xFB2 JUMPI RETURNDATASIZE PUSH1 0x0 DUP1 RETURNDATACOPY RETURNDATASIZE PUSH1 0x0 REVERT JUMPDEST POP POP POP POP PUSH1 0x40 MLOAD RETURNDATASIZE PUSH1 0x1F NOT PUSH1 0x1F DUP3 ADD AND DUP3 ADD DUP1 PUSH1 0x40 MSTORE POP DUP2 ADD SWAP1 PUSH2 0xFD6 SWAP2 SWAP1 PUSH2 0x1A42 JUMP JUMPDEST PUSH1 0x40 DUP4 ADD DUP2 SWAP1 MSTORE PUSH1 0x20 DUP4 ADD MLOAD DUP4 MLOAD PUSH1 0x0 SWAP3 PUSH2 0xFFB SWAP3 SWAP2 PUSH2 0xFF5 SWAP2 PUSH2 0x14C5 JUMP JUMPDEST SWAP1 PUSH2 0x14FF JUMP JUMPDEST PUSH2 0x120 DUP5 ADD MLOAD SWAP1 SWAP2 POP PUSH2 0x100E SWAP1 DUP3 PUSH2 0x12A8 JUMP JUMPDEST PUSH2 0x120 DUP5 ADD MSTORE PUSH1 0xA0 DUP4 ADD MLOAD PUSH2 0x1034 SWAP1 PUSH2 0x1028 SWAP1 DUP4 SWAP1 PUSH2 0x14C5 JUMP JUMPDEST PUSH2 0x160 DUP6 ADD MLOAD SWAP1 PUSH2 0x12A8 JUMP JUMPDEST PUSH2 0x160 DUP5 ADD MSTORE PUSH1 0xC0 DUP4 ADD MLOAD PUSH2 0x105A SWAP1 PUSH2 0x104E SWAP1 DUP4 SWAP1 PUSH2 0x14C5 JUMP JUMPDEST PUSH2 0x180 DUP6 ADD MLOAD SWAP1 PUSH2 0x12A8 JUMP JUMPDEST PUSH2 0x180 DUP5 ADD MSTORE POP JUMPDEST PUSH1 0xE0 DUP3 ADD MLOAD PUSH2 0x1072 SWAP1 DUP13 SWAP1 PUSH2 0x1541 JUMP JUMPDEST ISZERO PUSH2 0x11E7 JUMPI DUP1 PUSH1 0x5 ADD PUSH1 0x0 SWAP1 SLOAD SWAP1 PUSH2 0x100 EXP SWAP1 DIV PUSH1 0x1 PUSH1 0x1 PUSH1 0xA0 SHL SUB AND PUSH1 0x1 PUSH1 0x1 PUSH1 0xA0 SHL SUB AND PUSH4 0x70A08231 DUP15 PUSH1 0x40 MLOAD DUP3 PUSH4 0xFFFFFFFF AND PUSH1 0xE0 SHL DUP2 MSTORE PUSH1 0x4 ADD PUSH2 0x10BA SWAP2 SWAP1 PUSH2 0x1A5A JUMP JUMPDEST PUSH1 0x20 PUSH1 0x40 MLOAD DUP1 DUP4 SUB DUP2 DUP7 DUP1 EXTCODESIZE ISZERO DUP1 ISZERO PUSH2 0x10D2 JUMPI PUSH1 0x0 DUP1 REVERT JUMPDEST POP GAS STATICCALL ISZERO DUP1 ISZERO PUSH2 0x10E6 JUMPI RETURNDATASIZE PUSH1 0x0 DUP1 RETURNDATACOPY RETURNDATASIZE PUSH1 0x0 REVERT JUMPDEST POP POP POP POP PUSH1 0x40 MLOAD RETURNDATASIZE PUSH1 0x1F NOT PUSH1 0x1F DUP3 ADD AND DUP3 ADD DUP1 PUSH1 0x40 MSTORE POP DUP2 ADD SWAP1 PUSH2 0x110A SWAP2 SWAP1 PUSH2 0x1A42 JUMP JUMPDEST DUP3 PUSH1 0x60 ADD DUP2 DUP2 MSTORE POP POP PUSH2 0x11B4 DUP2 PUSH1 0x6 ADD PUSH1 0x0 SWAP1 SLOAD SWAP1 PUSH2 0x100 EXP SWAP1 DIV PUSH1 0x1 PUSH1 0x1 PUSH1 0xA0 SHL SUB AND PUSH1 0x1 PUSH1 0x1 PUSH1 0xA0 SHL SUB AND PUSH4 0x70A08231 DUP16 PUSH1 0x40 MLOAD DUP3 PUSH4 0xFFFFFFFF AND PUSH1 0xE0 SHL DUP2 MSTORE PUSH1 0x4 ADD PUSH2 0x1159 SWAP2 SWAP1 PUSH2 0x1A5A JUMP JUMPDEST PUSH1 0x20 PUSH1 0x40 MLOAD DUP1 DUP4 SUB DUP2 DUP7 DUP1 EXTCODESIZE ISZERO DUP1 ISZERO PUSH2 0x1171 JUMPI PUSH1 0x0 DUP1 REVERT JUMPDEST POP GAS STATICCALL ISZERO DUP1 ISZERO PUSH2 0x1185 JUMPI RETURNDATASIZE PUSH1 0x0 DUP1 RETURNDATACOPY RETURNDATASIZE PUSH1 0x0 REVERT JUMPDEST POP POP POP POP PUSH1 0x40 MLOAD RETURNDATASIZE PUSH1 0x1F NOT PUSH1 0x1F DUP3 ADD AND DUP3 ADD DUP1 PUSH1 0x40 MSTORE POP DUP2 ADD SWAP1 PUSH2 0x11A9 SWAP2 SWAP1 PUSH2 0x1A42 JUMP JUMPDEST PUSH1 0x60 DUP5 ADD MLOAD SWAP1 PUSH2 0x12A8 JUMP JUMPDEST PUSH1 0x60 DUP4 ADD DUP2 SWAP1 MSTORE PUSH1 0x20 DUP4 ADD MLOAD DUP4 MLOAD PUSH2 0x11E0 SWAP3 PUSH2 0x11D4 SWAP3 SWAP2 PUSH2 0xFF5 SWAP2 PUSH2 0x14C5 JUMP JUMPDEST PUSH2 0x140 DUP5 ADD MLOAD SWAP1 PUSH2 0x12A8 JUMP JUMPDEST PUSH2 0x140 DUP4 ADD MSTORE JUMPDEST POP JUMPDEST PUSH1 0xE0 DUP2 ADD DUP1 MLOAD PUSH1 0x1 ADD SWAP1 MSTORE PUSH2 0xE20 JUMP JUMPDEST PUSH1 0x0 DUP2 PUSH2 0x120 ADD MLOAD GT PUSH2 0x120D JUMPI PUSH1 0x0 PUSH2 0x1222 JUMP JUMPDEST PUSH2 0x120 DUP2 ADD MLOAD PUSH2 0x160 DUP3 ADD MLOAD PUSH2 0x1222 SWAP2 PUSH2 0x14FF JUMP JUMPDEST PUSH2 0x160 DUP3 ADD MSTORE PUSH2 0x120 DUP2 ADD MLOAD PUSH2 0x1239 JUMPI PUSH1 0x0 PUSH2 0x124E JUMP JUMPDEST PUSH2 0x120 DUP2 ADD MLOAD PUSH2 0x180 DUP3 ADD MLOAD PUSH2 0x124E SWAP2 PUSH2 0x14FF JUMP JUMPDEST PUSH2 0x180 DUP3 ADD DUP2 SWAP1 MSTORE PUSH2 0x120 DUP3 ADD MLOAD PUSH2 0x140 DUP4 ADD MLOAD PUSH2 0x126B SWAP3 PUSH2 0x1574 JUMP JUMPDEST PUSH2 0x100 DUP3 ADD DUP2 SWAP1 MSTORE PUSH2 0x120 DUP3 ADD MLOAD PUSH2 0x140 DUP4 ADD MLOAD PUSH2 0x160 DUP5 ADD MLOAD PUSH2 0x180 SWAP1 SWAP5 ADD MLOAD SWAP2 SWAP9 POP SWAP7 POP SWAP2 SWAP5 POP SWAP1 SWAP3 POP SWAP1 POP JUMPDEST SWAP7 POP SWAP7 POP SWAP7 POP SWAP7 POP SWAP7 SWAP2 POP POP JUMP JUMPDEST PUSH1 0x0 DUP3 DUP3 ADD DUP4 DUP2 LT ISZERO PUSH2 0x12CD JUMPI PUSH1 0x40 MLOAD PUSH3 0x461BCD PUSH1 0xE5 SHL DUP2 MSTORE PUSH1 0x4 ADD PUSH2 0x17C SWAP1 PUSH2 0x1BC6 JUMP JUMPDEST SWAP1 POP JUMPDEST SWAP3 SWAP2 POP POP JUMP JUMPDEST PUSH1 0x0 DUP2 PUSH2 0x12F5 JUMPI PUSH1 0x40 MLOAD PUSH3 0x461BCD PUSH1 0xE5 SHL DUP2 MSTORE PUSH1 0x4 ADD PUSH2 0x17C SWAP1 PUSH2 0x20ED JUMP JUMPDEST PUSH1 0x2 DUP3 DIV PUSH2 0x2710 DUP2 NOT DIV DUP5 GT ISZERO PUSH2 0x131E JUMPI PUSH1 0x40 MLOAD PUSH3 0x461BCD PUSH1 0xE5 SHL DUP2 MSTORE PUSH1 0x4 ADD PUSH2 0x17C SWAP1 PUSH2 0x1B06 JUMP JUMPDEST DUP3 DUP2 PUSH2 0x2710 DUP7 MUL ADD DUP2 PUSH2 0x132D JUMPI INVALID JUMPDEST DIV SWAP5 SWAP4 POP POP POP POP JUMP JUMPDEST PUSH1 0x0 PUSH1 0x80 DUP3 LT PUSH2 0x1358 JUMPI PUSH1 0x40 MLOAD PUSH3 0x461BCD PUSH1 0xE5 SHL DUP2 MSTORE PUSH1 0x4 ADD PUSH2 0x17C SWAP1 PUSH2 0x2194 JUMP JUMPDEST POP DUP2 MLOAD PUSH1 0x1 PUSH1 0x2 DUP4 MUL DUP2 ADD SWAP2 SWAP1 SWAP2 SHR AND ISZERO ISZERO SWAP3 SWAP2 POP POP JUMP JUMPDEST SLOAD PUSH2 0xFFFF AND SWAP1 JUMP JUMPDEST PUSH1 0x0 DUP3 ISZERO DUP1 PUSH2 0x1385 JUMPI POP DUP2 ISZERO JUMPDEST ISZERO PUSH2 0x1392 JUMPI POP PUSH1 0x0 PUSH2 0x12D0 JUMP JUMPDEST DUP2 PUSH2 0x1388 NOT DUP2 PUSH2 0x139E JUMPI INVALID JUMPDEST DIV DUP4 GT ISZERO PUSH2 0x13BE JUMPI PUSH1 0x40 MLOAD PUSH3 0x461BCD PUSH1 0xE5 SHL DUP2 MSTORE PUSH1 0x4 ADD PUSH2 0x17C SWAP1 PUSH2 0x1CB4 JUMP JUMPDEST POP PUSH2 0x2710 SWAP2 MUL PUSH2 0x1388 ADD DIV SWAP1 JUMP JUMPDEST PUSH1 0x0 PUSH4 0x3B9ACA00 DUP3 DUP2 MUL SWAP1 DUP2 DIV DUP4 EQ PUSH2 0x12D0 JUMPI PUSH1 0x40 MLOAD PUSH3 0x461BCD PUSH1 0xE5 SHL DUP2 MSTORE PUSH1 0x4 ADD PUSH2 0x17C SWAP1 PUSH2 0x2069 JUMP JUMPDEST PUSH1 0x0 DUP2 PUSH2 0x1416 JUMPI PUSH1 0x40 MLOAD PUSH3 0x461BCD PUSH1 0xE5 SHL DUP2 MSTORE PUSH1 0x4 ADD PUSH2 0x17C SWAP1 PUSH2 0x21CB JUMP JUMPDEST PUSH1 0x2 DUP3 DIV PUSH12 0x33B2E3C9FD0803CE8000000 DUP2 NOT DIV DUP5 GT ISZERO PUSH2 0x1449 JUMPI PUSH1 0x40 MLOAD PUSH3 0x461BCD PUSH1 0xE5 SHL DUP2 MSTORE PUSH1 0x4 ADD PUSH2 0x17C SWAP1 PUSH2 0x1D3B JUMP JUMPDEST DUP3 DUP2 PUSH12 0x33B2E3C9FD0803CE8000000 DUP7 MUL ADD DUP2 PUSH2 0x132D JUMPI INVALID JUMPDEST MLOAD ISZERO SWAP1 JUMP JUMPDEST PUSH1 0x0 PUSH1 0x80 DUP3 LT PUSH2 0x1489 JUMPI PUSH1 0x40 MLOAD PUSH3 0x461BCD PUSH1 0xE5 SHL DUP2 MSTORE PUSH1 0x4 ADD PUSH2 0x17C SWAP1 PUSH2 0x2194 JUMP JUMPDEST POP SWAP1 MLOAD PUSH1 0x3 PUSH1 0x2 SWAP1 SWAP3 MUL SHR AND ISZERO ISZERO SWAP1 JUMP JUMPDEST SLOAD PUSH2 0xFFFF DUP1 DUP3 AND SWAP3 PUSH1 0x10 DUP4 SWAP1 SHR DUP3 AND SWAP3 PUSH1 0x20 DUP2 SWAP1 SHR DUP4 AND SWAP3 PUSH1 0xFF PUSH1 0x30 DUP4 SWAP1 SHR AND SWAP3 PUSH1 0x40 SWAP3 SWAP1 SWAP3 SHR AND SWAP1 JUMP JUMPDEST PUSH1 0x0 DUP3 PUSH2 0x14D4 JUMPI POP PUSH1 0x0 PUSH2 0x12D0 JUMP JUMPDEST DUP3 DUP3 MUL DUP3 DUP5 DUP3 DUP2 PUSH2 0x14E1 JUMPI INVALID JUMPDEST DIV EQ PUSH2 0x12CD JUMPI PUSH1 0x40 MLOAD PUSH3 0x461BCD PUSH1 0xE5 SHL DUP2 MSTORE PUSH1 0x4 ADD PUSH2 0x17C SWAP1 PUSH2 0x1E36 JUMP JUMPDEST PUSH1 0x0 PUSH2 0x12CD DUP4 DUP4 PUSH1 0x40 MLOAD DUP1 PUSH1 0x40 ADD PUSH1 0x40 MSTORE DUP1 PUSH1 0x1A DUP2 MSTORE PUSH1 0x20 ADD PUSH32 0x536166654D6174683A206469766973696F6E206279207A65726F000000000000 DUP2 MSTORE POP PUSH2 0x15A2 JUMP JUMPDEST PUSH1 0x0 PUSH1 0x80 DUP3 LT PUSH2 0x1563 JUMPI PUSH1 0x40 MLOAD PUSH3 0x461BCD PUSH1 0xE5 SHL DUP2 MSTORE PUSH1 0x4 ADD PUSH2 0x17C SWAP1 PUSH2 0x2194 JUMP JUMPDEST POP SWAP1 MLOAD PUSH1 0x1 PUSH1 0x2 SWAP1 SWAP3 MUL SHR AND ISZERO ISZERO SWAP1 JUMP JUMPDEST PUSH1 0x0 DUP3 PUSH2 0x1584 JUMPI POP PUSH1 0x0 NOT PUSH2 0x159B JUMP JUMPDEST PUSH2 0x1598 DUP4 PUSH2 0x1592 DUP7 DUP6 PUSH2 0x1378 JUMP JUMPDEST SWAP1 PUSH2 0x15D9 JUMP JUMPDEST SWAP1 POP JUMPDEST SWAP4 SWAP3 POP POP POP JUMP JUMPDEST PUSH1 0x0 DUP2 DUP4 PUSH2 0x15C3 JUMPI PUSH1 0x40 MLOAD PUSH3 0x461BCD PUSH1 0xE5 SHL DUP2 MSTORE PUSH1 0x4 ADD PUSH2 0x17C SWAP2 SWAP1 PUSH2 0x1AB3 JUMP JUMPDEST POP PUSH1 0x0 DUP4 DUP6 DUP2 PUSH2 0x15CF JUMPI INVALID JUMPDEST DIV SWAP6 SWAP5 POP POP POP POP POP JUMP JUMPDEST PUSH1 0x0 DUP2 PUSH2 0x15F8 JUMPI PUSH1 0x40 MLOAD PUSH3 0x461BCD PUSH1 0xE5 SHL DUP2 MSTORE PUSH1 0x4 ADD PUSH2 0x17C SWAP1 PUSH2 0x21CB JUMP JUMPDEST PUSH1 0x2 DUP3 DIV PUSH8 0xDE0B6B3A7640000 DUP2 NOT DIV DUP5 GT ISZERO PUSH2 0x1627 JUMPI PUSH1 0x40 MLOAD PUSH3 0x461BCD PUSH1 0xE5 SHL DUP2 MSTORE PUSH1 0x4 ADD PUSH2 0x17C SWAP1 PUSH2 0x1D3B JUMP JUMPDEST DUP3 DUP2 PUSH8 0xDE0B6B3A7640000 DUP7 MUL ADD DUP2 PUSH2 0x132D JUMPI INVALID JUMPDEST PUSH1 0x40 MLOAD DUP1 PUSH2 0x240 ADD PUSH1 0x40 MSTORE DUP1 PUSH1 0x0 DUP2 MSTORE PUSH1 0x20 ADD PUSH1 0x0 DUP2 MSTORE PUSH1 0x20 ADD PUSH1 0x0 DUP2 MSTORE PUSH1 0x20 ADD PUSH1 0x0 DUP2 MSTORE PUSH1 0x20 ADD PUSH1 0x0 DUP2 MSTORE PUSH1 0x20 ADD PUSH1 0x0 DUP2 MSTORE PUSH1 0x20 ADD PUSH1 0x0 DUP2 MSTORE PUSH1 0x20 ADD PUSH1 0x0 DUP2 MSTORE PUSH1 0x20 ADD PUSH1 0x0 DUP2 MSTORE PUSH1 0x20 ADD PUSH1 0x0 DUP2 MSTORE PUSH1 0x20 ADD PUSH1 0x0 DUP2 MSTORE PUSH1 0x20 ADD PUSH1 0x0 DUP2 MSTORE PUSH1 0x20 ADD PUSH1 0x0 PUSH1 0x2 DUP2 GT ISZERO PUSH2 0x16A9 JUMPI INVALID JUMPDEST DUP2 MSTORE PUSH1 0x0 PUSH1 0x20 DUP3 ADD DUP2 SWAP1 MSTORE PUSH1 0x40 DUP3 ADD DUP2 SWAP1 MSTORE PUSH1 0x60 DUP3 ADD DUP2 SWAP1 MSTORE PUSH1 0x80 DUP3 ADD DUP2 SWAP1 MSTORE PUSH1 0xA0 SWAP1 SWAP2 ADD MSTORE SWAP1 JUMP JUMPDEST PUSH1 0x40 MLOAD DUP1 PUSH2 0x240 ADD PUSH1 0x40 MSTORE DUP1 PUSH1 0x0 DUP2 MSTORE PUSH1 0x20 ADD PUSH1 0x0 DUP2 MSTORE PUSH1 0x20 ADD PUSH1 0x0 DUP2 MSTORE PUSH1 0x20 ADD PUSH1 0x0 DUP2 MSTORE PUSH1 0x20 ADD PUSH1 0x0 DUP2 MSTORE PUSH1 0x20 ADD PUSH1 0x0 DUP2 MSTORE PUSH1 0x20 ADD PUSH1 0x0 DUP2 MSTORE PUSH1 0x20 ADD PUSH1 0x0 DUP2 MSTORE PUSH1 0x20 ADD PUSH1 0x0 DUP2 MSTORE PUSH1 0x20 ADD PUSH1 0x0 DUP2 MSTORE PUSH1 0x20 ADD PUSH1 0x0 DUP2 MSTORE PUSH1 0x20 ADD PUSH1 0x0 DUP2 MSTORE PUSH1 0x20 ADD PUSH1 0x0 DUP2 MSTORE PUSH1 0x20 ADD PUSH1 0x0 DUP2 MSTORE PUSH1 0x20 ADD PUSH1 0x0 ISZERO ISZERO DUP2 MSTORE PUSH1 0x20 ADD PUSH1 0x0 PUSH1 0x1 PUSH1 0x1 PUSH1 0xA0 SHL SUB AND DUP2 MSTORE PUSH1 0x20 ADD PUSH1 0x0 ISZERO ISZERO DUP2 MSTORE PUSH1 0x20 ADD PUSH1 0x0 ISZERO ISZERO DUP2 MSTORE POP SWAP1 JUMP JUMPDEST DUP1 CALLDATALOAD PUSH1 0x3 DUP2 LT PUSH2 0x12D0 JUMPI PUSH1 0x0 DUP1 REVERT JUMPDEST PUSH1 0x0 DUP1 PUSH1 0x0 DUP1 PUSH1 0x0 DUP1 PUSH1 0x0 DUP1 PUSH1 0x0 DUP1 PUSH1 0x0 DUP1 PUSH2 0x180 DUP14 DUP16 SUB SLT ISZERO PUSH2 0x179D JUMPI DUP8 DUP9 REVERT JUMPDEST DUP13 CALLDATALOAD PUSH2 0x17A8 DUP2 PUSH2 0x2203 JUMP JUMPDEST SWAP12 POP PUSH1 0x20 DUP14 ADD CALLDATALOAD SWAP11 POP PUSH1 0x40 DUP14 ADD CALLDATALOAD PUSH2 0x17BF DUP2 PUSH2 0x2203 JUMP JUMPDEST SWAP10 POP PUSH1 0x60 DUP14 ADD CALLDATALOAD SWAP9 POP PUSH1 0x80 DUP14 ADD CALLDATALOAD SWAP8 POP PUSH1 0xA0 DUP14 ADD CALLDATALOAD SWAP7 POP PUSH1 0xC0 DUP14 ADD CALLDATALOAD SWAP6 POP PUSH1 0xE0 DUP14 ADD CALLDATALOAD SWAP5 POP PUSH2 0x100 DUP14 ADD CALLDATALOAD SWAP4 POP PUSH2 0x120 DUP14 ADD CALLDATALOAD SWAP3 POP PUSH2 0x140 DUP14 ADD CALLDATALOAD SWAP2 POP PUSH2 0x160 DUP14 ADD CALLDATALOAD PUSH2 0x180B DUP2 PUSH2 0x2203 JUMP JUMPDEST DUP1 SWAP2 POP POP SWAP3 SWAP6 SWAP9 SWAP12 POP SWAP3 SWAP6 SWAP9 SWAP12 POP SWAP3 SWAP6 SWAP9 SWAP12 JUMP JUMPDEST PUSH1 0x0 DUP1 PUSH1 0x0 DUP1 PUSH1 0x0 DUP1 PUSH1 0x0 DUP1 PUSH2 0x100 DUP10 DUP12 SUB SLT ISZERO PUSH2 0x183B JUMPI DUP4 DUP5 REVERT JUMPDEST DUP9 CALLDATALOAD PUSH2 0x1846 DUP2 PUSH2 0x2203 JUMP JUMPDEST SWAP8 POP PUSH1 0x20 DUP10 ADD CALLDATALOAD SWAP7 POP PUSH1 0x40 DUP10 ADD CALLDATALOAD SWAP6 POP PUSH1 0x60 DUP10 ADD CALLDATALOAD SWAP5 POP PUSH1 0x80 DUP10 ADD CALLDATALOAD SWAP4 POP PUSH1 0xA0 DUP10 ADD CALLDATALOAD SWAP3 POP PUSH1 0xC0 DUP10 ADD CALLDATALOAD SWAP2 POP PUSH1 0xE0 DUP10 ADD CALLDATALOAD PUSH2 0x1880 DUP2 PUSH2 0x2203 JUMP JUMPDEST DUP1 SWAP2 POP POP SWAP3 SWAP6 SWAP9 POP SWAP3 SWAP6 SWAP9 SWAP1 SWAP4 SWAP7 POP JUMP JUMPDEST PUSH1 0x0 PUSH1 0x20 DUP3 DUP5 SUB SLT ISZERO PUSH2 0x18A2 JUMPI DUP1 DUP2 REVERT JUMPDEST DUP2 MLOAD PUSH2 0x12CD DUP2 PUSH2 0x221B JUMP JUMPDEST PUSH1 0x0 DUP1 PUSH1 0x0 DUP1 PUSH1 0x0 DUP1 PUSH1 0x0 DUP1 PUSH2 0x100 DUP10 DUP12 SUB SLT ISZERO PUSH2 0x18C9 JUMPI DUP4 DUP5 REVERT JUMPDEST DUP9 CALLDATALOAD SWAP8 POP PUSH1 0x20 DUP10 ADD CALLDATALOAD PUSH2 0x18DB DUP2 PUSH2 0x2203 JUMP JUMPDEST SWAP7 POP PUSH1 0x40 DUP10 ADD CALLDATALOAD PUSH2 0x18EB DUP2 PUSH2 0x221B JUMP JUMPDEST SWAP6 POP PUSH1 0x60 DUP10 ADD CALLDATALOAD SWAP5 POP PUSH1 0x80 DUP10 ADD CALLDATALOAD SWAP4 POP PUSH1 0xA0 DUP10 ADD CALLDATALOAD SWAP3 POP PUSH1 0xC0 DUP10 ADD CALLDATALOAD SWAP2 POP PUSH1 0xE0 DUP10 ADD CALLDATALOAD PUSH2 0x1880 DUP2 PUSH2 0x2203 JUMP JUMPDEST PUSH1 0x0 DUP1 PUSH1 0x0 DUP1 PUSH1 0x0 PUSH1 0xA0 DUP7 DUP9 SUB SLT ISZERO PUSH2 0x192E JUMPI DUP1 DUP2 REVERT JUMPDEST DUP6 CALLDATALOAD SWAP5 POP PUSH1 0x20 DUP7 ADD CALLDATALOAD PUSH2 0x1940 DUP2 PUSH2 0x2203 JUMP JUMPDEST SWAP4 POP PUSH1 0x40 DUP7 ADD CALLDATALOAD PUSH2 0x1950 DUP2 PUSH2 0x2203 JUMP JUMPDEST SWAP3 POP PUSH1 0x60 DUP7 ADD CALLDATALOAD PUSH2 0x1960 DUP2 PUSH2 0x2203 JUMP JUMPDEST SWAP2 POP PUSH1 0x80 DUP7 ADD CALLDATALOAD PUSH2 0x1970 DUP2 PUSH2 0x2203 JUMP JUMPDEST DUP1 SWAP2 POP POP SWAP3 SWAP6 POP SWAP3 SWAP6 SWAP1 SWAP4 POP JUMP JUMPDEST PUSH1 0x0 DUP1 PUSH1 0x0 DUP1 PUSH1 0x0 PUSH1 0xA0 DUP7 DUP9 SUB SLT ISZERO PUSH2 0x1995 JUMPI DUP1 DUP2 REVERT JUMPDEST DUP6 CALLDATALOAD SWAP5 POP PUSH1 0x20 DUP7 ADD CALLDATALOAD SWAP4 POP PUSH1 0x40 DUP7 ADD CALLDATALOAD SWAP3 POP PUSH1 0x60 DUP7 ADD CALLDATALOAD SWAP2 POP PUSH2 0x19BB DUP8 PUSH1 0x80 DUP9 ADD PUSH2 0x176C JUMP JUMPDEST SWAP1 POP SWAP3 SWAP6 POP SWAP3 SWAP6 SWAP1 SWAP4 POP JUMP JUMPDEST PUSH1 0x0 DUP1 PUSH1 0x40 DUP4 DUP6 SUB SLT ISZERO PUSH2 0x19D9 JUMPI DUP2 DUP3 REVERT JUMPDEST POP POP DUP1 CALLDATALOAD SWAP3 PUSH1 0x20 SWAP1 SWAP2 ADD CALLDATALOAD SWAP2 POP JUMP JUMPDEST PUSH1 0x0 DUP1 PUSH1 0x0 DUP1 PUSH1 0x0 DUP1 PUSH1 0xC0 DUP8 DUP10 SUB SLT ISZERO PUSH2 0x1A00 JUMPI DUP4 DUP5 REVERT JUMPDEST DUP7 CALLDATALOAD SWAP6 POP PUSH1 0x20 DUP8 ADD CALLDATALOAD SWAP5 POP PUSH2 0x1A18 DUP9 PUSH1 0x40 DUP10 ADD PUSH2 0x176C JUMP JUMPDEST SWAP4 POP PUSH1 0x60 DUP8 ADD CALLDATALOAD PUSH2 0x1A28 DUP2 PUSH2 0x2203 JUMP JUMPDEST SWAP6 SWAP9 SWAP5 SWAP8 POP SWAP3 SWAP6 PUSH1 0x80 DUP2 ADD CALLDATALOAD SWAP5 PUSH1 0xA0 SWAP1 SWAP2 ADD CALLDATALOAD SWAP4 POP SWAP2 POP POP JUMP JUMPDEST PUSH1 0x0 PUSH1 0x20 DUP3 DUP5 SUB SLT ISZERO PUSH2 0x1A53 JUMPI DUP1 DUP2 REVERT JUMPDEST POP MLOAD SWAP2 SWAP1 POP JUMP JUMPDEST PUSH1 0x1 PUSH1 0x1 PUSH1 0xA0 SHL SUB SWAP2 SWAP1 SWAP2 AND DUP2 MSTORE PUSH1 0x20 ADD SWAP1 JUMP JUMPDEST PUSH1 0x1 PUSH1 0x1 PUSH1 0xA0 SHL SUB SWAP9 DUP10 AND DUP2 MSTORE SWAP7 DUP9 AND PUSH1 0x20 DUP9 ADD MSTORE PUSH1 0x40 DUP8 ADD SWAP6 SWAP1 SWAP6 MSTORE PUSH1 0x60 DUP7 ADD SWAP4 SWAP1 SWAP4 MSTORE SWAP1 SLOAD PUSH1 0x80 DUP6 ADD MSTORE PUSH1 0xA0 DUP5 ADD MSTORE PUSH1 0xC0 DUP4 ADD MSTORE SWAP1 SWAP2 AND PUSH1 0xE0 DUP3 ADD MSTORE PUSH2 0x100 ADD SWAP1 JUMP JUMPDEST PUSH1 0x0 PUSH1 0x20 DUP1 DUP4 MSTORE DUP4 MLOAD DUP1 DUP3 DUP6 ADD MSTORE DUP3 JUMPDEST DUP2 DUP2 LT ISZERO PUSH2 0x1ADF JUMPI DUP6 DUP2 ADD DUP4 ADD MLOAD DUP6 DUP3 ADD PUSH1 0x40 ADD MSTORE DUP3 ADD PUSH2 0x1AC3 JUMP JUMPDEST DUP2 DUP2 GT ISZERO PUSH2 0x1AF0 JUMPI DUP4 PUSH1 0x40 DUP4 DUP8 ADD ADD MSTORE JUMPDEST POP PUSH1 0x1F ADD PUSH1 0x1F NOT AND SWAP3 SWAP1 SWAP3 ADD PUSH1 0x40 ADD SWAP4 SWAP3 POP POP POP JUMP JUMPDEST PUSH1 0x20 DUP1 DUP3 MSTORE DUP2 DUP2 ADD MSTORE PUSH32 0x50657263656E74616765204D617468203A204469766973696F6E206572726F72 PUSH1 0x40 DUP3 ADD MSTORE PUSH1 0x60 ADD SWAP1 JUMP JUMPDEST PUSH1 0x20 DUP1 DUP3 MSTORE PUSH1 0x26 SWAP1 DUP3 ADD MSTORE PUSH32 0x20554E4445524C59494E472042414C414E4345204E4F54204752454154455220 PUSH1 0x40 DUP3 ADD MSTORE PUSH6 0x5448414E203 PUSH1 0xD4 SHL PUSH1 0x60 DUP3 ADD MSTORE PUSH1 0x80 ADD SWAP1 JUMP JUMPDEST PUSH1 0x20 DUP1 DUP3 MSTORE PUSH1 0x25 SWAP1 DUP3 ADD MSTORE PUSH32 0x434F4C4C41544552414C2053414D4520415320424F52524F57494E4720435552 PUSH1 0x40 DUP3 ADD MSTORE PUSH5 0x52454E4359 PUSH1 0xD8 SHL PUSH1 0x60 DUP3 ADD MSTORE PUSH1 0x80 ADD SWAP1 JUMP JUMPDEST PUSH1 0x20 DUP1 DUP3 MSTORE PUSH1 0x1B SWAP1 DUP3 ADD MSTORE PUSH32 0x536166654D6174683A206164646974696F6E206F766572666C6F770000000000 PUSH1 0x40 DUP3 ADD MSTORE PUSH1 0x60 ADD SWAP1 JUMP JUMPDEST PUSH1 0x20 DUP1 DUP3 MSTORE PUSH1 0x15 SWAP1 DUP3 ADD MSTORE PUSH21 0x496E737472756D656E74206E6F7420416374697665 PUSH1 0x58 SHL PUSH1 0x40 DUP3 ADD MSTORE PUSH1 0x60 ADD SWAP1 JUMP JUMPDEST PUSH1 0x20 DUP1 DUP3 MSTORE PUSH1 0x21 SWAP1 DUP3 ADD MSTORE PUSH32 0x416D6F756E74206E6565647320746F2062652067726561746572207468616E20 PUSH1 0x40 DUP3 ADD MSTORE PUSH1 0x3 PUSH1 0xFC SHL PUSH1 0x60 DUP3 ADD MSTORE PUSH1 0x80 ADD SWAP1 JUMP JUMPDEST PUSH1 0x20 DUP1 DUP3 MSTORE PUSH1 0x27 SWAP1 DUP3 ADD MSTORE PUSH32 0x414D4F554E5420424947474552205448414E204D4158204C4F414E2053495A45 PUSH1 0x40 DUP3 ADD MSTORE PUSH7 0x20535441424C45 PUSH1 0xC8 SHL PUSH1 0x60 DUP3 ADD MSTORE PUSH1 0x80 ADD SWAP1 JUMP JUMPDEST PUSH1 0x20 DUP1 DUP3 MSTORE PUSH1 0x26 SWAP1 DUP3 ADD MSTORE PUSH32 0x50657263656E74616765204D617468203A204D756C7469706C69636174696F6E PUSH1 0x40 DUP3 ADD MSTORE PUSH6 0x1032B93937B9 PUSH1 0xD1 SHL PUSH1 0x60 DUP3 ADD MSTORE PUSH1 0x80 ADD SWAP1 JUMP JUMPDEST PUSH1 0x20 DUP1 DUP3 MSTORE PUSH1 0x21 SWAP1 DUP3 ADD MSTORE PUSH32 0x4E4F20535441424C452052415445204C4F414E20494E20494E535452554D454E PUSH1 0x40 DUP3 ADD MSTORE PUSH1 0x15 PUSH1 0xFA SHL PUSH1 0x60 DUP3 ADD MSTORE PUSH1 0x80 ADD SWAP1 JUMP JUMPDEST PUSH1 0x20 DUP1 DUP3 MSTORE PUSH1 0x1C SWAP1 DUP3 ADD MSTORE PUSH32 0x4D4154485F4D554C5449504C49434154494F4E5F4F564552464C4F5700000000 PUSH1 0x40 DUP3 ADD MSTORE PUSH1 0x60 ADD SWAP1 JUMP JUMPDEST PUSH1 0x20 DUP1 DUP3 MSTORE PUSH1 0x14 SWAP1 DUP3 ADD MSTORE PUSH20 0x1514905394D19154881393D50810531313D5D151 PUSH1 0x62 SHL PUSH1 0x40 DUP3 ADD MSTORE PUSH1 0x60 ADD SWAP1 JUMP JUMPDEST PUSH1 0x20 DUP1 DUP3 MSTORE PUSH1 0x18 SWAP1 DUP3 ADD MSTORE PUSH32 0x4E4F2044454254204F462053454C454354454420545950450000000000000000 PUSH1 0x40 DUP3 ADD MSTORE PUSH1 0x60 ADD SWAP1 JUMP JUMPDEST PUSH1 0x20 DUP1 DUP3 MSTORE PUSH1 0x15 SWAP1 DUP3 ADD MSTORE PUSH21 0x109BDC9C9BDDDA5B99C81B9BDD08195B98589B1959 PUSH1 0x5A SHL PUSH1 0x40 DUP3 ADD MSTORE PUSH1 0x60 ADD SWAP1 JUMP JUMPDEST PUSH1 0x20 DUP1 DUP3 MSTORE PUSH1 0x16 SWAP1 DUP3 ADD MSTORE PUSH22 0x4445504F53495420414C524541445920494E20555345 PUSH1 0x50 SHL PUSH1 0x40 DUP3 ADD MSTORE PUSH1 0x60 ADD SWAP1 JUMP JUMPDEST PUSH1 0x20 DUP1 DUP3 MSTORE PUSH1 0x21 SWAP1 DUP3 ADD MSTORE PUSH32 0x536166654D6174683A206D756C7469706C69636174696F6E206F766572666C6F PUSH1 0x40 DUP3 ADD MSTORE PUSH1 0x77 PUSH1 0xF8 SHL PUSH1 0x60 DUP3 ADD MSTORE PUSH1 0x80 ADD SWAP1 JUMP JUMPDEST PUSH1 0x20 DUP1 DUP3 MSTORE PUSH1 0x2D SWAP1 DUP3 ADD MSTORE PUSH32 0x4C5020494E544552455354205241544520524542414C414E434520434F4E4449 PUSH1 0x40 DUP3 ADD MSTORE PUSH13 0x151253D394C81393D508135155 PUSH1 0x9A SHL PUSH1 0x60 DUP3 ADD MSTORE PUSH1 0x80 ADD SWAP1 JUMP JUMPDEST PUSH1 0x20 DUP1 DUP3 MSTORE PUSH1 0x23 SWAP1 DUP3 ADD MSTORE PUSH32 0x4E4F205641524941424C452052415445204C4F414E20494E20494E535452554D PUSH1 0x40 DUP3 ADD MSTORE PUSH3 0x115395 PUSH1 0xEA SHL PUSH1 0x60 DUP3 ADD MSTORE PUSH1 0x80 ADD SWAP1 JUMP JUMPDEST PUSH1 0x20 DUP1 DUP3 MSTORE PUSH1 0x21 SWAP1 DUP3 ADD MSTORE PUSH32 0x4E4F5420454E4F55474820415641494C41424C4520555345522042414C414E43 PUSH1 0x40 DUP3 ADD MSTORE PUSH1 0x45 PUSH1 0xF8 SHL PUSH1 0x60 DUP3 ADD MSTORE PUSH1 0x80 ADD SWAP1 JUMP JUMPDEST PUSH1 0x20 DUP1 DUP3 MSTORE PUSH1 0x23 SWAP1 DUP3 ADD MSTORE PUSH32 0x494E56414C494420494E5445524553542052415445204D4F44452053454C4543 PUSH1 0x40 DUP3 ADD MSTORE PUSH3 0x151151 PUSH1 0xEA SHL PUSH1 0x60 DUP3 ADD MSTORE PUSH1 0x80 ADD SWAP1 JUMP JUMPDEST PUSH1 0x20 DUP1 DUP3 MSTORE PUSH1 0x17 SWAP1 DUP3 ADD MSTORE PUSH32 0x436F6C6C61746572616C2042616C616E63652069732030000000000000000000 PUSH1 0x40 DUP3 ADD MSTORE PUSH1 0x60 ADD SWAP1 JUMP JUMPDEST PUSH1 0x20 DUP1 DUP3 MSTORE PUSH1 0x11 SWAP1 DUP3 ADD MSTORE PUSH17 0x24B739BA393AB6B2B73A10233937BD32B7 PUSH1 0x79 SHL PUSH1 0x40 DUP3 ADD MSTORE PUSH1 0x60 ADD SWAP1 JUMP JUMPDEST PUSH1 0x20 DUP1 DUP3 MSTORE PUSH1 0x25 SWAP1 DUP3 ADD MSTORE PUSH32 0x4E4F204558504C4943495420414D4F554E5420544F205245504159204F4E2042 PUSH1 0x40 DUP3 ADD MSTORE PUSH5 0x22A420A623 PUSH1 0xD9 SHL PUSH1 0x60 DUP3 ADD MSTORE PUSH1 0x80 ADD SWAP1 JUMP JUMPDEST PUSH1 0x20 DUP1 DUP3 MSTORE PUSH1 0x1D SWAP1 DUP3 ADD MSTORE PUSH32 0x20535441424C4520424F52524F57494E47204E4F5420454E41424C4544000000 PUSH1 0x40 DUP3 ADD MSTORE PUSH1 0x60 ADD SWAP1 JUMP JUMPDEST PUSH1 0x20 DUP1 DUP3 MSTORE PUSH1 0x1C SWAP1 DUP3 ADD MSTORE PUSH32 0x4D415448204D554C5449504C49434154494F4E204F564552464C4F5700000000 PUSH1 0x40 DUP3 ADD MSTORE PUSH1 0x60 ADD SWAP1 JUMP JUMPDEST PUSH1 0x20 DUP1 DUP3 MSTORE PUSH1 0x2D SWAP1 DUP3 ADD MSTORE PUSH32 0x4865616C746820466163746F72206C657373207468616E204C69717569646174 PUSH1 0x40 DUP3 ADD MSTORE PUSH13 0x1A5BDB881D1A1C995CDA1BDB19 PUSH1 0x9A SHL PUSH1 0x60 DUP3 ADD MSTORE PUSH1 0x80 ADD SWAP1 JUMP JUMPDEST PUSH1 0x20 DUP1 DUP3 MSTORE PUSH1 0x15 SWAP1 DUP3 ADD MSTORE PUSH21 0x4D415448204449564953494F4E204259205A45524F PUSH1 0x58 SHL PUSH1 0x40 DUP3 ADD MSTORE PUSH1 0x60 ADD SWAP1 JUMP JUMPDEST PUSH1 0x20 DUP1 DUP3 MSTORE PUSH1 0x21 SWAP1 DUP3 ADD MSTORE PUSH32 0x4E6F742073756666696369656E7420636F6C6C61746572616C2070726573656E PUSH1 0x40 DUP3 ADD MSTORE PUSH1 0x1D PUSH1 0xFA SHL PUSH1 0x60 DUP3 ADD MSTORE PUSH1 0x80 ADD SWAP1 JUMP JUMPDEST PUSH1 0x20 DUP1 DUP3 MSTORE PUSH1 0x1A SWAP1 DUP3 ADD MSTORE PUSH32 0x537461626C6520426F72726F77206E6F7420656E61626C65642E000000000000 PUSH1 0x40 DUP3 ADD MSTORE PUSH1 0x60 ADD SWAP1 JUMP JUMPDEST PUSH1 0x20 DUP1 DUP3 MSTORE PUSH1 0x18 SWAP1 DUP3 ADD MSTORE PUSH32 0x496E76616C696420696E737472756D656E7420496E6465780000000000000000 PUSH1 0x40 DUP3 ADD MSTORE PUSH1 0x60 ADD SWAP1 JUMP JUMPDEST PUSH1 0x20 DUP1 DUP3 MSTORE PUSH1 0x15 SWAP1 DUP3 ADD MSTORE PUSH21 0x4D4154485F4449564953494F4E5F42595F5A45524F PUSH1 0x58 SHL PUSH1 0x40 DUP3 ADD MSTORE PUSH1 0x60 ADD SWAP1 JUMP JUMPDEST SWAP1 DUP2 MSTORE PUSH1 0x20 ADD SWAP1 JUMP JUMPDEST PUSH1 0x1 PUSH1 0x1 PUSH1 0xA0 SHL SUB DUP2 AND DUP2 EQ PUSH2 0x2218 JUMPI PUSH1 0x0 DUP1 REVERT JUMPDEST POP JUMP JUMPDEST DUP1 ISZERO ISZERO DUP2 EQ PUSH2 0x2218 JUMPI PUSH1 0x0 DUP1 REVERT INVALID LOG2 PUSH5 0x6970667358 0x22 SLT KECCAK256 DELEGATECALL REVERT DIFFICULTY PUSH8 0x25183E65B36EE3C5 0xE6 0xCF LOG1 SWAP11 0xCC 0xF9 DUP2 EXP PUSH31 0x2B9CBCB00E37A2A12C9F8F64736F6C63430007000033000000000000000000 "
		},
		"gasEstimates": {
			"creation": {
				"codeDepositCost": "1759800",
				"executionCost": "1877",
				"totalCost": "1761677"
			},
			"external": {
				"REBALANCE_UP_LIQUIDITY_RATE_THRESHOLD()": "234",
				"REBALANCE_UP_USAGE_RATIO_THRESHOLD()": "213",
				"validateBorrow(address,DataTypes.InstrumentData storage,address,uint256,uint256,uint256,uint256,mapping(address => DataTypes.InstrumentData) storage,DataTypes.UserConfigurationMap storage,mapping(uint256 => address) storage,uint256,address)": "infinite",
				"validateDeposit(DataTypes.InstrumentData storage,uint256)": "1419",
				"validateRebalanceStableBorrowRate(DataTypes.InstrumentData storage,address,IERC20,IERC20,address)": "infinite",
				"validateRepay(DataTypes.InstrumentData storage,uint256,DataTypes.InterestRateMode,address,uint256,uint256)": "1790",
				"validateSetUseInstrumentAsCollateral(DataTypes.InstrumentData storage,address,bool,mapping(address => DataTypes.InstrumentData) storage,DataTypes.UserConfigurationMap storage,mapping(uint256 => address) storage,uint256,address)": "infinite",
				"validateSwapRateMode(DataTypes.InstrumentData storage,DataTypes.UserConfigurationMap storage,uint256,uint256,DataTypes.InterestRateMode)": "infinite",
				"validateWithdraw(address,uint256,uint256,mapping(address => DataTypes.InstrumentData) storage,DataTypes.UserConfigurationMap storage,mapping(uint256 => address) storage,uint256,address)": "infinite"
			},
			"internal": {
				"validateFlashloan(address[] memory,uint256[] memory)": "infinite",
				"validateLiquidationCall(struct DataTypes.InstrumentData storage pointer,struct DataTypes.InstrumentData storage pointer,struct DataTypes.UserConfigurationMap storage pointer,uint256,uint256,uint256)": "infinite",
				"validateTransfer(address,mapping(address => struct DataTypes.InstrumentData storage ref),struct DataTypes.UserConfigurationMap storage pointer,mapping(uint256 => address),uint256,address)": "infinite"
			}
		},
		"methodIdentifiers": {
			"REBALANCE_UP_LIQUIDITY_RATE_THRESHOLD()": "abfcc86a",
			"REBALANCE_UP_USAGE_RATIO_THRESHOLD()": "5494eb8a",
			"validateBorrow(address,DataTypes.InstrumentData storage,address,uint256,uint256,uint256,uint256,mapping(address => DataTypes.InstrumentData) storage,DataTypes.UserConfigurationMap storage,mapping(uint256 => address) storage,uint256,address)": "81dd5443",
			"validateDeposit(DataTypes.InstrumentData storage,uint256)": "ce310115",
			"validateRebalanceStableBorrowRate(DataTypes.InstrumentData storage,address,IERC20,IERC20,address)": "a463ae14",
			"validateRepay(DataTypes.InstrumentData storage,uint256,DataTypes.InterestRateMode,address,uint256,uint256)": "73721f8d",
			"validateSetUseInstrumentAsCollateral(DataTypes.InstrumentData storage,address,bool,mapping(address => DataTypes.InstrumentData) storage,DataTypes.UserConfigurationMap storage,mapping(uint256 => address) storage,uint256,address)": "efa388be",
			"validateSwapRateMode(DataTypes.InstrumentData storage,DataTypes.UserConfigurationMap storage,uint256,uint256,DataTypes.InterestRateMode)": "cc2a02d7",
			"validateWithdraw(address,uint256,uint256,mapping(address => DataTypes.InstrumentData) storage,DataTypes.UserConfigurationMap storage,mapping(uint256 => address) storage,uint256,address)": "655f0bd8"
		}
	},
	"abi": [
		{
			"inputs": [],
			"name": "REBALANCE_UP_LIQUIDITY_RATE_THRESHOLD",
			"outputs": [
				{
					"internalType": "uint256",
					"name": "",
					"type": "uint256"
				}
			],
			"stateMutability": "view",
			"type": "function"
		},
		{
			"inputs": [],
			"name": "REBALANCE_UP_USAGE_RATIO_THRESHOLD",
			"outputs": [
				{
					"internalType": "uint256",
					"name": "",
					"type": "uint256"
				}
			],
			"stateMutability": "view",
			"type": "function"
		}
	]
}